{
  "address": "0xe278a05De23e77BA250Adfd0A8aA9DFAaFdd0366",
  "abi": [
    {
      "inputs": [
        {
          "internalType": "address",
          "name": "cyclixRandomizer",
          "type": "address"
        },
        {
          "internalType": "address",
          "name": "lotteryReader",
          "type": "address"
        },
        {
          "internalType": "address",
          "name": "_lotteryRoundCreator",
          "type": "address"
        },
        {
          "internalType": "address",
          "name": "_paymentToken",
          "type": "address"
        },
        {
          "internalType": "uint256",
          "name": "_ticketPrice",
          "type": "uint256"
        },
        {
          "internalType": "bool",
          "name": "_freeRoundsAreEnabled",
          "type": "bool"
        }
      ],
      "stateMutability": "nonpayable",
      "type": "constructor"
    },
    {
      "inputs": [
        {
          "internalType": "address",
          "name": "target",
          "type": "address"
        }
      ],
      "name": "AddressEmptyCode",
      "type": "error"
    },
    {
      "inputs": [
        {
          "internalType": "address",
          "name": "account",
          "type": "address"
        }
      ],
      "name": "AddressInsufficientBalance",
      "type": "error"
    },
    {
      "inputs": [],
      "name": "FailedInnerCall",
      "type": "error"
    },
    {
      "inputs": [
        {
          "internalType": "address",
          "name": "owner",
          "type": "address"
        }
      ],
      "name": "OwnableInvalidOwner",
      "type": "error"
    },
    {
      "inputs": [
        {
          "internalType": "address",
          "name": "account",
          "type": "address"
        }
      ],
      "name": "OwnableUnauthorizedAccount",
      "type": "error"
    },
    {
      "inputs": [
        {
          "internalType": "address",
          "name": "token",
          "type": "address"
        }
      ],
      "name": "SafeERC20FailedOperation",
      "type": "error"
    },
    {
      "anonymous": false,
      "inputs": [
        {
          "indexed": true,
          "internalType": "address",
          "name": "previousOwner",
          "type": "address"
        },
        {
          "indexed": true,
          "internalType": "address",
          "name": "newOwner",
          "type": "address"
        }
      ],
      "name": "OwnershipTransferred",
      "type": "event"
    },
    {
      "inputs": [
        {
          "internalType": "address[]",
          "name": "participant",
          "type": "address[]"
        }
      ],
      "name": "addFreeRound",
      "outputs": [],
      "stateMutability": "nonpayable",
      "type": "function"
    },
    {
      "inputs": [
        {
          "internalType": "uint256",
          "name": "",
          "type": "uint256"
        }
      ],
      "name": "bankWallets",
      "outputs": [
        {
          "internalType": "address",
          "name": "",
          "type": "address"
        }
      ],
      "stateMutability": "view",
      "type": "function"
    },
    {
      "inputs": [
        {
          "internalType": "uint16[]",
          "name": "moreTicketNumbers",
          "type": "uint16[]"
        },
        {
          "internalType": "address",
          "name": "referral",
          "type": "address"
        },
        {
          "internalType": "address",
          "name": "buyer",
          "type": "address"
        }
      ],
      "name": "buyTickets",
      "outputs": [],
      "stateMutability": "nonpayable",
      "type": "function"
    },
    {
      "inputs": [],
      "name": "claimVictory",
      "outputs": [],
      "stateMutability": "nonpayable",
      "type": "function"
    },
    {
      "inputs": [
        {
          "internalType": "uint256",
          "name": "_statusEndTime",
          "type": "uint256"
        },
        {
          "internalType": "uint32",
          "name": "referralWinners",
          "type": "uint32"
        }
      ],
      "name": "closeRound",
      "outputs": [],
      "stateMutability": "nonpayable",
      "type": "function"
    },
    {
      "inputs": [],
      "name": "counterForBankWallets",
      "outputs": [
        {
          "internalType": "uint16",
          "name": "",
          "type": "uint16"
        }
      ],
      "stateMutability": "view",
      "type": "function"
    },
    {
      "inputs": [
        {
          "internalType": "address",
          "name": "",
          "type": "address"
        }
      ],
      "name": "crossChainOperator",
      "outputs": [
        {
          "internalType": "bool",
          "name": "",
          "type": "bool"
        }
      ],
      "stateMutability": "view",
      "type": "function"
    },
    {
      "inputs": [
        {
          "internalType": "uint256",
          "name": "roundId",
          "type": "uint256"
        },
        {
          "internalType": "uint256",
          "name": "_statusEndTime",
          "type": "uint256"
        },
        {
          "internalType": "uint16",
          "name": "referralWinnersCountCrossChain",
          "type": "uint16"
        }
      ],
      "name": "fetchRoundNumbers",
      "outputs": [],
      "stateMutability": "nonpayable",
      "type": "function"
    },
    {
      "inputs": [
        {
          "internalType": "uint256",
          "name": "",
          "type": "uint256"
        },
        {
          "internalType": "address",
          "name": "",
          "type": "address"
        }
      ],
      "name": "freeRounds",
      "outputs": [
        {
          "internalType": "uint256",
          "name": "",
          "type": "uint256"
        }
      ],
      "stateMutability": "view",
      "type": "function"
    },
    {
      "inputs": [],
      "name": "freeRoundsAreEnabled",
      "outputs": [
        {
          "internalType": "bool",
          "name": "",
          "type": "bool"
        }
      ],
      "stateMutability": "view",
      "type": "function"
    },
    {
      "inputs": [],
      "name": "lotteryRoundCreator",
      "outputs": [
        {
          "internalType": "contract LotteryRoundCreatorInterface",
          "name": "",
          "type": "address"
        }
      ],
      "stateMutability": "view",
      "type": "function"
    },
    {
      "inputs": [],
      "name": "lotteryStatus",
      "outputs": [
        {
          "internalType": "enum LotteryStatuses",
          "name": "",
          "type": "uint8"
        }
      ],
      "stateMutability": "view",
      "type": "function"
    },
    {
      "inputs": [
        {
          "internalType": "uint256",
          "name": "roundId",
          "type": "uint256"
        },
        {
          "internalType": "uint256",
          "name": "_statusEndTime",
          "type": "uint256"
        },
        {
          "internalType": "uint256[]",
          "name": "amountWonForEachTicketCrossChain",
          "type": "uint256[]"
        }
      ],
      "name": "markWinners",
      "outputs": [],
      "stateMutability": "nonpayable",
      "type": "function"
    },
    {
      "inputs": [],
      "name": "owner",
      "outputs": [
        {
          "internalType": "address",
          "name": "",
          "type": "address"
        }
      ],
      "stateMutability": "view",
      "type": "function"
    },
    {
      "inputs": [],
      "name": "paymentToken",
      "outputs": [
        {
          "internalType": "contract IERC20Metadata",
          "name": "",
          "type": "address"
        }
      ],
      "stateMutability": "view",
      "type": "function"
    },
    {
      "inputs": [],
      "name": "percentageOfReferralWinners",
      "outputs": [
        {
          "internalType": "uint16",
          "name": "",
          "type": "uint16"
        }
      ],
      "stateMutability": "view",
      "type": "function"
    },
    {
      "inputs": [
        {
          "internalType": "uint256",
          "name": "",
          "type": "uint256"
        }
      ],
      "name": "publicRoundRandomNumbersRequestId",
      "outputs": [
        {
          "internalType": "uint256",
          "name": "",
          "type": "uint256"
        }
      ],
      "stateMutability": "view",
      "type": "function"
    },
    {
      "inputs": [],
      "name": "randomizer",
      "outputs": [
        {
          "internalType": "contract CyclixRandomizerInterface",
          "name": "",
          "type": "address"
        }
      ],
      "stateMutability": "view",
      "type": "function"
    },
    {
      "inputs": [],
      "name": "reader",
      "outputs": [
        {
          "internalType": "contract LotteryReaderInterface",
          "name": "",
          "type": "address"
        }
      ],
      "stateMutability": "view",
      "type": "function"
    },
    {
      "inputs": [],
      "name": "renounceOwnership",
      "outputs": [],
      "stateMutability": "nonpayable",
      "type": "function"
    },
    {
      "inputs": [],
      "name": "roundCount",
      "outputs": [
        {
          "internalType": "uint256",
          "name": "",
          "type": "uint256"
        }
      ],
      "stateMutability": "view",
      "type": "function"
    },
    {
      "inputs": [
        {
          "internalType": "uint256",
          "name": "",
          "type": "uint256"
        }
      ],
      "name": "rounds",
      "outputs": [
        {
          "internalType": "address",
          "name": "",
          "type": "address"
        }
      ],
      "stateMutability": "view",
      "type": "function"
    },
    {
      "inputs": [],
      "name": "sendCryptoToTeam",
      "outputs": [],
      "stateMutability": "nonpayable",
      "type": "function"
    },
    {
      "inputs": [
        {
          "internalType": "address",
          "name": "_token",
          "type": "address"
        }
      ],
      "name": "sendTokenToTeam",
      "outputs": [],
      "stateMutability": "nonpayable",
      "type": "function"
    },
    {
      "inputs": [
        {
          "internalType": "address",
          "name": "wallet",
          "type": "address"
        },
        {
          "internalType": "bool",
          "name": "add",
          "type": "bool"
        }
      ],
      "name": "setBankWallet",
      "outputs": [],
      "stateMutability": "nonpayable",
      "type": "function"
    },
    {
      "inputs": [
        {
          "internalType": "address",
          "name": "operator",
          "type": "address"
        },
        {
          "internalType": "bool",
          "name": "value",
          "type": "bool"
        }
      ],
      "name": "setCrossChainOperator",
      "outputs": [],
      "stateMutability": "nonpayable",
      "type": "function"
    },
    {
      "inputs": [
        {
          "internalType": "uint256",
          "name": "_statusEndTime",
          "type": "uint256"
        }
      ],
      "name": "startNewRound",
      "outputs": [],
      "stateMutability": "nonpayable",
      "type": "function"
    },
    {
      "inputs": [
        {
          "internalType": "uint256",
          "name": "_statusEndTime",
          "type": "uint256"
        },
        {
          "internalType": "address",
          "name": "previousRound",
          "type": "address"
        },
        {
          "internalType": "uint256",
          "name": "uiId",
          "type": "uint256"
        }
      ],
      "name": "startNewRoundForUpgrade",
      "outputs": [],
      "stateMutability": "nonpayable",
      "type": "function"
    },
    {
      "inputs": [],
      "name": "statusEndTime",
      "outputs": [
        {
          "internalType": "uint256",
          "name": "",
          "type": "uint256"
        }
      ],
      "stateMutability": "view",
      "type": "function"
    },
    {
      "inputs": [],
      "name": "statusStartTime",
      "outputs": [
        {
          "internalType": "uint256",
          "name": "",
          "type": "uint256"
        }
      ],
      "stateMutability": "view",
      "type": "function"
    },
    {
      "inputs": [],
      "name": "ticketPrice",
      "outputs": [
        {
          "internalType": "uint256",
          "name": "",
          "type": "uint256"
        }
      ],
      "stateMutability": "view",
      "type": "function"
    },
    {
      "inputs": [
        {
          "internalType": "address",
          "name": "newOwner",
          "type": "address"
        }
      ],
      "name": "transferOwnership",
      "outputs": [],
      "stateMutability": "nonpayable",
      "type": "function"
    },
    {
      "inputs": [
        {
          "internalType": "address",
          "name": "cyclixRandomizer",
          "type": "address"
        },
        {
          "internalType": "address",
          "name": "lotteryReader",
          "type": "address"
        },
        {
          "internalType": "address",
          "name": "_lotteryRoundCreator",
          "type": "address"
        },
        {
          "internalType": "address",
          "name": "_paymentToken",
          "type": "address"
        },
        {
          "internalType": "uint256",
          "name": "_ticketPrice",
          "type": "uint256"
        },
        {
          "internalType": "uint16",
          "name": "_percentageOfReferralWinners",
          "type": "uint16"
        },
        {
          "internalType": "uint16[]",
          "name": "_poolPercentagesBasePoints",
          "type": "uint16[]"
        },
        {
          "internalType": "bool",
          "name": "_freeRoundsAreEnabled",
          "type": "bool"
        }
      ],
      "name": "updateSetup",
      "outputs": [],
      "stateMutability": "nonpayable",
      "type": "function"
    },
    {
      "inputs": [
        {
          "internalType": "address",
          "name": "_teamAddress",
          "type": "address"
        }
      ],
      "name": "updateTeamAddress",
      "outputs": [],
      "stateMutability": "nonpayable",
      "type": "function"
    }
  ],
  "transactionHash": "0xabf79798f18f151b7617d6c7bdc5798121de97590f7ce858f01b377bc5045ac5",
  "args": [
    "0xB6592914c7f0E9eeAbB4F59041c5aEeB61581cA7",
    "0xc8a4555f5408678130e6a843753f133Dd603FBbE",
    "0x2a9441710249287d3cE462C87f716D854C99BaE9",
    "0x2e13f2B116b8d4B765D730f20A4aF09d15D8B62e",
    10,
    true
  ],
  "numDeployments": 1,
  "solcInputHash": "bec4ae2c653521b62343ab38223a7692",
  "bytecode": "0x60806040526000601060006101000a81548160ff021916908315150217905550600a601060016101000a81548161ffff021916908361ffff1602179055503480156200004a57600080fd5b5060405162005de638038062005de68339818101604052810190620000709190620005be565b3380600073ffffffffffffffffffffffffffffffffffffffff168173ffffffffffffffffffffffffffffffffffffffff1603620000e75760006040517f1e4fbdf7000000000000000000000000000000000000000000000000000000008152600401620000de91906200066b565b60405180910390fd5b620000f8816200041860201b60201c565b5080600160006101000a81548173ffffffffffffffffffffffffffffffffffffffff021916908373ffffffffffffffffffffffffffffffffffffffff160217905550504660028190555085600d60006101000a81548173ffffffffffffffffffffffffffffffffffffffff021916908373ffffffffffffffffffffffffffffffffffffffff160217905550600d60009054906101000a900473ffffffffffffffffffffffffffffffffffffffff1673ffffffffffffffffffffffffffffffffffffffff1663cd0f2311306040518263ffffffff1660e01b8152600401620001e09190620006e9565b600060405180830381600087803b158015620001fb57600080fd5b505af115801562000210573d6000803e3d6000fd5b5050505084600e60006101000a81548173ffffffffffffffffffffffffffffffffffffffff021916908373ffffffffffffffffffffffffffffffffffffffff16021790555083601060036101000a81548173ffffffffffffffffffffffffffffffffffffffff021916908373ffffffffffffffffffffffffffffffffffffffff16021790555082600c60006101000a81548173ffffffffffffffffffffffffffffffffffffffff021916908373ffffffffffffffffffffffffffffffffffffffff160217905550600c60009054906101000a900473ffffffffffffffffffffffffffffffffffffffff1673ffffffffffffffffffffffffffffffffffffffff1663313ce5676040518163ffffffff1660e01b8152600401602060405180830381865afa15801562000345573d6000803e3d6000fd5b505050506040513d601f19601f820116820180604052508101906200036b919062000759565b60ff16600a6200037c91906200090e565b826200038991906200095f565b600f8190555080601060006101000a81548160ff021916908315150217905550600b339080600181540180825580915050600190039060005260206000200160009091909190916101000a81548173ffffffffffffffffffffffffffffffffffffffff021916908373ffffffffffffffffffffffffffffffffffffffff160217905550505050505050620009aa565b60008060009054906101000a900473ffffffffffffffffffffffffffffffffffffffff169050816000806101000a81548173ffffffffffffffffffffffffffffffffffffffff021916908373ffffffffffffffffffffffffffffffffffffffff1602179055508173ffffffffffffffffffffffffffffffffffffffff168173ffffffffffffffffffffffffffffffffffffffff167f8be0079c531659141344cd1fd0a4f28419497f9722a3daafe3b4186f6b6457e060405160405180910390a35050565b600080fd5b600073ffffffffffffffffffffffffffffffffffffffff82169050919050565b60006200050e82620004e1565b9050919050565b620005208162000501565b81146200052c57600080fd5b50565b600081519050620005408162000515565b92915050565b6000819050919050565b6200055b8162000546565b81146200056757600080fd5b50565b6000815190506200057b8162000550565b92915050565b60008115159050919050565b620005988162000581565b8114620005a457600080fd5b50565b600081519050620005b8816200058d565b92915050565b60008060008060008060c08789031215620005de57620005dd620004dc565b5b6000620005ee89828a016200052f565b96505060206200060189828a016200052f565b95505060406200061489828a016200052f565b94505060606200062789828a016200052f565b93505060806200063a89828a016200056a565b92505060a06200064d89828a01620005a7565b9150509295509295509295565b620006658162000501565b82525050565b60006020820190506200068260008301846200065a565b92915050565b600082825260208201905092915050565b7f4c6f74746572794d617374657256302e31000000000000000000000000000000600082015250565b6000620006d160118362000688565b9150620006de8262000699565b602082019050919050565b60006040820190506200070060008301846200065a565b81810360208301526200071381620006c2565b905092915050565b600060ff82169050919050565b62000733816200071b565b81146200073f57600080fd5b50565b600081519050620007538162000728565b92915050565b600060208284031215620007725762000771620004dc565b5b6000620007828482850162000742565b91505092915050565b7f4e487b7100000000000000000000000000000000000000000000000000000000600052601160045260246000fd5b60008160011c9050919050565b6000808291508390505b60018511156200081957808604811115620007f157620007f06200078b565b5b6001851615620008015780820291505b80810290506200081185620007ba565b9450620007d1565b94509492505050565b60008262000834576001905062000907565b8162000844576000905062000907565b81600181146200085d576002811462000868576200089e565b600191505062000907565b60ff8411156200087d576200087c6200078b565b5b8360020a9150848211156200089757620008966200078b565b5b5062000907565b5060208310610133831016604e8410600b8410161715620008d85782820a905083811115620008d257620008d16200078b565b5b62000907565b620008e78484846001620007c7565b925090508184048111156200090157620009006200078b565b5b81810290505b9392505050565b60006200091b8262000546565b9150620009288362000546565b9250620009577fffffffffffffffffffffffffffffffffffffffffffffffffffffffffffffffff848462000822565b905092915050565b60006200096c8262000546565b9150620009798362000546565b9250828202620009898162000546565b91508282048414831517620009a357620009a26200078b565b5b5092915050565b61542c80620009ba6000396000f3fe608060405234801561001057600080fd5b50600436106102065760003560e01c806387da46f11161011a578063bbd1783a116100ad578063e03d753a1161007c578063e03d753a14610579578063f10fb58414610597578063f2fde38b146105b5578063f4dec22b146105d1578063f542bd9a146105ef57610206565b8063bbd1783a14610505578063c6097f9e1461050f578063cedd1bc31461052b578063d4fc42c61461055b57610206565b8063998da3e9116100e9578063998da3e914610495578063a8eed12d146104b1578063abe659fe146104cd578063b33d8c54146104e957610206565b806387da46f11461040b5780638c65c81f146104295780638da5cb5b1461045957806392566fdd1461047757610206565b80633013ce291161019d57806350a8971b1161016c57806350a8971b1461037d57806362cd30d114610399578063715018a6146103b557806375e5460d146103bf578063839163ae146103ef57610206565b80633013ce29146102f55780633fda7d95146103135780634615102c1461033157806347be7bf61461034d57610206565b80631abddf33116101d95780631abddf33146102815780631ed15aa41461028b57806322429429146102a7578063258799f8146102c557610206565b80630d683dd91461020b5780631209b1f614610229578063127f0b3f1461024757806314eb76ac14610265575b600080fd5b61021361060b565b60405161022091906131c6565b60405180910390f35b61023161061e565b60405161023e91906131fa565b60405180910390f35b61024f610624565b60405161025c91906131fa565b60405180910390f35b61027f600480360381019061027a9190613287565b61062a565b005b610289610676565b005b6102a560048036038101906102a091906132ec565b610c65565b005b6102af610eab565b6040516102bc91906131fa565b60405180910390f35b6102df60048036038101906102da9190613358565b610eb1565b6040516102ec9190613394565b60405180910390f35b6102fd610ef0565b60405161030a919061340e565b60405180910390f35b61031b610f16565b60405161032891906131fa565b60405180910390f35b61034b60048036038101906103469190613358565b610f1c565b005b61036760048036038101906103629190613429565b611073565b60405161037491906131fa565b60405180910390f35b610397600480360381019061039291906134a5565b611098565b005b6103b360048036038101906103ae9190613678565b611224565b005b6103bd6115bc565b005b6103d960048036038101906103d49190613287565b6115d0565b6040516103e69190613759565b60405180910390f35b61040960048036038101906104049190613774565b6115f0565b005b6104136117ee565b60405161042091906137e8565b60405180910390f35b610443600480360381019061043e9190613358565b611814565b6040516104509190613394565b60405180910390f35b610461611853565b60405161046e9190613394565b60405180910390f35b61047f61187c565b60405161048c9190613812565b60405180910390f35b6104af60048036038101906104aa9190613287565b611890565b005b6104cb60048036038101906104c691906132ec565b611951565b005b6104e760048036038101906104e291906138f0565b6119b4565b005b61050360048036038101906104fe91906139ba565b611bc5565b005b61050d611c7c565b005b61052960048036038101906105249190613a07565b611cf9565b005b61054560048036038101906105409190613358565b612243565b60405161055291906131fa565b60405180910390f35b61056361225b565b6040516105709190613a7b565b60405180910390f35b610581612281565b60405161058e9190613759565b60405180910390f35b61059f612294565b6040516105ac9190613ab7565b60405180910390f35b6105cf60048036038101906105ca9190613287565b6122ba565b005b6105d9612340565b6040516105e69190613812565b60405180910390f35b61060960048036038101906106049190613ad2565b612354565b005b600560009054906101000a900460ff1681565b600f5481565b60035481565b610632612621565b80600160006101000a81548173ffffffffffffffffffffffffffffffffffffffff021916908373ffffffffffffffffffffffffffffffffffffffff16021790555050565b6003808111156106895761068861314f565b5b600560009054906101000a900460ff1660038111156106ab576106aa61314f565b5b146106eb576040517f08c379a00000000000000000000000000000000000000000000000000000000081526004016106e290613b9e565b60405180910390fd5b426007541161072f576040517f08c379a000000000000000000000000000000000000000000000000000000000815260040161072690613c0a565b60405180910390fd5b6000600e60009054906101000a900473ffffffffffffffffffffffffffffffffffffffff1673ffffffffffffffffffffffffffffffffffffffff1663b7991e336003543360006040518463ffffffff1660e01b815260040161079393929190613c2a565b602060405180830381865afa1580156107b0573d6000803e3d6000fd5b505050506040513d601f19601f820116820180604052508101906107d49190613c76565b90506000600e60009054906101000a900473ffffffffffffffffffffffffffffffffffffffff1673ffffffffffffffffffffffffffffffffffffffff1663a521dc956003543360006040518463ffffffff1660e01b815260040161083a93929190613c2a565b602060405180830381865afa158015610857573d6000803e3d6000fd5b505050506040513d601f19601f8201168201806040525081019061087b9190613c76565b9050600082118061088c5750600081115b6108cb576040517f08c379a00000000000000000000000000000000000000000000000000000000081526004016108c290613cef565b60405180910390fd5b80826108d79190613d3e565b600c60009054906101000a900473ffffffffffffffffffffffffffffffffffffffff1673ffffffffffffffffffffffffffffffffffffffff166370a08231306040518263ffffffff1660e01b81526004016109329190613394565b602060405180830381865afa15801561094f573d6000803e3d6000fd5b505050506040513d601f19601f820116820180604052508101906109739190613c76565b10156109b4576040517f08c379a00000000000000000000000000000000000000000000000000000000081526004016109ab90613dbe565b60405180910390fd5b600460016003546109c59190613dde565b815481106109d6576109d5613e12565b5b9060005260206000200160009054906101000a900473ffffffffffffffffffffffffffffffffffffffff1673ffffffffffffffffffffffffffffffffffffffff1663b82e18ff600e60009054906101000a900473ffffffffffffffffffffffffffffffffffffffff1673ffffffffffffffffffffffffffffffffffffffff1663eed25896600354336040518363ffffffff1660e01b8152600401610a7b929190613e41565b600060405180830381865afa158015610a98573d6000803e3d6000fd5b505050506040513d6000823e3d601f19601f82011682018060405250810190610ac19190614026565b600e60009054906101000a900473ffffffffffffffffffffffffffffffffffffffff1673ffffffffffffffffffffffffffffffffffffffff166317ba3b7d600354336040518363ffffffff1660e01b8152600401610b20929190613e41565b600060405180830381865afa158015610b3d573d6000803e3d6000fd5b505050506040513d6000823e3d601f19601f82011682018060405250810190610b6691906141e6565b6040518363ffffffff1660e01b8152600401610b8392919061450b565b600060405180830381600087803b158015610b9d57600080fd5b505af1158015610bb1573d6000803e3d6000fd5b50505050600c60009054906101000a900473ffffffffffffffffffffffffffffffffffffffff1673ffffffffffffffffffffffffffffffffffffffff1663a9059cbb338385610c009190613d3e565b6040518363ffffffff1660e01b8152600401610c1d929190614542565b6020604051808303816000875af1158015610c3c573d6000803e3d6000fd5b505050506040513d601f19601f82011682018060405250810190610c60919061456b565b505050565b610c6d612621565b60005b600b80549050811015610e3c578273ffffffffffffffffffffffffffffffffffffffff16600b8281548110610ca857610ca7613e12565b5b9060005260206000200160009054906101000a900473ffffffffffffffffffffffffffffffffffffffff1673ffffffffffffffffffffffffffffffffffffffff1603610e2f578115610d3a576000610d35576040517f08c379a0000000000000000000000000000000000000000000000000000000008152600401610d2c906145e4565b60405180910390fd5b610e2e565b600b6001600b80549050610d4e9190613dde565b81548110610d5f57610d5e613e12565b5b9060005260206000200160009054906101000a900473ffffffffffffffffffffffffffffffffffffffff16600b8281548110610d9e57610d9d613e12565b5b9060005260206000200160006101000a81548173ffffffffffffffffffffffffffffffffffffffff021916908373ffffffffffffffffffffffffffffffffffffffff160217905550600b805480610df857610df7614604565b5b6001900381819060005260206000200160006101000a81549073ffffffffffffffffffffffffffffffffffffffff021916905590555b5b8080600101915050610c70565b508015610ea757600b829080600181540180825580915050600190039060005260206000200160009091909190916101000a81548173ffffffffffffffffffffffffffffffffffffffff021916908373ffffffffffffffffffffffffffffffffffffffff1602179055505b5050565b60075481565b600b8181548110610ec157600080fd5b906000526020600020016000915054906101000a900473ffffffffffffffffffffffffffffffffffffffff1681565b600c60009054906101000a900473ffffffffffffffffffffffffffffffffffffffff1681565b60065481565b610f24612621565b6000600354111561106257600060046001600354610f429190613dde565b81548110610f5357610f52613e12565b5b9060005260206000200160009054906101000a900473ffffffffffffffffffffffffffffffffffffffff16905061105c8260046001600354610f959190613dde565b81548110610fa657610fa5613e12565b5b9060005260206000200160009054906101000a900473ffffffffffffffffffffffffffffffffffffffff1660018473ffffffffffffffffffffffffffffffffffffffff16639f8743f76040518163ffffffff1660e01b81526004016000604051808303816000875af1158015611020573d6000803e3d6000fd5b505050506040513d6000823e3d601f19601f820116820180604052508101906110499190614908565b602001516110579190613d3e565b6115f0565b50611070565b61106f81600060016115f0565b5b50565b6008602052816000526040600020602052806000526040600020600091509150505481565b6110a0612621565b6000600460016003546110b39190613dde565b815481106110c4576110c3613e12565b5b9060005260206000200160009054906101000a900473ffffffffffffffffffffffffffffffffffffffff1690508073ffffffffffffffffffffffffffffffffffffffff1663e278fe6f6040518163ffffffff1660e01b8152600401600060405180830381600087803b15801561113957600080fd5b505af115801561114d573d6000803e3d6000fd5b50505050600d60009054906101000a900473ffffffffffffffffffffffffffffffffffffffff1673ffffffffffffffffffffffffffffffffffffffff1663e726f2e183600661119c9190614951565b6040518263ffffffff1660e01b81526004016111b89190614998565b6020604051808303816000875af11580156111d7573d6000803e3d6000fd5b505050506040513d601f19601f820116820180604052508101906111fb9190613c76565b6011600060035481526020019081526020016000208190555061121f6001846126a8565b505050565b61122c612621565b8773ffffffffffffffffffffffffffffffffffffffff16600d60009054906101000a900473ffffffffffffffffffffffffffffffffffffffff1673ffffffffffffffffffffffffffffffffffffffff16146113505787600d60006101000a81548173ffffffffffffffffffffffffffffffffffffffff021916908373ffffffffffffffffffffffffffffffffffffffff160217905550600d60009054906101000a900473ffffffffffffffffffffffffffffffffffffffff1673ffffffffffffffffffffffffffffffffffffffff1663cd0f2311306040518263ffffffff1660e01b815260040161131d91906149ff565b600060405180830381600087803b15801561133757600080fd5b505af115801561134b573d6000803e3d6000fd5b505050505b86600e60006101000a81548173ffffffffffffffffffffffffffffffffffffffff021916908373ffffffffffffffffffffffffffffffffffffffff16021790555085601060036101000a81548173ffffffffffffffffffffffffffffffffffffffff021916908373ffffffffffffffffffffffffffffffffffffffff16021790555084600c60006101000a81548173ffffffffffffffffffffffffffffffffffffffff021916908373ffffffffffffffffffffffffffffffffffffffff160217905550600c60009054906101000a900473ffffffffffffffffffffffffffffffffffffffff1673ffffffffffffffffffffffffffffffffffffffff1663313ce5676040518163ffffffff1660e01b8152600401602060405180830381865afa158015611480573d6000803e3d6000fd5b505050506040513d601f19601f820116820180604052508101906114a49190614a66565b60ff16600a6114b39190614bc6565b846114be9190614c11565b600f8190555082601060016101000a81548161ffff021916908361ffff160217905550600460016003546114f29190613dde565b8154811061150357611502613e12565b5b9060005260206000200160009054906101000a900473ffffffffffffffffffffffffffffffffffffffff1673ffffffffffffffffffffffffffffffffffffffff16639469f293836040518263ffffffff1660e01b81526004016115669190614d11565b600060405180830381600087803b15801561158057600080fd5b505af1158015611594573d6000803e3d6000fd5b5050505080601060006101000a81548160ff0219169083151502179055505050505050505050565b6115c4612621565b6115ce60006126f7565b565b60096020528060005260406000206000915054906101000a900460ff1681565b6115f8612621565b6003600081548092919061160b90614d33565b9190505550600073ffffffffffffffffffffffffffffffffffffffff168273ffffffffffffffffffffffffffffffffffffffff16148061168a57506003808111156116595761165861314f565b5b600560009054906101000a900460ff16600381111561167b5761167a61314f565b5b148015611689575042600754105b5b8061169757506000600754145b6116d6576040517f08c379a00000000000000000000000000000000000000000000000000000000081526004016116cd90614dc7565b60405180910390fd5b6004601060039054906101000a900473ffffffffffffffffffffffffffffffffffffffff1673ffffffffffffffffffffffffffffffffffffffff1663159e093b8585600354866040518563ffffffff1660e01b815260040161173b9493929190614de7565b6020604051808303816000875af115801561175a573d6000803e3d6000fd5b505050506040513d601f19601f8201168201806040525081019061177e9190614e2c565b9080600181540180825580915050600190039060005260206000200160009091909190916101000a81548173ffffffffffffffffffffffffffffffffffffffff021916908373ffffffffffffffffffffffffffffffffffffffff1602179055506117e96000846126a8565b505050565b601060039054906101000a900473ffffffffffffffffffffffffffffffffffffffff1681565b6004818154811061182457600080fd5b906000526020600020016000915054906101000a900473ffffffffffffffffffffffffffffffffffffffff1681565b60008060009054906101000a900473ffffffffffffffffffffffffffffffffffffffff16905090565b600a60009054906101000a900461ffff1681565b611898612621565b60008173ffffffffffffffffffffffffffffffffffffffff166370a08231306040518263ffffffff1660e01b81526004016118d39190613394565b602060405180830381865afa1580156118f0573d6000803e3d6000fd5b505050506040513d601f19601f820116820180604052508101906119149190613c76565b9050600081111561194d5761194c82600160009054906101000a900473ffffffffffffffffffffffffffffffffffffffff16836127bb565b5b5050565b611959612621565b80600960008473ffffffffffffffffffffffffffffffffffffffff1673ffffffffffffffffffffffffffffffffffffffff16815260200190815260200160002060006101000a81548160ff0219169083151502179055505050565b6119bc612621565b60046001846119cb9190613dde565b815481106119dc576119db613e12565b5b9060005260206000200160009054906101000a900473ffffffffffffffffffffffffffffffffffffffff1673ffffffffffffffffffffffffffffffffffffffff1663df4fbb2f600e60009054906101000a900473ffffffffffffffffffffffffffffffffffffffff1673ffffffffffffffffffffffffffffffffffffffff16639f75e5c9866040518263ffffffff1660e01b8152600401611a7d91906131fa565b600060405180830381865afa158015611a9a573d6000803e3d6000fd5b505050506040513d6000823e3d601f19601f82011682018060405250810190611ac39190614026565b600e60009054906101000a900473ffffffffffffffffffffffffffffffffffffffff1673ffffffffffffffffffffffffffffffffffffffff166348b2e35c876040518263ffffffff1660e01b8152600401611b1e91906131fa565b600060405180830381865afa158015611b3b573d6000803e3d6000fd5b505050506040513d6000823e3d601f19601f82011682018060405250810190611b6491906141e6565b846040518463ffffffff1660e01b8152600401611b8393929190614f08565b600060405180830381600087803b158015611b9d57600080fd5b505af1158015611bb1573d6000803e3d6000fd5b50505050611bc06003836126a8565b505050565b611bcd612621565b60005b82829050811015611c77576008600060035481526020019081526020016000206000848484818110611c0557611c04613e12565b5b9050602002016020810190611c1a9190613287565b73ffffffffffffffffffffffffffffffffffffffff1673ffffffffffffffffffffffffffffffffffffffff1681526020019081526020016000206000815480929190611c6590614d33565b91905055508080600101915050611bd0565b505050565b611c84612621565b6000471115611cf757600160009054906101000a900473ffffffffffffffffffffffffffffffffffffffff1673ffffffffffffffffffffffffffffffffffffffff166108fc479081150290604051600060405180830381858888f19350505050158015611cf5573d6000803e3d6000fd5b505b565b611d01612621565b60006004600185611d129190613dde565b81548110611d2357611d22613e12565b5b9060005260206000200160009054906101000a900473ffffffffffffffffffffffffffffffffffffffff1690508073ffffffffffffffffffffffffffffffffffffffff1663343f25666040518163ffffffff1660e01b815260040160006040518083038186803b158015611d9657600080fd5b505afa158015611daa573d6000803e3d6000fd5b50505050600080600d60009054906101000a900473ffffffffffffffffffffffffffffffffffffffff1673ffffffffffffffffffffffffffffffffffffffff1663d8a4676f60116000898152602001908152602001600020546040518263ffffffff1660e01b8152600401611e1f91906131fa565b600060405180830381865afa158015611e3c573d6000803e3d6000fd5b505050506040513d6000823e3d601f19601f82011682018060405250810190611e659190614f54565b9150915081611ea9576040517f08c379a0000000000000000000000000000000000000000000000000000000008152600401611ea090614ffc565b60405180910390fd5b6000600667ffffffffffffffff811115611ec657611ec5613535565b5b604051908082528060200260200182016040528015611ef45781602001602082028036833780820191505090505b509050600060068351611f079190613dde565b67ffffffffffffffff811115611f2057611f1f613535565b5b604051908082528060200260200182016040528015611f4e5781602001602082028036833780820191505090505b50905083156121c15760005b600681101561205457600e60009054906101000a900473ffffffffffffffffffffffffffffffffffffffff1673ffffffffffffffffffffffffffffffffffffffff16630c746a8a858381518110611fb457611fb3613e12565b5b60200260200101516045866040518463ffffffff1660e01b8152600401611fdd93929190615057565b602060405180830381865afa158015611ffa573d6000803e3d6000fd5b505050506040513d601f19601f8201168201806040525081019061201e9190615095565b83828151811061203157612030613e12565b5b602002602001019061ffff16908161ffff16815250508080600101915050611f5a565b506001601a8460058151811061206d5761206c613e12565b5b602002602001015161207f91906150f1565b6120899190613d3e565b8260058151811061209d5761209c613e12565b5b602002602001019061ffff16908161ffff16815250506000600690505b83518110156121bf57600e60009054906101000a900473ffffffffffffffffffffffffffffffffffffffff1673ffffffffffffffffffffffffffffffffffffffff16630c746a8a85838151811061211457612113613e12565b5b602002602001015189856040518463ffffffff1660e01b815260040161213c93929190615122565b602060405180830381865afa158015612159573d6000803e3d6000fd5b505050506040513d601f19601f8201168201806040525081019061217d9190615095565b8260068361218b9190613dde565b8151811061219c5761219b613e12565b5b602002602001019061ffff16908161ffff168152505080806001019150506120ba565b505b8473ffffffffffffffffffffffffffffffffffffffff16632724d10483836040518363ffffffff1660e01b81526004016121fc929190615160565b600060405180830381600087803b15801561221657600080fd5b505af115801561222a573d6000803e3d6000fd5b505050506122396002886126a8565b5050505050505050565b60116020528060005260406000206000915090505481565b600e60009054906101000a900473ffffffffffffffffffffffffffffffffffffffff1681565b601060009054906101000a900460ff1681565b600d60009054906101000a900473ffffffffffffffffffffffffffffffffffffffff1681565b6122c2612621565b600073ffffffffffffffffffffffffffffffffffffffff168173ffffffffffffffffffffffffffffffffffffffff16036123345760006040517f1e4fbdf700000000000000000000000000000000000000000000000000000000815260040161232b9190613394565b60405180910390fd5b61233d816126f7565b50565b601060019054906101000a900461ffff1681565b6000805b845181101561244d576000600667ffffffffffffffff81111561237e5761237d613535565b5b6040519080825280602002602001820160405280156123ac5781602001602082028036833780820191505090505b50905060005b6006811015612417578681846123c89190613d3e565b815181106123d9576123d8613e12565b5b60200260200101518282815181106123f4576123f3613e12565b5b602002602001019061ffff16908161ffff168152505080806001019150506123b2565b5061242381868661283a565b15612438576001836124359190613d3e565b92505b506006816124469190613d3e565b9050612358565b50600073ffffffffffffffffffffffffffffffffffffffff168373ffffffffffffffffffffffffffffffffffffffff16141580156124975750601060009054906101000a900460ff165b1561261b578060068551816124af576124ae6150c2565b5b0460086000600354815260200190815260200160002060008573ffffffffffffffffffffffffffffffffffffffff1673ffffffffffffffffffffffffffffffffffffffff16815260200190815260200160002054010360086000600354815260200190815260200160002060008473ffffffffffffffffffffffffffffffffffffffff1673ffffffffffffffffffffffffffffffffffffffff1681526020019081526020016000208190555080600685518161256e5761256d6150c2565b5b0460086000600354815260200190815260200160002060008673ffffffffffffffffffffffffffffffffffffffff1673ffffffffffffffffffffffffffffffffffffffff16815260200190815260200160002054010360086000600354815260200190815260200160002060008573ffffffffffffffffffffffffffffffffffffffff1673ffffffffffffffffffffffffffffffffffffffff168152602001908152602001600020819055505b50505050565b612629612e77565b73ffffffffffffffffffffffffffffffffffffffff16612647611853565b73ffffffffffffffffffffffffffffffffffffffff16146126a65761266a612e77565b6040517f118cdaa700000000000000000000000000000000000000000000000000000000815260040161269d9190613394565b60405180910390fd5b565b6126b0612621565b81600560006101000a81548160ff021916908360038111156126d5576126d461314f565b5b02179055504260068190555080426126ed9190613d3e565b6007819055505050565b60008060009054906101000a900473ffffffffffffffffffffffffffffffffffffffff169050816000806101000a81548173ffffffffffffffffffffffffffffffffffffffff021916908373ffffffffffffffffffffffffffffffffffffffff1602179055508173ffffffffffffffffffffffffffffffffffffffff168173ffffffffffffffffffffffffffffffffffffffff167f8be0079c531659141344cd1fd0a4f28419497f9722a3daafe3b4186f6b6457e060405160405180910390a35050565b612835838473ffffffffffffffffffffffffffffffffffffffff1663a9059cbb85856040516024016127ee929190614542565b604051602081830303815290604052915060e01b6020820180517bffffffffffffffffffffffffffffffffffffffffffffffffffffffff8381831617835250505050612e7f565b505050565b60008060086000600354815260200190815260200160002060008473ffffffffffffffffffffffffffffffffffffffff1673ffffffffffffffffffffffffffffffffffffffff16815260200190815260200160002054118061293b5750600f54600c60009054906101000a900473ffffffffffffffffffffffffffffffffffffffff1673ffffffffffffffffffffffffffffffffffffffff1663dd62ed3e84306040518363ffffffff1660e01b81526004016128f7929190615197565b602060405180830381865afa158015612914573d6000803e3d6000fd5b505050506040513d601f19601f820116820180604052508101906129389190613c76565b10155b8061298f5750600960003373ffffffffffffffffffffffffffffffffffffffff1673ffffffffffffffffffffffffffffffffffffffff16815260200190815260200160002060009054906101000a900460ff165b6129ce576040517f08c379a00000000000000000000000000000000000000000000000000000000081526004016129c59061520c565b60405180910390fd5b6000600460016003546129e19190613dde565b815481106129f2576129f1613e12565b5b9060005260206000200160009054906101000a900473ffffffffffffffffffffffffffffffffffffffff16905060008060086000600354815260200190815260200160002060008673ffffffffffffffffffffffffffffffffffffffff1673ffffffffffffffffffffffffffffffffffffffff168152602001908152602001600020541115612aec5760086000600354815260200190815260200160002060008573ffffffffffffffffffffffffffffffffffffffff1673ffffffffffffffffffffffffffffffffffffffff1681526020019081526020016000206000815480929190612ade9061522c565b919050555060019050612d78565b600960003373ffffffffffffffffffffffffffffffffffffffff1673ffffffffffffffffffffffffffffffffffffffff16815260200190815260200160002060009054906101000a900460ff16612d0a57600f54600c60009054906101000a900473ffffffffffffffffffffffffffffffffffffffff1673ffffffffffffffffffffffffffffffffffffffff166370a08231326040518263ffffffff1660e01b8152600401612b9b9190613394565b602060405180830381865afa158015612bb8573d6000803e3d6000fd5b505050506040513d601f19601f82011682018060405250810190612bdc9190613c76565b1015612c1d576040517f08c379a0000000000000000000000000000000000000000000000000000000008152600401612c14906152a1565b60405180910390fd5b600b80549050600a600081819054906101000a900461ffff1680929190612c43906152c1565b91906101000a81548161ffff021916908361ffff16021790555061ffff16612c6b91906150f1565b600a60006101000a81548161ffff021916908361ffff160217905550612d09600c60009054906101000a900473ffffffffffffffffffffffffffffffffffffffff1685600b600a60009054906101000a900461ffff1661ffff1681548110612cd657612cd5613e12565b5b9060005260206000200160009054906101000a900473ffffffffffffffffffffffffffffffffffffffff16600f54612f16565b5b8173ffffffffffffffffffffffffffffffffffffffff1663b56c12b4600f546040518263ffffffff1660e01b8152600401612d4591906131fa565b600060405180830381600087803b158015612d5f57600080fd5b505af1158015612d73573d6000803e3d6000fd5b505050505b8015612df7578173ffffffffffffffffffffffffffffffffffffffff1663eb7165fa600254886000886040518563ffffffff1660e01b8152600401612dc094939291906152eb565b600060405180830381600087803b158015612dda57600080fd5b505af1158015612dee573d6000803e3d6000fd5b50505050612e6b565b8173ffffffffffffffffffffffffffffffffffffffff1663eb7165fa6002548888886040518563ffffffff1660e01b8152600401612e3894939291906152eb565b600060405180830381600087803b158015612e5257600080fd5b505af1158015612e66573d6000803e3d6000fd5b505050505b80925050509392505050565b600033905090565b6000612eaa828473ffffffffffffffffffffffffffffffffffffffff16612f9890919063ffffffff16565b90506000815114158015612ecf575080806020019051810190612ecd919061456b565b155b15612f1157826040517f5274afe7000000000000000000000000000000000000000000000000000000008152600401612f089190613394565b60405180910390fd5b505050565b612f92848573ffffffffffffffffffffffffffffffffffffffff166323b872dd868686604051602401612f4b93929190615337565b604051602081830303815290604052915060e01b6020820180517bffffffffffffffffffffffffffffffffffffffffffffffffffffffff8381831617835250505050612e7f565b50505050565b6060612fa683836000612fae565b905092915050565b606081471015612ff557306040517fcd786059000000000000000000000000000000000000000000000000000000008152600401612fec9190613394565b60405180910390fd5b6000808573ffffffffffffffffffffffffffffffffffffffff16848660405161301e91906153df565b60006040518083038185875af1925050503d806000811461305b576040519150601f19603f3d011682016040523d82523d6000602084013e613060565b606091505b509150915061307086838361307b565b925050509392505050565b6060826130905761308b8261310a565b613102565b600082511480156130b8575060008473ffffffffffffffffffffffffffffffffffffffff163b145b156130fa57836040517f9996b3150000000000000000000000000000000000000000000000000000000081526004016130f19190613394565b60405180910390fd5b819050613103565b5b9392505050565b60008151111561311d5780518082602001fd5b6040517f1425ea4200000000000000000000000000000000000000000000000000000000815260040160405180910390fd5b7f4e487b7100000000000000000000000000000000000000000000000000000000600052602160045260246000fd5b6004811061318f5761318e61314f565b5b50565b60008190506131a08261317e565b919050565b60006131b082613192565b9050919050565b6131c0816131a5565b82525050565b60006020820190506131db60008301846131b7565b92915050565b6000819050919050565b6131f4816131e1565b82525050565b600060208201905061320f60008301846131eb565b92915050565b6000604051905090565b600080fd5b600080fd5b600073ffffffffffffffffffffffffffffffffffffffff82169050919050565b600061325482613229565b9050919050565b61326481613249565b811461326f57600080fd5b50565b6000813590506132818161325b565b92915050565b60006020828403121561329d5761329c61321f565b5b60006132ab84828501613272565b91505092915050565b60008115159050919050565b6132c9816132b4565b81146132d457600080fd5b50565b6000813590506132e6816132c0565b92915050565b600080604083850312156133035761330261321f565b5b600061331185828601613272565b9250506020613322858286016132d7565b9150509250929050565b613335816131e1565b811461334057600080fd5b50565b6000813590506133528161332c565b92915050565b60006020828403121561336e5761336d61321f565b5b600061337c84828501613343565b91505092915050565b61338e81613249565b82525050565b60006020820190506133a96000830184613385565b92915050565b6000819050919050565b60006133d46133cf6133ca84613229565b6133af565b613229565b9050919050565b60006133e6826133b9565b9050919050565b60006133f8826133db565b9050919050565b613408816133ed565b82525050565b600060208201905061342360008301846133ff565b92915050565b600080604083850312156134405761343f61321f565b5b600061344e85828601613343565b925050602061345f85828601613272565b9150509250929050565b600063ffffffff82169050919050565b61348281613469565b811461348d57600080fd5b50565b60008135905061349f81613479565b92915050565b600080604083850312156134bc576134bb61321f565b5b60006134ca85828601613343565b92505060206134db85828601613490565b9150509250929050565b600061ffff82169050919050565b6134fc816134e5565b811461350757600080fd5b50565b600081359050613519816134f3565b92915050565b600080fd5b6000601f19601f8301169050919050565b7f4e487b7100000000000000000000000000000000000000000000000000000000600052604160045260246000fd5b61356d82613524565b810181811067ffffffffffffffff8211171561358c5761358b613535565b5b80604052505050565b600061359f613215565b90506135ab8282613564565b919050565b600067ffffffffffffffff8211156135cb576135ca613535565b5b602082029050602081019050919050565b600080fd5b60006135f46135ef846135b0565b613595565b90508083825260208201905060208402830185811115613617576136166135dc565b5b835b81811015613640578061362c888261350a565b845260208401935050602081019050613619565b5050509392505050565b600082601f83011261365f5761365e61351f565b5b813561366f8482602086016135e1565b91505092915050565b600080600080600080600080610100898b0312156136995761369861321f565b5b60006136a78b828c01613272565b98505060206136b88b828c01613272565b97505060406136c98b828c01613272565b96505060606136da8b828c01613272565b95505060806136eb8b828c01613343565b94505060a06136fc8b828c0161350a565b93505060c089013567ffffffffffffffff81111561371d5761371c613224565b5b6137298b828c0161364a565b92505060e061373a8b828c016132d7565b9150509295985092959890939650565b613753816132b4565b82525050565b600060208201905061376e600083018461374a565b92915050565b60008060006060848603121561378d5761378c61321f565b5b600061379b86828701613343565b93505060206137ac86828701613272565b92505060406137bd86828701613343565b9150509250925092565b60006137d2826133db565b9050919050565b6137e2816137c7565b82525050565b60006020820190506137fd60008301846137d9565b92915050565b61380c816134e5565b82525050565b60006020820190506138276000830184613803565b92915050565b600067ffffffffffffffff82111561384857613847613535565b5b602082029050602081019050919050565b600061386c6138678461382d565b613595565b9050808382526020820190506020840283018581111561388f5761388e6135dc565b5b835b818110156138b857806138a48882613343565b845260208401935050602081019050613891565b5050509392505050565b600082601f8301126138d7576138d661351f565b5b81356138e7848260208601613859565b91505092915050565b6000806000606084860312156139095761390861321f565b5b600061391786828701613343565b935050602061392886828701613343565b925050604084013567ffffffffffffffff81111561394957613948613224565b5b613955868287016138c2565b9150509250925092565b600080fd5b60008083601f84011261397a5761397961351f565b5b8235905067ffffffffffffffff8111156139975761399661395f565b5b6020830191508360208202830111156139b3576139b26135dc565b5b9250929050565b600080602083850312156139d1576139d061321f565b5b600083013567ffffffffffffffff8111156139ef576139ee613224565b5b6139fb85828601613964565b92509250509250929050565b600080600060608486031215613a2057613a1f61321f565b5b6000613a2e86828701613343565b9350506020613a3f86828701613343565b9250506040613a508682870161350a565b9150509250925092565b6000613a65826133db565b9050919050565b613a7581613a5a565b82525050565b6000602082019050613a906000830184613a6c565b92915050565b6000613aa1826133db565b9050919050565b613ab181613a96565b82525050565b6000602082019050613acc6000830184613aa8565b92915050565b600080600060608486031215613aeb57613aea61321f565b5b600084013567ffffffffffffffff811115613b0957613b08613224565b5b613b158682870161364a565b9350506020613b2686828701613272565b9250506040613b3786828701613272565b9150509250925092565b600082825260208201905092915050565b7f4c6f7474657279206973206e6f7420696e20636c61696d20706572696f640000600082015250565b6000613b88601e83613b41565b9150613b9382613b52565b602082019050919050565b60006020820190508181036000830152613bb781613b7b565b9050919050565b7f436c61696d20506572696f6420656e6465640000000000000000000000000000600082015250565b6000613bf4601283613b41565b9150613bff82613bbe565b602082019050919050565b60006020820190508181036000830152613c2381613be7565b9050919050565b6000606082019050613c3f60008301866131eb565b613c4c6020830185613385565b613c59604083018461374a565b949350505050565b600081519050613c708161332c565b92915050565b600060208284031215613c8c57613c8b61321f565b5b6000613c9a84828501613c61565b91505092915050565b7f4e6f7468696e6720746f20636c61696d20666f7220746869732077616c6c6574600082015250565b6000613cd9602083613b41565b9150613ce482613ca3565b602082019050919050565b60006020820190508181036000830152613d0881613ccc565b9050919050565b7f4e487b7100000000000000000000000000000000000000000000000000000000600052601160045260246000fd5b6000613d49826131e1565b9150613d54836131e1565b9250828201905080821115613d6c57613d6b613d0f565b5b92915050565b7f4e6f7420656e6f7567682066756e6473206f6e20636f6e747261637400000000600082015250565b6000613da8601c83613b41565b9150613db382613d72565b602082019050919050565b60006020820190508181036000830152613dd781613d9b565b9050919050565b6000613de9826131e1565b9150613df4836131e1565b9250828203905081811115613e0c57613e0b613d0f565b5b92915050565b7f4e487b7100000000000000000000000000000000000000000000000000000000600052603260045260246000fd5b6000604082019050613e5660008301856131eb565b613e636020830184613385565b9392505050565b600067ffffffffffffffff821115613e8557613e84613535565b5b602082029050602081019050919050565b600080fd5b600080fd5b600081519050613eaf8161325b565b92915050565b600a8110613ec257600080fd5b50565b600081519050613ed481613eb5565b92915050565b600081519050613ee9816132c0565b92915050565b600060c08284031215613f0557613f04613e96565b5b613f0f60c0613595565b90506000613f1f84828501613c61565b6000830152506020613f3384828501613ea0565b6020830152506040613f4784828501613ec5565b6040830152506060613f5b84828501613eda565b6060830152506080613f6f84828501613eda565b60808301525060a0613f8384828501613c61565b60a08301525092915050565b6000613fa2613f9d84613e6a565b613595565b90508083825260208201905060c08402830185811115613fc557613fc46135dc565b5b835b81811015613fee5780613fda8882613eef565b84526020840193505060c081019050613fc7565b5050509392505050565b600082601f83011261400d5761400c61351f565b5b815161401d848260208601613f8f565b91505092915050565b60006020828403121561403c5761403b61321f565b5b600082015167ffffffffffffffff81111561405a57614059613224565b5b61406684828501613ff8565b91505092915050565b600067ffffffffffffffff82111561408a57614089613535565b5b602082029050602081019050919050565b600060e082840312156140b1576140b0613e96565b5b6140bb60e0613595565b905060006140cb84828501613c61565b60008301525060206140df84828501613ea0565b60208301525060406140f384828501613ea0565b604083015250606061410784828501613c61565b606083015250608061411b84828501613eda565b60808301525060a061412f84828501613eda565b60a08301525060c061414384828501613c61565b60c08301525092915050565b600061416261415d8461406f565b613595565b90508083825260208201905060e08402830185811115614185576141846135dc565b5b835b818110156141ae578061419a888261409b565b84526020840193505060e081019050614187565b5050509392505050565b600082601f8301126141cd576141cc61351f565b5b81516141dd84826020860161414f565b91505092915050565b6000602082840312156141fc576141fb61321f565b5b600082015167ffffffffffffffff81111561421a57614219613224565b5b614226848285016141b8565b91505092915050565b600081519050919050565b600082825260208201905092915050565b6000819050602082019050919050565b614264816131e1565b82525050565b61427381613249565b82525050565b600a811061428a5761428961314f565b5b50565b600081905061429b82614279565b919050565b60006142ab8261428d565b9050919050565b6142bb816142a0565b82525050565b6142ca816132b4565b82525050565b60c0820160008201516142e6600085018261425b565b5060208201516142f9602085018261426a565b50604082015161430c60408501826142b2565b50606082015161431f60608501826142c1565b50608082015161433260808501826142c1565b5060a082015161434560a085018261425b565b50505050565b600061435783836142d0565b60c08301905092915050565b6000602082019050919050565b600061437b8261422f565b614385818561423a565b93506143908361424b565b8060005b838110156143c15781516143a8888261434b565b97506143b383614363565b925050600181019050614394565b5085935050505092915050565b600081519050919050565b600082825260208201905092915050565b6000819050602082019050919050565b60e082016000820151614410600085018261425b565b506020820151614423602085018261426a565b506040820151614436604085018261426a565b506060820151614449606085018261425b565b50608082015161445c60808501826142c1565b5060a082015161446f60a08501826142c1565b5060c082015161448260c085018261425b565b50505050565b600061449483836143fa565b60e08301905092915050565b6000602082019050919050565b60006144b8826143ce565b6144c281856143d9565b93506144cd836143ea565b8060005b838110156144fe5781516144e58882614488565b97506144f0836144a0565b9250506001810190506144d1565b5085935050505092915050565b600060408201905081810360008301526145258185614370565b9050818103602083015261453981846144ad565b90509392505050565b60006040820190506145576000830185613385565b61456460208301846131eb565b9392505050565b6000602082840312156145815761458061321f565b5b600061458f84828501613eda565b91505092915050565b7f57616c6c657420616c7265616479206164646564000000000000000000000000600082015250565b60006145ce601483613b41565b91506145d982614598565b602082019050919050565b600060208201905081810360008301526145fd816145c1565b9050919050565b7f4e487b7100000000000000000000000000000000000000000000000000000000600052603160045260246000fd5b600081519050614642816134f3565b92915050565b600061465b614656846135b0565b613595565b9050808382526020820190506020840283018581111561467e5761467d6135dc565b5b835b818110156146a757806146938882614633565b845260208401935050602081019050614680565b5050509392505050565b600082601f8301126146c6576146c561351f565b5b81516146d6848260208601614648565b91505092915050565b60006146f26146ed8461382d565b613595565b90508083825260208201905060208402830185811115614715576147146135dc565b5b835b8181101561473e578061472a8882613c61565b845260208401935050602081019050614717565b5050509392505050565b600082601f83011261475d5761475c61351f565b5b815161476d8482602086016146df565b91505092915050565b6000610180828403121561478d5761478c613e96565b5b614798610180613595565b905060006147a884828501613c61565b60008301525060206147bc84828501613c61565b60208301525060406147d084828501613c61565b60408301525060606147e484828501613c61565b60608301525060806147f884828501613eda565b60808301525060a082015167ffffffffffffffff81111561481c5761481b613e9b565b5b614828848285016146b1565b60a08301525060c082015167ffffffffffffffff81111561484c5761484b613e9b565b5b61485884828501614748565b60c08301525060e061486c84828501614633565b60e08301525061010082015167ffffffffffffffff81111561489157614890613e9b565b5b61489d84828501614748565b610100830152506101206148b384828501614633565b6101208301525061014082015167ffffffffffffffff8111156148d9576148d8613e9b565b5b6148e584828501614748565b610140830152506101606148fb84828501614633565b6101608301525092915050565b60006020828403121561491e5761491d61321f565b5b600082015167ffffffffffffffff81111561493c5761493b613224565b5b61494884828501614776565b91505092915050565b600061495c82613469565b915061496783613469565b9250828201905063ffffffff81111561498357614982613d0f565b5b92915050565b61499281613469565b82525050565b60006020820190506149ad6000830184614989565b92915050565b7f4c6f74746572794d617374657256302e31000000000000000000000000000000600082015250565b60006149e9601183613b41565b91506149f4826149b3565b602082019050919050565b6000604082019050614a146000830184613385565b8181036020830152614a25816149dc565b905092915050565b600060ff82169050919050565b614a4381614a2d565b8114614a4e57600080fd5b50565b600081519050614a6081614a3a565b92915050565b600060208284031215614a7c57614a7b61321f565b5b6000614a8a84828501614a51565b91505092915050565b60008160011c9050919050565b6000808291508390505b6001851115614aea57808604811115614ac657614ac5613d0f565b5b6001851615614ad55780820291505b8081029050614ae385614a93565b9450614aaa565b94509492505050565b600082614b035760019050614bbf565b81614b115760009050614bbf565b8160018114614b275760028114614b3157614b60565b6001915050614bbf565b60ff841115614b4357614b42613d0f565b5b8360020a915084821115614b5a57614b59613d0f565b5b50614bbf565b5060208310610133831016604e8410600b8410161715614b955782820a905083811115614b9057614b8f613d0f565b5b614bbf565b614ba28484846001614aa0565b92509050818404811115614bb957614bb8613d0f565b5b81810290505b9392505050565b6000614bd1826131e1565b9150614bdc836131e1565b9250614c097fffffffffffffffffffffffffffffffffffffffffffffffffffffffffffffffff8484614af3565b905092915050565b6000614c1c826131e1565b9150614c27836131e1565b9250828202614c35816131e1565b91508282048414831517614c4c57614c4b613d0f565b5b5092915050565b600081519050919050565b600082825260208201905092915050565b6000819050602082019050919050565b614c88816134e5565b82525050565b6000614c9a8383614c7f565b60208301905092915050565b6000602082019050919050565b6000614cbe82614c53565b614cc88185614c5e565b9350614cd383614c6f565b8060005b83811015614d04578151614ceb8882614c8e565b9750614cf683614ca6565b925050600181019050614cd7565b5085935050505092915050565b60006020820190508181036000830152614d2b8184614cb3565b905092915050565b6000614d3e826131e1565b91507fffffffffffffffffffffffffffffffffffffffffffffffffffffffffffffffff8203614d7057614d6f613d0f565b5b600182019050919050565b7f50726576696f757320726f756e64206e6f7420656e6465640000000000000000600082015250565b6000614db1601883613b41565b9150614dbc82614d7b565b602082019050919050565b60006020820190508181036000830152614de081614da4565b9050919050565b6000608082019050614dfc60008301876131eb565b614e096020830186613385565b614e1660408301856131eb565b614e2360608301846131eb565b95945050505050565b600060208284031215614e4257614e4161321f565b5b6000614e5084828501613ea0565b91505092915050565b600081519050919050565b600082825260208201905092915050565b6000819050602082019050919050565b6000614e91838361425b565b60208301905092915050565b6000602082019050919050565b6000614eb582614e59565b614ebf8185614e64565b9350614eca83614e75565b8060005b83811015614efb578151614ee28882614e85565b9750614eed83614e9d565b925050600181019050614ece565b5085935050505092915050565b60006060820190508181036000830152614f228186614370565b90508181036020830152614f3681856144ad565b90508181036040830152614f4a8184614eaa565b9050949350505050565b60008060408385031215614f6b57614f6a61321f565b5b6000614f7985828601613eda565b925050602083015167ffffffffffffffff811115614f9a57614f99613224565b5b614fa685828601614748565b9150509250929050565b7f52616e646f6d206e756d62657273206e6f742072656164790000000000000000600082015250565b6000614fe6601883613b41565b9150614ff182614fb0565b602082019050919050565b6000602082019050818103600083015261501581614fd9565b9050919050565b6000819050919050565b600061504161503c6150378461501c565b6133af565b6134e5565b9050919050565b61505181615026565b82525050565b600060608201905061506c60008301866131eb565b6150796020830185615048565b818103604083015261508b8184614cb3565b9050949350505050565b6000602082840312156150ab576150aa61321f565b5b60006150b984828501614633565b91505092915050565b7f4e487b7100000000000000000000000000000000000000000000000000000000600052601260045260246000fd5b60006150fc826131e1565b9150615107836131e1565b925082615117576151166150c2565b5b828206905092915050565b600060608201905061513760008301866131eb565b6151446020830185613803565b81810360408301526151568184614cb3565b9050949350505050565b6000604082019050818103600083015261517a8185614cb3565b9050818103602083015261518e8184614cb3565b90509392505050565b60006040820190506151ac6000830185613385565b6151b96020830184613385565b9392505050565b7f4d697373696e6720416c6c6f77616e6365000000000000000000000000000000600082015250565b60006151f6601183613b41565b9150615201826151c0565b602082019050919050565b60006020820190508181036000830152615225816151e9565b9050919050565b6000615237826131e1565b91506000820361524a57615249613d0f565b5b600182039050919050565b7f496e73756666696369656e742066756e64730000000000000000000000000000600082015250565b600061528b601283613b41565b915061529682615255565b602082019050919050565b600060208201905081810360008301526152ba8161527e565b9050919050565b60006152cc826134e5565b915061ffff82036152e0576152df613d0f565b5b600182019050919050565b600060808201905061530060008301876131eb565b81810360208301526153128186614cb3565b90506153216040830185613385565b61532e6060830184613385565b95945050505050565b600060608201905061534c6000830186613385565b6153596020830185613385565b61536660408301846131eb565b949350505050565b600081519050919050565b600081905092915050565b60005b838110156153a2578082015181840152602081019050615387565b60008484015250505050565b60006153b98261536e565b6153c38185615379565b93506153d3818560208601615384565b80840191505092915050565b60006153eb82846153ae565b91508190509291505056fea2646970667358221220777dddf68955c0e0f6f234ea5dc4f481d514f69f103a4b94feed2ecb15b618ee64736f6c63430008180033",
  "devdoc": {
    "errors": {
      "AddressEmptyCode(address)": [
        {
          "details": "There's no code at `target` (it is not a contract)."
        }
      ],
      "AddressInsufficientBalance(address)": [
        {
          "details": "The ETH balance of the account is not enough to perform the operation."
        }
      ],
      "FailedInnerCall()": [
        {
          "details": "A call to an address target failed. The target may have reverted."
        }
      ],
      "OwnableInvalidOwner(address)": [
        {
          "details": "The owner is not a valid owner account. (eg. `address(0)`)"
        }
      ],
      "OwnableUnauthorizedAccount(address)": [
        {
          "details": "The caller account is not authorized to perform an operation."
        }
      ],
      "SafeERC20FailedOperation(address)": [
        {
          "details": "An operation with an ERC20 token failed."
        }
      ]
    },
    "kind": "dev",
    "methods": {
      "owner()": {
        "details": "Returns the address of the current owner."
      },
      "renounceOwnership()": {
        "details": "Leaves the contract without owner. It will not be possible to call `onlyOwner` functions. Can only be called by the current owner. NOTE: Renouncing ownership will leave the contract without an owner, thereby disabling any functionality that is only available to the owner."
      },
      "transferOwnership(address)": {
        "details": "Transfers ownership of the contract to a new account (`newOwner`). Can only be called by the current owner."
      }
    },
    "version": 1
  },
  "userdoc": {
    "kind": "user",
    "methods": {},
    "version": 1
  },
  "storageLayout": {
    "storage": [
      {
        "astId": 8,
        "contract": "contracts/LotteryMaster.sol:LotteryMaster",
        "label": "_owner",
        "offset": 0,
        "slot": "0",
        "type": "t_address"
      },
      {
        "astId": 4950,
        "contract": "contracts/LotteryMaster.sol:LotteryMaster",
        "label": "teamAddress",
        "offset": 0,
        "slot": "1",
        "type": "t_address"
      },
      {
        "astId": 1035,
        "contract": "contracts/LotteryMaster.sol:LotteryMaster",
        "label": "chainId",
        "offset": 0,
        "slot": "2",
        "type": "t_uint256"
      },
      {
        "astId": 1037,
        "contract": "contracts/LotteryMaster.sol:LotteryMaster",
        "label": "roundCount",
        "offset": 0,
        "slot": "3",
        "type": "t_uint256"
      },
      {
        "astId": 1040,
        "contract": "contracts/LotteryMaster.sol:LotteryMaster",
        "label": "rounds",
        "offset": 0,
        "slot": "4",
        "type": "t_array(t_address)dyn_storage"
      },
      {
        "astId": 1043,
        "contract": "contracts/LotteryMaster.sol:LotteryMaster",
        "label": "lotteryStatus",
        "offset": 0,
        "slot": "5",
        "type": "t_enum(LotteryStatuses)1029"
      },
      {
        "astId": 1045,
        "contract": "contracts/LotteryMaster.sol:LotteryMaster",
        "label": "statusStartTime",
        "offset": 0,
        "slot": "6",
        "type": "t_uint256"
      },
      {
        "astId": 1047,
        "contract": "contracts/LotteryMaster.sol:LotteryMaster",
        "label": "statusEndTime",
        "offset": 0,
        "slot": "7",
        "type": "t_uint256"
      },
      {
        "astId": 1053,
        "contract": "contracts/LotteryMaster.sol:LotteryMaster",
        "label": "freeRounds",
        "offset": 0,
        "slot": "8",
        "type": "t_mapping(t_uint256,t_mapping(t_address,t_uint256))"
      },
      {
        "astId": 1057,
        "contract": "contracts/LotteryMaster.sol:LotteryMaster",
        "label": "crossChainOperator",
        "offset": 0,
        "slot": "9",
        "type": "t_mapping(t_address,t_bool)"
      },
      {
        "astId": 1075,
        "contract": "contracts/LotteryMaster.sol:LotteryMaster",
        "label": "counterForBankWallets",
        "offset": 0,
        "slot": "10",
        "type": "t_uint16"
      },
      {
        "astId": 1078,
        "contract": "contracts/LotteryMaster.sol:LotteryMaster",
        "label": "bankWallets",
        "offset": 0,
        "slot": "11",
        "type": "t_array(t_address)dyn_storage"
      },
      {
        "astId": 1145,
        "contract": "contracts/LotteryMaster.sol:LotteryMaster",
        "label": "paymentToken",
        "offset": 0,
        "slot": "12",
        "type": "t_contract(IERC20Metadata)251"
      },
      {
        "astId": 1148,
        "contract": "contracts/LotteryMaster.sol:LotteryMaster",
        "label": "randomizer",
        "offset": 0,
        "slot": "13",
        "type": "t_contract(CyclixRandomizerInterface)901"
      },
      {
        "astId": 1151,
        "contract": "contracts/LotteryMaster.sol:LotteryMaster",
        "label": "reader",
        "offset": 0,
        "slot": "14",
        "type": "t_contract(LotteryReaderInterface)3899"
      },
      {
        "astId": 1153,
        "contract": "contracts/LotteryMaster.sol:LotteryMaster",
        "label": "ticketPrice",
        "offset": 0,
        "slot": "15",
        "type": "t_uint256"
      },
      {
        "astId": 1156,
        "contract": "contracts/LotteryMaster.sol:LotteryMaster",
        "label": "freeRoundsAreEnabled",
        "offset": 0,
        "slot": "16",
        "type": "t_bool"
      },
      {
        "astId": 1159,
        "contract": "contracts/LotteryMaster.sol:LotteryMaster",
        "label": "percentageOfReferralWinners",
        "offset": 1,
        "slot": "16",
        "type": "t_uint16"
      },
      {
        "astId": 1162,
        "contract": "contracts/LotteryMaster.sol:LotteryMaster",
        "label": "lotteryRoundCreator",
        "offset": 3,
        "slot": "16",
        "type": "t_contract(LotteryRoundCreatorInterface)4824"
      },
      {
        "astId": 1785,
        "contract": "contracts/LotteryMaster.sol:LotteryMaster",
        "label": "publicRoundRandomNumbersRequestId",
        "offset": 0,
        "slot": "17",
        "type": "t_mapping(t_uint256,t_uint256)"
      }
    ],
    "types": {
      "t_address": {
        "encoding": "inplace",
        "label": "address",
        "numberOfBytes": "20"
      },
      "t_array(t_address)dyn_storage": {
        "base": "t_address",
        "encoding": "dynamic_array",
        "label": "address[]",
        "numberOfBytes": "32"
      },
      "t_bool": {
        "encoding": "inplace",
        "label": "bool",
        "numberOfBytes": "1"
      },
      "t_contract(CyclixRandomizerInterface)901": {
        "encoding": "inplace",
        "label": "contract CyclixRandomizerInterface",
        "numberOfBytes": "20"
      },
      "t_contract(IERC20Metadata)251": {
        "encoding": "inplace",
        "label": "contract IERC20Metadata",
        "numberOfBytes": "20"
      },
      "t_contract(LotteryReaderInterface)3899": {
        "encoding": "inplace",
        "label": "contract LotteryReaderInterface",
        "numberOfBytes": "20"
      },
      "t_contract(LotteryRoundCreatorInterface)4824": {
        "encoding": "inplace",
        "label": "contract LotteryRoundCreatorInterface",
        "numberOfBytes": "20"
      },
      "t_enum(LotteryStatuses)1029": {
        "encoding": "inplace",
        "label": "enum LotteryStatuses",
        "numberOfBytes": "1"
      },
      "t_mapping(t_address,t_bool)": {
        "encoding": "mapping",
        "key": "t_address",
        "label": "mapping(address => bool)",
        "numberOfBytes": "32",
        "value": "t_bool"
      },
      "t_mapping(t_address,t_uint256)": {
        "encoding": "mapping",
        "key": "t_address",
        "label": "mapping(address => uint256)",
        "numberOfBytes": "32",
        "value": "t_uint256"
      },
      "t_mapping(t_uint256,t_mapping(t_address,t_uint256))": {
        "encoding": "mapping",
        "key": "t_uint256",
        "label": "mapping(uint256 => mapping(address => uint256))",
        "numberOfBytes": "32",
        "value": "t_mapping(t_address,t_uint256)"
      },
      "t_mapping(t_uint256,t_uint256)": {
        "encoding": "mapping",
        "key": "t_uint256",
        "label": "mapping(uint256 => uint256)",
        "numberOfBytes": "32",
        "value": "t_uint256"
      },
      "t_uint16": {
        "encoding": "inplace",
        "label": "uint16",
        "numberOfBytes": "2"
      },
      "t_uint256": {
        "encoding": "inplace",
        "label": "uint256",
        "numberOfBytes": "32"
      }
    }
  }
}