{
  "address": "0x538ab7BbF565F86C7b215AE8c7537129998B5f70",
  "abi": [
    {
      "inputs": [
        {
          "internalType": "address",
          "name": "cyclixRandomizer",
          "type": "address"
        },
        {
          "internalType": "address",
          "name": "lotteryReader",
          "type": "address"
        },
        {
          "internalType": "address",
          "name": "_lotteryRoundCreator",
          "type": "address"
        },
        {
          "internalType": "address",
          "name": "_paymentToken",
          "type": "address"
        },
        {
          "internalType": "uint256",
          "name": "_ticketPrice",
          "type": "uint256"
        },
        {
          "internalType": "bool",
          "name": "_freeRoundsAreEnabled",
          "type": "bool"
        }
      ],
      "stateMutability": "nonpayable",
      "type": "constructor"
    },
    {
      "inputs": [
        {
          "internalType": "address",
          "name": "target",
          "type": "address"
        }
      ],
      "name": "AddressEmptyCode",
      "type": "error"
    },
    {
      "inputs": [
        {
          "internalType": "address",
          "name": "account",
          "type": "address"
        }
      ],
      "name": "AddressInsufficientBalance",
      "type": "error"
    },
    {
      "inputs": [],
      "name": "FailedInnerCall",
      "type": "error"
    },
    {
      "inputs": [
        {
          "internalType": "address",
          "name": "owner",
          "type": "address"
        }
      ],
      "name": "OwnableInvalidOwner",
      "type": "error"
    },
    {
      "inputs": [
        {
          "internalType": "address",
          "name": "account",
          "type": "address"
        }
      ],
      "name": "OwnableUnauthorizedAccount",
      "type": "error"
    },
    {
      "inputs": [
        {
          "internalType": "address",
          "name": "token",
          "type": "address"
        }
      ],
      "name": "SafeERC20FailedOperation",
      "type": "error"
    },
    {
      "anonymous": false,
      "inputs": [
        {
          "indexed": true,
          "internalType": "address",
          "name": "previousOwner",
          "type": "address"
        },
        {
          "indexed": true,
          "internalType": "address",
          "name": "newOwner",
          "type": "address"
        }
      ],
      "name": "OwnershipTransferred",
      "type": "event"
    },
    {
      "inputs": [
        {
          "internalType": "address[]",
          "name": "participant",
          "type": "address[]"
        }
      ],
      "name": "addFreeRound",
      "outputs": [],
      "stateMutability": "nonpayable",
      "type": "function"
    },
    {
      "inputs": [
        {
          "internalType": "uint256",
          "name": "",
          "type": "uint256"
        }
      ],
      "name": "bankWallets",
      "outputs": [
        {
          "internalType": "address",
          "name": "",
          "type": "address"
        }
      ],
      "stateMutability": "view",
      "type": "function"
    },
    {
      "inputs": [
        {
          "internalType": "uint16[]",
          "name": "moreTicketNumbers",
          "type": "uint16[]"
        },
        {
          "internalType": "address",
          "name": "referral",
          "type": "address"
        },
        {
          "internalType": "address",
          "name": "buyer",
          "type": "address"
        }
      ],
      "name": "buyTickets",
      "outputs": [],
      "stateMutability": "nonpayable",
      "type": "function"
    },
    {
      "inputs": [],
      "name": "claimVictory",
      "outputs": [],
      "stateMutability": "nonpayable",
      "type": "function"
    },
    {
      "inputs": [
        {
          "internalType": "uint256",
          "name": "_statusEndTime",
          "type": "uint256"
        }
      ],
      "name": "closeRound",
      "outputs": [],
      "stateMutability": "nonpayable",
      "type": "function"
    },
    {
      "inputs": [],
      "name": "counterForBankWallets",
      "outputs": [
        {
          "internalType": "uint16",
          "name": "",
          "type": "uint16"
        }
      ],
      "stateMutability": "view",
      "type": "function"
    },
    {
      "inputs": [
        {
          "internalType": "address",
          "name": "",
          "type": "address"
        }
      ],
      "name": "crossChainOperator",
      "outputs": [
        {
          "internalType": "bool",
          "name": "",
          "type": "bool"
        }
      ],
      "stateMutability": "view",
      "type": "function"
    },
    {
      "inputs": [
        {
          "internalType": "uint256",
          "name": "roundId",
          "type": "uint256"
        },
        {
          "internalType": "uint256",
          "name": "_statusEndTime",
          "type": "uint256"
        }
      ],
      "name": "fetchRoundNumbers",
      "outputs": [],
      "stateMutability": "nonpayable",
      "type": "function"
    },
    {
      "inputs": [
        {
          "internalType": "uint256",
          "name": "",
          "type": "uint256"
        },
        {
          "internalType": "address",
          "name": "",
          "type": "address"
        }
      ],
      "name": "freeRounds",
      "outputs": [
        {
          "internalType": "uint256",
          "name": "",
          "type": "uint256"
        }
      ],
      "stateMutability": "view",
      "type": "function"
    },
    {
      "inputs": [],
      "name": "freeRoundsAreEnabled",
      "outputs": [
        {
          "internalType": "bool",
          "name": "",
          "type": "bool"
        }
      ],
      "stateMutability": "view",
      "type": "function"
    },
    {
      "inputs": [],
      "name": "lotteryRoundCreator",
      "outputs": [
        {
          "internalType": "contract LotteryRoundCreatorInterface",
          "name": "",
          "type": "address"
        }
      ],
      "stateMutability": "view",
      "type": "function"
    },
    {
      "inputs": [],
      "name": "lotteryStatus",
      "outputs": [
        {
          "internalType": "enum LotteryStatuses",
          "name": "",
          "type": "uint8"
        }
      ],
      "stateMutability": "view",
      "type": "function"
    },
    {
      "inputs": [
        {
          "internalType": "uint256",
          "name": "roundId",
          "type": "uint256"
        },
        {
          "internalType": "uint256",
          "name": "_statusEndTime",
          "type": "uint256"
        },
        {
          "internalType": "uint256[]",
          "name": "amountWonForEachTicketCrossChain",
          "type": "uint256[]"
        }
      ],
      "name": "markWinners",
      "outputs": [],
      "stateMutability": "nonpayable",
      "type": "function"
    },
    {
      "inputs": [],
      "name": "owner",
      "outputs": [
        {
          "internalType": "address",
          "name": "",
          "type": "address"
        }
      ],
      "stateMutability": "view",
      "type": "function"
    },
    {
      "inputs": [],
      "name": "paymentToken",
      "outputs": [
        {
          "internalType": "contract IERC20Metadata",
          "name": "",
          "type": "address"
        }
      ],
      "stateMutability": "view",
      "type": "function"
    },
    {
      "inputs": [],
      "name": "percentageOfReferralWinners",
      "outputs": [
        {
          "internalType": "uint16",
          "name": "",
          "type": "uint16"
        }
      ],
      "stateMutability": "view",
      "type": "function"
    },
    {
      "inputs": [
        {
          "internalType": "uint256",
          "name": "",
          "type": "uint256"
        }
      ],
      "name": "publicRoundRandomNumbersRequestId",
      "outputs": [
        {
          "internalType": "uint256",
          "name": "",
          "type": "uint256"
        }
      ],
      "stateMutability": "view",
      "type": "function"
    },
    {
      "inputs": [],
      "name": "randomizer",
      "outputs": [
        {
          "internalType": "contract CyclixRandomizerInterface",
          "name": "",
          "type": "address"
        }
      ],
      "stateMutability": "view",
      "type": "function"
    },
    {
      "inputs": [],
      "name": "reader",
      "outputs": [
        {
          "internalType": "contract LotteryReaderInterface",
          "name": "",
          "type": "address"
        }
      ],
      "stateMutability": "view",
      "type": "function"
    },
    {
      "inputs": [],
      "name": "renounceOwnership",
      "outputs": [],
      "stateMutability": "nonpayable",
      "type": "function"
    },
    {
      "inputs": [],
      "name": "roundCount",
      "outputs": [
        {
          "internalType": "uint256",
          "name": "",
          "type": "uint256"
        }
      ],
      "stateMutability": "view",
      "type": "function"
    },
    {
      "inputs": [
        {
          "internalType": "uint256",
          "name": "",
          "type": "uint256"
        }
      ],
      "name": "rounds",
      "outputs": [
        {
          "internalType": "address",
          "name": "",
          "type": "address"
        }
      ],
      "stateMutability": "view",
      "type": "function"
    },
    {
      "inputs": [],
      "name": "sendCryptoToTeam",
      "outputs": [],
      "stateMutability": "nonpayable",
      "type": "function"
    },
    {
      "inputs": [
        {
          "internalType": "address",
          "name": "_token",
          "type": "address"
        }
      ],
      "name": "sendTokenToTeam",
      "outputs": [],
      "stateMutability": "nonpayable",
      "type": "function"
    },
    {
      "inputs": [
        {
          "internalType": "address",
          "name": "wallet",
          "type": "address"
        },
        {
          "internalType": "bool",
          "name": "add",
          "type": "bool"
        }
      ],
      "name": "setBankWallet",
      "outputs": [],
      "stateMutability": "nonpayable",
      "type": "function"
    },
    {
      "inputs": [
        {
          "internalType": "address",
          "name": "operator",
          "type": "address"
        },
        {
          "internalType": "bool",
          "name": "value",
          "type": "bool"
        }
      ],
      "name": "setCrossChainOperator",
      "outputs": [],
      "stateMutability": "nonpayable",
      "type": "function"
    },
    {
      "inputs": [
        {
          "internalType": "uint256",
          "name": "_statusEndTime",
          "type": "uint256"
        }
      ],
      "name": "startNewRound",
      "outputs": [],
      "stateMutability": "nonpayable",
      "type": "function"
    },
    {
      "inputs": [
        {
          "internalType": "uint256",
          "name": "_statusEndTime",
          "type": "uint256"
        },
        {
          "internalType": "address",
          "name": "previousRound",
          "type": "address"
        },
        {
          "internalType": "uint256",
          "name": "forcedUiIdForUpgrade",
          "type": "uint256"
        }
      ],
      "name": "startNewRoundForUpgrade",
      "outputs": [],
      "stateMutability": "nonpayable",
      "type": "function"
    },
    {
      "inputs": [],
      "name": "statusEndTime",
      "outputs": [
        {
          "internalType": "uint256",
          "name": "",
          "type": "uint256"
        }
      ],
      "stateMutability": "view",
      "type": "function"
    },
    {
      "inputs": [],
      "name": "statusStartTime",
      "outputs": [
        {
          "internalType": "uint256",
          "name": "",
          "type": "uint256"
        }
      ],
      "stateMutability": "view",
      "type": "function"
    },
    {
      "inputs": [],
      "name": "ticketPrice",
      "outputs": [
        {
          "internalType": "uint256",
          "name": "",
          "type": "uint256"
        }
      ],
      "stateMutability": "view",
      "type": "function"
    },
    {
      "inputs": [
        {
          "internalType": "address",
          "name": "newOwner",
          "type": "address"
        }
      ],
      "name": "transferOwnership",
      "outputs": [],
      "stateMutability": "nonpayable",
      "type": "function"
    },
    {
      "inputs": [
        {
          "internalType": "address",
          "name": "cyclixRandomizer",
          "type": "address"
        },
        {
          "internalType": "address",
          "name": "lotteryReader",
          "type": "address"
        },
        {
          "internalType": "address",
          "name": "_lotteryRoundCreator",
          "type": "address"
        },
        {
          "internalType": "address",
          "name": "_paymentToken",
          "type": "address"
        },
        {
          "internalType": "uint256",
          "name": "_ticketPrice",
          "type": "uint256"
        },
        {
          "internalType": "uint16",
          "name": "_percentageOfReferralWinners",
          "type": "uint16"
        },
        {
          "internalType": "uint16[]",
          "name": "_poolPercentagesBasePoints",
          "type": "uint16[]"
        },
        {
          "internalType": "bool",
          "name": "_freeRoundsAreEnabled",
          "type": "bool"
        }
      ],
      "name": "updateSetup",
      "outputs": [],
      "stateMutability": "nonpayable",
      "type": "function"
    },
    {
      "inputs": [
        {
          "internalType": "address",
          "name": "_teamAddress",
          "type": "address"
        }
      ],
      "name": "updateTeamAddress",
      "outputs": [],
      "stateMutability": "nonpayable",
      "type": "function"
    }
  ],
  "transactionHash": "0xf298ddcf5703a9d3c75f6165ae9efaff541abd504a5d95315cfd0e43bc6ce598",
  "args": [
    "0xebfcE0770ef3d67b1283328B553fa6df550Af6ED",
    "0x82eadA6Edff4F26fB0e367D891Cd0ea5726Bc2B4",
    "0x6d55Df1977d0fd3CD9776810ADc934a56D1C8af3",
    "0x0c587a37735eeD50719bF529F791e5dBBB9f4747",
    10,
    true
  ],
  "numDeployments": 1,
  "solcInputHash": "a6c5d572d4bb27edbaf06b9559e9bf52",
  "bytecode": "0x60806040526000601060006101000a81548160ff021916908315150217905550600a601060016101000a81548161ffff021916908361ffff1602179055503480156200004a57600080fd5b5060405162005db738038062005db78339818101604052810190620000709190620005be565b3380600073ffffffffffffffffffffffffffffffffffffffff168173ffffffffffffffffffffffffffffffffffffffff1603620000e75760006040517f1e4fbdf7000000000000000000000000000000000000000000000000000000008152600401620000de91906200066b565b60405180910390fd5b620000f8816200041860201b60201c565b5080600160006101000a81548173ffffffffffffffffffffffffffffffffffffffff021916908373ffffffffffffffffffffffffffffffffffffffff160217905550504660028190555085600d60006101000a81548173ffffffffffffffffffffffffffffffffffffffff021916908373ffffffffffffffffffffffffffffffffffffffff160217905550600d60009054906101000a900473ffffffffffffffffffffffffffffffffffffffff1673ffffffffffffffffffffffffffffffffffffffff1663cd0f2311306040518263ffffffff1660e01b8152600401620001e09190620006e9565b600060405180830381600087803b158015620001fb57600080fd5b505af115801562000210573d6000803e3d6000fd5b5050505084600e60006101000a81548173ffffffffffffffffffffffffffffffffffffffff021916908373ffffffffffffffffffffffffffffffffffffffff16021790555083601060036101000a81548173ffffffffffffffffffffffffffffffffffffffff021916908373ffffffffffffffffffffffffffffffffffffffff16021790555082600c60006101000a81548173ffffffffffffffffffffffffffffffffffffffff021916908373ffffffffffffffffffffffffffffffffffffffff160217905550600c60009054906101000a900473ffffffffffffffffffffffffffffffffffffffff1673ffffffffffffffffffffffffffffffffffffffff1663313ce5676040518163ffffffff1660e01b8152600401602060405180830381865afa15801562000345573d6000803e3d6000fd5b505050506040513d601f19601f820116820180604052508101906200036b919062000759565b60ff16600a6200037c91906200090e565b826200038991906200095f565b600f8190555080601060006101000a81548160ff021916908315150217905550600b339080600181540180825580915050600190039060005260206000200160009091909190916101000a81548173ffffffffffffffffffffffffffffffffffffffff021916908373ffffffffffffffffffffffffffffffffffffffff160217905550505050505050620009aa565b60008060009054906101000a900473ffffffffffffffffffffffffffffffffffffffff169050816000806101000a81548173ffffffffffffffffffffffffffffffffffffffff021916908373ffffffffffffffffffffffffffffffffffffffff1602179055508173ffffffffffffffffffffffffffffffffffffffff168173ffffffffffffffffffffffffffffffffffffffff167f8be0079c531659141344cd1fd0a4f28419497f9722a3daafe3b4186f6b6457e060405160405180910390a35050565b600080fd5b600073ffffffffffffffffffffffffffffffffffffffff82169050919050565b60006200050e82620004e1565b9050919050565b620005208162000501565b81146200052c57600080fd5b50565b600081519050620005408162000515565b92915050565b6000819050919050565b6200055b8162000546565b81146200056757600080fd5b50565b6000815190506200057b8162000550565b92915050565b60008115159050919050565b620005988162000581565b8114620005a457600080fd5b50565b600081519050620005b8816200058d565b92915050565b60008060008060008060c08789031215620005de57620005dd620004dc565b5b6000620005ee89828a016200052f565b96505060206200060189828a016200052f565b95505060406200061489828a016200052f565b94505060606200062789828a016200052f565b93505060806200063a89828a016200056a565b92505060a06200064d89828a01620005a7565b9150509295509295509295565b620006658162000501565b82525050565b60006020820190506200068260008301846200065a565b92915050565b600082825260208201905092915050565b7f4c6f74746572794d617374657256302e31000000000000000000000000000000600082015250565b6000620006d160118362000688565b9150620006de8262000699565b602082019050919050565b60006040820190506200070060008301846200065a565b81810360208301526200071381620006c2565b905092915050565b600060ff82169050919050565b62000733816200071b565b81146200073f57600080fd5b50565b600081519050620007538162000728565b92915050565b600060208284031215620007725762000771620004dc565b5b6000620007828482850162000742565b91505092915050565b7f4e487b7100000000000000000000000000000000000000000000000000000000600052601160045260246000fd5b60008160011c9050919050565b6000808291508390505b60018511156200081957808604811115620007f157620007f06200078b565b5b6001851615620008015780820291505b80810290506200081185620007ba565b9450620007d1565b94509492505050565b60008262000834576001905062000907565b8162000844576000905062000907565b81600181146200085d576002811462000868576200089e565b600191505062000907565b60ff8411156200087d576200087c6200078b565b5b8360020a9150848211156200089757620008966200078b565b5b5062000907565b5060208310610133831016604e8410600b8410161715620008d85782820a905083811115620008d257620008d16200078b565b5b62000907565b620008e78484846001620007c7565b925090508184048111156200090157620009006200078b565b5b81810290505b9392505050565b60006200091b8262000546565b9150620009288362000546565b9250620009577fffffffffffffffffffffffffffffffffffffffffffffffffffffffffffffffff848462000822565b905092915050565b60006200096c8262000546565b9150620009798362000546565b9250828202620009898162000546565b91508282048414831517620009a357620009a26200078b565b5b5092915050565b6153fd80620009ba6000396000f3fe608060405234801561001057600080fd5b50600436106102065760003560e01c806388e01a981161011a578063b62fe01b116100ad578063e03d753a1161007c578063e03d753a14610579578063f10fb58414610597578063f2fde38b146105b5578063f4dec22b146105d1578063f542bd9a146105ef57610206565b8063b62fe01b14610505578063bbd1783a14610521578063cedd1bc31461052b578063d4fc42c61461055b57610206565b8063998da3e9116100e9578063998da3e914610495578063a8eed12d146104b1578063abe659fe146104cd578063b33d8c54146104e957610206565b806388e01a981461040d5780638c65c81f146104295780638da5cb5b1461045957806392566fdd1461047757610206565b80633013ce291161019d57806362cd30d11161016c57806362cd30d11461037d578063715018a61461039957806375e5460d146103a3578063839163ae146103d357806387da46f1146103ef57610206565b80633013ce29146102f55780633fda7d95146103135780634615102c1461033157806347be7bf61461034d57610206565b80631abddf33116101d95780631abddf33146102815780631ed15aa41461028b57806322429429146102a7578063258799f8146102c557610206565b80630d683dd91461020b5780631209b1f614610229578063127f0b3f1461024757806314eb76ac14610265575b600080fd5b61021361060b565b6040516102209190613204565b60405180910390f35b61023161061e565b60405161023e9190613238565b60405180910390f35b61024f610624565b60405161025c9190613238565b60405180910390f35b61027f600480360381019061027a91906132c5565b61062a565b005b610289610676565b005b6102a560048036038101906102a0919061332a565b610c65565b005b6102af610eab565b6040516102bc9190613238565b60405180910390f35b6102df60048036038101906102da9190613396565b610eb1565b6040516102ec91906133d2565b60405180910390f35b6102fd610ef0565b60405161030a919061344c565b60405180910390f35b61031b610f16565b6040516103289190613238565b60405180910390f35b61034b60048036038101906103469190613396565b610f1c565b005b61036760048036038101906103629190613467565b610f9c565b6040516103749190613238565b60405180910390f35b6103976004803603810190610392919061363a565b610fc1565b005b6103a1611359565b005b6103bd60048036038101906103b891906132c5565b61136d565b6040516103ca919061371b565b60405180910390f35b6103ed60048036038101906103e89190613736565b61138d565b005b6103f7611585565b60405161040491906137aa565b60405180910390f35b61042760048036038101906104229190613396565b6115ab565b005b610443600480360381019061043e9190613396565b6117d9565b60405161045091906133d2565b60405180910390f35b610461611818565b60405161046e91906133d2565b60405180910390f35b61047f611841565b60405161048c91906137d4565b60405180910390f35b6104af60048036038101906104aa91906132c5565b611855565b005b6104cb60048036038101906104c6919061332a565b611916565b005b6104e760048036038101906104e291906138b2565b611979565b005b61050360048036038101906104fe919061397c565b611b8a565b005b61051f600480360381019061051a91906139c9565b611c41565b005b610529612204565b005b61054560048036038101906105409190613396565b612281565b6040516105529190613238565b60405180910390f35b610563612299565b6040516105709190613a2a565b60405180910390f35b6105816122bf565b60405161058e919061371b565b60405180910390f35b61059f6122d2565b6040516105ac9190613a66565b60405180910390f35b6105cf60048036038101906105ca91906132c5565b6122f8565b005b6105d961237e565b6040516105e691906137d4565b60405180910390f35b61060960048036038101906106049190613a81565b612392565b005b600560009054906101000a900460ff1681565b600f5481565b60035481565b61063261265f565b80600160006101000a81548173ffffffffffffffffffffffffffffffffffffffff021916908373ffffffffffffffffffffffffffffffffffffffff16021790555050565b6003808111156106895761068861318d565b5b600560009054906101000a900460ff1660038111156106ab576106aa61318d565b5b146106eb576040517f08c379a00000000000000000000000000000000000000000000000000000000081526004016106e290613b4d565b60405180910390fd5b426007541161072f576040517f08c379a000000000000000000000000000000000000000000000000000000000815260040161072690613bb9565b60405180910390fd5b6000600e60009054906101000a900473ffffffffffffffffffffffffffffffffffffffff1673ffffffffffffffffffffffffffffffffffffffff1663b7991e336003543360006040518463ffffffff1660e01b815260040161079393929190613bd9565b602060405180830381865afa1580156107b0573d6000803e3d6000fd5b505050506040513d601f19601f820116820180604052508101906107d49190613c25565b90506000600e60009054906101000a900473ffffffffffffffffffffffffffffffffffffffff1673ffffffffffffffffffffffffffffffffffffffff1663a521dc956003543360006040518463ffffffff1660e01b815260040161083a93929190613bd9565b602060405180830381865afa158015610857573d6000803e3d6000fd5b505050506040513d601f19601f8201168201806040525081019061087b9190613c25565b9050600082118061088c5750600081115b6108cb576040517f08c379a00000000000000000000000000000000000000000000000000000000081526004016108c290613c9e565b60405180910390fd5b80826108d79190613ced565b600c60009054906101000a900473ffffffffffffffffffffffffffffffffffffffff1673ffffffffffffffffffffffffffffffffffffffff166370a08231306040518263ffffffff1660e01b815260040161093291906133d2565b602060405180830381865afa15801561094f573d6000803e3d6000fd5b505050506040513d601f19601f820116820180604052508101906109739190613c25565b10156109b4576040517f08c379a00000000000000000000000000000000000000000000000000000000081526004016109ab90613d6d565b60405180910390fd5b600460016003546109c59190613d8d565b815481106109d6576109d5613dc1565b5b9060005260206000200160009054906101000a900473ffffffffffffffffffffffffffffffffffffffff1673ffffffffffffffffffffffffffffffffffffffff1663b82e18ff600e60009054906101000a900473ffffffffffffffffffffffffffffffffffffffff1673ffffffffffffffffffffffffffffffffffffffff1663eed25896600354336040518363ffffffff1660e01b8152600401610a7b929190613df0565b600060405180830381865afa158015610a98573d6000803e3d6000fd5b505050506040513d6000823e3d601f19601f82011682018060405250810190610ac19190613fd5565b600e60009054906101000a900473ffffffffffffffffffffffffffffffffffffffff1673ffffffffffffffffffffffffffffffffffffffff166317ba3b7d600354336040518363ffffffff1660e01b8152600401610b20929190613df0565b600060405180830381865afa158015610b3d573d6000803e3d6000fd5b505050506040513d6000823e3d601f19601f82011682018060405250810190610b669190614195565b6040518363ffffffff1660e01b8152600401610b839291906144ba565b600060405180830381600087803b158015610b9d57600080fd5b505af1158015610bb1573d6000803e3d6000fd5b50505050600c60009054906101000a900473ffffffffffffffffffffffffffffffffffffffff1673ffffffffffffffffffffffffffffffffffffffff1663a9059cbb338385610c009190613ced565b6040518363ffffffff1660e01b8152600401610c1d9291906144f1565b6020604051808303816000875af1158015610c3c573d6000803e3d6000fd5b505050506040513d601f19601f82011682018060405250810190610c60919061451a565b505050565b610c6d61265f565b60005b600b80549050811015610e3c578273ffffffffffffffffffffffffffffffffffffffff16600b8281548110610ca857610ca7613dc1565b5b9060005260206000200160009054906101000a900473ffffffffffffffffffffffffffffffffffffffff1673ffffffffffffffffffffffffffffffffffffffff1603610e2f578115610d3a576000610d35576040517f08c379a0000000000000000000000000000000000000000000000000000000008152600401610d2c90614593565b60405180910390fd5b610e2e565b600b6001600b80549050610d4e9190613d8d565b81548110610d5f57610d5e613dc1565b5b9060005260206000200160009054906101000a900473ffffffffffffffffffffffffffffffffffffffff16600b8281548110610d9e57610d9d613dc1565b5b9060005260206000200160006101000a81548173ffffffffffffffffffffffffffffffffffffffff021916908373ffffffffffffffffffffffffffffffffffffffff160217905550600b805480610df857610df76145b3565b5b6001900381819060005260206000200160006101000a81549073ffffffffffffffffffffffffffffffffffffffff021916905590555b5b8080600101915050610c70565b508015610ea757600b829080600181540180825580915050600190039060005260206000200160009091909190916101000a81548173ffffffffffffffffffffffffffffffffffffffff021916908373ffffffffffffffffffffffffffffffffffffffff1602179055505b5050565b60075481565b600b8181548110610ec157600080fd5b906000526020600020016000915054906101000a900473ffffffffffffffffffffffffffffffffffffffff1681565b600c60009054906101000a900473ffffffffffffffffffffffffffffffffffffffff1681565b60065481565b610f2461265f565b60006003541115610f8c57610f878160046001600354610f449190613d8d565b81548110610f5557610f54613dc1565b5b9060005260206000200160009054906101000a900473ffffffffffffffffffffffffffffffffffffffff16600061138d565b610f99565b610f988160008061138d565b5b50565b6008602052816000526040600020602052806000526040600020600091509150505481565b610fc961265f565b8773ffffffffffffffffffffffffffffffffffffffff16600d60009054906101000a900473ffffffffffffffffffffffffffffffffffffffff1673ffffffffffffffffffffffffffffffffffffffff16146110ed5787600d60006101000a81548173ffffffffffffffffffffffffffffffffffffffff021916908373ffffffffffffffffffffffffffffffffffffffff160217905550600d60009054906101000a900473ffffffffffffffffffffffffffffffffffffffff1673ffffffffffffffffffffffffffffffffffffffff1663cd0f2311306040518263ffffffff1660e01b81526004016110ba919061462e565b600060405180830381600087803b1580156110d457600080fd5b505af11580156110e8573d6000803e3d6000fd5b505050505b86600e60006101000a81548173ffffffffffffffffffffffffffffffffffffffff021916908373ffffffffffffffffffffffffffffffffffffffff16021790555085601060036101000a81548173ffffffffffffffffffffffffffffffffffffffff021916908373ffffffffffffffffffffffffffffffffffffffff16021790555084600c60006101000a81548173ffffffffffffffffffffffffffffffffffffffff021916908373ffffffffffffffffffffffffffffffffffffffff160217905550600c60009054906101000a900473ffffffffffffffffffffffffffffffffffffffff1673ffffffffffffffffffffffffffffffffffffffff1663313ce5676040518163ffffffff1660e01b8152600401602060405180830381865afa15801561121d573d6000803e3d6000fd5b505050506040513d601f19601f820116820180604052508101906112419190614695565b60ff16600a61125091906147f5565b8461125b9190614840565b600f8190555082601060016101000a81548161ffff021916908361ffff1602179055506004600160035461128f9190613d8d565b815481106112a05761129f613dc1565b5b9060005260206000200160009054906101000a900473ffffffffffffffffffffffffffffffffffffffff1673ffffffffffffffffffffffffffffffffffffffff16639469f293836040518263ffffffff1660e01b81526004016113039190614940565b600060405180830381600087803b15801561131d57600080fd5b505af1158015611331573d6000803e3d6000fd5b5050505080601060006101000a81548160ff0219169083151502179055505050505050505050565b61136161265f565b61136b60006126e6565b565b60096020528060005260406000206000915054906101000a900460ff1681565b61139561265f565b600360008154809291906113a890614962565b91905055506004601060039054906101000a900473ffffffffffffffffffffffffffffffffffffffff1673ffffffffffffffffffffffffffffffffffffffff1663f199f5308585856040518463ffffffff1660e01b815260040161140e939291906149aa565b6020604051808303816000875af115801561142d573d6000803e3d6000fd5b505050506040513d601f19601f8201168201806040525081019061145191906149e1565b9080600181540180825580915050600190039060005260206000200160009091909190916101000a81548173ffffffffffffffffffffffffffffffffffffffff021916908373ffffffffffffffffffffffffffffffffffffffff160217905550600073ffffffffffffffffffffffffffffffffffffffff168273ffffffffffffffffffffffffffffffffffffffff1614806114ec5750600081115b8061153657506003808111156115055761150461318d565b5b600560009054906101000a900460ff1660038111156115275761152661318d565b5b148015611535575042600754105b5b611575576040517f08c379a000000000000000000000000000000000000000000000000000000000815260040161156c90614a5a565b60405180910390fd5b6115806000846127aa565b505050565b601060039054906101000a900473ffffffffffffffffffffffffffffffffffffffff1681565b6115b361265f565b6000600460016003546115c69190613d8d565b815481106115d7576115d6613dc1565b5b9060005260206000200160009054906101000a900473ffffffffffffffffffffffffffffffffffffffff1690508073ffffffffffffffffffffffffffffffffffffffff1663e278fe6f6040518163ffffffff1660e01b8152600401600060405180830381600087803b15801561164c57600080fd5b505af1158015611660573d6000803e3d6000fd5b505050506000600e60009054906101000a900473ffffffffffffffffffffffffffffffffffffffff1673ffffffffffffffffffffffffffffffffffffffff1663f1664df66003546040518263ffffffff1660e01b81526004016116c39190613238565b602060405180830381865afa1580156116e0573d6000803e3d6000fd5b505050506040513d601f19601f820116820180604052508101906117049190614a8f565b9050600d60009054906101000a900473ffffffffffffffffffffffffffffffffffffffff1673ffffffffffffffffffffffffffffffffffffffff1663e726f2e18260066117519190614abc565b6040518263ffffffff1660e01b815260040161176d9190614b33565b6020604051808303816000875af115801561178c573d6000803e3d6000fd5b505050506040513d601f19601f820116820180604052508101906117b09190613c25565b601160006003548152602001908152602001600020819055506117d46001846127aa565b505050565b600481815481106117e957600080fd5b906000526020600020016000915054906101000a900473ffffffffffffffffffffffffffffffffffffffff1681565b60008060009054906101000a900473ffffffffffffffffffffffffffffffffffffffff16905090565b600a60009054906101000a900461ffff1681565b61185d61265f565b60008173ffffffffffffffffffffffffffffffffffffffff166370a08231306040518263ffffffff1660e01b815260040161189891906133d2565b602060405180830381865afa1580156118b5573d6000803e3d6000fd5b505050506040513d601f19601f820116820180604052508101906118d99190613c25565b905060008111156119125761191182600160009054906101000a900473ffffffffffffffffffffffffffffffffffffffff16836127f9565b5b5050565b61191e61265f565b80600960008473ffffffffffffffffffffffffffffffffffffffff1673ffffffffffffffffffffffffffffffffffffffff16815260200190815260200160002060006101000a81548160ff0219169083151502179055505050565b61198161265f565b60046001846119909190613d8d565b815481106119a1576119a0613dc1565b5b9060005260206000200160009054906101000a900473ffffffffffffffffffffffffffffffffffffffff1673ffffffffffffffffffffffffffffffffffffffff1663df4fbb2f600e60009054906101000a900473ffffffffffffffffffffffffffffffffffffffff1673ffffffffffffffffffffffffffffffffffffffff16639f75e5c9866040518263ffffffff1660e01b8152600401611a429190613238565b600060405180830381865afa158015611a5f573d6000803e3d6000fd5b505050506040513d6000823e3d601f19601f82011682018060405250810190611a889190613fd5565b600e60009054906101000a900473ffffffffffffffffffffffffffffffffffffffff1673ffffffffffffffffffffffffffffffffffffffff166348b2e35c876040518263ffffffff1660e01b8152600401611ae39190613238565b600060405180830381865afa158015611b00573d6000803e3d6000fd5b505050506040513d6000823e3d601f19601f82011682018060405250810190611b299190614195565b846040518463ffffffff1660e01b8152600401611b4893929190614bfd565b600060405180830381600087803b158015611b6257600080fd5b505af1158015611b76573d6000803e3d6000fd5b50505050611b856003836127aa565b505050565b611b9261265f565b60005b82829050811015611c3c576008600060035481526020019081526020016000206000848484818110611bca57611bc9613dc1565b5b9050602002016020810190611bdf91906132c5565b73ffffffffffffffffffffffffffffffffffffffff1673ffffffffffffffffffffffffffffffffffffffff1681526020019081526020016000206000815480929190611c2a90614962565b91905055508080600101915050611b95565b505050565b611c4961265f565b60006004600184611c5a9190613d8d565b81548110611c6b57611c6a613dc1565b5b9060005260206000200160009054906101000a900473ffffffffffffffffffffffffffffffffffffffff1690508073ffffffffffffffffffffffffffffffffffffffff1663343f25666040518163ffffffff1660e01b815260040160006040518083038186803b158015611cde57600080fd5b505afa158015611cf2573d6000803e3d6000fd5b50505050600080600d60009054906101000a900473ffffffffffffffffffffffffffffffffffffffff1673ffffffffffffffffffffffffffffffffffffffff1663d8a4676f60116000888152602001908152602001600020546040518263ffffffff1660e01b8152600401611d679190613238565b600060405180830381865afa158015611d84573d6000803e3d6000fd5b505050506040513d6000823e3d601f19601f82011682018060405250810190611dad9190614ce0565b9150915081611df1576040517f08c379a0000000000000000000000000000000000000000000000000000000008152600401611de890614d88565b60405180910390fd5b6000600667ffffffffffffffff811115611e0e57611e0d6134f7565b5b604051908082528060200260200182016040528015611e3c5781602001602082028036833780820191505090505b509050600060068351611e4f9190613d8d565b67ffffffffffffffff811115611e6857611e676134f7565b5b604051908082528060200260200182016040528015611e965781602001602082028036833780820191505090505b50905083156121835760005b6006811015611f9c57600e60009054906101000a900473ffffffffffffffffffffffffffffffffffffffff1673ffffffffffffffffffffffffffffffffffffffff16630c746a8a858381518110611efc57611efb613dc1565b5b60200260200101516045866040518463ffffffff1660e01b8152600401611f2593929190614de3565b602060405180830381865afa158015611f42573d6000803e3d6000fd5b505050506040513d601f19601f82011682018060405250810190611f669190614a8f565b838281518110611f7957611f78613dc1565b5b602002602001019061ffff16908161ffff16815250508080600101915050611ea2565b506001601a84600581518110611fb557611fb4613dc1565b5b6020026020010151611fc79190614e50565b611fd19190613ced565b82600581518110611fe557611fe4613dc1565b5b602002602001019061ffff16908161ffff16815250506000600690505b835181101561218157600e60009054906101000a900473ffffffffffffffffffffffffffffffffffffffff1673ffffffffffffffffffffffffffffffffffffffff16630c746a8a85838151811061205c5761205b613dc1565b5b60200260200101518873ffffffffffffffffffffffffffffffffffffffff16639f8743f76040518163ffffffff1660e01b81526004016000604051808303816000875af11580156120b1573d6000803e3d6000fd5b505050506040513d6000823e3d601f19601f820116820180604052508101906120da91906150aa565b6101600151856040518463ffffffff1660e01b81526004016120fe939291906150f3565b602060405180830381865afa15801561211b573d6000803e3d6000fd5b505050506040513d601f19601f8201168201806040525081019061213f9190614a8f565b8260068361214d9190613d8d565b8151811061215e5761215d613dc1565b5b602002602001019061ffff16908161ffff16815250508080600101915050612002565b505b8473ffffffffffffffffffffffffffffffffffffffff16632724d10483836040518363ffffffff1660e01b81526004016121be929190615131565b600060405180830381600087803b1580156121d857600080fd5b505af11580156121ec573d6000803e3d6000fd5b505050506121fb6002876127aa565b50505050505050565b61220c61265f565b600047111561227f57600160009054906101000a900473ffffffffffffffffffffffffffffffffffffffff1673ffffffffffffffffffffffffffffffffffffffff166108fc479081150290604051600060405180830381858888f1935050505015801561227d573d6000803e3d6000fd5b505b565b60116020528060005260406000206000915090505481565b600e60009054906101000a900473ffffffffffffffffffffffffffffffffffffffff1681565b601060009054906101000a900460ff1681565b600d60009054906101000a900473ffffffffffffffffffffffffffffffffffffffff1681565b61230061265f565b600073ffffffffffffffffffffffffffffffffffffffff168173ffffffffffffffffffffffffffffffffffffffff16036123725760006040517f1e4fbdf700000000000000000000000000000000000000000000000000000000815260040161236991906133d2565b60405180910390fd5b61237b816126e6565b50565b601060019054906101000a900461ffff1681565b6000805b845181101561248b576000600667ffffffffffffffff8111156123bc576123bb6134f7565b5b6040519080825280602002602001820160405280156123ea5781602001602082028036833780820191505090505b50905060005b6006811015612455578681846124069190613ced565b8151811061241757612416613dc1565b5b602002602001015182828151811061243257612431613dc1565b5b602002602001019061ffff16908161ffff168152505080806001019150506123f0565b50612461818686612878565b15612476576001836124739190613ced565b92505b506006816124849190613ced565b9050612396565b50600073ffffffffffffffffffffffffffffffffffffffff168373ffffffffffffffffffffffffffffffffffffffff16141580156124d55750601060009054906101000a900460ff165b15612659578060068551816124ed576124ec614e21565b5b0460086000600354815260200190815260200160002060008573ffffffffffffffffffffffffffffffffffffffff1673ffffffffffffffffffffffffffffffffffffffff16815260200190815260200160002054010360086000600354815260200190815260200160002060008473ffffffffffffffffffffffffffffffffffffffff1673ffffffffffffffffffffffffffffffffffffffff168152602001908152602001600020819055508060068551816125ac576125ab614e21565b5b0460086000600354815260200190815260200160002060008673ffffffffffffffffffffffffffffffffffffffff1673ffffffffffffffffffffffffffffffffffffffff16815260200190815260200160002054010360086000600354815260200190815260200160002060008573ffffffffffffffffffffffffffffffffffffffff1673ffffffffffffffffffffffffffffffffffffffff168152602001908152602001600020819055505b50505050565b612667612eb5565b73ffffffffffffffffffffffffffffffffffffffff16612685611818565b73ffffffffffffffffffffffffffffffffffffffff16146126e4576126a8612eb5565b6040517f118cdaa70000000000000000000000000000000000000000000000000000000081526004016126db91906133d2565b60405180910390fd5b565b60008060009054906101000a900473ffffffffffffffffffffffffffffffffffffffff169050816000806101000a81548173ffffffffffffffffffffffffffffffffffffffff021916908373ffffffffffffffffffffffffffffffffffffffff1602179055508173ffffffffffffffffffffffffffffffffffffffff168173ffffffffffffffffffffffffffffffffffffffff167f8be0079c531659141344cd1fd0a4f28419497f9722a3daafe3b4186f6b6457e060405160405180910390a35050565b6127b261265f565b81600560006101000a81548160ff021916908360038111156127d7576127d661318d565b5b02179055504260068190555080426127ef9190613ced565b6007819055505050565b612873838473ffffffffffffffffffffffffffffffffffffffff1663a9059cbb858560405160240161282c9291906144f1565b604051602081830303815290604052915060e01b6020820180517bffffffffffffffffffffffffffffffffffffffffffffffffffffffff8381831617835250505050612ebd565b505050565b60008060086000600354815260200190815260200160002060008473ffffffffffffffffffffffffffffffffffffffff1673ffffffffffffffffffffffffffffffffffffffff1681526020019081526020016000205411806129795750600f54600c60009054906101000a900473ffffffffffffffffffffffffffffffffffffffff1673ffffffffffffffffffffffffffffffffffffffff1663dd62ed3e84306040518363ffffffff1660e01b8152600401612935929190615168565b602060405180830381865afa158015612952573d6000803e3d6000fd5b505050506040513d601f19601f820116820180604052508101906129769190613c25565b10155b806129cd5750600960003373ffffffffffffffffffffffffffffffffffffffff1673ffffffffffffffffffffffffffffffffffffffff16815260200190815260200160002060009054906101000a900460ff165b612a0c576040517f08c379a0000000000000000000000000000000000000000000000000000000008152600401612a03906151dd565b60405180910390fd5b600060046001600354612a1f9190613d8d565b81548110612a3057612a2f613dc1565b5b9060005260206000200160009054906101000a900473ffffffffffffffffffffffffffffffffffffffff16905060008060086000600354815260200190815260200160002060008673ffffffffffffffffffffffffffffffffffffffff1673ffffffffffffffffffffffffffffffffffffffff168152602001908152602001600020541115612b2a5760086000600354815260200190815260200160002060008573ffffffffffffffffffffffffffffffffffffffff1673ffffffffffffffffffffffffffffffffffffffff1681526020019081526020016000206000815480929190612b1c906151fd565b919050555060019050612db6565b600960003373ffffffffffffffffffffffffffffffffffffffff1673ffffffffffffffffffffffffffffffffffffffff16815260200190815260200160002060009054906101000a900460ff16612d4857600f54600c60009054906101000a900473ffffffffffffffffffffffffffffffffffffffff1673ffffffffffffffffffffffffffffffffffffffff166370a08231326040518263ffffffff1660e01b8152600401612bd991906133d2565b602060405180830381865afa158015612bf6573d6000803e3d6000fd5b505050506040513d601f19601f82011682018060405250810190612c1a9190613c25565b1015612c5b576040517f08c379a0000000000000000000000000000000000000000000000000000000008152600401612c5290615272565b60405180910390fd5b600b80549050600a600081819054906101000a900461ffff1680929190612c8190615292565b91906101000a81548161ffff021916908361ffff16021790555061ffff16612ca99190614e50565b600a60006101000a81548161ffff021916908361ffff160217905550612d47600c60009054906101000a900473ffffffffffffffffffffffffffffffffffffffff1685600b600a60009054906101000a900461ffff1661ffff1681548110612d1457612d13613dc1565b5b9060005260206000200160009054906101000a900473ffffffffffffffffffffffffffffffffffffffff16600f54612f54565b5b8173ffffffffffffffffffffffffffffffffffffffff1663b56c12b4600f546040518263ffffffff1660e01b8152600401612d839190613238565b600060405180830381600087803b158015612d9d57600080fd5b505af1158015612db1573d6000803e3d6000fd5b505050505b8015612e35578173ffffffffffffffffffffffffffffffffffffffff1663eb7165fa600254886000886040518563ffffffff1660e01b8152600401612dfe94939291906152bc565b600060405180830381600087803b158015612e1857600080fd5b505af1158015612e2c573d6000803e3d6000fd5b50505050612ea9565b8173ffffffffffffffffffffffffffffffffffffffff1663eb7165fa6002548888886040518563ffffffff1660e01b8152600401612e7694939291906152bc565b600060405180830381600087803b158015612e9057600080fd5b505af1158015612ea4573d6000803e3d6000fd5b505050505b80925050509392505050565b600033905090565b6000612ee8828473ffffffffffffffffffffffffffffffffffffffff16612fd690919063ffffffff16565b90506000815114158015612f0d575080806020019051810190612f0b919061451a565b155b15612f4f57826040517f5274afe7000000000000000000000000000000000000000000000000000000008152600401612f4691906133d2565b60405180910390fd5b505050565b612fd0848573ffffffffffffffffffffffffffffffffffffffff166323b872dd868686604051602401612f8993929190615308565b604051602081830303815290604052915060e01b6020820180517bffffffffffffffffffffffffffffffffffffffffffffffffffffffff8381831617835250505050612ebd565b50505050565b6060612fe483836000612fec565b905092915050565b60608147101561303357306040517fcd78605900000000000000000000000000000000000000000000000000000000815260040161302a91906133d2565b60405180910390fd5b6000808573ffffffffffffffffffffffffffffffffffffffff16848660405161305c91906153b0565b60006040518083038185875af1925050503d8060008114613099576040519150601f19603f3d011682016040523d82523d6000602084013e61309e565b606091505b50915091506130ae8683836130b9565b925050509392505050565b6060826130ce576130c982613148565b613140565b600082511480156130f6575060008473ffffffffffffffffffffffffffffffffffffffff163b145b1561313857836040517f9996b31500000000000000000000000000000000000000000000000000000000815260040161312f91906133d2565b60405180910390fd5b819050613141565b5b9392505050565b60008151111561315b5780518082602001fd5b6040517f1425ea4200000000000000000000000000000000000000000000000000000000815260040160405180910390fd5b7f4e487b7100000000000000000000000000000000000000000000000000000000600052602160045260246000fd5b600481106131cd576131cc61318d565b5b50565b60008190506131de826131bc565b919050565b60006131ee826131d0565b9050919050565b6131fe816131e3565b82525050565b600060208201905061321960008301846131f5565b92915050565b6000819050919050565b6132328161321f565b82525050565b600060208201905061324d6000830184613229565b92915050565b6000604051905090565b600080fd5b600080fd5b600073ffffffffffffffffffffffffffffffffffffffff82169050919050565b600061329282613267565b9050919050565b6132a281613287565b81146132ad57600080fd5b50565b6000813590506132bf81613299565b92915050565b6000602082840312156132db576132da61325d565b5b60006132e9848285016132b0565b91505092915050565b60008115159050919050565b613307816132f2565b811461331257600080fd5b50565b600081359050613324816132fe565b92915050565b600080604083850312156133415761334061325d565b5b600061334f858286016132b0565b925050602061336085828601613315565b9150509250929050565b6133738161321f565b811461337e57600080fd5b50565b6000813590506133908161336a565b92915050565b6000602082840312156133ac576133ab61325d565b5b60006133ba84828501613381565b91505092915050565b6133cc81613287565b82525050565b60006020820190506133e760008301846133c3565b92915050565b6000819050919050565b600061341261340d61340884613267565b6133ed565b613267565b9050919050565b6000613424826133f7565b9050919050565b600061343682613419565b9050919050565b6134468161342b565b82525050565b6000602082019050613461600083018461343d565b92915050565b6000806040838503121561347e5761347d61325d565b5b600061348c85828601613381565b925050602061349d858286016132b0565b9150509250929050565b600061ffff82169050919050565b6134be816134a7565b81146134c957600080fd5b50565b6000813590506134db816134b5565b92915050565b600080fd5b6000601f19601f8301169050919050565b7f4e487b7100000000000000000000000000000000000000000000000000000000600052604160045260246000fd5b61352f826134e6565b810181811067ffffffffffffffff8211171561354e5761354d6134f7565b5b80604052505050565b6000613561613253565b905061356d8282613526565b919050565b600067ffffffffffffffff82111561358d5761358c6134f7565b5b602082029050602081019050919050565b600080fd5b60006135b66135b184613572565b613557565b905080838252602082019050602084028301858111156135d9576135d861359e565b5b835b8181101561360257806135ee88826134cc565b8452602084019350506020810190506135db565b5050509392505050565b600082601f830112613621576136206134e1565b5b81356136318482602086016135a3565b91505092915050565b600080600080600080600080610100898b03121561365b5761365a61325d565b5b60006136698b828c016132b0565b985050602061367a8b828c016132b0565b975050604061368b8b828c016132b0565b965050606061369c8b828c016132b0565b95505060806136ad8b828c01613381565b94505060a06136be8b828c016134cc565b93505060c089013567ffffffffffffffff8111156136df576136de613262565b5b6136eb8b828c0161360c565b92505060e06136fc8b828c01613315565b9150509295985092959890939650565b613715816132f2565b82525050565b6000602082019050613730600083018461370c565b92915050565b60008060006060848603121561374f5761374e61325d565b5b600061375d86828701613381565b935050602061376e868287016132b0565b925050604061377f86828701613381565b9150509250925092565b600061379482613419565b9050919050565b6137a481613789565b82525050565b60006020820190506137bf600083018461379b565b92915050565b6137ce816134a7565b82525050565b60006020820190506137e960008301846137c5565b92915050565b600067ffffffffffffffff82111561380a576138096134f7565b5b602082029050602081019050919050565b600061382e613829846137ef565b613557565b905080838252602082019050602084028301858111156138515761385061359e565b5b835b8181101561387a57806138668882613381565b845260208401935050602081019050613853565b5050509392505050565b600082601f830112613899576138986134e1565b5b81356138a984826020860161381b565b91505092915050565b6000806000606084860312156138cb576138ca61325d565b5b60006138d986828701613381565b93505060206138ea86828701613381565b925050604084013567ffffffffffffffff81111561390b5761390a613262565b5b61391786828701613884565b9150509250925092565b600080fd5b60008083601f84011261393c5761393b6134e1565b5b8235905067ffffffffffffffff81111561395957613958613921565b5b6020830191508360208202830111156139755761397461359e565b5b9250929050565b600080602083850312156139935761399261325d565b5b600083013567ffffffffffffffff8111156139b1576139b0613262565b5b6139bd85828601613926565b92509250509250929050565b600080604083850312156139e0576139df61325d565b5b60006139ee85828601613381565b92505060206139ff85828601613381565b9150509250929050565b6000613a1482613419565b9050919050565b613a2481613a09565b82525050565b6000602082019050613a3f6000830184613a1b565b92915050565b6000613a5082613419565b9050919050565b613a6081613a45565b82525050565b6000602082019050613a7b6000830184613a57565b92915050565b600080600060608486031215613a9a57613a9961325d565b5b600084013567ffffffffffffffff811115613ab857613ab7613262565b5b613ac48682870161360c565b9350506020613ad5868287016132b0565b9250506040613ae6868287016132b0565b9150509250925092565b600082825260208201905092915050565b7f4c6f7474657279206973206e6f7420696e20636c61696d20706572696f640000600082015250565b6000613b37601e83613af0565b9150613b4282613b01565b602082019050919050565b60006020820190508181036000830152613b6681613b2a565b9050919050565b7f436c61696d20506572696f6420656e6465640000000000000000000000000000600082015250565b6000613ba3601283613af0565b9150613bae82613b6d565b602082019050919050565b60006020820190508181036000830152613bd281613b96565b9050919050565b6000606082019050613bee6000830186613229565b613bfb60208301856133c3565b613c08604083018461370c565b949350505050565b600081519050613c1f8161336a565b92915050565b600060208284031215613c3b57613c3a61325d565b5b6000613c4984828501613c10565b91505092915050565b7f4e6f7468696e6720746f20636c61696d20666f7220746869732077616c6c6574600082015250565b6000613c88602083613af0565b9150613c9382613c52565b602082019050919050565b60006020820190508181036000830152613cb781613c7b565b9050919050565b7f4e487b7100000000000000000000000000000000000000000000000000000000600052601160045260246000fd5b6000613cf88261321f565b9150613d038361321f565b9250828201905080821115613d1b57613d1a613cbe565b5b92915050565b7f4e6f7420656e6f7567682066756e6473206f6e20636f6e747261637400000000600082015250565b6000613d57601c83613af0565b9150613d6282613d21565b602082019050919050565b60006020820190508181036000830152613d8681613d4a565b9050919050565b6000613d988261321f565b9150613da38361321f565b9250828203905081811115613dbb57613dba613cbe565b5b92915050565b7f4e487b7100000000000000000000000000000000000000000000000000000000600052603260045260246000fd5b6000604082019050613e056000830185613229565b613e1260208301846133c3565b9392505050565b600067ffffffffffffffff821115613e3457613e336134f7565b5b602082029050602081019050919050565b600080fd5b600080fd5b600081519050613e5e81613299565b92915050565b600a8110613e7157600080fd5b50565b600081519050613e8381613e64565b92915050565b600081519050613e98816132fe565b92915050565b600060c08284031215613eb457613eb3613e45565b5b613ebe60c0613557565b90506000613ece84828501613c10565b6000830152506020613ee284828501613e4f565b6020830152506040613ef684828501613e74565b6040830152506060613f0a84828501613e89565b6060830152506080613f1e84828501613e89565b60808301525060a0613f3284828501613c10565b60a08301525092915050565b6000613f51613f4c84613e19565b613557565b90508083825260208201905060c08402830185811115613f7457613f7361359e565b5b835b81811015613f9d5780613f898882613e9e565b84526020840193505060c081019050613f76565b5050509392505050565b600082601f830112613fbc57613fbb6134e1565b5b8151613fcc848260208601613f3e565b91505092915050565b600060208284031215613feb57613fea61325d565b5b600082015167ffffffffffffffff81111561400957614008613262565b5b61401584828501613fa7565b91505092915050565b600067ffffffffffffffff821115614039576140386134f7565b5b602082029050602081019050919050565b600060e082840312156140605761405f613e45565b5b61406a60e0613557565b9050600061407a84828501613c10565b600083015250602061408e84828501613e4f565b60208301525060406140a284828501613e4f565b60408301525060606140b684828501613c10565b60608301525060806140ca84828501613e89565b60808301525060a06140de84828501613e89565b60a08301525060c06140f284828501613c10565b60c08301525092915050565b600061411161410c8461401e565b613557565b90508083825260208201905060e084028301858111156141345761413361359e565b5b835b8181101561415d5780614149888261404a565b84526020840193505060e081019050614136565b5050509392505050565b600082601f83011261417c5761417b6134e1565b5b815161418c8482602086016140fe565b91505092915050565b6000602082840312156141ab576141aa61325d565b5b600082015167ffffffffffffffff8111156141c9576141c8613262565b5b6141d584828501614167565b91505092915050565b600081519050919050565b600082825260208201905092915050565b6000819050602082019050919050565b6142138161321f565b82525050565b61422281613287565b82525050565b600a81106142395761423861318d565b5b50565b600081905061424a82614228565b919050565b600061425a8261423c565b9050919050565b61426a8161424f565b82525050565b614279816132f2565b82525050565b60c082016000820151614295600085018261420a565b5060208201516142a86020850182614219565b5060408201516142bb6040850182614261565b5060608201516142ce6060850182614270565b5060808201516142e16080850182614270565b5060a08201516142f460a085018261420a565b50505050565b6000614306838361427f565b60c08301905092915050565b6000602082019050919050565b600061432a826141de565b61433481856141e9565b935061433f836141fa565b8060005b8381101561437057815161435788826142fa565b975061436283614312565b925050600181019050614343565b5085935050505092915050565b600081519050919050565b600082825260208201905092915050565b6000819050602082019050919050565b60e0820160008201516143bf600085018261420a565b5060208201516143d26020850182614219565b5060408201516143e56040850182614219565b5060608201516143f8606085018261420a565b50608082015161440b6080850182614270565b5060a082015161441e60a0850182614270565b5060c082015161443160c085018261420a565b50505050565b600061444383836143a9565b60e08301905092915050565b6000602082019050919050565b60006144678261437d565b6144718185614388565b935061447c83614399565b8060005b838110156144ad5781516144948882614437565b975061449f8361444f565b925050600181019050614480565b5085935050505092915050565b600060408201905081810360008301526144d4818561431f565b905081810360208301526144e8818461445c565b90509392505050565b600060408201905061450660008301856133c3565b6145136020830184613229565b9392505050565b6000602082840312156145305761452f61325d565b5b600061453e84828501613e89565b91505092915050565b7f57616c6c657420616c7265616479206164646564000000000000000000000000600082015250565b600061457d601483613af0565b915061458882614547565b602082019050919050565b600060208201905081810360008301526145ac81614570565b9050919050565b7f4e487b7100000000000000000000000000000000000000000000000000000000600052603160045260246000fd5b7f4c6f74746572794d617374657256302e31000000000000000000000000000000600082015250565b6000614618601183613af0565b9150614623826145e2565b602082019050919050565b600060408201905061464360008301846133c3565b81810360208301526146548161460b565b905092915050565b600060ff82169050919050565b6146728161465c565b811461467d57600080fd5b50565b60008151905061468f81614669565b92915050565b6000602082840312156146ab576146aa61325d565b5b60006146b984828501614680565b91505092915050565b60008160011c9050919050565b6000808291508390505b6001851115614719578086048111156146f5576146f4613cbe565b5b60018516156147045780820291505b8081029050614712856146c2565b94506146d9565b94509492505050565b60008261473257600190506147ee565b8161474057600090506147ee565b816001811461475657600281146147605761478f565b60019150506147ee565b60ff84111561477257614771613cbe565b5b8360020a91508482111561478957614788613cbe565b5b506147ee565b5060208310610133831016604e8410600b84101617156147c45782820a9050838111156147bf576147be613cbe565b5b6147ee565b6147d184848460016146cf565b925090508184048111156147e8576147e7613cbe565b5b81810290505b9392505050565b60006148008261321f565b915061480b8361321f565b92506148387fffffffffffffffffffffffffffffffffffffffffffffffffffffffffffffffff8484614722565b905092915050565b600061484b8261321f565b91506148568361321f565b92508282026148648161321f565b9150828204841483151761487b5761487a613cbe565b5b5092915050565b600081519050919050565b600082825260208201905092915050565b6000819050602082019050919050565b6148b7816134a7565b82525050565b60006148c983836148ae565b60208301905092915050565b6000602082019050919050565b60006148ed82614882565b6148f7818561488d565b93506149028361489e565b8060005b8381101561493357815161491a88826148bd565b9750614925836148d5565b925050600181019050614906565b5085935050505092915050565b6000602082019050818103600083015261495a81846148e2565b905092915050565b600061496d8261321f565b91507fffffffffffffffffffffffffffffffffffffffffffffffffffffffffffffffff820361499f5761499e613cbe565b5b600182019050919050565b60006060820190506149bf6000830186613229565b6149cc60208301856133c3565b6149d96040830184613229565b949350505050565b6000602082840312156149f7576149f661325d565b5b6000614a0584828501613e4f565b91505092915050565b7f50726576696f757320726f756e64206e6f7420656e6465640000000000000000600082015250565b6000614a44601883613af0565b9150614a4f82614a0e565b602082019050919050565b60006020820190508181036000830152614a7381614a37565b9050919050565b600081519050614a89816134b5565b92915050565b600060208284031215614aa557614aa461325d565b5b6000614ab384828501614a7a565b91505092915050565b6000614ac7826134a7565b9150614ad2836134a7565b9250828201905061ffff811115614aec57614aeb613cbe565b5b92915050565b600063ffffffff82169050919050565b6000614b1d614b18614b13846134a7565b6133ed565b614af2565b9050919050565b614b2d81614b02565b82525050565b6000602082019050614b486000830184614b24565b92915050565b600081519050919050565b600082825260208201905092915050565b6000819050602082019050919050565b6000614b86838361420a565b60208301905092915050565b6000602082019050919050565b6000614baa82614b4e565b614bb48185614b59565b9350614bbf83614b6a565b8060005b83811015614bf0578151614bd78882614b7a565b9750614be283614b92565b925050600181019050614bc3565b5085935050505092915050565b60006060820190508181036000830152614c17818661431f565b90508181036020830152614c2b818561445c565b90508181036040830152614c3f8184614b9f565b9050949350505050565b6000614c5c614c57846137ef565b613557565b90508083825260208201905060208402830185811115614c7f57614c7e61359e565b5b835b81811015614ca85780614c948882613c10565b845260208401935050602081019050614c81565b5050509392505050565b600082601f830112614cc757614cc66134e1565b5b8151614cd7848260208601614c49565b91505092915050565b60008060408385031215614cf757614cf661325d565b5b6000614d0585828601613e89565b925050602083015167ffffffffffffffff811115614d2657614d25613262565b5b614d3285828601614cb2565b9150509250929050565b7f52616e646f6d206e756d62657273206e6f742072656164790000000000000000600082015250565b6000614d72601883613af0565b9150614d7d82614d3c565b602082019050919050565b60006020820190508181036000830152614da181614d65565b9050919050565b6000819050919050565b6000614dcd614dc8614dc384614da8565b6133ed565b6134a7565b9050919050565b614ddd81614db2565b82525050565b6000606082019050614df86000830186613229565b614e056020830185614dd4565b8181036040830152614e1781846148e2565b9050949350505050565b7f4e487b7100000000000000000000000000000000000000000000000000000000600052601260045260246000fd5b6000614e5b8261321f565b9150614e668361321f565b925082614e7657614e75614e21565b5b828206905092915050565b6000614e94614e8f84613572565b613557565b90508083825260208201905060208402830185811115614eb757614eb661359e565b5b835b81811015614ee05780614ecc8882614a7a565b845260208401935050602081019050614eb9565b5050509392505050565b600082601f830112614eff57614efe6134e1565b5b8151614f0f848260208601614e81565b91505092915050565b60006101808284031215614f2f57614f2e613e45565b5b614f3a610180613557565b90506000614f4a84828501613c10565b6000830152506020614f5e84828501613c10565b6020830152506040614f7284828501613c10565b6040830152506060614f8684828501613c10565b6060830152506080614f9a84828501613e89565b60808301525060a082015167ffffffffffffffff811115614fbe57614fbd613e4a565b5b614fca84828501614eea565b60a08301525060c082015167ffffffffffffffff811115614fee57614fed613e4a565b5b614ffa84828501614cb2565b60c08301525060e061500e84828501614a7a565b60e08301525061010082015167ffffffffffffffff81111561503357615032613e4a565b5b61503f84828501614cb2565b6101008301525061012061505584828501614a7a565b6101208301525061014082015167ffffffffffffffff81111561507b5761507a613e4a565b5b61508784828501614cb2565b6101408301525061016061509d84828501614a7a565b6101608301525092915050565b6000602082840312156150c0576150bf61325d565b5b600082015167ffffffffffffffff8111156150de576150dd613262565b5b6150ea84828501614f18565b91505092915050565b60006060820190506151086000830186613229565b61511560208301856137c5565b818103604083015261512781846148e2565b9050949350505050565b6000604082019050818103600083015261514b81856148e2565b9050818103602083015261515f81846148e2565b90509392505050565b600060408201905061517d60008301856133c3565b61518a60208301846133c3565b9392505050565b7f4d697373696e6720416c6c6f77616e6365000000000000000000000000000000600082015250565b60006151c7601183613af0565b91506151d282615191565b602082019050919050565b600060208201905081810360008301526151f6816151ba565b9050919050565b60006152088261321f565b91506000820361521b5761521a613cbe565b5b600182039050919050565b7f496e73756666696369656e742066756e64730000000000000000000000000000600082015250565b600061525c601283613af0565b915061526782615226565b602082019050919050565b6000602082019050818103600083015261528b8161524f565b9050919050565b600061529d826134a7565b915061ffff82036152b1576152b0613cbe565b5b600182019050919050565b60006080820190506152d16000830187613229565b81810360208301526152e381866148e2565b90506152f260408301856133c3565b6152ff60608301846133c3565b95945050505050565b600060608201905061531d60008301866133c3565b61532a60208301856133c3565b6153376040830184613229565b949350505050565b600081519050919050565b600081905092915050565b60005b83811015615373578082015181840152602081019050615358565b60008484015250505050565b600061538a8261533f565b615394818561534a565b93506153a4818560208601615355565b80840191505092915050565b60006153bc828461537f565b91508190509291505056fea2646970667358221220614151f96c9522ff2357e2772a6397c5b532d949283a5063fc395023264f326c64736f6c63430008180033",
  "devdoc": {
    "errors": {
      "AddressEmptyCode(address)": [
        {
          "details": "There's no code at `target` (it is not a contract)."
        }
      ],
      "AddressInsufficientBalance(address)": [
        {
          "details": "The ETH balance of the account is not enough to perform the operation."
        }
      ],
      "FailedInnerCall()": [
        {
          "details": "A call to an address target failed. The target may have reverted."
        }
      ],
      "OwnableInvalidOwner(address)": [
        {
          "details": "The owner is not a valid owner account. (eg. `address(0)`)"
        }
      ],
      "OwnableUnauthorizedAccount(address)": [
        {
          "details": "The caller account is not authorized to perform an operation."
        }
      ],
      "SafeERC20FailedOperation(address)": [
        {
          "details": "An operation with an ERC20 token failed."
        }
      ]
    },
    "kind": "dev",
    "methods": {
      "owner()": {
        "details": "Returns the address of the current owner."
      },
      "renounceOwnership()": {
        "details": "Leaves the contract without owner. It will not be possible to call `onlyOwner` functions. Can only be called by the current owner. NOTE: Renouncing ownership will leave the contract without an owner, thereby disabling any functionality that is only available to the owner."
      },
      "transferOwnership(address)": {
        "details": "Transfers ownership of the contract to a new account (`newOwner`). Can only be called by the current owner."
      }
    },
    "version": 1
  },
  "userdoc": {
    "kind": "user",
    "methods": {},
    "version": 1
  },
  "storageLayout": {
    "storage": [
      {
        "astId": 8,
        "contract": "contracts/LotteryMaster.sol:LotteryMaster",
        "label": "_owner",
        "offset": 0,
        "slot": "0",
        "type": "t_address"
      },
      {
        "astId": 5081,
        "contract": "contracts/LotteryMaster.sol:LotteryMaster",
        "label": "teamAddress",
        "offset": 0,
        "slot": "1",
        "type": "t_address"
      },
      {
        "astId": 1035,
        "contract": "contracts/LotteryMaster.sol:LotteryMaster",
        "label": "chainId",
        "offset": 0,
        "slot": "2",
        "type": "t_uint256"
      },
      {
        "astId": 1037,
        "contract": "contracts/LotteryMaster.sol:LotteryMaster",
        "label": "roundCount",
        "offset": 0,
        "slot": "3",
        "type": "t_uint256"
      },
      {
        "astId": 1040,
        "contract": "contracts/LotteryMaster.sol:LotteryMaster",
        "label": "rounds",
        "offset": 0,
        "slot": "4",
        "type": "t_array(t_address)dyn_storage"
      },
      {
        "astId": 1043,
        "contract": "contracts/LotteryMaster.sol:LotteryMaster",
        "label": "lotteryStatus",
        "offset": 0,
        "slot": "5",
        "type": "t_enum(LotteryStatuses)1029"
      },
      {
        "astId": 1045,
        "contract": "contracts/LotteryMaster.sol:LotteryMaster",
        "label": "statusStartTime",
        "offset": 0,
        "slot": "6",
        "type": "t_uint256"
      },
      {
        "astId": 1047,
        "contract": "contracts/LotteryMaster.sol:LotteryMaster",
        "label": "statusEndTime",
        "offset": 0,
        "slot": "7",
        "type": "t_uint256"
      },
      {
        "astId": 1053,
        "contract": "contracts/LotteryMaster.sol:LotteryMaster",
        "label": "freeRounds",
        "offset": 0,
        "slot": "8",
        "type": "t_mapping(t_uint256,t_mapping(t_address,t_uint256))"
      },
      {
        "astId": 1057,
        "contract": "contracts/LotteryMaster.sol:LotteryMaster",
        "label": "crossChainOperator",
        "offset": 0,
        "slot": "9",
        "type": "t_mapping(t_address,t_bool)"
      },
      {
        "astId": 1075,
        "contract": "contracts/LotteryMaster.sol:LotteryMaster",
        "label": "counterForBankWallets",
        "offset": 0,
        "slot": "10",
        "type": "t_uint16"
      },
      {
        "astId": 1078,
        "contract": "contracts/LotteryMaster.sol:LotteryMaster",
        "label": "bankWallets",
        "offset": 0,
        "slot": "11",
        "type": "t_array(t_address)dyn_storage"
      },
      {
        "astId": 1145,
        "contract": "contracts/LotteryMaster.sol:LotteryMaster",
        "label": "paymentToken",
        "offset": 0,
        "slot": "12",
        "type": "t_contract(IERC20Metadata)251"
      },
      {
        "astId": 1148,
        "contract": "contracts/LotteryMaster.sol:LotteryMaster",
        "label": "randomizer",
        "offset": 0,
        "slot": "13",
        "type": "t_contract(CyclixRandomizerInterface)901"
      },
      {
        "astId": 1151,
        "contract": "contracts/LotteryMaster.sol:LotteryMaster",
        "label": "reader",
        "offset": 0,
        "slot": "14",
        "type": "t_contract(LotteryReaderInterface)3888"
      },
      {
        "astId": 1153,
        "contract": "contracts/LotteryMaster.sol:LotteryMaster",
        "label": "ticketPrice",
        "offset": 0,
        "slot": "15",
        "type": "t_uint256"
      },
      {
        "astId": 1156,
        "contract": "contracts/LotteryMaster.sol:LotteryMaster",
        "label": "freeRoundsAreEnabled",
        "offset": 0,
        "slot": "16",
        "type": "t_bool"
      },
      {
        "astId": 1159,
        "contract": "contracts/LotteryMaster.sol:LotteryMaster",
        "label": "percentageOfReferralWinners",
        "offset": 1,
        "slot": "16",
        "type": "t_uint16"
      },
      {
        "astId": 1162,
        "contract": "contracts/LotteryMaster.sol:LotteryMaster",
        "label": "lotteryRoundCreator",
        "offset": 3,
        "slot": "16",
        "type": "t_contract(LotteryRoundCreatorInterface)4955"
      },
      {
        "astId": 1768,
        "contract": "contracts/LotteryMaster.sol:LotteryMaster",
        "label": "publicRoundRandomNumbersRequestId",
        "offset": 0,
        "slot": "17",
        "type": "t_mapping(t_uint256,t_uint256)"
      }
    ],
    "types": {
      "t_address": {
        "encoding": "inplace",
        "label": "address",
        "numberOfBytes": "20"
      },
      "t_array(t_address)dyn_storage": {
        "base": "t_address",
        "encoding": "dynamic_array",
        "label": "address[]",
        "numberOfBytes": "32"
      },
      "t_bool": {
        "encoding": "inplace",
        "label": "bool",
        "numberOfBytes": "1"
      },
      "t_contract(CyclixRandomizerInterface)901": {
        "encoding": "inplace",
        "label": "contract CyclixRandomizerInterface",
        "numberOfBytes": "20"
      },
      "t_contract(IERC20Metadata)251": {
        "encoding": "inplace",
        "label": "contract IERC20Metadata",
        "numberOfBytes": "20"
      },
      "t_contract(LotteryReaderInterface)3888": {
        "encoding": "inplace",
        "label": "contract LotteryReaderInterface",
        "numberOfBytes": "20"
      },
      "t_contract(LotteryRoundCreatorInterface)4955": {
        "encoding": "inplace",
        "label": "contract LotteryRoundCreatorInterface",
        "numberOfBytes": "20"
      },
      "t_enum(LotteryStatuses)1029": {
        "encoding": "inplace",
        "label": "enum LotteryStatuses",
        "numberOfBytes": "1"
      },
      "t_mapping(t_address,t_bool)": {
        "encoding": "mapping",
        "key": "t_address",
        "label": "mapping(address => bool)",
        "numberOfBytes": "32",
        "value": "t_bool"
      },
      "t_mapping(t_address,t_uint256)": {
        "encoding": "mapping",
        "key": "t_address",
        "label": "mapping(address => uint256)",
        "numberOfBytes": "32",
        "value": "t_uint256"
      },
      "t_mapping(t_uint256,t_mapping(t_address,t_uint256))": {
        "encoding": "mapping",
        "key": "t_uint256",
        "label": "mapping(uint256 => mapping(address => uint256))",
        "numberOfBytes": "32",
        "value": "t_mapping(t_address,t_uint256)"
      },
      "t_mapping(t_uint256,t_uint256)": {
        "encoding": "mapping",
        "key": "t_uint256",
        "label": "mapping(uint256 => uint256)",
        "numberOfBytes": "32",
        "value": "t_uint256"
      },
      "t_uint16": {
        "encoding": "inplace",
        "label": "uint16",
        "numberOfBytes": "2"
      },
      "t_uint256": {
        "encoding": "inplace",
        "label": "uint256",
        "numberOfBytes": "32"
      }
    }
  }
}