{
  "address": "0x4A4ae7f7c3266c8A335A253Ab6bfa65287E4c664",
  "abi": [
    {
      "inputs": [
        {
          "internalType": "uint64",
          "name": "subscriptionId",
          "type": "uint64"
        },
        {
          "internalType": "bytes32",
          "name": "_keyHash",
          "type": "bytes32"
        },
        {
          "internalType": "address",
          "name": "coordinatorAddress",
          "type": "address"
        }
      ],
      "stateMutability": "nonpayable",
      "type": "constructor"
    },
    {
      "inputs": [
        {
          "internalType": "address",
          "name": "have",
          "type": "address"
        },
        {
          "internalType": "address",
          "name": "want",
          "type": "address"
        }
      ],
      "name": "OnlyCoordinatorCanFulfill",
      "type": "error"
    },
    {
      "anonymous": false,
      "inputs": [
        {
          "indexed": true,
          "internalType": "address",
          "name": "from",
          "type": "address"
        },
        {
          "indexed": true,
          "internalType": "address",
          "name": "to",
          "type": "address"
        }
      ],
      "name": "OwnershipTransferRequested",
      "type": "event"
    },
    {
      "anonymous": false,
      "inputs": [
        {
          "indexed": true,
          "internalType": "address",
          "name": "from",
          "type": "address"
        },
        {
          "indexed": true,
          "internalType": "address",
          "name": "to",
          "type": "address"
        }
      ],
      "name": "OwnershipTransferred",
      "type": "event"
    },
    {
      "anonymous": false,
      "inputs": [
        {
          "indexed": false,
          "internalType": "uint256",
          "name": "requestId",
          "type": "uint256"
        },
        {
          "indexed": false,
          "internalType": "uint256[]",
          "name": "randomWords",
          "type": "uint256[]"
        }
      ],
      "name": "RequestFulfilled",
      "type": "event"
    },
    {
      "anonymous": false,
      "inputs": [
        {
          "indexed": false,
          "internalType": "uint256",
          "name": "requestId",
          "type": "uint256"
        },
        {
          "indexed": false,
          "internalType": "uint32",
          "name": "numWords",
          "type": "uint32"
        },
        {
          "indexed": false,
          "internalType": "address",
          "name": "requestor",
          "type": "address"
        }
      ],
      "name": "RequestSent",
      "type": "event"
    },
    {
      "inputs": [],
      "name": "acceptOwnership",
      "outputs": [],
      "stateMutability": "nonpayable",
      "type": "function"
    },
    {
      "inputs": [],
      "name": "callbackGasLimitForOneWord",
      "outputs": [
        {
          "internalType": "uint32",
          "name": "",
          "type": "uint32"
        }
      ],
      "stateMutability": "view",
      "type": "function"
    },
    {
      "inputs": [
        {
          "internalType": "address",
          "name": "",
          "type": "address"
        }
      ],
      "name": "gameContractActive",
      "outputs": [
        {
          "internalType": "bool",
          "name": "",
          "type": "bool"
        }
      ],
      "stateMutability": "view",
      "type": "function"
    },
    {
      "inputs": [
        {
          "internalType": "address",
          "name": "",
          "type": "address"
        }
      ],
      "name": "gameContractAdded",
      "outputs": [
        {
          "internalType": "bool",
          "name": "",
          "type": "bool"
        }
      ],
      "stateMutability": "view",
      "type": "function"
    },
    {
      "inputs": [
        {
          "internalType": "address",
          "name": "",
          "type": "address"
        }
      ],
      "name": "gameContractName",
      "outputs": [
        {
          "internalType": "string",
          "name": "",
          "type": "string"
        }
      ],
      "stateMutability": "view",
      "type": "function"
    },
    {
      "inputs": [
        {
          "internalType": "address",
          "name": "",
          "type": "address"
        },
        {
          "internalType": "uint256",
          "name": "",
          "type": "uint256"
        }
      ],
      "name": "gameContractRequests",
      "outputs": [
        {
          "internalType": "uint256",
          "name": "",
          "type": "uint256"
        }
      ],
      "stateMutability": "view",
      "type": "function"
    },
    {
      "inputs": [
        {
          "internalType": "address",
          "name": "",
          "type": "address"
        }
      ],
      "name": "gameContractRequestsCount",
      "outputs": [
        {
          "internalType": "uint256",
          "name": "",
          "type": "uint256"
        }
      ],
      "stateMutability": "view",
      "type": "function"
    },
    {
      "inputs": [
        {
          "internalType": "address",
          "name": "_gameAddress",
          "type": "address"
        }
      ],
      "name": "getLastRequestIdForCaller",
      "outputs": [
        {
          "internalType": "uint256",
          "name": "",
          "type": "uint256"
        }
      ],
      "stateMutability": "view",
      "type": "function"
    },
    {
      "inputs": [
        {
          "internalType": "uint256",
          "name": "_requestId",
          "type": "uint256"
        }
      ],
      "name": "getRequestStatus",
      "outputs": [
        {
          "internalType": "bool",
          "name": "fulfilled",
          "type": "bool"
        },
        {
          "internalType": "uint256[]",
          "name": "randomWords",
          "type": "uint256[]"
        }
      ],
      "stateMutability": "view",
      "type": "function"
    },
    {
      "inputs": [],
      "name": "keyHash",
      "outputs": [
        {
          "internalType": "bytes32",
          "name": "",
          "type": "bytes32"
        }
      ],
      "stateMutability": "view",
      "type": "function"
    },
    {
      "inputs": [],
      "name": "lastRequestId",
      "outputs": [
        {
          "internalType": "uint256",
          "name": "",
          "type": "uint256"
        }
      ],
      "stateMutability": "view",
      "type": "function"
    },
    {
      "inputs": [],
      "name": "owner",
      "outputs": [
        {
          "internalType": "address",
          "name": "",
          "type": "address"
        }
      ],
      "stateMutability": "view",
      "type": "function"
    },
    {
      "inputs": [
        {
          "internalType": "uint256",
          "name": "",
          "type": "uint256"
        }
      ],
      "name": "randomWordsRecoverRequest",
      "outputs": [
        {
          "internalType": "uint256",
          "name": "",
          "type": "uint256"
        }
      ],
      "stateMutability": "view",
      "type": "function"
    },
    {
      "inputs": [
        {
          "internalType": "uint256",
          "name": "requestId",
          "type": "uint256"
        },
        {
          "internalType": "uint256[]",
          "name": "randomWords",
          "type": "uint256[]"
        }
      ],
      "name": "rawFulfillRandomWords",
      "outputs": [],
      "stateMutability": "nonpayable",
      "type": "function"
    },
    {
      "inputs": [
        {
          "internalType": "uint256",
          "name": "_requestId",
          "type": "uint256"
        }
      ],
      "name": "recoverLostNumberRequest",
      "outputs": [
        {
          "internalType": "uint256",
          "name": "",
          "type": "uint256"
        }
      ],
      "stateMutability": "nonpayable",
      "type": "function"
    },
    {
      "inputs": [
        {
          "internalType": "address",
          "name": "gameAddress",
          "type": "address"
        },
        {
          "internalType": "string",
          "name": "name",
          "type": "string"
        }
      ],
      "name": "registerGameContract",
      "outputs": [],
      "stateMutability": "nonpayable",
      "type": "function"
    },
    {
      "inputs": [],
      "name": "requestConfirmations",
      "outputs": [
        {
          "internalType": "uint16",
          "name": "",
          "type": "uint16"
        }
      ],
      "stateMutability": "view",
      "type": "function"
    },
    {
      "inputs": [
        {
          "internalType": "uint256",
          "name": "",
          "type": "uint256"
        }
      ],
      "name": "requestIds",
      "outputs": [
        {
          "internalType": "uint256",
          "name": "",
          "type": "uint256"
        }
      ],
      "stateMutability": "view",
      "type": "function"
    },
    {
      "inputs": [
        {
          "internalType": "uint32",
          "name": "numWords",
          "type": "uint32"
        }
      ],
      "name": "requestRandomWords",
      "outputs": [
        {
          "internalType": "uint256",
          "name": "requestId",
          "type": "uint256"
        }
      ],
      "stateMutability": "nonpayable",
      "type": "function"
    },
    {
      "inputs": [
        {
          "internalType": "uint256",
          "name": "",
          "type": "uint256"
        }
      ],
      "name": "s_requests",
      "outputs": [
        {
          "internalType": "uint32",
          "name": "wordsCount",
          "type": "uint32"
        },
        {
          "internalType": "bool",
          "name": "fulfilled",
          "type": "bool"
        },
        {
          "internalType": "bool",
          "name": "exists",
          "type": "bool"
        }
      ],
      "stateMutability": "view",
      "type": "function"
    },
    {
      "inputs": [],
      "name": "s_subscriptionId",
      "outputs": [
        {
          "internalType": "uint64",
          "name": "",
          "type": "uint64"
        }
      ],
      "stateMutability": "view",
      "type": "function"
    },
    {
      "inputs": [
        {
          "internalType": "uint32",
          "name": "newGas",
          "type": "uint32"
        }
      ],
      "name": "setCallbackGasLimitForOneWord",
      "outputs": [],
      "stateMutability": "nonpayable",
      "type": "function"
    },
    {
      "inputs": [
        {
          "internalType": "address",
          "name": "gameAddress",
          "type": "address"
        },
        {
          "internalType": "bool",
          "name": "status",
          "type": "bool"
        }
      ],
      "name": "setGameContractStatus",
      "outputs": [],
      "stateMutability": "nonpayable",
      "type": "function"
    },
    {
      "inputs": [
        {
          "internalType": "address",
          "name": "to",
          "type": "address"
        }
      ],
      "name": "transferOwnership",
      "outputs": [],
      "stateMutability": "nonpayable",
      "type": "function"
    },
    {
      "inputs": [
        {
          "internalType": "address",
          "name": "_vrfCoordinator",
          "type": "address"
        }
      ],
      "name": "updateCoordinator",
      "outputs": [],
      "stateMutability": "nonpayable",
      "type": "function"
    },
    {
      "inputs": [],
      "name": "vrfCoordinator",
      "outputs": [
        {
          "internalType": "address",
          "name": "",
          "type": "address"
        }
      ],
      "stateMutability": "view",
      "type": "function"
    }
  ],
  "transactionHash": "0x70687c17a0110fd33378cb2d01910565495862378c150bbb5198746e3e2b2b6d",
  "args": [
    "0",
    "0xd89b2bf150e3b9e13446986e571fb9cab24b13cea0a43ea20a6049a85cc807cc",
    "0xDCBeFE55738Bb94028822015d2CA0d9638970D0f"
  ],
  "numDeployments": 1,
  "solcInputHash": "a8aa6095351d98c0431f338b3e94cfa6",
  "bytecode": "0x6080604052617530600d60006101000a81548163ffffffff021916908363ffffffff1602179055506003600d60046101000a81548161ffff021916908361ffff1602179055503480156200005257600080fd5b5060405162002f8b38038062002f8b83398181016040528101906200007891906200040f565b3380600083806000806101000a81548173ffffffffffffffffffffffffffffffffffffffff021916908373ffffffffffffffffffffffffffffffffffffffff16021790555050600073ffffffffffffffffffffffffffffffffffffffff168273ffffffffffffffffffffffffffffffffffffffff160362000130576040517f08c379a00000000000000000000000000000000000000000000000000000000081526004016200012790620004cc565b60405180910390fd5b81600160006101000a81548173ffffffffffffffffffffffffffffffffffffffff021916908373ffffffffffffffffffffffffffffffffffffffff160217905550600073ffffffffffffffffffffffffffffffffffffffff168173ffffffffffffffffffffffffffffffffffffffff1614620001b857620001b781620001f460201b60201c565b5b50505082600960006101000a81548167ffffffffffffffff021916908367ffffffffffffffff16021790555081600c8190555050505062000560565b3373ffffffffffffffffffffffffffffffffffffffff168173ffffffffffffffffffffffffffffffffffffffff160362000265576040517f08c379a00000000000000000000000000000000000000000000000000000000081526004016200025c906200053e565b60405180910390fd5b80600260006101000a81548173ffffffffffffffffffffffffffffffffffffffff021916908373ffffffffffffffffffffffffffffffffffffffff1602179055508073ffffffffffffffffffffffffffffffffffffffff16600160009054906101000a900473ffffffffffffffffffffffffffffffffffffffff1673ffffffffffffffffffffffffffffffffffffffff167fed8889f560326eb138920d842192f0eb3dd22b4f139c87a2c57538e05bae127860405160405180910390a350565b600080fd5b600067ffffffffffffffff82169050919050565b62000349816200032a565b81146200035557600080fd5b50565b60008151905062000369816200033e565b92915050565b6000819050919050565b62000384816200036f565b81146200039057600080fd5b50565b600081519050620003a48162000379565b92915050565b600073ffffffffffffffffffffffffffffffffffffffff82169050919050565b6000620003d782620003aa565b9050919050565b620003e981620003ca565b8114620003f557600080fd5b50565b6000815190506200040981620003de565b92915050565b6000806000606084860312156200042b576200042a62000325565b5b60006200043b8682870162000358565b93505060206200044e8682870162000393565b92505060406200046186828701620003f8565b9150509250925092565b600082825260208201905092915050565b7f43616e6e6f7420736574206f776e657220746f207a65726f0000000000000000600082015250565b6000620004b46018836200046b565b9150620004c1826200047c565b602082019050919050565b60006020820190508181036000830152620004e781620004a5565b9050919050565b7f43616e6e6f74207472616e7366657220746f2073656c66000000000000000000600082015250565b6000620005266017836200046b565b91506200053382620004ee565b602082019050919050565b60006020820190508181036000830152620005598162000517565b9050919050565b612a1b80620005706000396000f3fe608060405234801561001057600080fd5b506004361061018e5760003560e01c8063a3e56fa8116100de578063d7dd3d4b11610097578063e726f2e111610071578063e726f2e1146104d4578063f2fde38b14610504578063f9f94e3414610520578063fc2a88c31461053c5761018e565b8063d7dd3d4b14610443578063d8a4676f14610473578063e5f0cc38146104a45761018e565b8063a3e56fa814610381578063af9c4daf1461039f578063b089a0c5146103cf578063b0fb162f146103eb578063c698011714610409578063cd0f2311146104275761018e565b806379ba50971161014b5780638ac00021116101255780638ac00021146102f75780638da5cb5b146103155780639d432cb914610333578063a168fa891461034f5761018e565b806379ba50971461028d5780637c8fab5c146102975780638796ba8c146102c75761018e565b806310aa616b146101935780631fe543e3146101c35780632371d0f1146101df578063293ac0e31461020f57806341381dae1461023f57806361728f391461026f575b600080fd5b6101ad60048036038101906101a891906119b7565b61055a565b6040516101ba91906119ff565b60405180910390f35b6101dd60048036038101906101d89190611ba9565b61057a565b005b6101f960048036038101906101f49190611c05565b61063a565b6040516102069190611c41565b60405180910390f35b610229600480360381019061022491906119b7565b610652565b60405161023691906119ff565b60405180910390f35b61025960048036038101906102549190611c05565b610672565b6040516102669190611c41565b60405180910390f35b61027761085f565b6040516102849190611c75565b60405180910390f35b610295610865565b005b6102b160048036038101906102ac91906119b7565b6109fc565b6040516102be9190611c41565b60405180910390f35b6102e160048036038101906102dc9190611c05565b610aac565b6040516102ee9190611c41565b60405180910390f35b6102ff610ad0565b60405161030c9190611cb3565b60405180910390f35b61031d610aea565b60405161032a9190611cdd565b60405180910390f35b61034d60048036038101906103489190611d34565b610b14565b005b61036960048036038101906103649190611c05565b610b40565b60405161037893929190611d70565b60405180910390f35b610389610b94565b6040516103969190611cdd565b60405180910390f35b6103b960048036038101906103b491906119b7565b610bb8565b6040516103c69190611c41565b60405180910390f35b6103e960048036038101906103e49190611dd3565b610bd0565b005b6103f3610c33565b6040516104009190611e30565b60405180910390f35b610411610c47565b60405161041e9190611e4b565b60405180910390f35b610441600480360381019061043c9190611ec1565b610c5d565b005b61045d60048036038101906104589190611f21565b610e69565b60405161046a9190611c41565b60405180910390f35b61048d60048036038101906104889190611c05565b610e9a565b60405161049b92919061201f565b60405180910390f35b6104be60048036038101906104b991906119b7565b611125565b6040516104cb91906120ce565b60405180910390f35b6104ee60048036038101906104e99190611d34565b6111c5565b6040516104fb9190611c41565b60405180910390f35b61051e600480360381019061051991906119b7565b6115bc565b005b61053a600480360381019061053591906119b7565b6115d0565b005b61054461161b565b6040516105519190611c41565b60405180910390f35b60056020528060005260406000206000915054906101000a900460ff1681565b60008054906101000a900473ffffffffffffffffffffffffffffffffffffffff1673ffffffffffffffffffffffffffffffffffffffff163373ffffffffffffffffffffffffffffffffffffffff161461062c573360008054906101000a900473ffffffffffffffffffffffffffffffffffffffff166040517f1cf993f40000000000000000000000000000000000000000000000000000000081526004016106239291906120f0565b60405180910390fd5b6106368282611621565b5050565b600e6020528060005260406000206000915090505481565b60046020528060005260406000206000915054906101000a900460ff1681565b600061067c61171b565b6003600083815260200190815260200160002060000160059054906101000a900460ff166106df576040517f08c379a00000000000000000000000000000000000000000000000000000000081526004016106d690612165565b60405180910390fd5b600015156003600084815260200190815260200160002060000160049054906101000a900460ff16151514610749576040517f08c379a0000000000000000000000000000000000000000000000000000000008152600401610740906121d1565b60405180910390fd5b6000600360008481526020019081526020016000206040518060800160405290816000820160009054906101000a900463ffffffff1663ffffffff1663ffffffff1681526020016000820160049054906101000a900460ff161515151581526020016000820160059054906101000a900460ff161515151581526020016001820180548060200260200160405190810160405280929190818152602001828054801561081457602002820191906000526020600020905b815481526020019060010190808311610800575b505050505081525050905061082c81600001516111c5565b600e600085815260200190815260200160002081905550600e600084815260200190815260200160002054915050919050565b600c5481565b600260009054906101000a900473ffffffffffffffffffffffffffffffffffffffff1673ffffffffffffffffffffffffffffffffffffffff163373ffffffffffffffffffffffffffffffffffffffff16146108f5576040517f08c379a00000000000000000000000000000000000000000000000000000000081526004016108ec9061223d565b60405180910390fd5b6000600160009054906101000a900473ffffffffffffffffffffffffffffffffffffffff16905033600160006101000a81548173ffffffffffffffffffffffffffffffffffffffff021916908373ffffffffffffffffffffffffffffffffffffffff1602179055506000600260006101000a81548173ffffffffffffffffffffffffffffffffffffffff021916908373ffffffffffffffffffffffffffffffffffffffff1602179055503373ffffffffffffffffffffffffffffffffffffffff168173ffffffffffffffffffffffffffffffffffffffff167f8be0079c531659141344cd1fd0a4f28419497f9722a3daafe3b4186f6b6457e060405160405180910390a350565b6000600860008373ffffffffffffffffffffffffffffffffffffffff1673ffffffffffffffffffffffffffffffffffffffff1681526020019081526020016000206001600760008573ffffffffffffffffffffffffffffffffffffffff1673ffffffffffffffffffffffffffffffffffffffff16815260200190815260200160002054610a89919061228c565b81548110610a9a57610a996122c0565b5b90600052602060002001549050919050565b600a8181548110610abc57600080fd5b906000526020600020016000915090505481565b600960009054906101000a900467ffffffffffffffff1681565b6000600160009054906101000a900473ffffffffffffffffffffffffffffffffffffffff16905090565b610b1c61171b565b80600d60006101000a81548163ffffffff021916908363ffffffff16021790555050565b60036020528060005260406000206000915090508060000160009054906101000a900463ffffffff16908060000160049054906101000a900460ff16908060000160059054906101000a900460ff16905083565b60008054906101000a900473ffffffffffffffffffffffffffffffffffffffff1681565b60076020528060005260406000206000915090505481565b610bd861171b565b80600560008473ffffffffffffffffffffffffffffffffffffffff1673ffffffffffffffffffffffffffffffffffffffff16815260200190815260200160002060006101000a81548160ff0219169083151502179055505050565b600d60049054906101000a900461ffff1681565b600d60009054906101000a900463ffffffff1681565b610c65610aea565b73ffffffffffffffffffffffffffffffffffffffff163273ffffffffffffffffffffffffffffffffffffffff1614610cd2576040517f08c379a0000000000000000000000000000000000000000000000000000000008152600401610cc990612361565b60405180910390fd5b60001515600460008573ffffffffffffffffffffffffffffffffffffffff1673ffffffffffffffffffffffffffffffffffffffff16815260200190815260200160002060009054906101000a900460ff16151514610d65576040517f08c379a0000000000000000000000000000000000000000000000000000000008152600401610d5c906123f3565b60405180910390fd5b6001600460008573ffffffffffffffffffffffffffffffffffffffff1673ffffffffffffffffffffffffffffffffffffffff16815260200190815260200160002060006101000a81548160ff0219169083151502179055506001600560008573ffffffffffffffffffffffffffffffffffffffff1673ffffffffffffffffffffffffffffffffffffffff16815260200190815260200160002060006101000a81548160ff0219169083151502179055508181600660008673ffffffffffffffffffffffffffffffffffffffff1673ffffffffffffffffffffffffffffffffffffffff1681526020019081526020016000209182610e6392919061262a565b50505050565b60086020528160005260406000208181548110610e8557600080fd5b90600052602060002001600091509150505481565b600060606003600084815260200190815260200160002060000160059054906101000a900460ff16610f01576040517f08c379a0000000000000000000000000000000000000000000000000000000008152600401610ef890612165565b60405180910390fd5b60036000600e600086815260200190815260200160002054815260200190815260200160002060000160059054906101000a900460ff161561103a57600060036000600e60008781526020019081526020016000205481526020019081526020016000206040518060800160405290816000820160009054906101000a900463ffffffff1663ffffffff1663ffffffff1681526020016000820160049054906101000a900460ff161515151581526020016000820160059054906101000a900460ff161515151581526020016001820180548060200260200160405190810160405280929190818152602001828054801561101b57602002820191906000526020600020905b815481526020019060010190808311611007575b5050505050815250509050806020015181606001519250925050611120565b6000600360008581526020019081526020016000206040518060800160405290816000820160009054906101000a900463ffffffff1663ffffffff1663ffffffff1681526020016000820160049054906101000a900460ff161515151581526020016000820160059054906101000a900460ff161515151581526020016001820180548060200260200160405190810160405280929190818152602001828054801561110557602002820191906000526020600020905b8154815260200190600101908083116110f1575b50505050508152505090508060200151816060015192509250505b915091565b600660205280600052604060002060009150905080546111449061244d565b80601f01602080910402602001604051908101604052809291908181526020018280546111709061244d565b80156111bd5780601f10611192576101008083540402835291602001916111bd565b820191906000526020600020905b8154815290600101906020018083116111a057829003601f168201915b505050505081565b60006111cf610aea565b73ffffffffffffffffffffffffffffffffffffffff163373ffffffffffffffffffffffffffffffffffffffff1614806112515750600460003373ffffffffffffffffffffffffffffffffffffffff1673ffffffffffffffffffffffffffffffffffffffff16815260200190815260200160002060009054906101000a900460ff165b611290576040517f08c379a00000000000000000000000000000000000000000000000000000000081526004016112879061276c565b60405180910390fd5b6000600d60009054906101000a900463ffffffff16905060008054906101000a900473ffffffffffffffffffffffffffffffffffffffff1673ffffffffffffffffffffffffffffffffffffffff16635d3b1d30600c54600960009054906101000a900467ffffffffffffffff16600d60049054906101000a900461ffff16878661131a919061278c565b886040518663ffffffff1660e01b815260040161133b9594939291906127c9565b6020604051808303816000875af115801561135a573d6000803e3d6000fd5b505050506040513d601f19601f8201168201806040525081019061137e9190612831565b915060405180608001604052808463ffffffff168152602001600015158152602001600115158152602001600067ffffffffffffffff8111156113c4576113c3611a66565b5b6040519080825280602002602001820160405280156113f25781602001602082028036833780820191505090505b508152506003600084815260200190815260200160002060008201518160000160006101000a81548163ffffffff021916908363ffffffff16021790555060208201518160000160046101000a81548160ff02191690831515021790555060408201518160000160056101000a81548160ff021916908315150217905550606082015181600101908051906020019061148c9291906118db565b50905050600a82908060018154018082558091505060019003906000526020600020016000909190919091505581600b81905550600860003373ffffffffffffffffffffffffffffffffffffffff1673ffffffffffffffffffffffffffffffffffffffff168152602001908152602001600020829080600181540180825580915050600190039060005260206000200160009091909190915055600760003373ffffffffffffffffffffffffffffffffffffffff1673ffffffffffffffffffffffffffffffffffffffff16815260200190815260200160002060008154809291906115769061285e565b91905055507ff63bc84386bc129703919a2388162a4ad560a11f28b1280169517f1fa7ace4258284336040516115ae939291906128a6565b60405180910390a150919050565b6115c461171b565b6115cd816117ad565b50565b6115d861171b565b806000806101000a81548173ffffffffffffffffffffffffffffffffffffffff021916908373ffffffffffffffffffffffffffffffffffffffff16021790555050565b600b5481565b6003600083815260200190815260200160002060000160059054906101000a900460ff16611684576040517f08c379a000000000000000000000000000000000000000000000000000000000815260040161167b90612165565b60405180910390fd5b60016003600084815260200190815260200160002060000160046101000a81548160ff021916908315150217905550806003600084815260200190815260200160002060010190805190602001906116dd9291906118db565b507ffe2e2d779dba245964d4e3ef9b994be63856fd568bf7d3ca9e224755cb1bd54d828260405161170f9291906128dd565b60405180910390a15050565b600160009054906101000a900473ffffffffffffffffffffffffffffffffffffffff1673ffffffffffffffffffffffffffffffffffffffff163373ffffffffffffffffffffffffffffffffffffffff16146117ab576040517f08c379a00000000000000000000000000000000000000000000000000000000081526004016117a290612959565b60405180910390fd5b565b3373ffffffffffffffffffffffffffffffffffffffff168173ffffffffffffffffffffffffffffffffffffffff160361181b576040517f08c379a0000000000000000000000000000000000000000000000000000000008152600401611812906129c5565b60405180910390fd5b80600260006101000a81548173ffffffffffffffffffffffffffffffffffffffff021916908373ffffffffffffffffffffffffffffffffffffffff1602179055508073ffffffffffffffffffffffffffffffffffffffff16600160009054906101000a900473ffffffffffffffffffffffffffffffffffffffff1673ffffffffffffffffffffffffffffffffffffffff167fed8889f560326eb138920d842192f0eb3dd22b4f139c87a2c57538e05bae127860405160405180910390a350565b828054828255906000526020600020908101928215611917579160200282015b828111156119165782518255916020019190600101906118fb565b5b5090506119249190611928565b5090565b5b80821115611941576000816000905550600101611929565b5090565b6000604051905090565b600080fd5b600080fd5b600073ffffffffffffffffffffffffffffffffffffffff82169050919050565b600061198482611959565b9050919050565b61199481611979565b811461199f57600080fd5b50565b6000813590506119b18161198b565b92915050565b6000602082840312156119cd576119cc61194f565b5b60006119db848285016119a2565b91505092915050565b60008115159050919050565b6119f9816119e4565b82525050565b6000602082019050611a1460008301846119f0565b92915050565b6000819050919050565b611a2d81611a1a565b8114611a3857600080fd5b50565b600081359050611a4a81611a24565b92915050565b600080fd5b6000601f19601f8301169050919050565b7f4e487b7100000000000000000000000000000000000000000000000000000000600052604160045260246000fd5b611a9e82611a55565b810181811067ffffffffffffffff82111715611abd57611abc611a66565b5b80604052505050565b6000611ad0611945565b9050611adc8282611a95565b919050565b600067ffffffffffffffff821115611afc57611afb611a66565b5b602082029050602081019050919050565b600080fd5b6000611b25611b2084611ae1565b611ac6565b90508083825260208201905060208402830185811115611b4857611b47611b0d565b5b835b81811015611b715780611b5d8882611a3b565b845260208401935050602081019050611b4a565b5050509392505050565b600082601f830112611b9057611b8f611a50565b5b8135611ba0848260208601611b12565b91505092915050565b60008060408385031215611bc057611bbf61194f565b5b6000611bce85828601611a3b565b925050602083013567ffffffffffffffff811115611bef57611bee611954565b5b611bfb85828601611b7b565b9150509250929050565b600060208284031215611c1b57611c1a61194f565b5b6000611c2984828501611a3b565b91505092915050565b611c3b81611a1a565b82525050565b6000602082019050611c566000830184611c32565b92915050565b6000819050919050565b611c6f81611c5c565b82525050565b6000602082019050611c8a6000830184611c66565b92915050565b600067ffffffffffffffff82169050919050565b611cad81611c90565b82525050565b6000602082019050611cc86000830184611ca4565b92915050565b611cd781611979565b82525050565b6000602082019050611cf26000830184611cce565b92915050565b600063ffffffff82169050919050565b611d1181611cf8565b8114611d1c57600080fd5b50565b600081359050611d2e81611d08565b92915050565b600060208284031215611d4a57611d4961194f565b5b6000611d5884828501611d1f565b91505092915050565b611d6a81611cf8565b82525050565b6000606082019050611d856000830186611d61565b611d9260208301856119f0565b611d9f60408301846119f0565b949350505050565b611db0816119e4565b8114611dbb57600080fd5b50565b600081359050611dcd81611da7565b92915050565b60008060408385031215611dea57611de961194f565b5b6000611df8858286016119a2565b9250506020611e0985828601611dbe565b9150509250929050565b600061ffff82169050919050565b611e2a81611e13565b82525050565b6000602082019050611e456000830184611e21565b92915050565b6000602082019050611e606000830184611d61565b92915050565b600080fd5b60008083601f840112611e8157611e80611a50565b5b8235905067ffffffffffffffff811115611e9e57611e9d611e66565b5b602083019150836001820283011115611eba57611eb9611b0d565b5b9250929050565b600080600060408486031215611eda57611ed961194f565b5b6000611ee8868287016119a2565b935050602084013567ffffffffffffffff811115611f0957611f08611954565b5b611f1586828701611e6b565b92509250509250925092565b60008060408385031215611f3857611f3761194f565b5b6000611f46858286016119a2565b9250506020611f5785828601611a3b565b9150509250929050565b600081519050919050565b600082825260208201905092915050565b6000819050602082019050919050565b611f9681611a1a565b82525050565b6000611fa88383611f8d565b60208301905092915050565b6000602082019050919050565b6000611fcc82611f61565b611fd68185611f6c565b9350611fe183611f7d565b8060005b83811015612012578151611ff98882611f9c565b975061200483611fb4565b925050600181019050611fe5565b5085935050505092915050565b600060408201905061203460008301856119f0565b81810360208301526120468184611fc1565b90509392505050565b600081519050919050565b600082825260208201905092915050565b60005b8381101561208957808201518184015260208101905061206e565b60008484015250505050565b60006120a08261204f565b6120aa818561205a565b93506120ba81856020860161206b565b6120c381611a55565b840191505092915050565b600060208201905081810360008301526120e88184612095565b905092915050565b60006040820190506121056000830185611cce565b6121126020830184611cce565b9392505050565b7f72657175657374206e6f7420666f756e64000000000000000000000000000000600082015250565b600061214f60118361205a565b915061215a82612119565b602082019050919050565b6000602082019050818103600083015261217e81612142565b9050919050565b7f7265717565737420616c72656164792066756c66696c6c656400000000000000600082015250565b60006121bb60198361205a565b91506121c682612185565b602082019050919050565b600060208201905081810360008301526121ea816121ae565b9050919050565b7f4d7573742062652070726f706f736564206f776e657200000000000000000000600082015250565b600061222760168361205a565b9150612232826121f1565b602082019050919050565b600060208201905081810360008301526122568161221a565b9050919050565b7f4e487b7100000000000000000000000000000000000000000000000000000000600052601160045260246000fd5b600061229782611a1a565b91506122a283611a1a565b92508282039050818111156122ba576122b961225d565b5b92915050565b7f4e487b7100000000000000000000000000000000000000000000000000000000600052603260045260246000fd5b7f4f6e6c79206f776e65722063616e2072656769737465722067616d6520636f6e60008201527f7472616374000000000000000000000000000000000000000000000000000000602082015250565b600061234b60258361205a565b9150612356826122ef565b604082019050919050565b6000602082019050818103600083015261237a8161233e565b9050919050565b7f47616d6520636f6e7472616374732077696c6c2072656d61696e20666f72207660008201527f6572696669636174696f6e730000000000000000000000000000000000000000602082015250565b60006123dd602c8361205a565b91506123e882612381565b604082019050919050565b6000602082019050818103600083015261240c816123d0565b9050919050565b600082905092915050565b7f4e487b7100000000000000000000000000000000000000000000000000000000600052602260045260246000fd5b6000600282049050600182168061246557607f821691505b6020821081036124785761247761241e565b5b50919050565b60008190508160005260206000209050919050565b60006020601f8301049050919050565b600082821b905092915050565b6000600883026124e07fffffffffffffffffffffffffffffffffffffffffffffffffffffffffffffffff826124a3565b6124ea86836124a3565b95508019841693508086168417925050509392505050565b6000819050919050565b600061252761252261251d84611a1a565b612502565b611a1a565b9050919050565b6000819050919050565b6125418361250c565b61255561254d8261252e565b8484546124b0565b825550505050565b600090565b61256a61255d565b612575818484612538565b505050565b5b818110156125995761258e600082612562565b60018101905061257b565b5050565b601f8211156125de576125af8161247e565b6125b884612493565b810160208510156125c7578190505b6125db6125d385612493565b83018261257a565b50505b505050565b600082821c905092915050565b6000612601600019846008026125e3565b1980831691505092915050565b600061261a83836125f0565b9150826002028217905092915050565b6126348383612413565b67ffffffffffffffff81111561264d5761264c611a66565b5b612657825461244d565b61266282828561259d565b6000601f831160018114612691576000841561267f578287013590505b612689858261260e565b8655506126f1565b601f19841661269f8661247e565b60005b828110156126c7578489013582556001820191506020850194506020810190506126a2565b868310156126e457848901356126e0601f8916826125f0565b8355505b6001600288020188555050505b50505050505050565b7f4f6e6c79204f776e657220616e642047616d652063616e20726571756573742060008201527f72616e646f6d206e756d62657200000000000000000000000000000000000000602082015250565b6000612756602d8361205a565b9150612761826126fa565b604082019050919050565b6000602082019050818103600083015261278581612749565b9050919050565b600061279782611cf8565b91506127a283611cf8565b92508282026127b081611cf8565b91508082146127c2576127c161225d565b5b5092915050565b600060a0820190506127de6000830188611c66565b6127eb6020830187611ca4565b6127f86040830186611e21565b6128056060830185611d61565b6128126080830184611d61565b9695505050505050565b60008151905061282b81611a24565b92915050565b6000602082840312156128475761284661194f565b5b60006128558482850161281c565b91505092915050565b600061286982611a1a565b91507fffffffffffffffffffffffffffffffffffffffffffffffffffffffffffffffff820361289b5761289a61225d565b5b600182019050919050565b60006060820190506128bb6000830186611c32565b6128c86020830185611d61565b6128d56040830184611cce565b949350505050565b60006040820190506128f26000830185611c32565b81810360208301526129048184611fc1565b90509392505050565b7f4f6e6c792063616c6c61626c65206279206f776e657200000000000000000000600082015250565b600061294360168361205a565b915061294e8261290d565b602082019050919050565b6000602082019050818103600083015261297281612936565b9050919050565b7f43616e6e6f74207472616e7366657220746f2073656c66000000000000000000600082015250565b60006129af60178361205a565b91506129ba82612979565b602082019050919050565b600060208201905081810360008301526129de816129a2565b905091905056fea2646970667358221220591cc272129571bf6282d7f628460074addc825d99c0f0bf4bc0cffd11b34c3a64736f6c63430008180033",
  "devdoc": {
    "kind": "dev",
    "methods": {},
    "version": 1
  },
  "userdoc": {
    "kind": "user",
    "methods": {
      "acceptOwnership()": {
        "notice": "Allows an ownership transfer to be completed by the recipient."
      },
      "owner()": {
        "notice": "Get the current owner"
      },
      "transferOwnership(address)": {
        "notice": "Allows an owner to begin transferring ownership to a new address."
      }
    },
    "version": 1
  },
  "storageLayout": {
    "storage": [
      {
        "astId": 312,
        "contract": "contracts/CyclixRandomizer.sol:CyclixRandomizer",
        "label": "vrfCoordinator",
        "offset": 0,
        "slot": "0",
        "type": "t_address"
      },
      {
        "astId": 29,
        "contract": "contracts/CyclixRandomizer.sol:CyclixRandomizer",
        "label": "s_owner",
        "offset": 0,
        "slot": "1",
        "type": "t_address"
      },
      {
        "astId": 31,
        "contract": "contracts/CyclixRandomizer.sol:CyclixRandomizer",
        "label": "s_pendingOwner",
        "offset": 0,
        "slot": "2",
        "type": "t_address"
      },
      {
        "astId": 395,
        "contract": "contracts/CyclixRandomizer.sol:CyclixRandomizer",
        "label": "s_requests",
        "offset": 0,
        "slot": "3",
        "type": "t_mapping(t_uint256,t_struct(RequestStatus)390_storage)"
      },
      {
        "astId": 399,
        "contract": "contracts/CyclixRandomizer.sol:CyclixRandomizer",
        "label": "gameContractAdded",
        "offset": 0,
        "slot": "4",
        "type": "t_mapping(t_address,t_bool)"
      },
      {
        "astId": 403,
        "contract": "contracts/CyclixRandomizer.sol:CyclixRandomizer",
        "label": "gameContractActive",
        "offset": 0,
        "slot": "5",
        "type": "t_mapping(t_address,t_bool)"
      },
      {
        "astId": 407,
        "contract": "contracts/CyclixRandomizer.sol:CyclixRandomizer",
        "label": "gameContractName",
        "offset": 0,
        "slot": "6",
        "type": "t_mapping(t_address,t_string_storage)"
      },
      {
        "astId": 411,
        "contract": "contracts/CyclixRandomizer.sol:CyclixRandomizer",
        "label": "gameContractRequestsCount",
        "offset": 0,
        "slot": "7",
        "type": "t_mapping(t_address,t_uint256)"
      },
      {
        "astId": 416,
        "contract": "contracts/CyclixRandomizer.sol:CyclixRandomizer",
        "label": "gameContractRequests",
        "offset": 0,
        "slot": "8",
        "type": "t_mapping(t_address,t_array(t_uint256)dyn_storage)"
      },
      {
        "astId": 430,
        "contract": "contracts/CyclixRandomizer.sol:CyclixRandomizer",
        "label": "s_subscriptionId",
        "offset": 0,
        "slot": "9",
        "type": "t_uint64"
      },
      {
        "astId": 433,
        "contract": "contracts/CyclixRandomizer.sol:CyclixRandomizer",
        "label": "requestIds",
        "offset": 0,
        "slot": "10",
        "type": "t_array(t_uint256)dyn_storage"
      },
      {
        "astId": 435,
        "contract": "contracts/CyclixRandomizer.sol:CyclixRandomizer",
        "label": "lastRequestId",
        "offset": 0,
        "slot": "11",
        "type": "t_uint256"
      },
      {
        "astId": 437,
        "contract": "contracts/CyclixRandomizer.sol:CyclixRandomizer",
        "label": "keyHash",
        "offset": 0,
        "slot": "12",
        "type": "t_bytes32"
      },
      {
        "astId": 440,
        "contract": "contracts/CyclixRandomizer.sol:CyclixRandomizer",
        "label": "callbackGasLimitForOneWord",
        "offset": 0,
        "slot": "13",
        "type": "t_uint32"
      },
      {
        "astId": 455,
        "contract": "contracts/CyclixRandomizer.sol:CyclixRandomizer",
        "label": "requestConfirmations",
        "offset": 4,
        "slot": "13",
        "type": "t_uint16"
      },
      {
        "astId": 459,
        "contract": "contracts/CyclixRandomizer.sol:CyclixRandomizer",
        "label": "randomWordsRecoverRequest",
        "offset": 0,
        "slot": "14",
        "type": "t_mapping(t_uint256,t_uint256)"
      }
    ],
    "types": {
      "t_address": {
        "encoding": "inplace",
        "label": "address",
        "numberOfBytes": "20"
      },
      "t_array(t_uint256)dyn_storage": {
        "base": "t_uint256",
        "encoding": "dynamic_array",
        "label": "uint256[]",
        "numberOfBytes": "32"
      },
      "t_bool": {
        "encoding": "inplace",
        "label": "bool",
        "numberOfBytes": "1"
      },
      "t_bytes32": {
        "encoding": "inplace",
        "label": "bytes32",
        "numberOfBytes": "32"
      },
      "t_mapping(t_address,t_array(t_uint256)dyn_storage)": {
        "encoding": "mapping",
        "key": "t_address",
        "label": "mapping(address => uint256[])",
        "numberOfBytes": "32",
        "value": "t_array(t_uint256)dyn_storage"
      },
      "t_mapping(t_address,t_bool)": {
        "encoding": "mapping",
        "key": "t_address",
        "label": "mapping(address => bool)",
        "numberOfBytes": "32",
        "value": "t_bool"
      },
      "t_mapping(t_address,t_string_storage)": {
        "encoding": "mapping",
        "key": "t_address",
        "label": "mapping(address => string)",
        "numberOfBytes": "32",
        "value": "t_string_storage"
      },
      "t_mapping(t_address,t_uint256)": {
        "encoding": "mapping",
        "key": "t_address",
        "label": "mapping(address => uint256)",
        "numberOfBytes": "32",
        "value": "t_uint256"
      },
      "t_mapping(t_uint256,t_struct(RequestStatus)390_storage)": {
        "encoding": "mapping",
        "key": "t_uint256",
        "label": "mapping(uint256 => struct CyclixRandomizer.RequestStatus)",
        "numberOfBytes": "32",
        "value": "t_struct(RequestStatus)390_storage"
      },
      "t_mapping(t_uint256,t_uint256)": {
        "encoding": "mapping",
        "key": "t_uint256",
        "label": "mapping(uint256 => uint256)",
        "numberOfBytes": "32",
        "value": "t_uint256"
      },
      "t_string_storage": {
        "encoding": "bytes",
        "label": "string",
        "numberOfBytes": "32"
      },
      "t_struct(RequestStatus)390_storage": {
        "encoding": "inplace",
        "label": "struct CyclixRandomizer.RequestStatus",
        "members": [
          {
            "astId": 382,
            "contract": "contracts/CyclixRandomizer.sol:CyclixRandomizer",
            "label": "wordsCount",
            "offset": 0,
            "slot": "0",
            "type": "t_uint32"
          },
          {
            "astId": 384,
            "contract": "contracts/CyclixRandomizer.sol:CyclixRandomizer",
            "label": "fulfilled",
            "offset": 4,
            "slot": "0",
            "type": "t_bool"
          },
          {
            "astId": 386,
            "contract": "contracts/CyclixRandomizer.sol:CyclixRandomizer",
            "label": "exists",
            "offset": 5,
            "slot": "0",
            "type": "t_bool"
          },
          {
            "astId": 389,
            "contract": "contracts/CyclixRandomizer.sol:CyclixRandomizer",
            "label": "randomWords",
            "offset": 0,
            "slot": "1",
            "type": "t_array(t_uint256)dyn_storage"
          }
        ],
        "numberOfBytes": "64"
      },
      "t_uint16": {
        "encoding": "inplace",
        "label": "uint16",
        "numberOfBytes": "2"
      },
      "t_uint256": {
        "encoding": "inplace",
        "label": "uint256",
        "numberOfBytes": "32"
      },
      "t_uint32": {
        "encoding": "inplace",
        "label": "uint32",
        "numberOfBytes": "4"
      },
      "t_uint64": {
        "encoding": "inplace",
        "label": "uint64",
        "numberOfBytes": "8"
      }
    }
  }
}