{
  "address": "0x603A50cF183cb4c103A95baDfaF011b749e04966",
  "abi": [
    {
      "inputs": [
        {
          "internalType": "uint64",
          "name": "subscriptionId",
          "type": "uint64"
        },
        {
          "internalType": "bytes32",
          "name": "_keyHash",
          "type": "bytes32"
        },
        {
          "internalType": "address",
          "name": "coordinatorAddress",
          "type": "address"
        }
      ],
      "stateMutability": "nonpayable",
      "type": "constructor"
    },
    {
      "inputs": [
        {
          "internalType": "address",
          "name": "have",
          "type": "address"
        },
        {
          "internalType": "address",
          "name": "want",
          "type": "address"
        }
      ],
      "name": "OnlyCoordinatorCanFulfill",
      "type": "error"
    },
    {
      "anonymous": false,
      "inputs": [
        {
          "indexed": true,
          "internalType": "address",
          "name": "from",
          "type": "address"
        },
        {
          "indexed": true,
          "internalType": "address",
          "name": "to",
          "type": "address"
        }
      ],
      "name": "OwnershipTransferRequested",
      "type": "event"
    },
    {
      "anonymous": false,
      "inputs": [
        {
          "indexed": true,
          "internalType": "address",
          "name": "from",
          "type": "address"
        },
        {
          "indexed": true,
          "internalType": "address",
          "name": "to",
          "type": "address"
        }
      ],
      "name": "OwnershipTransferred",
      "type": "event"
    },
    {
      "anonymous": false,
      "inputs": [
        {
          "indexed": false,
          "internalType": "uint256",
          "name": "requestId",
          "type": "uint256"
        },
        {
          "indexed": false,
          "internalType": "uint256[]",
          "name": "randomWords",
          "type": "uint256[]"
        }
      ],
      "name": "RequestFulfilled",
      "type": "event"
    },
    {
      "anonymous": false,
      "inputs": [
        {
          "indexed": false,
          "internalType": "uint256",
          "name": "requestId",
          "type": "uint256"
        },
        {
          "indexed": false,
          "internalType": "uint32",
          "name": "numWords",
          "type": "uint32"
        },
        {
          "indexed": false,
          "internalType": "address",
          "name": "requestor",
          "type": "address"
        }
      ],
      "name": "RequestSent",
      "type": "event"
    },
    {
      "inputs": [],
      "name": "acceptOwnership",
      "outputs": [],
      "stateMutability": "nonpayable",
      "type": "function"
    },
    {
      "inputs": [
        {
          "internalType": "address",
          "name": "",
          "type": "address"
        }
      ],
      "name": "gameContractActive",
      "outputs": [
        {
          "internalType": "bool",
          "name": "",
          "type": "bool"
        }
      ],
      "stateMutability": "view",
      "type": "function"
    },
    {
      "inputs": [
        {
          "internalType": "address",
          "name": "",
          "type": "address"
        }
      ],
      "name": "gameContractAdded",
      "outputs": [
        {
          "internalType": "bool",
          "name": "",
          "type": "bool"
        }
      ],
      "stateMutability": "view",
      "type": "function"
    },
    {
      "inputs": [
        {
          "internalType": "address",
          "name": "",
          "type": "address"
        }
      ],
      "name": "gameContractName",
      "outputs": [
        {
          "internalType": "string",
          "name": "",
          "type": "string"
        }
      ],
      "stateMutability": "view",
      "type": "function"
    },
    {
      "inputs": [
        {
          "internalType": "address",
          "name": "",
          "type": "address"
        },
        {
          "internalType": "uint256",
          "name": "",
          "type": "uint256"
        }
      ],
      "name": "gameContractRequests",
      "outputs": [
        {
          "internalType": "uint256",
          "name": "",
          "type": "uint256"
        }
      ],
      "stateMutability": "view",
      "type": "function"
    },
    {
      "inputs": [
        {
          "internalType": "address",
          "name": "",
          "type": "address"
        }
      ],
      "name": "gameContractRequestsCount",
      "outputs": [
        {
          "internalType": "uint256",
          "name": "",
          "type": "uint256"
        }
      ],
      "stateMutability": "view",
      "type": "function"
    },
    {
      "inputs": [],
      "name": "getLastRequestIdForCaller",
      "outputs": [
        {
          "internalType": "uint256",
          "name": "",
          "type": "uint256"
        }
      ],
      "stateMutability": "view",
      "type": "function"
    },
    {
      "inputs": [
        {
          "internalType": "uint256",
          "name": "_requestId",
          "type": "uint256"
        }
      ],
      "name": "getRequestStatus",
      "outputs": [
        {
          "internalType": "bool",
          "name": "fulfilled",
          "type": "bool"
        },
        {
          "internalType": "uint256[]",
          "name": "randomWords",
          "type": "uint256[]"
        }
      ],
      "stateMutability": "view",
      "type": "function"
    },
    {
      "inputs": [],
      "name": "lastRequestId",
      "outputs": [
        {
          "internalType": "uint256",
          "name": "",
          "type": "uint256"
        }
      ],
      "stateMutability": "view",
      "type": "function"
    },
    {
      "inputs": [],
      "name": "owner",
      "outputs": [
        {
          "internalType": "address",
          "name": "",
          "type": "address"
        }
      ],
      "stateMutability": "view",
      "type": "function"
    },
    {
      "inputs": [
        {
          "internalType": "uint256",
          "name": "requestId",
          "type": "uint256"
        },
        {
          "internalType": "uint256[]",
          "name": "randomWords",
          "type": "uint256[]"
        }
      ],
      "name": "rawFulfillRandomWords",
      "outputs": [],
      "stateMutability": "nonpayable",
      "type": "function"
    },
    {
      "inputs": [
        {
          "internalType": "address",
          "name": "gameAddress",
          "type": "address"
        },
        {
          "internalType": "string",
          "name": "name",
          "type": "string"
        }
      ],
      "name": "registerGameContract",
      "outputs": [],
      "stateMutability": "nonpayable",
      "type": "function"
    },
    {
      "inputs": [
        {
          "internalType": "uint256",
          "name": "",
          "type": "uint256"
        }
      ],
      "name": "requestIds",
      "outputs": [
        {
          "internalType": "uint256",
          "name": "",
          "type": "uint256"
        }
      ],
      "stateMutability": "view",
      "type": "function"
    },
    {
      "inputs": [
        {
          "internalType": "uint32",
          "name": "numWords",
          "type": "uint32"
        }
      ],
      "name": "requestRandomWords",
      "outputs": [
        {
          "internalType": "uint256",
          "name": "requestId",
          "type": "uint256"
        }
      ],
      "stateMutability": "nonpayable",
      "type": "function"
    },
    {
      "inputs": [
        {
          "internalType": "uint256",
          "name": "",
          "type": "uint256"
        }
      ],
      "name": "s_requests",
      "outputs": [
        {
          "internalType": "bool",
          "name": "fulfilled",
          "type": "bool"
        },
        {
          "internalType": "bool",
          "name": "exists",
          "type": "bool"
        }
      ],
      "stateMutability": "view",
      "type": "function"
    },
    {
      "inputs": [
        {
          "internalType": "uint32",
          "name": "newGas",
          "type": "uint32"
        }
      ],
      "name": "setCallbackGasLimitForOneWord",
      "outputs": [],
      "stateMutability": "nonpayable",
      "type": "function"
    },
    {
      "inputs": [
        {
          "internalType": "address",
          "name": "gameAddress",
          "type": "address"
        },
        {
          "internalType": "bool",
          "name": "status",
          "type": "bool"
        }
      ],
      "name": "setGameContractStatus",
      "outputs": [],
      "stateMutability": "nonpayable",
      "type": "function"
    },
    {
      "inputs": [
        {
          "internalType": "address",
          "name": "to",
          "type": "address"
        }
      ],
      "name": "transferOwnership",
      "outputs": [],
      "stateMutability": "nonpayable",
      "type": "function"
    }
  ],
  "transactionHash": "0x6d5494c1f6ae18966b4900ebbc58e58cb6aac2cf6d9e8b1dbcecda77c6072525",
  "args": [
    0,
    "0x354d2f95da55398f44b7cff77da56283d9c6c829a4bdf1bbcaf2ad6a4d081f61",
    "0x0000000000000000000000000000000000000000"
  ],
  "numDeployments": 1,
  "solcInputHash": "8e70f708cb0ea74d642e38aad7ab252e",
  "bytecode": "0x60a06040526184d0600c60006101000a81548163ffffffff021916908363ffffffff1602179055506003600c60046101000a81548161ffff021916908361ffff1602179055503480156200005257600080fd5b50604051620028df380380620028df833981810160405281019062000078919062000441565b33806000838073ffffffffffffffffffffffffffffffffffffffff1660808173ffffffffffffffffffffffffffffffffffffffff168152505050600073ffffffffffffffffffffffffffffffffffffffff168273ffffffffffffffffffffffffffffffffffffffff160362000124576040517f08c379a00000000000000000000000000000000000000000000000000000000081526004016200011b90620004fe565b60405180910390fd5b816000806101000a81548173ffffffffffffffffffffffffffffffffffffffff021916908373ffffffffffffffffffffffffffffffffffffffff160217905550600073ffffffffffffffffffffffffffffffffffffffff168173ffffffffffffffffffffffffffffffffffffffff1614620001ab57620001aa816200022860201b60201c565b5b50505080600860006101000a81548173ffffffffffffffffffffffffffffffffffffffff021916908373ffffffffffffffffffffffffffffffffffffffff16021790555082600860146101000a81548167ffffffffffffffff021916908367ffffffffffffffff16021790555081600b8190555050505062000592565b3373ffffffffffffffffffffffffffffffffffffffff168173ffffffffffffffffffffffffffffffffffffffff160362000299576040517f08c379a0000000000000000000000000000000000000000000000000000000008152600401620002909062000570565b60405180910390fd5b80600160006101000a81548173ffffffffffffffffffffffffffffffffffffffff021916908373ffffffffffffffffffffffffffffffffffffffff1602179055508073ffffffffffffffffffffffffffffffffffffffff1660008054906101000a900473ffffffffffffffffffffffffffffffffffffffff1673ffffffffffffffffffffffffffffffffffffffff167fed8889f560326eb138920d842192f0eb3dd22b4f139c87a2c57538e05bae127860405160405180910390a350565b600080fd5b600067ffffffffffffffff82169050919050565b6200037b816200035c565b81146200038757600080fd5b50565b6000815190506200039b8162000370565b92915050565b6000819050919050565b620003b681620003a1565b8114620003c257600080fd5b50565b600081519050620003d681620003ab565b92915050565b600073ffffffffffffffffffffffffffffffffffffffff82169050919050565b60006200040982620003dc565b9050919050565b6200041b81620003fc565b81146200042757600080fd5b50565b6000815190506200043b8162000410565b92915050565b6000806000606084860312156200045d576200045c62000357565b5b60006200046d868287016200038a565b93505060206200048086828701620003c5565b925050604062000493868287016200042a565b9150509250925092565b600082825260208201905092915050565b7f43616e6e6f7420736574206f776e657220746f207a65726f0000000000000000600082015250565b6000620004e66018836200049d565b9150620004f382620004ae565b602082019050919050565b600060208201905081810360008301526200051981620004d7565b9050919050565b7f43616e6e6f74207472616e7366657220746f2073656c66000000000000000000600082015250565b6000620005586017836200049d565b9150620005658262000520565b602082019050919050565b600060208201905081810360008301526200058b8162000549565b9050919050565b60805161232a620005b5600039600081816103df0152610433015261232a6000f3fe608060405234801561001057600080fd5b50600436106101165760003560e01c8063af9c4daf116100a2578063d8a4676f11610071578063d8a4676f146102f2578063e5f0cc3814610323578063e726f2e114610353578063f2fde38b14610383578063fc2a88c31461039f57610116565b8063af9c4daf1461025a578063b089a0c51461028a578063cd0f2311146102a6578063d7dd3d4b146102c257610116565b80638796ba8c116100e95780638796ba8c146101a15780638da5cb5b146101d15780639d432cb9146101ef578063a168fa891461020b578063a8e0707d1461023c57610116565b806310aa616b1461011b5780631fe543e31461014b578063293ac0e31461016757806379ba509714610197575b600080fd5b610135600480360381019061013091906113ac565b6103bd565b60405161014291906113f4565b60405180910390f35b6101656004803603810190610160919061159e565b6103dd565b005b610181600480360381019061017c91906113ac565b61049d565b60405161018e91906113f4565b60405180910390f35b61019f6104bd565b005b6101bb60048036038101906101b691906115fa565b610652565b6040516101c89190611636565b60405180910390f35b6101d9610676565b6040516101e69190611660565b60405180910390f35b610209600480360381019061020491906116b7565b61069f565b005b610225600480360381019061022091906115fa565b6106cb565b6040516102339291906116e4565b60405180910390f35b610244610709565b6040516102519190611636565b60405180910390f35b610274600480360381019061026f91906113ac565b6107b7565b6040516102819190611636565b60405180910390f35b6102a4600480360381019061029f9190611739565b6107cf565b005b6102c060048036038101906102bb91906117d4565b610832565b005b6102dc60048036038101906102d79190611834565b610a3e565b6040516102e99190611636565b60405180910390f35b61030c600480360381019061030791906115fa565b610a6f565b60405161031a929190611932565b60405180910390f35b61033d600480360381019061033891906113ac565b610b9a565b60405161034a91906119e1565b60405180910390f35b61036d600480360381019061036891906116b7565b610c3a565b60405161037a9190611636565b60405180910390f35b61039d600480360381019061039891906113ac565b611000565b005b6103a7611014565b6040516103b49190611636565b60405180910390f35b60046020528060005260406000206000915054906101000a900460ff1681565b7f000000000000000000000000000000000000000000000000000000000000000073ffffffffffffffffffffffffffffffffffffffff163373ffffffffffffffffffffffffffffffffffffffff161461048f57337f00000000000000000000000000000000000000000000000000000000000000006040517f1cf993f4000000000000000000000000000000000000000000000000000000008152600401610486929190611a03565b60405180910390fd5b610499828261101a565b5050565b60036020528060005260406000206000915054906101000a900460ff1681565b600160009054906101000a900473ffffffffffffffffffffffffffffffffffffffff1673ffffffffffffffffffffffffffffffffffffffff163373ffffffffffffffffffffffffffffffffffffffff161461054d576040517f08c379a000000000000000000000000000000000000000000000000000000000815260040161054490611a78565b60405180910390fd5b60008060009054906101000a900473ffffffffffffffffffffffffffffffffffffffff169050336000806101000a81548173ffffffffffffffffffffffffffffffffffffffff021916908373ffffffffffffffffffffffffffffffffffffffff1602179055506000600160006101000a81548173ffffffffffffffffffffffffffffffffffffffff021916908373ffffffffffffffffffffffffffffffffffffffff1602179055503373ffffffffffffffffffffffffffffffffffffffff168173ffffffffffffffffffffffffffffffffffffffff167f8be0079c531659141344cd1fd0a4f28419497f9722a3daafe3b4186f6b6457e060405160405180910390a350565b6009818154811061066257600080fd5b906000526020600020016000915090505481565b60008060009054906101000a900473ffffffffffffffffffffffffffffffffffffffff16905090565b6106a7611114565b80600c60006101000a81548163ffffffff021916908363ffffffff16021790555050565b60026020528060005260406000206000915090508060000160009054906101000a900460ff16908060000160019054906101000a900460ff16905082565b6000600760003373ffffffffffffffffffffffffffffffffffffffff1673ffffffffffffffffffffffffffffffffffffffff1681526020019081526020016000206001600660003373ffffffffffffffffffffffffffffffffffffffff1673ffffffffffffffffffffffffffffffffffffffff168152602001908152602001600020546107969190611ac7565b815481106107a7576107a6611afb565b5b9060005260206000200154905090565b60066020528060005260406000206000915090505481565b6107d7611114565b80600460008473ffffffffffffffffffffffffffffffffffffffff1673ffffffffffffffffffffffffffffffffffffffff16815260200190815260200160002060006101000a81548160ff0219169083151502179055505050565b61083a610676565b73ffffffffffffffffffffffffffffffffffffffff163273ffffffffffffffffffffffffffffffffffffffff16146108a7576040517f08c379a000000000000000000000000000000000000000000000000000000000815260040161089e90611b9c565b60405180910390fd5b60001515600360008573ffffffffffffffffffffffffffffffffffffffff1673ffffffffffffffffffffffffffffffffffffffff16815260200190815260200160002060009054906101000a900460ff1615151461093a576040517f08c379a000000000000000000000000000000000000000000000000000000000815260040161093190611c2e565b60405180910390fd5b6001600360008573ffffffffffffffffffffffffffffffffffffffff1673ffffffffffffffffffffffffffffffffffffffff16815260200190815260200160002060006101000a81548160ff0219169083151502179055506001600460008573ffffffffffffffffffffffffffffffffffffffff1673ffffffffffffffffffffffffffffffffffffffff16815260200190815260200160002060006101000a81548160ff0219169083151502179055508181600560008673ffffffffffffffffffffffffffffffffffffffff1673ffffffffffffffffffffffffffffffffffffffff1681526020019081526020016000209182610a38929190611e65565b50505050565b60076020528160005260406000208181548110610a5a57600080fd5b90600052602060002001600091509150505481565b600060606002600084815260200190815260200160002060000160019054906101000a900460ff16610ad6576040517f08c379a0000000000000000000000000000000000000000000000000000000008152600401610acd90611f81565b60405180910390fd5b6000600260008581526020019081526020016000206040518060600160405290816000820160009054906101000a900460ff161515151581526020016000820160019054906101000a900460ff1615151515815260200160018201805480602002602001604051908101604052809291908181526020018280548015610b7b57602002820191906000526020600020905b815481526020019060010190808311610b67575b5050505050815250509050806000015181604001519250925050915091565b60056020528060005260406000206000915090508054610bb990611c88565b80601f0160208091040260200160405190810160405280929190818152602001828054610be590611c88565b8015610c325780601f10610c0757610100808354040283529160200191610c32565b820191906000526020600020905b815481529060010190602001808311610c1557829003601f168201915b505050505081565b6000610c44610676565b73ffffffffffffffffffffffffffffffffffffffff163373ffffffffffffffffffffffffffffffffffffffff161480610cc65750600360003373ffffffffffffffffffffffffffffffffffffffff1673ffffffffffffffffffffffffffffffffffffffff16815260200190815260200160002060009054906101000a900460ff165b610d05576040517f08c379a0000000000000000000000000000000000000000000000000000000008152600401610cfc90612013565b60405180910390fd5b6000600c60009054906101000a900463ffffffff169050600860009054906101000a900473ffffffffffffffffffffffffffffffffffffffff1673ffffffffffffffffffffffffffffffffffffffff16635d3b1d30600b54600860149054906101000a900467ffffffffffffffff16600c60049054906101000a900461ffff168786610d919190612033565b886040518663ffffffff1660e01b8152600401610db29594939291906120d8565b6020604051808303816000875af1158015610dd1573d6000803e3d6000fd5b505050506040513d601f19601f82011682018060405250810190610df59190612140565b91506040518060600160405280600015158152602001600115158152602001600067ffffffffffffffff811115610e2f57610e2e61145b565b5b604051908082528060200260200182016040528015610e5d5781602001602082028036833780820191505090505b508152506002600084815260200190815260200160002060008201518160000160006101000a81548160ff02191690831515021790555060208201518160000160016101000a81548160ff0219169083151502179055506040820151816001019080519060200190610ed09291906112d0565b50905050600982908060018154018082558091505060019003906000526020600020016000909190919091505581600a81905550600760003373ffffffffffffffffffffffffffffffffffffffff1673ffffffffffffffffffffffffffffffffffffffff168152602001908152602001600020829080600181540180825580915050600190039060005260206000200160009091909190915055600660003373ffffffffffffffffffffffffffffffffffffffff1673ffffffffffffffffffffffffffffffffffffffff1681526020019081526020016000206000815480929190610fba9061216d565b91905055507ff63bc84386bc129703919a2388162a4ad560a11f28b1280169517f1fa7ace425828433604051610ff2939291906121b5565b60405180910390a150919050565b611008611114565b611011816111a4565b50565b600a5481565b6002600083815260200190815260200160002060000160019054906101000a900460ff1661107d576040517f08c379a000000000000000000000000000000000000000000000000000000000815260040161107490611f81565b60405180910390fd5b60016002600084815260200190815260200160002060000160006101000a81548160ff021916908315150217905550806002600084815260200190815260200160002060010190805190602001906110d69291906112d0565b507ffe2e2d779dba245964d4e3ef9b994be63856fd568bf7d3ca9e224755cb1bd54d82826040516111089291906121ec565b60405180910390a15050565b60008054906101000a900473ffffffffffffffffffffffffffffffffffffffff1673ffffffffffffffffffffffffffffffffffffffff163373ffffffffffffffffffffffffffffffffffffffff16146111a2576040517f08c379a000000000000000000000000000000000000000000000000000000000815260040161119990612268565b60405180910390fd5b565b3373ffffffffffffffffffffffffffffffffffffffff168173ffffffffffffffffffffffffffffffffffffffff1603611212576040517f08c379a0000000000000000000000000000000000000000000000000000000008152600401611209906122d4565b60405180910390fd5b80600160006101000a81548173ffffffffffffffffffffffffffffffffffffffff021916908373ffffffffffffffffffffffffffffffffffffffff1602179055508073ffffffffffffffffffffffffffffffffffffffff1660008054906101000a900473ffffffffffffffffffffffffffffffffffffffff1673ffffffffffffffffffffffffffffffffffffffff167fed8889f560326eb138920d842192f0eb3dd22b4f139c87a2c57538e05bae127860405160405180910390a350565b82805482825590600052602060002090810192821561130c579160200282015b8281111561130b5782518255916020019190600101906112f0565b5b509050611319919061131d565b5090565b5b8082111561133657600081600090555060010161131e565b5090565b6000604051905090565b600080fd5b600080fd5b600073ffffffffffffffffffffffffffffffffffffffff82169050919050565b60006113798261134e565b9050919050565b6113898161136e565b811461139457600080fd5b50565b6000813590506113a681611380565b92915050565b6000602082840312156113c2576113c1611344565b5b60006113d084828501611397565b91505092915050565b60008115159050919050565b6113ee816113d9565b82525050565b600060208201905061140960008301846113e5565b92915050565b6000819050919050565b6114228161140f565b811461142d57600080fd5b50565b60008135905061143f81611419565b92915050565b600080fd5b6000601f19601f8301169050919050565b7f4e487b7100000000000000000000000000000000000000000000000000000000600052604160045260246000fd5b6114938261144a565b810181811067ffffffffffffffff821117156114b2576114b161145b565b5b80604052505050565b60006114c561133a565b90506114d1828261148a565b919050565b600067ffffffffffffffff8211156114f1576114f061145b565b5b602082029050602081019050919050565b600080fd5b600061151a611515846114d6565b6114bb565b9050808382526020820190506020840283018581111561153d5761153c611502565b5b835b8181101561156657806115528882611430565b84526020840193505060208101905061153f565b5050509392505050565b600082601f83011261158557611584611445565b5b8135611595848260208601611507565b91505092915050565b600080604083850312156115b5576115b4611344565b5b60006115c385828601611430565b925050602083013567ffffffffffffffff8111156115e4576115e3611349565b5b6115f085828601611570565b9150509250929050565b6000602082840312156116105761160f611344565b5b600061161e84828501611430565b91505092915050565b6116308161140f565b82525050565b600060208201905061164b6000830184611627565b92915050565b61165a8161136e565b82525050565b60006020820190506116756000830184611651565b92915050565b600063ffffffff82169050919050565b6116948161167b565b811461169f57600080fd5b50565b6000813590506116b18161168b565b92915050565b6000602082840312156116cd576116cc611344565b5b60006116db848285016116a2565b91505092915050565b60006040820190506116f960008301856113e5565b61170660208301846113e5565b9392505050565b611716816113d9565b811461172157600080fd5b50565b6000813590506117338161170d565b92915050565b600080604083850312156117505761174f611344565b5b600061175e85828601611397565b925050602061176f85828601611724565b9150509250929050565b600080fd5b60008083601f84011261179457611793611445565b5b8235905067ffffffffffffffff8111156117b1576117b0611779565b5b6020830191508360018202830111156117cd576117cc611502565b5b9250929050565b6000806000604084860312156117ed576117ec611344565b5b60006117fb86828701611397565b935050602084013567ffffffffffffffff81111561181c5761181b611349565b5b6118288682870161177e565b92509250509250925092565b6000806040838503121561184b5761184a611344565b5b600061185985828601611397565b925050602061186a85828601611430565b9150509250929050565b600081519050919050565b600082825260208201905092915050565b6000819050602082019050919050565b6118a98161140f565b82525050565b60006118bb83836118a0565b60208301905092915050565b6000602082019050919050565b60006118df82611874565b6118e9818561187f565b93506118f483611890565b8060005b8381101561192557815161190c88826118af565b9750611917836118c7565b9250506001810190506118f8565b5085935050505092915050565b600060408201905061194760008301856113e5565b818103602083015261195981846118d4565b90509392505050565b600081519050919050565b600082825260208201905092915050565b60005b8381101561199c578082015181840152602081019050611981565b60008484015250505050565b60006119b382611962565b6119bd818561196d565b93506119cd81856020860161197e565b6119d68161144a565b840191505092915050565b600060208201905081810360008301526119fb81846119a8565b905092915050565b6000604082019050611a186000830185611651565b611a256020830184611651565b9392505050565b7f4d7573742062652070726f706f736564206f776e657200000000000000000000600082015250565b6000611a6260168361196d565b9150611a6d82611a2c565b602082019050919050565b60006020820190508181036000830152611a9181611a55565b9050919050565b7f4e487b7100000000000000000000000000000000000000000000000000000000600052601160045260246000fd5b6000611ad28261140f565b9150611add8361140f565b9250828203905081811115611af557611af4611a98565b5b92915050565b7f4e487b7100000000000000000000000000000000000000000000000000000000600052603260045260246000fd5b7f4f6e6c79206f776e65722063616e2072656769737465722067616d6520636f6e60008201527f7472616374000000000000000000000000000000000000000000000000000000602082015250565b6000611b8660258361196d565b9150611b9182611b2a565b604082019050919050565b60006020820190508181036000830152611bb581611b79565b9050919050565b7f47616d6520636f6e7472616374732077696c6c2072656d61696e20666f72207660008201527f6572696669636174696f6e730000000000000000000000000000000000000000602082015250565b6000611c18602c8361196d565b9150611c2382611bbc565b604082019050919050565b60006020820190508181036000830152611c4781611c0b565b9050919050565b600082905092915050565b7f4e487b7100000000000000000000000000000000000000000000000000000000600052602260045260246000fd5b60006002820490506001821680611ca057607f821691505b602082108103611cb357611cb2611c59565b5b50919050565b60008190508160005260206000209050919050565b60006020601f8301049050919050565b600082821b905092915050565b600060088302611d1b7fffffffffffffffffffffffffffffffffffffffffffffffffffffffffffffffff82611cde565b611d258683611cde565b95508019841693508086168417925050509392505050565b6000819050919050565b6000611d62611d5d611d588461140f565b611d3d565b61140f565b9050919050565b6000819050919050565b611d7c83611d47565b611d90611d8882611d69565b848454611ceb565b825550505050565b600090565b611da5611d98565b611db0818484611d73565b505050565b5b81811015611dd457611dc9600082611d9d565b600181019050611db6565b5050565b601f821115611e1957611dea81611cb9565b611df384611cce565b81016020851015611e02578190505b611e16611e0e85611cce565b830182611db5565b50505b505050565b600082821c905092915050565b6000611e3c60001984600802611e1e565b1980831691505092915050565b6000611e558383611e2b565b9150826002028217905092915050565b611e6f8383611c4e565b67ffffffffffffffff811115611e8857611e8761145b565b5b611e928254611c88565b611e9d828285611dd8565b6000601f831160018114611ecc5760008415611eba578287013590505b611ec48582611e49565b865550611f2c565b601f198416611eda86611cb9565b60005b82811015611f0257848901358255600182019150602085019450602081019050611edd565b86831015611f1f5784890135611f1b601f891682611e2b565b8355505b6001600288020188555050505b50505050505050565b7f72657175657374206e6f7420666f756e64000000000000000000000000000000600082015250565b6000611f6b60118361196d565b9150611f7682611f35565b602082019050919050565b60006020820190508181036000830152611f9a81611f5e565b9050919050565b7f4f6e6c79204f776e657220616e642047616d652063616e20726571756573742060008201527f72616e646f6d206e756d62657200000000000000000000000000000000000000602082015250565b6000611ffd602d8361196d565b915061200882611fa1565b604082019050919050565b6000602082019050818103600083015261202c81611ff0565b9050919050565b600061203e8261167b565b91506120498361167b565b92508282026120578161167b565b915080821461206957612068611a98565b5b5092915050565b6000819050919050565b61208381612070565b82525050565b600067ffffffffffffffff82169050919050565b6120a681612089565b82525050565b600061ffff82169050919050565b6120c3816120ac565b82525050565b6120d28161167b565b82525050565b600060a0820190506120ed600083018861207a565b6120fa602083018761209d565b61210760408301866120ba565b61211460608301856120c9565b61212160808301846120c9565b9695505050505050565b60008151905061213a81611419565b92915050565b60006020828403121561215657612155611344565b5b60006121648482850161212b565b91505092915050565b60006121788261140f565b91507fffffffffffffffffffffffffffffffffffffffffffffffffffffffffffffffff82036121aa576121a9611a98565b5b600182019050919050565b60006060820190506121ca6000830186611627565b6121d760208301856120c9565b6121e46040830184611651565b949350505050565b60006040820190506122016000830185611627565b818103602083015261221381846118d4565b90509392505050565b7f4f6e6c792063616c6c61626c65206279206f776e657200000000000000000000600082015250565b600061225260168361196d565b915061225d8261221c565b602082019050919050565b6000602082019050818103600083015261228181612245565b9050919050565b7f43616e6e6f74207472616e7366657220746f2073656c66000000000000000000600082015250565b60006122be60178361196d565b91506122c982612288565b602082019050919050565b600060208201905081810360008301526122ed816122b1565b905091905056fea264697066735822122015b8130623f7da8ded5b17e114d046bb1bb4706d774311adc8543da804f357e464736f6c63430008180033",
  "devdoc": {
    "kind": "dev",
    "methods": {},
    "version": 1
  },
  "userdoc": {
    "kind": "user",
    "methods": {
      "acceptOwnership()": {
        "notice": "Allows an ownership transfer to be completed by the recipient."
      },
      "owner()": {
        "notice": "Get the current owner"
      },
      "transferOwnership(address)": {
        "notice": "Allows an owner to begin transferring ownership to a new address."
      }
    },
    "version": 1
  },
  "storageLayout": {
    "storage": [
      {
        "astId": 29,
        "contract": "contracts/CyclixRandomizer.sol:CyclixRandomizer",
        "label": "s_owner",
        "offset": 0,
        "slot": "0",
        "type": "t_address"
      },
      {
        "astId": 31,
        "contract": "contracts/CyclixRandomizer.sol:CyclixRandomizer",
        "label": "s_pendingOwner",
        "offset": 0,
        "slot": "1",
        "type": "t_address"
      },
      {
        "astId": 1910,
        "contract": "contracts/CyclixRandomizer.sol:CyclixRandomizer",
        "label": "s_requests",
        "offset": 0,
        "slot": "2",
        "type": "t_mapping(t_uint256,t_struct(RequestStatus)1905_storage)"
      },
      {
        "astId": 1914,
        "contract": "contracts/CyclixRandomizer.sol:CyclixRandomizer",
        "label": "gameContractAdded",
        "offset": 0,
        "slot": "3",
        "type": "t_mapping(t_address,t_bool)"
      },
      {
        "astId": 1918,
        "contract": "contracts/CyclixRandomizer.sol:CyclixRandomizer",
        "label": "gameContractActive",
        "offset": 0,
        "slot": "4",
        "type": "t_mapping(t_address,t_bool)"
      },
      {
        "astId": 1922,
        "contract": "contracts/CyclixRandomizer.sol:CyclixRandomizer",
        "label": "gameContractName",
        "offset": 0,
        "slot": "5",
        "type": "t_mapping(t_address,t_string_storage)"
      },
      {
        "astId": 1926,
        "contract": "contracts/CyclixRandomizer.sol:CyclixRandomizer",
        "label": "gameContractRequestsCount",
        "offset": 0,
        "slot": "6",
        "type": "t_mapping(t_address,t_uint256)"
      },
      {
        "astId": 1931,
        "contract": "contracts/CyclixRandomizer.sol:CyclixRandomizer",
        "label": "gameContractRequests",
        "offset": 0,
        "slot": "7",
        "type": "t_mapping(t_address,t_array(t_uint256)dyn_storage)"
      },
      {
        "astId": 1934,
        "contract": "contracts/CyclixRandomizer.sol:CyclixRandomizer",
        "label": "COORDINATOR",
        "offset": 0,
        "slot": "8",
        "type": "t_contract(VRFCoordinatorV2Interface)353"
      },
      {
        "astId": 1936,
        "contract": "contracts/CyclixRandomizer.sol:CyclixRandomizer",
        "label": "s_subscriptionId",
        "offset": 20,
        "slot": "8",
        "type": "t_uint64"
      },
      {
        "astId": 1939,
        "contract": "contracts/CyclixRandomizer.sol:CyclixRandomizer",
        "label": "requestIds",
        "offset": 0,
        "slot": "9",
        "type": "t_array(t_uint256)dyn_storage"
      },
      {
        "astId": 1941,
        "contract": "contracts/CyclixRandomizer.sol:CyclixRandomizer",
        "label": "lastRequestId",
        "offset": 0,
        "slot": "10",
        "type": "t_uint256"
      },
      {
        "astId": 1943,
        "contract": "contracts/CyclixRandomizer.sol:CyclixRandomizer",
        "label": "keyHash",
        "offset": 0,
        "slot": "11",
        "type": "t_bytes32"
      },
      {
        "astId": 1946,
        "contract": "contracts/CyclixRandomizer.sol:CyclixRandomizer",
        "label": "callbackGasLimitForOneWord",
        "offset": 0,
        "slot": "12",
        "type": "t_uint32"
      },
      {
        "astId": 1961,
        "contract": "contracts/CyclixRandomizer.sol:CyclixRandomizer",
        "label": "requestConfirmations",
        "offset": 4,
        "slot": "12",
        "type": "t_uint16"
      }
    ],
    "types": {
      "t_address": {
        "encoding": "inplace",
        "label": "address",
        "numberOfBytes": "20"
      },
      "t_array(t_uint256)dyn_storage": {
        "base": "t_uint256",
        "encoding": "dynamic_array",
        "label": "uint256[]",
        "numberOfBytes": "32"
      },
      "t_bool": {
        "encoding": "inplace",
        "label": "bool",
        "numberOfBytes": "1"
      },
      "t_bytes32": {
        "encoding": "inplace",
        "label": "bytes32",
        "numberOfBytes": "32"
      },
      "t_contract(VRFCoordinatorV2Interface)353": {
        "encoding": "inplace",
        "label": "contract VRFCoordinatorV2Interface",
        "numberOfBytes": "20"
      },
      "t_mapping(t_address,t_array(t_uint256)dyn_storage)": {
        "encoding": "mapping",
        "key": "t_address",
        "label": "mapping(address => uint256[])",
        "numberOfBytes": "32",
        "value": "t_array(t_uint256)dyn_storage"
      },
      "t_mapping(t_address,t_bool)": {
        "encoding": "mapping",
        "key": "t_address",
        "label": "mapping(address => bool)",
        "numberOfBytes": "32",
        "value": "t_bool"
      },
      "t_mapping(t_address,t_string_storage)": {
        "encoding": "mapping",
        "key": "t_address",
        "label": "mapping(address => string)",
        "numberOfBytes": "32",
        "value": "t_string_storage"
      },
      "t_mapping(t_address,t_uint256)": {
        "encoding": "mapping",
        "key": "t_address",
        "label": "mapping(address => uint256)",
        "numberOfBytes": "32",
        "value": "t_uint256"
      },
      "t_mapping(t_uint256,t_struct(RequestStatus)1905_storage)": {
        "encoding": "mapping",
        "key": "t_uint256",
        "label": "mapping(uint256 => struct CyclixRandomizer.RequestStatus)",
        "numberOfBytes": "32",
        "value": "t_struct(RequestStatus)1905_storage"
      },
      "t_string_storage": {
        "encoding": "bytes",
        "label": "string",
        "numberOfBytes": "32"
      },
      "t_struct(RequestStatus)1905_storage": {
        "encoding": "inplace",
        "label": "struct CyclixRandomizer.RequestStatus",
        "members": [
          {
            "astId": 1899,
            "contract": "contracts/CyclixRandomizer.sol:CyclixRandomizer",
            "label": "fulfilled",
            "offset": 0,
            "slot": "0",
            "type": "t_bool"
          },
          {
            "astId": 1901,
            "contract": "contracts/CyclixRandomizer.sol:CyclixRandomizer",
            "label": "exists",
            "offset": 1,
            "slot": "0",
            "type": "t_bool"
          },
          {
            "astId": 1904,
            "contract": "contracts/CyclixRandomizer.sol:CyclixRandomizer",
            "label": "randomWords",
            "offset": 0,
            "slot": "1",
            "type": "t_array(t_uint256)dyn_storage"
          }
        ],
        "numberOfBytes": "64"
      },
      "t_uint16": {
        "encoding": "inplace",
        "label": "uint16",
        "numberOfBytes": "2"
      },
      "t_uint256": {
        "encoding": "inplace",
        "label": "uint256",
        "numberOfBytes": "32"
      },
      "t_uint32": {
        "encoding": "inplace",
        "label": "uint32",
        "numberOfBytes": "4"
      },
      "t_uint64": {
        "encoding": "inplace",
        "label": "uint64",
        "numberOfBytes": "8"
      }
    }
  }
}