{
  "address": "0x791EF03cf297ef279D8378239E8F5e7524991314",
  "abi": [
    {
      "inputs": [],
      "stateMutability": "nonpayable",
      "type": "constructor"
    },
    {
      "inputs": [
        {
          "internalType": "address",
          "name": "owner",
          "type": "address"
        }
      ],
      "name": "OwnableInvalidOwner",
      "type": "error"
    },
    {
      "inputs": [
        {
          "internalType": "address",
          "name": "account",
          "type": "address"
        }
      ],
      "name": "OwnableUnauthorizedAccount",
      "type": "error"
    },
    {
      "anonymous": false,
      "inputs": [
        {
          "indexed": true,
          "internalType": "address",
          "name": "previousOwner",
          "type": "address"
        },
        {
          "indexed": true,
          "internalType": "address",
          "name": "newOwner",
          "type": "address"
        }
      ],
      "name": "OwnershipTransferred",
      "type": "event"
    },
    {
      "inputs": [],
      "name": "owner",
      "outputs": [
        {
          "internalType": "address",
          "name": "",
          "type": "address"
        }
      ],
      "stateMutability": "view",
      "type": "function"
    },
    {
      "inputs": [],
      "name": "renounceOwnership",
      "outputs": [],
      "stateMutability": "nonpayable",
      "type": "function"
    },
    {
      "inputs": [
        {
          "internalType": "uint256",
          "name": "roundDurationInSeconds",
          "type": "uint256"
        },
        {
          "internalType": "address",
          "name": "previousRoundAddress",
          "type": "address"
        },
        {
          "internalType": "uint256",
          "name": "forcedUiIdForUpgrade",
          "type": "uint256"
        }
      ],
      "name": "startNewRound",
      "outputs": [
        {
          "internalType": "address",
          "name": "",
          "type": "address"
        }
      ],
      "stateMutability": "nonpayable",
      "type": "function"
    },
    {
      "inputs": [
        {
          "internalType": "address",
          "name": "newOwner",
          "type": "address"
        }
      ],
      "name": "transferOwnership",
      "outputs": [],
      "stateMutability": "nonpayable",
      "type": "function"
    }
  ],
  "transactionHash": "0x8f9fea1a3002422c2c3c4b6537e431315ad25c587b45ebdef8b5ccdb0363b8e6",
  "args": [],
  "numDeployments": 1,
  "solcInputHash": "5b35025b687dca25916e9d6147c9e48f",
  "bytecode": "0x608060405234801561001057600080fd5b5033600073ffffffffffffffffffffffffffffffffffffffff168173ffffffffffffffffffffffffffffffffffffffff16036100845760006040517f1e4fbdf700000000000000000000000000000000000000000000000000000000815260040161007b919061019e565b60405180910390fd5b6100938161009960201b60201c565b506101b9565b60008060009054906101000a900473ffffffffffffffffffffffffffffffffffffffff169050816000806101000a81548173ffffffffffffffffffffffffffffffffffffffff021916908373ffffffffffffffffffffffffffffffffffffffff1602179055508173ffffffffffffffffffffffffffffffffffffffff168173ffffffffffffffffffffffffffffffffffffffff167f8be0079c531659141344cd1fd0a4f28419497f9722a3daafe3b4186f6b6457e060405160405180910390a35050565b600073ffffffffffffffffffffffffffffffffffffffff82169050919050565b60006101888261015d565b9050919050565b6101988161017d565b82525050565b60006020820190506101b3600083018461018f565b92915050565b6156c7806101c86000396000f3fe60806040523480156200001157600080fd5b5060043610620000525760003560e01c8063715018a614620000575780638da5cb5b1462000063578063f199f5301462000085578063f2fde38b14620000bb575b600080fd5b62000061620000db565b005b6200006d620000f3565b6040516200007c919062000536565b60405180910390f35b620000a360048036038101906200009d9190620005c4565b6200011c565b604051620000b2919062000536565b60405180910390f35b620000d96004803603810190620000d3919062000620565b620002fa565b005b620000e562000387565b620000f1600062000417565b565b60008060009054906101000a900473ffffffffffffffffffffffffffffffffffffffff16905090565b60006200012862000387565b600073ffffffffffffffffffffffffffffffffffffffff168373ffffffffffffffffffffffffffffffffffffffff1603620002355760007307a67aae7b84734ac48658cb2d33251f7274820c8560036040516200018590620004e3565b6200019393929190620006b0565b604051809103906000f080158015620001b0573d6000803e3d6000fd5b5090508073ffffffffffffffffffffffffffffffffffffffff1663f2fde38b620001d9620000f3565b6040518263ffffffff1660e01b8152600401620001f7919062000536565b600060405180830381600087803b1580156200021257600080fd5b505af115801562000227573d6000803e3d6000fd5b5050505080915050620002f3565b60008385846040516200024890620004e3565b6200025693929190620006ed565b604051809103906000f08015801562000273573d6000803e3d6000fd5b5090508073ffffffffffffffffffffffffffffffffffffffff1663f2fde38b6200029c620000f3565b6040518263ffffffff1660e01b8152600401620002ba919062000536565b600060405180830381600087803b158015620002d557600080fd5b505af1158015620002ea573d6000803e3d6000fd5b50505050809150505b9392505050565b6200030462000387565b600073ffffffffffffffffffffffffffffffffffffffff168173ffffffffffffffffffffffffffffffffffffffff1603620003795760006040517f1e4fbdf700000000000000000000000000000000000000000000000000000000815260040162000370919062000536565b60405180910390fd5b620003848162000417565b50565b62000391620004db565b73ffffffffffffffffffffffffffffffffffffffff16620003b1620000f3565b73ffffffffffffffffffffffffffffffffffffffff16146200041557620003d7620004db565b6040517f118cdaa70000000000000000000000000000000000000000000000000000000081526004016200040c919062000536565b60405180910390fd5b565b60008060009054906101000a900473ffffffffffffffffffffffffffffffffffffffff169050816000806101000a81548173ffffffffffffffffffffffffffffffffffffffff021916908373ffffffffffffffffffffffffffffffffffffffff1602179055508173ffffffffffffffffffffffffffffffffffffffff168173ffffffffffffffffffffffffffffffffffffffff167f8be0079c531659141344cd1fd0a4f28419497f9722a3daafe3b4186f6b6457e060405160405180910390a35050565b600033905090565b614f67806200072b83390190565b600073ffffffffffffffffffffffffffffffffffffffff82169050919050565b60006200051e82620004f1565b9050919050565b620005308162000511565b82525050565b60006020820190506200054d600083018462000525565b92915050565b600080fd5b6000819050919050565b6200056d8162000558565b81146200057957600080fd5b50565b6000813590506200058d8162000562565b92915050565b6200059e8162000511565b8114620005aa57600080fd5b50565b600081359050620005be8162000593565b92915050565b600080600060608486031215620005e057620005df62000553565b5b6000620005f0868287016200057c565b93505060206200060386828701620005ad565b925050604062000616868287016200057c565b9150509250925092565b60006020828403121562000639576200063862000553565b5b60006200064984828501620005ad565b91505092915050565b6200065d8162000558565b82525050565b6000819050919050565b6000819050919050565b600062000698620006926200068c8462000663565b6200066d565b62000558565b9050919050565b620006aa8162000677565b82525050565b6000606082019050620006c7600083018662000525565b620006d6602083018562000652565b620006e560408301846200069f565b949350505050565b600060608201905062000704600083018662000525565b62000713602083018562000652565b62000722604083018462000652565b94935050505056fe6080604052604051806101200160405280610bb861ffff1681526020016105dc61ffff1681526020016103e861ffff1681526020016102bc61ffff1681526020016101f461ffff16815260200161012c61ffff1681526020016105dc61ffff1681526020016103e861ffff1681526020016101f461ffff16815250601a9060096200008c92919062000abf565b503480156200009a57600080fd5b5060405162004f6738038062004f678339818101604052810190620000c0919062000d46565b33600073ffffffffffffffffffffffffffffffffffffffff168173ffffffffffffffffffffffffffffffffffffffff1603620001365760006040517f1e4fbdf70000000000000000000000000000000000000000000000000000000081526004016200012d919062000db3565b60405180910390fd5b6200014781620005ef60201b60201c565b5060006001905060006001905084601960006101000a81548173ffffffffffffffffffffffffffffffffffffffff021916908373ffffffffffffffffffffffffffffffffffffffff160217905550600073ffffffffffffffffffffffffffffffffffffffff168573ffffffffffffffffffffffffffffffffffffffff1614620002f757600085905060018173ffffffffffffffffffffffffffffffffffffffff16639f8743f76040518163ffffffff1660e01b8152600401600060405180830381865afa1580156200021d573d6000803e3d6000fd5b505050506040513d6000823e3d601f19601f820116820180604052508101906200024891906200125c565b60000151620002589190620012dc565b925060018173ffffffffffffffffffffffffffffffffffffffff16639f8743f76040518163ffffffff1660e01b8152600401600060405180830381865afa158015620002a8573d6000803e3d6000fd5b505050506040513d6000823e3d601f19601f82011682018060405250810190620002d391906200125c565b60200151620002e39190620012dc565b9150620002f5620006b360201b60201c565b505b60008311156200030957600191508290505b6040518061018001604052808381526020018281526020014281526020018542620003359190620012dc565b8152602001600015158152602001600067ffffffffffffffff81111562000361576200036062000de6565b5b604051908082528060200260200182016040528015620003905781602001602082028036833780820191505090505b508152602001600067ffffffffffffffff811115620003b457620003b362000de6565b5b604051908082528060200260200182016040528015620003e35781602001602082028036833780820191505090505b508152602001600061ffff168152602001600067ffffffffffffffff81111562000412576200041162000de6565b5b604051908082528060200260200182016040528015620004415781602001602082028036833780820191505090505b508152602001600061ffff168152602001600067ffffffffffffffff81111562000470576200046f62000de6565b5b6040519080825280602002602001820160405280156200049f5781602001602082028036833780820191505090505b508152602001600061ffff1681525060016000820151816000015560208201518160010155604082015181600201556060820151816003015560808201518160040160006101000a81548160ff02191690831515021790555060a08201518160050190805190602001906200051692919062000b70565b5060c08201518160060190805190602001906200053592919062000c21565b5060e08201518160070160006101000a81548161ffff021916908361ffff1602179055506101008201518160080190805190602001906200057892919062000c21565b506101208201518160090160006101000a81548161ffff021916908361ffff16021790555061014082015181600a019080519060200190620005bc92919062000c21565b5061016082015181600b0160006101000a81548161ffff021916908361ffff160217905550905050505050505062001494565b60008060009054906101000a900473ffffffffffffffffffffffffffffffffffffffff169050816000806101000a81548173ffffffffffffffffffffffffffffffffffffffff021916908373ffffffffffffffffffffffffffffffffffffffff1602179055508173ffffffffffffffffffffffffffffffffffffffff168173ffffffffffffffffffffffffffffffffffffffff167f8be0079c531659141344cd1fd0a4f28419497f9722a3daafe3b4186f6b6457e060405160405180910390a35050565b6000601960009054906101000a900473ffffffffffffffffffffffffffffffffffffffff169050620007da8173ffffffffffffffffffffffffffffffffffffffff1663d54ad2a16040518163ffffffff1660e01b8152600401602060405180830381865afa1580156200072a573d6000803e3d6000fd5b505050506040513d601f19601f8201168201806040525081019062000750919062001317565b8273ffffffffffffffffffffffffffffffffffffffff166317fe23996040518163ffffffff1660e01b8152600401602060405180830381865afa1580156200079c573d6000803e3d6000fd5b505050506040513d601f19601f82011682018060405250810190620007c2919062001317565b620007ce919062001349565b620007dd60201b60201c565b50565b620007ed620009c560201b60201c565b6200085381601a600860098111156200080b576200080a62001384565b5b815481106200081f576200081e620013b3565b5b90600052602060002090601091828204019190066002029054906101000a900461ffff1661ffff1662000a6760201b60201c565b620008b982601a6007600981111562000871576200087062001384565b5b81548110620008855762000884620013b3565b5b90600052602060002090601091828204019190066002029054906101000a900461ffff1661ffff1662000a6760201b60201c565b82620008c6919062001349565b620008d2919062001349565b60166000828254620008e59190620012dc565b9250508190555060005b6009811015620009c1576200094982601a8381548110620009155762000914620013b3565b5b90600052602060002090601091828204019190066002029054906101000a900461ffff1661ffff1662000a6760201b60201c565b6014600083600981111562000963576200096262001384565b5b600981111562000978576200097762001384565b5b60098111156200098d576200098c62001384565b5b81526020019081526020016000206000828254620009ac9190620012dc565b925050819055508080600101915050620008ef565b5050565b620009d562000a8e60201b60201c565b73ffffffffffffffffffffffffffffffffffffffff16620009fb62000a9660201b60201c565b73ffffffffffffffffffffffffffffffffffffffff161462000a655762000a2762000a8e60201b60201c565b6040517f118cdaa700000000000000000000000000000000000000000000000000000000815260040162000a5c919062000db3565b60405180910390fd5b565b6000612710828462000a7a9190620013e2565b62000a8691906200145c565b905092915050565b600033905090565b60008060009054906101000a900473ffffffffffffffffffffffffffffffffffffffff16905090565b82805482825590600052602060002090600f0160109004810192821562000b5d5791602002820160005b8382111562000b2b57835183826101000a81548161ffff021916908361ffff160217905550926020019260020160208160010104928301926001030262000ae9565b801562000b5b5782816101000a81549061ffff021916905560020160208160010104928301926001030262000b2b565b505b50905062000b6c919062000c73565b5090565b82805482825590600052602060002090600f0160109004810192821562000c0e5791602002820160005b8382111562000bdc57835183826101000a81548161ffff021916908361ffff160217905550926020019260020160208160010104928301926001030262000b9a565b801562000c0c5782816101000a81549061ffff021916905560020160208160010104928301926001030262000bdc565b505b50905062000c1d919062000c73565b5090565b82805482825590600052602060002090810192821562000c60579160200282015b8281111562000c5f57825182559160200191906001019062000c42565b5b50905062000c6f919062000c73565b5090565b5b8082111562000c8e57600081600090555060010162000c74565b5090565b6000604051905090565b600080fd5b600080fd5b600073ffffffffffffffffffffffffffffffffffffffff82169050919050565b600062000cd38262000ca6565b9050919050565b62000ce58162000cc6565b811462000cf157600080fd5b50565b60008151905062000d058162000cda565b92915050565b6000819050919050565b62000d208162000d0b565b811462000d2c57600080fd5b50565b60008151905062000d408162000d15565b92915050565b60008060006060848603121562000d625762000d6162000c9c565b5b600062000d728682870162000cf4565b935050602062000d858682870162000d2f565b925050604062000d988682870162000d2f565b9150509250925092565b62000dad8162000cc6565b82525050565b600060208201905062000dca600083018462000da2565b92915050565b600080fd5b6000601f19601f8301169050919050565b7f4e487b7100000000000000000000000000000000000000000000000000000000600052604160045260246000fd5b62000e208262000dd5565b810181811067ffffffffffffffff8211171562000e425762000e4162000de6565b5b80604052505050565b600062000e5762000c92565b905062000e65828262000e15565b919050565b600080fd5b60008115159050919050565b62000e868162000e6f565b811462000e9257600080fd5b50565b60008151905062000ea68162000e7b565b92915050565b600080fd5b600067ffffffffffffffff82111562000ecf5762000ece62000de6565b5b602082029050602081019050919050565b600080fd5b600061ffff82169050919050565b62000efe8162000ee5565b811462000f0a57600080fd5b50565b60008151905062000f1e8162000ef3565b92915050565b600062000f3b62000f358462000eb1565b62000e4b565b9050808382526020820190506020840283018581111562000f615762000f6062000ee0565b5b835b8181101562000f8e578062000f79888262000f0d565b84526020840193505060208101905062000f63565b5050509392505050565b600082601f83011262000fb05762000faf62000eac565b5b815162000fc284826020860162000f24565b91505092915050565b600067ffffffffffffffff82111562000fe95762000fe862000de6565b5b602082029050602081019050919050565b6000620010116200100b8462000fcb565b62000e4b565b9050808382526020820190506020840283018581111562001037576200103662000ee0565b5b835b818110156200106457806200104f888262000d2f565b84526020840193505060208101905062001039565b5050509392505050565b600082601f83011262001086576200108562000eac565b5b81516200109884826020860162000ffa565b91505092915050565b60006101808284031215620010bb57620010ba62000dd0565b5b620010c861018062000e4b565b90506000620010da8482850162000d2f565b6000830152506020620010f08482850162000d2f565b6020830152506040620011068482850162000d2f565b60408301525060606200111c8482850162000d2f565b6060830152506080620011328482850162000e95565b60808301525060a082015167ffffffffffffffff81111562001159576200115862000e6a565b5b620011678482850162000f98565b60a08301525060c082015167ffffffffffffffff8111156200118e576200118d62000e6a565b5b6200119c848285016200106e565b60c08301525060e0620011b28482850162000f0d565b60e08301525061010082015167ffffffffffffffff811115620011da57620011d962000e6a565b5b620011e8848285016200106e565b61010083015250610120620012008482850162000f0d565b6101208301525061014082015167ffffffffffffffff81111562001229576200122862000e6a565b5b62001237848285016200106e565b610140830152506101606200124f8482850162000f0d565b6101608301525092915050565b60006020828403121562001275576200127462000c9c565b5b600082015167ffffffffffffffff81111562001296576200129562000ca1565b5b620012a484828501620010a1565b91505092915050565b7f4e487b7100000000000000000000000000000000000000000000000000000000600052601160045260246000fd5b6000620012e98262000d0b565b9150620012f68362000d0b565b9250828201905080821115620013115762001310620012ad565b5b92915050565b60006020828403121562001330576200132f62000c9c565b5b6000620013408482850162000d2f565b91505092915050565b6000620013568262000d0b565b9150620013638362000d0b565b92508282039050818111156200137e576200137d620012ad565b5b92915050565b7f4e487b7100000000000000000000000000000000000000000000000000000000600052602160045260246000fd5b7f4e487b7100000000000000000000000000000000000000000000000000000000600052603260045260246000fd5b6000620013ef8262000d0b565b9150620013fc8362000d0b565b92508282026200140c8162000d0b565b91508282048414831517620014265762001425620012ad565b5b5092915050565b7f4e487b7100000000000000000000000000000000000000000000000000000000600052601260045260246000fd5b6000620014698262000d0b565b9150620014768362000d0b565b9250826200148957620014886200142d565b5b828204905092915050565b613ac380620014a46000396000f3fe608060405234801561001057600080fd5b506004361061021c5760003560e01c80638da5cb5b11610125578063d54ad2a1116100ad578063e2e308301161007c578063e2e3083014610698578063e65b76a9146106c8578063eb7165fa146106f8578063efa3d53114610714578063f2fde38b146107445761021c565b8063d54ad2a114610610578063dd85ae5f1461062e578063df28f24b1461065e578063e278fe6f1461068e5761021c565b8063af33d08f116100f4578063af33d08f1461055a578063b217be051461058a578063b288e1a9146105ba578063b56c12b4146105d8578063b82e18ff146105f45761021c565b80638da5cb5b146104d25780639469f293146104f05780639b7be8fc1461050c5780639f8743f71461053c5761021c565b806336324a5d116101a857806358371dc61161017757806358371dc61461041c578063598f3b9d1461044c578063659a8d861461047c578063715018a6146104ac57806385a70d0f146104b65761021c565b806336324a5d146103525780633ed91226146103825780634e9eba1d146103b757806350b44712146103e75761021c565b806317fe2399116101ef57806317fe2399146102c25780632724d104146102e057806327e4de61146102fc5780632ed4851514610318578063343f2566146103485761021c565b806308469cc61461022157806308bb71cd146102515780630cee803c14610281578063146ca5311461029d575b600080fd5b61023b600480360381019061023691906125d0565b610760565b6040516102489190612618565b60405180910390f35b61026b60048036038101906102669190612691565b610779565b60405161027891906126cd565b60405180910390f35b61029b600480360381019061029691906126e8565b610791565b005b6102a5610830565b6040516102b9989796959493929190612745565b60405180910390f35b6102ca61089d565b6040516102d791906126cd565b60405180910390f35b6102fa60048036038101906102f59190612948565b6108a3565b005b61031660048036038101906103119190612cf0565b610904565b005b610332600480360381019061032d91906126e8565b610ad4565b60405161033f91906126cd565b60405180910390f35b610350610af7565b005b61036c600480360381019061036791906125d0565b610b8c565b6040516103799190612618565b60405180910390f35b61039c600480360381019061039791906125d0565b610ba5565b6040516103ae96959493929190612d77565b60405180910390f35b6103d160048036038101906103cc9190612dd8565b610c4b565b6040516103de91906126cd565b60405180910390f35b61040160048036038101906103fc91906125d0565b610c63565b60405161041396959493929190612e7c565b60405180910390f35b610436600480360381019061043191906125d0565b610d09565b6040516104439190612edd565b60405180910390f35b610466600480360381019061046191906125d0565b610d41565b6040516104739190612fb6565b60405180910390f35b61049660048036038101906104919190612fd8565b610dd4565b6040516104a391906126cd565b60405180910390f35b6104b4610e05565b005b6104d060048036038101906104cb9190613018565b610e19565b005b6104da611080565b6040516104e79190613074565b60405180910390f35b61050a6004803603810190610505919061308f565b6110a9565b005b610526600480360381019061052191906125d0565b6110cb565b604051610533919061318f565b60405180910390f35b61054461121d565b60405161055191906133e1565b60405180910390f35b610574600480360381019061056f91906125d0565b611463565b60405161058191906126cd565b60405180910390f35b6105a4600480360381019061059f91906126e8565b6114b2565b6040516105b19190612edd565b60405180910390f35b6105c26114f9565b6040516105cf9190613074565b60405180910390f35b6105f260048036038101906105ed91906125d0565b61151f565b005b61060e60048036038101906106099190612cf0565b6116c5565b005b6106186118b8565b60405161062591906126cd565b60405180910390f35b610648600480360381019061064391906125d0565b6118be565b604051610655919061347e565b60405180910390f35b61067860048036038101906106739190612691565b6119f0565b60405161068591906126cd565b60405180910390f35b610696611a08565b005b6106b260048036038101906106ad9190612dd8565b611a77565b6040516106bf91906126cd565b60405180910390f35b6106e260048036038101906106dd9190612fd8565b611a8f565b6040516106ef91906126cd565b60405180910390f35b610712600480360381019061070d9190613499565b611ac0565b005b61072e60048036038101906107299190612dd8565b612130565b60405161073b91906126cd565b60405180910390f35b61075e60048036038101906107599190612691565b612148565b005b60008082118015610772575060458211155b9050919050565b60136020528060005260406000206000915090505481565b6107996121ce565b6000601183815481106107af576107ae61351c565b5b9060005260206000209060050201905060018160040160016101000a81548160ff0219169083151502179055508160156000600660098111156107f5576107f4612e05565b5b600981111561080757610806612e05565b5b81526020019081526020016000206000828254610824919061357a565b92505081905550505050565b60018060000154908060010154908060020154908060030154908060040160009054906101000a900460ff16908060070160009054906101000a900461ffff16908060090160009054906101000a900461ffff169080600b0160009054906101000a900461ffff16905088565b60165481565b6108ab6121ce565b81600160050190805190602001906108c4929190612321565b5080600160060190805190602001906108de9291906123cb565b508051600160070160006101000a81548161ffff021916908361ffff1602179055505050565b61090c6121ce565b60005b82518110156109f157600083828151811061092d5761092c61351c565b5b602002602001015190506000600d8260000151815481106109515761095061351c565b5b9060005260206000209060050201905081604001518160040160006101000a81548160ff0219169083600981111561098c5761098b612e05565b5b021790555060186000836040015160098111156109ac576109ab612e05565b5b60098111156109be576109bd612e05565b5b815260200190815260200160002060008154809291906109dd906135ae565b91905055505050808060010191505061090f565b5060005b8151811015610acf576000828281518110610a1357610a1261351c565b5b6020026020010151905060006011826000015181548110610a3757610a3661351c565b5b9060005260206000209060050201905081608001518160040160006101000a81548160ff021916908315150217905550816080015115610ac0576018600060066009811115610a8957610a88612e05565b5b6009811115610a9b57610a9a612e05565b5b81526020019081526020016000206000815480929190610aba906135ae565b91905055505b505080806001019150506109f5565b505050565b60006127108284610ae591906135f6565b610aef9190613667565b905092915050565b600160030154421015610b3f576040517f08c379a0000000000000000000000000000000000000000000000000000000008152600401610b36906136f5565b60405180910390fd5b600060016005018054905014610b8a576040517f08c379a0000000000000000000000000000000000000000000000000000000008152600401610b8190613761565b60405180910390fd5b565b60008082118015610b9e5750601a8211155b9050919050565b60118181548110610bb557600080fd5b90600052602060002090600502016000915090508060000154908060010160009054906101000a900473ffffffffffffffffffffffffffffffffffffffff16908060020160009054906101000a900473ffffffffffffffffffffffffffffffffffffffff16908060030154908060040160009054906101000a900460ff16908060040160019054906101000a900460ff16905086565b60156020528060005260406000206000915090505481565b600d8181548110610c7357600080fd5b90600052602060002090600502016000915090508060000154908060010160009054906101000a900473ffffffffffffffffffffffffffffffffffffffff16908060020160009054906101000a900473ffffffffffffffffffffffffffffffffffffffff16908060020160149054906101000a900460ff16908060030154908060040160009054906101000a900460ff16905086565b601a8181548110610d1957600080fd5b9060005260206000209060109182820401919006600202915054906101000a900461ffff1681565b6060600e6000838152602001908152602001600020805480602002602001604051908101604052809291908181526020018280548015610dc857602002820191906000526020600020906000905b82829054906101000a900461ffff1661ffff1681526020019060020190602082600101049283019260010382029150808411610d8f5790505b50505050509050919050565b60126020528160005260406000208181548110610df057600080fd5b90600052602060002001600091509150505481565b610e0d6121ce565b610e176000612255565b565b610e216121ce565b600073ffffffffffffffffffffffffffffffffffffffff163273ffffffffffffffffffffffffffffffffffffffff1603610e90576040517f08c379a0000000000000000000000000000000000000000000000000000000008152600401610e87906137cd565b60405180910390fd5b6001600301544210610ed7576040517f08c379a0000000000000000000000000000000000000000000000000000000008152600401610ece90613839565b60405180910390fd5b6006825114610f1b576040517f08c379a0000000000000000000000000000000000000000000000000000000008152600401610f12906138a5565b60405180910390fd5b60005b60018351610f2c91906138c5565b811015610fa657610f5a838281518110610f4957610f4861351c565b5b602002602001015161ffff16610760565b610f99576040517f08c379a0000000000000000000000000000000000000000000000000000000008152600401610f9090613945565b60405180910390fd5b8080600101915050610f1e565b50610fcf82600581518110610fbe57610fbd61351c565b5b602002602001015161ffff16610b8c565b61100e576040517f08c379a0000000000000000000000000000000000000000000000000000000008152600401611005906139b1565b60405180910390fd5b3273ffffffffffffffffffffffffffffffffffffffff168173ffffffffffffffffffffffffffffffffffffffff160361107c576040517f08c379a000000000000000000000000000000000000000000000000000000000815260040161107390613a43565b60405180910390fd5b5050565b60008060009054906101000a900473ffffffffffffffffffffffffffffffffffffffff16905090565b6110b16121ce565b80601a90805190602001906110c7929190612321565b5050565b6110d361241e565b600d82815481106110e7576110e661351c565b5b90600052602060002090600502016040518060c0016040529081600082015481526020016001820160009054906101000a900473ffffffffffffffffffffffffffffffffffffffff1673ffffffffffffffffffffffffffffffffffffffff1673ffffffffffffffffffffffffffffffffffffffff1681526020016002820160009054906101000a900473ffffffffffffffffffffffffffffffffffffffff1673ffffffffffffffffffffffffffffffffffffffff1673ffffffffffffffffffffffffffffffffffffffff1681526020016002820160149054906101000a900460ff16151515158152602001600382015481526020016004820160009054906101000a900460ff166009811115611200576111ff612e05565b5b600981111561121257611211612e05565b5b815250509050919050565b611225612494565b600160405180610180016040529081600082015481526020016001820154815260200160028201548152602001600382015481526020016004820160009054906101000a900460ff16151515158152602001600582018054806020026020016040519081016040528092919081815260200182805480156112ed57602002820191906000526020600020906000905b82829054906101000a900461ffff1661ffff16815260200190600201906020826001010492830192600103820291508084116112b45790505b505050505081526020016006820180548060200260200160405190810160405280929190818152602001828054801561134557602002820191906000526020600020905b815481526020019060010190808311611331575b505050505081526020016007820160009054906101000a900461ffff1661ffff1661ffff168152602001600882018054806020026020016040519081016040528092919081815260200182805480156113bd57602002820191906000526020600020905b8154815260200190600101908083116113a9575b505050505081526020016009820160009054906101000a900461ffff1661ffff1661ffff168152602001600a820180548060200260200160405190810160405280929190818152602001828054801561143557602002820191906000526020600020905b815481526020019060010190808311611421575b50505050508152602001600b820160009054906101000a900461ffff1661ffff1661ffff1681525050905090565b60006114ab82601a60088154811061147e5761147d61351c565b5b90600052602060002090601091828204019190066002029054906101000a900461ffff1661ffff16610ad4565b9050919050565b600e60205281600052604060002081815481106114ce57600080fd5b9060005260206000209060109182820401919006600202915091509054906101000a900461ffff1681565b601960009054906101000a900473ffffffffffffffffffffffffffffffffffffffff1681565b6115276121ce565b61157f81601a6008600981111561154157611540612e05565b5b815481106115525761155161351c565b5b90600052602060002090601091828204019190066002029054906101000a900461ffff1661ffff16610ad4565b6115d782601a6007600981111561159957611598612e05565b5b815481106115aa576115a961351c565b5b90600052602060002090601091828204019190066002029054906101000a900461ffff1661ffff16610ad4565b826115e291906138c5565b6115ec91906138c5565b601660008282546115fd919061357a565b9250508190555060005b60098110156116c15761165582601a83815481106116285761162761351c565b5b90600052602060002090601091828204019190066002029054906101000a900461ffff1661ffff16610ad4565b6014600083600981111561166c5761166b612e05565b5b600981111561167e5761167d612e05565b5b60098111156116905761168f612e05565b5b815260200190815260200160002060008282546116ad919061357a565b925050819055508080600101915050611607565b5050565b6116cd6121ce565b60005b82518110156117c15760008382815181106116ee576116ed61351c565b5b602002602001015190506000600d8260000151815481106117125761171161351c565b5b9060005260206000209060050201905060018160020160146101000a81548160ff0219169083151502179055508160a00151601560008460400151600981111561175f5761175e612e05565b5b600981111561177157611770612e05565b5b8152602001908152602001600020600082825461178e919061357a565b925050819055508160a00151601760008282546117ab919061357a565b92505081905550505080806001019150506116d0565b5060005b81518110156118b35760008282815181106117e3576117e261351c565b5b60200260200101519050600060118260000151815481106118075761180661351c565b5b9060005260206000209060050201905060018160040160016101000a81548160ff0219169083151502179055508160c00151601560006006600981111561185157611850612e05565b5b600981111561186357611862612e05565b5b81526020019081526020016000206000828254611880919061357a565b925050819055508160c001516017600082825461189d919061357a565b92505081905550505080806001019150506117c5565b505050565b60175481565b6118c6612503565b601182815481106118da576118d961351c565b5b90600052602060002090600502016040518060c0016040529081600082015481526020016001820160009054906101000a900473ffffffffffffffffffffffffffffffffffffffff1673ffffffffffffffffffffffffffffffffffffffff1673ffffffffffffffffffffffffffffffffffffffff1681526020016002820160009054906101000a900473ffffffffffffffffffffffffffffffffffffffff1673ffffffffffffffffffffffffffffffffffffffff1673ffffffffffffffffffffffffffffffffffffffff168152602001600382015481526020016004820160009054906101000a900460ff161515151581526020016004820160019054906101000a900460ff1615151515815250509050919050565b60106020528060005260406000206000915090505481565b611a106121ce565b600160030154421015611a58576040517f08c379a0000000000000000000000000000000000000000000000000000000008152600401611a4f906136f5565b60405180910390fd5b60018060040160006101000a81548160ff021916908315150217905550565b60146020528060005260406000206000915090505481565b600f6020528160005260406000208181548110611aab57600080fd5b90600052602060002001600091509150505481565b611ac86121ce565b611ad28383610e19565b6000600d805490509050600d6040518060c001604052808381526020018473ffffffffffffffffffffffffffffffffffffffff1681526020018573ffffffffffffffffffffffffffffffffffffffff168152602001600015158152602001878152602001600980811115611b4957611b48612e05565b5b81525090806001815401808255809150506001900390600052602060002090600502016000909190919091506000820151816000015560208201518160010160006101000a81548173ffffffffffffffffffffffffffffffffffffffff021916908373ffffffffffffffffffffffffffffffffffffffff16021790555060408201518160020160006101000a81548173ffffffffffffffffffffffffffffffffffffffff021916908373ffffffffffffffffffffffffffffffffffffffff16021790555060608201518160020160146101000a81548160ff0219169083151502179055506080820151816003015560a08201518160040160006101000a81548160ff02191690836009811115611c6257611c61612e05565b5b0217905550505060005b8451811015611cf757600e6000838152602001908152602001600020858281518110611c9b57611c9a61351c565b5b602002602001015190806001815401808255809150506001900390600052602060002090601091828204019190066002029091909190916101000a81548161ffff021916908361ffff1602179055508080600101915050611c6c565b5060016008018190806001815401808255809150506001900390600052602060002001600090919091909150556001600901600081819054906101000a900461ffff1680929190611d4790613a63565b91906101000a81548161ffff021916908361ffff16021790555050600f60008373ffffffffffffffffffffffffffffffffffffffff1673ffffffffffffffffffffffffffffffffffffffff1681526020019081526020016000206001600d80549050611db391906138c5565b9080600181540180825580915050600190039060005260206000200160009091909190915055601060008373ffffffffffffffffffffffffffffffffffffffff1673ffffffffffffffffffffffffffffffffffffffff1681526020019081526020016000206000815480929190611e29906135ae565b9190505550600073ffffffffffffffffffffffffffffffffffffffff168373ffffffffffffffffffffffffffffffffffffffff161461212957600060118054905090506001600a018190806001815401808255809150506001900390600052602060002001600090919091909150556001600b01600081819054906101000a900461ffff1680929190611ebb90613a63565b91906101000a81548161ffff021916908361ffff1602179055505060116040518060c001604052808381526020018573ffffffffffffffffffffffffffffffffffffffff1681526020018673ffffffffffffffffffffffffffffffffffffffff1681526020016001600b0160009054906101000a900461ffff1661ffff1681526020016000151581526020016000151581525090806001815401808255809150506001900390600052602060002090600502016000909190919091506000820151816000015560208201518160010160006101000a81548173ffffffffffffffffffffffffffffffffffffffff021916908373ffffffffffffffffffffffffffffffffffffffff16021790555060408201518160020160006101000a81548173ffffffffffffffffffffffffffffffffffffffff021916908373ffffffffffffffffffffffffffffffffffffffff1602179055506060820151816003015560808201518160040160006101000a81548160ff02191690831515021790555060a08201518160040160016101000a81548160ff0219169083151502179055505050601260008573ffffffffffffffffffffffffffffffffffffffff1673ffffffffffffffffffffffffffffffffffffffff16815260200190815260200160002060016011805490506120ac91906138c5565b9080600181540180825580915050600190039060005260206000200160009091909190915055601360008573ffffffffffffffffffffffffffffffffffffffff1673ffffffffffffffffffffffffffffffffffffffff1681526020019081526020016000206000815480929190612122906135ae565b9190505550505b5050505050565b60186020528060005260406000206000915090505481565b6121506121ce565b600073ffffffffffffffffffffffffffffffffffffffff168173ffffffffffffffffffffffffffffffffffffffff16036121c25760006040517f1e4fbdf70000000000000000000000000000000000000000000000000000000081526004016121b99190613074565b60405180910390fd5b6121cb81612255565b50565b6121d6612319565b73ffffffffffffffffffffffffffffffffffffffff166121f4611080565b73ffffffffffffffffffffffffffffffffffffffff161461225357612217612319565b6040517f118cdaa700000000000000000000000000000000000000000000000000000000815260040161224a9190613074565b60405180910390fd5b565b60008060009054906101000a900473ffffffffffffffffffffffffffffffffffffffff169050816000806101000a81548173ffffffffffffffffffffffffffffffffffffffff021916908373ffffffffffffffffffffffffffffffffffffffff1602179055508173ffffffffffffffffffffffffffffffffffffffff168173ffffffffffffffffffffffffffffffffffffffff167f8be0079c531659141344cd1fd0a4f28419497f9722a3daafe3b4186f6b6457e060405160405180910390a35050565b600033905090565b82805482825590600052602060002090600f016010900481019282156123ba5791602002820160005b8382111561238a57835183826101000a81548161ffff021916908361ffff160217905550926020019260020160208160010104928301926001030261234a565b80156123b85782816101000a81549061ffff021916905560020160208160010104928301926001030261238a565b505b5090506123c79190612569565b5090565b82805482825590600052602060002090810192821561240d579160200282015b8281111561240c578251829061ffff169055916020019190600101906123eb565b5b50905061241a9190612569565b5090565b6040518060c0016040528060008152602001600073ffffffffffffffffffffffffffffffffffffffff168152602001600073ffffffffffffffffffffffffffffffffffffffff168152602001600015158152602001600081526020016000600981111561248e5761248d612e05565b5b81525090565b604051806101800160405280600081526020016000815260200160008152602001600081526020016000151581526020016060815260200160608152602001600061ffff16815260200160608152602001600061ffff16815260200160608152602001600061ffff1681525090565b6040518060c0016040528060008152602001600073ffffffffffffffffffffffffffffffffffffffff168152602001600073ffffffffffffffffffffffffffffffffffffffff168152602001600081526020016000151581526020016000151581525090565b5b8082111561258257600081600090555060010161256a565b5090565b6000604051905090565b600080fd5b600080fd5b6000819050919050565b6125ad8161259a565b81146125b857600080fd5b50565b6000813590506125ca816125a4565b92915050565b6000602082840312156125e6576125e5612590565b5b60006125f4848285016125bb565b91505092915050565b60008115159050919050565b612612816125fd565b82525050565b600060208201905061262d6000830184612609565b92915050565b600073ffffffffffffffffffffffffffffffffffffffff82169050919050565b600061265e82612633565b9050919050565b61266e81612653565b811461267957600080fd5b50565b60008135905061268b81612665565b92915050565b6000602082840312156126a7576126a6612590565b5b60006126b58482850161267c565b91505092915050565b6126c78161259a565b82525050565b60006020820190506126e260008301846126be565b92915050565b600080604083850312156126ff576126fe612590565b5b600061270d858286016125bb565b925050602061271e858286016125bb565b9150509250929050565b600061ffff82169050919050565b61273f81612728565b82525050565b60006101008201905061275b600083018b6126be565b612768602083018a6126be565b61277560408301896126be565b61278260608301886126be565b61278f6080830187612609565b61279c60a0830186612736565b6127a960c0830185612736565b6127b660e0830184612736565b9998505050505050505050565b600080fd5b6000601f19601f8301169050919050565b7f4e487b7100000000000000000000000000000000000000000000000000000000600052604160045260246000fd5b612811826127c8565b810181811067ffffffffffffffff821117156128305761282f6127d9565b5b80604052505050565b6000612843612586565b905061284f8282612808565b919050565b600067ffffffffffffffff82111561286f5761286e6127d9565b5b602082029050602081019050919050565b600080fd5b61288e81612728565b811461289957600080fd5b50565b6000813590506128ab81612885565b92915050565b60006128c46128bf84612854565b612839565b905080838252602082019050602084028301858111156128e7576128e6612880565b5b835b8181101561291057806128fc888261289c565b8452602084019350506020810190506128e9565b5050509392505050565b600082601f83011261292f5761292e6127c3565b5b813561293f8482602086016128b1565b91505092915050565b6000806040838503121561295f5761295e612590565b5b600083013567ffffffffffffffff81111561297d5761297c612595565b5b6129898582860161291a565b925050602083013567ffffffffffffffff8111156129aa576129a9612595565b5b6129b68582860161291a565b9150509250929050565b600067ffffffffffffffff8211156129db576129da6127d9565b5b602082029050602081019050919050565b600080fd5b600a81106129fe57600080fd5b50565b600081359050612a10816129f1565b92915050565b612a1f816125fd565b8114612a2a57600080fd5b50565b600081359050612a3c81612a16565b92915050565b600060c08284031215612a5857612a576129ec565b5b612a6260c0612839565b90506000612a72848285016125bb565b6000830152506020612a868482850161267c565b6020830152506040612a9a84828501612a01565b6040830152506060612aae84828501612a2d565b6060830152506080612ac284828501612a2d565b60808301525060a0612ad6848285016125bb565b60a08301525092915050565b6000612af5612af0846129c0565b612839565b90508083825260208201905060c08402830185811115612b1857612b17612880565b5b835b81811015612b415780612b2d8882612a42565b84526020840193505060c081019050612b1a565b5050509392505050565b600082601f830112612b6057612b5f6127c3565b5b8135612b70848260208601612ae2565b91505092915050565b600067ffffffffffffffff821115612b9457612b936127d9565b5b602082029050602081019050919050565b600060e08284031215612bbb57612bba6129ec565b5b612bc560e0612839565b90506000612bd5848285016125bb565b6000830152506020612be98482850161267c565b6020830152506040612bfd8482850161267c565b6040830152506060612c11848285016125bb565b6060830152506080612c2584828501612a2d565b60808301525060a0612c3984828501612a2d565b60a08301525060c0612c4d848285016125bb565b60c08301525092915050565b6000612c6c612c6784612b79565b612839565b90508083825260208201905060e08402830185811115612c8f57612c8e612880565b5b835b81811015612cb85780612ca48882612ba5565b84526020840193505060e081019050612c91565b5050509392505050565b600082601f830112612cd757612cd66127c3565b5b8135612ce7848260208601612c59565b91505092915050565b60008060408385031215612d0757612d06612590565b5b600083013567ffffffffffffffff811115612d2557612d24612595565b5b612d3185828601612b4b565b925050602083013567ffffffffffffffff811115612d5257612d51612595565b5b612d5e85828601612cc2565b9150509250929050565b612d7181612653565b82525050565b600060c082019050612d8c60008301896126be565b612d996020830188612d68565b612da66040830187612d68565b612db360608301866126be565b612dc06080830185612609565b612dcd60a0830184612609565b979650505050505050565b600060208284031215612dee57612ded612590565b5b6000612dfc84828501612a01565b91505092915050565b7f4e487b7100000000000000000000000000000000000000000000000000000000600052602160045260246000fd5b600a8110612e4557612e44612e05565b5b50565b6000819050612e5682612e34565b919050565b6000612e6682612e48565b9050919050565b612e7681612e5b565b82525050565b600060c082019050612e9160008301896126be565b612e9e6020830188612d68565b612eab6040830187612d68565b612eb86060830186612609565b612ec560808301856126be565b612ed260a0830184612e6d565b979650505050505050565b6000602082019050612ef26000830184612736565b92915050565b600081519050919050565b600082825260208201905092915050565b6000819050602082019050919050565b612f2d81612728565b82525050565b6000612f3f8383612f24565b60208301905092915050565b6000602082019050919050565b6000612f6382612ef8565b612f6d8185612f03565b9350612f7883612f14565b8060005b83811015612fa9578151612f908882612f33565b9750612f9b83612f4b565b925050600181019050612f7c565b5085935050505092915050565b60006020820190508181036000830152612fd08184612f58565b905092915050565b60008060408385031215612fef57612fee612590565b5b6000612ffd8582860161267c565b925050602061300e858286016125bb565b9150509250929050565b6000806040838503121561302f5761302e612590565b5b600083013567ffffffffffffffff81111561304d5761304c612595565b5b6130598582860161291a565b925050602061306a8582860161267c565b9150509250929050565b60006020820190506130896000830184612d68565b92915050565b6000602082840312156130a5576130a4612590565b5b600082013567ffffffffffffffff8111156130c3576130c2612595565b5b6130cf8482850161291a565b91505092915050565b6130e18161259a565b82525050565b6130f081612653565b82525050565b6130ff816125fd565b82525050565b61310e81612e5b565b82525050565b60c08201600082015161312a60008501826130d8565b50602082015161313d60208501826130e7565b50604082015161315060408501826130e7565b50606082015161316360608501826130f6565b50608082015161317660808501826130d8565b5060a082015161318960a0850182613105565b50505050565b600060c0820190506131a46000830184613114565b92915050565b600082825260208201905092915050565b60006131c682612ef8565b6131d081856131aa565b93506131db83612f14565b8060005b8381101561320c5781516131f38882612f33565b97506131fe83612f4b565b9250506001810190506131df565b5085935050505092915050565b600081519050919050565b600082825260208201905092915050565b6000819050602082019050919050565b600061325183836130d8565b60208301905092915050565b6000602082019050919050565b600061327582613219565b61327f8185613224565b935061328a83613235565b8060005b838110156132bb5781516132a28882613245565b97506132ad8361325d565b92505060018101905061328e565b5085935050505092915050565b6000610180830160008301516132e160008601826130d8565b5060208301516132f460208601826130d8565b50604083015161330760408601826130d8565b50606083015161331a60608601826130d8565b50608083015161332d60808601826130f6565b5060a083015184820360a086015261334582826131bb565b91505060c083015184820360c086015261335f828261326a565b91505060e083015161337460e0860182612f24565b5061010083015184820361010086015261338e828261326a565b9150506101208301516133a5610120860182612f24565b506101408301518482036101408601526133bf828261326a565b9150506101608301516133d6610160860182612f24565b508091505092915050565b600060208201905081810360008301526133fb81846132c8565b905092915050565b60c08201600082015161341960008501826130d8565b50602082015161342c60208501826130e7565b50604082015161343f60408501826130e7565b50606082015161345260608501826130d8565b50608082015161346560808501826130f6565b5060a082015161347860a08501826130f6565b50505050565b600060c0820190506134936000830184613403565b92915050565b600080600080608085870312156134b3576134b2612590565b5b60006134c1878288016125bb565b945050602085013567ffffffffffffffff8111156134e2576134e1612595565b5b6134ee8782880161291a565b93505060406134ff8782880161267c565b92505060606135108782880161267c565b91505092959194509250565b7f4e487b7100000000000000000000000000000000000000000000000000000000600052603260045260246000fd5b7f4e487b7100000000000000000000000000000000000000000000000000000000600052601160045260246000fd5b60006135858261259a565b91506135908361259a565b92508282019050808211156135a8576135a761354b565b5b92915050565b60006135b98261259a565b91507fffffffffffffffffffffffffffffffffffffffffffffffffffffffffffffffff82036135eb576135ea61354b565b5b600182019050919050565b60006136018261259a565b915061360c8361259a565b925082820261361a8161259a565b915082820484148315176136315761363061354b565b5b5092915050565b7f4e487b7100000000000000000000000000000000000000000000000000000000600052601260045260246000fd5b60006136728261259a565b915061367d8361259a565b92508261368d5761368c613638565b5b828204905092915050565b600082825260208201905092915050565b7f526f756e64206973206e6f74206f766572207965740000000000000000000000600082015250565b60006136df601583613698565b91506136ea826136a9565b602082019050919050565b6000602082019050818103600083015261370e816136d2565b9050919050565b7f57696e6e696e67206e756d6265727320616c7265616479207365740000000000600082015250565b600061374b601b83613698565b915061375682613715565b602082019050919050565b6000602082019050818103600083015261377a8161373e565b9050919050565b7f496e76616c69642073656e646572000000000000000000000000000000000000600082015250565b60006137b7600e83613698565b91506137c282613781565b602082019050919050565b600060208201905081810360008301526137e6816137aa565b9050919050565b7f526f756e64206973206f76657200000000000000000000000000000000000000600082015250565b6000613823600d83613698565b915061382e826137ed565b602082019050919050565b6000602082019050818103600083015261385281613816565b9050919050565b7f496e76616c6964206e756d6265727320636f756e740000000000000000000000600082015250565b600061388f601583613698565b915061389a82613859565b602082019050919050565b600060208201905081810360008301526138be81613882565b9050919050565b60006138d08261259a565b91506138db8361259a565b92508282039050818111156138f3576138f261354b565b5b92915050565b7f496e76616c6964206e756d626572730000000000000000000000000000000000600082015250565b600061392f600f83613698565b915061393a826138f9565b602082019050919050565b6000602082019050818103600083015261395e81613922565b9050919050565b7f496e76616c696420706f776572206e756d626572000000000000000000000000600082015250565b600061399b601483613698565b91506139a682613965565b602082019050919050565b600060208201905081810360008301526139ca8161398e565b9050919050565b7f526566657272616c2063616e6e6f74206265207468652073616d65206173207460008201527f6865207061727469636970616e74000000000000000000000000000000000000602082015250565b6000613a2d602e83613698565b9150613a38826139d1565b604082019050919050565b60006020820190508181036000830152613a5c81613a20565b9050919050565b6000613a6e82612728565b915061ffff8203613a8257613a8161354b565b5b60018201905091905056fea2646970667358221220979a9f7adb86569394f0f493b859178d35d820ae0baac62ff852bfc758c9b16b64736f6c63430008180033a2646970667358221220ada6f1edf5cc0ca85efdce018ac33c3673bb1d13d90c53a2577d654e8f5881be64736f6c63430008180033",
  "devdoc": {
    "errors": {
      "OwnableInvalidOwner(address)": [
        {
          "details": "The owner is not a valid owner account. (eg. `address(0)`)"
        }
      ],
      "OwnableUnauthorizedAccount(address)": [
        {
          "details": "The caller account is not authorized to perform an operation."
        }
      ]
    },
    "kind": "dev",
    "methods": {
      "owner()": {
        "details": "Returns the address of the current owner."
      },
      "renounceOwnership()": {
        "details": "Leaves the contract without owner. It will not be possible to call `onlyOwner` functions. Can only be called by the current owner. NOTE: Renouncing ownership will leave the contract without an owner, thereby disabling any functionality that is only available to the owner."
      },
      "transferOwnership(address)": {
        "details": "Transfers ownership of the contract to a new account (`newOwner`). Can only be called by the current owner."
      }
    },
    "version": 1
  },
  "userdoc": {
    "kind": "user",
    "methods": {},
    "version": 1
  },
  "storageLayout": {
    "storage": [
      {
        "astId": 8,
        "contract": "contracts/LotteryRoundCreator.sol:LotteryRoundCreator",
        "label": "_owner",
        "offset": 0,
        "slot": "0",
        "type": "t_address"
      }
    ],
    "types": {
      "t_address": {
        "encoding": "inplace",
        "label": "address",
        "numberOfBytes": "20"
      }
    }
  }
}