{
  "address": "0x510d01BE107de82e1E49bbFC03De88323e8E9026",
  "abi": [
    {
      "inputs": [
        {
          "internalType": "address",
          "name": "cyclixRandomizer",
          "type": "address"
        },
        {
          "internalType": "address",
          "name": "lotteryReader",
          "type": "address"
        },
        {
          "internalType": "address",
          "name": "_lotteryRoundCreator",
          "type": "address"
        },
        {
          "internalType": "address",
          "name": "_paymentToken",
          "type": "address"
        },
        {
          "internalType": "uint256",
          "name": "_ticketPrice",
          "type": "uint256"
        },
        {
          "internalType": "bool",
          "name": "_freeRoundsAreEnabled",
          "type": "bool"
        }
      ],
      "stateMutability": "nonpayable",
      "type": "constructor"
    },
    {
      "inputs": [
        {
          "internalType": "address",
          "name": "target",
          "type": "address"
        }
      ],
      "name": "AddressEmptyCode",
      "type": "error"
    },
    {
      "inputs": [
        {
          "internalType": "address",
          "name": "account",
          "type": "address"
        }
      ],
      "name": "AddressInsufficientBalance",
      "type": "error"
    },
    {
      "inputs": [],
      "name": "FailedInnerCall",
      "type": "error"
    },
    {
      "inputs": [
        {
          "internalType": "address",
          "name": "owner",
          "type": "address"
        }
      ],
      "name": "OwnableInvalidOwner",
      "type": "error"
    },
    {
      "inputs": [
        {
          "internalType": "address",
          "name": "account",
          "type": "address"
        }
      ],
      "name": "OwnableUnauthorizedAccount",
      "type": "error"
    },
    {
      "inputs": [
        {
          "internalType": "address",
          "name": "token",
          "type": "address"
        }
      ],
      "name": "SafeERC20FailedOperation",
      "type": "error"
    },
    {
      "anonymous": false,
      "inputs": [
        {
          "indexed": true,
          "internalType": "address",
          "name": "previousOwner",
          "type": "address"
        },
        {
          "indexed": true,
          "internalType": "address",
          "name": "newOwner",
          "type": "address"
        }
      ],
      "name": "OwnershipTransferred",
      "type": "event"
    },
    {
      "inputs": [
        {
          "internalType": "address[]",
          "name": "participant",
          "type": "address[]"
        }
      ],
      "name": "addFreeRound",
      "outputs": [],
      "stateMutability": "nonpayable",
      "type": "function"
    },
    {
      "inputs": [
        {
          "internalType": "uint256",
          "name": "",
          "type": "uint256"
        }
      ],
      "name": "bankWallets",
      "outputs": [
        {
          "internalType": "address",
          "name": "",
          "type": "address"
        }
      ],
      "stateMutability": "view",
      "type": "function"
    },
    {
      "inputs": [
        {
          "internalType": "uint256",
          "name": "chainId",
          "type": "uint256"
        },
        {
          "internalType": "uint16[]",
          "name": "chosenNumbers",
          "type": "uint16[]"
        },
        {
          "internalType": "address",
          "name": "referral",
          "type": "address"
        },
        {
          "internalType": "address",
          "name": "buyer",
          "type": "address"
        }
      ],
      "name": "buyTicket",
      "outputs": [],
      "stateMutability": "nonpayable",
      "type": "function"
    },
    {
      "inputs": [
        {
          "internalType": "uint256",
          "name": "chainId",
          "type": "uint256"
        },
        {
          "internalType": "uint16[]",
          "name": "moreTicketNumbers",
          "type": "uint16[]"
        },
        {
          "internalType": "address",
          "name": "referral",
          "type": "address"
        },
        {
          "internalType": "address",
          "name": "buyer",
          "type": "address"
        }
      ],
      "name": "buyTickets",
      "outputs": [],
      "stateMutability": "nonpayable",
      "type": "function"
    },
    {
      "inputs": [],
      "name": "claimVictory",
      "outputs": [],
      "stateMutability": "nonpayable",
      "type": "function"
    },
    {
      "inputs": [
        {
          "internalType": "uint256",
          "name": "_statusEndTime",
          "type": "uint256"
        }
      ],
      "name": "closeRound",
      "outputs": [],
      "stateMutability": "nonpayable",
      "type": "function"
    },
    {
      "inputs": [],
      "name": "counterForBankWallets",
      "outputs": [
        {
          "internalType": "uint16",
          "name": "",
          "type": "uint16"
        }
      ],
      "stateMutability": "view",
      "type": "function"
    },
    {
      "inputs": [
        {
          "internalType": "address",
          "name": "",
          "type": "address"
        }
      ],
      "name": "crossChainOperator",
      "outputs": [
        {
          "internalType": "bool",
          "name": "",
          "type": "bool"
        }
      ],
      "stateMutability": "view",
      "type": "function"
    },
    {
      "inputs": [
        {
          "internalType": "uint256",
          "name": "roundId",
          "type": "uint256"
        },
        {
          "internalType": "uint256",
          "name": "_statusEndTime",
          "type": "uint256"
        }
      ],
      "name": "fetchRoundNumbers",
      "outputs": [],
      "stateMutability": "nonpayable",
      "type": "function"
    },
    {
      "inputs": [
        {
          "internalType": "address",
          "name": "",
          "type": "address"
        }
      ],
      "name": "freeRounds",
      "outputs": [
        {
          "internalType": "uint16",
          "name": "",
          "type": "uint16"
        }
      ],
      "stateMutability": "view",
      "type": "function"
    },
    {
      "inputs": [],
      "name": "freeRoundsAreEnabled",
      "outputs": [
        {
          "internalType": "bool",
          "name": "",
          "type": "bool"
        }
      ],
      "stateMutability": "view",
      "type": "function"
    },
    {
      "inputs": [],
      "name": "lotteryRoundCreator",
      "outputs": [
        {
          "internalType": "contract LotteryRoundCreatorInterface",
          "name": "",
          "type": "address"
        }
      ],
      "stateMutability": "view",
      "type": "function"
    },
    {
      "inputs": [],
      "name": "lotteryStatus",
      "outputs": [
        {
          "internalType": "enum LotteryStatuses",
          "name": "",
          "type": "uint8"
        }
      ],
      "stateMutability": "view",
      "type": "function"
    },
    {
      "inputs": [
        {
          "internalType": "uint256",
          "name": "roundId",
          "type": "uint256"
        },
        {
          "internalType": "uint256",
          "name": "_statusEndTime",
          "type": "uint256"
        }
      ],
      "name": "markWinners",
      "outputs": [],
      "stateMutability": "nonpayable",
      "type": "function"
    },
    {
      "inputs": [],
      "name": "owner",
      "outputs": [
        {
          "internalType": "address",
          "name": "",
          "type": "address"
        }
      ],
      "stateMutability": "view",
      "type": "function"
    },
    {
      "inputs": [],
      "name": "paymentToken",
      "outputs": [
        {
          "internalType": "contract IERC20Metadata",
          "name": "",
          "type": "address"
        }
      ],
      "stateMutability": "view",
      "type": "function"
    },
    {
      "inputs": [],
      "name": "percentageOfReferralWinners",
      "outputs": [
        {
          "internalType": "uint16",
          "name": "",
          "type": "uint16"
        }
      ],
      "stateMutability": "view",
      "type": "function"
    },
    {
      "inputs": [
        {
          "internalType": "uint256",
          "name": "",
          "type": "uint256"
        }
      ],
      "name": "publicRoundRandomNumbersRequestId",
      "outputs": [
        {
          "internalType": "uint256",
          "name": "",
          "type": "uint256"
        }
      ],
      "stateMutability": "view",
      "type": "function"
    },
    {
      "inputs": [],
      "name": "randomizer",
      "outputs": [
        {
          "internalType": "contract CyclixRandomizerInterface",
          "name": "",
          "type": "address"
        }
      ],
      "stateMutability": "view",
      "type": "function"
    },
    {
      "inputs": [],
      "name": "reader",
      "outputs": [
        {
          "internalType": "contract LotteryReaderInterface",
          "name": "",
          "type": "address"
        }
      ],
      "stateMutability": "view",
      "type": "function"
    },
    {
      "inputs": [],
      "name": "renounceOwnership",
      "outputs": [],
      "stateMutability": "nonpayable",
      "type": "function"
    },
    {
      "inputs": [],
      "name": "roundCount",
      "outputs": [
        {
          "internalType": "uint256",
          "name": "",
          "type": "uint256"
        }
      ],
      "stateMutability": "view",
      "type": "function"
    },
    {
      "inputs": [
        {
          "internalType": "uint256",
          "name": "",
          "type": "uint256"
        }
      ],
      "name": "rounds",
      "outputs": [
        {
          "internalType": "address",
          "name": "",
          "type": "address"
        }
      ],
      "stateMutability": "view",
      "type": "function"
    },
    {
      "inputs": [],
      "name": "sendCryptoToTeam",
      "outputs": [],
      "stateMutability": "nonpayable",
      "type": "function"
    },
    {
      "inputs": [
        {
          "internalType": "address",
          "name": "_token",
          "type": "address"
        }
      ],
      "name": "sendTokenToTeam",
      "outputs": [],
      "stateMutability": "nonpayable",
      "type": "function"
    },
    {
      "inputs": [
        {
          "internalType": "address",
          "name": "wallet",
          "type": "address"
        },
        {
          "internalType": "bool",
          "name": "add",
          "type": "bool"
        }
      ],
      "name": "setBankWallet",
      "outputs": [],
      "stateMutability": "nonpayable",
      "type": "function"
    },
    {
      "inputs": [
        {
          "internalType": "address",
          "name": "operator",
          "type": "address"
        },
        {
          "internalType": "bool",
          "name": "value",
          "type": "bool"
        }
      ],
      "name": "setCrossChainOperator",
      "outputs": [],
      "stateMutability": "nonpayable",
      "type": "function"
    },
    {
      "inputs": [
        {
          "internalType": "uint256",
          "name": "_statusEndTime",
          "type": "uint256"
        }
      ],
      "name": "startNewRound",
      "outputs": [],
      "stateMutability": "nonpayable",
      "type": "function"
    },
    {
      "inputs": [],
      "name": "statusEndTime",
      "outputs": [
        {
          "internalType": "uint256",
          "name": "",
          "type": "uint256"
        }
      ],
      "stateMutability": "view",
      "type": "function"
    },
    {
      "inputs": [],
      "name": "statusStartTime",
      "outputs": [
        {
          "internalType": "uint256",
          "name": "",
          "type": "uint256"
        }
      ],
      "stateMutability": "view",
      "type": "function"
    },
    {
      "inputs": [],
      "name": "ticketPrice",
      "outputs": [
        {
          "internalType": "uint256",
          "name": "",
          "type": "uint256"
        }
      ],
      "stateMutability": "view",
      "type": "function"
    },
    {
      "inputs": [
        {
          "internalType": "address",
          "name": "newOwner",
          "type": "address"
        }
      ],
      "name": "transferOwnership",
      "outputs": [],
      "stateMutability": "nonpayable",
      "type": "function"
    },
    {
      "inputs": [],
      "name": "treasuryWallets",
      "outputs": [
        {
          "internalType": "address",
          "name": "",
          "type": "address"
        }
      ],
      "stateMutability": "view",
      "type": "function"
    },
    {
      "inputs": [
        {
          "internalType": "address",
          "name": "cyclixRandomizer",
          "type": "address"
        },
        {
          "internalType": "address",
          "name": "lotteryReader",
          "type": "address"
        },
        {
          "internalType": "address",
          "name": "_lotteryRoundCreator",
          "type": "address"
        },
        {
          "internalType": "address",
          "name": "_paymentToken",
          "type": "address"
        },
        {
          "internalType": "uint256",
          "name": "_ticketPrice",
          "type": "uint256"
        },
        {
          "internalType": "address",
          "name": "_treasuryWallet",
          "type": "address"
        },
        {
          "internalType": "uint16",
          "name": "_percentageOfReferralWinners",
          "type": "uint16"
        },
        {
          "internalType": "uint16[]",
          "name": "_poolPercentagesBasePoints",
          "type": "uint16[]"
        },
        {
          "internalType": "bool",
          "name": "_freeRoundsAreEnabled",
          "type": "bool"
        }
      ],
      "name": "updateSetup",
      "outputs": [],
      "stateMutability": "nonpayable",
      "type": "function"
    },
    {
      "inputs": [
        {
          "internalType": "address",
          "name": "_teamAddress",
          "type": "address"
        }
      ],
      "name": "updateTeamAddress",
      "outputs": [],
      "stateMutability": "nonpayable",
      "type": "function"
    }
  ],
  "transactionHash": "0x125488f5a2c6954dd399adcd23f0b81ae5542ced76a093626a545c36df124013",
  "args": [
    "0x05de28eD9aDE90F966BaE52e121732CeAEE2492d",
    "0x7f74bada1F713b047B4c4c909A18C740EC64C01E",
    "0xBdb6DBe74Fc46E44A60a3610C40E851b1c002217",
    "0x1CB8bF575BF514217a14d138F8B745DA601a962f",
    10,
    true
  ],
  "numDeployments": 1,
  "solcInputHash": "73d7ea94d051bf08f2c90406161ab00a",
  "bytecode": "0x60806040526000601060006101000a81548160ff021916908315150217905550600a601060016101000a81548161ffff021916908361ffff1602179055503480156200004a57600080fd5b5060405162005a6d38038062005a6d8339818101604052810190620000709190620005f8565b3380600073ffffffffffffffffffffffffffffffffffffffff168173ffffffffffffffffffffffffffffffffffffffff1603620000e75760006040517f1e4fbdf7000000000000000000000000000000000000000000000000000000008152600401620000de9190620006a5565b60405180910390fd5b620000f8816200045260201b60201c565b5080600160006101000a81548173ffffffffffffffffffffffffffffffffffffffff021916908373ffffffffffffffffffffffffffffffffffffffff1602179055505085600d60006101000a81548173ffffffffffffffffffffffffffffffffffffffff021916908373ffffffffffffffffffffffffffffffffffffffff160217905550600d60009054906101000a900473ffffffffffffffffffffffffffffffffffffffff1673ffffffffffffffffffffffffffffffffffffffff1663cd0f2311306040518263ffffffff1660e01b8152600401620001d9919062000723565b600060405180830381600087803b158015620001f457600080fd5b505af115801562000209573d6000803e3d6000fd5b5050505084600e60006101000a81548173ffffffffffffffffffffffffffffffffffffffff021916908373ffffffffffffffffffffffffffffffffffffffff16021790555083601060036101000a81548173ffffffffffffffffffffffffffffffffffffffff021916908373ffffffffffffffffffffffffffffffffffffffff16021790555082600c60006101000a81548173ffffffffffffffffffffffffffffffffffffffff021916908373ffffffffffffffffffffffffffffffffffffffff160217905550600c60009054906101000a900473ffffffffffffffffffffffffffffffffffffffff1673ffffffffffffffffffffffffffffffffffffffff1663313ce5676040518163ffffffff1660e01b8152600401602060405180830381865afa1580156200033e573d6000803e3d6000fd5b505050506040513d601f19601f8201168201806040525081019062000364919062000793565b60ff16600a62000375919062000948565b8262000382919062000999565b600f8190555080601060006101000a81548160ff02191690831515021790555033600b60006101000a81548173ffffffffffffffffffffffffffffffffffffffff021916908373ffffffffffffffffffffffffffffffffffffffff160217905550600a339080600181540180825580915050600190039060005260206000200160009091909190916101000a81548173ffffffffffffffffffffffffffffffffffffffff021916908373ffffffffffffffffffffffffffffffffffffffff160217905550505050505050620009e4565b60008060009054906101000a900473ffffffffffffffffffffffffffffffffffffffff169050816000806101000a81548173ffffffffffffffffffffffffffffffffffffffff021916908373ffffffffffffffffffffffffffffffffffffffff1602179055508173ffffffffffffffffffffffffffffffffffffffff168173ffffffffffffffffffffffffffffffffffffffff167f8be0079c531659141344cd1fd0a4f28419497f9722a3daafe3b4186f6b6457e060405160405180910390a35050565b600080fd5b600073ffffffffffffffffffffffffffffffffffffffff82169050919050565b600062000548826200051b565b9050919050565b6200055a816200053b565b81146200056657600080fd5b50565b6000815190506200057a816200054f565b92915050565b6000819050919050565b620005958162000580565b8114620005a157600080fd5b50565b600081519050620005b5816200058a565b92915050565b60008115159050919050565b620005d281620005bb565b8114620005de57600080fd5b50565b600081519050620005f281620005c7565b92915050565b60008060008060008060c0878903121562000618576200061762000516565b5b60006200062889828a0162000569565b96505060206200063b89828a0162000569565b95505060406200064e89828a0162000569565b94505060606200066189828a0162000569565b93505060806200067489828a01620005a4565b92505060a06200068789828a01620005e1565b9150509295509295509295565b6200069f816200053b565b82525050565b6000602082019050620006bc600083018462000694565b92915050565b600082825260208201905092915050565b7f4c6f74746572794d617374657256302e31000000000000000000000000000000600082015250565b60006200070b601183620006c2565b91506200071882620006d3565b602082019050919050565b60006040820190506200073a600083018462000694565b81810360208301526200074d81620006fc565b905092915050565b600060ff82169050919050565b6200076d8162000755565b81146200077957600080fd5b50565b6000815190506200078d8162000762565b92915050565b600060208284031215620007ac57620007ab62000516565b5b6000620007bc848285016200077c565b91505092915050565b7f4e487b7100000000000000000000000000000000000000000000000000000000600052601160045260246000fd5b60008160011c9050919050565b6000808291508390505b600185111562000853578086048111156200082b576200082a620007c5565b5b60018516156200083b5780820291505b80810290506200084b85620007f4565b94506200080b565b94509492505050565b6000826200086e576001905062000941565b816200087e576000905062000941565b8160018114620008975760028114620008a257620008d8565b600191505062000941565b60ff841115620008b757620008b6620007c5565b5b8360020a915084821115620008d157620008d0620007c5565b5b5062000941565b5060208310610133831016604e8410600b8410161715620009125782820a9050838111156200090c576200090b620007c5565b5b62000941565b62000921848484600162000801565b925090508184048111156200093b576200093a620007c5565b5b81810290505b9392505050565b6000620009558262000580565b9150620009628362000580565b9250620009917fffffffffffffffffffffffffffffffffffffffffffffffffffffffffffffffff84846200085c565b905092915050565b6000620009a68262000580565b9150620009b38362000580565b9250828202620009c38162000580565b91508282048414831517620009dd57620009dc620007c5565b5b5092915050565b61507980620009f46000396000f3fe608060405234801561001057600080fd5b50600436106102115760003560e01c806388e01a9811610125578063c96acb5a116100ad578063e91484241161007c578063e9148424146105a4578063eb7165fa146105c0578063f10fb584146105dc578063f2fde38b146105fa578063f4dec22b1461061657610211565b8063c96acb5a1461051c578063cedd1bc314610538578063d4fc42c614610568578063e03d753a1461058657610211565b8063998da3e9116100f4578063998da3e9146104a2578063a8eed12d146104be578063b33d8c54146104da578063b62fe01b146104f6578063bbd1783a1461051257610211565b806388e01a981461041a5780638c65c81f146104365780638da5cb5b1461046657806392566fdd1461048457610211565b806322429429116101a85780634615102c116101775780634615102c1461038a578063715018a6146103a657806375e5460d146103b05780637a5ed721146103e057806387da46f1146103fc57610211565b80632242942914610300578063258799f81461031e5780633013ce291461034e5780633fda7d951461036c57610211565b806314eb76ac116101e457806314eb76ac1461028e5780631abddf33146102aa5780631ed15aa4146102b45780631fcebf68146102d057610211565b80630d683dd914610216578063104dc360146102345780631209b1f614610252578063127f0b3f14610270575b600080fd5b61021e610634565b60405161022b9190613238565b60405180910390f35b61023c610647565b6040516102499190613294565b60405180910390f35b61025a61066d565b60405161026791906132c8565b60405180910390f35b610278610673565b60405161028591906132c8565b60405180910390f35b6102a860048036038101906102a39190613323565b610679565b005b6102b26106c5565b005b6102ce60048036038101906102c99190613388565b610bfb565b005b6102ea60048036038101906102e59190613323565b610e41565b6040516102f791906133e5565b60405180910390f35b610308610e62565b60405161031591906132c8565b60405180910390f35b6103386004803603810190610333919061342c565b610e68565b6040516103459190613294565b60405180910390f35b610356610ea7565b60405161036391906134b8565b60405180910390f35b610374610ecd565b60405161038191906132c8565b60405180910390f35b6103a4600480360381019061039f919061342c565b610ed3565b005b6103ae6111e4565b005b6103ca60048036038101906103c59190613323565b6111f8565b6040516103d791906134e2565b60405180910390f35b6103fa60048036038101906103f59190613682565b611218565b005b610404611303565b6040516104119190613726565b60405180910390f35b610434600480360381019061042f919061342c565b611329565b005b610450600480360381019061044b919061342c565b611557565b60405161045d9190613294565b60405180910390f35b61046e611596565b60405161047b9190613294565b60405180910390f35b61048c6115bf565b60405161049991906133e5565b60405180910390f35b6104bc60048036038101906104b79190613323565b6115d3565b005b6104d860048036038101906104d39190613388565b611694565b005b6104f460048036038101906104ef919061379c565b6116f7565b005b610510600480360381019061050b91906137e9565b6117be565b005b61051a611d81565b005b610536600480360381019061053191906137e9565b611dfe565b005b610552600480360381019061054d919061342c565b61200c565b60405161055f91906132c8565b60405180910390f35b610570612024565b60405161057d919061384a565b60405180910390f35b61058e61204a565b60405161059b91906134e2565b60405180910390f35b6105be60048036038101906105b99190613865565b61205d565b005b6105da60048036038101906105d59190613682565b612437565b005b6105e4612c10565b6040516105f1919061396c565b60405180910390f35b610614600480360381019061060f9190613323565b612c36565b005b61061e612cbc565b60405161062b91906133e5565b60405180910390f35b600460009054906101000a900460ff1681565b600b60009054906101000a900473ffffffffffffffffffffffffffffffffffffffff1681565b600f5481565b60025481565b610681612cd0565b80600160006101000a81548173ffffffffffffffffffffffffffffffffffffffff021916908373ffffffffffffffffffffffffffffffffffffffff16021790555050565b6000600e60009054906101000a900473ffffffffffffffffffffffffffffffffffffffff1673ffffffffffffffffffffffffffffffffffffffff1663b7991e336002543360006040518463ffffffff1660e01b815260040161072993929190613987565b602060405180830381865afa158015610746573d6000803e3d6000fd5b505050506040513d601f19601f8201168201806040525081019061076a91906139d3565b90506000600e60009054906101000a900473ffffffffffffffffffffffffffffffffffffffff1673ffffffffffffffffffffffffffffffffffffffff1663a521dc956002543360006040518463ffffffff1660e01b81526004016107d093929190613987565b602060405180830381865afa1580156107ed573d6000803e3d6000fd5b505050506040513d601f19601f8201168201806040525081019061081191906139d3565b905060008211806108225750600081115b610861576040517f08c379a000000000000000000000000000000000000000000000000000000000815260040161085890613a5d565b60405180910390fd5b808261086d9190613aac565b600c60009054906101000a900473ffffffffffffffffffffffffffffffffffffffff1673ffffffffffffffffffffffffffffffffffffffff166370a08231306040518263ffffffff1660e01b81526004016108c89190613294565b602060405180830381865afa1580156108e5573d6000803e3d6000fd5b505050506040513d601f19601f8201168201806040525081019061090991906139d3565b101561094a576040517f08c379a000000000000000000000000000000000000000000000000000000000815260040161094190613b2c565b60405180910390fd5b6003600160025461095b9190613b4c565b8154811061096c5761096b613b80565b5b9060005260206000200160009054906101000a900473ffffffffffffffffffffffffffffffffffffffff1673ffffffffffffffffffffffffffffffffffffffff1663d1349d0c600e60009054906101000a900473ffffffffffffffffffffffffffffffffffffffff1673ffffffffffffffffffffffffffffffffffffffff1663eed25896600254336040518363ffffffff1660e01b8152600401610a11929190613baf565b600060405180830381865afa158015610a2e573d6000803e3d6000fd5b505050506040513d6000823e3d601f19601f82011682018060405250810190610a579190613d94565b600e60009054906101000a900473ffffffffffffffffffffffffffffffffffffffff1673ffffffffffffffffffffffffffffffffffffffff166317ba3b7d600254336040518363ffffffff1660e01b8152600401610ab6929190613baf565b600060405180830381865afa158015610ad3573d6000803e3d6000fd5b505050506040513d6000823e3d601f19601f82011682018060405250810190610afc9190613f40565b6040518363ffffffff1660e01b8152600401610b19929190614252565b600060405180830381600087803b158015610b3357600080fd5b505af1158015610b47573d6000803e3d6000fd5b50505050600c60009054906101000a900473ffffffffffffffffffffffffffffffffffffffff1673ffffffffffffffffffffffffffffffffffffffff1663a9059cbb338385610b969190613aac565b6040518363ffffffff1660e01b8152600401610bb3929190614289565b6020604051808303816000875af1158015610bd2573d6000803e3d6000fd5b505050506040513d601f19601f82011682018060405250810190610bf691906142b2565b505050565b610c03612cd0565b60005b600a80549050811015610dd2578273ffffffffffffffffffffffffffffffffffffffff16600a8281548110610c3e57610c3d613b80565b5b9060005260206000200160009054906101000a900473ffffffffffffffffffffffffffffffffffffffff1673ffffffffffffffffffffffffffffffffffffffff1603610dc5578115610cd0576000610ccb576040517f08c379a0000000000000000000000000000000000000000000000000000000008152600401610cc29061432b565b60405180910390fd5b610dc4565b600a6001600a80549050610ce49190613b4c565b81548110610cf557610cf4613b80565b5b9060005260206000200160009054906101000a900473ffffffffffffffffffffffffffffffffffffffff16600a8281548110610d3457610d33613b80565b5b9060005260206000200160006101000a81548173ffffffffffffffffffffffffffffffffffffffff021916908373ffffffffffffffffffffffffffffffffffffffff160217905550600a805480610d8e57610d8d61434b565b5b6001900381819060005260206000200160006101000a81549073ffffffffffffffffffffffffffffffffffffffff021916905590555b5b8080600101915050610c06565b508015610e3d57600a829080600181540180825580915050600190039060005260206000200160009091909190916101000a81548173ffffffffffffffffffffffffffffffffffffffff021916908373ffffffffffffffffffffffffffffffffffffffff1602179055505b5050565b60076020528060005260406000206000915054906101000a900461ffff1681565b60065481565b600a8181548110610e7857600080fd5b906000526020600020016000915054906101000a900473ffffffffffffffffffffffffffffffffffffffff1681565b600c60009054906101000a900473ffffffffffffffffffffffffffffffffffffffff1681565b60055481565b610edb612cd0565b60026000815480929190610eee9061437a565b9190505550600160025411156110d2576003601060039054906101000a900473ffffffffffffffffffffffffffffffffffffffff1673ffffffffffffffffffffffffffffffffffffffff166363ea940f83600360028054610f4f9190613b4c565b81548110610f6057610f5f613b80565b5b9060005260206000200160009054906101000a900473ffffffffffffffffffffffffffffffffffffffff166040518363ffffffff1660e01b8152600401610fa8929190613baf565b6020604051808303816000875af1158015610fc7573d6000803e3d6000fd5b505050506040513d601f19601f82011682018060405250810190610feb91906143c2565b9080600181540180825580915050600190039060005260206000200160009091909190916101000a81548173ffffffffffffffffffffffffffffffffffffffff021916908373ffffffffffffffffffffffffffffffffffffffff16021790555060038081111561105e5761105d6131c1565b5b600460009054906101000a900460ff1660038111156110805761107f6131c1565b5b14801561108e575042600654105b6110cd576040517f08c379a00000000000000000000000000000000000000000000000000000000081526004016110c49061443b565b60405180910390fd5b6111d6565b6003601060039054906101000a900473ffffffffffffffffffffffffffffffffffffffff1673ffffffffffffffffffffffffffffffffffffffff166363ea940f8360006040518363ffffffff1660e01b8152600401611132929190613baf565b6020604051808303816000875af1158015611151573d6000803e3d6000fd5b505050506040513d601f19601f8201168201806040525081019061117591906143c2565b9080600181540180825580915050600190039060005260206000200160009091909190916101000a81548173ffffffffffffffffffffffffffffffffffffffff021916908373ffffffffffffffffffffffffffffffffffffffff1602179055505b6111e1600082612d57565b50565b6111ec612cd0565b6111f66000612da6565b565b60086020528060005260406000206000915054906101000a900460ff1681565b60005b83518110156112fc576000600667ffffffffffffffff81111561124157611240613513565b5b60405190808252806020026020018201604052801561126f5781602001602082028036833780820191505090505b50905060005b60068110156112da5785818461128b9190613aac565b8151811061129c5761129b613b80565b5b60200260200101518282815181106112b7576112b6613b80565b5b602002602001019061ffff16908161ffff16815250508080600101915050611275565b506112e786828686612437565b506006816112f59190613aac565b905061121b565b5050505050565b601060039054906101000a900473ffffffffffffffffffffffffffffffffffffffff1681565b611331612cd0565b6000600360016002546113449190613b4c565b8154811061135557611354613b80565b5b9060005260206000200160009054906101000a900473ffffffffffffffffffffffffffffffffffffffff1690508073ffffffffffffffffffffffffffffffffffffffff1663e278fe6f6040518163ffffffff1660e01b8152600401600060405180830381600087803b1580156113ca57600080fd5b505af11580156113de573d6000803e3d6000fd5b505050506000600e60009054906101000a900473ffffffffffffffffffffffffffffffffffffffff1673ffffffffffffffffffffffffffffffffffffffff1663f1664df66002546040518263ffffffff1660e01b815260040161144191906132c8565b602060405180830381865afa15801561145e573d6000803e3d6000fd5b505050506040513d601f19601f820116820180604052508101906114829190614470565b9050600d60009054906101000a900473ffffffffffffffffffffffffffffffffffffffff1673ffffffffffffffffffffffffffffffffffffffff1663e726f2e18260066114cf919061449d565b6040518263ffffffff1660e01b81526004016114eb9190614514565b6020604051808303816000875af115801561150a573d6000803e3d6000fd5b505050506040513d601f19601f8201168201806040525081019061152e91906139d3565b60116000600254815260200190815260200160002081905550611552600184612d57565b505050565b6003818154811061156757600080fd5b906000526020600020016000915054906101000a900473ffffffffffffffffffffffffffffffffffffffff1681565b60008060009054906101000a900473ffffffffffffffffffffffffffffffffffffffff16905090565b600960009054906101000a900461ffff1681565b6115db612cd0565b60008173ffffffffffffffffffffffffffffffffffffffff166370a08231306040518263ffffffff1660e01b81526004016116169190613294565b602060405180830381865afa158015611633573d6000803e3d6000fd5b505050506040513d601f19601f8201168201806040525081019061165791906139d3565b905060008111156116905761168f82600160009054906101000a900473ffffffffffffffffffffffffffffffffffffffff1683612e6a565b5b5050565b61169c612cd0565b80600860008473ffffffffffffffffffffffffffffffffffffffff1673ffffffffffffffffffffffffffffffffffffffff16815260200190815260200160002060006101000a81548160ff0219169083151502179055505050565b6116ff612cd0565b60005b828290508110156117b9576007600084848481811061172457611723613b80565b5b90506020020160208101906117399190613323565b73ffffffffffffffffffffffffffffffffffffffff1673ffffffffffffffffffffffffffffffffffffffff168152602001908152602001600020600081819054906101000a900461ffff16809291906117919061452f565b91906101000a81548161ffff021916908361ffff160217905550508080600101915050611702565b505050565b6117c6612cd0565b600060036001846117d79190613b4c565b815481106117e8576117e7613b80565b5b9060005260206000200160009054906101000a900473ffffffffffffffffffffffffffffffffffffffff1690508073ffffffffffffffffffffffffffffffffffffffff1663343f25666040518163ffffffff1660e01b815260040160006040518083038186803b15801561185b57600080fd5b505afa15801561186f573d6000803e3d6000fd5b50505050600080600d60009054906101000a900473ffffffffffffffffffffffffffffffffffffffff1673ffffffffffffffffffffffffffffffffffffffff1663d8a4676f60116000888152602001908152602001600020546040518263ffffffff1660e01b81526004016118e491906132c8565b600060405180830381865afa158015611901573d6000803e3d6000fd5b505050506040513d6000823e3d601f19601f8201168201806040525081019061192a919061461c565b915091508161196e576040517f08c379a0000000000000000000000000000000000000000000000000000000008152600401611965906146c4565b60405180910390fd5b6000600667ffffffffffffffff81111561198b5761198a613513565b5b6040519080825280602002602001820160405280156119b95781602001602082028036833780820191505090505b5090506000600683516119cc9190613b4c565b67ffffffffffffffff8111156119e5576119e4613513565b5b604051908082528060200260200182016040528015611a135781602001602082028036833780820191505090505b5090508315611d005760005b6006811015611b1957600e60009054906101000a900473ffffffffffffffffffffffffffffffffffffffff1673ffffffffffffffffffffffffffffffffffffffff16630c746a8a858381518110611a7957611a78613b80565b5b60200260200101516045866040518463ffffffff1660e01b8152600401611aa2939291906147dd565b602060405180830381865afa158015611abf573d6000803e3d6000fd5b505050506040513d601f19601f82011682018060405250810190611ae39190614470565b838281518110611af657611af5613b80565b5b602002602001019061ffff16908161ffff16815250508080600101915050611a1f565b506001601a84600581518110611b3257611b31613b80565b5b6020026020010151611b44919061484a565b611b4e9190613aac565b82600581518110611b6257611b61613b80565b5b602002602001019061ffff16908161ffff16815250506000600690505b8351811015611cfe57600e60009054906101000a900473ffffffffffffffffffffffffffffffffffffffff1673ffffffffffffffffffffffffffffffffffffffff16630c746a8a858381518110611bd957611bd8613b80565b5b60200260200101518873ffffffffffffffffffffffffffffffffffffffff16639f8743f76040518163ffffffff1660e01b81526004016000604051808303816000875af1158015611c2e573d6000803e3d6000fd5b505050506040513d6000823e3d601f19601f82011682018060405250810190611c579190614a8e565b6101400151856040518463ffffffff1660e01b8152600401611c7b93929190614ad7565b602060405180830381865afa158015611c98573d6000803e3d6000fd5b505050506040513d601f19601f82011682018060405250810190611cbc9190614470565b82600683611cca9190613b4c565b81518110611cdb57611cda613b80565b5b602002602001019061ffff16908161ffff16815250508080600101915050611b7f565b505b8473ffffffffffffffffffffffffffffffffffffffff16632724d10483836040518363ffffffff1660e01b8152600401611d3b929190614b15565b600060405180830381600087803b158015611d5557600080fd5b505af1158015611d69573d6000803e3d6000fd5b50505050611d78600287612d57565b50505050505050565b611d89612cd0565b6000471115611dfc57600160009054906101000a900473ffffffffffffffffffffffffffffffffffffffff1673ffffffffffffffffffffffffffffffffffffffff166108fc479081150290604051600060405180830381858888f19350505050158015611dfa573d6000803e3d6000fd5b505b565b611e06612cd0565b6003600183611e159190613b4c565b81548110611e2657611e25613b80565b5b9060005260206000200160009054906101000a900473ffffffffffffffffffffffffffffffffffffffff1673ffffffffffffffffffffffffffffffffffffffff1663d84652c8600e60009054906101000a900473ffffffffffffffffffffffffffffffffffffffff1673ffffffffffffffffffffffffffffffffffffffff16639f75e5c9856040518263ffffffff1660e01b8152600401611ec791906132c8565b600060405180830381865afa158015611ee4573d6000803e3d6000fd5b505050506040513d6000823e3d601f19601f82011682018060405250810190611f0d9190613d94565b600e60009054906101000a900473ffffffffffffffffffffffffffffffffffffffff1673ffffffffffffffffffffffffffffffffffffffff166348b2e35c866040518263ffffffff1660e01b8152600401611f6891906132c8565b600060405180830381865afa158015611f85573d6000803e3d6000fd5b505050506040513d6000823e3d601f19601f82011682018060405250810190611fae9190613f40565b6040518363ffffffff1660e01b8152600401611fcb929190614252565b600060405180830381600087803b158015611fe557600080fd5b505af1158015611ff9573d6000803e3d6000fd5b50505050612008600382612d57565b5050565b60116020528060005260406000206000915090505481565b600e60009054906101000a900473ffffffffffffffffffffffffffffffffffffffff1681565b601060009054906101000a900460ff1681565b612065612cd0565b8873ffffffffffffffffffffffffffffffffffffffff16600d60009054906101000a900473ffffffffffffffffffffffffffffffffffffffff1673ffffffffffffffffffffffffffffffffffffffff16146121895788600d60006101000a81548173ffffffffffffffffffffffffffffffffffffffff021916908373ffffffffffffffffffffffffffffffffffffffff160217905550600d60009054906101000a900473ffffffffffffffffffffffffffffffffffffffff1673ffffffffffffffffffffffffffffffffffffffff1663cd0f2311306040518263ffffffff1660e01b81526004016121569190614b98565b600060405180830381600087803b15801561217057600080fd5b505af1158015612184573d6000803e3d6000fd5b505050505b87600e60006101000a81548173ffffffffffffffffffffffffffffffffffffffff021916908373ffffffffffffffffffffffffffffffffffffffff16021790555086601060036101000a81548173ffffffffffffffffffffffffffffffffffffffff021916908373ffffffffffffffffffffffffffffffffffffffff16021790555085600c60006101000a81548173ffffffffffffffffffffffffffffffffffffffff021916908373ffffffffffffffffffffffffffffffffffffffff160217905550600c60009054906101000a900473ffffffffffffffffffffffffffffffffffffffff1673ffffffffffffffffffffffffffffffffffffffff1663313ce5676040518163ffffffff1660e01b8152600401602060405180830381865afa1580156122b9573d6000803e3d6000fd5b505050506040513d601f19601f820116820180604052508101906122dd9190614bff565b60ff16600a6122ec9190614d5f565b856122f79190614daa565b600f8190555083600b60006101000a81548173ffffffffffffffffffffffffffffffffffffffff021916908373ffffffffffffffffffffffffffffffffffffffff16021790555082601060016101000a81548161ffff021916908361ffff1602179055506003600160025461236c9190613b4c565b8154811061237d5761237c613b80565b5b9060005260206000200160009054906101000a900473ffffffffffffffffffffffffffffffffffffffff1673ffffffffffffffffffffffffffffffffffffffff16639469f293836040518263ffffffff1660e01b81526004016123e09190614dec565b600060405180830381600087803b1580156123fa57600080fd5b505af115801561240e573d6000803e3d6000fd5b5050505080601060006101000a81548160ff021916908315150217905550505050505050505050565b6000600760008373ffffffffffffffffffffffffffffffffffffffff1673ffffffffffffffffffffffffffffffffffffffff16815260200190815260200160002060009054906101000a900461ffff1661ffff1611806125365750600f54600c60009054906101000a900473ffffffffffffffffffffffffffffffffffffffff1673ffffffffffffffffffffffffffffffffffffffff1663dd62ed3e83306040518363ffffffff1660e01b81526004016124f2929190614e0e565b602060405180830381865afa15801561250f573d6000803e3d6000fd5b505050506040513d601f19601f8201168201806040525081019061253391906139d3565b10155b8061258a5750600860003373ffffffffffffffffffffffffffffffffffffffff1673ffffffffffffffffffffffffffffffffffffffff16815260200190815260200160002060009054906101000a900460ff165b6125c9576040517f08c379a00000000000000000000000000000000000000000000000000000000081526004016125c090614e83565b60405180910390fd5b6000600360016002546125dc9190613b4c565b815481106125ed576125ec613b80565b5b9060005260206000200160009054906101000a900473ffffffffffffffffffffffffffffffffffffffff1690506000600760008473ffffffffffffffffffffffffffffffffffffffff1673ffffffffffffffffffffffffffffffffffffffff16815260200190815260200160002060009054906101000a900461ffff1661ffff1611156126f157600760008373ffffffffffffffffffffffffffffffffffffffff1673ffffffffffffffffffffffffffffffffffffffff168152602001908152602001600020600081819054906101000a900461ffff16809291906126d190614ea3565b91906101000a81548161ffff021916908361ffff16021790555050612b98565b600860003373ffffffffffffffffffffffffffffffffffffffff1673ffffffffffffffffffffffffffffffffffffffff16815260200190815260200160002060009054906101000a900460ff166129eb57600f54600c60009054906101000a900473ffffffffffffffffffffffffffffffffffffffff1673ffffffffffffffffffffffffffffffffffffffff166370a08231326040518263ffffffff1660e01b81526004016127a09190613294565b602060405180830381865afa1580156127bd573d6000803e3d6000fd5b505050506040513d601f19601f820116820180604052508101906127e191906139d3565b1015612822576040517f08c379a000000000000000000000000000000000000000000000000000000000815260040161281990614f18565b60405180910390fd5b600a805490506009600081819054906101000a900461ffff16809291906128489061452f565b91906101000a81548161ffff021916908361ffff16021790555061ffff16612870919061484a565b600960006101000a81548161ffff021916908361ffff16021790555060008173ffffffffffffffffffffffffffffffffffffffff1663af33d08f600f546040518263ffffffff1660e01b81526004016128c991906132c8565b602060405180830381865afa1580156128e6573d6000803e3d6000fd5b505050506040513d601f19601f8201168201806040525081019061290a91906139d3565b9050612999600c60009054906101000a900473ffffffffffffffffffffffffffffffffffffffff1684600a600960009054906101000a900461ffff1661ffff168154811061295b5761295a613b80565b5b9060005260206000200160009054906101000a900473ffffffffffffffffffffffffffffffffffffffff1684600f546129949190613b4c565b612ee9565b6129e9600c60009054906101000a900473ffffffffffffffffffffffffffffffffffffffff1684600b60009054906101000a900473ffffffffffffffffffffffffffffffffffffffff1684612ee9565b505b8073ffffffffffffffffffffffffffffffffffffffff1663b56c12b4600f546040518263ffffffff1660e01b8152600401612a2691906132c8565b600060405180830381600087803b158015612a4057600080fd5b505af1158015612a54573d6000803e3d6000fd5b50505050600073ffffffffffffffffffffffffffffffffffffffff168373ffffffffffffffffffffffffffffffffffffffff1614158015612aa15750601060009054906101000a900460ff165b15612b9757600760008373ffffffffffffffffffffffffffffffffffffffff1673ffffffffffffffffffffffffffffffffffffffff168152602001908152602001600020600081819054906101000a900461ffff1680929190612b039061452f565b91906101000a81548161ffff021916908361ffff16021790555050600760008473ffffffffffffffffffffffffffffffffffffffff1673ffffffffffffffffffffffffffffffffffffffff168152602001908152602001600020600081819054906101000a900461ffff1680929190612b7b9061452f565b91906101000a81548161ffff021916908361ffff160217905550505b5b8073ffffffffffffffffffffffffffffffffffffffff1663eb7165fa868686866040518563ffffffff1660e01b8152600401612bd79493929190614f38565b600060405180830381600087803b158015612bf157600080fd5b505af1158015612c05573d6000803e3d6000fd5b505050505050505050565b600d60009054906101000a900473ffffffffffffffffffffffffffffffffffffffff1681565b612c3e612cd0565b600073ffffffffffffffffffffffffffffffffffffffff168173ffffffffffffffffffffffffffffffffffffffff1603612cb05760006040517f1e4fbdf7000000000000000000000000000000000000000000000000000000008152600401612ca79190613294565b60405180910390fd5b612cb981612da6565b50565b601060019054906101000a900461ffff1681565b612cd8612f6b565b73ffffffffffffffffffffffffffffffffffffffff16612cf6611596565b73ffffffffffffffffffffffffffffffffffffffff1614612d5557612d19612f6b565b6040517f118cdaa7000000000000000000000000000000000000000000000000000000008152600401612d4c9190613294565b60405180910390fd5b565b612d5f612cd0565b81600460006101000a81548160ff02191690836003811115612d8457612d836131c1565b5b0217905550426005819055508042612d9c9190613aac565b6006819055505050565b60008060009054906101000a900473ffffffffffffffffffffffffffffffffffffffff169050816000806101000a81548173ffffffffffffffffffffffffffffffffffffffff021916908373ffffffffffffffffffffffffffffffffffffffff1602179055508173ffffffffffffffffffffffffffffffffffffffff168173ffffffffffffffffffffffffffffffffffffffff167f8be0079c531659141344cd1fd0a4f28419497f9722a3daafe3b4186f6b6457e060405160405180910390a35050565b612ee4838473ffffffffffffffffffffffffffffffffffffffff1663a9059cbb8585604051602401612e9d929190614289565b604051602081830303815290604052915060e01b6020820180517bffffffffffffffffffffffffffffffffffffffffffffffffffffffff8381831617835250505050612f73565b505050565b612f65848573ffffffffffffffffffffffffffffffffffffffff166323b872dd868686604051602401612f1e93929190614f84565b604051602081830303815290604052915060e01b6020820180517bffffffffffffffffffffffffffffffffffffffffffffffffffffffff8381831617835250505050612f73565b50505050565b600033905090565b6000612f9e828473ffffffffffffffffffffffffffffffffffffffff1661300a90919063ffffffff16565b90506000815114158015612fc3575080806020019051810190612fc191906142b2565b155b1561300557826040517f5274afe7000000000000000000000000000000000000000000000000000000008152600401612ffc9190613294565b60405180910390fd5b505050565b606061301883836000613020565b905092915050565b60608147101561306757306040517fcd78605900000000000000000000000000000000000000000000000000000000815260040161305e9190613294565b60405180910390fd5b6000808573ffffffffffffffffffffffffffffffffffffffff168486604051613090919061502c565b60006040518083038185875af1925050503d80600081146130cd576040519150601f19603f3d011682016040523d82523d6000602084013e6130d2565b606091505b50915091506130e28683836130ed565b925050509392505050565b606082613102576130fd8261317c565b613174565b6000825114801561312a575060008473ffffffffffffffffffffffffffffffffffffffff163b145b1561316c57836040517f9996b3150000000000000000000000000000000000000000000000000000000081526004016131639190613294565b60405180910390fd5b819050613175565b5b9392505050565b60008151111561318f5780518082602001fd5b6040517f1425ea4200000000000000000000000000000000000000000000000000000000815260040160405180910390fd5b7f4e487b7100000000000000000000000000000000000000000000000000000000600052602160045260246000fd5b60048110613201576132006131c1565b5b50565b6000819050613212826131f0565b919050565b600061322282613204565b9050919050565b61323281613217565b82525050565b600060208201905061324d6000830184613229565b92915050565b600073ffffffffffffffffffffffffffffffffffffffff82169050919050565b600061327e82613253565b9050919050565b61328e81613273565b82525050565b60006020820190506132a96000830184613285565b92915050565b6000819050919050565b6132c2816132af565b82525050565b60006020820190506132dd60008301846132b9565b92915050565b6000604051905090565b600080fd5b600080fd5b61330081613273565b811461330b57600080fd5b50565b60008135905061331d816132f7565b92915050565b600060208284031215613339576133386132ed565b5b60006133478482850161330e565b91505092915050565b60008115159050919050565b61336581613350565b811461337057600080fd5b50565b6000813590506133828161335c565b92915050565b6000806040838503121561339f5761339e6132ed565b5b60006133ad8582860161330e565b92505060206133be85828601613373565b9150509250929050565b600061ffff82169050919050565b6133df816133c8565b82525050565b60006020820190506133fa60008301846133d6565b92915050565b613409816132af565b811461341457600080fd5b50565b60008135905061342681613400565b92915050565b600060208284031215613442576134416132ed565b5b600061345084828501613417565b91505092915050565b6000819050919050565b600061347e61347961347484613253565b613459565b613253565b9050919050565b600061349082613463565b9050919050565b60006134a282613485565b9050919050565b6134b281613497565b82525050565b60006020820190506134cd60008301846134a9565b92915050565b6134dc81613350565b82525050565b60006020820190506134f760008301846134d3565b92915050565b600080fd5b6000601f19601f8301169050919050565b7f4e487b7100000000000000000000000000000000000000000000000000000000600052604160045260246000fd5b61354b82613502565b810181811067ffffffffffffffff8211171561356a57613569613513565b5b80604052505050565b600061357d6132e3565b90506135898282613542565b919050565b600067ffffffffffffffff8211156135a9576135a8613513565b5b602082029050602081019050919050565b600080fd5b6135c8816133c8565b81146135d357600080fd5b50565b6000813590506135e5816135bf565b92915050565b60006135fe6135f98461358e565b613573565b90508083825260208201905060208402830185811115613621576136206135ba565b5b835b8181101561364a578061363688826135d6565b845260208401935050602081019050613623565b5050509392505050565b600082601f830112613669576136686134fd565b5b81356136798482602086016135eb565b91505092915050565b6000806000806080858703121561369c5761369b6132ed565b5b60006136aa87828801613417565b945050602085013567ffffffffffffffff8111156136cb576136ca6132f2565b5b6136d787828801613654565b93505060406136e88782880161330e565b92505060606136f98782880161330e565b91505092959194509250565b600061371082613485565b9050919050565b61372081613705565b82525050565b600060208201905061373b6000830184613717565b92915050565b600080fd5b60008083601f84011261375c5761375b6134fd565b5b8235905067ffffffffffffffff81111561377957613778613741565b5b602083019150836020820283011115613795576137946135ba565b5b9250929050565b600080602083850312156137b3576137b26132ed565b5b600083013567ffffffffffffffff8111156137d1576137d06132f2565b5b6137dd85828601613746565b92509250509250929050565b60008060408385031215613800576137ff6132ed565b5b600061380e85828601613417565b925050602061381f85828601613417565b9150509250929050565b600061383482613485565b9050919050565b61384481613829565b82525050565b600060208201905061385f600083018461383b565b92915050565b60008060008060008060008060006101208a8c031215613888576138876132ed565b5b60006138968c828d0161330e565b99505060206138a78c828d0161330e565b98505060406138b88c828d0161330e565b97505060606138c98c828d0161330e565b96505060806138da8c828d01613417565b95505060a06138eb8c828d0161330e565b94505060c06138fc8c828d016135d6565b93505060e08a013567ffffffffffffffff81111561391d5761391c6132f2565b5b6139298c828d01613654565b92505061010061393b8c828d01613373565b9150509295985092959850929598565b600061395682613485565b9050919050565b6139668161394b565b82525050565b6000602082019050613981600083018461395d565b92915050565b600060608201905061399c60008301866132b9565b6139a96020830185613285565b6139b660408301846134d3565b949350505050565b6000815190506139cd81613400565b92915050565b6000602082840312156139e9576139e86132ed565b5b60006139f7848285016139be565b91505092915050565b600082825260208201905092915050565b7f4e6f7468696e6720746f20636c61696d20666f7220746869732077616c6c6574600082015250565b6000613a47602083613a00565b9150613a5282613a11565b602082019050919050565b60006020820190508181036000830152613a7681613a3a565b9050919050565b7f4e487b7100000000000000000000000000000000000000000000000000000000600052601160045260246000fd5b6000613ab7826132af565b9150613ac2836132af565b9250828201905080821115613ada57613ad9613a7d565b5b92915050565b7f4e6f7420656e6f7567682066756e6473206f6e20636f6e747261637400000000600082015250565b6000613b16601c83613a00565b9150613b2182613ae0565b602082019050919050565b60006020820190508181036000830152613b4581613b09565b9050919050565b6000613b57826132af565b9150613b62836132af565b9250828203905081811115613b7a57613b79613a7d565b5b92915050565b7f4e487b7100000000000000000000000000000000000000000000000000000000600052603260045260246000fd5b6000604082019050613bc460008301856132b9565b613bd16020830184613285565b9392505050565b600067ffffffffffffffff821115613bf357613bf2613513565b5b602082029050602081019050919050565b600080fd5b600080fd5b600081519050613c1d816132f7565b92915050565b600b8110613c3057600080fd5b50565b600081519050613c4281613c23565b92915050565b600081519050613c578161335c565b92915050565b600060c08284031215613c7357613c72613c04565b5b613c7d60c0613573565b90506000613c8d848285016139be565b6000830152506020613ca184828501613c0e565b6020830152506040613cb584828501613c33565b6040830152506060613cc984828501613c48565b6060830152506080613cdd84828501613c48565b60808301525060a0613cf1848285016139be565b60a08301525092915050565b6000613d10613d0b84613bd8565b613573565b90508083825260208201905060c08402830185811115613d3357613d326135ba565b5b835b81811015613d5c5780613d488882613c5d565b84526020840193505060c081019050613d35565b5050509392505050565b600082601f830112613d7b57613d7a6134fd565b5b8151613d8b848260208601613cfd565b91505092915050565b600060208284031215613daa57613da96132ed565b5b600082015167ffffffffffffffff811115613dc857613dc76132f2565b5b613dd484828501613d66565b91505092915050565b600067ffffffffffffffff821115613df857613df7613513565b5b602082029050602081019050919050565b600060c08284031215613e1f57613e1e613c04565b5b613e2960c0613573565b90506000613e39848285016139be565b6000830152506020613e4d84828501613c0e565b6020830152506040613e61848285016139be565b6040830152506060613e7584828501613c48565b6060830152506080613e8984828501613c48565b60808301525060a0613e9d848285016139be565b60a08301525092915050565b6000613ebc613eb784613ddd565b613573565b90508083825260208201905060c08402830185811115613edf57613ede6135ba565b5b835b81811015613f085780613ef48882613e09565b84526020840193505060c081019050613ee1565b5050509392505050565b600082601f830112613f2757613f266134fd565b5b8151613f37848260208601613ea9565b91505092915050565b600060208284031215613f5657613f556132ed565b5b600082015167ffffffffffffffff811115613f7457613f736132f2565b5b613f8084828501613f12565b91505092915050565b600081519050919050565b600082825260208201905092915050565b6000819050602082019050919050565b613fbe816132af565b82525050565b613fcd81613273565b82525050565b600b8110613fe457613fe36131c1565b5b50565b6000819050613ff582613fd3565b919050565b600061400582613fe7565b9050919050565b61401581613ffa565b82525050565b61402481613350565b82525050565b60c0820160008201516140406000850182613fb5565b5060208201516140536020850182613fc4565b506040820151614066604085018261400c565b506060820151614079606085018261401b565b50608082015161408c608085018261401b565b5060a082015161409f60a0850182613fb5565b50505050565b60006140b1838361402a565b60c08301905092915050565b6000602082019050919050565b60006140d582613f89565b6140df8185613f94565b93506140ea83613fa5565b8060005b8381101561411b57815161410288826140a5565b975061410d836140bd565b9250506001810190506140ee565b5085935050505092915050565b600081519050919050565b600082825260208201905092915050565b6000819050602082019050919050565b60c08201600082015161416a6000850182613fb5565b50602082015161417d6020850182613fc4565b5060408201516141906040850182613fb5565b5060608201516141a3606085018261401b565b5060808201516141b6608085018261401b565b5060a08201516141c960a0850182613fb5565b50505050565b60006141db8383614154565b60c08301905092915050565b6000602082019050919050565b60006141ff82614128565b6142098185614133565b935061421483614144565b8060005b8381101561424557815161422c88826141cf565b9750614237836141e7565b925050600181019050614218565b5085935050505092915050565b6000604082019050818103600083015261426c81856140ca565b9050818103602083015261428081846141f4565b90509392505050565b600060408201905061429e6000830185613285565b6142ab60208301846132b9565b9392505050565b6000602082840312156142c8576142c76132ed565b5b60006142d684828501613c48565b91505092915050565b7f57616c6c657420616c7265616479206164646564000000000000000000000000600082015250565b6000614315601483613a00565b9150614320826142df565b602082019050919050565b6000602082019050818103600083015261434481614308565b9050919050565b7f4e487b7100000000000000000000000000000000000000000000000000000000600052603160045260246000fd5b6000614385826132af565b91507fffffffffffffffffffffffffffffffffffffffffffffffffffffffffffffffff82036143b7576143b6613a7d565b5b600182019050919050565b6000602082840312156143d8576143d76132ed565b5b60006143e684828501613c0e565b91505092915050565b7f50726576696f757320726f756e64206e6f7420656e6465640000000000000000600082015250565b6000614425601883613a00565b9150614430826143ef565b602082019050919050565b6000602082019050818103600083015261445481614418565b9050919050565b60008151905061446a816135bf565b92915050565b600060208284031215614486576144856132ed565b5b60006144948482850161445b565b91505092915050565b60006144a8826133c8565b91506144b3836133c8565b9250828201905061ffff8111156144cd576144cc613a7d565b5b92915050565b600063ffffffff82169050919050565b60006144fe6144f96144f4846133c8565b613459565b6144d3565b9050919050565b61450e816144e3565b82525050565b60006020820190506145296000830184614505565b92915050565b600061453a826133c8565b915061ffff820361454e5761454d613a7d565b5b600182019050919050565b600067ffffffffffffffff82111561457457614573613513565b5b602082029050602081019050919050565b600061459861459384614559565b613573565b905080838252602082019050602084028301858111156145bb576145ba6135ba565b5b835b818110156145e457806145d088826139be565b8452602084019350506020810190506145bd565b5050509392505050565b600082601f830112614603576146026134fd565b5b8151614613848260208601614585565b91505092915050565b60008060408385031215614633576146326132ed565b5b600061464185828601613c48565b925050602083015167ffffffffffffffff811115614662576146616132f2565b5b61466e858286016145ee565b9150509250929050565b7f52616e646f6d206e756d62657273206e6f742072656164790000000000000000600082015250565b60006146ae601883613a00565b91506146b982614678565b602082019050919050565b600060208201905081810360008301526146dd816146a1565b9050919050565b6000819050919050565b60006147096147046146ff846146e4565b613459565b6133c8565b9050919050565b614719816146ee565b82525050565b600081519050919050565b600082825260208201905092915050565b6000819050602082019050919050565b614754816133c8565b82525050565b6000614766838361474b565b60208301905092915050565b6000602082019050919050565b600061478a8261471f565b614794818561472a565b935061479f8361473b565b8060005b838110156147d05781516147b7888261475a565b97506147c283614772565b9250506001810190506147a3565b5085935050505092915050565b60006060820190506147f260008301866132b9565b6147ff6020830185614710565b8181036040830152614811818461477f565b9050949350505050565b7f4e487b7100000000000000000000000000000000000000000000000000000000600052601260045260246000fd5b6000614855826132af565b9150614860836132af565b9250826148705761486f61481b565b5b828206905092915050565b600061488e6148898461358e565b613573565b905080838252602082019050602084028301858111156148b1576148b06135ba565b5b835b818110156148da57806148c6888261445b565b8452602084019350506020810190506148b3565b5050509392505050565b600082601f8301126148f9576148f86134fd565b5b815161490984826020860161487b565b91505092915050565b6000610160828403121561492957614928613c04565b5b614934610160613573565b90506000614944848285016139be565b6000830152506020614958848285016139be565b602083015250604061496c848285016139be565b604083015250606061498084828501613c48565b606083015250608082015167ffffffffffffffff8111156149a4576149a3613c09565b5b6149b0848285016148e4565b60808301525060a082015167ffffffffffffffff8111156149d4576149d3613c09565b5b6149e0848285016145ee565b60a08301525060c06149f48482850161445b565b60c08301525060e082015167ffffffffffffffff811115614a1857614a17613c09565b5b614a24848285016145ee565b60e083015250610100614a398482850161445b565b6101008301525061012082015167ffffffffffffffff811115614a5f57614a5e613c09565b5b614a6b848285016145ee565b61012083015250610140614a818482850161445b565b6101408301525092915050565b600060208284031215614aa457614aa36132ed565b5b600082015167ffffffffffffffff811115614ac257614ac16132f2565b5b614ace84828501614912565b91505092915050565b6000606082019050614aec60008301866132b9565b614af960208301856133d6565b8181036040830152614b0b818461477f565b9050949350505050565b60006040820190508181036000830152614b2f818561477f565b90508181036020830152614b43818461477f565b90509392505050565b7f4c6f74746572794d617374657256302e31000000000000000000000000000000600082015250565b6000614b82601183613a00565b9150614b8d82614b4c565b602082019050919050565b6000604082019050614bad6000830184613285565b8181036020830152614bbe81614b75565b905092915050565b600060ff82169050919050565b614bdc81614bc6565b8114614be757600080fd5b50565b600081519050614bf981614bd3565b92915050565b600060208284031215614c1557614c146132ed565b5b6000614c2384828501614bea565b91505092915050565b60008160011c9050919050565b6000808291508390505b6001851115614c8357808604811115614c5f57614c5e613a7d565b5b6001851615614c6e5780820291505b8081029050614c7c85614c2c565b9450614c43565b94509492505050565b600082614c9c5760019050614d58565b81614caa5760009050614d58565b8160018114614cc05760028114614cca57614cf9565b6001915050614d58565b60ff841115614cdc57614cdb613a7d565b5b8360020a915084821115614cf357614cf2613a7d565b5b50614d58565b5060208310610133831016604e8410600b8410161715614d2e5782820a905083811115614d2957614d28613a7d565b5b614d58565b614d3b8484846001614c39565b92509050818404811115614d5257614d51613a7d565b5b81810290505b9392505050565b6000614d6a826132af565b9150614d75836132af565b9250614da27fffffffffffffffffffffffffffffffffffffffffffffffffffffffffffffffff8484614c8c565b905092915050565b6000614db5826132af565b9150614dc0836132af565b9250828202614dce816132af565b91508282048414831517614de557614de4613a7d565b5b5092915050565b60006020820190508181036000830152614e06818461477f565b905092915050565b6000604082019050614e236000830185613285565b614e306020830184613285565b9392505050565b7f4d697373696e6720416c6c6f77616e6365000000000000000000000000000000600082015250565b6000614e6d601183613a00565b9150614e7882614e37565b602082019050919050565b60006020820190508181036000830152614e9c81614e60565b9050919050565b6000614eae826133c8565b915060008203614ec157614ec0613a7d565b5b600182039050919050565b7f496e73756666696369656e742066756e64730000000000000000000000000000600082015250565b6000614f02601283613a00565b9150614f0d82614ecc565b602082019050919050565b60006020820190508181036000830152614f3181614ef5565b9050919050565b6000608082019050614f4d60008301876132b9565b8181036020830152614f5f818661477f565b9050614f6e6040830185613285565b614f7b6060830184613285565b95945050505050565b6000606082019050614f996000830186613285565b614fa66020830185613285565b614fb360408301846132b9565b949350505050565b600081519050919050565b600081905092915050565b60005b83811015614fef578082015181840152602081019050614fd4565b60008484015250505050565b600061500682614fbb565b6150108185614fc6565b9350615020818560208601614fd1565b80840191505092915050565b60006150388284614ffb565b91508190509291505056fea26469706673582212207ef72456690f27731738fbb917bb524c9c948c10b1adbfb17873892bcc9887d264736f6c63430008180033",
  "devdoc": {
    "errors": {
      "AddressEmptyCode(address)": [
        {
          "details": "There's no code at `target` (it is not a contract)."
        }
      ],
      "AddressInsufficientBalance(address)": [
        {
          "details": "The ETH balance of the account is not enough to perform the operation."
        }
      ],
      "FailedInnerCall()": [
        {
          "details": "A call to an address target failed. The target may have reverted."
        }
      ],
      "OwnableInvalidOwner(address)": [
        {
          "details": "The owner is not a valid owner account. (eg. `address(0)`)"
        }
      ],
      "OwnableUnauthorizedAccount(address)": [
        {
          "details": "The caller account is not authorized to perform an operation."
        }
      ],
      "SafeERC20FailedOperation(address)": [
        {
          "details": "An operation with an ERC20 token failed."
        }
      ]
    },
    "kind": "dev",
    "methods": {
      "owner()": {
        "details": "Returns the address of the current owner."
      },
      "renounceOwnership()": {
        "details": "Leaves the contract without owner. It will not be possible to call `onlyOwner` functions. Can only be called by the current owner. NOTE: Renouncing ownership will leave the contract without an owner, thereby disabling any functionality that is only available to the owner."
      },
      "transferOwnership(address)": {
        "details": "Transfers ownership of the contract to a new account (`newOwner`). Can only be called by the current owner."
      }
    },
    "version": 1
  },
  "userdoc": {
    "kind": "user",
    "methods": {},
    "version": 1
  },
  "storageLayout": {
    "storage": [
      {
        "astId": 8,
        "contract": "contracts/LotteryMaster.sol:LotteryMaster",
        "label": "_owner",
        "offset": 0,
        "slot": "0",
        "type": "t_address"
      },
      {
        "astId": 4894,
        "contract": "contracts/LotteryMaster.sol:LotteryMaster",
        "label": "teamAddress",
        "offset": 0,
        "slot": "1",
        "type": "t_address"
      },
      {
        "astId": 1026,
        "contract": "contracts/LotteryMaster.sol:LotteryMaster",
        "label": "roundCount",
        "offset": 0,
        "slot": "2",
        "type": "t_uint256"
      },
      {
        "astId": 1029,
        "contract": "contracts/LotteryMaster.sol:LotteryMaster",
        "label": "rounds",
        "offset": 0,
        "slot": "3",
        "type": "t_array(t_address)dyn_storage"
      },
      {
        "astId": 1032,
        "contract": "contracts/LotteryMaster.sol:LotteryMaster",
        "label": "lotteryStatus",
        "offset": 0,
        "slot": "4",
        "type": "t_enum(LotteryStatuses)1022"
      },
      {
        "astId": 1034,
        "contract": "contracts/LotteryMaster.sol:LotteryMaster",
        "label": "statusStartTime",
        "offset": 0,
        "slot": "5",
        "type": "t_uint256"
      },
      {
        "astId": 1036,
        "contract": "contracts/LotteryMaster.sol:LotteryMaster",
        "label": "statusEndTime",
        "offset": 0,
        "slot": "6",
        "type": "t_uint256"
      },
      {
        "astId": 1040,
        "contract": "contracts/LotteryMaster.sol:LotteryMaster",
        "label": "freeRounds",
        "offset": 0,
        "slot": "7",
        "type": "t_mapping(t_address,t_uint16)"
      },
      {
        "astId": 1044,
        "contract": "contracts/LotteryMaster.sol:LotteryMaster",
        "label": "crossChainOperator",
        "offset": 0,
        "slot": "8",
        "type": "t_mapping(t_address,t_bool)"
      },
      {
        "astId": 1062,
        "contract": "contracts/LotteryMaster.sol:LotteryMaster",
        "label": "counterForBankWallets",
        "offset": 0,
        "slot": "9",
        "type": "t_uint16"
      },
      {
        "astId": 1065,
        "contract": "contracts/LotteryMaster.sol:LotteryMaster",
        "label": "bankWallets",
        "offset": 0,
        "slot": "10",
        "type": "t_array(t_address)dyn_storage"
      },
      {
        "astId": 1131,
        "contract": "contracts/LotteryMaster.sol:LotteryMaster",
        "label": "treasuryWallets",
        "offset": 0,
        "slot": "11",
        "type": "t_address"
      },
      {
        "astId": 1134,
        "contract": "contracts/LotteryMaster.sol:LotteryMaster",
        "label": "paymentToken",
        "offset": 0,
        "slot": "12",
        "type": "t_contract(IERC20Metadata)251"
      },
      {
        "astId": 1137,
        "contract": "contracts/LotteryMaster.sol:LotteryMaster",
        "label": "randomizer",
        "offset": 0,
        "slot": "13",
        "type": "t_contract(CyclixRandomizerInterface)901"
      },
      {
        "astId": 1140,
        "contract": "contracts/LotteryMaster.sol:LotteryMaster",
        "label": "reader",
        "offset": 0,
        "slot": "14",
        "type": "t_contract(LotteryReaderInterface)3634"
      },
      {
        "astId": 1142,
        "contract": "contracts/LotteryMaster.sol:LotteryMaster",
        "label": "ticketPrice",
        "offset": 0,
        "slot": "15",
        "type": "t_uint256"
      },
      {
        "astId": 1145,
        "contract": "contracts/LotteryMaster.sol:LotteryMaster",
        "label": "freeRoundsAreEnabled",
        "offset": 0,
        "slot": "16",
        "type": "t_bool"
      },
      {
        "astId": 1148,
        "contract": "contracts/LotteryMaster.sol:LotteryMaster",
        "label": "percentageOfReferralWinners",
        "offset": 1,
        "slot": "16",
        "type": "t_uint16"
      },
      {
        "astId": 1151,
        "contract": "contracts/LotteryMaster.sol:LotteryMaster",
        "label": "lotteryRoundCreator",
        "offset": 3,
        "slot": "16",
        "type": "t_contract(LotteryRoundCreatorInterface)4771"
      },
      {
        "astId": 1684,
        "contract": "contracts/LotteryMaster.sol:LotteryMaster",
        "label": "publicRoundRandomNumbersRequestId",
        "offset": 0,
        "slot": "17",
        "type": "t_mapping(t_uint256,t_uint256)"
      }
    ],
    "types": {
      "t_address": {
        "encoding": "inplace",
        "label": "address",
        "numberOfBytes": "20"
      },
      "t_array(t_address)dyn_storage": {
        "base": "t_address",
        "encoding": "dynamic_array",
        "label": "address[]",
        "numberOfBytes": "32"
      },
      "t_bool": {
        "encoding": "inplace",
        "label": "bool",
        "numberOfBytes": "1"
      },
      "t_contract(CyclixRandomizerInterface)901": {
        "encoding": "inplace",
        "label": "contract CyclixRandomizerInterface",
        "numberOfBytes": "20"
      },
      "t_contract(IERC20Metadata)251": {
        "encoding": "inplace",
        "label": "contract IERC20Metadata",
        "numberOfBytes": "20"
      },
      "t_contract(LotteryReaderInterface)3634": {
        "encoding": "inplace",
        "label": "contract LotteryReaderInterface",
        "numberOfBytes": "20"
      },
      "t_contract(LotteryRoundCreatorInterface)4771": {
        "encoding": "inplace",
        "label": "contract LotteryRoundCreatorInterface",
        "numberOfBytes": "20"
      },
      "t_enum(LotteryStatuses)1022": {
        "encoding": "inplace",
        "label": "enum LotteryStatuses",
        "numberOfBytes": "1"
      },
      "t_mapping(t_address,t_bool)": {
        "encoding": "mapping",
        "key": "t_address",
        "label": "mapping(address => bool)",
        "numberOfBytes": "32",
        "value": "t_bool"
      },
      "t_mapping(t_address,t_uint16)": {
        "encoding": "mapping",
        "key": "t_address",
        "label": "mapping(address => uint16)",
        "numberOfBytes": "32",
        "value": "t_uint16"
      },
      "t_mapping(t_uint256,t_uint256)": {
        "encoding": "mapping",
        "key": "t_uint256",
        "label": "mapping(uint256 => uint256)",
        "numberOfBytes": "32",
        "value": "t_uint256"
      },
      "t_uint16": {
        "encoding": "inplace",
        "label": "uint16",
        "numberOfBytes": "2"
      },
      "t_uint256": {
        "encoding": "inplace",
        "label": "uint256",
        "numberOfBytes": "32"
      }
    }
  }
}