{
  "address": "0x57ed10E20A9B9Dc6BB91a10d559Ff3AF49D20C59",
  "abi": [
    {
      "inputs": [],
      "stateMutability": "nonpayable",
      "type": "constructor"
    },
    {
      "inputs": [
        {
          "internalType": "address",
          "name": "target",
          "type": "address"
        }
      ],
      "name": "AddressEmptyCode",
      "type": "error"
    },
    {
      "inputs": [
        {
          "internalType": "address",
          "name": "account",
          "type": "address"
        }
      ],
      "name": "AddressInsufficientBalance",
      "type": "error"
    },
    {
      "inputs": [],
      "name": "FailedInnerCall",
      "type": "error"
    },
    {
      "inputs": [
        {
          "internalType": "address",
          "name": "owner",
          "type": "address"
        }
      ],
      "name": "OwnableInvalidOwner",
      "type": "error"
    },
    {
      "inputs": [
        {
          "internalType": "address",
          "name": "account",
          "type": "address"
        }
      ],
      "name": "OwnableUnauthorizedAccount",
      "type": "error"
    },
    {
      "inputs": [
        {
          "internalType": "address",
          "name": "token",
          "type": "address"
        }
      ],
      "name": "SafeERC20FailedOperation",
      "type": "error"
    },
    {
      "anonymous": false,
      "inputs": [
        {
          "indexed": true,
          "internalType": "address",
          "name": "previousOwner",
          "type": "address"
        },
        {
          "indexed": true,
          "internalType": "address",
          "name": "newOwner",
          "type": "address"
        }
      ],
      "name": "OwnershipTransferred",
      "type": "event"
    },
    {
      "inputs": [
        {
          "internalType": "uint256",
          "name": "roundId",
          "type": "uint256"
        }
      ],
      "name": "amountWonInRound",
      "outputs": [
        {
          "internalType": "uint256",
          "name": "",
          "type": "uint256"
        }
      ],
      "stateMutability": "view",
      "type": "function"
    },
    {
      "inputs": [
        {
          "internalType": "uint256",
          "name": "roundId",
          "type": "uint256"
        },
        {
          "internalType": "uint256",
          "name": "referralTicketId",
          "type": "uint256"
        }
      ],
      "name": "evaluateWonResultsForOneReferralTicket",
      "outputs": [
        {
          "components": [
            {
              "internalType": "uint256",
              "name": "referralTicketId",
              "type": "uint256"
            },
            {
              "internalType": "address",
              "name": "referralAddress",
              "type": "address"
            },
            {
              "internalType": "bool",
              "name": "won",
              "type": "bool"
            }
          ],
          "internalType": "struct ReferralTicketResults",
          "name": "",
          "type": "tuple"
        }
      ],
      "stateMutability": "view",
      "type": "function"
    },
    {
      "inputs": [
        {
          "internalType": "uint256",
          "name": "roundId",
          "type": "uint256"
        },
        {
          "internalType": "uint256",
          "name": "ticketId",
          "type": "uint256"
        }
      ],
      "name": "evaluateWonResultsForOneTicket",
      "outputs": [
        {
          "components": [
            {
              "internalType": "uint256",
              "name": "ticketId",
              "type": "uint256"
            },
            {
              "internalType": "address",
              "name": "participantAddress",
              "type": "address"
            },
            {
              "internalType": "enum RoundVictoryTier",
              "name": "victoryTier",
              "type": "uint8"
            }
          ],
          "internalType": "struct TicketResults",
          "name": "",
          "type": "tuple"
        }
      ],
      "stateMutability": "view",
      "type": "function"
    },
    {
      "inputs": [
        {
          "internalType": "uint256",
          "name": "roundId",
          "type": "uint256"
        }
      ],
      "name": "evaluateWonResultsForReferral",
      "outputs": [
        {
          "components": [
            {
              "internalType": "uint256",
              "name": "referralTicketId",
              "type": "uint256"
            },
            {
              "internalType": "address",
              "name": "referralAddress",
              "type": "address"
            },
            {
              "internalType": "bool",
              "name": "won",
              "type": "bool"
            }
          ],
          "internalType": "struct ReferralTicketResults[]",
          "name": "",
          "type": "tuple[]"
        }
      ],
      "stateMutability": "view",
      "type": "function"
    },
    {
      "inputs": [
        {
          "internalType": "uint256",
          "name": "roundId",
          "type": "uint256"
        }
      ],
      "name": "evaluateWonResultsForTickets",
      "outputs": [
        {
          "components": [
            {
              "internalType": "uint256",
              "name": "ticketId",
              "type": "uint256"
            },
            {
              "internalType": "address",
              "name": "participantAddress",
              "type": "address"
            },
            {
              "internalType": "enum RoundVictoryTier",
              "name": "victoryTier",
              "type": "uint8"
            }
          ],
          "internalType": "struct TicketResults[]",
          "name": "",
          "type": "tuple[]"
        }
      ],
      "stateMutability": "view",
      "type": "function"
    },
    {
      "inputs": [
        {
          "internalType": "uint16",
          "name": "num",
          "type": "uint16"
        },
        {
          "internalType": "uint16[]",
          "name": "arr",
          "type": "uint16[]"
        }
      ],
      "name": "existInArrayNumber",
      "outputs": [
        {
          "internalType": "bool",
          "name": "",
          "type": "bool"
        }
      ],
      "stateMutability": "pure",
      "type": "function"
    },
    {
      "inputs": [
        {
          "internalType": "uint256",
          "name": "randomNumber",
          "type": "uint256"
        },
        {
          "internalType": "uint16",
          "name": "maxValue",
          "type": "uint16"
        },
        {
          "internalType": "uint16[]",
          "name": "arr",
          "type": "uint16[]"
        }
      ],
      "name": "getRandomUniqueNumberInArrayForMaxValue",
      "outputs": [
        {
          "internalType": "uint16",
          "name": "",
          "type": "uint16"
        }
      ],
      "stateMutability": "pure",
      "type": "function"
    },
    {
      "inputs": [],
      "name": "lotteryMaster",
      "outputs": [
        {
          "internalType": "contract LotteryMaster",
          "name": "",
          "type": "address"
        }
      ],
      "stateMutability": "view",
      "type": "function"
    },
    {
      "inputs": [
        {
          "internalType": "uint16",
          "name": "num",
          "type": "uint16"
        },
        {
          "internalType": "uint16[]",
          "name": "arr",
          "type": "uint16[]"
        }
      ],
      "name": "notExistInArrayNumber",
      "outputs": [
        {
          "internalType": "bool",
          "name": "",
          "type": "bool"
        }
      ],
      "stateMutability": "pure",
      "type": "function"
    },
    {
      "inputs": [
        {
          "internalType": "uint256",
          "name": "roundId",
          "type": "uint256"
        }
      ],
      "name": "numberOfReferralWinnersForRoundId",
      "outputs": [
        {
          "internalType": "uint16",
          "name": "",
          "type": "uint16"
        }
      ],
      "stateMutability": "view",
      "type": "function"
    },
    {
      "inputs": [],
      "name": "owner",
      "outputs": [
        {
          "internalType": "address",
          "name": "",
          "type": "address"
        }
      ],
      "stateMutability": "view",
      "type": "function"
    },
    {
      "inputs": [
        {
          "internalType": "uint256",
          "name": "roundId",
          "type": "uint256"
        }
      ],
      "name": "poolForReferral",
      "outputs": [
        {
          "internalType": "uint256",
          "name": "",
          "type": "uint256"
        }
      ],
      "stateMutability": "view",
      "type": "function"
    },
    {
      "inputs": [
        {
          "internalType": "uint256",
          "name": "roundId",
          "type": "uint256"
        },
        {
          "internalType": "enum RoundVictoryTier",
          "name": "victoryTier",
          "type": "uint8"
        }
      ],
      "name": "poolForVictoryTier",
      "outputs": [
        {
          "internalType": "uint256",
          "name": "",
          "type": "uint256"
        }
      ],
      "stateMutability": "view",
      "type": "function"
    },
    {
      "inputs": [
        {
          "internalType": "uint256",
          "name": "roundId",
          "type": "uint256"
        }
      ],
      "name": "referralWinnersNumber",
      "outputs": [
        {
          "internalType": "uint16[]",
          "name": "",
          "type": "uint16[]"
        }
      ],
      "stateMutability": "view",
      "type": "function"
    },
    {
      "inputs": [],
      "name": "renounceOwnership",
      "outputs": [],
      "stateMutability": "nonpayable",
      "type": "function"
    },
    {
      "inputs": [
        {
          "internalType": "uint256",
          "name": "roundId",
          "type": "uint256"
        }
      ],
      "name": "roundNumbers",
      "outputs": [
        {
          "internalType": "uint16[]",
          "name": "",
          "type": "uint16[]"
        }
      ],
      "stateMutability": "view",
      "type": "function"
    },
    {
      "inputs": [],
      "name": "sendCryptoToTeam",
      "outputs": [],
      "stateMutability": "nonpayable",
      "type": "function"
    },
    {
      "inputs": [
        {
          "internalType": "address",
          "name": "_token",
          "type": "address"
        }
      ],
      "name": "sendTokenToTeam",
      "outputs": [],
      "stateMutability": "nonpayable",
      "type": "function"
    },
    {
      "inputs": [
        {
          "internalType": "address",
          "name": "_lotteryMaster",
          "type": "address"
        }
      ],
      "name": "setLotteryMaster",
      "outputs": [],
      "stateMutability": "nonpayable",
      "type": "function"
    },
    {
      "inputs": [
        {
          "internalType": "uint16",
          "name": "rightNumbersForTicket",
          "type": "uint16"
        },
        {
          "internalType": "bool",
          "name": "powerNumberFound",
          "type": "bool"
        }
      ],
      "name": "tierFromResults",
      "outputs": [
        {
          "internalType": "enum RoundVictoryTier",
          "name": "",
          "type": "uint8"
        }
      ],
      "stateMutability": "pure",
      "type": "function"
    },
    {
      "inputs": [
        {
          "internalType": "uint256",
          "name": "roundId",
          "type": "uint256"
        }
      ],
      "name": "tokenHoldersPoolAmount",
      "outputs": [
        {
          "internalType": "uint256",
          "name": "",
          "type": "uint256"
        }
      ],
      "stateMutability": "view",
      "type": "function"
    },
    {
      "inputs": [
        {
          "internalType": "address",
          "name": "newOwner",
          "type": "address"
        }
      ],
      "name": "transferOwnership",
      "outputs": [],
      "stateMutability": "nonpayable",
      "type": "function"
    },
    {
      "inputs": [
        {
          "internalType": "uint256",
          "name": "roundId",
          "type": "uint256"
        }
      ],
      "name": "treasuryPoolAmount",
      "outputs": [
        {
          "internalType": "uint256",
          "name": "",
          "type": "uint256"
        }
      ],
      "stateMutability": "view",
      "type": "function"
    },
    {
      "inputs": [
        {
          "internalType": "address",
          "name": "_teamAddress",
          "type": "address"
        }
      ],
      "name": "updateTeamAddress",
      "outputs": [],
      "stateMutability": "nonpayable",
      "type": "function"
    }
  ],
  "transactionHash": "0x4dacb059dfff1523009a6a2a5ef37c86fbb9e26f0c8238faef3aa8115beb3fab",
  "args": [],
  "numDeployments": 1,
  "solcInputHash": "8124dcdb5f315553f250863dca0a030f",
  "bytecode": "0x60806040523480156200001157600080fd5b503280600073ffffffffffffffffffffffffffffffffffffffff168173ffffffffffffffffffffffffffffffffffffffff1603620000895760006040517f1e4fbdf7000000000000000000000000000000000000000000000000000000008152600401620000809190620001ec565b60405180910390fd5b6200009a81620000e360201b60201c565b5080600160006101000a81548173ffffffffffffffffffffffffffffffffffffffff021916908373ffffffffffffffffffffffffffffffffffffffff1602179055505062000209565b60008060009054906101000a900473ffffffffffffffffffffffffffffffffffffffff169050816000806101000a81548173ffffffffffffffffffffffffffffffffffffffff021916908373ffffffffffffffffffffffffffffffffffffffff1602179055508173ffffffffffffffffffffffffffffffffffffffff168173ffffffffffffffffffffffffffffffffffffffff167f8be0079c531659141344cd1fd0a4f28419497f9722a3daafe3b4186f6b6457e060405160405180910390a35050565b600073ffffffffffffffffffffffffffffffffffffffff82169050919050565b6000620001d482620001a7565b9050919050565b620001e681620001c7565b82525050565b6000602082019050620002036000830184620001db565b92915050565b613fd680620002196000396000f3fe608060405234801561001057600080fd5b50600436106101585760003560e01c806368525a4e116100c3578063c099ae191161007c578063c099ae1914610411578063d856f0d514610441578063e34208e614610471578063f1664df6146104a1578063f2fde38b146104d1578063fdfe8185146104ed57610158565b806368525a4e14610363578063715018a6146103935780638da5cb5b1461039d5780638e0e3fcd146103bb578063998da3e9146103eb578063bbd1783a1461040757610158565b80633c73b4c4116101155780633c73b4c41461025557806349a0a1f6146102855780634e00b9d3146102b557806359103c12146102e55780635dc9dbe81461031557806361ab0c891461033357610158565b8063078a6dbf1461015d5780630c746a8a1461018d57806314eb76ac146101bd57806322bd49a8146101d9578063283b7f28146101f55780632aa6017014610225575b600080fd5b61017760048036038101906101729190612cb9565b61051d565b6040516101849190612da6565b60405180910390f35b6101a760048036038101906101a29190612f54565b610743565b6040516101b49190612fd2565b60405180910390f35b6101d760048036038101906101d29190613019565b6107ef565b005b6101f360048036038101906101ee9190613019565b61083b565b005b61020f600480360381019061020a9190613046565b610887565b60405161021c9190613131565b60405180910390f35b61023f600480360381019061023a9190612cb9565b6109b5565b60405161024c919061320c565b60405180910390f35b61026f600480360381019061026a9190613046565b610d14565b60405161027c9190613236565b60405180910390f35b61029f600480360381019061029a9190613046565b611461565b6040516102ac9190613236565b60405180910390f35b6102cf60048036038101906102ca9190613251565b61158c565b6040516102dc91906132bc565b60405180910390f35b6102ff60048036038101906102fa9190613251565b6115a6565b60405161030c91906132bc565b60405180910390f35b61031d611603565b60405161032a9190613336565b60405180910390f35b61034d60048036038101906103489190613046565b611629565b60405161035a9190613236565b60405180910390f35b61037d60048036038101906103789190613046565b611754565b60405161038a9190613236565b60405180910390f35b61039b61187f565b005b6103a5611893565b6040516103b29190613360565b60405180910390f35b6103d560048036038101906103d091906133a0565b6118bc565b6040516103e29190613236565b60405180910390f35b61040560048036038101906104009190613019565b611b39565b005b61040f611bfa565b005b61042b60048036038101906104269190613046565b611c77565b60405161043891906134d1565b60405180910390f35b61045b60048036038101906104569190613046565b612092565b60405161046891906135e4565b60405180910390f35b61048b60048036038101906104869190613632565b61236e565b6040516104989190613681565b60405180910390f35b6104bb60048036038101906104b69190613046565b612417565b6040516104c89190612fd2565b60405180910390f35b6104eb60048036038101906104e69190613019565b612619565b005b61050760048036038101906105029190613046565b61269f565b6040516105149190613131565b60405180910390f35b610525612bed565b6000600260009054906101000a900473ffffffffffffffffffffffffffffffffffffffff1673ffffffffffffffffffffffffffffffffffffffff16638c65c81f60018661057291906136cb565b6040518263ffffffff1660e01b815260040161058e9190613236565b602060405180830381865afa1580156105ab573d6000803e3d6000fd5b505050506040513d601f19601f820116820180604052508101906105cf9190613714565b905060008173ffffffffffffffffffffffffffffffffffffffff16639f8743f76040518163ffffffff1660e01b8152600401600060405180830381865afa15801561061e573d6000803e3d6000fd5b505050506040513d6000823e3d601f19601f820116820180604052508101906106479190613a60565b905060008273ffffffffffffffffffffffffffffffffffffffff1663dd85ae5f836101200151878151811061067f5761067e613aa9565b5b60200260200101516040518263ffffffff1660e01b81526004016106a39190613236565b60a060405180830381865afa1580156106c0573d6000803e3d6000fd5b505050506040513d601f19601f820116820180604052508101906106e49190613b64565b905060006106fa82604001518460a001516115a6565b9050604051806060016040528083600001518152602001836020015173ffffffffffffffffffffffffffffffffffffffff16815260200182151581525094505050505092915050565b60008060018461ffff16866107589190613bc0565b6107629190613bf1565b905060008061077183866115a6565b90505b80156107e25760018661ffff168484604051602001610794929190613c25565b6040516020818303038152906040528051906020012060001c6107b79190613bc0565b6107c19190613bf1565b92506107cd83866115a6565b905081806107da90613c4e565b925050610774565b8293505050509392505050565b6107f76127cd565b80600160006101000a81548173ffffffffffffffffffffffffffffffffffffffff021916908373ffffffffffffffffffffffffffffffffffffffff16021790555050565b6108436127cd565b80600260006101000a81548173ffffffffffffffffffffffffffffffffffffffff021916908373ffffffffffffffffffffffffffffffffffffffff16021790555050565b60606000600260009054906101000a900473ffffffffffffffffffffffffffffffffffffffff1673ffffffffffffffffffffffffffffffffffffffff16638c65c81f6001856108d691906136cb565b6040518263ffffffff1660e01b81526004016108f29190613236565b602060405180830381865afa15801561090f573d6000803e3d6000fd5b505050506040513d601f19601f820116820180604052508101906109339190613714565b73ffffffffffffffffffffffffffffffffffffffff16639f8743f76040518163ffffffff1660e01b8152600401600060405180830381865afa15801561097d573d6000803e3d6000fd5b505050506040513d6000823e3d601f19601f820116820180604052508101906109a69190613a60565b90508060a00151915050919050565b6109bd612c26565b6000600260009054906101000a900473ffffffffffffffffffffffffffffffffffffffff1673ffffffffffffffffffffffffffffffffffffffff16638c65c81f600186610a0a91906136cb565b6040518263ffffffff1660e01b8152600401610a269190613236565b602060405180830381865afa158015610a43573d6000803e3d6000fd5b505050506040513d601f19601f82011682018060405250810190610a679190613714565b905060008173ffffffffffffffffffffffffffffffffffffffff16639f8743f76040518163ffffffff1660e01b8152600401600060405180830381865afa158015610ab6573d6000803e3d6000fd5b505050506040513d6000823e3d601f19601f82011682018060405250810190610adf9190613a60565b905060008273ffffffffffffffffffffffffffffffffffffffff16639b7be8fc8360e001518781518110610b1657610b15613aa9565b5b60200260200101516040518263ffffffff1660e01b8152600401610b3a9190613236565b60c060405180830381865afa158015610b57573d6000803e3d6000fd5b505050506040513d601f19601f82011682018060405250810190610b7b9190613d2d565b905060008373ffffffffffffffffffffffffffffffffffffffff1663598f3b9d83600001516040518263ffffffff1660e01b8152600401610bbc9190613236565b600060405180830381865afa158015610bd9573d6000803e3d6000fd5b505050506040513d6000823e3d601f19601f82011682018060405250810190610c029190613d5a565b905060008360800151600581518110610c1e57610c1d613aa9565b5b602002602001015161ffff1682600581518110610c3e57610c3d613aa9565b5b602002602001015161ffff161490506000805b60058161ffff161015610cb1576000848261ffff1681518110610c7757610c76613aa9565b5b60200260200101519050610c8f8188608001516115a6565b15610ca3578280610c9f90613c4e565b9350505b508080600101915050610c51565b50604051806060016040528085600001518152602001856020015173ffffffffffffffffffffffffffffffffffffffff168152602001610cf1838561236e565b600a811115610d0357610d02613153565b5b815250965050505050505092915050565b600080600260009054906101000a900473ffffffffffffffffffffffffffffffffffffffff1673ffffffffffffffffffffffffffffffffffffffff16638c65c81f600185610d6291906136cb565b6040518263ffffffff1660e01b8152600401610d7e9190613236565b602060405180830381865afa158015610d9b573d6000803e3d6000fd5b505050506040513d601f19601f82011682018060405250810190610dbf9190613714565b9050600080610dcd85611c77565b90506000610dda86612092565b905060008060008060008060005b88518161ffff16101561104f576001600a811115610e0957610e08613153565b5b898261ffff1681518110610e2057610e1f613aa9565b5b602002602001015160400151600a811115610e3e57610e3d613153565b5b03610e56578680610e4e90613da3565b97505061103c565b6002600a811115610e6a57610e69613153565b5b898261ffff1681518110610e8157610e80613aa9565b5b602002602001015160400151600a811115610e9f57610e9e613153565b5b03610eb7578580610eaf90613da3565b96505061103b565b6003600a811115610ecb57610eca613153565b5b898261ffff1681518110610ee257610ee1613aa9565b5b602002602001015160400151600a811115610f0057610eff613153565b5b03610f18578480610f1090613da3565b95505061103a565b6004600a811115610f2c57610f2b613153565b5b898261ffff1681518110610f4357610f42613aa9565b5b602002602001015160400151600a811115610f6157610f60613153565b5b03610f79578380610f7190613da3565b945050611039565b6005600a811115610f8d57610f8c613153565b5b898261ffff1681518110610fa457610fa3613aa9565b5b602002602001015160400151600a811115610fc257610fc1613153565b5b03610fda578280610fd290613da3565b935050611038565b6006600a811115610fee57610fed613153565b5b898261ffff168151811061100557611004613aa9565b5b602002602001015160400151600a81111561102357611022613153565b5b0361103757818061103390613da3565b9250505b5b5b5b5b5b808061104790613c4e565b915050610de8565b5060008611156110e2578973ffffffffffffffffffffffffffffffffffffffff1663e2e3083060016040518263ffffffff1660e01b81526004016110939190613681565b602060405180830381865afa1580156110b0573d6000803e3d6000fd5b505050506040513d601f19601f820116820180604052508101906110d49190613deb565b896110df9190613bf1565b98505b6000851115611174578973ffffffffffffffffffffffffffffffffffffffff1663e2e3083060026040518263ffffffff1660e01b81526004016111259190613681565b602060405180830381865afa158015611142573d6000803e3d6000fd5b505050506040513d601f19601f820116820180604052508101906111669190613deb565b896111719190613bf1565b98505b6000841115611206578973ffffffffffffffffffffffffffffffffffffffff1663e2e3083060036040518263ffffffff1660e01b81526004016111b79190613681565b602060405180830381865afa1580156111d4573d6000803e3d6000fd5b505050506040513d601f19601f820116820180604052508101906111f89190613deb565b896112039190613bf1565b98505b6000831115611298578973ffffffffffffffffffffffffffffffffffffffff1663e2e3083060046040518263ffffffff1660e01b81526004016112499190613681565b602060405180830381865afa158015611266573d6000803e3d6000fd5b505050506040513d601f19601f8201168201806040525081019061128a9190613deb565b896112959190613bf1565b98505b600082111561132a578973ffffffffffffffffffffffffffffffffffffffff1663e2e3083060056040518263ffffffff1660e01b81526004016112db9190613681565b602060405180830381865afa1580156112f8573d6000803e3d6000fd5b505050506040513d601f19601f8201168201806040525081019061131c9190613deb565b896113279190613bf1565b98505b60008111156113bc578973ffffffffffffffffffffffffffffffffffffffff1663e2e3083060066040518263ffffffff1660e01b815260040161136d9190613681565b602060405180830381865afa15801561138a573d6000803e3d6000fd5b505050506040513d601f19601f820116820180604052508101906113ae9190613deb565b896113b99190613bf1565b98505b60008751111561144f578973ffffffffffffffffffffffffffffffffffffffff1663e2e3083060076040518263ffffffff1660e01b81526004016114009190613681565b602060405180830381865afa15801561141d573d6000803e3d6000fd5b505050506040513d601f19601f820116820180604052508101906114419190613deb565b8961144c9190613bf1565b98505b889a5050505050505050505050919050565b6000600260009054906101000a900473ffffffffffffffffffffffffffffffffffffffff1673ffffffffffffffffffffffffffffffffffffffff16638c65c81f6001846114ae91906136cb565b6040518263ffffffff1660e01b81526004016114ca9190613236565b602060405180830381865afa1580156114e7573d6000803e3d6000fd5b505050506040513d601f19601f8201168201806040525081019061150b9190613714565b73ffffffffffffffffffffffffffffffffffffffff1663e2e3083060096040518263ffffffff1660e01b81526004016115449190613681565b602060405180830381865afa158015611561573d6000803e3d6000fd5b505050506040513d601f19601f820116820180604052508101906115859190613deb565b9050919050565b600080151561159b84846115a6565b151514905092915050565b600080600090505b82518110156115f7578361ffff168382815181106115cf576115ce613aa9565b5b602002602001015161ffff16036115ea5760019150506115fd565b80806001019150506115ae565b50600090505b92915050565b600260009054906101000a900473ffffffffffffffffffffffffffffffffffffffff1681565b6000600260009054906101000a900473ffffffffffffffffffffffffffffffffffffffff1673ffffffffffffffffffffffffffffffffffffffff16638c65c81f60018461167691906136cb565b6040518263ffffffff1660e01b81526004016116929190613236565b602060405180830381865afa1580156116af573d6000803e3d6000fd5b505050506040513d601f19601f820116820180604052508101906116d39190613714565b73ffffffffffffffffffffffffffffffffffffffff1663e2e30830600a6040518263ffffffff1660e01b815260040161170c9190613681565b602060405180830381865afa158015611729573d6000803e3d6000fd5b505050506040513d601f19601f8201168201806040525081019061174d9190613deb565b9050919050565b6000600260009054906101000a900473ffffffffffffffffffffffffffffffffffffffff1673ffffffffffffffffffffffffffffffffffffffff16638c65c81f6001846117a191906136cb565b6040518263ffffffff1660e01b81526004016117bd9190613236565b602060405180830381865afa1580156117da573d6000803e3d6000fd5b505050506040513d601f19601f820116820180604052508101906117fe9190613714565b73ffffffffffffffffffffffffffffffffffffffff1663e2e3083060076040518263ffffffff1660e01b81526004016118379190613681565b602060405180830381865afa158015611854573d6000803e3d6000fd5b505050506040513d601f19601f820116820180604052508101906118789190613deb565b9050919050565b6118876127cd565b6118916000612854565b565b60008060009054906101000a900473ffffffffffffffffffffffffffffffffffffffff16905090565b60006001600a8111156118d2576118d1613153565b5b82600a8111156118e5576118e4613153565b5b148061191557506002600a811115611900576118ff613153565b5b82600a81111561191357611912613153565b5b145b8061194457506003600a81111561192f5761192e613153565b5b82600a81111561194257611941613153565b5b145b8061197357506004600a81111561195e5761195d613153565b5b82600a81111561197157611970613153565b5b145b806119a257506005600a81111561198d5761198c613153565b5b82600a8111156119a05761199f613153565b5b145b806119d157506006600a8111156119bc576119bb613153565b5b82600a8111156119cf576119ce613153565b5b145b611a10576040517f08c379a0000000000000000000000000000000000000000000000000000000008152600401611a0790613e75565b60405180910390fd5b600260009054906101000a900473ffffffffffffffffffffffffffffffffffffffff1673ffffffffffffffffffffffffffffffffffffffff16638c65c81f600185611a5b91906136cb565b6040518263ffffffff1660e01b8152600401611a779190613236565b602060405180830381865afa158015611a94573d6000803e3d6000fd5b505050506040513d601f19601f82011682018060405250810190611ab89190613714565b73ffffffffffffffffffffffffffffffffffffffff1663e2e30830836040518263ffffffff1660e01b8152600401611af09190613681565b602060405180830381865afa158015611b0d573d6000803e3d6000fd5b505050506040513d601f19601f82011682018060405250810190611b319190613deb565b905092915050565b611b416127cd565b60008173ffffffffffffffffffffffffffffffffffffffff166370a08231306040518263ffffffff1660e01b8152600401611b7c9190613360565b602060405180830381865afa158015611b99573d6000803e3d6000fd5b505050506040513d601f19601f82011682018060405250810190611bbd9190613deb565b90506000811115611bf657611bf582600160009054906101000a900473ffffffffffffffffffffffffffffffffffffffff1683612918565b5b5050565b611c026127cd565b6000471115611c7557600160009054906101000a900473ffffffffffffffffffffffffffffffffffffffff1673ffffffffffffffffffffffffffffffffffffffff166108fc479081150290604051600060405180830381858888f19350505050158015611c73573d6000803e3d6000fd5b505b565b60606000600260009054906101000a900473ffffffffffffffffffffffffffffffffffffffff1673ffffffffffffffffffffffffffffffffffffffff16638c65c81f600185611cc691906136cb565b6040518263ffffffff1660e01b8152600401611ce29190613236565b602060405180830381865afa158015611cff573d6000803e3d6000fd5b505050506040513d601f19601f82011682018060405250810190611d239190613714565b905060008173ffffffffffffffffffffffffffffffffffffffff16639f8743f76040518163ffffffff1660e01b8152600401600060405180830381865afa158015611d72573d6000803e3d6000fd5b505050506040513d6000823e3d601f19601f82011682018060405250810190611d9b9190613a60565b905060008161010001519050600082610100015161ffff1667ffffffffffffffff811115611dcc57611dcb612e11565b5b604051908082528060200260200182016040528015611e0557816020015b611df2612c26565b815260200190600190039081611dea5790505b5090506000805b8361ffff168161ffff1610156120845760008673ffffffffffffffffffffffffffffffffffffffff16639b7be8fc8760e001518461ffff1681518110611e5557611e54613aa9565b5b60200260200101516040518263ffffffff1660e01b8152600401611e799190613236565b60c060405180830381865afa158015611e96573d6000803e3d6000fd5b505050506040513d601f19601f82011682018060405250810190611eba9190613d2d565b905060008773ffffffffffffffffffffffffffffffffffffffff1663598f3b9d83600001516040518263ffffffff1660e01b8152600401611efb9190613236565b600060405180830381865afa158015611f18573d6000803e3d6000fd5b505050506040513d6000823e3d601f19601f82011682018060405250810190611f419190613d5a565b905060008760800151600581518110611f5d57611f5c613aa9565b5b602002602001015161ffff1682600581518110611f7d57611f7c613aa9565b5b602002602001015161ffff161490506000805b60058161ffff161015611ff0576000848261ffff1681518110611fb657611fb5613aa9565b5b60200260200101519050611fce818c608001516115a6565b15611fe2578280611fde90613c4e565b9350505b508080600101915050611f90565b50604051806060016040528085600001518152602001856020015173ffffffffffffffffffffffffffffffffffffffff168152602001612030838561236e565b600a81111561204257612041613153565b5b81525087878061205190613c4e565b985061ffff168151811061206857612067613aa9565b5b6020026020010181905250505050508080600101915050611e0c565b508195505050505050919050565b60606000600260009054906101000a900473ffffffffffffffffffffffffffffffffffffffff1673ffffffffffffffffffffffffffffffffffffffff16638c65c81f6001856120e191906136cb565b6040518263ffffffff1660e01b81526004016120fd9190613236565b602060405180830381865afa15801561211a573d6000803e3d6000fd5b505050506040513d601f19601f8201168201806040525081019061213e9190613714565b905060008173ffffffffffffffffffffffffffffffffffffffff16639f8743f76040518163ffffffff1660e01b8152600401600060405180830381865afa15801561218d573d6000803e3d6000fd5b505050506040513d6000823e3d601f19601f820116820180604052508101906121b69190613a60565b9050600081610140015161ffff1667ffffffffffffffff8111156121dd576121dc612e11565b5b60405190808252806020026020018201604052801561221657816020015b612203612bed565b8152602001906001900390816121fb5790505b5090506000805b83610140015161ffff168161ffff1610156123615760008573ffffffffffffffffffffffffffffffffffffffff1663dd85ae5f8661012001518461ffff168151811061226c5761226b613aa9565b5b60200260200101516040518263ffffffff1660e01b81526004016122909190613236565b60a060405180830381865afa1580156122ad573d6000803e3d6000fd5b505050506040513d601f19601f820116820180604052508101906122d19190613b64565b905060006122e782604001518760a001516115a6565b9050604051806060016040528083600001518152602001836020015173ffffffffffffffffffffffffffffffffffffffff16815260200182151581525085858061233090613c4e565b965061ffff168151811061234757612346613aa9565b5b60200260200101819052505050808060010191505061221d565b5081945050505050919050565b600060058361ffff161480156123815750815b1561238f5760019050612411565b60058361ffff16036123a45760029050612411565b60048361ffff161480156123b55750815b156123c35760039050612411565b60048361ffff16036123d85760049050612411565b60038361ffff161480156123e95750815b156123f75760059050612411565b60038361ffff160361240c5760069050612411565b600090505b92915050565b600080600090506000600260009054906101000a900473ffffffffffffffffffffffffffffffffffffffff1673ffffffffffffffffffffffffffffffffffffffff16638c65c81f60018661246b91906136cb565b6040518263ffffffff1660e01b81526004016124879190613236565b602060405180830381865afa1580156124a4573d6000803e3d6000fd5b505050506040513d601f19601f820116820180604052508101906124c89190613714565b73ffffffffffffffffffffffffffffffffffffffff16639f8743f76040518163ffffffff1660e01b8152600401600060405180830381865afa158015612512573d6000803e3d6000fd5b505050506040513d6000823e3d601f19601f8201168201806040525081019061253b9190613a60565b61014001519050600260009054906101000a900473ffffffffffffffffffffffffffffffffffffffff1673ffffffffffffffffffffffffffffffffffffffff1663f4dec22b6040518163ffffffff1660e01b8152600401602060405180830381865afa1580156125af573d6000803e3d6000fd5b505050506040513d601f19601f820116820180604052508101906125d39190613e95565b61ffff168161ffff16816125ea576125e9613b91565b5b04915060008261ffff16148015612605575060008161ffff16115b1561260f57600191505b8192505050919050565b6126216127cd565b600073ffffffffffffffffffffffffffffffffffffffff168173ffffffffffffffffffffffffffffffffffffffff16036126935760006040517f1e4fbdf700000000000000000000000000000000000000000000000000000000815260040161268a9190613360565b60405180910390fd5b61269c81612854565b50565b60606000600260009054906101000a900473ffffffffffffffffffffffffffffffffffffffff1673ffffffffffffffffffffffffffffffffffffffff16638c65c81f6001856126ee91906136cb565b6040518263ffffffff1660e01b815260040161270a9190613236565b602060405180830381865afa158015612727573d6000803e3d6000fd5b505050506040513d601f19601f8201168201806040525081019061274b9190613714565b73ffffffffffffffffffffffffffffffffffffffff16639f8743f76040518163ffffffff1660e01b8152600401600060405180830381865afa158015612795573d6000803e3d6000fd5b505050506040513d6000823e3d601f19601f820116820180604052508101906127be9190613a60565b90508060800151915050919050565b6127d5612997565b73ffffffffffffffffffffffffffffffffffffffff166127f3611893565b73ffffffffffffffffffffffffffffffffffffffff161461285257612816612997565b6040517f118cdaa70000000000000000000000000000000000000000000000000000000081526004016128499190613360565b60405180910390fd5b565b60008060009054906101000a900473ffffffffffffffffffffffffffffffffffffffff169050816000806101000a81548173ffffffffffffffffffffffffffffffffffffffff021916908373ffffffffffffffffffffffffffffffffffffffff1602179055508173ffffffffffffffffffffffffffffffffffffffff168173ffffffffffffffffffffffffffffffffffffffff167f8be0079c531659141344cd1fd0a4f28419497f9722a3daafe3b4186f6b6457e060405160405180910390a35050565b612992838473ffffffffffffffffffffffffffffffffffffffff1663a9059cbb858560405160240161294b929190613ec2565b604051602081830303815290604052915060e01b6020820180517bffffffffffffffffffffffffffffffffffffffffffffffffffffffff838183161783525050505061299f565b505050565b600033905090565b60006129ca828473ffffffffffffffffffffffffffffffffffffffff16612a3690919063ffffffff16565b905060008151141580156129ef5750808060200190518101906129ed9190613eeb565b155b15612a3157826040517f5274afe7000000000000000000000000000000000000000000000000000000008152600401612a289190613360565b60405180910390fd5b505050565b6060612a4483836000612a4c565b905092915050565b606081471015612a9357306040517fcd786059000000000000000000000000000000000000000000000000000000008152600401612a8a9190613360565b60405180910390fd5b6000808573ffffffffffffffffffffffffffffffffffffffff168486604051612abc9190613f89565b60006040518083038185875af1925050503d8060008114612af9576040519150601f19603f3d011682016040523d82523d6000602084013e612afe565b606091505b5091509150612b0e868383612b19565b925050509392505050565b606082612b2e57612b2982612ba8565b612ba0565b60008251148015612b56575060008473ffffffffffffffffffffffffffffffffffffffff163b145b15612b9857836040517f9996b315000000000000000000000000000000000000000000000000000000008152600401612b8f9190613360565b60405180910390fd5b819050612ba1565b5b9392505050565b600081511115612bbb5780518082602001fd5b6040517f1425ea4200000000000000000000000000000000000000000000000000000000815260040160405180910390fd5b604051806060016040528060008152602001600073ffffffffffffffffffffffffffffffffffffffff1681526020016000151581525090565b604051806060016040528060008152602001600073ffffffffffffffffffffffffffffffffffffffff1681526020016000600a811115612c6957612c68613153565b5b81525090565b6000604051905090565b600080fd5b600080fd5b6000819050919050565b612c9681612c83565b8114612ca157600080fd5b50565b600081359050612cb381612c8d565b92915050565b60008060408385031215612cd057612ccf612c79565b5b6000612cde85828601612ca4565b9250506020612cef85828601612ca4565b9150509250929050565b612d0281612c83565b82525050565b600073ffffffffffffffffffffffffffffffffffffffff82169050919050565b6000612d3382612d08565b9050919050565b612d4381612d28565b82525050565b60008115159050919050565b612d5e81612d49565b82525050565b606082016000820151612d7a6000850182612cf9565b506020820151612d8d6020850182612d3a565b506040820151612da06040850182612d55565b50505050565b6000606082019050612dbb6000830184612d64565b92915050565b600061ffff82169050919050565b612dd881612dc1565b8114612de357600080fd5b50565b600081359050612df581612dcf565b92915050565b600080fd5b6000601f19601f8301169050919050565b7f4e487b7100000000000000000000000000000000000000000000000000000000600052604160045260246000fd5b612e4982612e00565b810181811067ffffffffffffffff82111715612e6857612e67612e11565b5b80604052505050565b6000612e7b612c6f565b9050612e878282612e40565b919050565b600067ffffffffffffffff821115612ea757612ea6612e11565b5b602082029050602081019050919050565b600080fd5b6000612ed0612ecb84612e8c565b612e71565b90508083825260208201905060208402830185811115612ef357612ef2612eb8565b5b835b81811015612f1c5780612f088882612de6565b845260208401935050602081019050612ef5565b5050509392505050565b600082601f830112612f3b57612f3a612dfb565b5b8135612f4b848260208601612ebd565b91505092915050565b600080600060608486031215612f6d57612f6c612c79565b5b6000612f7b86828701612ca4565b9350506020612f8c86828701612de6565b925050604084013567ffffffffffffffff811115612fad57612fac612c7e565b5b612fb986828701612f26565b9150509250925092565b612fcc81612dc1565b82525050565b6000602082019050612fe76000830184612fc3565b92915050565b612ff681612d28565b811461300157600080fd5b50565b60008135905061301381612fed565b92915050565b60006020828403121561302f5761302e612c79565b5b600061303d84828501613004565b91505092915050565b60006020828403121561305c5761305b612c79565b5b600061306a84828501612ca4565b91505092915050565b600081519050919050565b600082825260208201905092915050565b6000819050602082019050919050565b6130a881612dc1565b82525050565b60006130ba838361309f565b60208301905092915050565b6000602082019050919050565b60006130de82613073565b6130e8818561307e565b93506130f38361308f565b8060005b8381101561312457815161310b88826130ae565b9750613116836130c6565b9250506001810190506130f7565b5085935050505092915050565b6000602082019050818103600083015261314b81846130d3565b905092915050565b7f4e487b7100000000000000000000000000000000000000000000000000000000600052602160045260246000fd5b600b811061319357613192613153565b5b50565b60008190506131a482613182565b919050565b60006131b482613196565b9050919050565b6131c4816131a9565b82525050565b6060820160008201516131e06000850182612cf9565b5060208201516131f36020850182612d3a565b50604082015161320660408501826131bb565b50505050565b600060608201905061322160008301846131ca565b92915050565b61323081612c83565b82525050565b600060208201905061324b6000830184613227565b92915050565b6000806040838503121561326857613267612c79565b5b600061327685828601612de6565b925050602083013567ffffffffffffffff81111561329757613296612c7e565b5b6132a385828601612f26565b9150509250929050565b6132b681612d49565b82525050565b60006020820190506132d160008301846132ad565b92915050565b6000819050919050565b60006132fc6132f76132f284612d08565b6132d7565b612d08565b9050919050565b600061330e826132e1565b9050919050565b600061332082613303565b9050919050565b61333081613315565b82525050565b600060208201905061334b6000830184613327565b92915050565b61335a81612d28565b82525050565b60006020820190506133756000830184613351565b92915050565b600b811061338857600080fd5b50565b60008135905061339a8161337b565b92915050565b600080604083850312156133b7576133b6612c79565b5b60006133c585828601612ca4565b92505060206133d68582860161338b565b9150509250929050565b600081519050919050565b600082825260208201905092915050565b6000819050602082019050919050565b6060820160008201516134226000850182612cf9565b5060208201516134356020850182612d3a565b50604082015161344860408501826131bb565b50505050565b600061345a838361340c565b60608301905092915050565b6000602082019050919050565b600061347e826133e0565b61348881856133eb565b9350613493836133fc565b8060005b838110156134c45781516134ab888261344e565b97506134b683613466565b925050600181019050613497565b5085935050505092915050565b600060208201905081810360008301526134eb8184613473565b905092915050565b600081519050919050565b600082825260208201905092915050565b6000819050602082019050919050565b6060820160008201516135356000850182612cf9565b5060208201516135486020850182612d3a565b50604082015161355b6040850182612d55565b50505050565b600061356d838361351f565b60608301905092915050565b6000602082019050919050565b6000613591826134f3565b61359b81856134fe565b93506135a68361350f565b8060005b838110156135d75781516135be8882613561565b97506135c983613579565b9250506001810190506135aa565b5085935050505092915050565b600060208201905081810360008301526135fe8184613586565b905092915050565b61360f81612d49565b811461361a57600080fd5b50565b60008135905061362c81613606565b92915050565b6000806040838503121561364957613648612c79565b5b600061365785828601612de6565b92505060206136688582860161361d565b9150509250929050565b61367b816131a9565b82525050565b60006020820190506136966000830184613672565b92915050565b7f4e487b7100000000000000000000000000000000000000000000000000000000600052601160045260246000fd5b60006136d682612c83565b91506136e183612c83565b92508282039050818111156136f9576136f861369c565b5b92915050565b60008151905061370e81612fed565b92915050565b60006020828403121561372a57613729612c79565b5b6000613738848285016136ff565b91505092915050565b600080fd5b600080fd5b60008151905061375a81612c8d565b92915050565b60008151905061376f81613606565b92915050565b60008151905061378481612dcf565b92915050565b600061379d61379884612e8c565b612e71565b905080838252602082019050602084028301858111156137c0576137bf612eb8565b5b835b818110156137e957806137d58882613775565b8452602084019350506020810190506137c2565b5050509392505050565b600082601f83011261380857613807612dfb565b5b815161381884826020860161378a565b91505092915050565b600067ffffffffffffffff82111561383c5761383b612e11565b5b602082029050602081019050919050565b600061386061385b84613821565b612e71565b9050808382526020820190506020840283018581111561388357613882612eb8565b5b835b818110156138ac5780613898888261374b565b845260208401935050602081019050613885565b5050509392505050565b600082601f8301126138cb576138ca612dfb565b5b81516138db84826020860161384d565b91505092915050565b600061016082840312156138fb576138fa613741565b5b613906610160612e71565b905060006139168482850161374b565b600083015250602061392a8482850161374b565b602083015250604061393e8482850161374b565b604083015250606061395284828501613760565b606083015250608082015167ffffffffffffffff81111561397657613975613746565b5b613982848285016137f3565b60808301525060a082015167ffffffffffffffff8111156139a6576139a5613746565b5b6139b2848285016137f3565b60a08301525060c06139c684828501613775565b60c08301525060e082015167ffffffffffffffff8111156139ea576139e9613746565b5b6139f6848285016138b6565b60e083015250610100613a0b84828501613775565b6101008301525061012082015167ffffffffffffffff811115613a3157613a30613746565b5b613a3d848285016138b6565b61012083015250610140613a5384828501613775565b6101408301525092915050565b600060208284031215613a7657613a75612c79565b5b600082015167ffffffffffffffff811115613a9457613a93612c7e565b5b613aa0848285016138e4565b91505092915050565b7f4e487b7100000000000000000000000000000000000000000000000000000000600052603260045260246000fd5b600060a08284031215613aee57613aed613741565b5b613af860a0612e71565b90506000613b088482850161374b565b6000830152506020613b1c848285016136ff565b6020830152506040613b3084828501613775565b6040830152506060613b4484828501613760565b6060830152506080613b5884828501613760565b60808301525092915050565b600060a08284031215613b7a57613b79612c79565b5b6000613b8884828501613ad8565b91505092915050565b7f4e487b7100000000000000000000000000000000000000000000000000000000600052601260045260246000fd5b6000613bcb82612c83565b9150613bd683612c83565b925082613be657613be5613b91565b5b828206905092915050565b6000613bfc82612c83565b9150613c0783612c83565b9250828201905080821115613c1f57613c1e61369c565b5b92915050565b6000604082019050613c3a6000830185612fc3565b613c476020830184612fc3565b9392505050565b6000613c5982612dc1565b915061ffff8203613c6d57613c6c61369c565b5b600182019050919050565b600081519050613c878161337b565b92915050565b600060c08284031215613ca357613ca2613741565b5b613cad60c0612e71565b90506000613cbd8482850161374b565b6000830152506020613cd1848285016136ff565b6020830152506040613ce5848285016136ff565b6040830152506060613cf984828501613760565b6060830152506080613d0d8482850161374b565b60808301525060a0613d2184828501613c78565b60a08301525092915050565b600060c08284031215613d4357613d42612c79565b5b6000613d5184828501613c8d565b91505092915050565b600060208284031215613d7057613d6f612c79565b5b600082015167ffffffffffffffff811115613d8e57613d8d612c7e565b5b613d9a848285016137f3565b91505092915050565b6000613dae82612c83565b91507fffffffffffffffffffffffffffffffffffffffffffffffffffffffffffffffff8203613de057613ddf61369c565b5b600182019050919050565b600060208284031215613e0157613e00612c79565b5b6000613e0f8482850161374b565b91505092915050565b600082825260208201905092915050565b7f496e76616c696420766963746f72792074696572000000000000000000000000600082015250565b6000613e5f601483613e18565b9150613e6a82613e29565b602082019050919050565b60006020820190508181036000830152613e8e81613e52565b9050919050565b600060208284031215613eab57613eaa612c79565b5b6000613eb984828501613775565b91505092915050565b6000604082019050613ed76000830185613351565b613ee46020830184613227565b9392505050565b600060208284031215613f0157613f00612c79565b5b6000613f0f84828501613760565b91505092915050565b600081519050919050565b600081905092915050565b60005b83811015613f4c578082015181840152602081019050613f31565b60008484015250505050565b6000613f6382613f18565b613f6d8185613f23565b9350613f7d818560208601613f2e565b80840191505092915050565b6000613f958284613f58565b91508190509291505056fea264697066735822122092bc90e2b1448f718779e6f1445fc88269ccb94371acc3b9b25196ae9c4e4b5864736f6c63430008180033",
  "devdoc": {
    "errors": {
      "AddressEmptyCode(address)": [
        {
          "details": "There's no code at `target` (it is not a contract)."
        }
      ],
      "AddressInsufficientBalance(address)": [
        {
          "details": "The ETH balance of the account is not enough to perform the operation."
        }
      ],
      "FailedInnerCall()": [
        {
          "details": "A call to an address target failed. The target may have reverted."
        }
      ],
      "OwnableInvalidOwner(address)": [
        {
          "details": "The owner is not a valid owner account. (eg. `address(0)`)"
        }
      ],
      "OwnableUnauthorizedAccount(address)": [
        {
          "details": "The caller account is not authorized to perform an operation."
        }
      ],
      "SafeERC20FailedOperation(address)": [
        {
          "details": "An operation with an ERC20 token failed."
        }
      ]
    },
    "kind": "dev",
    "methods": {
      "owner()": {
        "details": "Returns the address of the current owner."
      },
      "renounceOwnership()": {
        "details": "Leaves the contract without owner. It will not be possible to call `onlyOwner` functions. Can only be called by the current owner. NOTE: Renouncing ownership will leave the contract without an owner, thereby disabling any functionality that is only available to the owner."
      },
      "transferOwnership(address)": {
        "details": "Transfers ownership of the contract to a new account (`newOwner`). Can only be called by the current owner."
      }
    },
    "version": 1
  },
  "userdoc": {
    "kind": "user",
    "methods": {},
    "version": 1
  },
  "storageLayout": {
    "storage": [
      {
        "astId": 8,
        "contract": "contracts/LotteryReader.sol:LotteryReader",
        "label": "_owner",
        "offset": 0,
        "slot": "0",
        "type": "t_address"
      },
      {
        "astId": 4677,
        "contract": "contracts/LotteryReader.sol:LotteryReader",
        "label": "teamAddress",
        "offset": 0,
        "slot": "1",
        "type": "t_address"
      },
      {
        "astId": 2209,
        "contract": "contracts/LotteryReader.sol:LotteryReader",
        "label": "lotteryMaster",
        "offset": 0,
        "slot": "2",
        "type": "t_contract(LotteryMaster)2179"
      }
    ],
    "types": {
      "t_address": {
        "encoding": "inplace",
        "label": "address",
        "numberOfBytes": "20"
      },
      "t_contract(LotteryMaster)2179": {
        "encoding": "inplace",
        "label": "contract LotteryMaster",
        "numberOfBytes": "20"
      }
    }
  }
}