{
  "address": "0x7f74bada1F713b047B4c4c909A18C740EC64C01E",
  "abi": [
    {
      "inputs": [],
      "stateMutability": "nonpayable",
      "type": "constructor"
    },
    {
      "inputs": [
        {
          "internalType": "address",
          "name": "target",
          "type": "address"
        }
      ],
      "name": "AddressEmptyCode",
      "type": "error"
    },
    {
      "inputs": [
        {
          "internalType": "address",
          "name": "account",
          "type": "address"
        }
      ],
      "name": "AddressInsufficientBalance",
      "type": "error"
    },
    {
      "inputs": [],
      "name": "FailedInnerCall",
      "type": "error"
    },
    {
      "inputs": [
        {
          "internalType": "address",
          "name": "owner",
          "type": "address"
        }
      ],
      "name": "OwnableInvalidOwner",
      "type": "error"
    },
    {
      "inputs": [
        {
          "internalType": "address",
          "name": "account",
          "type": "address"
        }
      ],
      "name": "OwnableUnauthorizedAccount",
      "type": "error"
    },
    {
      "inputs": [
        {
          "internalType": "address",
          "name": "token",
          "type": "address"
        }
      ],
      "name": "SafeERC20FailedOperation",
      "type": "error"
    },
    {
      "anonymous": false,
      "inputs": [
        {
          "indexed": true,
          "internalType": "address",
          "name": "previousOwner",
          "type": "address"
        },
        {
          "indexed": true,
          "internalType": "address",
          "name": "newOwner",
          "type": "address"
        }
      ],
      "name": "OwnershipTransferred",
      "type": "event"
    },
    {
      "inputs": [
        {
          "internalType": "uint256",
          "name": "roundId",
          "type": "uint256"
        }
      ],
      "name": "amountWonInRound",
      "outputs": [
        {
          "internalType": "uint256",
          "name": "",
          "type": "uint256"
        }
      ],
      "stateMutability": "view",
      "type": "function"
    },
    {
      "inputs": [
        {
          "internalType": "uint256",
          "name": "roundId",
          "type": "uint256"
        },
        {
          "internalType": "address",
          "name": "wallet",
          "type": "address"
        },
        {
          "internalType": "bool",
          "name": "claimed",
          "type": "bool"
        }
      ],
      "name": "evaluateWonReferralAmountForWallet",
      "outputs": [
        {
          "internalType": "uint256",
          "name": "",
          "type": "uint256"
        }
      ],
      "stateMutability": "view",
      "type": "function"
    },
    {
      "inputs": [
        {
          "internalType": "uint256",
          "name": "roundId",
          "type": "uint256"
        },
        {
          "internalType": "address",
          "name": "wallet",
          "type": "address"
        }
      ],
      "name": "evaluateWonReferralFoWallet",
      "outputs": [
        {
          "components": [
            {
              "internalType": "uint256",
              "name": "referralTicketId",
              "type": "uint256"
            },
            {
              "internalType": "address",
              "name": "referralAddress",
              "type": "address"
            },
            {
              "internalType": "uint256",
              "name": "referralTicketNumber",
              "type": "uint256"
            },
            {
              "internalType": "bool",
              "name": "won",
              "type": "bool"
            },
            {
              "internalType": "bool",
              "name": "claimed",
              "type": "bool"
            },
            {
              "internalType": "uint256",
              "name": "amountWon",
              "type": "uint256"
            }
          ],
          "internalType": "struct ReferralTicketResults[]",
          "name": "",
          "type": "tuple[]"
        }
      ],
      "stateMutability": "view",
      "type": "function"
    },
    {
      "inputs": [
        {
          "internalType": "uint256",
          "name": "roundId",
          "type": "uint256"
        }
      ],
      "name": "evaluateWonReferralForRound",
      "outputs": [
        {
          "components": [
            {
              "internalType": "uint256",
              "name": "referralTicketId",
              "type": "uint256"
            },
            {
              "internalType": "address",
              "name": "referralAddress",
              "type": "address"
            },
            {
              "internalType": "uint256",
              "name": "referralTicketNumber",
              "type": "uint256"
            },
            {
              "internalType": "bool",
              "name": "won",
              "type": "bool"
            },
            {
              "internalType": "bool",
              "name": "claimed",
              "type": "bool"
            },
            {
              "internalType": "uint256",
              "name": "amountWon",
              "type": "uint256"
            }
          ],
          "internalType": "struct ReferralTicketResults[]",
          "name": "",
          "type": "tuple[]"
        }
      ],
      "stateMutability": "view",
      "type": "function"
    },
    {
      "inputs": [
        {
          "internalType": "uint256",
          "name": "roundId",
          "type": "uint256"
        },
        {
          "internalType": "address",
          "name": "wallet",
          "type": "address"
        },
        {
          "internalType": "bool",
          "name": "claimed",
          "type": "bool"
        }
      ],
      "name": "evaluateWonTicketsAmountForWallet",
      "outputs": [
        {
          "internalType": "uint256",
          "name": "",
          "type": "uint256"
        }
      ],
      "stateMutability": "view",
      "type": "function"
    },
    {
      "inputs": [
        {
          "internalType": "uint256",
          "name": "roundId",
          "type": "uint256"
        }
      ],
      "name": "evaluateWonTicketsForRound",
      "outputs": [
        {
          "components": [
            {
              "internalType": "uint256",
              "name": "ticketId",
              "type": "uint256"
            },
            {
              "internalType": "address",
              "name": "participantAddress",
              "type": "address"
            },
            {
              "internalType": "enum RoundVictoryTier",
              "name": "victoryTier",
              "type": "uint8"
            },
            {
              "internalType": "bool",
              "name": "won",
              "type": "bool"
            },
            {
              "internalType": "bool",
              "name": "claimed",
              "type": "bool"
            },
            {
              "internalType": "uint256",
              "name": "amountWon",
              "type": "uint256"
            }
          ],
          "internalType": "struct TicketResults[]",
          "name": "",
          "type": "tuple[]"
        }
      ],
      "stateMutability": "view",
      "type": "function"
    },
    {
      "inputs": [
        {
          "internalType": "uint256",
          "name": "roundId",
          "type": "uint256"
        },
        {
          "internalType": "address",
          "name": "wallet",
          "type": "address"
        }
      ],
      "name": "evaluateWonTicketsForWallet",
      "outputs": [
        {
          "components": [
            {
              "internalType": "uint256",
              "name": "ticketId",
              "type": "uint256"
            },
            {
              "internalType": "address",
              "name": "participantAddress",
              "type": "address"
            },
            {
              "internalType": "enum RoundVictoryTier",
              "name": "victoryTier",
              "type": "uint8"
            },
            {
              "internalType": "bool",
              "name": "won",
              "type": "bool"
            },
            {
              "internalType": "bool",
              "name": "claimed",
              "type": "bool"
            },
            {
              "internalType": "uint256",
              "name": "amountWon",
              "type": "uint256"
            }
          ],
          "internalType": "struct TicketResults[]",
          "name": "",
          "type": "tuple[]"
        }
      ],
      "stateMutability": "view",
      "type": "function"
    },
    {
      "inputs": [
        {
          "internalType": "uint256",
          "name": "num",
          "type": "uint256"
        },
        {
          "internalType": "uint256[]",
          "name": "arr",
          "type": "uint256[]"
        }
      ],
      "name": "existInArrayBigNumber",
      "outputs": [
        {
          "internalType": "bool",
          "name": "",
          "type": "bool"
        }
      ],
      "stateMutability": "pure",
      "type": "function"
    },
    {
      "inputs": [
        {
          "internalType": "uint16",
          "name": "num",
          "type": "uint16"
        },
        {
          "internalType": "uint16[]",
          "name": "arr",
          "type": "uint16[]"
        }
      ],
      "name": "existInArrayNumber",
      "outputs": [
        {
          "internalType": "bool",
          "name": "",
          "type": "bool"
        }
      ],
      "stateMutability": "pure",
      "type": "function"
    },
    {
      "inputs": [
        {
          "internalType": "uint256",
          "name": "randomNumber",
          "type": "uint256"
        },
        {
          "internalType": "uint16",
          "name": "maxValue",
          "type": "uint16"
        },
        {
          "internalType": "uint16[]",
          "name": "arr",
          "type": "uint16[]"
        }
      ],
      "name": "getRandomUniqueNumberInArrayForMaxValue",
      "outputs": [
        {
          "internalType": "uint16",
          "name": "",
          "type": "uint16"
        }
      ],
      "stateMutability": "pure",
      "type": "function"
    },
    {
      "inputs": [],
      "name": "lotteryMaster",
      "outputs": [
        {
          "internalType": "contract LotteryMaster",
          "name": "",
          "type": "address"
        }
      ],
      "stateMutability": "view",
      "type": "function"
    },
    {
      "inputs": [
        {
          "internalType": "uint16",
          "name": "num",
          "type": "uint16"
        },
        {
          "internalType": "uint16[]",
          "name": "arr",
          "type": "uint16[]"
        }
      ],
      "name": "notExistInArrayNumber",
      "outputs": [
        {
          "internalType": "bool",
          "name": "",
          "type": "bool"
        }
      ],
      "stateMutability": "pure",
      "type": "function"
    },
    {
      "inputs": [
        {
          "internalType": "uint256",
          "name": "roundId",
          "type": "uint256"
        }
      ],
      "name": "numberOfReferralWinnersForRoundId",
      "outputs": [
        {
          "internalType": "uint16",
          "name": "",
          "type": "uint16"
        }
      ],
      "stateMutability": "view",
      "type": "function"
    },
    {
      "inputs": [],
      "name": "owner",
      "outputs": [
        {
          "internalType": "address",
          "name": "",
          "type": "address"
        }
      ],
      "stateMutability": "view",
      "type": "function"
    },
    {
      "inputs": [
        {
          "internalType": "uint256",
          "name": "roundId",
          "type": "uint256"
        }
      ],
      "name": "poolForReferral",
      "outputs": [
        {
          "internalType": "uint256",
          "name": "",
          "type": "uint256"
        }
      ],
      "stateMutability": "view",
      "type": "function"
    },
    {
      "inputs": [
        {
          "internalType": "uint256",
          "name": "roundId",
          "type": "uint256"
        },
        {
          "internalType": "enum RoundVictoryTier",
          "name": "victoryTier",
          "type": "uint8"
        }
      ],
      "name": "poolForVictoryTier",
      "outputs": [
        {
          "internalType": "uint256",
          "name": "",
          "type": "uint256"
        }
      ],
      "stateMutability": "view",
      "type": "function"
    },
    {
      "inputs": [
        {
          "internalType": "uint256",
          "name": "roundId",
          "type": "uint256"
        }
      ],
      "name": "referralWinnersNumber",
      "outputs": [
        {
          "internalType": "uint256[]",
          "name": "",
          "type": "uint256[]"
        }
      ],
      "stateMutability": "view",
      "type": "function"
    },
    {
      "inputs": [],
      "name": "renounceOwnership",
      "outputs": [],
      "stateMutability": "nonpayable",
      "type": "function"
    },
    {
      "inputs": [
        {
          "internalType": "uint256",
          "name": "roundId",
          "type": "uint256"
        }
      ],
      "name": "roundNumbers",
      "outputs": [
        {
          "internalType": "uint16[]",
          "name": "",
          "type": "uint16[]"
        }
      ],
      "stateMutability": "view",
      "type": "function"
    },
    {
      "inputs": [],
      "name": "sendCryptoToTeam",
      "outputs": [],
      "stateMutability": "nonpayable",
      "type": "function"
    },
    {
      "inputs": [
        {
          "internalType": "address",
          "name": "_token",
          "type": "address"
        }
      ],
      "name": "sendTokenToTeam",
      "outputs": [],
      "stateMutability": "nonpayable",
      "type": "function"
    },
    {
      "inputs": [
        {
          "internalType": "address",
          "name": "_lotteryMaster",
          "type": "address"
        }
      ],
      "name": "setLotteryMaster",
      "outputs": [],
      "stateMutability": "nonpayable",
      "type": "function"
    },
    {
      "inputs": [
        {
          "internalType": "uint16",
          "name": "rightNumbersForTicket",
          "type": "uint16"
        },
        {
          "internalType": "bool",
          "name": "powerNumberFound",
          "type": "bool"
        }
      ],
      "name": "tierFromResults",
      "outputs": [
        {
          "internalType": "enum RoundVictoryTier",
          "name": "",
          "type": "uint8"
        }
      ],
      "stateMutability": "pure",
      "type": "function"
    },
    {
      "inputs": [
        {
          "internalType": "uint256",
          "name": "roundId",
          "type": "uint256"
        }
      ],
      "name": "tokenHoldersPoolAmount",
      "outputs": [
        {
          "internalType": "uint256",
          "name": "",
          "type": "uint256"
        }
      ],
      "stateMutability": "view",
      "type": "function"
    },
    {
      "inputs": [
        {
          "internalType": "address",
          "name": "newOwner",
          "type": "address"
        }
      ],
      "name": "transferOwnership",
      "outputs": [],
      "stateMutability": "nonpayable",
      "type": "function"
    },
    {
      "inputs": [
        {
          "internalType": "uint256",
          "name": "roundId",
          "type": "uint256"
        }
      ],
      "name": "treasuryPoolAmount",
      "outputs": [
        {
          "internalType": "uint256",
          "name": "",
          "type": "uint256"
        }
      ],
      "stateMutability": "view",
      "type": "function"
    },
    {
      "inputs": [
        {
          "internalType": "address",
          "name": "_teamAddress",
          "type": "address"
        }
      ],
      "name": "updateTeamAddress",
      "outputs": [],
      "stateMutability": "nonpayable",
      "type": "function"
    }
  ],
  "transactionHash": "0x18ea5c6b9c5ccf8aefdf7d32a52116e7558206ec43679c24fd468e36b47cd22c",
  "args": [],
  "numDeployments": 1,
  "solcInputHash": "367f574ed972590fa815d3d071d3740f",
  "bytecode": "0x60806040523480156200001157600080fd5b503280600073ffffffffffffffffffffffffffffffffffffffff168173ffffffffffffffffffffffffffffffffffffffff1603620000895760006040517f1e4fbdf7000000000000000000000000000000000000000000000000000000008152600401620000809190620001ec565b60405180910390fd5b6200009a81620000e360201b60201c565b5080600160006101000a81548173ffffffffffffffffffffffffffffffffffffffff021916908373ffffffffffffffffffffffffffffffffffffffff1602179055505062000209565b60008060009054906101000a900473ffffffffffffffffffffffffffffffffffffffff169050816000806101000a81548173ffffffffffffffffffffffffffffffffffffffff021916908373ffffffffffffffffffffffffffffffffffffffff1602179055508173ffffffffffffffffffffffffffffffffffffffff168173ffffffffffffffffffffffffffffffffffffffff167f8be0079c531659141344cd1fd0a4f28419497f9722a3daafe3b4186f6b6457e060405160405180910390a35050565b600073ffffffffffffffffffffffffffffffffffffffff82169050919050565b6000620001d482620001a7565b9050919050565b620001e681620001c7565b82525050565b6000602082019050620002036000830184620001db565b92915050565b61471780620002196000396000f3fe608060405234801561001057600080fd5b50600436106101a95760003560e01c8063715018a6116100f9578063b7991e3311610097578063eed2589611610071578063eed2589614610552578063f1664df614610582578063f2fde38b146105b2578063fdfe8185146105ce576101a9565b8063b7991e33146104e8578063bbd1783a14610518578063e34208e614610522576101a9565b80638e0e3fcd116100d35780638e0e3fcd1461043c578063998da3e91461046c5780639f75e5c914610488578063a521dc95146104b8576101a9565b8063715018a6146103e45780638285cc5a146103ee5780638da5cb5b1461041e576101a9565b806348b2e35c1161016657806359103c121161014057806359103c12146103365780635dc9dbe81461036657806361ab0c891461038457806368525a4e146103b4576101a9565b806348b2e35c146102a657806349a0a1f6146102d65780634e00b9d314610306576101a9565b80630c746a8a146101ae57806314eb76ac146101de57806317ba3b7d146101fa57806322bd49a81461022a578063283b7f28146102465780633c73b4c414610276575b600080fd5b6101c860048036038101906101c3919061338d565b6105fe565b6040516101d5919061340b565b60405180910390f35b6101f860048036038101906101f39190613484565b6106aa565b005b610214600480360381019061020f91906134b1565b6106f6565b6040516102219190613654565b60405180910390f35b610244600480360381019061023f9190613484565b6108f1565b005b610260600480360381019061025b9190613676565b61093d565b60405161026d9190613752565b60405180910390f35b610290600480360381019061028b9190613676565b610a6b565b60405161029d9190613783565b60405180910390f35b6102c060048036038101906102bb9190613676565b6111b8565b6040516102cd9190613654565b60405180910390f35b6102f060048036038101906102eb9190613676565b6115d0565b6040516102fd9190613783565b60405180910390f35b610320600480360381019061031b919061379e565b6116fb565b60405161032d9190613809565b60405180910390f35b610350600480360381019061034b919061379e565b611715565b60405161035d9190613809565b60405180910390f35b61036e611772565b60405161037b9190613883565b60405180910390f35b61039e60048036038101906103999190613676565b611798565b6040516103ab9190613783565b60405180910390f35b6103ce60048036038101906103c99190613676565b6118c3565b6040516103db9190613783565b60405180910390f35b6103ec6119ee565b005b61040860048036038101906104039190613961565b611a02565b6040516104159190613809565b60405180910390f35b610426611a57565b60405161043391906139cc565b60405180910390f35b61045660048036038101906104519190613a0c565b611a80565b6040516104639190613783565b60405180910390f35b61048660048036038101906104819190613484565b611cfd565b005b6104a2600480360381019061049d9190613676565b611dbe565b6040516104af9190613bed565b60405180910390f35b6104d260048036038101906104cd9190613c3b565b612367565b6040516104df9190613783565b60405180910390f35b61050260048036038101906104fd9190613c3b565b6124a5565b60405161050f9190613783565b60405180910390f35b610520612607565b005b61053c60048036038101906105379190613c8e565b612684565b6040516105499190613cdd565b60405180910390f35b61056c600480360381019061056791906134b1565b61272d565b6040516105799190613bed565b60405180910390f35b61059c60048036038101906105979190613676565b612928565b6040516105a9919061340b565b60405180910390f35b6105cc60048036038101906105c79190613484565b612b2a565b005b6105e860048036038101906105e39190613676565b612bb0565b6040516105f59190613db6565b60405180910390f35b60008060018461ffff16866106139190613e07565b61061d9190613e67565b905060008061062c8386611715565b90505b801561069d5760018661ffff16848460405160200161064f929190613e9b565b6040516020818303038152906040528051906020012060001c6106729190613e07565b61067c9190613e67565b92506106888386611715565b9050818061069590613ec4565b92505061062f565b8293505050509392505050565b6106b2612cde565b80600160006101000a81548173ffffffffffffffffffffffffffffffffffffffff021916908373ffffffffffffffffffffffffffffffffffffffff16021790555050565b60606000610703846111b8565b9050600080825167ffffffffffffffff8111156107235761072261324a565b5b60405190808252806020026020018201604052801561075c57816020015b6107496130fe565b8152602001906001900390816107415790505b50905060005b8351811015610839578573ffffffffffffffffffffffffffffffffffffffff1684828151811061079557610794613eee565b5b60200260200101516020015173ffffffffffffffffffffffffffffffffffffffff161480156107df57508381815181106107d2576107d1613eee565b5b6020026020010151606001515b1561082c578381815181106107f7576107f6613eee565b5b602002602001015182848151811061081257610811613eee565b5b6020026020010181905250828061082890613f1d565b9350505b8080600101915050610762565b5060008267ffffffffffffffff8111156108565761085561324a565b5b60405190808252806020026020018201604052801561088f57816020015b61087c6130fe565b8152602001906001900390816108745790505b50905060005b838110156108e3578281815181106108b0576108af613eee565b5b60200260200101518282815181106108cb576108ca613eee565b5b60200260200101819052508080600101915050610895565b508094505050505092915050565b6108f9612cde565b80600260006101000a81548173ffffffffffffffffffffffffffffffffffffffff021916908373ffffffffffffffffffffffffffffffffffffffff16021790555050565b60606000600260009054906101000a900473ffffffffffffffffffffffffffffffffffffffff1673ffffffffffffffffffffffffffffffffffffffff16638c65c81f60018561098c9190613f65565b6040518263ffffffff1660e01b81526004016109a89190613783565b602060405180830381865afa1580156109c5573d6000803e3d6000fd5b505050506040513d601f19601f820116820180604052508101906109e99190613fae565b73ffffffffffffffffffffffffffffffffffffffff16639f8743f76040518163ffffffff1660e01b8152600401600060405180830381865afa158015610a33573d6000803e3d6000fd5b505050506040513d6000823e3d601f19601f82011682018060405250810190610a5c91906142ce565b90508060a00151915050919050565b600080600260009054906101000a900473ffffffffffffffffffffffffffffffffffffffff1673ffffffffffffffffffffffffffffffffffffffff16638c65c81f600185610ab99190613f65565b6040518263ffffffff1660e01b8152600401610ad59190613783565b602060405180830381865afa158015610af2573d6000803e3d6000fd5b505050506040513d601f19601f82011682018060405250810190610b169190613fae565b9050600080610b2485611dbe565b90506000610b31866111b8565b905060008060008060008060005b88518161ffff161015610da6576001600a811115610b6057610b5f613a78565b5b898261ffff1681518110610b7757610b76613eee565b5b602002602001015160400151600a811115610b9557610b94613a78565b5b03610bad578680610ba590613f1d565b975050610d93565b6002600a811115610bc157610bc0613a78565b5b898261ffff1681518110610bd857610bd7613eee565b5b602002602001015160400151600a811115610bf657610bf5613a78565b5b03610c0e578580610c0690613f1d565b965050610d92565b6003600a811115610c2257610c21613a78565b5b898261ffff1681518110610c3957610c38613eee565b5b602002602001015160400151600a811115610c5757610c56613a78565b5b03610c6f578480610c6790613f1d565b955050610d91565b6004600a811115610c8357610c82613a78565b5b898261ffff1681518110610c9a57610c99613eee565b5b602002602001015160400151600a811115610cb857610cb7613a78565b5b03610cd0578380610cc890613f1d565b945050610d90565b6005600a811115610ce457610ce3613a78565b5b898261ffff1681518110610cfb57610cfa613eee565b5b602002602001015160400151600a811115610d1957610d18613a78565b5b03610d31578280610d2990613f1d565b935050610d8f565b6006600a811115610d4557610d44613a78565b5b898261ffff1681518110610d5c57610d5b613eee565b5b602002602001015160400151600a811115610d7a57610d79613a78565b5b03610d8e578180610d8a90613f1d565b9250505b5b5b5b5b5b8080610d9e90613ec4565b915050610b3f565b506000861115610e39578973ffffffffffffffffffffffffffffffffffffffff1663e2e3083060016040518263ffffffff1660e01b8152600401610dea9190613cdd565b602060405180830381865afa158015610e07573d6000803e3d6000fd5b505050506040513d601f19601f82011682018060405250810190610e2b9190614317565b89610e369190613e67565b98505b6000851115610ecb578973ffffffffffffffffffffffffffffffffffffffff1663e2e3083060026040518263ffffffff1660e01b8152600401610e7c9190613cdd565b602060405180830381865afa158015610e99573d6000803e3d6000fd5b505050506040513d601f19601f82011682018060405250810190610ebd9190614317565b89610ec89190613e67565b98505b6000841115610f5d578973ffffffffffffffffffffffffffffffffffffffff1663e2e3083060036040518263ffffffff1660e01b8152600401610f0e9190613cdd565b602060405180830381865afa158015610f2b573d6000803e3d6000fd5b505050506040513d601f19601f82011682018060405250810190610f4f9190614317565b89610f5a9190613e67565b98505b6000831115610fef578973ffffffffffffffffffffffffffffffffffffffff1663e2e3083060046040518263ffffffff1660e01b8152600401610fa09190613cdd565b602060405180830381865afa158015610fbd573d6000803e3d6000fd5b505050506040513d601f19601f82011682018060405250810190610fe19190614317565b89610fec9190613e67565b98505b6000821115611081578973ffffffffffffffffffffffffffffffffffffffff1663e2e3083060056040518263ffffffff1660e01b81526004016110329190613cdd565b602060405180830381865afa15801561104f573d6000803e3d6000fd5b505050506040513d601f19601f820116820180604052508101906110739190614317565b8961107e9190613e67565b98505b6000811115611113578973ffffffffffffffffffffffffffffffffffffffff1663e2e3083060066040518263ffffffff1660e01b81526004016110c49190613cdd565b602060405180830381865afa1580156110e1573d6000803e3d6000fd5b505050506040513d601f19601f820116820180604052508101906111059190614317565b896111109190613e67565b98505b6000875111156111a6578973ffffffffffffffffffffffffffffffffffffffff1663e2e3083060076040518263ffffffff1660e01b81526004016111579190613cdd565b602060405180830381865afa158015611174573d6000803e3d6000fd5b505050506040513d601f19601f820116820180604052508101906111989190614317565b896111a39190613e67565b98505b889a5050505050505050505050919050565b60606000600260009054906101000a900473ffffffffffffffffffffffffffffffffffffffff1673ffffffffffffffffffffffffffffffffffffffff16638c65c81f6001856112079190613f65565b6040518263ffffffff1660e01b81526004016112239190613783565b602060405180830381865afa158015611240573d6000803e3d6000fd5b505050506040513d601f19601f820116820180604052508101906112649190613fae565b905060008173ffffffffffffffffffffffffffffffffffffffff16639f8743f76040518163ffffffff1660e01b8152600401600060405180830381865afa1580156112b3573d6000803e3d6000fd5b505050506040513d6000823e3d601f19601f820116820180604052508101906112dc91906142ce565b9050600081610140015161ffff1667ffffffffffffffff8111156113035761130261324a565b5b60405190808252806020026020018201604052801561133c57816020015b6113296130fe565b8152602001906001900390816113215790505b5090506000805b83610140015161ffff168161ffff1610156115c35760008573ffffffffffffffffffffffffffffffffffffffff1663dd85ae5f8661012001518461ffff168151811061139257611391613eee565b5b60200260200101516040518263ffffffff1660e01b81526004016113b69190613783565b60a060405180830381865afa1580156113d3573d6000803e3d6000fd5b505050506040513d601f19601f820116820180604052508101906113f791906143d0565b9050600061140d82604001518760a00151611a02565b90506000818015611498575060008873ffffffffffffffffffffffffffffffffffffffff1663efa3d53160076040518263ffffffff1660e01b81526004016114559190613cdd565b602060405180830381865afa158015611472573d6000803e3d6000fd5b505050506040513d601f19601f820116820180604052508101906114969190614317565b115b1561152e578773ffffffffffffffffffffffffffffffffffffffff1663efa3d53160076040518263ffffffff1660e01b81526004016114d79190613cdd565b602060405180830381865afa1580156114f4573d6000803e3d6000fd5b505050506040513d601f19601f820116820180604052508101906115189190614317565b6115218b6118c3565b61152b91906143fd565b90505b6040518060c0016040528084600001518152602001846020015173ffffffffffffffffffffffffffffffffffffffff1681526020018460400151815260200183151581526020018460800151151581526020018281525086868061159190613ec4565b975061ffff16815181106115a8576115a7613eee565b5b60200260200101819052505050508080600101915050611343565b5081945050505050919050565b6000600260009054906101000a900473ffffffffffffffffffffffffffffffffffffffff1673ffffffffffffffffffffffffffffffffffffffff16638c65c81f60018461161d9190613f65565b6040518263ffffffff1660e01b81526004016116399190613783565b602060405180830381865afa158015611656573d6000803e3d6000fd5b505050506040513d601f19601f8201168201806040525081019061167a9190613fae565b73ffffffffffffffffffffffffffffffffffffffff1663e2e3083060096040518263ffffffff1660e01b81526004016116b39190613cdd565b602060405180830381865afa1580156116d0573d6000803e3d6000fd5b505050506040513d601f19601f820116820180604052508101906116f49190614317565b9050919050565b600080151561170a8484611715565b151514905092915050565b600080600090505b8251811015611766578361ffff1683828151811061173e5761173d613eee565b5b602002602001015161ffff160361175957600191505061176c565b808060010191505061171d565b50600090505b92915050565b600260009054906101000a900473ffffffffffffffffffffffffffffffffffffffff1681565b6000600260009054906101000a900473ffffffffffffffffffffffffffffffffffffffff1673ffffffffffffffffffffffffffffffffffffffff16638c65c81f6001846117e59190613f65565b6040518263ffffffff1660e01b81526004016118019190613783565b602060405180830381865afa15801561181e573d6000803e3d6000fd5b505050506040513d601f19601f820116820180604052508101906118429190613fae565b73ffffffffffffffffffffffffffffffffffffffff1663e2e30830600a6040518263ffffffff1660e01b815260040161187b9190613cdd565b602060405180830381865afa158015611898573d6000803e3d6000fd5b505050506040513d601f19601f820116820180604052508101906118bc9190614317565b9050919050565b6000600260009054906101000a900473ffffffffffffffffffffffffffffffffffffffff1673ffffffffffffffffffffffffffffffffffffffff16638c65c81f6001846119109190613f65565b6040518263ffffffff1660e01b815260040161192c9190613783565b602060405180830381865afa158015611949573d6000803e3d6000fd5b505050506040513d601f19601f8201168201806040525081019061196d9190613fae565b73ffffffffffffffffffffffffffffffffffffffff1663e2e3083060076040518263ffffffff1660e01b81526004016119a69190613cdd565b602060405180830381865afa1580156119c3573d6000803e3d6000fd5b505050506040513d601f19601f820116820180604052508101906119e79190614317565b9050919050565b6119f6612cde565b611a006000612d65565b565b600080600090505b8251811015611a4b5783838281518110611a2757611a26613eee565b5b602002602001015103611a3e576001915050611a51565b8080600101915050611a0a565b50600090505b92915050565b60008060009054906101000a900473ffffffffffffffffffffffffffffffffffffffff16905090565b60006001600a811115611a9657611a95613a78565b5b82600a811115611aa957611aa8613a78565b5b1480611ad957506002600a811115611ac457611ac3613a78565b5b82600a811115611ad757611ad6613a78565b5b145b80611b0857506003600a811115611af357611af2613a78565b5b82600a811115611b0657611b05613a78565b5b145b80611b3757506004600a811115611b2257611b21613a78565b5b82600a811115611b3557611b34613a78565b5b145b80611b6657506005600a811115611b5157611b50613a78565b5b82600a811115611b6457611b63613a78565b5b145b80611b9557506006600a811115611b8057611b7f613a78565b5b82600a811115611b9357611b92613a78565b5b145b611bd4576040517f08c379a0000000000000000000000000000000000000000000000000000000008152600401611bcb9061448b565b60405180910390fd5b600260009054906101000a900473ffffffffffffffffffffffffffffffffffffffff1673ffffffffffffffffffffffffffffffffffffffff16638c65c81f600185611c1f9190613f65565b6040518263ffffffff1660e01b8152600401611c3b9190613783565b602060405180830381865afa158015611c58573d6000803e3d6000fd5b505050506040513d601f19601f82011682018060405250810190611c7c9190613fae565b73ffffffffffffffffffffffffffffffffffffffff1663e2e30830836040518263ffffffff1660e01b8152600401611cb49190613cdd565b602060405180830381865afa158015611cd1573d6000803e3d6000fd5b505050506040513d601f19601f82011682018060405250810190611cf59190614317565b905092915050565b611d05612cde565b60008173ffffffffffffffffffffffffffffffffffffffff166370a08231306040518263ffffffff1660e01b8152600401611d4091906139cc565b602060405180830381865afa158015611d5d573d6000803e3d6000fd5b505050506040513d601f19601f82011682018060405250810190611d819190614317565b90506000811115611dba57611db982600160009054906101000a900473ffffffffffffffffffffffffffffffffffffffff1683612e29565b5b5050565b60606000600260009054906101000a900473ffffffffffffffffffffffffffffffffffffffff1673ffffffffffffffffffffffffffffffffffffffff16638c65c81f600185611e0d9190613f65565b6040518263ffffffff1660e01b8152600401611e299190613783565b602060405180830381865afa158015611e46573d6000803e3d6000fd5b505050506040513d601f19601f82011682018060405250810190611e6a9190613fae565b905060008173ffffffffffffffffffffffffffffffffffffffff16639f8743f76040518163ffffffff1660e01b8152600401600060405180830381865afa158015611eb9573d6000803e3d6000fd5b505050506040513d6000823e3d601f19601f82011682018060405250810190611ee291906142ce565b905060008161010001519050600082610100015161ffff1667ffffffffffffffff811115611f1357611f1261324a565b5b604051908082528060200260200182016040528015611f4c57816020015b611f3961314e565b815260200190600190039081611f315790505b5090506000805b8361ffff168161ffff1610156123595760008673ffffffffffffffffffffffffffffffffffffffff16639b7be8fc8760e001518461ffff1681518110611f9c57611f9b613eee565b5b60200260200101516040518263ffffffff1660e01b8152600401611fc09190613783565b60c060405180830381865afa158015611fdd573d6000803e3d6000fd5b505050506040513d601f19601f820116820180604052508101906120019190614560565b905060008773ffffffffffffffffffffffffffffffffffffffff1663598f3b9d83600001516040518263ffffffff1660e01b81526004016120429190613783565b600060405180830381865afa15801561205f573d6000803e3d6000fd5b505050506040513d6000823e3d601f19601f82011682018060405250810190612088919061458d565b9050600087608001516005815181106120a4576120a3613eee565b5b602002602001015161ffff16826005815181106120c4576120c3613eee565b5b602002602001015161ffff161490506000805b60058161ffff161015612137576000848261ffff16815181106120fd576120fc613eee565b5b60200260200101519050612115818c60800151611715565b1561212957828061212590613ec4565b9350505b5080806001019150506120d7565b5060006121448284612684565b9050600080600a81111561215b5761215a613a78565b5b82600a81111561216e5761216d613a78565b5b141580156121f5575060008c73ffffffffffffffffffffffffffffffffffffffff1663efa3d531846040518263ffffffff1660e01b81526004016121b29190613cdd565b602060405180830381865afa1580156121cf573d6000803e3d6000fd5b505050506040513d601f19601f820116820180604052508101906121f39190614317565b115b1561228b578b73ffffffffffffffffffffffffffffffffffffffff1663efa3d531836040518263ffffffff1660e01b81526004016122339190613cdd565b602060405180830381865afa158015612250573d6000803e3d6000fd5b505050506040513d601f19601f820116820180604052508101906122749190614317565b61227e8f84611a80565b61228891906143fd565b90505b6040518060c0016040528087600001518152602001876020015173ffffffffffffffffffffffffffffffffffffffff16815260200183600a8111156122d3576122d2613a78565b5b81526020016000600a8111156122ec576122eb613a78565b5b84600a8111156122ff576122fe613a78565b5b1415151581526020018760600151151581526020018281525089898061232490613ec4565b9a5061ffff168151811061233b5761233a613eee565b5b60200260200101819052505050505050508080600101915050611f53565b508195505050505050919050565b600080600090506000600260009054906101000a900473ffffffffffffffffffffffffffffffffffffffff1673ffffffffffffffffffffffffffffffffffffffff16638c65c81f6001886123bb9190613f65565b6040518263ffffffff1660e01b81526004016123d79190613783565b602060405180830381865afa1580156123f4573d6000803e3d6000fd5b505050506040513d601f19601f820116820180604052508101906124189190613fae565b9050600061242687876106f6565b905060005b81518110156124975785151582828151811061244a57612449613eee565b5b60200260200101516080015115150361248a578181815181106124705761246f613eee565b5b602002602001015160a00151846124879190613e67565b93505b808060010191505061242b565b508293505050509392505050565b600080600090506000600260009054906101000a900473ffffffffffffffffffffffffffffffffffffffff1673ffffffffffffffffffffffffffffffffffffffff16638c65c81f6001886124f99190613f65565b6040518263ffffffff1660e01b81526004016125159190613783565b602060405180830381865afa158015612532573d6000803e3d6000fd5b505050506040513d601f19601f820116820180604052508101906125569190613fae565b90506000612564878761272d565b905060005b81518110156125f95785151582828151811061258857612587613eee565b5b6020026020010151608001511515036125ec5760008282815181106125b0576125af613eee565b5b60200260200101516040015190508282815181106125d1576125d0613eee565b5b602002602001015160a00151856125e89190613e67565b9450505b8080600101915050612569565b508293505050509392505050565b61260f612cde565b600047111561268257600160009054906101000a900473ffffffffffffffffffffffffffffffffffffffff1673ffffffffffffffffffffffffffffffffffffffff166108fc479081150290604051600060405180830381858888f19350505050158015612680573d6000803e3d6000fd5b505b565b600060058361ffff161480156126975750815b156126a55760019050612727565b60058361ffff16036126ba5760029050612727565b60048361ffff161480156126cb5750815b156126d95760039050612727565b60048361ffff16036126ee5760049050612727565b60038361ffff161480156126ff5750815b1561270d5760059050612727565b60038361ffff16036127225760069050612727565b600090505b92915050565b6060600061273a84611dbe565b9050600080825167ffffffffffffffff81111561275a5761275961324a565b5b60405190808252806020026020018201604052801561279357816020015b61278061314e565b8152602001906001900390816127785790505b50905060005b8351811015612870578573ffffffffffffffffffffffffffffffffffffffff168482815181106127cc576127cb613eee565b5b60200260200101516020015173ffffffffffffffffffffffffffffffffffffffff16148015612816575083818151811061280957612808613eee565b5b6020026020010151606001515b156128635783818151811061282e5761282d613eee565b5b602002602001015182848151811061284957612848613eee565b5b6020026020010181905250828061285f90613f1d565b9350505b8080600101915050612799565b5060008267ffffffffffffffff81111561288d5761288c61324a565b5b6040519080825280602002602001820160405280156128c657816020015b6128b361314e565b8152602001906001900390816128ab5790505b50905060005b8381101561291a578281815181106128e7576128e6613eee565b5b602002602001015182828151811061290257612901613eee565b5b602002602001018190525080806001019150506128cc565b508094505050505092915050565b600080600090506000600260009054906101000a900473ffffffffffffffffffffffffffffffffffffffff1673ffffffffffffffffffffffffffffffffffffffff16638c65c81f60018661297c9190613f65565b6040518263ffffffff1660e01b81526004016129989190613783565b602060405180830381865afa1580156129b5573d6000803e3d6000fd5b505050506040513d601f19601f820116820180604052508101906129d99190613fae565b73ffffffffffffffffffffffffffffffffffffffff16639f8743f76040518163ffffffff1660e01b8152600401600060405180830381865afa158015612a23573d6000803e3d6000fd5b505050506040513d6000823e3d601f19601f82011682018060405250810190612a4c91906142ce565b61014001519050600260009054906101000a900473ffffffffffffffffffffffffffffffffffffffff1673ffffffffffffffffffffffffffffffffffffffff1663f4dec22b6040518163ffffffff1660e01b8152600401602060405180830381865afa158015612ac0573d6000803e3d6000fd5b505050506040513d601f19601f82011682018060405250810190612ae491906145d6565b61ffff168161ffff1681612afb57612afa613dd8565b5b04915060008261ffff16148015612b16575060008161ffff16115b15612b2057600191505b8192505050919050565b612b32612cde565b600073ffffffffffffffffffffffffffffffffffffffff168173ffffffffffffffffffffffffffffffffffffffff1603612ba45760006040517f1e4fbdf7000000000000000000000000000000000000000000000000000000008152600401612b9b91906139cc565b60405180910390fd5b612bad81612d65565b50565b60606000600260009054906101000a900473ffffffffffffffffffffffffffffffffffffffff1673ffffffffffffffffffffffffffffffffffffffff16638c65c81f600185612bff9190613f65565b6040518263ffffffff1660e01b8152600401612c1b9190613783565b602060405180830381865afa158015612c38573d6000803e3d6000fd5b505050506040513d601f19601f82011682018060405250810190612c5c9190613fae565b73ffffffffffffffffffffffffffffffffffffffff16639f8743f76040518163ffffffff1660e01b8152600401600060405180830381865afa158015612ca6573d6000803e3d6000fd5b505050506040513d6000823e3d601f19601f82011682018060405250810190612ccf91906142ce565b90508060800151915050919050565b612ce6612ea8565b73ffffffffffffffffffffffffffffffffffffffff16612d04611a57565b73ffffffffffffffffffffffffffffffffffffffff1614612d6357612d27612ea8565b6040517f118cdaa7000000000000000000000000000000000000000000000000000000008152600401612d5a91906139cc565b60405180910390fd5b565b60008060009054906101000a900473ffffffffffffffffffffffffffffffffffffffff169050816000806101000a81548173ffffffffffffffffffffffffffffffffffffffff021916908373ffffffffffffffffffffffffffffffffffffffff1602179055508173ffffffffffffffffffffffffffffffffffffffff168173ffffffffffffffffffffffffffffffffffffffff167f8be0079c531659141344cd1fd0a4f28419497f9722a3daafe3b4186f6b6457e060405160405180910390a35050565b612ea3838473ffffffffffffffffffffffffffffffffffffffff1663a9059cbb8585604051602401612e5c929190614603565b604051602081830303815290604052915060e01b6020820180517bffffffffffffffffffffffffffffffffffffffffffffffffffffffff8381831617835250505050612eb0565b505050565b600033905090565b6000612edb828473ffffffffffffffffffffffffffffffffffffffff16612f4790919063ffffffff16565b90506000815114158015612f00575080806020019051810190612efe919061462c565b155b15612f4257826040517f5274afe7000000000000000000000000000000000000000000000000000000008152600401612f3991906139cc565b60405180910390fd5b505050565b6060612f5583836000612f5d565b905092915050565b606081471015612fa457306040517fcd786059000000000000000000000000000000000000000000000000000000008152600401612f9b91906139cc565b60405180910390fd5b6000808573ffffffffffffffffffffffffffffffffffffffff168486604051612fcd91906146ca565b60006040518083038185875af1925050503d806000811461300a576040519150601f19603f3d011682016040523d82523d6000602084013e61300f565b606091505b509150915061301f86838361302a565b925050509392505050565b60608261303f5761303a826130b9565b6130b1565b60008251148015613067575060008473ffffffffffffffffffffffffffffffffffffffff163b145b156130a957836040517f9996b3150000000000000000000000000000000000000000000000000000000081526004016130a091906139cc565b60405180910390fd5b8190506130b2565b5b9392505050565b6000815111156130cc5780518082602001fd5b6040517f1425ea4200000000000000000000000000000000000000000000000000000000815260040160405180910390fd5b6040518060c0016040528060008152602001600073ffffffffffffffffffffffffffffffffffffffff16815260200160008152602001600015158152602001600015158152602001600081525090565b6040518060c0016040528060008152602001600073ffffffffffffffffffffffffffffffffffffffff1681526020016000600a81111561319157613190613a78565b5b8152602001600015158152602001600015158152602001600081525090565b6000604051905090565b600080fd5b600080fd5b6000819050919050565b6131d7816131c4565b81146131e257600080fd5b50565b6000813590506131f4816131ce565b92915050565b600061ffff82169050919050565b613211816131fa565b811461321c57600080fd5b50565b60008135905061322e81613208565b92915050565b600080fd5b6000601f19601f8301169050919050565b7f4e487b7100000000000000000000000000000000000000000000000000000000600052604160045260246000fd5b61328282613239565b810181811067ffffffffffffffff821117156132a1576132a061324a565b5b80604052505050565b60006132b46131b0565b90506132c08282613279565b919050565b600067ffffffffffffffff8211156132e0576132df61324a565b5b602082029050602081019050919050565b600080fd5b6000613309613304846132c5565b6132aa565b9050808382526020820190506020840283018581111561332c5761332b6132f1565b5b835b818110156133555780613341888261321f565b84526020840193505060208101905061332e565b5050509392505050565b600082601f83011261337457613373613234565b5b81356133848482602086016132f6565b91505092915050565b6000806000606084860312156133a6576133a56131ba565b5b60006133b4868287016131e5565b93505060206133c58682870161321f565b925050604084013567ffffffffffffffff8111156133e6576133e56131bf565b5b6133f28682870161335f565b9150509250925092565b613405816131fa565b82525050565b600060208201905061342060008301846133fc565b92915050565b600073ffffffffffffffffffffffffffffffffffffffff82169050919050565b600061345182613426565b9050919050565b61346181613446565b811461346c57600080fd5b50565b60008135905061347e81613458565b92915050565b60006020828403121561349a576134996131ba565b5b60006134a88482850161346f565b91505092915050565b600080604083850312156134c8576134c76131ba565b5b60006134d6858286016131e5565b92505060206134e78582860161346f565b9150509250929050565b600081519050919050565b600082825260208201905092915050565b6000819050602082019050919050565b613526816131c4565b82525050565b61353581613446565b82525050565b60008115159050919050565b6135508161353b565b82525050565b60c08201600082015161356c600085018261351d565b50602082015161357f602085018261352c565b506040820151613592604085018261351d565b5060608201516135a56060850182613547565b5060808201516135b86080850182613547565b5060a08201516135cb60a085018261351d565b50505050565b60006135dd8383613556565b60c08301905092915050565b6000602082019050919050565b6000613601826134f1565b61360b81856134fc565b93506136168361350d565b8060005b8381101561364757815161362e88826135d1565b9750613639836135e9565b92505060018101905061361a565b5085935050505092915050565b6000602082019050818103600083015261366e81846135f6565b905092915050565b60006020828403121561368c5761368b6131ba565b5b600061369a848285016131e5565b91505092915050565b600081519050919050565b600082825260208201905092915050565b6000819050602082019050919050565b60006136db838361351d565b60208301905092915050565b6000602082019050919050565b60006136ff826136a3565b61370981856136ae565b9350613714836136bf565b8060005b8381101561374557815161372c88826136cf565b9750613737836136e7565b925050600181019050613718565b5085935050505092915050565b6000602082019050818103600083015261376c81846136f4565b905092915050565b61377d816131c4565b82525050565b60006020820190506137986000830184613774565b92915050565b600080604083850312156137b5576137b46131ba565b5b60006137c38582860161321f565b925050602083013567ffffffffffffffff8111156137e4576137e36131bf565b5b6137f08582860161335f565b9150509250929050565b6138038161353b565b82525050565b600060208201905061381e60008301846137fa565b92915050565b6000819050919050565b600061384961384461383f84613426565b613824565b613426565b9050919050565b600061385b8261382e565b9050919050565b600061386d82613850565b9050919050565b61387d81613862565b82525050565b60006020820190506138986000830184613874565b92915050565b600067ffffffffffffffff8211156138b9576138b861324a565b5b602082029050602081019050919050565b60006138dd6138d88461389e565b6132aa565b90508083825260208201905060208402830185811115613900576138ff6132f1565b5b835b81811015613929578061391588826131e5565b845260208401935050602081019050613902565b5050509392505050565b600082601f83011261394857613947613234565b5b81356139588482602086016138ca565b91505092915050565b60008060408385031215613978576139776131ba565b5b6000613986858286016131e5565b925050602083013567ffffffffffffffff8111156139a7576139a66131bf565b5b6139b385828601613933565b9150509250929050565b6139c681613446565b82525050565b60006020820190506139e160008301846139bd565b92915050565b600b81106139f457600080fd5b50565b600081359050613a06816139e7565b92915050565b60008060408385031215613a2357613a226131ba565b5b6000613a31858286016131e5565b9250506020613a42858286016139f7565b9150509250929050565b600081519050919050565b600082825260208201905092915050565b6000819050602082019050919050565b7f4e487b7100000000000000000000000000000000000000000000000000000000600052602160045260246000fd5b600b8110613ab857613ab7613a78565b5b50565b6000819050613ac982613aa7565b919050565b6000613ad982613abb565b9050919050565b613ae981613ace565b82525050565b60c082016000820151613b05600085018261351d565b506020820151613b18602085018261352c565b506040820151613b2b6040850182613ae0565b506060820151613b3e6060850182613547565b506080820151613b516080850182613547565b5060a0820151613b6460a085018261351d565b50505050565b6000613b768383613aef565b60c08301905092915050565b6000602082019050919050565b6000613b9a82613a4c565b613ba48185613a57565b9350613baf83613a68565b8060005b83811015613be0578151613bc78882613b6a565b9750613bd283613b82565b925050600181019050613bb3565b5085935050505092915050565b60006020820190508181036000830152613c078184613b8f565b905092915050565b613c188161353b565b8114613c2357600080fd5b50565b600081359050613c3581613c0f565b92915050565b600080600060608486031215613c5457613c536131ba565b5b6000613c62868287016131e5565b9350506020613c738682870161346f565b9250506040613c8486828701613c26565b9150509250925092565b60008060408385031215613ca557613ca46131ba565b5b6000613cb38582860161321f565b9250506020613cc485828601613c26565b9150509250929050565b613cd781613ace565b82525050565b6000602082019050613cf26000830184613cce565b92915050565b600081519050919050565b600082825260208201905092915050565b6000819050602082019050919050565b613d2d816131fa565b82525050565b6000613d3f8383613d24565b60208301905092915050565b6000602082019050919050565b6000613d6382613cf8565b613d6d8185613d03565b9350613d7883613d14565b8060005b83811015613da9578151613d908882613d33565b9750613d9b83613d4b565b925050600181019050613d7c565b5085935050505092915050565b60006020820190508181036000830152613dd08184613d58565b905092915050565b7f4e487b7100000000000000000000000000000000000000000000000000000000600052601260045260246000fd5b6000613e12826131c4565b9150613e1d836131c4565b925082613e2d57613e2c613dd8565b5b828206905092915050565b7f4e487b7100000000000000000000000000000000000000000000000000000000600052601160045260246000fd5b6000613e72826131c4565b9150613e7d836131c4565b9250828201905080821115613e9557613e94613e38565b5b92915050565b6000604082019050613eb060008301856133fc565b613ebd60208301846133fc565b9392505050565b6000613ecf826131fa565b915061ffff8203613ee357613ee2613e38565b5b600182019050919050565b7f4e487b7100000000000000000000000000000000000000000000000000000000600052603260045260246000fd5b6000613f28826131c4565b91507fffffffffffffffffffffffffffffffffffffffffffffffffffffffffffffffff8203613f5a57613f59613e38565b5b600182019050919050565b6000613f70826131c4565b9150613f7b836131c4565b9250828203905081811115613f9357613f92613e38565b5b92915050565b600081519050613fa881613458565b92915050565b600060208284031215613fc457613fc36131ba565b5b6000613fd284828501613f99565b91505092915050565b600080fd5b600080fd5b600081519050613ff4816131ce565b92915050565b60008151905061400981613c0f565b92915050565b60008151905061401e81613208565b92915050565b6000614037614032846132c5565b6132aa565b9050808382526020820190506020840283018581111561405a576140596132f1565b5b835b81811015614083578061406f888261400f565b84526020840193505060208101905061405c565b5050509392505050565b600082601f8301126140a2576140a1613234565b5b81516140b2848260208601614024565b91505092915050565b60006140ce6140c98461389e565b6132aa565b905080838252602082019050602084028301858111156140f1576140f06132f1565b5b835b8181101561411a57806141068882613fe5565b8452602084019350506020810190506140f3565b5050509392505050565b600082601f83011261413957614138613234565b5b81516141498482602086016140bb565b91505092915050565b6000610160828403121561416957614168613fdb565b5b6141746101606132aa565b9050600061418484828501613fe5565b600083015250602061419884828501613fe5565b60208301525060406141ac84828501613fe5565b60408301525060606141c084828501613ffa565b606083015250608082015167ffffffffffffffff8111156141e4576141e3613fe0565b5b6141f08482850161408d565b60808301525060a082015167ffffffffffffffff81111561421457614213613fe0565b5b61422084828501614124565b60a08301525060c06142348482850161400f565b60c08301525060e082015167ffffffffffffffff81111561425857614257613fe0565b5b61426484828501614124565b60e0830152506101006142798482850161400f565b6101008301525061012082015167ffffffffffffffff81111561429f5761429e613fe0565b5b6142ab84828501614124565b610120830152506101406142c18482850161400f565b6101408301525092915050565b6000602082840312156142e4576142e36131ba565b5b600082015167ffffffffffffffff811115614302576143016131bf565b5b61430e84828501614152565b91505092915050565b60006020828403121561432d5761432c6131ba565b5b600061433b84828501613fe5565b91505092915050565b600060a0828403121561435a57614359613fdb565b5b61436460a06132aa565b9050600061437484828501613fe5565b600083015250602061438884828501613f99565b602083015250604061439c84828501613fe5565b60408301525060606143b084828501613ffa565b60608301525060806143c484828501613ffa565b60808301525092915050565b600060a082840312156143e6576143e56131ba565b5b60006143f484828501614344565b91505092915050565b6000614408826131c4565b9150614413836131c4565b92508261442357614422613dd8565b5b828204905092915050565b600082825260208201905092915050565b7f496e76616c696420766963746f72792074696572000000000000000000000000600082015250565b600061447560148361442e565b91506144808261443f565b602082019050919050565b600060208201905081810360008301526144a481614468565b9050919050565b6000815190506144ba816139e7565b92915050565b600060c082840312156144d6576144d5613fdb565b5b6144e060c06132aa565b905060006144f084828501613fe5565b600083015250602061450484828501613f99565b602083015250604061451884828501613f99565b604083015250606061452c84828501613ffa565b606083015250608061454084828501613fe5565b60808301525060a0614554848285016144ab565b60a08301525092915050565b600060c08284031215614576576145756131ba565b5b6000614584848285016144c0565b91505092915050565b6000602082840312156145a3576145a26131ba565b5b600082015167ffffffffffffffff8111156145c1576145c06131bf565b5b6145cd8482850161408d565b91505092915050565b6000602082840312156145ec576145eb6131ba565b5b60006145fa8482850161400f565b91505092915050565b600060408201905061461860008301856139bd565b6146256020830184613774565b9392505050565b600060208284031215614642576146416131ba565b5b600061465084828501613ffa565b91505092915050565b600081519050919050565b600081905092915050565b60005b8381101561468d578082015181840152602081019050614672565b60008484015250505050565b60006146a482614659565b6146ae8185614664565b93506146be81856020860161466f565b80840191505092915050565b60006146d68284614699565b91508190509291505056fea26469706673582212201b518ffd2f7db205ff4014370fb66b214d7f029929c6382cd198b75d0058e89964736f6c63430008180033",
  "devdoc": {
    "errors": {
      "AddressEmptyCode(address)": [
        {
          "details": "There's no code at `target` (it is not a contract)."
        }
      ],
      "AddressInsufficientBalance(address)": [
        {
          "details": "The ETH balance of the account is not enough to perform the operation."
        }
      ],
      "FailedInnerCall()": [
        {
          "details": "A call to an address target failed. The target may have reverted."
        }
      ],
      "OwnableInvalidOwner(address)": [
        {
          "details": "The owner is not a valid owner account. (eg. `address(0)`)"
        }
      ],
      "OwnableUnauthorizedAccount(address)": [
        {
          "details": "The caller account is not authorized to perform an operation."
        }
      ],
      "SafeERC20FailedOperation(address)": [
        {
          "details": "An operation with an ERC20 token failed."
        }
      ]
    },
    "kind": "dev",
    "methods": {
      "owner()": {
        "details": "Returns the address of the current owner."
      },
      "renounceOwnership()": {
        "details": "Leaves the contract without owner. It will not be possible to call `onlyOwner` functions. Can only be called by the current owner. NOTE: Renouncing ownership will leave the contract without an owner, thereby disabling any functionality that is only available to the owner."
      },
      "transferOwnership(address)": {
        "details": "Transfers ownership of the contract to a new account (`newOwner`). Can only be called by the current owner."
      }
    },
    "version": 1
  },
  "userdoc": {
    "kind": "user",
    "methods": {},
    "version": 1
  },
  "storageLayout": {
    "storage": [
      {
        "astId": 8,
        "contract": "contracts/LotteryReader.sol:LotteryReader",
        "label": "_owner",
        "offset": 0,
        "slot": "0",
        "type": "t_address"
      },
      {
        "astId": 4896,
        "contract": "contracts/LotteryReader.sol:LotteryReader",
        "label": "teamAddress",
        "offset": 0,
        "slot": "1",
        "type": "t_address"
      },
      {
        "astId": 2034,
        "contract": "contracts/LotteryReader.sol:LotteryReader",
        "label": "lotteryMaster",
        "offset": 0,
        "slot": "2",
        "type": "t_contract(LotteryMaster)2004"
      }
    ],
    "types": {
      "t_address": {
        "encoding": "inplace",
        "label": "address",
        "numberOfBytes": "20"
      },
      "t_contract(LotteryMaster)2004": {
        "encoding": "inplace",
        "label": "contract LotteryMaster",
        "numberOfBytes": "20"
      }
    }
  }
}