{
  "address": "0xfe08982682ECB23cb4fDeAB04F86Fd0930834e41",
  "abi": [
    {
      "inputs": [
        {
          "internalType": "address",
          "name": "cyclixRandomizer",
          "type": "address"
        },
        {
          "internalType": "address",
          "name": "lotteryReader",
          "type": "address"
        },
        {
          "internalType": "address",
          "name": "_lotteryRoundCreator",
          "type": "address"
        },
        {
          "internalType": "address",
          "name": "_paymentToken",
          "type": "address"
        },
        {
          "internalType": "uint256",
          "name": "_ticketPrice",
          "type": "uint256"
        }
      ],
      "stateMutability": "nonpayable",
      "type": "constructor"
    },
    {
      "inputs": [
        {
          "internalType": "address",
          "name": "target",
          "type": "address"
        }
      ],
      "name": "AddressEmptyCode",
      "type": "error"
    },
    {
      "inputs": [
        {
          "internalType": "address",
          "name": "account",
          "type": "address"
        }
      ],
      "name": "AddressInsufficientBalance",
      "type": "error"
    },
    {
      "inputs": [],
      "name": "FailedInnerCall",
      "type": "error"
    },
    {
      "inputs": [
        {
          "internalType": "address",
          "name": "owner",
          "type": "address"
        }
      ],
      "name": "OwnableInvalidOwner",
      "type": "error"
    },
    {
      "inputs": [
        {
          "internalType": "address",
          "name": "account",
          "type": "address"
        }
      ],
      "name": "OwnableUnauthorizedAccount",
      "type": "error"
    },
    {
      "inputs": [
        {
          "internalType": "address",
          "name": "token",
          "type": "address"
        }
      ],
      "name": "SafeERC20FailedOperation",
      "type": "error"
    },
    {
      "anonymous": false,
      "inputs": [
        {
          "indexed": true,
          "internalType": "address",
          "name": "previousOwner",
          "type": "address"
        },
        {
          "indexed": true,
          "internalType": "address",
          "name": "newOwner",
          "type": "address"
        }
      ],
      "name": "OwnershipTransferred",
      "type": "event"
    },
    {
      "inputs": [
        {
          "internalType": "address",
          "name": "wallet",
          "type": "address"
        }
      ],
      "name": "addBankWallet",
      "outputs": [],
      "stateMutability": "nonpayable",
      "type": "function"
    },
    {
      "inputs": [
        {
          "internalType": "address[]",
          "name": "participant",
          "type": "address[]"
        }
      ],
      "name": "addFreeRound",
      "outputs": [],
      "stateMutability": "nonpayable",
      "type": "function"
    },
    {
      "inputs": [
        {
          "internalType": "uint256",
          "name": "",
          "type": "uint256"
        }
      ],
      "name": "bankWallets",
      "outputs": [
        {
          "internalType": "address",
          "name": "",
          "type": "address"
        }
      ],
      "stateMutability": "view",
      "type": "function"
    },
    {
      "inputs": [
        {
          "internalType": "uint256",
          "name": "chainId",
          "type": "uint256"
        },
        {
          "internalType": "uint16[]",
          "name": "chosenNumbers",
          "type": "uint16[]"
        },
        {
          "internalType": "uint16",
          "name": "powerNumber",
          "type": "uint16"
        },
        {
          "internalType": "address",
          "name": "referral",
          "type": "address"
        }
      ],
      "name": "buyTicket",
      "outputs": [],
      "stateMutability": "nonpayable",
      "type": "function"
    },
    {
      "inputs": [
        {
          "internalType": "uint256",
          "name": "chainId",
          "type": "uint256"
        },
        {
          "internalType": "uint16[]",
          "name": "moreTicketNumbers",
          "type": "uint16[]"
        },
        {
          "internalType": "address",
          "name": "referral",
          "type": "address"
        }
      ],
      "name": "buyTickets",
      "outputs": [],
      "stateMutability": "nonpayable",
      "type": "function"
    },
    {
      "inputs": [
        {
          "internalType": "uint256",
          "name": "referralTicketId",
          "type": "uint256"
        }
      ],
      "name": "claimReferralVictory",
      "outputs": [],
      "stateMutability": "nonpayable",
      "type": "function"
    },
    {
      "inputs": [
        {
          "internalType": "uint256",
          "name": "ticketId",
          "type": "uint256"
        }
      ],
      "name": "claimVictory",
      "outputs": [],
      "stateMutability": "nonpayable",
      "type": "function"
    },
    {
      "inputs": [],
      "name": "closeRound",
      "outputs": [],
      "stateMutability": "nonpayable",
      "type": "function"
    },
    {
      "inputs": [],
      "name": "counterForBankWallets",
      "outputs": [
        {
          "internalType": "uint16",
          "name": "",
          "type": "uint16"
        }
      ],
      "stateMutability": "view",
      "type": "function"
    },
    {
      "inputs": [
        {
          "internalType": "uint256",
          "name": "roundId",
          "type": "uint256"
        }
      ],
      "name": "fetchRoundNumbers",
      "outputs": [],
      "stateMutability": "nonpayable",
      "type": "function"
    },
    {
      "inputs": [
        {
          "internalType": "address",
          "name": "",
          "type": "address"
        }
      ],
      "name": "freeRounds",
      "outputs": [
        {
          "internalType": "uint16",
          "name": "",
          "type": "uint16"
        }
      ],
      "stateMutability": "view",
      "type": "function"
    },
    {
      "inputs": [],
      "name": "freeRoundsAreEnabled",
      "outputs": [
        {
          "internalType": "bool",
          "name": "",
          "type": "bool"
        }
      ],
      "stateMutability": "view",
      "type": "function"
    },
    {
      "inputs": [],
      "name": "getCurrentRound",
      "outputs": [
        {
          "internalType": "address",
          "name": "",
          "type": "address"
        }
      ],
      "stateMutability": "view",
      "type": "function"
    },
    {
      "inputs": [],
      "name": "lotteryRoundCreator",
      "outputs": [
        {
          "internalType": "contract LotteryRoundCreatorInterface",
          "name": "",
          "type": "address"
        }
      ],
      "stateMutability": "view",
      "type": "function"
    },
    {
      "inputs": [
        {
          "internalType": "uint256",
          "name": "roundId",
          "type": "uint256"
        }
      ],
      "name": "markWinners",
      "outputs": [],
      "stateMutability": "nonpayable",
      "type": "function"
    },
    {
      "inputs": [],
      "name": "owner",
      "outputs": [
        {
          "internalType": "address",
          "name": "",
          "type": "address"
        }
      ],
      "stateMutability": "view",
      "type": "function"
    },
    {
      "inputs": [],
      "name": "paymentToken",
      "outputs": [
        {
          "internalType": "contract IERC20Metadata",
          "name": "",
          "type": "address"
        }
      ],
      "stateMutability": "view",
      "type": "function"
    },
    {
      "inputs": [],
      "name": "percentageOfReferralWinners",
      "outputs": [
        {
          "internalType": "uint16",
          "name": "",
          "type": "uint16"
        }
      ],
      "stateMutability": "view",
      "type": "function"
    },
    {
      "inputs": [
        {
          "internalType": "uint256",
          "name": "",
          "type": "uint256"
        }
      ],
      "name": "publicRoundRandomNumbersRequestId",
      "outputs": [
        {
          "internalType": "uint256",
          "name": "",
          "type": "uint256"
        }
      ],
      "stateMutability": "view",
      "type": "function"
    },
    {
      "inputs": [],
      "name": "randomizer",
      "outputs": [
        {
          "internalType": "contract CyclixRandomizerInterface",
          "name": "",
          "type": "address"
        }
      ],
      "stateMutability": "view",
      "type": "function"
    },
    {
      "inputs": [],
      "name": "reader",
      "outputs": [
        {
          "internalType": "contract LotteryReaderInterface",
          "name": "",
          "type": "address"
        }
      ],
      "stateMutability": "view",
      "type": "function"
    },
    {
      "inputs": [
        {
          "internalType": "address",
          "name": "wallet",
          "type": "address"
        }
      ],
      "name": "removeBankWallet",
      "outputs": [],
      "stateMutability": "nonpayable",
      "type": "function"
    },
    {
      "inputs": [],
      "name": "renounceOwnership",
      "outputs": [],
      "stateMutability": "nonpayable",
      "type": "function"
    },
    {
      "inputs": [],
      "name": "roundCount",
      "outputs": [
        {
          "internalType": "uint256",
          "name": "",
          "type": "uint256"
        }
      ],
      "stateMutability": "view",
      "type": "function"
    },
    {
      "inputs": [
        {
          "internalType": "uint256",
          "name": "roundId",
          "type": "uint256"
        }
      ],
      "name": "roundForId",
      "outputs": [
        {
          "internalType": "address",
          "name": "",
          "type": "address"
        }
      ],
      "stateMutability": "view",
      "type": "function"
    },
    {
      "inputs": [
        {
          "internalType": "uint256",
          "name": "",
          "type": "uint256"
        }
      ],
      "name": "rounds",
      "outputs": [
        {
          "internalType": "address",
          "name": "",
          "type": "address"
        }
      ],
      "stateMutability": "view",
      "type": "function"
    },
    {
      "inputs": [],
      "name": "sendCryptoToTeam",
      "outputs": [],
      "stateMutability": "nonpayable",
      "type": "function"
    },
    {
      "inputs": [
        {
          "internalType": "address",
          "name": "_token",
          "type": "address"
        }
      ],
      "name": "sendTokenToTeam",
      "outputs": [],
      "stateMutability": "nonpayable",
      "type": "function"
    },
    {
      "inputs": [
        {
          "internalType": "bool",
          "name": "v",
          "type": "bool"
        }
      ],
      "name": "setFreeRoundsOnPurchase",
      "outputs": [],
      "stateMutability": "nonpayable",
      "type": "function"
    },
    {
      "inputs": [
        {
          "internalType": "address",
          "name": "_paymentToken",
          "type": "address"
        }
      ],
      "name": "setPaymentToken",
      "outputs": [],
      "stateMutability": "nonpayable",
      "type": "function"
    },
    {
      "inputs": [
        {
          "internalType": "uint16",
          "name": "percentage",
          "type": "uint16"
        }
      ],
      "name": "setPercentageOfReferralWinners",
      "outputs": [],
      "stateMutability": "nonpayable",
      "type": "function"
    },
    {
      "inputs": [
        {
          "internalType": "uint256",
          "name": "_ticketPrice",
          "type": "uint256"
        }
      ],
      "name": "setTicketPrice",
      "outputs": [],
      "stateMutability": "nonpayable",
      "type": "function"
    },
    {
      "inputs": [
        {
          "internalType": "address",
          "name": "wallet",
          "type": "address"
        }
      ],
      "name": "setTreasuryWallet",
      "outputs": [],
      "stateMutability": "nonpayable",
      "type": "function"
    },
    {
      "inputs": [
        {
          "internalType": "uint256",
          "name": "roundDurationInSeconds",
          "type": "uint256"
        }
      ],
      "name": "startNewRound",
      "outputs": [],
      "stateMutability": "nonpayable",
      "type": "function"
    },
    {
      "inputs": [],
      "name": "ticketPrice",
      "outputs": [
        {
          "internalType": "uint256",
          "name": "",
          "type": "uint256"
        }
      ],
      "stateMutability": "view",
      "type": "function"
    },
    {
      "inputs": [
        {
          "internalType": "address",
          "name": "newOwner",
          "type": "address"
        }
      ],
      "name": "transferOwnership",
      "outputs": [],
      "stateMutability": "nonpayable",
      "type": "function"
    },
    {
      "inputs": [],
      "name": "treasuryWallets",
      "outputs": [
        {
          "internalType": "address",
          "name": "",
          "type": "address"
        }
      ],
      "stateMutability": "view",
      "type": "function"
    },
    {
      "inputs": [
        {
          "internalType": "address",
          "name": "_teamAddress",
          "type": "address"
        }
      ],
      "name": "updateTeamAddress",
      "outputs": [],
      "stateMutability": "nonpayable",
      "type": "function"
    }
  ],
  "transactionHash": "0x90b7f681442bddfe7532827f7304ef3f5b7d4585d48c5594eb41a6b4a4844240",
  "args": [
    "0x603A50cF183cb4c103A95baDfaF011b749e04966",
    "0xC0e83e06d3f42948C5FADc66EdDcdd6434249E1A",
    "0x1437748Abb740421c21561929550cAC8208B7676",
    "0xd6f605b40ba9D2ffB07f192d7eDf4eeB0B21c142",
    10
  ],
  "numDeployments": 5,
  "solcInputHash": "c158eb507bc208406b90aca2701d1d6c",
  "bytecode": "0x60806040526000600c60006101000a81548160ff021916908315150217905550600a600c60016101000a81548161ffff021916908361ffff1602179055503480156200004a57600080fd5b506040516200624a3803806200624a8339818101604052810190620000709190620005a0565b3380600073ffffffffffffffffffffffffffffffffffffffff168173ffffffffffffffffffffffffffffffffffffffff1603620000e75760006040517f1e4fbdf7000000000000000000000000000000000000000000000000000000008152600401620000de919062000639565b60405180910390fd5b620000f8816200043760201b60201c565b5080600160006101000a81548173ffffffffffffffffffffffffffffffffffffffff021916908373ffffffffffffffffffffffffffffffffffffffff1602179055505084600960006101000a81548173ffffffffffffffffffffffffffffffffffffffff021916908373ffffffffffffffffffffffffffffffffffffffff160217905550600960009054906101000a900473ffffffffffffffffffffffffffffffffffffffff1673ffffffffffffffffffffffffffffffffffffffff1663cd0f2311306040518263ffffffff1660e01b8152600401620001d99190620006b7565b600060405180830381600087803b158015620001f457600080fd5b505af115801562000209573d6000803e3d6000fd5b5050505083600a60006101000a81548173ffffffffffffffffffffffffffffffffffffffff021916908373ffffffffffffffffffffffffffffffffffffffff16021790555082600c60036101000a81548173ffffffffffffffffffffffffffffffffffffffff021916908373ffffffffffffffffffffffffffffffffffffffff16021790555081600860006101000a81548173ffffffffffffffffffffffffffffffffffffffff021916908373ffffffffffffffffffffffffffffffffffffffff160217905550600860009054906101000a900473ffffffffffffffffffffffffffffffffffffffff1673ffffffffffffffffffffffffffffffffffffffff1663313ce5676040518163ffffffff1660e01b8152600401602060405180830381865afa1580156200033e573d6000803e3d6000fd5b505050506040513d601f19601f8201168201806040525081019062000364919062000727565b60ff16600a620003759190620008dc565b816200038291906200092d565b600b8190555033600760006101000a81548173ffffffffffffffffffffffffffffffffffffffff021916908373ffffffffffffffffffffffffffffffffffffffff1602179055506006339080600181540180825580915050600190039060005260206000200160009091909190916101000a81548173ffffffffffffffffffffffffffffffffffffffff021916908373ffffffffffffffffffffffffffffffffffffffff160217905550505050505062000978565b60008060009054906101000a900473ffffffffffffffffffffffffffffffffffffffff169050816000806101000a81548173ffffffffffffffffffffffffffffffffffffffff021916908373ffffffffffffffffffffffffffffffffffffffff1602179055508173ffffffffffffffffffffffffffffffffffffffff168173ffffffffffffffffffffffffffffffffffffffff167f8be0079c531659141344cd1fd0a4f28419497f9722a3daafe3b4186f6b6457e060405160405180910390a35050565b600080fd5b600073ffffffffffffffffffffffffffffffffffffffff82169050919050565b60006200052d8262000500565b9050919050565b6200053f8162000520565b81146200054b57600080fd5b50565b6000815190506200055f8162000534565b92915050565b6000819050919050565b6200057a8162000565565b81146200058657600080fd5b50565b6000815190506200059a816200056f565b92915050565b600080600080600060a08688031215620005bf57620005be620004fb565b5b6000620005cf888289016200054e565b9550506020620005e2888289016200054e565b9450506040620005f5888289016200054e565b935050606062000608888289016200054e565b92505060806200061b8882890162000589565b9150509295509295909350565b620006338162000520565b82525050565b600060208201905062000650600083018462000628565b92915050565b600082825260208201905092915050565b7f4c6f74746572794d617374657256302e31000000000000000000000000000000600082015250565b60006200069f60118362000656565b9150620006ac8262000667565b602082019050919050565b6000604082019050620006ce600083018462000628565b8181036020830152620006e18162000690565b905092915050565b600060ff82169050919050565b6200070181620006e9565b81146200070d57600080fd5b50565b6000815190506200072181620006f6565b92915050565b60006020828403121562000740576200073f620004fb565b5b6000620007508482850162000710565b91505092915050565b7f4e487b7100000000000000000000000000000000000000000000000000000000600052601160045260246000fd5b60008160011c9050919050565b6000808291508390505b6001851115620007e757808604811115620007bf57620007be62000759565b5b6001851615620007cf5780820291505b8081029050620007df8562000788565b94506200079f565b94509492505050565b600082620008025760019050620008d5565b81620008125760009050620008d5565b81600181146200082b576002811462000836576200086c565b6001915050620008d5565b60ff8411156200084b576200084a62000759565b5b8360020a91508482111562000865576200086462000759565b5b50620008d5565b5060208310610133831016604e8410600b8410161715620008a65782820a905083811115620008a0576200089f62000759565b5b620008d5565b620008b5848484600162000795565b92509050818404811115620008cf57620008ce62000759565b5b81810290505b9392505050565b6000620008e98262000565565b9150620008f68362000565565b9250620009257fffffffffffffffffffffffffffffffffffffffffffffffffffffffffffffffff8484620007f0565b905092915050565b60006200093a8262000565565b9150620009478362000565565b9250828202620009578162000565565b9150828204841483151762000971576200097062000759565b5b5092915050565b6158c280620009886000396000f3fe608060405234801561001057600080fd5b50600436106102325760003560e01c80638da5cb5b11610130578063bbd1783a116100b8578063e278fe6f1161007c578063e278fe6f14610613578063f10fb5841461061d578063f2fde38b1461063b578063f4dec22b14610657578063fd12e8cc1461067557610232565b8063bbd1783a14610581578063cedd1bc31461058b578063d4fc42c6146105bb578063dc418485146105d9578063e03d753a146105f557610232565b8063a628f4fd116100ff578063a628f4fd146104f5578063a8602fea14610511578063b086f3c01461052d578063b33d8c5414610549578063ba9684941461056557610232565b80638da5cb5b1461047f57806392566fdd1461049d578063998da3e9146104bb578063a32bf597146104d757610232565b8063266fbf90116101be57806358069bdb1161018257806358069bdb146103ef5780636a326ab11461040b578063715018a61461042757806387da46f1146104315780638c65c81f1461044f57610232565b8063266fbf90146103615780633013ce291461037d57806339c834e91461039b5780634615102c146103b75780634ff776b8146103d357610232565b806314eb76ac1161020557806314eb76ac146102ad57806315981650146102c95780631e410ddb146102e55780631fcebf6814610301578063258799f81461033157610232565b80630f5c49de14610237578063104dc360146102535780631209b1f614610271578063127f0b3f1461028f575b600080fd5b610251600480360381019061024c9190613a7d565b6106a5565b005b61025b6106ca565b6040516102689190613aeb565b60405180910390f35b6102796106f0565b6040516102869190613b1f565b60405180910390f35b6102976106f6565b6040516102a49190613b1f565b60405180910390f35b6102c760048036038101906102c29190613b66565b6106fc565b005b6102e360048036038101906102de9190613bbf565b610748565b005b6102ff60048036038101906102fa9190613c26565b61075a565b005b61031b60048036038101906103169190613b66565b610782565b6040516103289190613c62565b60405180910390f35b61034b60048036038101906103469190613bbf565b6107a3565b6040516103589190613aeb565b60405180910390f35b61037b60048036038101906103769190613dd6565b6107e2565b005b610385610de0565b6040516103929190613eb8565b60405180910390f35b6103b560048036038101906103b09190613b66565b610e06565b005b6103d160048036038101906103cc9190613bbf565b610f94565b005b6103ed60048036038101906103e89190613bbf565b61148d565b005b61040960048036038101906104049190613ed3565b611bbf565b005b61042560048036038101906104209190613b66565b611cc4565b005b61042f611d10565b005b610439611d24565b6040516104469190613f63565b60405180910390f35b61046960048036038101906104649190613bbf565b611d4a565b6040516104769190613aeb565b60405180910390f35b610487611d89565b6040516104949190613aeb565b60405180910390f35b6104a5611db2565b6040516104b29190613c62565b60405180910390f35b6104d560048036038101906104d09190613b66565b611dc6565b005b6104df611e87565b6040516104ec9190613aeb565b60405180910390f35b61050f600480360381019061050a9190613bbf565b611edb565b005b61052b60048036038101906105269190613b66565b6120dd565b005b61054760048036038101906105429190613bbf565b612129565b005b610563600480360381019061055e9190613fd9565b6128b1565b005b61057f600480360381019061057a9190613b66565b612978565b005b610589612ab7565b005b6105a560048036038101906105a09190613bbf565b612b34565b6040516105b29190613b1f565b60405180910390f35b6105c3612b4c565b6040516105d09190614047565b60405180910390f35b6105f360048036038101906105ee9190613bbf565b612b72565b005b6105fd613103565b60405161060a9190614071565b60405180910390f35b61061b613116565b005b610625613338565b60405161063291906140ad565b60405180910390f35b61065560048036038101906106509190613b66565b61335e565b005b61065f6133e4565b60405161066c9190613c62565b60405180910390f35b61068f600480360381019061068a9190613bbf565b6133f8565b60405161069c9190613aeb565b60405180910390f35b6106ad61344c565b80600c60006101000a81548160ff02191690831515021790555050565b600760009054906101000a900473ffffffffffffffffffffffffffffffffffffffff1681565b600b5481565b60025481565b61070461344c565b80600160006101000a81548173ffffffffffffffffffffffffffffffffffffffff021916908373ffffffffffffffffffffffffffffffffffffffff16021790555050565b61075061344c565b80600b8190555050565b61076261344c565b80600c60016101000a81548161ffff021916908361ffff16021790555050565b60046020528060005260406000206000915054906101000a900461ffff1681565b600681815481106107b357600080fd5b906000526020600020016000915054906101000a900473ffffffffffffffffffffffffffffffffffffffff1681565b6000600460003273ffffffffffffffffffffffffffffffffffffffff1673ffffffffffffffffffffffffffffffffffffffff16815260200190815260200160002060009054906101000a900461ffff1661ffff1611806108e15750600b54600860009054906101000a900473ffffffffffffffffffffffffffffffffffffffff1673ffffffffffffffffffffffffffffffffffffffff1663dd62ed3e32306040518363ffffffff1660e01b815260040161089d9291906140c8565b602060405180830381865afa1580156108ba573d6000803e3d6000fd5b505050506040513d601f19601f820116820180604052508101906108de9190614106565b10155b610920576040517f08c379a000000000000000000000000000000000000000000000000000000000815260040161091790614190565b60405180910390fd5b60006003600160025461093391906141df565b8154811061094457610943614213565b5b9060005260206000200160009054906101000a900473ffffffffffffffffffffffffffffffffffffffff1690506000600460003373ffffffffffffffffffffffffffffffffffffffff1673ffffffffffffffffffffffffffffffffffffffff16815260200190815260200160002060009054906101000a900461ffff1661ffff161115610a4857600460003373ffffffffffffffffffffffffffffffffffffffff1673ffffffffffffffffffffffffffffffffffffffff168152602001908152602001600020600081819054906101000a900461ffff1680929190610a2890614242565b91906101000a81548161ffff021916908361ffff16021790555050610d68565b600b54600860009054906101000a900473ffffffffffffffffffffffffffffffffffffffff1673ffffffffffffffffffffffffffffffffffffffff166370a08231326040518263ffffffff1660e01b8152600401610aa69190613aeb565b602060405180830381865afa158015610ac3573d6000803e3d6000fd5b505050506040513d601f19601f82011682018060405250810190610ae79190614106565b1015610b28576040517f08c379a0000000000000000000000000000000000000000000000000000000008152600401610b1f906142b7565b60405180910390fd5b6006805490506005600081819054906101000a900461ffff1680929190610b4e906142d7565b91906101000a81548161ffff021916908361ffff16021790555061ffff16610b769190614330565b600560006101000a81548161ffff021916908361ffff16021790555060008173ffffffffffffffffffffffffffffffffffffffff1663af33d08f600b546040518263ffffffff1660e01b8152600401610bcf9190613b1f565b602060405180830381865afa158015610bec573d6000803e3d6000fd5b505050506040513d601f19601f82011682018060405250810190610c109190614106565b9050610c9f600860009054906101000a900473ffffffffffffffffffffffffffffffffffffffff16336006600560009054906101000a900461ffff1661ffff1681548110610c6157610c60614213565b5b9060005260206000200160009054906101000a900473ffffffffffffffffffffffffffffffffffffffff1684600b54610c9a91906141df565b6134d3565b610cef600860009054906101000a900473ffffffffffffffffffffffffffffffffffffffff1633600760009054906101000a900473ffffffffffffffffffffffffffffffffffffffff16846134d3565b8173ffffffffffffffffffffffffffffffffffffffff1663b56c12b4600b546040518263ffffffff1660e01b8152600401610d2a9190613b1f565b600060405180830381600087803b158015610d4457600080fd5b505af1158015610d58573d6000803e3d6000fd5b50505050610d663384613555565b505b8073ffffffffffffffffffffffffffffffffffffffff1663266fbf90868686866040518563ffffffff1660e01b8152600401610da7949392919061441f565b600060405180830381600087803b158015610dc157600080fd5b505af1158015610dd5573d6000803e3d6000fd5b505050505050505050565b600860009054906101000a900473ffffffffffffffffffffffffffffffffffffffff1681565b610e0e61344c565b60005b600680549050811015610f90578173ffffffffffffffffffffffffffffffffffffffff1660068281548110610e4957610e48614213565b5b9060005260206000200160009054906101000a900473ffffffffffffffffffffffffffffffffffffffff1673ffffffffffffffffffffffffffffffffffffffff1603610f835760066001600680549050610ea391906141df565b81548110610eb457610eb3614213565b5b9060005260206000200160009054906101000a900473ffffffffffffffffffffffffffffffffffffffff1660068281548110610ef357610ef2614213565b5b9060005260206000200160006101000a81548173ffffffffffffffffffffffffffffffffffffffff021916908373ffffffffffffffffffffffffffffffffffffffff1602179055506006805480610f4d57610f4c61446b565b5b6001900381819060005260206000200160006101000a81549073ffffffffffffffffffffffffffffffffffffffff021916905590555b8080600101915050610e11565b5050565b610f9c61344c565b60026000815480929190610faf9061449a565b919050555060016002541115611386576003600c60039054906101000a900473ffffffffffffffffffffffffffffffffffffffff1673ffffffffffffffffffffffffffffffffffffffff166363ea940f8360036002805461101091906141df565b8154811061102157611020614213565b5b9060005260206000200160009054906101000a900473ffffffffffffffffffffffffffffffffffffffff166040518363ffffffff1660e01b81526004016110699291906144e2565b6020604051808303816000875af1158015611088573d6000803e3d6000fd5b505050506040513d601f19601f820116820180604052508101906110ac9190614520565b9080600181540180825580915050600190039060005260206000200160009091909190916101000a81548173ffffffffffffffffffffffffffffffffffffffff021916908373ffffffffffffffffffffffffffffffffffffffff16021790555060036002805461111c91906141df565b8154811061112d5761112c614213565b5b9060005260206000200160009054906101000a900473ffffffffffffffffffffffffffffffffffffffff1673ffffffffffffffffffffffffffffffffffffffff16639f8743f76040518163ffffffff1660e01b8152600401600060405180830381865afa1580156111a2573d6000803e3d6000fd5b505050506040513d6000823e3d601f19601f820116820180604052508101906111cb919061486d565b6060015161120e576040517f08c379a000000000000000000000000000000000000000000000000000000000815260040161120590614902565b60405180910390fd5b6003600160025461121f91906141df565b815481106112305761122f614213565b5b9060005260206000200160009054906101000a900473ffffffffffffffffffffffffffffffffffffffff1673ffffffffffffffffffffffffffffffffffffffff1663b288e1a96040518163ffffffff1660e01b8152600401602060405180830381865afa1580156112a5573d6000803e3d6000fd5b505050506040513d601f19601f820116820180604052508101906112c99190614520565b73ffffffffffffffffffffffffffffffffffffffff166003600280546112ef91906141df565b81548110611300576112ff614213565b5b9060005260206000200160009054906101000a900473ffffffffffffffffffffffffffffffffffffffff1673ffffffffffffffffffffffffffffffffffffffff1614611381576040517f08c379a000000000000000000000000000000000000000000000000000000000815260040161137890614994565b60405180910390fd5b61148a565b6003600c60039054906101000a900473ffffffffffffffffffffffffffffffffffffffff1673ffffffffffffffffffffffffffffffffffffffff166363ea940f8360006040518363ffffffff1660e01b81526004016113e69291906144e2565b6020604051808303816000875af1158015611405573d6000803e3d6000fd5b505050506040513d601f19601f820116820180604052508101906114299190614520565b9080600181540180825580915050600190039060005260206000200160009091909190916101000a81548173ffffffffffffffffffffffffffffffffffffffff021916908373ffffffffffffffffffffffffffffffffffffffff1602179055505b50565b6000611497611e87565b905060008173ffffffffffffffffffffffffffffffffffffffff16639b7be8fc846040518263ffffffff1660e01b81526004016114d49190613b1f565b60e060405180830381865afa1580156114f1573d6000803e3d6000fd5b505050506040513d601f19601f820116820180604052508101906115159190614a8d565b90508281600001511461155d576040517f08c379a000000000000000000000000000000000000000000000000000000000815260040161155490614b06565b60405180910390fd5b3373ffffffffffffffffffffffffffffffffffffffff16816020015173ffffffffffffffffffffffffffffffffffffffff16146115cf576040517f08c379a00000000000000000000000000000000000000000000000000000000081526004016115c690614b72565b60405180910390fd5b806060015115611614576040517f08c379a000000000000000000000000000000000000000000000000000000000815260040161160b90614bde565b60405180910390fd5b8173ffffffffffffffffffffffffffffffffffffffff16639f8743f76040518163ffffffff1660e01b8152600401600060405180830381865afa15801561165f573d6000803e3d6000fd5b505050506040513d6000823e3d601f19601f82011682018060405250810190611688919061486d565b606001516116cb576040517f08c379a00000000000000000000000000000000000000000000000000000000081526004016116c290614c4a565b60405180910390fd5b6000600a8111156116df576116de614c6a565b5b8160a00151600a8111156116f6576116f5614c6a565b5b03611736576040517f08c379a000000000000000000000000000000000000000000000000000000000815260040161172d90614ce5565b60405180910390fd5b600a60009054906101000a900473ffffffffffffffffffffffffffffffffffffffff1673ffffffffffffffffffffffffffffffffffffffff16632aa601708373ffffffffffffffffffffffffffffffffffffffff16639f8743f76040518163ffffffff1660e01b8152600401600060405180830381865afa1580156117bf573d6000803e3d6000fd5b505050506040513d6000823e3d601f19601f820116820180604052508101906117e8919061486d565b60000151856040518363ffffffff1660e01b815260040161180a929190614d05565b6040805180830381865afa158015611826573d6000803e3d6000fd5b505050506040513d601f19601f8201168201806040525081019061184a9190614d7e565b60200151600a8111156118605761185f614c6a565b5b8160a00151600a81111561187757611876614c6a565b5b146118b7576040517f08c379a00000000000000000000000000000000000000000000000000000000081526004016118ae90614df7565b60405180910390fd5b60008273ffffffffffffffffffffffffffffffffffffffff1663efa3d5318360a001516040518263ffffffff1660e01b81526004016118f69190614e5f565b602060405180830381865afa158015611913573d6000803e3d6000fd5b505050506040513d601f19601f820116820180604052508101906119379190614106565b8373ffffffffffffffffffffffffffffffffffffffff1663e2e308308460a001516040518263ffffffff1660e01b81526004016119749190614e5f565b602060405180830381865afa158015611991573d6000803e3d6000fd5b505050506040513d601f19601f820116820180604052508101906119b59190614106565b816119c3576119c2614301565b5b04905080600860009054906101000a900473ffffffffffffffffffffffffffffffffffffffff1673ffffffffffffffffffffffffffffffffffffffff166370a08231306040518263ffffffff1660e01b8152600401611a229190613aeb565b602060405180830381865afa158015611a3f573d6000803e3d6000fd5b505050506040513d601f19601f82011682018060405250810190611a639190614106565b1015611aa4576040517f08c379a0000000000000000000000000000000000000000000000000000000008152600401611a9b90614ec6565b60405180910390fd5b611aac611e87565b73ffffffffffffffffffffffffffffffffffffffff166382e5892385836040518363ffffffff1660e01b8152600401611ae6929190614d05565b600060405180830381600087803b158015611b0057600080fd5b505af1158015611b14573d6000803e3d6000fd5b50505050600860009054906101000a900473ffffffffffffffffffffffffffffffffffffffff1673ffffffffffffffffffffffffffffffffffffffff1663a9059cbb33836040518363ffffffff1660e01b8152600401611b75929190614ee6565b6020604051808303816000875af1158015611b94573d6000803e3d6000fd5b505050506040513d601f19601f82011682018060405250810190611bb89190614f0f565b5050505050565b60005b8251811015611cbe576000600567ffffffffffffffff811115611be857611be7613c93565b5b604051908082528060200260200182016040528015611c165781602001602082028036833780820191505090505b50905060005b6005811015611c8157848184611c329190614f3c565b81518110611c4357611c42614213565b5b6020026020010151828281518110611c5e57611c5d614213565b5b602002602001019061ffff16908161ffff16815250508080600101915050611c1c565b50611ca9858286600581518110611c9b57611c9a614213565b5b6020026020010151866107e2565b50600681611cb79190614f3c565b9050611bc2565b50505050565b611ccc61344c565b80600860006101000a81548173ffffffffffffffffffffffffffffffffffffffff021916908373ffffffffffffffffffffffffffffffffffffffff16021790555050565b611d1861344c565b611d226000613698565b565b600c60039054906101000a900473ffffffffffffffffffffffffffffffffffffffff1681565b60038181548110611d5a57600080fd5b906000526020600020016000915054906101000a900473ffffffffffffffffffffffffffffffffffffffff1681565b60008060009054906101000a900473ffffffffffffffffffffffffffffffffffffffff16905090565b600560009054906101000a900461ffff1681565b611dce61344c565b60008173ffffffffffffffffffffffffffffffffffffffff166370a08231306040518263ffffffff1660e01b8152600401611e099190613aeb565b602060405180830381865afa158015611e26573d6000803e3d6000fd5b505050506040513d601f19601f82011682018060405250810190611e4a9190614106565b90506000811115611e8357611e8282600160009054906101000a900473ffffffffffffffffffffffffffffffffffffffff168361375c565b5b5050565b600060036001600254611e9a91906141df565b81548110611eab57611eaa614213565b5b9060005260206000200160009054906101000a900473ffffffffffffffffffffffffffffffffffffffff16905090565b611ee361344c565b6003600182611ef291906141df565b81548110611f0357611f02614213565b5b9060005260206000200160009054906101000a900473ffffffffffffffffffffffffffffffffffffffff1673ffffffffffffffffffffffffffffffffffffffff16633590bd3c600a60009054906101000a900473ffffffffffffffffffffffffffffffffffffffff1673ffffffffffffffffffffffffffffffffffffffff1663c099ae19846040518263ffffffff1660e01b8152600401611fa49190613b1f565b600060405180830381865afa158015611fc1573d6000803e3d6000fd5b505050506040513d6000823e3d601f19601f82011682018060405250810190611fea9190615033565b600a60009054906101000a900473ffffffffffffffffffffffffffffffffffffffff1673ffffffffffffffffffffffffffffffffffffffff1663d856f0d5856040518263ffffffff1660e01b81526004016120459190613b1f565b600060405180830381865afa158015612062573d6000803e3d6000fd5b505050506040513d6000823e3d601f19601f8201168201806040525081019061208b919061518f565b6040518363ffffffff1660e01b81526004016120a89291906153c1565b600060405180830381600087803b1580156120c257600080fd5b505af11580156120d6573d6000803e3d6000fd5b5050505050565b6120e561344c565b80600760006101000a81548173ffffffffffffffffffffffffffffffffffffffff021916908373ffffffffffffffffffffffffffffffffffffffff16021790555050565b6000612133611e87565b905060008173ffffffffffffffffffffffffffffffffffffffff1663dd85ae5f846040518263ffffffff1660e01b81526004016121709190613b1f565b60a060405180830381865afa15801561218d573d6000803e3d6000fd5b505050506040513d601f19601f820116820180604052508101906121b19190615484565b9050828160000151146121f9576040517f08c379a00000000000000000000000000000000000000000000000000000000081526004016121f090614b06565b60405180910390fd5b3373ffffffffffffffffffffffffffffffffffffffff16816020015173ffffffffffffffffffffffffffffffffffffffff161461226b576040517f08c379a000000000000000000000000000000000000000000000000000000000815260040161226290614b72565b60405180910390fd5b8060800151156122b0576040517f08c379a00000000000000000000000000000000000000000000000000000000081526004016122a790614bde565b60405180910390fd5b8173ffffffffffffffffffffffffffffffffffffffff16639f8743f76040518163ffffffff1660e01b8152600401600060405180830381865afa1580156122fb573d6000803e3d6000fd5b505050506040513d6000823e3d601f19601f82011682018060405250810190612324919061486d565b60600151612367576040517f08c379a000000000000000000000000000000000000000000000000000000000815260040161235e90614c4a565b60405180910390fd5b6001151581606001511515146123b2576040517f08c379a00000000000000000000000000000000000000000000000000000000081526004016123a990614ce5565b60405180910390fd5b600a60009054906101000a900473ffffffffffffffffffffffffffffffffffffffff1673ffffffffffffffffffffffffffffffffffffffff1663078a6dbf8373ffffffffffffffffffffffffffffffffffffffff16639f8743f76040518163ffffffff1660e01b8152600401600060405180830381865afa15801561243b573d6000803e3d6000fd5b505050506040513d6000823e3d601f19601f82011682018060405250810190612464919061486d565b60000151856040518363ffffffff1660e01b8152600401612486929190614d05565b6040805180830381865afa1580156124a2573d6000803e3d6000fd5b505050506040513d601f19601f820116820180604052508101906124c691906154b1565b6020015115158160600151151514612513576040517f08c379a000000000000000000000000000000000000000000000000000000000815260040161250a90614df7565b60405180910390fd5b6000600a60009054906101000a900473ffffffffffffffffffffffffffffffffffffffff1673ffffffffffffffffffffffffffffffffffffffff1663f1664df68473ffffffffffffffffffffffffffffffffffffffff16639f8743f76040518163ffffffff1660e01b8152600401600060405180830381865afa15801561259e573d6000803e3d6000fd5b505050506040513d6000823e3d601f19601f820116820180604052508101906125c7919061486d565b600001516040518263ffffffff1660e01b81526004016125e79190613b1f565b602060405180830381865afa158015612604573d6000803e3d6000fd5b505050506040513d601f19601f8201168201806040525081019061262891906154de565b61ffff168373ffffffffffffffffffffffffffffffffffffffff1663e2e3083060076040518263ffffffff1660e01b81526004016126669190614e5f565b602060405180830381865afa158015612683573d6000803e3d6000fd5b505050506040513d601f19601f820116820180604052508101906126a79190614106565b816126b5576126b4614301565b5b04905080600860009054906101000a900473ffffffffffffffffffffffffffffffffffffffff1673ffffffffffffffffffffffffffffffffffffffff166370a08231306040518263ffffffff1660e01b81526004016127149190613aeb565b602060405180830381865afa158015612731573d6000803e3d6000fd5b505050506040513d601f19601f820116820180604052508101906127559190614106565b1015612796576040517f08c379a000000000000000000000000000000000000000000000000000000000815260040161278d90614ec6565b60405180910390fd5b61279e611e87565b73ffffffffffffffffffffffffffffffffffffffff16630cee803c85836040518363ffffffff1660e01b81526004016127d8929190614d05565b600060405180830381600087803b1580156127f257600080fd5b505af1158015612806573d6000803e3d6000fd5b50505050600860009054906101000a900473ffffffffffffffffffffffffffffffffffffffff1673ffffffffffffffffffffffffffffffffffffffff1663a9059cbb33836040518363ffffffff1660e01b8152600401612867929190614ee6565b6020604051808303816000875af1158015612886573d6000803e3d6000fd5b505050506040513d601f19601f820116820180604052508101906128aa9190614f0f565b5050505050565b6128b961344c565b60005b8282905081101561297357600460008484848181106128de576128dd614213565b5b90506020020160208101906128f39190613b66565b73ffffffffffffffffffffffffffffffffffffffff1673ffffffffffffffffffffffffffffffffffffffff168152602001908152602001600020600081819054906101000a900461ffff168092919061294b906142d7565b91906101000a81548161ffff021916908361ffff1602179055505080806001019150506128bc565b505050565b61298061344c565b60005b600680549050811015612a50578173ffffffffffffffffffffffffffffffffffffffff16600682815481106129bb576129ba614213565b5b9060005260206000200160009054906101000a900473ffffffffffffffffffffffffffffffffffffffff1673ffffffffffffffffffffffffffffffffffffffff1603612a43576000612a42576040517f08c379a0000000000000000000000000000000000000000000000000000000008152600401612a3990615557565b60405180910390fd5b5b8080600101915050612983565b506006819080600181540180825580915050600190039060005260206000200160009091909190916101000a81548173ffffffffffffffffffffffffffffffffffffffff021916908373ffffffffffffffffffffffffffffffffffffffff16021790555050565b612abf61344c565b6000471115612b3257600160009054906101000a900473ffffffffffffffffffffffffffffffffffffffff1673ffffffffffffffffffffffffffffffffffffffff166108fc479081150290604051600060405180830381858888f19350505050158015612b30573d6000803e3d6000fd5b505b565b600d6020528060005260406000206000915090505481565b600a60009054906101000a900473ffffffffffffffffffffffffffffffffffffffff1681565b612b7a61344c565b60006003600183612b8b91906141df565b81548110612b9c57612b9b614213565b5b9060005260206000200160009054906101000a900473ffffffffffffffffffffffffffffffffffffffff1690508073ffffffffffffffffffffffffffffffffffffffff1663343f25666040518163ffffffff1660e01b815260040160006040518083038186803b158015612c0f57600080fd5b505afa158015612c23573d6000803e3d6000fd5b50505050600080600960009054906101000a900473ffffffffffffffffffffffffffffffffffffffff1673ffffffffffffffffffffffffffffffffffffffff1663d8a4676f600d6000878152602001908152602001600020546040518263ffffffff1660e01b8152600401612c989190613b1f565b600060405180830381865afa158015612cb5573d6000803e3d6000fd5b505050506040513d6000823e3d601f19601f82011682018060405250810190612cde9190615577565b9150915081612d22576040517f08c379a0000000000000000000000000000000000000000000000000000000008152600401612d199061561f565b60405180910390fd5b6000600567ffffffffffffffff811115612d3f57612d3e613c93565b5b604051908082528060200260200182016040528015612d6d5781602001602082028036833780820191505090505b50905060008060068451612d8191906141df565b67ffffffffffffffff811115612d9a57612d99613c93565b5b604051908082528060200260200182016040528015612dc85781602001602082028036833780820191505090505b509050841561308b5760005b6005811015612ece57600a60009054906101000a900473ffffffffffffffffffffffffffffffffffffffff1673ffffffffffffffffffffffffffffffffffffffff16630c746a8a868381518110612e2e57612e2d614213565b5b60200260200101516045876040518463ffffffff1660e01b8152600401612e579392919061567a565b602060405180830381865afa158015612e74573d6000803e3d6000fd5b505050506040513d601f19601f82011682018060405250810190612e9891906154de565b848281518110612eab57612eaa614213565b5b602002602001019061ffff16908161ffff16815250508080600101915050612dd4565b506001601a85600581518110612ee757612ee6614213565b5b6020026020010151612ef99190614330565b612f039190614f3c565b91506000600690505b845181101561308957600a60009054906101000a900473ffffffffffffffffffffffffffffffffffffffff1673ffffffffffffffffffffffffffffffffffffffff16630c746a8a868381518110612f6657612f65614213565b5b60200260200101518973ffffffffffffffffffffffffffffffffffffffff16639f8743f76040518163ffffffff1660e01b8152600401600060405180830381865afa158015612fb9573d6000803e3d6000fd5b505050506040513d6000823e3d601f19601f82011682018060405250810190612fe2919061486d565b6101600151856040518463ffffffff1660e01b8152600401613006939291906156b8565b602060405180830381865afa158015613023573d6000803e3d6000fd5b505050506040513d601f19601f8201168201806040525081019061304791906154de565b8260068361305591906141df565b8151811061306657613065614213565b5b602002602001019061ffff16908161ffff16815250508080600101915050612f0c565b505b8573ffffffffffffffffffffffffffffffffffffffff16636a65bcda8484846040518463ffffffff1660e01b81526004016130c8939291906156f6565b600060405180830381600087803b1580156130e257600080fd5b505af11580156130f6573d6000803e3d6000fd5b5050505050505050505050565b600c60009054906101000a900460ff1681565b61311e61344c565b60006003600160025461313191906141df565b8154811061314257613141614213565b5b9060005260206000200160009054906101000a900473ffffffffffffffffffffffffffffffffffffffff1690508073ffffffffffffffffffffffffffffffffffffffff1663e278fe6f6040518163ffffffff1660e01b8152600401600060405180830381600087803b1580156131b757600080fd5b505af11580156131cb573d6000803e3d6000fd5b505050506000600a60009054906101000a900473ffffffffffffffffffffffffffffffffffffffff1673ffffffffffffffffffffffffffffffffffffffff1663f1664df66002546040518263ffffffff1660e01b815260040161322e9190613b1f565b602060405180830381865afa15801561324b573d6000803e3d6000fd5b505050506040513d601f19601f8201168201806040525081019061326f91906154de565b9050600960009054906101000a900473ffffffffffffffffffffffffffffffffffffffff1673ffffffffffffffffffffffffffffffffffffffff1663e726f2e18260066132bc919061573b565b6040518263ffffffff1660e01b81526004016132d891906157b2565b6020604051808303816000875af11580156132f7573d6000803e3d6000fd5b505050506040513d601f19601f8201168201806040525081019061331b9190614106565b600d60006002548152602001908152602001600020819055505050565b600960009054906101000a900473ffffffffffffffffffffffffffffffffffffffff1681565b61336661344c565b600073ffffffffffffffffffffffffffffffffffffffff168173ffffffffffffffffffffffffffffffffffffffff16036133d85760006040517f1e4fbdf70000000000000000000000000000000000000000000000000000000081526004016133cf9190613aeb565b60405180910390fd5b6133e181613698565b50565b600c60019054906101000a900461ffff1681565b6000600360018361340991906141df565b8154811061341a57613419614213565b5b9060005260206000200160009054906101000a900473ffffffffffffffffffffffffffffffffffffffff169050919050565b6134546137db565b73ffffffffffffffffffffffffffffffffffffffff16613472611d89565b73ffffffffffffffffffffffffffffffffffffffff16146134d1576134956137db565b6040517f118cdaa70000000000000000000000000000000000000000000000000000000081526004016134c89190613aeb565b60405180910390fd5b565b61354f848573ffffffffffffffffffffffffffffffffffffffff166323b872dd868686604051602401613508939291906157cd565b604051602081830303815290604052915060e01b6020820180517bffffffffffffffffffffffffffffffffffffffffffffffffffffffff83818316178352505050506137e3565b50505050565b600073ffffffffffffffffffffffffffffffffffffffff168173ffffffffffffffffffffffffffffffffffffffff161415801561359e5750600c60009054906101000a900460ff165b1561369457600460008373ffffffffffffffffffffffffffffffffffffffff1673ffffffffffffffffffffffffffffffffffffffff168152602001908152602001600020600081819054906101000a900461ffff1680929190613600906142d7565b91906101000a81548161ffff021916908361ffff16021790555050600460008273ffffffffffffffffffffffffffffffffffffffff1673ffffffffffffffffffffffffffffffffffffffff168152602001908152602001600020600081819054906101000a900461ffff1680929190613678906142d7565b91906101000a81548161ffff021916908361ffff160217905550505b5050565b60008060009054906101000a900473ffffffffffffffffffffffffffffffffffffffff169050816000806101000a81548173ffffffffffffffffffffffffffffffffffffffff021916908373ffffffffffffffffffffffffffffffffffffffff1602179055508173ffffffffffffffffffffffffffffffffffffffff168173ffffffffffffffffffffffffffffffffffffffff167f8be0079c531659141344cd1fd0a4f28419497f9722a3daafe3b4186f6b6457e060405160405180910390a35050565b6137d6838473ffffffffffffffffffffffffffffffffffffffff1663a9059cbb858560405160240161378f929190614ee6565b604051602081830303815290604052915060e01b6020820180517bffffffffffffffffffffffffffffffffffffffffffffffffffffffff83818316178352505050506137e3565b505050565b600033905090565b600061380e828473ffffffffffffffffffffffffffffffffffffffff1661387a90919063ffffffff16565b905060008151141580156138335750808060200190518101906138319190614f0f565b155b1561387557826040517f5274afe700000000000000000000000000000000000000000000000000000000815260040161386c9190613aeb565b60405180910390fd5b505050565b606061388883836000613890565b905092915050565b6060814710156138d757306040517fcd7860590000000000000000000000000000000000000000000000000000000081526004016138ce9190613aeb565b60405180910390fd5b6000808573ffffffffffffffffffffffffffffffffffffffff1684866040516139009190615875565b60006040518083038185875af1925050503d806000811461393d576040519150601f19603f3d011682016040523d82523d6000602084013e613942565b606091505b509150915061395286838361395d565b925050509392505050565b6060826139725761396d826139ec565b6139e4565b6000825114801561399a575060008473ffffffffffffffffffffffffffffffffffffffff163b145b156139dc57836040517f9996b3150000000000000000000000000000000000000000000000000000000081526004016139d39190613aeb565b60405180910390fd5b8190506139e5565b5b9392505050565b6000815111156139ff5780518082602001fd5b6040517f1425ea4200000000000000000000000000000000000000000000000000000000815260040160405180910390fd5b6000604051905090565b600080fd5b600080fd5b60008115159050919050565b613a5a81613a45565b8114613a6557600080fd5b50565b600081359050613a7781613a51565b92915050565b600060208284031215613a9357613a92613a3b565b5b6000613aa184828501613a68565b91505092915050565b600073ffffffffffffffffffffffffffffffffffffffff82169050919050565b6000613ad582613aaa565b9050919050565b613ae581613aca565b82525050565b6000602082019050613b006000830184613adc565b92915050565b6000819050919050565b613b1981613b06565b82525050565b6000602082019050613b346000830184613b10565b92915050565b613b4381613aca565b8114613b4e57600080fd5b50565b600081359050613b6081613b3a565b92915050565b600060208284031215613b7c57613b7b613a3b565b5b6000613b8a84828501613b51565b91505092915050565b613b9c81613b06565b8114613ba757600080fd5b50565b600081359050613bb981613b93565b92915050565b600060208284031215613bd557613bd4613a3b565b5b6000613be384828501613baa565b91505092915050565b600061ffff82169050919050565b613c0381613bec565b8114613c0e57600080fd5b50565b600081359050613c2081613bfa565b92915050565b600060208284031215613c3c57613c3b613a3b565b5b6000613c4a84828501613c11565b91505092915050565b613c5c81613bec565b82525050565b6000602082019050613c776000830184613c53565b92915050565b600080fd5b6000601f19601f8301169050919050565b7f4e487b7100000000000000000000000000000000000000000000000000000000600052604160045260246000fd5b613ccb82613c82565b810181811067ffffffffffffffff82111715613cea57613ce9613c93565b5b80604052505050565b6000613cfd613a31565b9050613d098282613cc2565b919050565b600067ffffffffffffffff821115613d2957613d28613c93565b5b602082029050602081019050919050565b600080fd5b6000613d52613d4d84613d0e565b613cf3565b90508083825260208201905060208402830185811115613d7557613d74613d3a565b5b835b81811015613d9e5780613d8a8882613c11565b845260208401935050602081019050613d77565b5050509392505050565b600082601f830112613dbd57613dbc613c7d565b5b8135613dcd848260208601613d3f565b91505092915050565b60008060008060808587031215613df057613def613a3b565b5b6000613dfe87828801613baa565b945050602085013567ffffffffffffffff811115613e1f57613e1e613a40565b5b613e2b87828801613da8565b9350506040613e3c87828801613c11565b9250506060613e4d87828801613b51565b91505092959194509250565b6000819050919050565b6000613e7e613e79613e7484613aaa565b613e59565b613aaa565b9050919050565b6000613e9082613e63565b9050919050565b6000613ea282613e85565b9050919050565b613eb281613e97565b82525050565b6000602082019050613ecd6000830184613ea9565b92915050565b600080600060608486031215613eec57613eeb613a3b565b5b6000613efa86828701613baa565b935050602084013567ffffffffffffffff811115613f1b57613f1a613a40565b5b613f2786828701613da8565b9250506040613f3886828701613b51565b9150509250925092565b6000613f4d82613e85565b9050919050565b613f5d81613f42565b82525050565b6000602082019050613f786000830184613f54565b92915050565b600080fd5b60008083601f840112613f9957613f98613c7d565b5b8235905067ffffffffffffffff811115613fb657613fb5613f7e565b5b602083019150836020820283011115613fd257613fd1613d3a565b5b9250929050565b60008060208385031215613ff057613fef613a3b565b5b600083013567ffffffffffffffff81111561400e5761400d613a40565b5b61401a85828601613f83565b92509250509250929050565b600061403182613e85565b9050919050565b61404181614026565b82525050565b600060208201905061405c6000830184614038565b92915050565b61406b81613a45565b82525050565b60006020820190506140866000830184614062565b92915050565b600061409782613e85565b9050919050565b6140a78161408c565b82525050565b60006020820190506140c2600083018461409e565b92915050565b60006040820190506140dd6000830185613adc565b6140ea6020830184613adc565b9392505050565b60008151905061410081613b93565b92915050565b60006020828403121561411c5761411b613a3b565b5b600061412a848285016140f1565b91505092915050565b600082825260208201905092915050565b7f4d697373696e6720416c6c6f77616e6365000000000000000000000000000000600082015250565b600061417a601183614133565b915061418582614144565b602082019050919050565b600060208201905081810360008301526141a98161416d565b9050919050565b7f4e487b7100000000000000000000000000000000000000000000000000000000600052601160045260246000fd5b60006141ea82613b06565b91506141f583613b06565b925082820390508181111561420d5761420c6141b0565b5b92915050565b7f4e487b7100000000000000000000000000000000000000000000000000000000600052603260045260246000fd5b600061424d82613bec565b9150600082036142605761425f6141b0565b5b600182039050919050565b7f496e73756666696369656e742066756e64730000000000000000000000000000600082015250565b60006142a1601283614133565b91506142ac8261426b565b602082019050919050565b600060208201905081810360008301526142d081614294565b9050919050565b60006142e282613bec565b915061ffff82036142f6576142f56141b0565b5b600182019050919050565b7f4e487b7100000000000000000000000000000000000000000000000000000000600052601260045260246000fd5b600061433b82613b06565b915061434683613b06565b92508261435657614355614301565b5b828206905092915050565b600081519050919050565b600082825260208201905092915050565b6000819050602082019050919050565b61439681613bec565b82525050565b60006143a8838361438d565b60208301905092915050565b6000602082019050919050565b60006143cc82614361565b6143d6818561436c565b93506143e18361437d565b8060005b838110156144125781516143f9888261439c565b9750614404836143b4565b9250506001810190506143e5565b5085935050505092915050565b60006080820190506144346000830187613b10565b818103602083015261444681866143c1565b90506144556040830185613c53565b6144626060830184613adc565b95945050505050565b7f4e487b7100000000000000000000000000000000000000000000000000000000600052603160045260246000fd5b60006144a582613b06565b91507fffffffffffffffffffffffffffffffffffffffffffffffffffffffffffffffff82036144d7576144d66141b0565b5b600182019050919050565b60006040820190506144f76000830185613b10565b6145046020830184613adc565b9392505050565b60008151905061451a81613b3a565b92915050565b60006020828403121561453657614535613a3b565b5b60006145448482850161450b565b91505092915050565b600080fd5b600080fd5b60008151905061456681613a51565b92915050565b60008151905061457b81613bfa565b92915050565b600061459461458f84613d0e565b613cf3565b905080838252602082019050602084028301858111156145b7576145b6613d3a565b5b835b818110156145e057806145cc888261456c565b8452602084019350506020810190506145b9565b5050509392505050565b600082601f8301126145ff576145fe613c7d565b5b815161460f848260208601614581565b91505092915050565b600067ffffffffffffffff82111561463357614632613c93565b5b602082029050602081019050919050565b600061465761465284614618565b613cf3565b9050808382526020820190506020840283018581111561467a57614679613d3a565b5b835b818110156146a3578061468f88826140f1565b84526020840193505060208101905061467c565b5050509392505050565b600082601f8301126146c2576146c1613c7d565b5b81516146d2848260208601614644565b91505092915050565b600061018082840312156146f2576146f161454d565b5b6146fd610180613cf3565b9050600061470d848285016140f1565b6000830152506020614721848285016140f1565b6020830152506040614735848285016140f1565b604083015250606061474984828501614557565b606083015250608082015167ffffffffffffffff81111561476d5761476c614552565b5b614779848285016145ea565b60808301525060a061478d8482850161456c565b60a08301525060c082015167ffffffffffffffff8111156147b1576147b0614552565b5b6147bd848285016145ea565b60c08301525060e06147d18482850161456c565b60e08301525061010082015167ffffffffffffffff8111156147f6576147f5614552565b5b614802848285016146ad565b610100830152506101206148188482850161456c565b6101208301525061014082015167ffffffffffffffff81111561483e5761483d614552565b5b61484a848285016146ad565b610140830152506101606148608482850161456c565b6101608301525092915050565b60006020828403121561488357614882613a3b565b5b600082015167ffffffffffffffff8111156148a1576148a0613a40565b5b6148ad848285016146db565b91505092915050565b7f50726576696f757320726f756e64206e6f7420656e6465640000000000000000600082015250565b60006148ec601883614133565b91506148f7826148b6565b602082019050919050565b6000602082019050818103600083015261491b816148df565b9050919050565b7f50726576696f757320726f756e64206e6f742070726f7061676174656420636f60008201527f72726563746c7900000000000000000000000000000000000000000000000000602082015250565b600061497e602783614133565b915061498982614922565b604082019050919050565b600060208201905081810360008301526149ad81614971565b9050919050565b600b81106149c157600080fd5b50565b6000815190506149d3816149b4565b92915050565b600060e082840312156149ef576149ee61454d565b5b6149f960e0613cf3565b90506000614a09848285016140f1565b6000830152506020614a1d8482850161450b565b6020830152506040614a318482850161450b565b6040830152506060614a4584828501614557565b6060830152506080614a59848285016140f1565b60808301525060a0614a6d848285016149c4565b60a08301525060c0614a818482850161456c565b60c08301525092915050565b600060e08284031215614aa357614aa2613a3b565b5b6000614ab1848285016149d9565b91505092915050565b7f496e76616c6964207469636b6574206964000000000000000000000000000000600082015250565b6000614af0601183614133565b9150614afb82614aba565b602082019050919050565b60006020820190508181036000830152614b1f81614ae3565b9050919050565b7f496e76616c6964207469636b6574206f776e6572000000000000000000000000600082015250565b6000614b5c601483614133565b9150614b6782614b26565b602082019050919050565b60006020820190508181036000830152614b8b81614b4f565b9050919050565b7f5469636b657420616c726561647920636c61696d656400000000000000000000600082015250565b6000614bc8601683614133565b9150614bd382614b92565b602082019050919050565b60006020820190508181036000830152614bf781614bbb565b9050919050565b7f526f756e64206e6f7420656e6465640000000000000000000000000000000000600082015250565b6000614c34600f83614133565b9150614c3f82614bfe565b602082019050919050565b60006020820190508181036000830152614c6381614c27565b9050919050565b7f4e487b7100000000000000000000000000000000000000000000000000000000600052602160045260246000fd5b7f4e6f207072697a6520666f722074686973207469636b65740000000000000000600082015250565b6000614ccf601883614133565b9150614cda82614c99565b602082019050919050565b60006020820190508181036000830152614cfe81614cc2565b9050919050565b6000604082019050614d1a6000830185613b10565b614d276020830184613b10565b9392505050565b600060408284031215614d4457614d4361454d565b5b614d4e6040613cf3565b90506000614d5e848285016140f1565b6000830152506020614d72848285016149c4565b60208301525092915050565b600060408284031215614d9457614d93613a3b565b5b6000614da284828501614d2e565b91505092915050565b7f496e76616c6964207469636b6574207469657200000000000000000000000000600082015250565b6000614de1601383614133565b9150614dec82614dab565b602082019050919050565b60006020820190508181036000830152614e1081614dd4565b9050919050565b600b8110614e2857614e27614c6a565b5b50565b6000819050614e3982614e17565b919050565b6000614e4982614e2b565b9050919050565b614e5981614e3e565b82525050565b6000602082019050614e746000830184614e50565b92915050565b7f4e6f7420656e6f7567682066756e6473206f6e20636f6e747261637400000000600082015250565b6000614eb0601c83614133565b9150614ebb82614e7a565b602082019050919050565b60006020820190508181036000830152614edf81614ea3565b9050919050565b6000604082019050614efb6000830185613adc565b614f086020830184613b10565b9392505050565b600060208284031215614f2557614f24613a3b565b5b6000614f3384828501614557565b91505092915050565b6000614f4782613b06565b9150614f5283613b06565b9250828201905080821115614f6a57614f696141b0565b5b92915050565b600067ffffffffffffffff821115614f8b57614f8a613c93565b5b602082029050602081019050919050565b6000614faf614faa84614f70565b613cf3565b90508083825260208201905060408402830185811115614fd257614fd1613d3a565b5b835b81811015614ffb5780614fe78882614d2e565b845260208401935050604081019050614fd4565b5050509392505050565b600082601f83011261501a57615019613c7d565b5b815161502a848260208601614f9c565b91505092915050565b60006020828403121561504957615048613a3b565b5b600082015167ffffffffffffffff81111561506757615066613a40565b5b61507384828501615005565b91505092915050565b600067ffffffffffffffff82111561509757615096613c93565b5b602082029050602081019050919050565b6000604082840312156150be576150bd61454d565b5b6150c86040613cf3565b905060006150d8848285016140f1565b60008301525060206150ec84828501614557565b60208301525092915050565b600061510b6151068461507c565b613cf3565b9050808382526020820190506040840283018581111561512e5761512d613d3a565b5b835b81811015615157578061514388826150a8565b845260208401935050604081019050615130565b5050509392505050565b600082601f83011261517657615175613c7d565b5b81516151868482602086016150f8565b91505092915050565b6000602082840312156151a5576151a4613a3b565b5b600082015167ffffffffffffffff8111156151c3576151c2613a40565b5b6151cf84828501615161565b91505092915050565b600081519050919050565b600082825260208201905092915050565b6000819050602082019050919050565b61520d81613b06565b82525050565b61521c81614e3e565b82525050565b6040820160008201516152386000850182615204565b50602082015161524b6020850182615213565b50505050565b600061525d8383615222565b60408301905092915050565b6000602082019050919050565b6000615281826151d8565b61528b81856151e3565b9350615296836151f4565b8060005b838110156152c75781516152ae8882615251565b97506152b983615269565b92505060018101905061529a565b5085935050505092915050565b600081519050919050565b600082825260208201905092915050565b6000819050602082019050919050565b61530981613a45565b82525050565b6040820160008201516153256000850182615204565b5060208201516153386020850182615300565b50505050565b600061534a838361530f565b60408301905092915050565b6000602082019050919050565b600061536e826152d4565b61537881856152df565b9350615383836152f0565b8060005b838110156153b457815161539b888261533e565b97506153a683615356565b925050600181019050615387565b5085935050505092915050565b600060408201905081810360008301526153db8185615276565b905081810360208301526153ef8184615363565b90509392505050565b600060a0828403121561540e5761540d61454d565b5b61541860a0613cf3565b90506000615428848285016140f1565b600083015250602061543c8482850161450b565b60208301525060406154508482850161456c565b604083015250606061546484828501614557565b606083015250608061547884828501614557565b60808301525092915050565b600060a0828403121561549a57615499613a3b565b5b60006154a8848285016153f8565b91505092915050565b6000604082840312156154c7576154c6613a3b565b5b60006154d5848285016150a8565b91505092915050565b6000602082840312156154f4576154f3613a3b565b5b60006155028482850161456c565b91505092915050565b7f57616c6c657420616c7265616479206164646564000000000000000000000000600082015250565b6000615541601483614133565b915061554c8261550b565b602082019050919050565b6000602082019050818103600083015261557081615534565b9050919050565b6000806040838503121561558e5761558d613a3b565b5b600061559c85828601614557565b925050602083015167ffffffffffffffff8111156155bd576155bc613a40565b5b6155c9858286016146ad565b9150509250929050565b7f52616e646f6d206e756d62657273206e6f742072656164790000000000000000600082015250565b6000615609601883614133565b9150615614826155d3565b602082019050919050565b60006020820190508181036000830152615638816155fc565b9050919050565b6000819050919050565b600061566461565f61565a8461563f565b613e59565b613bec565b9050919050565b61567481615649565b82525050565b600060608201905061568f6000830186613b10565b61569c602083018561566b565b81810360408301526156ae81846143c1565b9050949350505050565b60006060820190506156cd6000830186613b10565b6156da6020830185613c53565b81810360408301526156ec81846143c1565b9050949350505050565b6000606082019050818103600083015261571081866143c1565b905061571f6020830185613c53565b818103604083015261573181846143c1565b9050949350505050565b600061574682613bec565b915061575183613bec565b9250828201905061ffff81111561576b5761576a6141b0565b5b92915050565b600063ffffffff82169050919050565b600061579c61579761579284613bec565b613e59565b615771565b9050919050565b6157ac81615781565b82525050565b60006020820190506157c760008301846157a3565b92915050565b60006060820190506157e26000830186613adc565b6157ef6020830185613adc565b6157fc6040830184613b10565b949350505050565b600081519050919050565b600081905092915050565b60005b8381101561583857808201518184015260208101905061581d565b60008484015250505050565b600061584f82615804565b615859818561580f565b935061586981856020860161581a565b80840191505092915050565b60006158818284615844565b91508190509291505056fea2646970667358221220617b511348e79feee931f099b9781c799f77104e2335c5ff4abc27f80a0855f364736f6c63430008180033",
  "devdoc": {
    "errors": {
      "AddressEmptyCode(address)": [
        {
          "details": "There's no code at `target` (it is not a contract)."
        }
      ],
      "AddressInsufficientBalance(address)": [
        {
          "details": "The ETH balance of the account is not enough to perform the operation."
        }
      ],
      "FailedInnerCall()": [
        {
          "details": "A call to an address target failed. The target may have reverted."
        }
      ],
      "OwnableInvalidOwner(address)": [
        {
          "details": "The owner is not a valid owner account. (eg. `address(0)`)"
        }
      ],
      "OwnableUnauthorizedAccount(address)": [
        {
          "details": "The caller account is not authorized to perform an operation."
        }
      ],
      "SafeERC20FailedOperation(address)": [
        {
          "details": "An operation with an ERC20 token failed."
        }
      ]
    },
    "kind": "dev",
    "methods": {
      "owner()": {
        "details": "Returns the address of the current owner."
      },
      "renounceOwnership()": {
        "details": "Leaves the contract without owner. It will not be possible to call `onlyOwner` functions. Can only be called by the current owner. NOTE: Renouncing ownership will leave the contract without an owner, thereby disabling any functionality that is only available to the owner."
      },
      "transferOwnership(address)": {
        "details": "Transfers ownership of the contract to a new account (`newOwner`). Can only be called by the current owner."
      }
    },
    "version": 1
  },
  "userdoc": {
    "kind": "user",
    "methods": {},
    "version": 1
  },
  "storageLayout": {
    "storage": [
      {
        "astId": 8,
        "contract": "contracts/LotteryMaster.sol:LotteryMaster",
        "label": "_owner",
        "offset": 0,
        "slot": "0",
        "type": "t_address"
      },
      {
        "astId": 4196,
        "contract": "contracts/LotteryMaster.sol:LotteryMaster",
        "label": "teamAddress",
        "offset": 0,
        "slot": "1",
        "type": "t_address"
      },
      {
        "astId": 1000,
        "contract": "contracts/LotteryMaster.sol:LotteryMaster",
        "label": "roundCount",
        "offset": 0,
        "slot": "2",
        "type": "t_uint256"
      },
      {
        "astId": 1003,
        "contract": "contracts/LotteryMaster.sol:LotteryMaster",
        "label": "rounds",
        "offset": 0,
        "slot": "3",
        "type": "t_array(t_address)dyn_storage"
      },
      {
        "astId": 1033,
        "contract": "contracts/LotteryMaster.sol:LotteryMaster",
        "label": "freeRounds",
        "offset": 0,
        "slot": "4",
        "type": "t_mapping(t_address,t_uint16)"
      },
      {
        "astId": 1035,
        "contract": "contracts/LotteryMaster.sol:LotteryMaster",
        "label": "counterForBankWallets",
        "offset": 0,
        "slot": "5",
        "type": "t_uint16"
      },
      {
        "astId": 1038,
        "contract": "contracts/LotteryMaster.sol:LotteryMaster",
        "label": "bankWallets",
        "offset": 0,
        "slot": "6",
        "type": "t_array(t_address)dyn_storage"
      },
      {
        "astId": 1123,
        "contract": "contracts/LotteryMaster.sol:LotteryMaster",
        "label": "treasuryWallets",
        "offset": 0,
        "slot": "7",
        "type": "t_address"
      },
      {
        "astId": 1138,
        "contract": "contracts/LotteryMaster.sol:LotteryMaster",
        "label": "paymentToken",
        "offset": 0,
        "slot": "8",
        "type": "t_contract(IERC20Metadata)251"
      },
      {
        "astId": 1155,
        "contract": "contracts/LotteryMaster.sol:LotteryMaster",
        "label": "randomizer",
        "offset": 0,
        "slot": "9",
        "type": "t_contract(CyclixRandomizerInterface)892"
      },
      {
        "astId": 1158,
        "contract": "contracts/LotteryMaster.sol:LotteryMaster",
        "label": "reader",
        "offset": 0,
        "slot": "10",
        "type": "t_contract(LotteryReaderInterface)3104"
      },
      {
        "astId": 1160,
        "contract": "contracts/LotteryMaster.sol:LotteryMaster",
        "label": "ticketPrice",
        "offset": 0,
        "slot": "11",
        "type": "t_uint256"
      },
      {
        "astId": 1175,
        "contract": "contracts/LotteryMaster.sol:LotteryMaster",
        "label": "freeRoundsAreEnabled",
        "offset": 0,
        "slot": "12",
        "type": "t_bool"
      },
      {
        "astId": 1190,
        "contract": "contracts/LotteryMaster.sol:LotteryMaster",
        "label": "percentageOfReferralWinners",
        "offset": 1,
        "slot": "12",
        "type": "t_uint16"
      },
      {
        "astId": 1205,
        "contract": "contracts/LotteryMaster.sol:LotteryMaster",
        "label": "lotteryRoundCreator",
        "offset": 3,
        "slot": "12",
        "type": "t_contract(LotteryRoundCreatorInterface)4187"
      },
      {
        "astId": 1623,
        "contract": "contracts/LotteryMaster.sol:LotteryMaster",
        "label": "publicRoundRandomNumbersRequestId",
        "offset": 0,
        "slot": "13",
        "type": "t_mapping(t_uint256,t_uint256)"
      }
    ],
    "types": {
      "t_address": {
        "encoding": "inplace",
        "label": "address",
        "numberOfBytes": "20"
      },
      "t_array(t_address)dyn_storage": {
        "base": "t_address",
        "encoding": "dynamic_array",
        "label": "address[]",
        "numberOfBytes": "32"
      },
      "t_bool": {
        "encoding": "inplace",
        "label": "bool",
        "numberOfBytes": "1"
      },
      "t_contract(CyclixRandomizerInterface)892": {
        "encoding": "inplace",
        "label": "contract CyclixRandomizerInterface",
        "numberOfBytes": "20"
      },
      "t_contract(IERC20Metadata)251": {
        "encoding": "inplace",
        "label": "contract IERC20Metadata",
        "numberOfBytes": "20"
      },
      "t_contract(LotteryReaderInterface)3104": {
        "encoding": "inplace",
        "label": "contract LotteryReaderInterface",
        "numberOfBytes": "20"
      },
      "t_contract(LotteryRoundCreatorInterface)4187": {
        "encoding": "inplace",
        "label": "contract LotteryRoundCreatorInterface",
        "numberOfBytes": "20"
      },
      "t_mapping(t_address,t_uint16)": {
        "encoding": "mapping",
        "key": "t_address",
        "label": "mapping(address => uint16)",
        "numberOfBytes": "32",
        "value": "t_uint16"
      },
      "t_mapping(t_uint256,t_uint256)": {
        "encoding": "mapping",
        "key": "t_uint256",
        "label": "mapping(uint256 => uint256)",
        "numberOfBytes": "32",
        "value": "t_uint256"
      },
      "t_uint16": {
        "encoding": "inplace",
        "label": "uint16",
        "numberOfBytes": "2"
      },
      "t_uint256": {
        "encoding": "inplace",
        "label": "uint256",
        "numberOfBytes": "32"
      }
    }
  }
}