{
  "address": "0xC260752c734025798838B96139c2C0CE34d4D918",
  "abi": [
    {
      "inputs": [],
      "stateMutability": "nonpayable",
      "type": "constructor"
    },
    {
      "inputs": [
        {
          "internalType": "address",
          "name": "owner",
          "type": "address"
        }
      ],
      "name": "OwnableInvalidOwner",
      "type": "error"
    },
    {
      "inputs": [
        {
          "internalType": "address",
          "name": "account",
          "type": "address"
        }
      ],
      "name": "OwnableUnauthorizedAccount",
      "type": "error"
    },
    {
      "anonymous": false,
      "inputs": [
        {
          "indexed": true,
          "internalType": "address",
          "name": "previousOwner",
          "type": "address"
        },
        {
          "indexed": true,
          "internalType": "address",
          "name": "newOwner",
          "type": "address"
        }
      ],
      "name": "OwnershipTransferred",
      "type": "event"
    },
    {
      "inputs": [],
      "name": "owner",
      "outputs": [
        {
          "internalType": "address",
          "name": "",
          "type": "address"
        }
      ],
      "stateMutability": "view",
      "type": "function"
    },
    {
      "inputs": [],
      "name": "renounceOwnership",
      "outputs": [],
      "stateMutability": "nonpayable",
      "type": "function"
    },
    {
      "inputs": [
        {
          "internalType": "uint256",
          "name": "roundDurationInSeconds",
          "type": "uint256"
        },
        {
          "internalType": "address",
          "name": "previousRoundAddress",
          "type": "address"
        },
        {
          "internalType": "uint256",
          "name": "id",
          "type": "uint256"
        },
        {
          "internalType": "uint256",
          "name": "uiId",
          "type": "uint256"
        }
      ],
      "name": "startNewRound",
      "outputs": [
        {
          "internalType": "address",
          "name": "",
          "type": "address"
        }
      ],
      "stateMutability": "nonpayable",
      "type": "function"
    },
    {
      "inputs": [
        {
          "internalType": "address",
          "name": "newOwner",
          "type": "address"
        }
      ],
      "name": "transferOwnership",
      "outputs": [],
      "stateMutability": "nonpayable",
      "type": "function"
    }
  ],
  "transactionHash": "0xdeb898c26b6eb97301db4d908a51e63e5d953b9ade445fdc1147e5cbb43aedf1",
  "args": [],
  "numDeployments": 1,
  "solcInputHash": "e6e22ff2c1a8ad6c098484221e485e8e",
  "bytecode": "0x608060405234801561001057600080fd5b5033600073ffffffffffffffffffffffffffffffffffffffff168173ffffffffffffffffffffffffffffffffffffffff16036100845760006040517f1e4fbdf700000000000000000000000000000000000000000000000000000000815260040161007b919061019e565b60405180910390fd5b6100938161009960201b60201c565b506101b9565b60008060009054906101000a900473ffffffffffffffffffffffffffffffffffffffff169050816000806101000a81548173ffffffffffffffffffffffffffffffffffffffff021916908373ffffffffffffffffffffffffffffffffffffffff1602179055508173ffffffffffffffffffffffffffffffffffffffff168173ffffffffffffffffffffffffffffffffffffffff167f8be0079c531659141344cd1fd0a4f28419497f9722a3daafe3b4186f6b6457e060405160405180910390a35050565b600073ffffffffffffffffffffffffffffffffffffffff82169050919050565b60006101888261015d565b9050919050565b6101988161017d565b82525050565b60006020820190506101b3600083018461018f565b92915050565b6150b9806101c86000396000f3fe60806040523480156200001157600080fd5b5060043610620000525760003560e01c8063159e093b1462000057578063715018a6146200008d5780638da5cb5b1462000099578063f2fde38b14620000bb575b600080fd5b6200007560048036038101906200006f91906200048b565b620000db565b6040516200008491906200050e565b60405180910390f35b62000097620001ae565b005b620000a3620001c6565b604051620000b291906200050e565b60405180910390f35b620000d96004803603810190620000d391906200052b565b620001ef565b005b6000620000e76200027c565b600084868585604051620000fb90620003d8565b6200010a94939291906200056e565b604051809103906000f08015801562000127573d6000803e3d6000fd5b5090508073ffffffffffffffffffffffffffffffffffffffff1663f2fde38b62000150620001c6565b6040518263ffffffff1660e01b81526004016200016e91906200050e565b600060405180830381600087803b1580156200018957600080fd5b505af11580156200019e573d6000803e3d6000fd5b5050505080915050949350505050565b620001b86200027c565b620001c460006200030c565b565b60008060009054906101000a900473ffffffffffffffffffffffffffffffffffffffff16905090565b620001f96200027c565b600073ffffffffffffffffffffffffffffffffffffffff168173ffffffffffffffffffffffffffffffffffffffff16036200026e5760006040517f1e4fbdf70000000000000000000000000000000000000000000000000000000081526004016200026591906200050e565b60405180910390fd5b62000279816200030c565b50565b62000286620003d0565b73ffffffffffffffffffffffffffffffffffffffff16620002a6620001c6565b73ffffffffffffffffffffffffffffffffffffffff16146200030a57620002cc620003d0565b6040517f118cdaa70000000000000000000000000000000000000000000000000000000081526004016200030191906200050e565b60405180910390fd5b565b60008060009054906101000a900473ffffffffffffffffffffffffffffffffffffffff169050816000806101000a81548173ffffffffffffffffffffffffffffffffffffffff021916908373ffffffffffffffffffffffffffffffffffffffff1602179055508173ffffffffffffffffffffffffffffffffffffffff168173ffffffffffffffffffffffffffffffffffffffff167f8be0079c531659141344cd1fd0a4f28419497f9722a3daafe3b4186f6b6457e060405160405180910390a35050565b600033905090565b614ac880620005bc83390190565b600080fd5b6000819050919050565b6200040081620003eb565b81146200040c57600080fd5b50565b6000813590506200042081620003f5565b92915050565b600073ffffffffffffffffffffffffffffffffffffffff82169050919050565b6000620004538262000426565b9050919050565b620004658162000446565b81146200047157600080fd5b50565b60008135905062000485816200045a565b92915050565b60008060008060808587031215620004a857620004a7620003e6565b5b6000620004b8878288016200040f565b9450506020620004cb8782880162000474565b9350506040620004de878288016200040f565b9250506060620004f1878288016200040f565b91505092959194509250565b620005088162000446565b82525050565b6000602082019050620005256000830184620004fd565b92915050565b600060208284031215620005445762000543620003e6565b5b6000620005548482850162000474565b91505092915050565b6200056881620003eb565b82525050565b6000608082019050620005856000830187620004fd565b6200059460208301866200055d565b620005a360408301856200055d565b620005b260608301846200055d565b9594505050505056fe6080604052604051806101200160405280610bb861ffff1681526020016105dc61ffff1681526020016103e861ffff1681526020016102bc61ffff1681526020016101f461ffff16815260200161012c61ffff1681526020016105dc61ffff1681526020016103e861ffff1681526020016101f461ffff16815250601a9060096200008c92919062000984565b503480156200009a57600080fd5b5060405162004ac838038062004ac88339818101604052810190620000c0919062000bfc565b33600073ffffffffffffffffffffffffffffffffffffffff168173ffffffffffffffffffffffffffffffffffffffff1603620001365760006040517f1e4fbdf70000000000000000000000000000000000000000000000000000000081526004016200012d919062000c7f565b60405180910390fd5b6200014781620004b460201b60201c565b5083601960006101000a81548173ffffffffffffffffffffffffffffffffffffffff021916908373ffffffffffffffffffffffffffffffffffffffff160217905550600073ffffffffffffffffffffffffffffffffffffffff168473ffffffffffffffffffffffffffffffffffffffff1614620001cf57620001ce6200057860201b60201c565b5b6040518061018001604052808381526020018281526020014281526020018442620001fb919062000ccb565b8152602001600015158152602001600067ffffffffffffffff81111562000227576200022662000d06565b5b604051908082528060200260200182016040528015620002565781602001602082028036833780820191505090505b508152602001600067ffffffffffffffff8111156200027a576200027962000d06565b5b604051908082528060200260200182016040528015620002a95781602001602082028036833780820191505090505b508152602001600061ffff168152602001600067ffffffffffffffff811115620002d857620002d762000d06565b5b604051908082528060200260200182016040528015620003075781602001602082028036833780820191505090505b508152602001600061ffff168152602001600067ffffffffffffffff81111562000336576200033562000d06565b5b604051908082528060200260200182016040528015620003655781602001602082028036833780820191505090505b508152602001600061ffff1681525060016000820151816000015560208201518160010155604082015181600201556060820151816003015560808201518160040160006101000a81548160ff02191690831515021790555060a0820151816005019080519060200190620003dc92919062000a35565b5060c0820151816006019080519060200190620003fb92919062000ae6565b5060e08201518160070160006101000a81548161ffff021916908361ffff1602179055506101008201518160080190805190602001906200043e92919062000ae6565b506101208201518160090160006101000a81548161ffff021916908361ffff16021790555061014082015181600a0190805190602001906200048292919062000ae6565b5061016082015181600b0160006101000a81548161ffff021916908361ffff1602179055509050505050505062000eb2565b60008060009054906101000a900473ffffffffffffffffffffffffffffffffffffffff169050816000806101000a81548173ffffffffffffffffffffffffffffffffffffffff021916908373ffffffffffffffffffffffffffffffffffffffff1602179055508173ffffffffffffffffffffffffffffffffffffffff168173ffffffffffffffffffffffffffffffffffffffff167f8be0079c531659141344cd1fd0a4f28419497f9722a3daafe3b4186f6b6457e060405160405180910390a35050565b6000601960009054906101000a900473ffffffffffffffffffffffffffffffffffffffff1690506200069f8173ffffffffffffffffffffffffffffffffffffffff1663d54ad2a16040518163ffffffff1660e01b8152600401602060405180830381865afa158015620005ef573d6000803e3d6000fd5b505050506040513d601f19601f8201168201806040525081019062000615919062000d35565b8273ffffffffffffffffffffffffffffffffffffffff166317fe23996040518163ffffffff1660e01b8152600401602060405180830381865afa15801562000661573d6000803e3d6000fd5b505050506040513d601f19601f8201168201806040525081019062000687919062000d35565b62000693919062000d67565b620006a260201b60201c565b50565b620006b26200088a60201b60201c565b6200071881601a60086009811115620006d057620006cf62000da2565b5b81548110620006e457620006e362000dd1565b5b90600052602060002090601091828204019190066002029054906101000a900461ffff1661ffff166200092c60201b60201c565b6200077e82601a6007600981111562000736576200073562000da2565b5b815481106200074a576200074962000dd1565b5b90600052602060002090601091828204019190066002029054906101000a900461ffff1661ffff166200092c60201b60201c565b826200078b919062000d67565b62000797919062000d67565b60166000828254620007aa919062000ccb565b9250508190555060005b600981101562000886576200080e82601a8381548110620007da57620007d962000dd1565b5b90600052602060002090601091828204019190066002029054906101000a900461ffff1661ffff166200092c60201b60201c565b6014600083600981111562000828576200082762000da2565b5b60098111156200083d576200083c62000da2565b5b600981111562000852576200085162000da2565b5b8152602001908152602001600020600082825462000871919062000ccb565b925050819055508080600101915050620007b4565b5050565b6200089a6200095360201b60201c565b73ffffffffffffffffffffffffffffffffffffffff16620008c06200095b60201b60201c565b73ffffffffffffffffffffffffffffffffffffffff16146200092a57620008ec6200095360201b60201c565b6040517f118cdaa700000000000000000000000000000000000000000000000000000000815260040162000921919062000c7f565b60405180910390fd5b565b600061271082846200093f919062000e00565b6200094b919062000e7a565b905092915050565b600033905090565b60008060009054906101000a900473ffffffffffffffffffffffffffffffffffffffff16905090565b82805482825590600052602060002090600f0160109004810192821562000a225791602002820160005b83821115620009f057835183826101000a81548161ffff021916908361ffff1602179055509260200192600201602081600101049283019260010302620009ae565b801562000a205782816101000a81549061ffff0219169055600201602081600101049283019260010302620009f0565b505b50905062000a31919062000b38565b5090565b82805482825590600052602060002090600f0160109004810192821562000ad35791602002820160005b8382111562000aa157835183826101000a81548161ffff021916908361ffff160217905550926020019260020160208160010104928301926001030262000a5f565b801562000ad15782816101000a81549061ffff021916905560020160208160010104928301926001030262000aa1565b505b50905062000ae2919062000b38565b5090565b82805482825590600052602060002090810192821562000b25579160200282015b8281111562000b2457825182559160200191906001019062000b07565b5b50905062000b34919062000b38565b5090565b5b8082111562000b5357600081600090555060010162000b39565b5090565b600080fd5b600073ffffffffffffffffffffffffffffffffffffffff82169050919050565b600062000b898262000b5c565b9050919050565b62000b9b8162000b7c565b811462000ba757600080fd5b50565b60008151905062000bbb8162000b90565b92915050565b6000819050919050565b62000bd68162000bc1565b811462000be257600080fd5b50565b60008151905062000bf68162000bcb565b92915050565b6000806000806080858703121562000c195762000c1862000b57565b5b600062000c298782880162000baa565b945050602062000c3c8782880162000be5565b935050604062000c4f8782880162000be5565b925050606062000c628782880162000be5565b91505092959194509250565b62000c798162000b7c565b82525050565b600060208201905062000c96600083018462000c6e565b92915050565b7f4e487b7100000000000000000000000000000000000000000000000000000000600052601160045260246000fd5b600062000cd88262000bc1565b915062000ce58362000bc1565b925082820190508082111562000d005762000cff62000c9c565b5b92915050565b7f4e487b7100000000000000000000000000000000000000000000000000000000600052604160045260246000fd5b60006020828403121562000d4e5762000d4d62000b57565b5b600062000d5e8482850162000be5565b91505092915050565b600062000d748262000bc1565b915062000d818362000bc1565b925082820390508181111562000d9c5762000d9b62000c9c565b5b92915050565b7f4e487b7100000000000000000000000000000000000000000000000000000000600052602160045260246000fd5b7f4e487b7100000000000000000000000000000000000000000000000000000000600052603260045260246000fd5b600062000e0d8262000bc1565b915062000e1a8362000bc1565b925082820262000e2a8162000bc1565b9150828204841483151762000e445762000e4362000c9c565b5b5092915050565b7f4e487b7100000000000000000000000000000000000000000000000000000000600052601260045260246000fd5b600062000e878262000bc1565b915062000e948362000bc1565b92508262000ea75762000ea662000e4b565b5b828204905092915050565b613c068062000ec26000396000f3fe608060405234801561001057600080fd5b506004361061021c5760003560e01c80638da5cb5b11610125578063d54ad2a1116100ad578063e278fe6f1161007c578063e278fe6f146106be578063e2e30830146106c8578063e65b76a9146106f8578063eb7165fa14610728578063f2fde38b146107445761021c565b8063d54ad2a114610624578063dd85ae5f14610642578063df28f24b14610672578063df4fbb2f146106a25761021c565b8063af33d08f116100f4578063af33d08f1461056e578063b217be051461059e578063b288e1a9146105ce578063b56c12b4146105ec578063b82e18ff146106085761021c565b80638da5cb5b146104e65780639469f293146105045780639b7be8fc146105205780639f8743f7146105505761021c565b80633ed91226116101a8578063598f3b9d11610177578063598f3b9d14610430578063659a8d86146104605780636a9c3b3114610490578063715018a6146104c057806385a70d0f146104ca5761021c565b80633ed91226146103665780634e9eba1d1461039b57806350b44712146103cb57806358371dc6146104005761021c565b806317fe2399116101ef57806317fe2399146102c25780632724d104146102e05780632ed48515146102fc578063343f25661461032c57806336324a5d146103365761021c565b806308469cc61461022157806308bb71cd146102515780630cee803c14610281578063146ca5311461029d575b600080fd5b61023b600480360381019061023691906125a9565b610760565b60405161024891906125f1565b60405180910390f35b61026b6004803603810190610266919061266a565b610779565b60405161027891906126a6565b60405180910390f35b61029b600480360381019061029691906126c1565b610791565b005b6102a5610830565b6040516102b998979695949392919061271e565b60405180910390f35b6102ca61089d565b6040516102d791906126a6565b60405180910390f35b6102fa60048036038101906102f59190612921565b6108a3565b005b610316600480360381019061031191906126c1565b610904565b60405161032391906126a6565b60405180910390f35b610334610927565b005b610350600480360381019061034b91906125a9565b6109bc565b60405161035d91906125f1565b60405180910390f35b610380600480360381019061037b91906125a9565b6109d5565b604051610392969594939291906129a8565b60405180910390f35b6103b560048036038101906103b09190612a2e565b610a7b565b6040516103c291906126a6565b60405180910390f35b6103e560048036038101906103e091906125a9565b610a93565b6040516103f796959493929190612ad2565b60405180910390f35b61041a600480360381019061041591906125a9565b610b39565b6040516104279190612b33565b60405180910390f35b61044a600480360381019061044591906125a9565b610b71565b6040516104579190612c0c565b60405180910390f35b61047a60048036038101906104759190612c2e565b610c04565b60405161048791906126a6565b60405180910390f35b6104aa60048036038101906104a59190612a2e565b610c35565b6040516104b791906126a6565b60405180910390f35b6104c8610c4d565b005b6104e460048036038101906104df9190612c6e565b610c61565b005b6104ee610ec8565b6040516104fb9190612cca565b60405180910390f35b61051e60048036038101906105199190612ce5565b610ef1565b005b61053a600480360381019061053591906125a9565b610f13565b6040516105479190612de5565b60405180910390f35b610558611065565b6040516105659190613037565b60405180910390f35b610588600480360381019061058391906125a9565b6112ab565b60405161059591906126a6565b60405180910390f35b6105b860048036038101906105b391906126c1565b6112fa565b6040516105c59190612b33565b60405180910390f35b6105d6611341565b6040516105e39190612cca565b60405180910390f35b610606600480360381019061060191906125a9565b611367565b005b610622600480360381019061061d9190613364565b61150d565b005b61062c611700565b60405161063991906126a6565b60405180910390f35b61065c600480360381019061065791906125a9565b611706565b6040516106699190613457565b60405180910390f35b61068c6004803603810190610687919061266a565b611838565b60405161069991906126a6565b60405180910390f35b6106bc60048036038101906106b79190613535565b611850565b005b6106c66119f9565b005b6106e260048036038101906106dd9190612a2e565b611a68565b6040516106ef91906126a6565b60405180910390f35b610712600480360381019061070d9190612c2e565b611a80565b60405161071f91906126a6565b60405180910390f35b610742600480360381019061073d91906135dc565b611ab1565b005b61075e6004803603810190610759919061266a565b612121565b005b60008082118015610772575060458211155b9050919050565b60136020528060005260406000206000915090505481565b6107996121a7565b6000601183815481106107af576107ae61365f565b5b9060005260206000209060050201905060018160040160016101000a81548160ff0219169083151502179055508160156000600660098111156107f5576107f4612a5b565b5b600981111561080757610806612a5b565b5b8152602001908152602001600020600082825461082491906136bd565b92505081905550505050565b60018060000154908060010154908060020154908060030154908060040160009054906101000a900460ff16908060070160009054906101000a900461ffff16908060090160009054906101000a900461ffff169080600b0160009054906101000a900461ffff16905088565b60165481565b6108ab6121a7565b81600160050190805190602001906108c49291906122fa565b5080600160060190805190602001906108de9291906123a4565b508051600160070160006101000a81548161ffff021916908361ffff1602179055505050565b6000612710828461091591906136f1565b61091f9190613762565b905092915050565b60016003015442101561096f576040517f08c379a0000000000000000000000000000000000000000000000000000000008152600401610966906137f0565b60405180910390fd5b6000600160050180549050146109ba576040517f08c379a00000000000000000000000000000000000000000000000000000000081526004016109b19061385c565b60405180910390fd5b565b600080821180156109ce5750601a8211155b9050919050565b601181815481106109e557600080fd5b90600052602060002090600502016000915090508060000154908060010160009054906101000a900473ffffffffffffffffffffffffffffffffffffffff16908060020160009054906101000a900473ffffffffffffffffffffffffffffffffffffffff16908060030154908060040160009054906101000a900460ff16908060040160019054906101000a900460ff16905086565b60156020528060005260406000206000915090505481565b600d8181548110610aa357600080fd5b90600052602060002090600502016000915090508060000154908060010160009054906101000a900473ffffffffffffffffffffffffffffffffffffffff16908060020160009054906101000a900473ffffffffffffffffffffffffffffffffffffffff16908060020160149054906101000a900460ff16908060030154908060040160009054906101000a900460ff16905086565b601a8181548110610b4957600080fd5b9060005260206000209060109182820401919006600202915054906101000a900461ffff1681565b6060600e6000838152602001908152602001600020805480602002602001604051908101604052809291908181526020018280548015610bf857602002820191906000526020600020906000905b82829054906101000a900461ffff1661ffff1681526020019060020190602082600101049283019260010382029150808411610bbf5790505b50505050509050919050565b60126020528160005260406000208181548110610c2057600080fd5b90600052602060002001600091509150505481565b60186020528060005260406000206000915090505481565b610c556121a7565b610c5f600061222e565b565b610c696121a7565b600073ffffffffffffffffffffffffffffffffffffffff163273ffffffffffffffffffffffffffffffffffffffff1603610cd8576040517f08c379a0000000000000000000000000000000000000000000000000000000008152600401610ccf906138c8565b60405180910390fd5b6001600301544210610d1f576040517f08c379a0000000000000000000000000000000000000000000000000000000008152600401610d1690613934565b60405180910390fd5b6006825114610d63576040517f08c379a0000000000000000000000000000000000000000000000000000000008152600401610d5a906139a0565b60405180910390fd5b60005b60018351610d7491906139c0565b811015610dee57610da2838281518110610d9157610d9061365f565b5b602002602001015161ffff16610760565b610de1576040517f08c379a0000000000000000000000000000000000000000000000000000000008152600401610dd890613a40565b60405180910390fd5b8080600101915050610d66565b50610e1782600581518110610e0657610e0561365f565b5b602002602001015161ffff166109bc565b610e56576040517f08c379a0000000000000000000000000000000000000000000000000000000008152600401610e4d90613aac565b60405180910390fd5b3273ffffffffffffffffffffffffffffffffffffffff168173ffffffffffffffffffffffffffffffffffffffff1603610ec4576040517f08c379a0000000000000000000000000000000000000000000000000000000008152600401610ebb90613b3e565b60405180910390fd5b5050565b60008060009054906101000a900473ffffffffffffffffffffffffffffffffffffffff16905090565b610ef96121a7565b80601a9080519060200190610f0f9291906122fa565b5050565b610f1b6123f7565b600d8281548110610f2f57610f2e61365f565b5b90600052602060002090600502016040518060c0016040529081600082015481526020016001820160009054906101000a900473ffffffffffffffffffffffffffffffffffffffff1673ffffffffffffffffffffffffffffffffffffffff1673ffffffffffffffffffffffffffffffffffffffff1681526020016002820160009054906101000a900473ffffffffffffffffffffffffffffffffffffffff1673ffffffffffffffffffffffffffffffffffffffff1673ffffffffffffffffffffffffffffffffffffffff1681526020016002820160149054906101000a900460ff16151515158152602001600382015481526020016004820160009054906101000a900460ff16600981111561104857611047612a5b565b5b600981111561105a57611059612a5b565b5b815250509050919050565b61106d61246d565b600160405180610180016040529081600082015481526020016001820154815260200160028201548152602001600382015481526020016004820160009054906101000a900460ff161515151581526020016005820180548060200260200160405190810160405280929190818152602001828054801561113557602002820191906000526020600020906000905b82829054906101000a900461ffff1661ffff16815260200190600201906020826001010492830192600103820291508084116110fc5790505b505050505081526020016006820180548060200260200160405190810160405280929190818152602001828054801561118d57602002820191906000526020600020905b815481526020019060010190808311611179575b505050505081526020016007820160009054906101000a900461ffff1661ffff1661ffff1681526020016008820180548060200260200160405190810160405280929190818152602001828054801561120557602002820191906000526020600020905b8154815260200190600101908083116111f1575b505050505081526020016009820160009054906101000a900461ffff1661ffff1661ffff168152602001600a820180548060200260200160405190810160405280929190818152602001828054801561127d57602002820191906000526020600020905b815481526020019060010190808311611269575b50505050508152602001600b820160009054906101000a900461ffff1661ffff1661ffff1681525050905090565b60006112f382601a6008815481106112c6576112c561365f565b5b90600052602060002090601091828204019190066002029054906101000a900461ffff1661ffff16610904565b9050919050565b600e602052816000526040600020818154811061131657600080fd5b9060005260206000209060109182820401919006600202915091509054906101000a900461ffff1681565b601960009054906101000a900473ffffffffffffffffffffffffffffffffffffffff1681565b61136f6121a7565b6113c781601a6008600981111561138957611388612a5b565b5b8154811061139a5761139961365f565b5b90600052602060002090601091828204019190066002029054906101000a900461ffff1661ffff16610904565b61141f82601a600760098111156113e1576113e0612a5b565b5b815481106113f2576113f161365f565b5b90600052602060002090601091828204019190066002029054906101000a900461ffff1661ffff16610904565b8261142a91906139c0565b61143491906139c0565b6016600082825461144591906136bd565b9250508190555060005b60098110156115095761149d82601a83815481106114705761146f61365f565b5b90600052602060002090601091828204019190066002029054906101000a900461ffff1661ffff16610904565b601460008360098111156114b4576114b3612a5b565b5b60098111156114c6576114c5612a5b565b5b60098111156114d8576114d7612a5b565b5b815260200190815260200160002060008282546114f591906136bd565b92505081905550808060010191505061144f565b5050565b6115156121a7565b60005b82518110156116095760008382815181106115365761153561365f565b5b602002602001015190506000600d82600001518154811061155a5761155961365f565b5b9060005260206000209060050201905060018160020160146101000a81548160ff0219169083151502179055508160a0015160156000846040015160098111156115a7576115a6612a5b565b5b60098111156115b9576115b8612a5b565b5b815260200190815260200160002060008282546115d691906136bd565b925050819055508160a00151601760008282546115f391906136bd565b9250508190555050508080600101915050611518565b5060005b81518110156116fb57600082828151811061162b5761162a61365f565b5b602002602001015190506000601182600001518154811061164f5761164e61365f565b5b9060005260206000209060050201905060018160040160016101000a81548160ff0219169083151502179055508160c00151601560006006600981111561169957611698612a5b565b5b60098111156116ab576116aa612a5b565b5b815260200190815260200160002060008282546116c891906136bd565b925050819055508160c00151601760008282546116e591906136bd565b925050819055505050808060010191505061160d565b505050565b60175481565b61170e6124dc565b601182815481106117225761172161365f565b5b90600052602060002090600502016040518060c0016040529081600082015481526020016001820160009054906101000a900473ffffffffffffffffffffffffffffffffffffffff1673ffffffffffffffffffffffffffffffffffffffff1673ffffffffffffffffffffffffffffffffffffffff1681526020016002820160009054906101000a900473ffffffffffffffffffffffffffffffffffffffff1673ffffffffffffffffffffffffffffffffffffffff1673ffffffffffffffffffffffffffffffffffffffff168152602001600382015481526020016004820160009054906101000a900460ff161515151581526020016004820160019054906101000a900460ff1615151515815250509050919050565b60106020528060005260406000206000915090505481565b6118586121a7565b60005b83518110156118ec5760008482815181106118795761187861365f565b5b602002602001015190506000600d82600001518154811061189d5761189c61365f565b5b9060005260206000209060050201905081604001518160040160006101000a81548160ff021916908360098111156118d8576118d7612a5b565b5b02179055505050808060010191505061185b565b5060005b825181101561197157600083828151811061190e5761190d61365f565b5b60200260200101519050600060118260000151815481106119325761193161365f565b5b9060005260206000209060050201905081608001518160040160006101000a81548160ff021916908315150217905550505080806001019150506118f0565b5060005b60078110156119f3578181815181106119915761199061365f565b5b6020026020010151601860008360098111156119b0576119af612a5b565b5b60098111156119c2576119c1612a5b565b5b60098111156119d4576119d3612a5b565b5b8152602001908152602001600020819055508080600101915050611975565b50505050565b611a016121a7565b600160030154421015611a49576040517f08c379a0000000000000000000000000000000000000000000000000000000008152600401611a40906137f0565b60405180910390fd5b60018060040160006101000a81548160ff021916908315150217905550565b60146020528060005260406000206000915090505481565b600f6020528160005260406000208181548110611a9c57600080fd5b90600052602060002001600091509150505481565b611ab96121a7565b611ac38383610c61565b6000600d805490509050600d6040518060c001604052808381526020018473ffffffffffffffffffffffffffffffffffffffff1681526020018573ffffffffffffffffffffffffffffffffffffffff168152602001600015158152602001878152602001600980811115611b3a57611b39612a5b565b5b81525090806001815401808255809150506001900390600052602060002090600502016000909190919091506000820151816000015560208201518160010160006101000a81548173ffffffffffffffffffffffffffffffffffffffff021916908373ffffffffffffffffffffffffffffffffffffffff16021790555060408201518160020160006101000a81548173ffffffffffffffffffffffffffffffffffffffff021916908373ffffffffffffffffffffffffffffffffffffffff16021790555060608201518160020160146101000a81548160ff0219169083151502179055506080820151816003015560a08201518160040160006101000a81548160ff02191690836009811115611c5357611c52612a5b565b5b0217905550505060005b8451811015611ce857600e6000838152602001908152602001600020858281518110611c8c57611c8b61365f565b5b602002602001015190806001815401808255809150506001900390600052602060002090601091828204019190066002029091909190916101000a81548161ffff021916908361ffff1602179055508080600101915050611c5d565b5060016008018190806001815401808255809150506001900390600052602060002001600090919091909150556001600901600081819054906101000a900461ffff1680929190611d3890613b5e565b91906101000a81548161ffff021916908361ffff16021790555050600f60008373ffffffffffffffffffffffffffffffffffffffff1673ffffffffffffffffffffffffffffffffffffffff1681526020019081526020016000206001600d80549050611da491906139c0565b9080600181540180825580915050600190039060005260206000200160009091909190915055601060008373ffffffffffffffffffffffffffffffffffffffff1673ffffffffffffffffffffffffffffffffffffffff1681526020019081526020016000206000815480929190611e1a90613b88565b9190505550600073ffffffffffffffffffffffffffffffffffffffff168373ffffffffffffffffffffffffffffffffffffffff161461211a57600060118054905090506001600a018190806001815401808255809150506001900390600052602060002001600090919091909150556001600b01600081819054906101000a900461ffff1680929190611eac90613b5e565b91906101000a81548161ffff021916908361ffff1602179055505060116040518060c001604052808381526020018573ffffffffffffffffffffffffffffffffffffffff1681526020018673ffffffffffffffffffffffffffffffffffffffff1681526020016001600b0160009054906101000a900461ffff1661ffff1681526020016000151581526020016000151581525090806001815401808255809150506001900390600052602060002090600502016000909190919091506000820151816000015560208201518160010160006101000a81548173ffffffffffffffffffffffffffffffffffffffff021916908373ffffffffffffffffffffffffffffffffffffffff16021790555060408201518160020160006101000a81548173ffffffffffffffffffffffffffffffffffffffff021916908373ffffffffffffffffffffffffffffffffffffffff1602179055506060820151816003015560808201518160040160006101000a81548160ff02191690831515021790555060a08201518160040160016101000a81548160ff0219169083151502179055505050601260008573ffffffffffffffffffffffffffffffffffffffff1673ffffffffffffffffffffffffffffffffffffffff168152602001908152602001600020600160118054905061209d91906139c0565b9080600181540180825580915050600190039060005260206000200160009091909190915055601360008573ffffffffffffffffffffffffffffffffffffffff1673ffffffffffffffffffffffffffffffffffffffff168152602001908152602001600020600081548092919061211390613b88565b9190505550505b5050505050565b6121296121a7565b600073ffffffffffffffffffffffffffffffffffffffff168173ffffffffffffffffffffffffffffffffffffffff160361219b5760006040517f1e4fbdf70000000000000000000000000000000000000000000000000000000081526004016121929190612cca565b60405180910390fd5b6121a48161222e565b50565b6121af6122f2565b73ffffffffffffffffffffffffffffffffffffffff166121cd610ec8565b73ffffffffffffffffffffffffffffffffffffffff161461222c576121f06122f2565b6040517f118cdaa70000000000000000000000000000000000000000000000000000000081526004016122239190612cca565b60405180910390fd5b565b60008060009054906101000a900473ffffffffffffffffffffffffffffffffffffffff169050816000806101000a81548173ffffffffffffffffffffffffffffffffffffffff021916908373ffffffffffffffffffffffffffffffffffffffff1602179055508173ffffffffffffffffffffffffffffffffffffffff168173ffffffffffffffffffffffffffffffffffffffff167f8be0079c531659141344cd1fd0a4f28419497f9722a3daafe3b4186f6b6457e060405160405180910390a35050565b600033905090565b82805482825590600052602060002090600f016010900481019282156123935791602002820160005b8382111561236357835183826101000a81548161ffff021916908361ffff1602179055509260200192600201602081600101049283019260010302612323565b80156123915782816101000a81549061ffff0219169055600201602081600101049283019260010302612363565b505b5090506123a09190612542565b5090565b8280548282559060005260206000209081019282156123e6579160200282015b828111156123e5578251829061ffff169055916020019190600101906123c4565b5b5090506123f39190612542565b5090565b6040518060c0016040528060008152602001600073ffffffffffffffffffffffffffffffffffffffff168152602001600073ffffffffffffffffffffffffffffffffffffffff168152602001600015158152602001600081526020016000600981111561246757612466612a5b565b5b81525090565b604051806101800160405280600081526020016000815260200160008152602001600081526020016000151581526020016060815260200160608152602001600061ffff16815260200160608152602001600061ffff16815260200160608152602001600061ffff1681525090565b6040518060c0016040528060008152602001600073ffffffffffffffffffffffffffffffffffffffff168152602001600073ffffffffffffffffffffffffffffffffffffffff168152602001600081526020016000151581526020016000151581525090565b5b8082111561255b576000816000905550600101612543565b5090565b6000604051905090565b600080fd5b600080fd5b6000819050919050565b61258681612573565b811461259157600080fd5b50565b6000813590506125a38161257d565b92915050565b6000602082840312156125bf576125be612569565b5b60006125cd84828501612594565b91505092915050565b60008115159050919050565b6125eb816125d6565b82525050565b600060208201905061260660008301846125e2565b92915050565b600073ffffffffffffffffffffffffffffffffffffffff82169050919050565b60006126378261260c565b9050919050565b6126478161262c565b811461265257600080fd5b50565b6000813590506126648161263e565b92915050565b6000602082840312156126805761267f612569565b5b600061268e84828501612655565b91505092915050565b6126a081612573565b82525050565b60006020820190506126bb6000830184612697565b92915050565b600080604083850312156126d8576126d7612569565b5b60006126e685828601612594565b92505060206126f785828601612594565b9150509250929050565b600061ffff82169050919050565b61271881612701565b82525050565b600061010082019050612734600083018b612697565b612741602083018a612697565b61274e6040830189612697565b61275b6060830188612697565b61276860808301876125e2565b61277560a083018661270f565b61278260c083018561270f565b61278f60e083018461270f565b9998505050505050505050565b600080fd5b6000601f19601f8301169050919050565b7f4e487b7100000000000000000000000000000000000000000000000000000000600052604160045260246000fd5b6127ea826127a1565b810181811067ffffffffffffffff82111715612809576128086127b2565b5b80604052505050565b600061281c61255f565b905061282882826127e1565b919050565b600067ffffffffffffffff821115612848576128476127b2565b5b602082029050602081019050919050565b600080fd5b61286781612701565b811461287257600080fd5b50565b6000813590506128848161285e565b92915050565b600061289d6128988461282d565b612812565b905080838252602082019050602084028301858111156128c0576128bf612859565b5b835b818110156128e957806128d58882612875565b8452602084019350506020810190506128c2565b5050509392505050565b600082601f8301126129085761290761279c565b5b813561291884826020860161288a565b91505092915050565b6000806040838503121561293857612937612569565b5b600083013567ffffffffffffffff8111156129565761295561256e565b5b612962858286016128f3565b925050602083013567ffffffffffffffff8111156129835761298261256e565b5b61298f858286016128f3565b9150509250929050565b6129a28161262c565b82525050565b600060c0820190506129bd6000830189612697565b6129ca6020830188612999565b6129d76040830187612999565b6129e46060830186612697565b6129f160808301856125e2565b6129fe60a08301846125e2565b979650505050505050565b600a8110612a1657600080fd5b50565b600081359050612a2881612a09565b92915050565b600060208284031215612a4457612a43612569565b5b6000612a5284828501612a19565b91505092915050565b7f4e487b7100000000000000000000000000000000000000000000000000000000600052602160045260246000fd5b600a8110612a9b57612a9a612a5b565b5b50565b6000819050612aac82612a8a565b919050565b6000612abc82612a9e565b9050919050565b612acc81612ab1565b82525050565b600060c082019050612ae76000830189612697565b612af46020830188612999565b612b016040830187612999565b612b0e60608301866125e2565b612b1b6080830185612697565b612b2860a0830184612ac3565b979650505050505050565b6000602082019050612b48600083018461270f565b92915050565b600081519050919050565b600082825260208201905092915050565b6000819050602082019050919050565b612b8381612701565b82525050565b6000612b958383612b7a565b60208301905092915050565b6000602082019050919050565b6000612bb982612b4e565b612bc38185612b59565b9350612bce83612b6a565b8060005b83811015612bff578151612be68882612b89565b9750612bf183612ba1565b925050600181019050612bd2565b5085935050505092915050565b60006020820190508181036000830152612c268184612bae565b905092915050565b60008060408385031215612c4557612c44612569565b5b6000612c5385828601612655565b9250506020612c6485828601612594565b9150509250929050565b60008060408385031215612c8557612c84612569565b5b600083013567ffffffffffffffff811115612ca357612ca261256e565b5b612caf858286016128f3565b9250506020612cc085828601612655565b9150509250929050565b6000602082019050612cdf6000830184612999565b92915050565b600060208284031215612cfb57612cfa612569565b5b600082013567ffffffffffffffff811115612d1957612d1861256e565b5b612d25848285016128f3565b91505092915050565b612d3781612573565b82525050565b612d468161262c565b82525050565b612d55816125d6565b82525050565b612d6481612ab1565b82525050565b60c082016000820151612d806000850182612d2e565b506020820151612d936020850182612d3d565b506040820151612da66040850182612d3d565b506060820151612db96060850182612d4c565b506080820151612dcc6080850182612d2e565b5060a0820151612ddf60a0850182612d5b565b50505050565b600060c082019050612dfa6000830184612d6a565b92915050565b600082825260208201905092915050565b6000612e1c82612b4e565b612e268185612e00565b9350612e3183612b6a565b8060005b83811015612e62578151612e498882612b89565b9750612e5483612ba1565b925050600181019050612e35565b5085935050505092915050565b600081519050919050565b600082825260208201905092915050565b6000819050602082019050919050565b6000612ea78383612d2e565b60208301905092915050565b6000602082019050919050565b6000612ecb82612e6f565b612ed58185612e7a565b9350612ee083612e8b565b8060005b83811015612f11578151612ef88882612e9b565b9750612f0383612eb3565b925050600181019050612ee4565b5085935050505092915050565b600061018083016000830151612f376000860182612d2e565b506020830151612f4a6020860182612d2e565b506040830151612f5d6040860182612d2e565b506060830151612f706060860182612d2e565b506080830151612f836080860182612d4c565b5060a083015184820360a0860152612f9b8282612e11565b91505060c083015184820360c0860152612fb58282612ec0565b91505060e0830151612fca60e0860182612b7a565b50610100830151848203610100860152612fe48282612ec0565b915050610120830151612ffb610120860182612b7a565b506101408301518482036101408601526130158282612ec0565b91505061016083015161302c610160860182612b7a565b508091505092915050565b600060208201905081810360008301526130518184612f1e565b905092915050565b600067ffffffffffffffff821115613074576130736127b2565b5b602082029050602081019050919050565b600080fd5b613093816125d6565b811461309e57600080fd5b50565b6000813590506130b08161308a565b92915050565b600060c082840312156130cc576130cb613085565b5b6130d660c0612812565b905060006130e684828501612594565b60008301525060206130fa84828501612655565b602083015250604061310e84828501612a19565b6040830152506060613122848285016130a1565b6060830152506080613136848285016130a1565b60808301525060a061314a84828501612594565b60a08301525092915050565b600061316961316484613059565b612812565b90508083825260208201905060c0840283018581111561318c5761318b612859565b5b835b818110156131b557806131a188826130b6565b84526020840193505060c08101905061318e565b5050509392505050565b600082601f8301126131d4576131d361279c565b5b81356131e4848260208601613156565b91505092915050565b600067ffffffffffffffff821115613208576132076127b2565b5b602082029050602081019050919050565b600060e0828403121561322f5761322e613085565b5b61323960e0612812565b9050600061324984828501612594565b600083015250602061325d84828501612655565b602083015250604061327184828501612655565b604083015250606061328584828501612594565b6060830152506080613299848285016130a1565b60808301525060a06132ad848285016130a1565b60a08301525060c06132c184828501612594565b60c08301525092915050565b60006132e06132db846131ed565b612812565b90508083825260208201905060e0840283018581111561330357613302612859565b5b835b8181101561332c57806133188882613219565b84526020840193505060e081019050613305565b5050509392505050565b600082601f83011261334b5761334a61279c565b5b813561335b8482602086016132cd565b91505092915050565b6000806040838503121561337b5761337a612569565b5b600083013567ffffffffffffffff8111156133995761339861256e565b5b6133a5858286016131bf565b925050602083013567ffffffffffffffff8111156133c6576133c561256e565b5b6133d285828601613336565b9150509250929050565b60c0820160008201516133f26000850182612d2e565b5060208201516134056020850182612d3d565b5060408201516134186040850182612d3d565b50606082015161342b6060850182612d2e565b50608082015161343e6080850182612d4c565b5060a082015161345160a0850182612d4c565b50505050565b600060c08201905061346c60008301846133dc565b92915050565b600067ffffffffffffffff82111561348d5761348c6127b2565b5b602082029050602081019050919050565b60006134b16134ac84613472565b612812565b905080838252602082019050602084028301858111156134d4576134d3612859565b5b835b818110156134fd57806134e98882612594565b8452602084019350506020810190506134d6565b5050509392505050565b600082601f83011261351c5761351b61279c565b5b813561352c84826020860161349e565b91505092915050565b60008060006060848603121561354e5761354d612569565b5b600084013567ffffffffffffffff81111561356c5761356b61256e565b5b613578868287016131bf565b935050602084013567ffffffffffffffff8111156135995761359861256e565b5b6135a586828701613336565b925050604084013567ffffffffffffffff8111156135c6576135c561256e565b5b6135d286828701613507565b9150509250925092565b600080600080608085870312156135f6576135f5612569565b5b600061360487828801612594565b945050602085013567ffffffffffffffff8111156136255761362461256e565b5b613631878288016128f3565b935050604061364287828801612655565b925050606061365387828801612655565b91505092959194509250565b7f4e487b7100000000000000000000000000000000000000000000000000000000600052603260045260246000fd5b7f4e487b7100000000000000000000000000000000000000000000000000000000600052601160045260246000fd5b60006136c882612573565b91506136d383612573565b92508282019050808211156136eb576136ea61368e565b5b92915050565b60006136fc82612573565b915061370783612573565b925082820261371581612573565b9150828204841483151761372c5761372b61368e565b5b5092915050565b7f4e487b7100000000000000000000000000000000000000000000000000000000600052601260045260246000fd5b600061376d82612573565b915061377883612573565b92508261378857613787613733565b5b828204905092915050565b600082825260208201905092915050565b7f526f756e64206973206e6f74206f766572207965740000000000000000000000600082015250565b60006137da601583613793565b91506137e5826137a4565b602082019050919050565b60006020820190508181036000830152613809816137cd565b9050919050565b7f57696e6e696e67206e756d6265727320616c7265616479207365740000000000600082015250565b6000613846601b83613793565b915061385182613810565b602082019050919050565b6000602082019050818103600083015261387581613839565b9050919050565b7f496e76616c69642073656e646572000000000000000000000000000000000000600082015250565b60006138b2600e83613793565b91506138bd8261387c565b602082019050919050565b600060208201905081810360008301526138e1816138a5565b9050919050565b7f526f756e64206973206f76657200000000000000000000000000000000000000600082015250565b600061391e600d83613793565b9150613929826138e8565b602082019050919050565b6000602082019050818103600083015261394d81613911565b9050919050565b7f496e76616c6964206e756d6265727320636f756e740000000000000000000000600082015250565b600061398a601583613793565b915061399582613954565b602082019050919050565b600060208201905081810360008301526139b98161397d565b9050919050565b60006139cb82612573565b91506139d683612573565b92508282039050818111156139ee576139ed61368e565b5b92915050565b7f496e76616c6964206e756d626572730000000000000000000000000000000000600082015250565b6000613a2a600f83613793565b9150613a35826139f4565b602082019050919050565b60006020820190508181036000830152613a5981613a1d565b9050919050565b7f496e76616c696420706f776572206e756d626572000000000000000000000000600082015250565b6000613a96601483613793565b9150613aa182613a60565b602082019050919050565b60006020820190508181036000830152613ac581613a89565b9050919050565b7f526566657272616c2063616e6e6f74206265207468652073616d65206173207460008201527f6865207061727469636970616e74000000000000000000000000000000000000602082015250565b6000613b28602e83613793565b9150613b3382613acc565b604082019050919050565b60006020820190508181036000830152613b5781613b1b565b9050919050565b6000613b6982612701565b915061ffff8203613b7d57613b7c61368e565b5b600182019050919050565b6000613b9382612573565b91507fffffffffffffffffffffffffffffffffffffffffffffffffffffffffffffffff8203613bc557613bc461368e565b5b60018201905091905056fea2646970667358221220314fe5a7346f6104fb325357b03c923696fd48e3385fedd7fd8d2db241faf24d64736f6c63430008180033a26469706673582212204ff6585ef967bc0951eead997a6386a9b2c5fc6fd8e3eeddcd4641d5aea2a5bf64736f6c63430008180033",
  "devdoc": {
    "errors": {
      "OwnableInvalidOwner(address)": [
        {
          "details": "The owner is not a valid owner account. (eg. `address(0)`)"
        }
      ],
      "OwnableUnauthorizedAccount(address)": [
        {
          "details": "The caller account is not authorized to perform an operation."
        }
      ]
    },
    "kind": "dev",
    "methods": {
      "owner()": {
        "details": "Returns the address of the current owner."
      },
      "renounceOwnership()": {
        "details": "Leaves the contract without owner. It will not be possible to call `onlyOwner` functions. Can only be called by the current owner. NOTE: Renouncing ownership will leave the contract without an owner, thereby disabling any functionality that is only available to the owner."
      },
      "transferOwnership(address)": {
        "details": "Transfers ownership of the contract to a new account (`newOwner`). Can only be called by the current owner."
      }
    },
    "version": 1
  },
  "userdoc": {
    "kind": "user",
    "methods": {},
    "version": 1
  },
  "storageLayout": {
    "storage": [
      {
        "astId": 8,
        "contract": "contracts/LotteryRoundCreator.sol:LotteryRoundCreator",
        "label": "_owner",
        "offset": 0,
        "slot": "0",
        "type": "t_address"
      }
    ],
    "types": {
      "t_address": {
        "encoding": "inplace",
        "label": "address",
        "numberOfBytes": "20"
      }
    }
  }
}