{
  "address": "0x53BBB5f78765c7bf8989C60c97469963104D7874",
  "abi": [
    {
      "inputs": [
        {
          "internalType": "address",
          "name": "cyclixRandomizer",
          "type": "address"
        },
        {
          "internalType": "address",
          "name": "lotteryReader",
          "type": "address"
        },
        {
          "internalType": "address",
          "name": "_lotteryRoundCreator",
          "type": "address"
        },
        {
          "internalType": "address",
          "name": "_paymentToken",
          "type": "address"
        },
        {
          "internalType": "uint256",
          "name": "_ticketPrice",
          "type": "uint256"
        },
        {
          "internalType": "bool",
          "name": "_freeRoundsAreEnabled",
          "type": "bool"
        }
      ],
      "stateMutability": "nonpayable",
      "type": "constructor"
    },
    {
      "inputs": [
        {
          "internalType": "address",
          "name": "target",
          "type": "address"
        }
      ],
      "name": "AddressEmptyCode",
      "type": "error"
    },
    {
      "inputs": [
        {
          "internalType": "address",
          "name": "account",
          "type": "address"
        }
      ],
      "name": "AddressInsufficientBalance",
      "type": "error"
    },
    {
      "inputs": [],
      "name": "FailedInnerCall",
      "type": "error"
    },
    {
      "inputs": [
        {
          "internalType": "address",
          "name": "owner",
          "type": "address"
        }
      ],
      "name": "OwnableInvalidOwner",
      "type": "error"
    },
    {
      "inputs": [
        {
          "internalType": "address",
          "name": "account",
          "type": "address"
        }
      ],
      "name": "OwnableUnauthorizedAccount",
      "type": "error"
    },
    {
      "inputs": [
        {
          "internalType": "address",
          "name": "token",
          "type": "address"
        }
      ],
      "name": "SafeERC20FailedOperation",
      "type": "error"
    },
    {
      "anonymous": false,
      "inputs": [
        {
          "indexed": true,
          "internalType": "address",
          "name": "previousOwner",
          "type": "address"
        },
        {
          "indexed": true,
          "internalType": "address",
          "name": "newOwner",
          "type": "address"
        }
      ],
      "name": "OwnershipTransferred",
      "type": "event"
    },
    {
      "inputs": [
        {
          "internalType": "address[]",
          "name": "participant",
          "type": "address[]"
        }
      ],
      "name": "addFreeRound",
      "outputs": [],
      "stateMutability": "nonpayable",
      "type": "function"
    },
    {
      "inputs": [
        {
          "internalType": "uint256",
          "name": "",
          "type": "uint256"
        }
      ],
      "name": "bankWallets",
      "outputs": [
        {
          "internalType": "address",
          "name": "",
          "type": "address"
        }
      ],
      "stateMutability": "view",
      "type": "function"
    },
    {
      "inputs": [
        {
          "internalType": "uint256",
          "name": "chainId",
          "type": "uint256"
        },
        {
          "internalType": "uint16[]",
          "name": "moreTicketNumbers",
          "type": "uint16[]"
        },
        {
          "internalType": "address",
          "name": "referral",
          "type": "address"
        },
        {
          "internalType": "address",
          "name": "buyer",
          "type": "address"
        }
      ],
      "name": "buyTickets",
      "outputs": [],
      "stateMutability": "nonpayable",
      "type": "function"
    },
    {
      "inputs": [],
      "name": "claimVictory",
      "outputs": [],
      "stateMutability": "nonpayable",
      "type": "function"
    },
    {
      "inputs": [
        {
          "internalType": "uint256",
          "name": "_statusEndTime",
          "type": "uint256"
        }
      ],
      "name": "closeRound",
      "outputs": [],
      "stateMutability": "nonpayable",
      "type": "function"
    },
    {
      "inputs": [],
      "name": "counterForBankWallets",
      "outputs": [
        {
          "internalType": "uint16",
          "name": "",
          "type": "uint16"
        }
      ],
      "stateMutability": "view",
      "type": "function"
    },
    {
      "inputs": [
        {
          "internalType": "address",
          "name": "",
          "type": "address"
        }
      ],
      "name": "crossChainOperator",
      "outputs": [
        {
          "internalType": "bool",
          "name": "",
          "type": "bool"
        }
      ],
      "stateMutability": "view",
      "type": "function"
    },
    {
      "inputs": [
        {
          "internalType": "uint256",
          "name": "roundId",
          "type": "uint256"
        },
        {
          "internalType": "uint256",
          "name": "_statusEndTime",
          "type": "uint256"
        }
      ],
      "name": "fetchRoundNumbers",
      "outputs": [],
      "stateMutability": "nonpayable",
      "type": "function"
    },
    {
      "inputs": [
        {
          "internalType": "address",
          "name": "",
          "type": "address"
        }
      ],
      "name": "freeRounds",
      "outputs": [
        {
          "internalType": "uint256",
          "name": "",
          "type": "uint256"
        }
      ],
      "stateMutability": "view",
      "type": "function"
    },
    {
      "inputs": [],
      "name": "freeRoundsAreEnabled",
      "outputs": [
        {
          "internalType": "bool",
          "name": "",
          "type": "bool"
        }
      ],
      "stateMutability": "view",
      "type": "function"
    },
    {
      "inputs": [],
      "name": "lotteryRoundCreator",
      "outputs": [
        {
          "internalType": "contract LotteryRoundCreatorInterface",
          "name": "",
          "type": "address"
        }
      ],
      "stateMutability": "view",
      "type": "function"
    },
    {
      "inputs": [],
      "name": "lotteryStatus",
      "outputs": [
        {
          "internalType": "enum LotteryStatuses",
          "name": "",
          "type": "uint8"
        }
      ],
      "stateMutability": "view",
      "type": "function"
    },
    {
      "inputs": [
        {
          "internalType": "uint256",
          "name": "roundId",
          "type": "uint256"
        },
        {
          "internalType": "uint256",
          "name": "_statusEndTime",
          "type": "uint256"
        }
      ],
      "name": "markWinners",
      "outputs": [],
      "stateMutability": "nonpayable",
      "type": "function"
    },
    {
      "inputs": [],
      "name": "owner",
      "outputs": [
        {
          "internalType": "address",
          "name": "",
          "type": "address"
        }
      ],
      "stateMutability": "view",
      "type": "function"
    },
    {
      "inputs": [],
      "name": "paymentToken",
      "outputs": [
        {
          "internalType": "contract IERC20Metadata",
          "name": "",
          "type": "address"
        }
      ],
      "stateMutability": "view",
      "type": "function"
    },
    {
      "inputs": [],
      "name": "percentageOfReferralWinners",
      "outputs": [
        {
          "internalType": "uint16",
          "name": "",
          "type": "uint16"
        }
      ],
      "stateMutability": "view",
      "type": "function"
    },
    {
      "inputs": [
        {
          "internalType": "uint256",
          "name": "",
          "type": "uint256"
        }
      ],
      "name": "publicRoundRandomNumbersRequestId",
      "outputs": [
        {
          "internalType": "uint256",
          "name": "",
          "type": "uint256"
        }
      ],
      "stateMutability": "view",
      "type": "function"
    },
    {
      "inputs": [],
      "name": "randomizer",
      "outputs": [
        {
          "internalType": "contract CyclixRandomizerInterface",
          "name": "",
          "type": "address"
        }
      ],
      "stateMutability": "view",
      "type": "function"
    },
    {
      "inputs": [],
      "name": "reader",
      "outputs": [
        {
          "internalType": "contract LotteryReaderInterface",
          "name": "",
          "type": "address"
        }
      ],
      "stateMutability": "view",
      "type": "function"
    },
    {
      "inputs": [],
      "name": "renounceOwnership",
      "outputs": [],
      "stateMutability": "nonpayable",
      "type": "function"
    },
    {
      "inputs": [],
      "name": "roundCount",
      "outputs": [
        {
          "internalType": "uint256",
          "name": "",
          "type": "uint256"
        }
      ],
      "stateMutability": "view",
      "type": "function"
    },
    {
      "inputs": [
        {
          "internalType": "uint256",
          "name": "",
          "type": "uint256"
        }
      ],
      "name": "rounds",
      "outputs": [
        {
          "internalType": "address",
          "name": "",
          "type": "address"
        }
      ],
      "stateMutability": "view",
      "type": "function"
    },
    {
      "inputs": [],
      "name": "sendCryptoToTeam",
      "outputs": [],
      "stateMutability": "nonpayable",
      "type": "function"
    },
    {
      "inputs": [
        {
          "internalType": "address",
          "name": "_token",
          "type": "address"
        }
      ],
      "name": "sendTokenToTeam",
      "outputs": [],
      "stateMutability": "nonpayable",
      "type": "function"
    },
    {
      "inputs": [
        {
          "internalType": "address",
          "name": "wallet",
          "type": "address"
        },
        {
          "internalType": "bool",
          "name": "add",
          "type": "bool"
        }
      ],
      "name": "setBankWallet",
      "outputs": [],
      "stateMutability": "nonpayable",
      "type": "function"
    },
    {
      "inputs": [
        {
          "internalType": "address",
          "name": "operator",
          "type": "address"
        },
        {
          "internalType": "bool",
          "name": "value",
          "type": "bool"
        }
      ],
      "name": "setCrossChainOperator",
      "outputs": [],
      "stateMutability": "nonpayable",
      "type": "function"
    },
    {
      "inputs": [
        {
          "internalType": "uint256",
          "name": "_statusEndTime",
          "type": "uint256"
        }
      ],
      "name": "startNewRound",
      "outputs": [],
      "stateMutability": "nonpayable",
      "type": "function"
    },
    {
      "inputs": [],
      "name": "statusEndTime",
      "outputs": [
        {
          "internalType": "uint256",
          "name": "",
          "type": "uint256"
        }
      ],
      "stateMutability": "view",
      "type": "function"
    },
    {
      "inputs": [],
      "name": "statusStartTime",
      "outputs": [
        {
          "internalType": "uint256",
          "name": "",
          "type": "uint256"
        }
      ],
      "stateMutability": "view",
      "type": "function"
    },
    {
      "inputs": [],
      "name": "ticketPrice",
      "outputs": [
        {
          "internalType": "uint256",
          "name": "",
          "type": "uint256"
        }
      ],
      "stateMutability": "view",
      "type": "function"
    },
    {
      "inputs": [
        {
          "internalType": "address",
          "name": "newOwner",
          "type": "address"
        }
      ],
      "name": "transferOwnership",
      "outputs": [],
      "stateMutability": "nonpayable",
      "type": "function"
    },
    {
      "inputs": [
        {
          "internalType": "address",
          "name": "cyclixRandomizer",
          "type": "address"
        },
        {
          "internalType": "address",
          "name": "lotteryReader",
          "type": "address"
        },
        {
          "internalType": "address",
          "name": "_lotteryRoundCreator",
          "type": "address"
        },
        {
          "internalType": "address",
          "name": "_paymentToken",
          "type": "address"
        },
        {
          "internalType": "uint256",
          "name": "_ticketPrice",
          "type": "uint256"
        },
        {
          "internalType": "uint16",
          "name": "_percentageOfReferralWinners",
          "type": "uint16"
        },
        {
          "internalType": "uint16[]",
          "name": "_poolPercentagesBasePoints",
          "type": "uint16[]"
        },
        {
          "internalType": "bool",
          "name": "_freeRoundsAreEnabled",
          "type": "bool"
        }
      ],
      "name": "updateSetup",
      "outputs": [],
      "stateMutability": "nonpayable",
      "type": "function"
    },
    {
      "inputs": [
        {
          "internalType": "address",
          "name": "_teamAddress",
          "type": "address"
        }
      ],
      "name": "updateTeamAddress",
      "outputs": [],
      "stateMutability": "nonpayable",
      "type": "function"
    }
  ],
  "transactionHash": "0xeb4bfee93cdaf91d63bf698fc0fd99e9634b2e87815a4f926447bdd9eed42b04",
  "args": [
    "0xC585C288D9D97E0f0BD795F2251bEe12d2208574",
    "0x5f32B0E80742a5a8DC3092161E92F85bf8ad1f15",
    "0x59667d688d937777a279dedE7ccC1A68ee329F79",
    "0xC2FD6405672f20f590AD97ACFedE5700f82b7392",
    10,
    true
  ],
  "numDeployments": 1,
  "solcInputHash": "896df738a32e3e9d8b2a5c2aa64316d1",
  "bytecode": "0x60806040526000600f60006101000a81548160ff021916908315150217905550600a600f60016101000a81548161ffff021916908361ffff1602179055503480156200004a57600080fd5b50604051620059e0380380620059e08339818101604052810190620000709190620005b7565b3380600073ffffffffffffffffffffffffffffffffffffffff168173ffffffffffffffffffffffffffffffffffffffff1603620000e75760006040517f1e4fbdf7000000000000000000000000000000000000000000000000000000008152600401620000de919062000664565b60405180910390fd5b620000f8816200041160201b60201c565b5080600160006101000a81548173ffffffffffffffffffffffffffffffffffffffff021916908373ffffffffffffffffffffffffffffffffffffffff1602179055505085600c60006101000a81548173ffffffffffffffffffffffffffffffffffffffff021916908373ffffffffffffffffffffffffffffffffffffffff160217905550600c60009054906101000a900473ffffffffffffffffffffffffffffffffffffffff1673ffffffffffffffffffffffffffffffffffffffff1663cd0f2311306040518263ffffffff1660e01b8152600401620001d99190620006e2565b600060405180830381600087803b158015620001f457600080fd5b505af115801562000209573d6000803e3d6000fd5b5050505084600d60006101000a81548173ffffffffffffffffffffffffffffffffffffffff021916908373ffffffffffffffffffffffffffffffffffffffff16021790555083600f60036101000a81548173ffffffffffffffffffffffffffffffffffffffff021916908373ffffffffffffffffffffffffffffffffffffffff16021790555082600b60006101000a81548173ffffffffffffffffffffffffffffffffffffffff021916908373ffffffffffffffffffffffffffffffffffffffff160217905550600b60009054906101000a900473ffffffffffffffffffffffffffffffffffffffff1673ffffffffffffffffffffffffffffffffffffffff1663313ce5676040518163ffffffff1660e01b8152600401602060405180830381865afa1580156200033e573d6000803e3d6000fd5b505050506040513d601f19601f8201168201806040525081019062000364919062000752565b60ff16600a62000375919062000907565b8262000382919062000958565b600e8190555080600f60006101000a81548160ff021916908315150217905550600a339080600181540180825580915050600190039060005260206000200160009091909190916101000a81548173ffffffffffffffffffffffffffffffffffffffff021916908373ffffffffffffffffffffffffffffffffffffffff160217905550505050505050620009a3565b60008060009054906101000a900473ffffffffffffffffffffffffffffffffffffffff169050816000806101000a81548173ffffffffffffffffffffffffffffffffffffffff021916908373ffffffffffffffffffffffffffffffffffffffff1602179055508173ffffffffffffffffffffffffffffffffffffffff168173ffffffffffffffffffffffffffffffffffffffff167f8be0079c531659141344cd1fd0a4f28419497f9722a3daafe3b4186f6b6457e060405160405180910390a35050565b600080fd5b600073ffffffffffffffffffffffffffffffffffffffff82169050919050565b60006200050782620004da565b9050919050565b6200051981620004fa565b81146200052557600080fd5b50565b60008151905062000539816200050e565b92915050565b6000819050919050565b62000554816200053f565b81146200056057600080fd5b50565b600081519050620005748162000549565b92915050565b60008115159050919050565b62000591816200057a565b81146200059d57600080fd5b50565b600081519050620005b18162000586565b92915050565b60008060008060008060c08789031215620005d757620005d6620004d5565b5b6000620005e789828a0162000528565b9650506020620005fa89828a0162000528565b95505060406200060d89828a0162000528565b94505060606200062089828a0162000528565b93505060806200063389828a0162000563565b92505060a06200064689828a01620005a0565b9150509295509295509295565b6200065e81620004fa565b82525050565b60006020820190506200067b600083018462000653565b92915050565b600082825260208201905092915050565b7f4c6f74746572794d617374657256302e31000000000000000000000000000000600082015250565b6000620006ca60118362000681565b9150620006d78262000692565b602082019050919050565b6000604082019050620006f9600083018462000653565b81810360208301526200070c81620006bb565b905092915050565b600060ff82169050919050565b6200072c8162000714565b81146200073857600080fd5b50565b6000815190506200074c8162000721565b92915050565b6000602082840312156200076b576200076a620004d5565b5b60006200077b848285016200073b565b91505092915050565b7f4e487b7100000000000000000000000000000000000000000000000000000000600052601160045260246000fd5b60008160011c9050919050565b6000808291508390505b60018511156200081257808604811115620007ea57620007e962000784565b5b6001851615620007fa5780820291505b80810290506200080a85620007b3565b9450620007ca565b94509492505050565b6000826200082d576001905062000900565b816200083d576000905062000900565b8160018114620008565760028114620008615762000897565b600191505062000900565b60ff84111562000876576200087562000784565b5b8360020a91508482111562000890576200088f62000784565b5b5062000900565b5060208310610133831016604e8410600b8410161715620008d15782820a905083811115620008cb57620008ca62000784565b5b62000900565b620008e08484846001620007c0565b92509050818404811115620008fa57620008f962000784565b5b81810290505b9392505050565b600062000914826200053f565b915062000921836200053f565b9250620009507fffffffffffffffffffffffffffffffffffffffffffffffffffffffffffffffff84846200081b565b905092915050565b600062000965826200053f565b915062000972836200053f565b925082820262000982816200053f565b915082820484148315176200099c576200099b62000784565b5b5092915050565b61502d80620009b36000396000f3fe608060405234801561001057600080fd5b50600436106101fb5760003560e01c806387da46f11161011a578063b62fe01b116100ad578063d4fc42c61161007c578063d4fc42c614610550578063e03d753a1461056e578063f10fb5841461058c578063f2fde38b146105aa578063f4dec22b146105c6576101fb565b8063b62fe01b146104de578063bbd1783a146104fa578063c96acb5a14610504578063cedd1bc314610520576101fb565b806392566fdd116100e957806392566fdd1461046c578063998da3e91461048a578063a8eed12d146104a6578063b33d8c54146104c2576101fb565b806387da46f1146103e457806388e01a98146104025780638c65c81f1461041e5780638da5cb5b1461044e576101fb565b8063258799f81161019257806362cd30d11161016157806362cd30d114610372578063715018a61461038e57806375e5460d146103985780637a5ed721146103c8576101fb565b8063258799f8146102ea5780633013ce291461031a5780633fda7d95146103385780634615102c14610356576101fb565b80631abddf33116101ce5780631abddf33146102765780631ed15aa4146102805780631fcebf681461029c57806322429429146102cc576101fb565b80630d683dd9146102005780631209b1f61461021e578063127f0b3f1461023c57806314eb76ac1461025a575b600080fd5b6102086105e4565b6040516102159190613128565b60405180910390f35b6102266105f7565b604051610233919061315c565b60405180910390f35b6102446105fd565b604051610251919061315c565b60405180910390f35b610274600480360381019061026f91906131e9565b610603565b005b61027e61064f565b005b61029a6004803603810190610295919061324e565b610c3e565b005b6102b660048036038101906102b191906131e9565b610e84565b6040516102c3919061315c565b60405180910390f35b6102d4610e9c565b6040516102e1919061315c565b60405180910390f35b61030460048036038101906102ff91906132ba565b610ea2565b60405161031191906132f6565b60405180910390f35b610322610ee1565b60405161032f9190613370565b60405180910390f35b610340610f07565b60405161034d919061315c565b60405180910390f35b610370600480360381019061036b91906132ba565b610f0d565b005b61038c6004803603810190610387919061351e565b61121e565b005b6103966115b6565b005b6103b260048036038101906103ad91906131e9565b6115ca565b6040516103bf91906135ff565b60405180910390f35b6103e260048036038101906103dd919061361a565b6115ea565b005b6103ec611852565b6040516103f991906136be565b60405180910390f35b61041c600480360381019061041791906132ba565b611878565b005b610438600480360381019061043391906132ba565b611aa6565b60405161044591906132f6565b60405180910390f35b610456611ae5565b60405161046391906132f6565b60405180910390f35b610474611b0e565b60405161048191906136e8565b60405180910390f35b6104a4600480360381019061049f91906131e9565b611b22565b005b6104c060048036038101906104bb919061324e565b611be3565b005b6104dc60048036038101906104d7919061375e565b611c46565b005b6104f860048036038101906104f391906137ab565b611cea565b005b6105026122ad565b005b61051e600480360381019061051991906137ab565b61232a565b005b61053a600480360381019061053591906132ba565b612538565b604051610547919061315c565b60405180910390f35b610558612550565b604051610565919061380c565b60405180910390f35b610576612576565b60405161058391906135ff565b60405180910390f35b610594612589565b6040516105a19190613848565b60405180910390f35b6105c460048036038101906105bf91906131e9565b6125af565b005b6105ce612635565b6040516105db91906136e8565b60405180910390f35b600460009054906101000a900460ff1681565b600e5481565b60025481565b61060b612649565b80600160006101000a81548173ffffffffffffffffffffffffffffffffffffffff021916908373ffffffffffffffffffffffffffffffffffffffff16021790555050565b600380811115610662576106616130b1565b5b600460009054906101000a900460ff166003811115610684576106836130b1565b5b146106c4576040517f08c379a00000000000000000000000000000000000000000000000000000000081526004016106bb906138c0565b60405180910390fd5b4260065411610708576040517f08c379a00000000000000000000000000000000000000000000000000000000081526004016106ff9061392c565b60405180910390fd5b6000600d60009054906101000a900473ffffffffffffffffffffffffffffffffffffffff1673ffffffffffffffffffffffffffffffffffffffff1663b7991e336002543360006040518463ffffffff1660e01b815260040161076c9392919061394c565b602060405180830381865afa158015610789573d6000803e3d6000fd5b505050506040513d601f19601f820116820180604052508101906107ad9190613998565b90506000600d60009054906101000a900473ffffffffffffffffffffffffffffffffffffffff1673ffffffffffffffffffffffffffffffffffffffff1663a521dc956002543360006040518463ffffffff1660e01b81526004016108139392919061394c565b602060405180830381865afa158015610830573d6000803e3d6000fd5b505050506040513d601f19601f820116820180604052508101906108549190613998565b905060008211806108655750600081115b6108a4576040517f08c379a000000000000000000000000000000000000000000000000000000000815260040161089b90613a11565b60405180910390fd5b80826108b09190613a60565b600b60009054906101000a900473ffffffffffffffffffffffffffffffffffffffff1673ffffffffffffffffffffffffffffffffffffffff166370a08231306040518263ffffffff1660e01b815260040161090b91906132f6565b602060405180830381865afa158015610928573d6000803e3d6000fd5b505050506040513d601f19601f8201168201806040525081019061094c9190613998565b101561098d576040517f08c379a000000000000000000000000000000000000000000000000000000000815260040161098490613ae0565b60405180910390fd5b6003600160025461099e9190613b00565b815481106109af576109ae613b34565b5b9060005260206000200160009054906101000a900473ffffffffffffffffffffffffffffffffffffffff1673ffffffffffffffffffffffffffffffffffffffff1663d1349d0c600d60009054906101000a900473ffffffffffffffffffffffffffffffffffffffff1673ffffffffffffffffffffffffffffffffffffffff1663eed25896600254336040518363ffffffff1660e01b8152600401610a54929190613b63565b600060405180830381865afa158015610a71573d6000803e3d6000fd5b505050506040513d6000823e3d601f19601f82011682018060405250810190610a9a9190613d48565b600d60009054906101000a900473ffffffffffffffffffffffffffffffffffffffff1673ffffffffffffffffffffffffffffffffffffffff166317ba3b7d600254336040518363ffffffff1660e01b8152600401610af9929190613b63565b600060405180830381865afa158015610b16573d6000803e3d6000fd5b505050506040513d6000823e3d601f19601f82011682018060405250810190610b3f9190613ef4565b6040518363ffffffff1660e01b8152600401610b5c929190614206565b600060405180830381600087803b158015610b7657600080fd5b505af1158015610b8a573d6000803e3d6000fd5b50505050600b60009054906101000a900473ffffffffffffffffffffffffffffffffffffffff1673ffffffffffffffffffffffffffffffffffffffff1663a9059cbb338385610bd99190613a60565b6040518363ffffffff1660e01b8152600401610bf692919061423d565b6020604051808303816000875af1158015610c15573d6000803e3d6000fd5b505050506040513d601f19601f82011682018060405250810190610c399190614266565b505050565b610c46612649565b60005b600a80549050811015610e15578273ffffffffffffffffffffffffffffffffffffffff16600a8281548110610c8157610c80613b34565b5b9060005260206000200160009054906101000a900473ffffffffffffffffffffffffffffffffffffffff1673ffffffffffffffffffffffffffffffffffffffff1603610e08578115610d13576000610d0e576040517f08c379a0000000000000000000000000000000000000000000000000000000008152600401610d05906142df565b60405180910390fd5b610e07565b600a6001600a80549050610d279190613b00565b81548110610d3857610d37613b34565b5b9060005260206000200160009054906101000a900473ffffffffffffffffffffffffffffffffffffffff16600a8281548110610d7757610d76613b34565b5b9060005260206000200160006101000a81548173ffffffffffffffffffffffffffffffffffffffff021916908373ffffffffffffffffffffffffffffffffffffffff160217905550600a805480610dd157610dd06142ff565b5b6001900381819060005260206000200160006101000a81549073ffffffffffffffffffffffffffffffffffffffff021916905590555b5b8080600101915050610c49565b508015610e8057600a829080600181540180825580915050600190039060005260206000200160009091909190916101000a81548173ffffffffffffffffffffffffffffffffffffffff021916908373ffffffffffffffffffffffffffffffffffffffff1602179055505b5050565b60076020528060005260406000206000915090505481565b60065481565b600a8181548110610eb257600080fd5b906000526020600020016000915054906101000a900473ffffffffffffffffffffffffffffffffffffffff1681565b600b60009054906101000a900473ffffffffffffffffffffffffffffffffffffffff1681565b60055481565b610f15612649565b60026000815480929190610f289061432e565b91905055506001600254111561110c576003600f60039054906101000a900473ffffffffffffffffffffffffffffffffffffffff1673ffffffffffffffffffffffffffffffffffffffff166363ea940f83600360028054610f899190613b00565b81548110610f9a57610f99613b34565b5b9060005260206000200160009054906101000a900473ffffffffffffffffffffffffffffffffffffffff166040518363ffffffff1660e01b8152600401610fe2929190613b63565b6020604051808303816000875af1158015611001573d6000803e3d6000fd5b505050506040513d601f19601f820116820180604052508101906110259190614376565b9080600181540180825580915050600190039060005260206000200160009091909190916101000a81548173ffffffffffffffffffffffffffffffffffffffff021916908373ffffffffffffffffffffffffffffffffffffffff160217905550600380811115611098576110976130b1565b5b600460009054906101000a900460ff1660038111156110ba576110b96130b1565b5b1480156110c8575042600654105b611107576040517f08c379a00000000000000000000000000000000000000000000000000000000081526004016110fe906143ef565b60405180910390fd5b611210565b6003600f60039054906101000a900473ffffffffffffffffffffffffffffffffffffffff1673ffffffffffffffffffffffffffffffffffffffff166363ea940f8360006040518363ffffffff1660e01b815260040161116c929190613b63565b6020604051808303816000875af115801561118b573d6000803e3d6000fd5b505050506040513d601f19601f820116820180604052508101906111af9190614376565b9080600181540180825580915050600190039060005260206000200160009091909190916101000a81548173ffffffffffffffffffffffffffffffffffffffff021916908373ffffffffffffffffffffffffffffffffffffffff1602179055505b61121b6000826126d0565b50565b611226612649565b8773ffffffffffffffffffffffffffffffffffffffff16600c60009054906101000a900473ffffffffffffffffffffffffffffffffffffffff1673ffffffffffffffffffffffffffffffffffffffff161461134a5787600c60006101000a81548173ffffffffffffffffffffffffffffffffffffffff021916908373ffffffffffffffffffffffffffffffffffffffff160217905550600c60009054906101000a900473ffffffffffffffffffffffffffffffffffffffff1673ffffffffffffffffffffffffffffffffffffffff1663cd0f2311306040518263ffffffff1660e01b8152600401611317919061445b565b600060405180830381600087803b15801561133157600080fd5b505af1158015611345573d6000803e3d6000fd5b505050505b86600d60006101000a81548173ffffffffffffffffffffffffffffffffffffffff021916908373ffffffffffffffffffffffffffffffffffffffff16021790555085600f60036101000a81548173ffffffffffffffffffffffffffffffffffffffff021916908373ffffffffffffffffffffffffffffffffffffffff16021790555084600b60006101000a81548173ffffffffffffffffffffffffffffffffffffffff021916908373ffffffffffffffffffffffffffffffffffffffff160217905550600b60009054906101000a900473ffffffffffffffffffffffffffffffffffffffff1673ffffffffffffffffffffffffffffffffffffffff1663313ce5676040518163ffffffff1660e01b8152600401602060405180830381865afa15801561147a573d6000803e3d6000fd5b505050506040513d601f19601f8201168201806040525081019061149e91906144c2565b60ff16600a6114ad9190614622565b846114b8919061466d565b600e8190555082600f60016101000a81548161ffff021916908361ffff160217905550600360016002546114ec9190613b00565b815481106114fd576114fc613b34565b5b9060005260206000200160009054906101000a900473ffffffffffffffffffffffffffffffffffffffff1673ffffffffffffffffffffffffffffffffffffffff16639469f293836040518263ffffffff1660e01b8152600401611560919061476d565b600060405180830381600087803b15801561157a57600080fd5b505af115801561158e573d6000803e3d6000fd5b5050505080600f60006101000a81548160ff0219169083151502179055505050505050505050565b6115be612649565b6115c8600061271f565b565b60086020528060005260406000206000915054906101000a900460ff1681565b60005b83518110156116ce576000600667ffffffffffffffff811115611613576116126133db565b5b6040519080825280602002602001820160405280156116415781602001602082028036833780820191505090505b50905060005b60068110156116ac5785818461165d9190613a60565b8151811061166e5761166d613b34565b5b602002602001015182828151811061168957611688613b34565b5b602002602001019061ffff16908161ffff16815250508080600101915050611647565b506116b9868286866127e3565b506006816116c79190613a60565b90506115ed565b50600073ffffffffffffffffffffffffffffffffffffffff168273ffffffffffffffffffffffffffffffffffffffff16141580156117185750600f60009054906101000a900460ff165b1561184c57600683518161172f5761172e61478f565b5b04600760008373ffffffffffffffffffffffffffffffffffffffff1673ffffffffffffffffffffffffffffffffffffffff1681526020019081526020016000205401600760008373ffffffffffffffffffffffffffffffffffffffff1673ffffffffffffffffffffffffffffffffffffffff1681526020019081526020016000208190555060068351816117c6576117c561478f565b5b04600760008473ffffffffffffffffffffffffffffffffffffffff1673ffffffffffffffffffffffffffffffffffffffff1681526020019081526020016000205401600760008473ffffffffffffffffffffffffffffffffffffffff1673ffffffffffffffffffffffffffffffffffffffff168152602001908152602001600020819055505b50505050565b600f60039054906101000a900473ffffffffffffffffffffffffffffffffffffffff1681565b611880612649565b6000600360016002546118939190613b00565b815481106118a4576118a3613b34565b5b9060005260206000200160009054906101000a900473ffffffffffffffffffffffffffffffffffffffff1690508073ffffffffffffffffffffffffffffffffffffffff1663e278fe6f6040518163ffffffff1660e01b8152600401600060405180830381600087803b15801561191957600080fd5b505af115801561192d573d6000803e3d6000fd5b505050506000600d60009054906101000a900473ffffffffffffffffffffffffffffffffffffffff1673ffffffffffffffffffffffffffffffffffffffff1663f1664df66002546040518263ffffffff1660e01b8152600401611990919061315c565b602060405180830381865afa1580156119ad573d6000803e3d6000fd5b505050506040513d601f19601f820116820180604052508101906119d191906147d3565b9050600c60009054906101000a900473ffffffffffffffffffffffffffffffffffffffff1673ffffffffffffffffffffffffffffffffffffffff1663e726f2e1826006611a1e9190614800565b6040518263ffffffff1660e01b8152600401611a3a9190614877565b6020604051808303816000875af1158015611a59573d6000803e3d6000fd5b505050506040513d601f19601f82011682018060405250810190611a7d9190613998565b60106000600254815260200190815260200160002081905550611aa16001846126d0565b505050565b60038181548110611ab657600080fd5b906000526020600020016000915054906101000a900473ffffffffffffffffffffffffffffffffffffffff1681565b60008060009054906101000a900473ffffffffffffffffffffffffffffffffffffffff16905090565b600960009054906101000a900461ffff1681565b611b2a612649565b60008173ffffffffffffffffffffffffffffffffffffffff166370a08231306040518263ffffffff1660e01b8152600401611b6591906132f6565b602060405180830381865afa158015611b82573d6000803e3d6000fd5b505050506040513d601f19601f82011682018060405250810190611ba69190613998565b90506000811115611bdf57611bde82600160009054906101000a900473ffffffffffffffffffffffffffffffffffffffff1683612d5a565b5b5050565b611beb612649565b80600860008473ffffffffffffffffffffffffffffffffffffffff1673ffffffffffffffffffffffffffffffffffffffff16815260200190815260200160002060006101000a81548160ff0219169083151502179055505050565b611c4e612649565b60005b82829050811015611ce55760076000848484818110611c7357611c72613b34565b5b9050602002016020810190611c8891906131e9565b73ffffffffffffffffffffffffffffffffffffffff1673ffffffffffffffffffffffffffffffffffffffff1681526020019081526020016000206000815480929190611cd39061432e565b91905055508080600101915050611c51565b505050565b611cf2612649565b60006003600184611d039190613b00565b81548110611d1457611d13613b34565b5b9060005260206000200160009054906101000a900473ffffffffffffffffffffffffffffffffffffffff1690508073ffffffffffffffffffffffffffffffffffffffff1663343f25666040518163ffffffff1660e01b815260040160006040518083038186803b158015611d8757600080fd5b505afa158015611d9b573d6000803e3d6000fd5b50505050600080600c60009054906101000a900473ffffffffffffffffffffffffffffffffffffffff1673ffffffffffffffffffffffffffffffffffffffff1663d8a4676f60106000888152602001908152602001600020546040518263ffffffff1660e01b8152600401611e10919061315c565b600060405180830381865afa158015611e2d573d6000803e3d6000fd5b505050506040513d6000823e3d601f19601f82011682018060405250810190611e569190614955565b9150915081611e9a576040517f08c379a0000000000000000000000000000000000000000000000000000000008152600401611e91906149fd565b60405180910390fd5b6000600667ffffffffffffffff811115611eb757611eb66133db565b5b604051908082528060200260200182016040528015611ee55781602001602082028036833780820191505090505b509050600060068351611ef89190613b00565b67ffffffffffffffff811115611f1157611f106133db565b5b604051908082528060200260200182016040528015611f3f5781602001602082028036833780820191505090505b509050831561222c5760005b600681101561204557600d60009054906101000a900473ffffffffffffffffffffffffffffffffffffffff1673ffffffffffffffffffffffffffffffffffffffff16630c746a8a858381518110611fa557611fa4613b34565b5b60200260200101516045866040518463ffffffff1660e01b8152600401611fce93929190614a58565b602060405180830381865afa158015611feb573d6000803e3d6000fd5b505050506040513d601f19601f8201168201806040525081019061200f91906147d3565b83828151811061202257612021613b34565b5b602002602001019061ffff16908161ffff16815250508080600101915050611f4b565b506001601a8460058151811061205e5761205d613b34565b5b60200260200101516120709190614a96565b61207a9190613a60565b8260058151811061208e5761208d613b34565b5b602002602001019061ffff16908161ffff16815250506000600690505b835181101561222a57600d60009054906101000a900473ffffffffffffffffffffffffffffffffffffffff1673ffffffffffffffffffffffffffffffffffffffff16630c746a8a85838151811061210557612104613b34565b5b60200260200101518873ffffffffffffffffffffffffffffffffffffffff16639f8743f76040518163ffffffff1660e01b81526004016000604051808303816000875af115801561215a573d6000803e3d6000fd5b505050506040513d6000823e3d601f19601f820116820180604052508101906121839190614cda565b6101400151856040518463ffffffff1660e01b81526004016121a793929190614d23565b602060405180830381865afa1580156121c4573d6000803e3d6000fd5b505050506040513d601f19601f820116820180604052508101906121e891906147d3565b826006836121f69190613b00565b8151811061220757612206613b34565b5b602002602001019061ffff16908161ffff168152505080806001019150506120ab565b505b8473ffffffffffffffffffffffffffffffffffffffff16632724d10483836040518363ffffffff1660e01b8152600401612267929190614d61565b600060405180830381600087803b15801561228157600080fd5b505af1158015612295573d6000803e3d6000fd5b505050506122a46002876126d0565b50505050505050565b6122b5612649565b600047111561232857600160009054906101000a900473ffffffffffffffffffffffffffffffffffffffff1673ffffffffffffffffffffffffffffffffffffffff166108fc479081150290604051600060405180830381858888f19350505050158015612326573d6000803e3d6000fd5b505b565b612332612649565b60036001836123419190613b00565b8154811061235257612351613b34565b5b9060005260206000200160009054906101000a900473ffffffffffffffffffffffffffffffffffffffff1673ffffffffffffffffffffffffffffffffffffffff1663d84652c8600d60009054906101000a900473ffffffffffffffffffffffffffffffffffffffff1673ffffffffffffffffffffffffffffffffffffffff16639f75e5c9856040518263ffffffff1660e01b81526004016123f3919061315c565b600060405180830381865afa158015612410573d6000803e3d6000fd5b505050506040513d6000823e3d601f19601f820116820180604052508101906124399190613d48565b600d60009054906101000a900473ffffffffffffffffffffffffffffffffffffffff1673ffffffffffffffffffffffffffffffffffffffff166348b2e35c866040518263ffffffff1660e01b8152600401612494919061315c565b600060405180830381865afa1580156124b1573d6000803e3d6000fd5b505050506040513d6000823e3d601f19601f820116820180604052508101906124da9190613ef4565b6040518363ffffffff1660e01b81526004016124f7929190614206565b600060405180830381600087803b15801561251157600080fd5b505af1158015612525573d6000803e3d6000fd5b505050506125346003826126d0565b5050565b60106020528060005260406000206000915090505481565b600d60009054906101000a900473ffffffffffffffffffffffffffffffffffffffff1681565b600f60009054906101000a900460ff1681565b600c60009054906101000a900473ffffffffffffffffffffffffffffffffffffffff1681565b6125b7612649565b600073ffffffffffffffffffffffffffffffffffffffff168173ffffffffffffffffffffffffffffffffffffffff16036126295760006040517f1e4fbdf700000000000000000000000000000000000000000000000000000000815260040161262091906132f6565b60405180910390fd5b6126328161271f565b50565b600f60019054906101000a900461ffff1681565b612651612dd9565b73ffffffffffffffffffffffffffffffffffffffff1661266f611ae5565b73ffffffffffffffffffffffffffffffffffffffff16146126ce57612692612dd9565b6040517f118cdaa70000000000000000000000000000000000000000000000000000000081526004016126c591906132f6565b60405180910390fd5b565b6126d8612649565b81600460006101000a81548160ff021916908360038111156126fd576126fc6130b1565b5b02179055504260058190555080426127159190613a60565b6006819055505050565b60008060009054906101000a900473ffffffffffffffffffffffffffffffffffffffff169050816000806101000a81548173ffffffffffffffffffffffffffffffffffffffff021916908373ffffffffffffffffffffffffffffffffffffffff1602179055508173ffffffffffffffffffffffffffffffffffffffff168173ffffffffffffffffffffffffffffffffffffffff167f8be0079c531659141344cd1fd0a4f28419497f9722a3daafe3b4186f6b6457e060405160405180910390a35050565b6000600760008373ffffffffffffffffffffffffffffffffffffffff1673ffffffffffffffffffffffffffffffffffffffff1681526020019081526020016000205411806128d05750600e54600b60009054906101000a900473ffffffffffffffffffffffffffffffffffffffff1673ffffffffffffffffffffffffffffffffffffffff1663dd62ed3e83306040518363ffffffff1660e01b815260040161288c929190614d98565b602060405180830381865afa1580156128a9573d6000803e3d6000fd5b505050506040513d601f19601f820116820180604052508101906128cd9190613998565b10155b806129245750600860003373ffffffffffffffffffffffffffffffffffffffff1673ffffffffffffffffffffffffffffffffffffffff16815260200190815260200160002060009054906101000a900460ff165b612963576040517f08c379a000000000000000000000000000000000000000000000000000000000815260040161295a90614e0d565b60405180910390fd5b6000600360016002546129769190613b00565b8154811061298757612986613b34565b5b9060005260206000200160009054906101000a900473ffffffffffffffffffffffffffffffffffffffff1690506000600760008473ffffffffffffffffffffffffffffffffffffffff1673ffffffffffffffffffffffffffffffffffffffff168152602001908152602001600020541115612a5657600760008373ffffffffffffffffffffffffffffffffffffffff1673ffffffffffffffffffffffffffffffffffffffff1681526020019081526020016000206000815480929190612a4c90614e2d565b9190505550612ce2565b600860003373ffffffffffffffffffffffffffffffffffffffff1673ffffffffffffffffffffffffffffffffffffffff16815260200190815260200160002060009054906101000a900460ff16612c7457600e54600b60009054906101000a900473ffffffffffffffffffffffffffffffffffffffff1673ffffffffffffffffffffffffffffffffffffffff166370a08231326040518263ffffffff1660e01b8152600401612b0591906132f6565b602060405180830381865afa158015612b22573d6000803e3d6000fd5b505050506040513d601f19601f82011682018060405250810190612b469190613998565b1015612b87576040517f08c379a0000000000000000000000000000000000000000000000000000000008152600401612b7e90614ea2565b60405180910390fd5b600a805490506009600081819054906101000a900461ffff1680929190612bad90614ec2565b91906101000a81548161ffff021916908361ffff16021790555061ffff16612bd59190614a96565b600960006101000a81548161ffff021916908361ffff160217905550612c73600b60009054906101000a900473ffffffffffffffffffffffffffffffffffffffff1683600a600960009054906101000a900461ffff1661ffff1681548110612c4057612c3f613b34565b5b9060005260206000200160009054906101000a900473ffffffffffffffffffffffffffffffffffffffff16600e54612de1565b5b8073ffffffffffffffffffffffffffffffffffffffff1663b56c12b4600e546040518263ffffffff1660e01b8152600401612caf919061315c565b600060405180830381600087803b158015612cc957600080fd5b505af1158015612cdd573d6000803e3d6000fd5b505050505b8073ffffffffffffffffffffffffffffffffffffffff1663eb7165fa868686866040518563ffffffff1660e01b8152600401612d219493929190614eec565b600060405180830381600087803b158015612d3b57600080fd5b505af1158015612d4f573d6000803e3d6000fd5b505050505050505050565b612dd4838473ffffffffffffffffffffffffffffffffffffffff1663a9059cbb8585604051602401612d8d92919061423d565b604051602081830303815290604052915060e01b6020820180517bffffffffffffffffffffffffffffffffffffffffffffffffffffffff8381831617835250505050612e63565b505050565b600033905090565b612e5d848573ffffffffffffffffffffffffffffffffffffffff166323b872dd868686604051602401612e1693929190614f38565b604051602081830303815290604052915060e01b6020820180517bffffffffffffffffffffffffffffffffffffffffffffffffffffffff8381831617835250505050612e63565b50505050565b6000612e8e828473ffffffffffffffffffffffffffffffffffffffff16612efa90919063ffffffff16565b90506000815114158015612eb3575080806020019051810190612eb19190614266565b155b15612ef557826040517f5274afe7000000000000000000000000000000000000000000000000000000008152600401612eec91906132f6565b60405180910390fd5b505050565b6060612f0883836000612f10565b905092915050565b606081471015612f5757306040517fcd786059000000000000000000000000000000000000000000000000000000008152600401612f4e91906132f6565b60405180910390fd5b6000808573ffffffffffffffffffffffffffffffffffffffff168486604051612f809190614fe0565b60006040518083038185875af1925050503d8060008114612fbd576040519150601f19603f3d011682016040523d82523d6000602084013e612fc2565b606091505b5091509150612fd2868383612fdd565b925050509392505050565b606082612ff257612fed8261306c565b613064565b6000825114801561301a575060008473ffffffffffffffffffffffffffffffffffffffff163b145b1561305c57836040517f9996b31500000000000000000000000000000000000000000000000000000000815260040161305391906132f6565b60405180910390fd5b819050613065565b5b9392505050565b60008151111561307f5780518082602001fd5b6040517f1425ea4200000000000000000000000000000000000000000000000000000000815260040160405180910390fd5b7f4e487b7100000000000000000000000000000000000000000000000000000000600052602160045260246000fd5b600481106130f1576130f06130b1565b5b50565b6000819050613102826130e0565b919050565b6000613112826130f4565b9050919050565b61312281613107565b82525050565b600060208201905061313d6000830184613119565b92915050565b6000819050919050565b61315681613143565b82525050565b6000602082019050613171600083018461314d565b92915050565b6000604051905090565b600080fd5b600080fd5b600073ffffffffffffffffffffffffffffffffffffffff82169050919050565b60006131b68261318b565b9050919050565b6131c6816131ab565b81146131d157600080fd5b50565b6000813590506131e3816131bd565b92915050565b6000602082840312156131ff576131fe613181565b5b600061320d848285016131d4565b91505092915050565b60008115159050919050565b61322b81613216565b811461323657600080fd5b50565b60008135905061324881613222565b92915050565b6000806040838503121561326557613264613181565b5b6000613273858286016131d4565b925050602061328485828601613239565b9150509250929050565b61329781613143565b81146132a257600080fd5b50565b6000813590506132b48161328e565b92915050565b6000602082840312156132d0576132cf613181565b5b60006132de848285016132a5565b91505092915050565b6132f0816131ab565b82525050565b600060208201905061330b60008301846132e7565b92915050565b6000819050919050565b600061333661333161332c8461318b565b613311565b61318b565b9050919050565b60006133488261331b565b9050919050565b600061335a8261333d565b9050919050565b61336a8161334f565b82525050565b60006020820190506133856000830184613361565b92915050565b600061ffff82169050919050565b6133a28161338b565b81146133ad57600080fd5b50565b6000813590506133bf81613399565b92915050565b600080fd5b6000601f19601f8301169050919050565b7f4e487b7100000000000000000000000000000000000000000000000000000000600052604160045260246000fd5b613413826133ca565b810181811067ffffffffffffffff82111715613432576134316133db565b5b80604052505050565b6000613445613177565b9050613451828261340a565b919050565b600067ffffffffffffffff821115613471576134706133db565b5b602082029050602081019050919050565b600080fd5b600061349a61349584613456565b61343b565b905080838252602082019050602084028301858111156134bd576134bc613482565b5b835b818110156134e657806134d288826133b0565b8452602084019350506020810190506134bf565b5050509392505050565b600082601f830112613505576135046133c5565b5b8135613515848260208601613487565b91505092915050565b600080600080600080600080610100898b03121561353f5761353e613181565b5b600061354d8b828c016131d4565b985050602061355e8b828c016131d4565b975050604061356f8b828c016131d4565b96505060606135808b828c016131d4565b95505060806135918b828c016132a5565b94505060a06135a28b828c016133b0565b93505060c089013567ffffffffffffffff8111156135c3576135c2613186565b5b6135cf8b828c016134f0565b92505060e06135e08b828c01613239565b9150509295985092959890939650565b6135f981613216565b82525050565b600060208201905061361460008301846135f0565b92915050565b6000806000806080858703121561363457613633613181565b5b6000613642878288016132a5565b945050602085013567ffffffffffffffff81111561366357613662613186565b5b61366f878288016134f0565b9350506040613680878288016131d4565b9250506060613691878288016131d4565b91505092959194509250565b60006136a88261333d565b9050919050565b6136b88161369d565b82525050565b60006020820190506136d360008301846136af565b92915050565b6136e28161338b565b82525050565b60006020820190506136fd60008301846136d9565b92915050565b600080fd5b60008083601f84011261371e5761371d6133c5565b5b8235905067ffffffffffffffff81111561373b5761373a613703565b5b60208301915083602082028301111561375757613756613482565b5b9250929050565b6000806020838503121561377557613774613181565b5b600083013567ffffffffffffffff81111561379357613792613186565b5b61379f85828601613708565b92509250509250929050565b600080604083850312156137c2576137c1613181565b5b60006137d0858286016132a5565b92505060206137e1858286016132a5565b9150509250929050565b60006137f68261333d565b9050919050565b613806816137eb565b82525050565b600060208201905061382160008301846137fd565b92915050565b60006138328261333d565b9050919050565b61384281613827565b82525050565b600060208201905061385d6000830184613839565b92915050565b600082825260208201905092915050565b7f4c6f7474657279206973206e6f7420696e20636c61696d20706572696f640000600082015250565b60006138aa601e83613863565b91506138b582613874565b602082019050919050565b600060208201905081810360008301526138d98161389d565b9050919050565b7f436c61696d20506572696f6420656e6465640000000000000000000000000000600082015250565b6000613916601283613863565b9150613921826138e0565b602082019050919050565b6000602082019050818103600083015261394581613909565b9050919050565b6000606082019050613961600083018661314d565b61396e60208301856132e7565b61397b60408301846135f0565b949350505050565b6000815190506139928161328e565b92915050565b6000602082840312156139ae576139ad613181565b5b60006139bc84828501613983565b91505092915050565b7f4e6f7468696e6720746f20636c61696d20666f7220746869732077616c6c6574600082015250565b60006139fb602083613863565b9150613a06826139c5565b602082019050919050565b60006020820190508181036000830152613a2a816139ee565b9050919050565b7f4e487b7100000000000000000000000000000000000000000000000000000000600052601160045260246000fd5b6000613a6b82613143565b9150613a7683613143565b9250828201905080821115613a8e57613a8d613a31565b5b92915050565b7f4e6f7420656e6f7567682066756e6473206f6e20636f6e747261637400000000600082015250565b6000613aca601c83613863565b9150613ad582613a94565b602082019050919050565b60006020820190508181036000830152613af981613abd565b9050919050565b6000613b0b82613143565b9150613b1683613143565b9250828203905081811115613b2e57613b2d613a31565b5b92915050565b7f4e487b7100000000000000000000000000000000000000000000000000000000600052603260045260246000fd5b6000604082019050613b78600083018561314d565b613b8560208301846132e7565b9392505050565b600067ffffffffffffffff821115613ba757613ba66133db565b5b602082029050602081019050919050565b600080fd5b600080fd5b600081519050613bd1816131bd565b92915050565b600a8110613be457600080fd5b50565b600081519050613bf681613bd7565b92915050565b600081519050613c0b81613222565b92915050565b600060c08284031215613c2757613c26613bb8565b5b613c3160c061343b565b90506000613c4184828501613983565b6000830152506020613c5584828501613bc2565b6020830152506040613c6984828501613be7565b6040830152506060613c7d84828501613bfc565b6060830152506080613c9184828501613bfc565b60808301525060a0613ca584828501613983565b60a08301525092915050565b6000613cc4613cbf84613b8c565b61343b565b90508083825260208201905060c08402830185811115613ce757613ce6613482565b5b835b81811015613d105780613cfc8882613c11565b84526020840193505060c081019050613ce9565b5050509392505050565b600082601f830112613d2f57613d2e6133c5565b5b8151613d3f848260208601613cb1565b91505092915050565b600060208284031215613d5e57613d5d613181565b5b600082015167ffffffffffffffff811115613d7c57613d7b613186565b5b613d8884828501613d1a565b91505092915050565b600067ffffffffffffffff821115613dac57613dab6133db565b5b602082029050602081019050919050565b600060c08284031215613dd357613dd2613bb8565b5b613ddd60c061343b565b90506000613ded84828501613983565b6000830152506020613e0184828501613bc2565b6020830152506040613e1584828501613983565b6040830152506060613e2984828501613bfc565b6060830152506080613e3d84828501613bfc565b60808301525060a0613e5184828501613983565b60a08301525092915050565b6000613e70613e6b84613d91565b61343b565b90508083825260208201905060c08402830185811115613e9357613e92613482565b5b835b81811015613ebc5780613ea88882613dbd565b84526020840193505060c081019050613e95565b5050509392505050565b600082601f830112613edb57613eda6133c5565b5b8151613eeb848260208601613e5d565b91505092915050565b600060208284031215613f0a57613f09613181565b5b600082015167ffffffffffffffff811115613f2857613f27613186565b5b613f3484828501613ec6565b91505092915050565b600081519050919050565b600082825260208201905092915050565b6000819050602082019050919050565b613f7281613143565b82525050565b613f81816131ab565b82525050565b600a8110613f9857613f976130b1565b5b50565b6000819050613fa982613f87565b919050565b6000613fb982613f9b565b9050919050565b613fc981613fae565b82525050565b613fd881613216565b82525050565b60c082016000820151613ff46000850182613f69565b5060208201516140076020850182613f78565b50604082015161401a6040850182613fc0565b50606082015161402d6060850182613fcf565b5060808201516140406080850182613fcf565b5060a082015161405360a0850182613f69565b50505050565b60006140658383613fde565b60c08301905092915050565b6000602082019050919050565b600061408982613f3d565b6140938185613f48565b935061409e83613f59565b8060005b838110156140cf5781516140b68882614059565b97506140c183614071565b9250506001810190506140a2565b5085935050505092915050565b600081519050919050565b600082825260208201905092915050565b6000819050602082019050919050565b60c08201600082015161411e6000850182613f69565b5060208201516141316020850182613f78565b5060408201516141446040850182613f69565b5060608201516141576060850182613fcf565b50608082015161416a6080850182613fcf565b5060a082015161417d60a0850182613f69565b50505050565b600061418f8383614108565b60c08301905092915050565b6000602082019050919050565b60006141b3826140dc565b6141bd81856140e7565b93506141c8836140f8565b8060005b838110156141f95781516141e08882614183565b97506141eb8361419b565b9250506001810190506141cc565b5085935050505092915050565b60006040820190508181036000830152614220818561407e565b9050818103602083015261423481846141a8565b90509392505050565b600060408201905061425260008301856132e7565b61425f602083018461314d565b9392505050565b60006020828403121561427c5761427b613181565b5b600061428a84828501613bfc565b91505092915050565b7f57616c6c657420616c7265616479206164646564000000000000000000000000600082015250565b60006142c9601483613863565b91506142d482614293565b602082019050919050565b600060208201905081810360008301526142f8816142bc565b9050919050565b7f4e487b7100000000000000000000000000000000000000000000000000000000600052603160045260246000fd5b600061433982613143565b91507fffffffffffffffffffffffffffffffffffffffffffffffffffffffffffffffff820361436b5761436a613a31565b5b600182019050919050565b60006020828403121561438c5761438b613181565b5b600061439a84828501613bc2565b91505092915050565b7f50726576696f757320726f756e64206e6f7420656e6465640000000000000000600082015250565b60006143d9601883613863565b91506143e4826143a3565b602082019050919050565b60006020820190508181036000830152614408816143cc565b9050919050565b7f4c6f74746572794d617374657256302e31000000000000000000000000000000600082015250565b6000614445601183613863565b91506144508261440f565b602082019050919050565b600060408201905061447060008301846132e7565b818103602083015261448181614438565b905092915050565b600060ff82169050919050565b61449f81614489565b81146144aa57600080fd5b50565b6000815190506144bc81614496565b92915050565b6000602082840312156144d8576144d7613181565b5b60006144e6848285016144ad565b91505092915050565b60008160011c9050919050565b6000808291508390505b60018511156145465780860481111561452257614521613a31565b5b60018516156145315780820291505b808102905061453f856144ef565b9450614506565b94509492505050565b60008261455f576001905061461b565b8161456d576000905061461b565b8160018114614583576002811461458d576145bc565b600191505061461b565b60ff84111561459f5761459e613a31565b5b8360020a9150848211156145b6576145b5613a31565b5b5061461b565b5060208310610133831016604e8410600b84101617156145f15782820a9050838111156145ec576145eb613a31565b5b61461b565b6145fe84848460016144fc565b9250905081840481111561461557614614613a31565b5b81810290505b9392505050565b600061462d82613143565b915061463883613143565b92506146657fffffffffffffffffffffffffffffffffffffffffffffffffffffffffffffffff848461454f565b905092915050565b600061467882613143565b915061468383613143565b925082820261469181613143565b915082820484148315176146a8576146a7613a31565b5b5092915050565b600081519050919050565b600082825260208201905092915050565b6000819050602082019050919050565b6146e48161338b565b82525050565b60006146f683836146db565b60208301905092915050565b6000602082019050919050565b600061471a826146af565b61472481856146ba565b935061472f836146cb565b8060005b8381101561476057815161474788826146ea565b975061475283614702565b925050600181019050614733565b5085935050505092915050565b60006020820190508181036000830152614787818461470f565b905092915050565b7f4e487b7100000000000000000000000000000000000000000000000000000000600052601260045260246000fd5b6000815190506147cd81613399565b92915050565b6000602082840312156147e9576147e8613181565b5b60006147f7848285016147be565b91505092915050565b600061480b8261338b565b91506148168361338b565b9250828201905061ffff8111156148305761482f613a31565b5b92915050565b600063ffffffff82169050919050565b600061486161485c6148578461338b565b613311565b614836565b9050919050565b61487181614846565b82525050565b600060208201905061488c6000830184614868565b92915050565b600067ffffffffffffffff8211156148ad576148ac6133db565b5b602082029050602081019050919050565b60006148d16148cc84614892565b61343b565b905080838252602082019050602084028301858111156148f4576148f3613482565b5b835b8181101561491d57806149098882613983565b8452602084019350506020810190506148f6565b5050509392505050565b600082601f83011261493c5761493b6133c5565b5b815161494c8482602086016148be565b91505092915050565b6000806040838503121561496c5761496b613181565b5b600061497a85828601613bfc565b925050602083015167ffffffffffffffff81111561499b5761499a613186565b5b6149a785828601614927565b9150509250929050565b7f52616e646f6d206e756d62657273206e6f742072656164790000000000000000600082015250565b60006149e7601883613863565b91506149f2826149b1565b602082019050919050565b60006020820190508181036000830152614a16816149da565b9050919050565b6000819050919050565b6000614a42614a3d614a3884614a1d565b613311565b61338b565b9050919050565b614a5281614a27565b82525050565b6000606082019050614a6d600083018661314d565b614a7a6020830185614a49565b8181036040830152614a8c818461470f565b9050949350505050565b6000614aa182613143565b9150614aac83613143565b925082614abc57614abb61478f565b5b828206905092915050565b6000614ada614ad584613456565b61343b565b90508083825260208201905060208402830185811115614afd57614afc613482565b5b835b81811015614b265780614b1288826147be565b845260208401935050602081019050614aff565b5050509392505050565b600082601f830112614b4557614b446133c5565b5b8151614b55848260208601614ac7565b91505092915050565b60006101608284031215614b7557614b74613bb8565b5b614b8061016061343b565b90506000614b9084828501613983565b6000830152506020614ba484828501613983565b6020830152506040614bb884828501613983565b6040830152506060614bcc84828501613bfc565b606083015250608082015167ffffffffffffffff811115614bf057614bef613bbd565b5b614bfc84828501614b30565b60808301525060a082015167ffffffffffffffff811115614c2057614c1f613bbd565b5b614c2c84828501614927565b60a08301525060c0614c40848285016147be565b60c08301525060e082015167ffffffffffffffff811115614c6457614c63613bbd565b5b614c7084828501614927565b60e083015250610100614c85848285016147be565b6101008301525061012082015167ffffffffffffffff811115614cab57614caa613bbd565b5b614cb784828501614927565b61012083015250610140614ccd848285016147be565b6101408301525092915050565b600060208284031215614cf057614cef613181565b5b600082015167ffffffffffffffff811115614d0e57614d0d613186565b5b614d1a84828501614b5e565b91505092915050565b6000606082019050614d38600083018661314d565b614d4560208301856136d9565b8181036040830152614d57818461470f565b9050949350505050565b60006040820190508181036000830152614d7b818561470f565b90508181036020830152614d8f818461470f565b90509392505050565b6000604082019050614dad60008301856132e7565b614dba60208301846132e7565b9392505050565b7f4d697373696e6720416c6c6f77616e6365000000000000000000000000000000600082015250565b6000614df7601183613863565b9150614e0282614dc1565b602082019050919050565b60006020820190508181036000830152614e2681614dea565b9050919050565b6000614e3882613143565b915060008203614e4b57614e4a613a31565b5b600182039050919050565b7f496e73756666696369656e742066756e64730000000000000000000000000000600082015250565b6000614e8c601283613863565b9150614e9782614e56565b602082019050919050565b60006020820190508181036000830152614ebb81614e7f565b9050919050565b6000614ecd8261338b565b915061ffff8203614ee157614ee0613a31565b5b600182019050919050565b6000608082019050614f01600083018761314d565b8181036020830152614f13818661470f565b9050614f2260408301856132e7565b614f2f60608301846132e7565b95945050505050565b6000606082019050614f4d60008301866132e7565b614f5a60208301856132e7565b614f67604083018461314d565b949350505050565b600081519050919050565b600081905092915050565b60005b83811015614fa3578082015181840152602081019050614f88565b60008484015250505050565b6000614fba82614f6f565b614fc48185614f7a565b9350614fd4818560208601614f85565b80840191505092915050565b6000614fec8284614faf565b91508190509291505056fea26469706673582212208f6077a052201c9b29430e5b3453c7d276ea3ffbff26df144a34268ef571278264736f6c63430008180033",
  "devdoc": {
    "errors": {
      "AddressEmptyCode(address)": [
        {
          "details": "There's no code at `target` (it is not a contract)."
        }
      ],
      "AddressInsufficientBalance(address)": [
        {
          "details": "The ETH balance of the account is not enough to perform the operation."
        }
      ],
      "FailedInnerCall()": [
        {
          "details": "A call to an address target failed. The target may have reverted."
        }
      ],
      "OwnableInvalidOwner(address)": [
        {
          "details": "The owner is not a valid owner account. (eg. `address(0)`)"
        }
      ],
      "OwnableUnauthorizedAccount(address)": [
        {
          "details": "The caller account is not authorized to perform an operation."
        }
      ],
      "SafeERC20FailedOperation(address)": [
        {
          "details": "An operation with an ERC20 token failed."
        }
      ]
    },
    "kind": "dev",
    "methods": {
      "owner()": {
        "details": "Returns the address of the current owner."
      },
      "renounceOwnership()": {
        "details": "Leaves the contract without owner. It will not be possible to call `onlyOwner` functions. Can only be called by the current owner. NOTE: Renouncing ownership will leave the contract without an owner, thereby disabling any functionality that is only available to the owner."
      },
      "transferOwnership(address)": {
        "details": "Transfers ownership of the contract to a new account (`newOwner`). Can only be called by the current owner."
      }
    },
    "version": 1
  },
  "userdoc": {
    "kind": "user",
    "methods": {},
    "version": 1
  },
  "storageLayout": {
    "storage": [
      {
        "astId": 8,
        "contract": "contracts/LotteryMaster.sol:LotteryMaster",
        "label": "_owner",
        "offset": 0,
        "slot": "0",
        "type": "t_address"
      },
      {
        "astId": 4810,
        "contract": "contracts/LotteryMaster.sol:LotteryMaster",
        "label": "teamAddress",
        "offset": 0,
        "slot": "1",
        "type": "t_address"
      },
      {
        "astId": 1025,
        "contract": "contracts/LotteryMaster.sol:LotteryMaster",
        "label": "roundCount",
        "offset": 0,
        "slot": "2",
        "type": "t_uint256"
      },
      {
        "astId": 1028,
        "contract": "contracts/LotteryMaster.sol:LotteryMaster",
        "label": "rounds",
        "offset": 0,
        "slot": "3",
        "type": "t_array(t_address)dyn_storage"
      },
      {
        "astId": 1031,
        "contract": "contracts/LotteryMaster.sol:LotteryMaster",
        "label": "lotteryStatus",
        "offset": 0,
        "slot": "4",
        "type": "t_enum(LotteryStatuses)1021"
      },
      {
        "astId": 1033,
        "contract": "contracts/LotteryMaster.sol:LotteryMaster",
        "label": "statusStartTime",
        "offset": 0,
        "slot": "5",
        "type": "t_uint256"
      },
      {
        "astId": 1035,
        "contract": "contracts/LotteryMaster.sol:LotteryMaster",
        "label": "statusEndTime",
        "offset": 0,
        "slot": "6",
        "type": "t_uint256"
      },
      {
        "astId": 1039,
        "contract": "contracts/LotteryMaster.sol:LotteryMaster",
        "label": "freeRounds",
        "offset": 0,
        "slot": "7",
        "type": "t_mapping(t_address,t_uint256)"
      },
      {
        "astId": 1043,
        "contract": "contracts/LotteryMaster.sol:LotteryMaster",
        "label": "crossChainOperator",
        "offset": 0,
        "slot": "8",
        "type": "t_mapping(t_address,t_bool)"
      },
      {
        "astId": 1061,
        "contract": "contracts/LotteryMaster.sol:LotteryMaster",
        "label": "counterForBankWallets",
        "offset": 0,
        "slot": "9",
        "type": "t_uint16"
      },
      {
        "astId": 1064,
        "contract": "contracts/LotteryMaster.sol:LotteryMaster",
        "label": "bankWallets",
        "offset": 0,
        "slot": "10",
        "type": "t_array(t_address)dyn_storage"
      },
      {
        "astId": 1131,
        "contract": "contracts/LotteryMaster.sol:LotteryMaster",
        "label": "paymentToken",
        "offset": 0,
        "slot": "11",
        "type": "t_contract(IERC20Metadata)251"
      },
      {
        "astId": 1134,
        "contract": "contracts/LotteryMaster.sol:LotteryMaster",
        "label": "randomizer",
        "offset": 0,
        "slot": "12",
        "type": "t_contract(CyclixRandomizerInterface)901"
      },
      {
        "astId": 1137,
        "contract": "contracts/LotteryMaster.sol:LotteryMaster",
        "label": "reader",
        "offset": 0,
        "slot": "13",
        "type": "t_contract(LotteryReaderInterface)3761"
      },
      {
        "astId": 1139,
        "contract": "contracts/LotteryMaster.sol:LotteryMaster",
        "label": "ticketPrice",
        "offset": 0,
        "slot": "14",
        "type": "t_uint256"
      },
      {
        "astId": 1142,
        "contract": "contracts/LotteryMaster.sol:LotteryMaster",
        "label": "freeRoundsAreEnabled",
        "offset": 0,
        "slot": "15",
        "type": "t_bool"
      },
      {
        "astId": 1145,
        "contract": "contracts/LotteryMaster.sol:LotteryMaster",
        "label": "percentageOfReferralWinners",
        "offset": 1,
        "slot": "15",
        "type": "t_uint16"
      },
      {
        "astId": 1148,
        "contract": "contracts/LotteryMaster.sol:LotteryMaster",
        "label": "lotteryRoundCreator",
        "offset": 3,
        "slot": "15",
        "type": "t_contract(LotteryRoundCreatorInterface)4687"
      },
      {
        "astId": 1669,
        "contract": "contracts/LotteryMaster.sol:LotteryMaster",
        "label": "publicRoundRandomNumbersRequestId",
        "offset": 0,
        "slot": "16",
        "type": "t_mapping(t_uint256,t_uint256)"
      }
    ],
    "types": {
      "t_address": {
        "encoding": "inplace",
        "label": "address",
        "numberOfBytes": "20"
      },
      "t_array(t_address)dyn_storage": {
        "base": "t_address",
        "encoding": "dynamic_array",
        "label": "address[]",
        "numberOfBytes": "32"
      },
      "t_bool": {
        "encoding": "inplace",
        "label": "bool",
        "numberOfBytes": "1"
      },
      "t_contract(CyclixRandomizerInterface)901": {
        "encoding": "inplace",
        "label": "contract CyclixRandomizerInterface",
        "numberOfBytes": "20"
      },
      "t_contract(IERC20Metadata)251": {
        "encoding": "inplace",
        "label": "contract IERC20Metadata",
        "numberOfBytes": "20"
      },
      "t_contract(LotteryReaderInterface)3761": {
        "encoding": "inplace",
        "label": "contract LotteryReaderInterface",
        "numberOfBytes": "20"
      },
      "t_contract(LotteryRoundCreatorInterface)4687": {
        "encoding": "inplace",
        "label": "contract LotteryRoundCreatorInterface",
        "numberOfBytes": "20"
      },
      "t_enum(LotteryStatuses)1021": {
        "encoding": "inplace",
        "label": "enum LotteryStatuses",
        "numberOfBytes": "1"
      },
      "t_mapping(t_address,t_bool)": {
        "encoding": "mapping",
        "key": "t_address",
        "label": "mapping(address => bool)",
        "numberOfBytes": "32",
        "value": "t_bool"
      },
      "t_mapping(t_address,t_uint256)": {
        "encoding": "mapping",
        "key": "t_address",
        "label": "mapping(address => uint256)",
        "numberOfBytes": "32",
        "value": "t_uint256"
      },
      "t_mapping(t_uint256,t_uint256)": {
        "encoding": "mapping",
        "key": "t_uint256",
        "label": "mapping(uint256 => uint256)",
        "numberOfBytes": "32",
        "value": "t_uint256"
      },
      "t_uint16": {
        "encoding": "inplace",
        "label": "uint16",
        "numberOfBytes": "2"
      },
      "t_uint256": {
        "encoding": "inplace",
        "label": "uint256",
        "numberOfBytes": "32"
      }
    }
  }
}