{
  "address": "0x36DffDfB066e12beE5cCACea900B90F5Af7197e2",
  "abi": [
    {
      "inputs": [
        {
          "internalType": "address",
          "name": "previousRoundAddress",
          "type": "address"
        },
        {
          "internalType": "uint256",
          "name": "roundDurationInSeconds",
          "type": "uint256"
        }
      ],
      "stateMutability": "nonpayable",
      "type": "constructor"
    },
    {
      "inputs": [
        {
          "internalType": "address",
          "name": "target",
          "type": "address"
        }
      ],
      "name": "AddressEmptyCode",
      "type": "error"
    },
    {
      "inputs": [
        {
          "internalType": "address",
          "name": "account",
          "type": "address"
        }
      ],
      "name": "AddressInsufficientBalance",
      "type": "error"
    },
    {
      "inputs": [],
      "name": "FailedInnerCall",
      "type": "error"
    },
    {
      "inputs": [
        {
          "internalType": "address",
          "name": "owner",
          "type": "address"
        }
      ],
      "name": "OwnableInvalidOwner",
      "type": "error"
    },
    {
      "inputs": [
        {
          "internalType": "address",
          "name": "account",
          "type": "address"
        }
      ],
      "name": "OwnableUnauthorizedAccount",
      "type": "error"
    },
    {
      "inputs": [
        {
          "internalType": "address",
          "name": "token",
          "type": "address"
        }
      ],
      "name": "SafeERC20FailedOperation",
      "type": "error"
    },
    {
      "anonymous": false,
      "inputs": [
        {
          "indexed": true,
          "internalType": "address",
          "name": "previousOwner",
          "type": "address"
        },
        {
          "indexed": true,
          "internalType": "address",
          "name": "newOwner",
          "type": "address"
        }
      ],
      "name": "OwnershipTransferred",
      "type": "event"
    },
    {
      "inputs": [
        {
          "internalType": "uint256",
          "name": "chainId",
          "type": "uint256"
        },
        {
          "internalType": "uint16[]",
          "name": "chosenNumbers",
          "type": "uint16[]"
        },
        {
          "internalType": "uint16",
          "name": "powerNumber",
          "type": "uint16"
        },
        {
          "internalType": "address",
          "name": "referral",
          "type": "address"
        }
      ],
      "name": "buyTicket",
      "outputs": [],
      "stateMutability": "nonpayable",
      "type": "function"
    },
    {
      "inputs": [],
      "name": "closeRound",
      "outputs": [],
      "stateMutability": "nonpayable",
      "type": "function"
    },
    {
      "inputs": [],
      "name": "couldReceiveWinningNumbers",
      "outputs": [],
      "stateMutability": "view",
      "type": "function"
    },
    {
      "inputs": [],
      "name": "getRound",
      "outputs": [
        {
          "components": [
            {
              "internalType": "uint256",
              "name": "id",
              "type": "uint256"
            },
            {
              "internalType": "uint256",
              "name": "startTime",
              "type": "uint256"
            },
            {
              "internalType": "uint256",
              "name": "endTime",
              "type": "uint256"
            },
            {
              "internalType": "bool",
              "name": "ended",
              "type": "bool"
            },
            {
              "internalType": "uint16[]",
              "name": "roundNumbers",
              "type": "uint16[]"
            },
            {
              "internalType": "uint16",
              "name": "powerNumber",
              "type": "uint16"
            },
            {
              "internalType": "uint16[]",
              "name": "referralWinnersNumber",
              "type": "uint16[]"
            },
            {
              "internalType": "uint16",
              "name": "referralWinnersNumberCount",
              "type": "uint16"
            },
            {
              "internalType": "uint256[]",
              "name": "ticketIds",
              "type": "uint256[]"
            },
            {
              "internalType": "uint16",
              "name": "ticketsCount",
              "type": "uint16"
            },
            {
              "internalType": "uint256[]",
              "name": "referralTicketIds",
              "type": "uint256[]"
            },
            {
              "internalType": "uint16",
              "name": "referralCounts",
              "type": "uint16"
            }
          ],
          "internalType": "struct Round",
          "name": "",
          "type": "tuple"
        }
      ],
      "stateMutability": "view",
      "type": "function"
    },
    {
      "inputs": [
        {
          "internalType": "uint256",
          "name": "referralTicketId",
          "type": "uint256"
        },
        {
          "internalType": "uint256",
          "name": "amountClaimed",
          "type": "uint256"
        }
      ],
      "name": "markReferralVictoryClaimed",
      "outputs": [],
      "stateMutability": "nonpayable",
      "type": "function"
    },
    {
      "inputs": [
        {
          "internalType": "uint256",
          "name": "ticketId",
          "type": "uint256"
        },
        {
          "internalType": "uint256",
          "name": "amountClaimed",
          "type": "uint256"
        }
      ],
      "name": "markVictoryClaimed",
      "outputs": [],
      "stateMutability": "nonpayable",
      "type": "function"
    },
    {
      "inputs": [
        {
          "components": [
            {
              "internalType": "uint256",
              "name": "ticketId",
              "type": "uint256"
            },
            {
              "internalType": "enum RoundVictoryTier",
              "name": "victoryTier",
              "type": "uint8"
            }
          ],
          "internalType": "struct TicketResults[]",
          "name": "ticketResults",
          "type": "tuple[]"
        },
        {
          "components": [
            {
              "internalType": "uint256",
              "name": "referralTicketId",
              "type": "uint256"
            },
            {
              "internalType": "bool",
              "name": "won",
              "type": "bool"
            }
          ],
          "internalType": "struct ReferralTicketResults[]",
          "name": "referralTicketResults",
          "type": "tuple[]"
        }
      ],
      "name": "markWinners",
      "outputs": [],
      "stateMutability": "nonpayable",
      "type": "function"
    },
    {
      "inputs": [
        {
          "internalType": "uint256",
          "name": "number",
          "type": "uint256"
        }
      ],
      "name": "numberIsInRangeForPowerNumber",
      "outputs": [
        {
          "internalType": "bool",
          "name": "",
          "type": "bool"
        }
      ],
      "stateMutability": "pure",
      "type": "function"
    },
    {
      "inputs": [
        {
          "internalType": "uint256",
          "name": "number",
          "type": "uint256"
        }
      ],
      "name": "numberIsInRangeForRound",
      "outputs": [
        {
          "internalType": "bool",
          "name": "",
          "type": "bool"
        }
      ],
      "stateMutability": "pure",
      "type": "function"
    },
    {
      "inputs": [
        {
          "internalType": "uint256",
          "name": "ticketId",
          "type": "uint256"
        }
      ],
      "name": "numbersForTicketId",
      "outputs": [
        {
          "internalType": "uint16[]",
          "name": "",
          "type": "uint16[]"
        }
      ],
      "stateMutability": "view",
      "type": "function"
    },
    {
      "inputs": [],
      "name": "owner",
      "outputs": [
        {
          "internalType": "address",
          "name": "",
          "type": "address"
        }
      ],
      "stateMutability": "view",
      "type": "function"
    },
    {
      "inputs": [
        {
          "internalType": "uint256",
          "name": "amount",
          "type": "uint256"
        },
        {
          "internalType": "uint256",
          "name": "basisPoint",
          "type": "uint256"
        }
      ],
      "name": "percentageInBasisPoint",
      "outputs": [
        {
          "internalType": "uint256",
          "name": "",
          "type": "uint256"
        }
      ],
      "stateMutability": "pure",
      "type": "function"
    },
    {
      "inputs": [],
      "name": "previousRound",
      "outputs": [
        {
          "internalType": "address",
          "name": "",
          "type": "address"
        }
      ],
      "stateMutability": "view",
      "type": "function"
    },
    {
      "inputs": [
        {
          "internalType": "uint256",
          "name": "index",
          "type": "uint256"
        }
      ],
      "name": "referralTicketById",
      "outputs": [
        {
          "components": [
            {
              "internalType": "uint256",
              "name": "id",
              "type": "uint256"
            },
            {
              "internalType": "address",
              "name": "referralAddress",
              "type": "address"
            },
            {
              "internalType": "uint16",
              "name": "referralTicketNumber",
              "type": "uint16"
            },
            {
              "internalType": "bool",
              "name": "winner",
              "type": "bool"
            },
            {
              "internalType": "bool",
              "name": "claimed",
              "type": "bool"
            }
          ],
          "internalType": "struct ReferralTicket",
          "name": "",
          "type": "tuple"
        }
      ],
      "stateMutability": "view",
      "type": "function"
    },
    {
      "inputs": [
        {
          "internalType": "uint256",
          "name": "",
          "type": "uint256"
        }
      ],
      "name": "referralTickets",
      "outputs": [
        {
          "internalType": "uint256",
          "name": "id",
          "type": "uint256"
        },
        {
          "internalType": "address",
          "name": "referralAddress",
          "type": "address"
        },
        {
          "internalType": "uint16",
          "name": "referralTicketNumber",
          "type": "uint16"
        },
        {
          "internalType": "bool",
          "name": "winner",
          "type": "bool"
        },
        {
          "internalType": "bool",
          "name": "claimed",
          "type": "bool"
        }
      ],
      "stateMutability": "view",
      "type": "function"
    },
    {
      "inputs": [],
      "name": "renounceOwnership",
      "outputs": [],
      "stateMutability": "nonpayable",
      "type": "function"
    },
    {
      "inputs": [],
      "name": "round",
      "outputs": [
        {
          "internalType": "uint256",
          "name": "id",
          "type": "uint256"
        },
        {
          "internalType": "uint256",
          "name": "startTime",
          "type": "uint256"
        },
        {
          "internalType": "uint256",
          "name": "endTime",
          "type": "uint256"
        },
        {
          "internalType": "bool",
          "name": "ended",
          "type": "bool"
        },
        {
          "internalType": "uint16",
          "name": "powerNumber",
          "type": "uint16"
        },
        {
          "internalType": "uint16",
          "name": "referralWinnersNumberCount",
          "type": "uint16"
        },
        {
          "internalType": "uint16",
          "name": "ticketsCount",
          "type": "uint16"
        },
        {
          "internalType": "uint16",
          "name": "referralCounts",
          "type": "uint16"
        }
      ],
      "stateMutability": "view",
      "type": "function"
    },
    {
      "inputs": [
        {
          "internalType": "address",
          "name": "",
          "type": "address"
        },
        {
          "internalType": "uint256",
          "name": "",
          "type": "uint256"
        }
      ],
      "name": "roundReferralTicketsByAddress",
      "outputs": [
        {
          "internalType": "uint256",
          "name": "",
          "type": "uint256"
        }
      ],
      "stateMutability": "view",
      "type": "function"
    },
    {
      "inputs": [
        {
          "internalType": "address",
          "name": "",
          "type": "address"
        }
      ],
      "name": "roundReferralTicketsByAddressCount",
      "outputs": [
        {
          "internalType": "uint256",
          "name": "",
          "type": "uint256"
        }
      ],
      "stateMutability": "view",
      "type": "function"
    },
    {
      "inputs": [
        {
          "internalType": "address",
          "name": "",
          "type": "address"
        },
        {
          "internalType": "uint256",
          "name": "",
          "type": "uint256"
        }
      ],
      "name": "roundTicketsByAddress",
      "outputs": [
        {
          "internalType": "uint256",
          "name": "",
          "type": "uint256"
        }
      ],
      "stateMutability": "view",
      "type": "function"
    },
    {
      "inputs": [
        {
          "internalType": "address",
          "name": "",
          "type": "address"
        }
      ],
      "name": "roundTicketsByAddressCount",
      "outputs": [
        {
          "internalType": "uint256",
          "name": "",
          "type": "uint256"
        }
      ],
      "stateMutability": "view",
      "type": "function"
    },
    {
      "inputs": [],
      "name": "sendCryptoToTeam",
      "outputs": [],
      "stateMutability": "nonpayable",
      "type": "function"
    },
    {
      "inputs": [
        {
          "internalType": "address",
          "name": "_token",
          "type": "address"
        }
      ],
      "name": "sendTokenToTeam",
      "outputs": [],
      "stateMutability": "nonpayable",
      "type": "function"
    },
    {
      "inputs": [
        {
          "internalType": "uint16[]",
          "name": "roundNumbers",
          "type": "uint16[]"
        },
        {
          "internalType": "uint16",
          "name": "powerNumber",
          "type": "uint16"
        },
        {
          "internalType": "uint16[]",
          "name": "referralWinnersNumber",
          "type": "uint16[]"
        }
      ],
      "name": "storeWinningNumbers",
      "outputs": [],
      "stateMutability": "nonpayable",
      "type": "function"
    },
    {
      "inputs": [
        {
          "internalType": "uint256",
          "name": "ticketId",
          "type": "uint256"
        }
      ],
      "name": "ticketById",
      "outputs": [
        {
          "components": [
            {
              "internalType": "uint256",
              "name": "id",
              "type": "uint256"
            },
            {
              "internalType": "address",
              "name": "participantAddress",
              "type": "address"
            },
            {
              "internalType": "address",
              "name": "referralAddress",
              "type": "address"
            },
            {
              "internalType": "bool",
              "name": "claimed",
              "type": "bool"
            },
            {
              "internalType": "uint256",
              "name": "chainId",
              "type": "uint256"
            },
            {
              "internalType": "enum RoundVictoryTier",
              "name": "victoryTier",
              "type": "uint8"
            },
            {
              "internalType": "uint16",
              "name": "powerNumber",
              "type": "uint16"
            }
          ],
          "internalType": "struct Ticket",
          "name": "",
          "type": "tuple"
        }
      ],
      "stateMutability": "view",
      "type": "function"
    },
    {
      "inputs": [
        {
          "internalType": "uint256",
          "name": "",
          "type": "uint256"
        },
        {
          "internalType": "uint256",
          "name": "",
          "type": "uint256"
        }
      ],
      "name": "ticketNumbers",
      "outputs": [
        {
          "internalType": "uint16",
          "name": "",
          "type": "uint16"
        }
      ],
      "stateMutability": "view",
      "type": "function"
    },
    {
      "inputs": [
        {
          "internalType": "uint256",
          "name": "",
          "type": "uint256"
        }
      ],
      "name": "tickets",
      "outputs": [
        {
          "internalType": "uint256",
          "name": "id",
          "type": "uint256"
        },
        {
          "internalType": "address",
          "name": "participantAddress",
          "type": "address"
        },
        {
          "internalType": "address",
          "name": "referralAddress",
          "type": "address"
        },
        {
          "internalType": "bool",
          "name": "claimed",
          "type": "bool"
        },
        {
          "internalType": "uint256",
          "name": "chainId",
          "type": "uint256"
        },
        {
          "internalType": "enum RoundVictoryTier",
          "name": "victoryTier",
          "type": "uint8"
        },
        {
          "internalType": "uint16",
          "name": "powerNumber",
          "type": "uint16"
        }
      ],
      "stateMutability": "view",
      "type": "function"
    },
    {
      "inputs": [
        {
          "internalType": "address",
          "name": "newOwner",
          "type": "address"
        }
      ],
      "name": "transferOwnership",
      "outputs": [],
      "stateMutability": "nonpayable",
      "type": "function"
    },
    {
      "inputs": [
        {
          "internalType": "uint256",
          "name": "paymentTokenAmount",
          "type": "uint256"
        }
      ],
      "name": "treasuryAmountOnTicket",
      "outputs": [
        {
          "internalType": "uint256",
          "name": "",
          "type": "uint256"
        }
      ],
      "stateMutability": "pure",
      "type": "function"
    },
    {
      "inputs": [
        {
          "internalType": "address",
          "name": "_teamAddress",
          "type": "address"
        }
      ],
      "name": "updateTeamAddress",
      "outputs": [],
      "stateMutability": "nonpayable",
      "type": "function"
    },
    {
      "inputs": [
        {
          "internalType": "uint256",
          "name": "paymentTokenAmount",
          "type": "uint256"
        }
      ],
      "name": "updateVictoryPoolForTicket",
      "outputs": [],
      "stateMutability": "nonpayable",
      "type": "function"
    },
    {
      "inputs": [
        {
          "internalType": "uint16[]",
          "name": "numbers",
          "type": "uint16[]"
        },
        {
          "internalType": "uint16",
          "name": "powerNumber",
          "type": "uint16"
        },
        {
          "internalType": "address",
          "name": "referral",
          "type": "address"
        }
      ],
      "name": "validateBuyTicket",
      "outputs": [],
      "stateMutability": "view",
      "type": "function"
    },
    {
      "inputs": [
        {
          "internalType": "enum RoundVictoryTier",
          "name": "",
          "type": "uint8"
        }
      ],
      "name": "victoryTierAmounts",
      "outputs": [
        {
          "internalType": "uint256",
          "name": "",
          "type": "uint256"
        }
      ],
      "stateMutability": "view",
      "type": "function"
    },
    {
      "inputs": [
        {
          "internalType": "enum RoundVictoryTier",
          "name": "",
          "type": "uint8"
        }
      ],
      "name": "victoryTierAmountsClaimed",
      "outputs": [
        {
          "internalType": "uint256",
          "name": "",
          "type": "uint256"
        }
      ],
      "stateMutability": "view",
      "type": "function"
    },
    {
      "inputs": [
        {
          "internalType": "enum RoundVictoryTier",
          "name": "",
          "type": "uint8"
        }
      ],
      "name": "winnersForEachTier",
      "outputs": [
        {
          "internalType": "uint256",
          "name": "",
          "type": "uint256"
        }
      ],
      "stateMutability": "view",
      "type": "function"
    }
  ],
  "transactionHash": "0x796ee12269f860a0c6ef998d4f2aec4f508babbb32564a63b048b5e95b99542f",
  "args": [
    "0x0000000000000000000000000000000000000000",
    432000
  ],
  "numDeployments": 1,
  "solcInputHash": "04867362111321919c19caff6a348279",
  "bytecode": "0x60806040523480156200001157600080fd5b5060405162005b6638038062005b668339818101604052810190620000379190620015b9565b3380600073ffffffffffffffffffffffffffffffffffffffff168173ffffffffffffffffffffffffffffffffffffffff1603620000ae5760006040517f1e4fbdf7000000000000000000000000000000000000000000000000000000008152600401620000a5919062001611565b60405180910390fd5b620000bf816200052260201b60201c565b5080600160006101000a81548173ffffffffffffffffffffffffffffffffffffffff021916908373ffffffffffffffffffffffffffffffffffffffff1602179055505060006001905082601860006101000a81548173ffffffffffffffffffffffffffffffffffffffff021916908373ffffffffffffffffffffffffffffffffffffffff160217905550600073ffffffffffffffffffffffffffffffffffffffff168373ffffffffffffffffffffffffffffffffffffffff16146200022057600083905060018173ffffffffffffffffffffffffffffffffffffffff16639f8743f76040518163ffffffff1660e01b8152600401600060405180830381865afa158015620001d1573d6000803e3d6000fd5b505050506040513d6000823e3d601f19601f82011682018060405250810190620001fc919062001aba565b600001516200020c919062001b3a565b91506200021e620005e660201b60201c565b505b604051806101800160405280828152602001428152602001834262000246919062001b3a565b8152602001600015158152602001600067ffffffffffffffff81111562000272576200027162001644565b5b604051908082528060200260200182016040528015620002a15781602001602082028036833780820191505090505b508152602001600061ffff168152602001600067ffffffffffffffff811115620002d057620002cf62001644565b5b604051908082528060200260200182016040528015620002ff5781602001602082028036833780820191505090505b508152602001600061ffff168152602001600067ffffffffffffffff8111156200032e576200032d62001644565b5b6040519080825280602002602001820160405280156200035d5781602001602082028036833780820191505090505b508152602001600061ffff168152602001600067ffffffffffffffff8111156200038c576200038b62001644565b5b604051908082528060200260200182016040528015620003bb5781602001602082028036833780820191505090505b508152602001600061ffff16815250600260008201518160000155602082015181600101556040820151816002015560608201518160030160006101000a81548160ff021916908315150217905550608082015181600401908051906020019062000428929190620013e3565b5060a08201518160050160006101000a81548161ffff021916908361ffff16021790555060c08201518160060190805190602001906200046a929190620013e3565b5060e08201518160070160006101000a81548161ffff021916908361ffff160217905550610100820151816008019080519060200190620004ad92919062001494565b506101208201518160090160006101000a81548161ffff021916908361ffff16021790555061014082015181600a019080519060200190620004f192919062001494565b5061016082015181600b0160006101000a81548161ffff021916908361ffff16021790555090505050505062001c7f565b60008060009054906101000a900473ffffffffffffffffffffffffffffffffffffffff169050816000806101000a81548173ffffffffffffffffffffffffffffffffffffffff021916908373ffffffffffffffffffffffffffffffffffffffff1602179055508173ffffffffffffffffffffffffffffffffffffffff168173ffffffffffffffffffffffffffffffffffffffff167f8be0079c531659141344cd1fd0a4f28419497f9722a3daafe3b4186f6b6457e060405160405180910390a35050565b6000601860009054906101000a900473ffffffffffffffffffffffffffffffffffffffff1690508073ffffffffffffffffffffffffffffffffffffffff16634e9eba1d60016040518263ffffffff1660e01b815260040162000649919062001bf5565b602060405180830381865afa15801562000667573d6000803e3d6000fd5b505050506040513d601f19601f820116820180604052508101906200068d919062001c12565b8173ffffffffffffffffffffffffffffffffffffffff1663e2e3083060016040518263ffffffff1660e01b8152600401620006c9919062001bf5565b602060405180830381865afa158015620006e7573d6000803e3d6000fd5b505050506040513d601f19601f820116820180604052508101906200070d919062001c12565b62000719919062001c44565b601560006001600a81111562000734576200073362001b75565b5b600a81111562000749576200074862001b75565b5b8152602001908152602001600020600082825462000768919062001b3a565b925050819055508073ffffffffffffffffffffffffffffffffffffffff16634e9eba1d60026040518263ffffffff1660e01b8152600401620007ab919062001bf5565b602060405180830381865afa158015620007c9573d6000803e3d6000fd5b505050506040513d601f19601f82011682018060405250810190620007ef919062001c12565b8173ffffffffffffffffffffffffffffffffffffffff1663e2e3083060026040518263ffffffff1660e01b81526004016200082b919062001bf5565b602060405180830381865afa15801562000849573d6000803e3d6000fd5b505050506040513d601f19601f820116820180604052508101906200086f919062001c12565b6200087b919062001c44565b601560006002600a81111562000896576200089562001b75565b5b600a811115620008ab57620008aa62001b75565b5b81526020019081526020016000206000828254620008ca919062001b3a565b925050819055508073ffffffffffffffffffffffffffffffffffffffff16634e9eba1d60036040518263ffffffff1660e01b81526004016200090d919062001bf5565b602060405180830381865afa1580156200092b573d6000803e3d6000fd5b505050506040513d601f19601f8201168201806040525081019062000951919062001c12565b8173ffffffffffffffffffffffffffffffffffffffff1663e2e3083060036040518263ffffffff1660e01b81526004016200098d919062001bf5565b602060405180830381865afa158015620009ab573d6000803e3d6000fd5b505050506040513d601f19601f82011682018060405250810190620009d1919062001c12565b620009dd919062001c44565b601560006003600a811115620009f857620009f762001b75565b5b600a81111562000a0d5762000a0c62001b75565b5b8152602001908152602001600020600082825462000a2c919062001b3a565b925050819055508073ffffffffffffffffffffffffffffffffffffffff16634e9eba1d60046040518263ffffffff1660e01b815260040162000a6f919062001bf5565b602060405180830381865afa15801562000a8d573d6000803e3d6000fd5b505050506040513d601f19601f8201168201806040525081019062000ab3919062001c12565b8173ffffffffffffffffffffffffffffffffffffffff1663e2e3083060046040518263ffffffff1660e01b815260040162000aef919062001bf5565b602060405180830381865afa15801562000b0d573d6000803e3d6000fd5b505050506040513d601f19601f8201168201806040525081019062000b33919062001c12565b62000b3f919062001c44565b601560006004600a81111562000b5a5762000b5962001b75565b5b600a81111562000b6f5762000b6e62001b75565b5b8152602001908152602001600020600082825462000b8e919062001b3a565b925050819055508073ffffffffffffffffffffffffffffffffffffffff16634e9eba1d60056040518263ffffffff1660e01b815260040162000bd1919062001bf5565b602060405180830381865afa15801562000bef573d6000803e3d6000fd5b505050506040513d601f19601f8201168201806040525081019062000c15919062001c12565b8173ffffffffffffffffffffffffffffffffffffffff1663e2e3083060056040518263ffffffff1660e01b815260040162000c51919062001bf5565b602060405180830381865afa15801562000c6f573d6000803e3d6000fd5b505050506040513d601f19601f8201168201806040525081019062000c95919062001c12565b62000ca1919062001c44565b601560006005600a81111562000cbc5762000cbb62001b75565b5b600a81111562000cd15762000cd062001b75565b5b8152602001908152602001600020600082825462000cf0919062001b3a565b925050819055508073ffffffffffffffffffffffffffffffffffffffff16634e9eba1d60066040518263ffffffff1660e01b815260040162000d33919062001bf5565b602060405180830381865afa15801562000d51573d6000803e3d6000fd5b505050506040513d601f19601f8201168201806040525081019062000d77919062001c12565b8173ffffffffffffffffffffffffffffffffffffffff1663e2e3083060066040518263ffffffff1660e01b815260040162000db3919062001bf5565b602060405180830381865afa15801562000dd1573d6000803e3d6000fd5b505050506040513d601f19601f8201168201806040525081019062000df7919062001c12565b62000e03919062001c44565b601560006006600a81111562000e1e5762000e1d62001b75565b5b600a81111562000e335762000e3262001b75565b5b8152602001908152602001600020600082825462000e52919062001b3a565b925050819055508073ffffffffffffffffffffffffffffffffffffffff16634e9eba1d60086040518263ffffffff1660e01b815260040162000e95919062001bf5565b602060405180830381865afa15801562000eb3573d6000803e3d6000fd5b505050506040513d601f19601f8201168201806040525081019062000ed9919062001c12565b8173ffffffffffffffffffffffffffffffffffffffff1663e2e3083060086040518263ffffffff1660e01b815260040162000f15919062001bf5565b602060405180830381865afa15801562000f33573d6000803e3d6000fd5b505050506040513d601f19601f8201168201806040525081019062000f59919062001c12565b62000f65919062001c44565b601560006008600a81111562000f805762000f7f62001b75565b5b600a81111562000f955762000f9462001b75565b5b8152602001908152602001600020600082825462000fb4919062001b3a565b925050819055508073ffffffffffffffffffffffffffffffffffffffff16634e9eba1d60076040518263ffffffff1660e01b815260040162000ff7919062001bf5565b602060405180830381865afa15801562001015573d6000803e3d6000fd5b505050506040513d601f19601f820116820180604052508101906200103b919062001c12565b8173ffffffffffffffffffffffffffffffffffffffff1663e2e3083060076040518263ffffffff1660e01b815260040162001077919062001bf5565b602060405180830381865afa15801562001095573d6000803e3d6000fd5b505050506040513d601f19601f82011682018060405250810190620010bb919062001c12565b620010c7919062001c44565b601560006007600a811115620010e257620010e162001b75565b5b600a811115620010f757620010f662001b75565b5b8152602001908152602001600020600082825462001116919062001b3a565b925050819055508073ffffffffffffffffffffffffffffffffffffffff16634e9eba1d60096040518263ffffffff1660e01b815260040162001159919062001bf5565b602060405180830381865afa15801562001177573d6000803e3d6000fd5b505050506040513d601f19601f820116820180604052508101906200119d919062001c12565b8173ffffffffffffffffffffffffffffffffffffffff1663e2e3083060096040518263ffffffff1660e01b8152600401620011d9919062001bf5565b602060405180830381865afa158015620011f7573d6000803e3d6000fd5b505050506040513d601f19601f820116820180604052508101906200121d919062001c12565b62001229919062001c44565b601560006009600a81111562001244576200124362001b75565b5b600a81111562001259576200125862001b75565b5b8152602001908152602001600020600082825462001278919062001b3a565b925050819055508073ffffffffffffffffffffffffffffffffffffffff16634e9eba1d600a6040518263ffffffff1660e01b8152600401620012bb919062001bf5565b602060405180830381865afa158015620012d9573d6000803e3d6000fd5b505050506040513d601f19601f82011682018060405250810190620012ff919062001c12565b8173ffffffffffffffffffffffffffffffffffffffff1663e2e30830600a6040518263ffffffff1660e01b81526004016200133b919062001bf5565b602060405180830381865afa15801562001359573d6000803e3d6000fd5b505050506040513d601f19601f820116820180604052508101906200137f919062001c12565b6200138b919062001c44565b60156000600a80811115620013a557620013a462001b75565b5b600a811115620013ba57620013b962001b75565b5b81526020019081526020016000206000828254620013d9919062001b3a565b9250508190555050565b82805482825590600052602060002090600f01601090048101928215620014815791602002820160005b838211156200144f57835183826101000a81548161ffff021916908361ffff16021790555092602001926002016020816001010492830192600103026200140d565b80156200147f5782816101000a81549061ffff02191690556002016020816001010492830192600103026200144f565b505b509050620014909190620014e6565b5090565b828054828255906000526020600020908101928215620014d3579160200282015b82811115620014d2578251825591602001919060010190620014b5565b5b509050620014e29190620014e6565b5090565b5b8082111562001501576000816000905550600101620014e7565b5090565b6000604051905090565b600080fd5b600080fd5b600073ffffffffffffffffffffffffffffffffffffffff82169050919050565b6000620015468262001519565b9050919050565b620015588162001539565b81146200156457600080fd5b50565b60008151905062001578816200154d565b92915050565b6000819050919050565b62001593816200157e565b81146200159f57600080fd5b50565b600081519050620015b38162001588565b92915050565b60008060408385031215620015d357620015d26200150f565b5b6000620015e38582860162001567565b9250506020620015f685828601620015a2565b9150509250929050565b6200160b8162001539565b82525050565b600060208201905062001628600083018462001600565b92915050565b600080fd5b6000601f19601f8301169050919050565b7f4e487b7100000000000000000000000000000000000000000000000000000000600052604160045260246000fd5b6200167e8262001633565b810181811067ffffffffffffffff82111715620016a0576200169f62001644565b5b80604052505050565b6000620016b562001505565b9050620016c3828262001673565b919050565b600080fd5b60008115159050919050565b620016e481620016cd565b8114620016f057600080fd5b50565b6000815190506200170481620016d9565b92915050565b600080fd5b600067ffffffffffffffff8211156200172d576200172c62001644565b5b602082029050602081019050919050565b600080fd5b600061ffff82169050919050565b6200175c8162001743565b81146200176857600080fd5b50565b6000815190506200177c8162001751565b92915050565b60006200179962001793846200170f565b620016a9565b90508083825260208201905060208402830185811115620017bf57620017be6200173e565b5b835b81811015620017ec5780620017d788826200176b565b845260208401935050602081019050620017c1565b5050509392505050565b600082601f8301126200180e576200180d6200170a565b5b81516200182084826020860162001782565b91505092915050565b600067ffffffffffffffff82111562001847576200184662001644565b5b602082029050602081019050919050565b60006200186f620018698462001829565b620016a9565b905080838252602082019050602084028301858111156200189557620018946200173e565b5b835b81811015620018c25780620018ad8882620015a2565b84526020840193505060208101905062001897565b5050509392505050565b600082601f830112620018e457620018e36200170a565b5b8151620018f684826020860162001858565b91505092915050565b600061018082840312156200191957620019186200162e565b5b62001926610180620016a9565b905060006200193884828501620015a2565b60008301525060206200194e84828501620015a2565b60208301525060406200196484828501620015a2565b60408301525060606200197a84828501620016f3565b606083015250608082015167ffffffffffffffff811115620019a157620019a0620016c8565b5b620019af84828501620017f6565b60808301525060a0620019c5848285016200176b565b60a08301525060c082015167ffffffffffffffff811115620019ec57620019eb620016c8565b5b620019fa84828501620017f6565b60c08301525060e062001a10848285016200176b565b60e08301525061010082015167ffffffffffffffff81111562001a385762001a37620016c8565b5b62001a4684828501620018cc565b6101008301525061012062001a5e848285016200176b565b6101208301525061014082015167ffffffffffffffff81111562001a875762001a86620016c8565b5b62001a9584828501620018cc565b6101408301525061016062001aad848285016200176b565b6101608301525092915050565b60006020828403121562001ad35762001ad26200150f565b5b600082015167ffffffffffffffff81111562001af45762001af362001514565b5b62001b0284828501620018ff565b91505092915050565b7f4e487b7100000000000000000000000000000000000000000000000000000000600052601160045260246000fd5b600062001b47826200157e565b915062001b54836200157e565b925082820190508082111562001b6f5762001b6e62001b0b565b5b92915050565b7f4e487b7100000000000000000000000000000000000000000000000000000000600052602160045260246000fd5b600b811062001bb85762001bb762001b75565b5b50565b600081905062001bcb8262001ba4565b919050565b600062001bdd8262001bbb565b9050919050565b62001bef8162001bd0565b82525050565b600060208201905062001c0c600083018462001be4565b92915050565b60006020828403121562001c2b5762001c2a6200150f565b5b600062001c3b84828501620015a2565b91505092915050565b600062001c51826200157e565b915062001c5e836200157e565b925082820390508181111562001c795762001c7862001b0b565b5b92915050565b613ed78062001c8f6000396000f3fe608060405234801561001057600080fd5b50600436106102115760003560e01c8063715018a611610125578063b56c12b4116100ad578063e278fe6f1161007c578063e278fe6f14610659578063e2e3083014610663578063e65b76a914610693578063efa3d531146106c3578063f2fde38b146106f357610211565b8063b56c12b4146105d3578063bbd1783a146105ef578063dd85ae5f146105f9578063df28f24b1461062957610211565b80639b7be8fc116100f45780639b7be8fc146105075780639f8743f714610537578063af33d08f14610555578063b217be0514610585578063b288e1a9146105b557610211565b8063715018a6146104a757806382e58923146104b15780638da5cb5b146104cd578063998da3e9146104eb57610211565b80633590bd3c116101a857806350b447121161017757806350b44712146103d9578063598f3b9d1461040f578063627151671461043f578063659a8d861461045b5780636a65bcda1461048b57610211565b80633590bd3c1461032957806336324a5d146103455780633ed91226146103755780634e9eba1d146103a957610211565b806314eb76ac116101e457806314eb76ac146102b7578063266fbf90146102d35780632ed48515146102ef578063343f25661461031f57610211565b806308469cc61461021657806308bb71cd146102465780630cee803c14610276578063146ca53114610292575b600080fd5b610230600480360381019061022b9190612986565b61070f565b60405161023d91906129ce565b60405180910390f35b610260600480360381019061025b9190612a47565b610728565b60405161026d9190612a83565b60405180910390f35b610290600480360381019061028b9190612a9e565b610740565b005b61029a6107df565b6040516102ae989796959493929190612afb565b60405180910390f35b6102d160048036038101906102cc9190612a47565b61085a565b005b6102ed60048036038101906102e89190612cfe565b6108a6565b005b61030960048036038101906103049190612a9e565b610efb565b6040516103169190612a83565b60405180910390f35b610327610f1e565b005b610343600480360381019061033e9190612ffd565b610fb2565b005b61035f600480360381019061035a9190612986565b611182565b60405161036c91906129ce565b60405180910390f35b61038f600480360381019061038a9190612986565b61119b565b6040516103a0959493929190613084565b60405180910390f35b6103c360048036038101906103be91906130d7565b611229565b6040516103d09190612a83565b60405180910390f35b6103f360048036038101906103ee9190612986565b611241565b604051610406979695949392919061317b565b60405180910390f35b61042960048036038101906104249190612986565b6112fb565b60405161043691906132a8565b60405180910390f35b610459600480360381019061045491906132ca565b61138e565b005b61047560048036038101906104709190613339565b6115ce565b6040516104829190612a83565b60405180910390f35b6104a560048036038101906104a09190613379565b6115ff565b005b6104af611681565b005b6104cb60048036038101906104c69190612a9e565b611695565b005b6104d5611744565b6040516104e29190613404565b60405180910390f35b61050560048036038101906105009190612a47565b61176d565b005b610521600480360381019061051c9190612986565b61182e565b60405161052e91906134e9565b60405180910390f35b61053f6119a0565b60405161054c919061373b565b60405180910390f35b61056f600480360381019061056a9190612986565b611c24565b60405161057c9190612a83565b60405180910390f35b61059f600480360381019061059a9190612a9e565b611c39565b6040516105ac919061375d565b60405180910390f35b6105bd611c80565b6040516105ca9190613404565b60405180910390f35b6105ed60048036038101906105e89190612986565b611ca6565b005b6105f7612037565b005b610613600480360381019061060e9190612986565b6120b4565b60405161062091906137e0565b60405180910390f35b610643600480360381019061063e9190612a47565b6121a6565b6040516106509190612a83565b60405180910390f35b6106616121be565b005b61067d600480360381019061067891906130d7565b61222d565b60405161068a9190612a83565b60405180910390f35b6106ad60048036038101906106a89190613339565b612245565b6040516106ba9190612a83565b60405180910390f35b6106dd60048036038101906106d891906130d7565b612276565b6040516106ea9190612a83565b60405180910390f35b61070d60048036038101906107089190612a47565b61228e565b005b60008082118015610721575060458211155b9050919050565b60146020528060005260406000206000915090505481565b610748612314565b60006012838154811061075e5761075d6137fb565b5b9060005260206000209060020201905060018160010160176101000a81548160ff02191690831515021790555081601660006007600a8111156107a4576107a3613104565b5b600a8111156107b6576107b5613104565b5b815260200190815260200160002060008282546107d39190613859565b92505081905550505050565b60028060000154908060010154908060020154908060030160009054906101000a900460ff16908060050160009054906101000a900461ffff16908060070160009054906101000a900461ffff16908060090160009054906101000a900461ffff169080600b0160009054906101000a900461ffff16905088565b610862612314565b80600160006101000a81548173ffffffffffffffffffffffffffffffffffffffff021916908373ffffffffffffffffffffffffffffffffffffffff16021790555050565b6108ae612314565b6108b983838361138e565b6000600e805490509050600e6040518060e001604052808381526020013273ffffffffffffffffffffffffffffffffffffffff1681526020018473ffffffffffffffffffffffffffffffffffffffff1681526020016000151581526020018781526020016000600a81111561093157610930613104565b5b81526020018561ffff1681525090806001815401808255809150506001900390600052602060002090600502016000909190919091506000820151816000015560208201518160010160006101000a81548173ffffffffffffffffffffffffffffffffffffffff021916908373ffffffffffffffffffffffffffffffffffffffff16021790555060408201518160020160006101000a81548173ffffffffffffffffffffffffffffffffffffffff021916908373ffffffffffffffffffffffffffffffffffffffff16021790555060608201518160020160146101000a81548160ff0219169083151502179055506080820151816003015560a08201518160040160006101000a81548160ff0219169083600a811115610a5457610a53613104565b5b021790555060c08201518160040160016101000a81548161ffff021916908361ffff160217905550505060005b8451811015610b0c57600f6000838152602001908152602001600020858281518110610ab057610aaf6137fb565b5b602002602001015190806001815401808255809150506001900390600052602060002090601091828204019190066002029091909190916101000a81548161ffff021916908361ffff1602179055508080600101915050610a81565b5060026008018190806001815401808255809150506001900390600052602060002001600090919091909150556002600901600081819054906101000a900461ffff1680929190610b5c9061388d565b91906101000a81548161ffff021916908361ffff16021790555050601060003373ffffffffffffffffffffffffffffffffffffffff1673ffffffffffffffffffffffffffffffffffffffff1681526020019081526020016000206001600e80549050610bc891906138b7565b9080600181540180825580915050600190039060005260206000200160009091909190915055601160003373ffffffffffffffffffffffffffffffffffffffff1673ffffffffffffffffffffffffffffffffffffffff1681526020019081526020016000206000815480929190610c3e906138eb565b9190505550600073ffffffffffffffffffffffffffffffffffffffff168273ffffffffffffffffffffffffffffffffffffffff1614610ef457600060128054905090506002600a018190806001815401808255809150506001900390600052602060002001600090919091909150556002600b01600081819054906101000a900461ffff1680929190610cd09061388d565b91906101000a81548161ffff021916908361ffff1602179055505060126040518060a001604052808381526020018573ffffffffffffffffffffffffffffffffffffffff1681526020016002600b0160009054906101000a900461ffff1661ffff1681526020016000151581526020016000151581525090806001815401808255809150506001900390600052602060002090600202016000909190919091506000820151816000015560208201518160010160006101000a81548173ffffffffffffffffffffffffffffffffffffffff021916908373ffffffffffffffffffffffffffffffffffffffff16021790555060408201518160010160146101000a81548161ffff021916908361ffff16021790555060608201518160010160166101000a81548160ff02191690831515021790555060808201518160010160176101000a81548160ff0219169083151502179055505050601360008473ffffffffffffffffffffffffffffffffffffffff1673ffffffffffffffffffffffffffffffffffffffff1681526020019081526020016000206001601280549050610e7791906138b7565b9080600181540180825580915050600190039060005260206000200160009091909190915055601460008473ffffffffffffffffffffffffffffffffffffffff1673ffffffffffffffffffffffffffffffffffffffff1681526020019081526020016000206000815480929190610eed906138eb565b9190505550505b5050505050565b60006127108284610f0c9190613933565b610f1691906139a4565b905092915050565b6002800154421015610f65576040517f08c379a0000000000000000000000000000000000000000000000000000000008152600401610f5c90613a32565b60405180910390fd5b600060026004018054905014610fb0576040517f08c379a0000000000000000000000000000000000000000000000000000000008152600401610fa790613a9e565b60405180910390fd5b565b610fba612314565b60005b825181101561109f576000838281518110610fdb57610fda6137fb565b5b602002602001015190506000600e826000015181548110610fff57610ffe6137fb565b5b9060005260206000209060050201905081602001518160040160006101000a81548160ff0219169083600a81111561103a57611039613104565b5b0217905550601760008360200151600a81111561105a57611059613104565b5b600a81111561106c5761106b613104565b5b8152602001908152602001600020600081548092919061108b906138eb565b919050555050508080600101915050610fbd565b5060005b815181101561117d5760008282815181106110c1576110c06137fb565b5b60200260200101519050600060128260000151815481106110e5576110e46137fb565b5b9060005260206000209060020201905081602001518160010160166101000a81548160ff02191690831515021790555081602001511561116e57601760006007600a81111561113757611136613104565b5b600a81111561114957611148613104565b5b81526020019081526020016000206000815480929190611168906138eb565b91905055505b505080806001019150506110a3565b505050565b600080821180156111945750601a8211155b9050919050565b601281815481106111ab57600080fd5b90600052602060002090600202016000915090508060000154908060010160009054906101000a900473ffffffffffffffffffffffffffffffffffffffff16908060010160149054906101000a900461ffff16908060010160169054906101000a900460ff16908060010160179054906101000a900460ff16905085565b60166020528060005260406000206000915090505481565b600e818154811061125157600080fd5b90600052602060002090600502016000915090508060000154908060010160009054906101000a900473ffffffffffffffffffffffffffffffffffffffff16908060020160009054906101000a900473ffffffffffffffffffffffffffffffffffffffff16908060020160149054906101000a900460ff16908060030154908060040160009054906101000a900460ff16908060040160019054906101000a900461ffff16905087565b6060600f600083815260200190815260200160002080548060200260200160405190810160405280929190818152602001828054801561138257602002820191906000526020600020906000905b82829054906101000a900461ffff1661ffff16815260200190600201906020826001010492830192600103820291508084116113495790505b50505050509050919050565b611396612314565b600073ffffffffffffffffffffffffffffffffffffffff163273ffffffffffffffffffffffffffffffffffffffff1603611405576040517f08c379a00000000000000000000000000000000000000000000000000000000081526004016113fc90613b0a565b60405180910390fd5b6002800154421061144b576040517f08c379a000000000000000000000000000000000000000000000000000000000815260040161144290613b76565b60405180910390fd5b600583511461148f576040517f08c379a000000000000000000000000000000000000000000000000000000000815260040161148690613be2565b60405180910390fd5b60005b835181101561150e576114c28482815181106114b1576114b06137fb565b5b602002602001015161ffff1661070f565b611501576040517f08c379a00000000000000000000000000000000000000000000000000000000081526004016114f890613c4e565b60405180910390fd5b8080600101915050611492565b5061151c8261ffff16611182565b61155b576040517f08c379a000000000000000000000000000000000000000000000000000000000815260040161155290613cba565b60405180910390fd5b3273ffffffffffffffffffffffffffffffffffffffff168173ffffffffffffffffffffffffffffffffffffffff16036115c9576040517f08c379a00000000000000000000000000000000000000000000000000000000081526004016115c090613d4c565b60405180910390fd5b505050565b601360205281600052604060002081815481106115ea57600080fd5b90600052602060002001600091509150505481565b611607612314565b8260026004019080519060200190611620929190612734565b5081600260050160006101000a81548161ffff021916908361ffff160217905550806002600601908051906020019061165a929190612734565b508051600260070160006101000a81548161ffff021916908361ffff160217905550505050565b611689612314565b611693600061239b565b565b61169d612314565b6000600e83815481106116b3576116b26137fb565b5b9060005260206000209060050201905060018160020160146101000a81548160ff02191690831515021790555081601660008360040160009054906101000a900460ff16600a81111561170957611708613104565b5b600a81111561171b5761171a613104565b5b815260200190815260200160002060008282546117389190613859565b92505081905550505050565b60008060009054906101000a900473ffffffffffffffffffffffffffffffffffffffff16905090565b611775612314565b60008173ffffffffffffffffffffffffffffffffffffffff166370a08231306040518263ffffffff1660e01b81526004016117b09190613404565b602060405180830381865afa1580156117cd573d6000803e3d6000fd5b505050506040513d601f19601f820116820180604052508101906117f19190613d81565b9050600081111561182a5761182982600160009054906101000a900473ffffffffffffffffffffffffffffffffffffffff168361245f565b5b5050565b6118366127de565b600e828154811061184a576118496137fb565b5b90600052602060002090600502016040518060e0016040529081600082015481526020016001820160009054906101000a900473ffffffffffffffffffffffffffffffffffffffff1673ffffffffffffffffffffffffffffffffffffffff1673ffffffffffffffffffffffffffffffffffffffff1681526020016002820160009054906101000a900473ffffffffffffffffffffffffffffffffffffffff1673ffffffffffffffffffffffffffffffffffffffff1673ffffffffffffffffffffffffffffffffffffffff1681526020016002820160149054906101000a900460ff16151515158152602001600382015481526020016004820160009054906101000a900460ff16600a81111561196357611962613104565b5b600a81111561197557611974613104565b5b81526020016004820160019054906101000a900461ffff1661ffff1661ffff16815250509050919050565b6119a861285f565b6002604051806101800160405290816000820154815260200160018201548152602001600282015481526020016003820160009054906101000a900460ff1615151515815260200160048201805480602002602001604051908101604052809291908181526020018280548015611a6657602002820191906000526020600020906000905b82829054906101000a900461ffff1661ffff1681526020019060020190602082600101049283019260010382029150808411611a2d5790505b505050505081526020016005820160009054906101000a900461ffff1661ffff1661ffff16815260200160068201805480602002602001604051908101604052809291908181526020018280548015611b0657602002820191906000526020600020906000905b82829054906101000a900461ffff1661ffff1681526020019060020190602082600101049283019260010382029150808411611acd5790505b505050505081526020016007820160009054906101000a900461ffff1661ffff1661ffff16815260200160088201805480602002602001604051908101604052809291908181526020018280548015611b7e57602002820191906000526020600020905b815481526020019060010190808311611b6a575b505050505081526020016009820160009054906101000a900461ffff1661ffff1661ffff168152602001600a8201805480602002602001604051908101604052809291908181526020018280548015611bf657602002820191906000526020600020905b815481526020019060010190808311611be2575b50505050508152602001600b820160009054906101000a900461ffff1661ffff1661ffff1681525050905090565b6000611c3282611388610efb565b9050919050565b600f6020528160005260406000208181548110611c5557600080fd5b9060005260206000209060109182820401919006600202915091509054906101000a900461ffff1681565b601860009054906101000a900473ffffffffffffffffffffffffffffffffffffffff1681565b611cae612314565b6000611cbc82611b58610efb565b9050611cca81610dac610efb565b601560006001600a811115611ce257611ce1613104565b5b600a811115611cf457611cf3613104565b5b81526020019081526020016000206000828254611d119190613859565b92505081905550611d24816105dc610efb565b601560006002600a811115611d3c57611d3b613104565b5b600a811115611d4e57611d4d613104565b5b81526020019081526020016000206000828254611d6b9190613859565b92505081905550611d7e816103e8610efb565b601560006003600a811115611d9657611d95613104565b5b600a811115611da857611da7613104565b5b81526020019081526020016000206000828254611dc59190613859565b92505081905550611dd8816102bc610efb565b601560006004600a811115611df057611def613104565b5b600a811115611e0257611e01613104565b5b81526020019081526020016000206000828254611e1f9190613859565b92505081905550611e32816101f4610efb565b601560006005600a811115611e4a57611e49613104565b5b600a811115611e5c57611e5b613104565b5b81526020019081526020016000206000828254611e799190613859565b92505081905550611e8c8161012c610efb565b601560006006600a811115611ea457611ea3613104565b5b600a811115611eb657611eb5613104565b5b81526020019081526020016000206000828254611ed39190613859565b9250508190555080601560006008600a811115611ef357611ef2613104565b5b600a811115611f0557611f04613104565b5b81526020019081526020016000206000828254611f229190613859565b92505081905550611f35826105dc610efb565b601560006007600a811115611f4d57611f4c613104565b5b600a811115611f5f57611f5e613104565b5b81526020019081526020016000206000828254611f7c9190613859565b92505081905550611f8f826103e8610efb565b601560006009600a811115611fa757611fa6613104565b5b600a811115611fb957611fb8613104565b5b81526020019081526020016000206000828254611fd69190613859565b92505081905550611fe682611c24565b60156000600a80811115611ffd57611ffc613104565b5b600a81111561200f5761200e613104565b5b8152602001908152602001600020600082825461202c9190613859565b925050819055505050565b61203f612314565b60004711156120b257600160009054906101000a900473ffffffffffffffffffffffffffffffffffffffff1673ffffffffffffffffffffffffffffffffffffffff166108fc479081150290604051600060405180830381858888f193505050501580156120b0573d6000803e3d6000fd5b505b565b6120bc6128d2565b601282815481106120d0576120cf6137fb565b5b90600052602060002090600202016040518060a0016040529081600082015481526020016001820160009054906101000a900473ffffffffffffffffffffffffffffffffffffffff1673ffffffffffffffffffffffffffffffffffffffff1673ffffffffffffffffffffffffffffffffffffffff1681526020016001820160149054906101000a900461ffff1661ffff1661ffff1681526020016001820160169054906101000a900460ff161515151581526020016001820160179054906101000a900460ff1615151515815250509050919050565b60116020528060005260406000206000915090505481565b6121c6612314565b600280015442101561220d576040517f08c379a000000000000000000000000000000000000000000000000000000000815260040161220490613a32565b60405180910390fd5b6001600260030160006101000a81548160ff021916908315150217905550565b60156020528060005260406000206000915090505481565b6010602052816000526040600020818154811061226157600080fd5b90600052602060002001600091509150505481565b60176020528060005260406000206000915090505481565b612296612314565b600073ffffffffffffffffffffffffffffffffffffffff168173ffffffffffffffffffffffffffffffffffffffff16036123085760006040517f1e4fbdf70000000000000000000000000000000000000000000000000000000081526004016122ff9190613404565b60405180910390fd5b6123118161239b565b50565b61231c6124de565b73ffffffffffffffffffffffffffffffffffffffff1661233a611744565b73ffffffffffffffffffffffffffffffffffffffff16146123995761235d6124de565b6040517f118cdaa70000000000000000000000000000000000000000000000000000000081526004016123909190613404565b60405180910390fd5b565b60008060009054906101000a900473ffffffffffffffffffffffffffffffffffffffff169050816000806101000a81548173ffffffffffffffffffffffffffffffffffffffff021916908373ffffffffffffffffffffffffffffffffffffffff1602179055508173ffffffffffffffffffffffffffffffffffffffff168173ffffffffffffffffffffffffffffffffffffffff167f8be0079c531659141344cd1fd0a4f28419497f9722a3daafe3b4186f6b6457e060405160405180910390a35050565b6124d9838473ffffffffffffffffffffffffffffffffffffffff1663a9059cbb8585604051602401612492929190613dae565b604051602081830303815290604052915060e01b6020820180517bffffffffffffffffffffffffffffffffffffffffffffffffffffffff83818316178352505050506124e6565b505050565b600033905090565b6000612511828473ffffffffffffffffffffffffffffffffffffffff1661257d90919063ffffffff16565b905060008151141580156125365750808060200190518101906125349190613dec565b155b1561257857826040517f5274afe700000000000000000000000000000000000000000000000000000000815260040161256f9190613404565b60405180910390fd5b505050565b606061258b83836000612593565b905092915050565b6060814710156125da57306040517fcd7860590000000000000000000000000000000000000000000000000000000081526004016125d19190613404565b60405180910390fd5b6000808573ffffffffffffffffffffffffffffffffffffffff1684866040516126039190613e8a565b60006040518083038185875af1925050503d8060008114612640576040519150601f19603f3d011682016040523d82523d6000602084013e612645565b606091505b5091509150612655868383612660565b925050509392505050565b60608261267557612670826126ef565b6126e7565b6000825114801561269d575060008473ffffffffffffffffffffffffffffffffffffffff163b145b156126df57836040517f9996b3150000000000000000000000000000000000000000000000000000000081526004016126d69190613404565b60405180910390fd5b8190506126e8565b5b9392505050565b6000815111156127025780518082602001fd5b6040517f1425ea4200000000000000000000000000000000000000000000000000000000815260040160405180910390fd5b82805482825590600052602060002090600f016010900481019282156127cd5791602002820160005b8382111561279d57835183826101000a81548161ffff021916908361ffff160217905550926020019260020160208160010104928301926001030261275d565b80156127cb5782816101000a81549061ffff021916905560020160208160010104928301926001030261279d565b505b5090506127da919061291f565b5090565b6040518060e0016040528060008152602001600073ffffffffffffffffffffffffffffffffffffffff168152602001600073ffffffffffffffffffffffffffffffffffffffff168152602001600015158152602001600081526020016000600a81111561284e5761284d613104565b5b8152602001600061ffff1681525090565b60405180610180016040528060008152602001600081526020016000815260200160001515815260200160608152602001600061ffff16815260200160608152602001600061ffff16815260200160608152602001600061ffff16815260200160608152602001600061ffff1681525090565b6040518060a0016040528060008152602001600073ffffffffffffffffffffffffffffffffffffffff168152602001600061ffff1681526020016000151581526020016000151581525090565b5b80821115612938576000816000905550600101612920565b5090565b6000604051905090565b600080fd5b600080fd5b6000819050919050565b61296381612950565b811461296e57600080fd5b50565b6000813590506129808161295a565b92915050565b60006020828403121561299c5761299b612946565b5b60006129aa84828501612971565b91505092915050565b60008115159050919050565b6129c8816129b3565b82525050565b60006020820190506129e360008301846129bf565b92915050565b600073ffffffffffffffffffffffffffffffffffffffff82169050919050565b6000612a14826129e9565b9050919050565b612a2481612a09565b8114612a2f57600080fd5b50565b600081359050612a4181612a1b565b92915050565b600060208284031215612a5d57612a5c612946565b5b6000612a6b84828501612a32565b91505092915050565b612a7d81612950565b82525050565b6000602082019050612a986000830184612a74565b92915050565b60008060408385031215612ab557612ab4612946565b5b6000612ac385828601612971565b9250506020612ad485828601612971565b9150509250929050565b600061ffff82169050919050565b612af581612ade565b82525050565b600061010082019050612b11600083018b612a74565b612b1e602083018a612a74565b612b2b6040830189612a74565b612b3860608301886129bf565b612b456080830187612aec565b612b5260a0830186612aec565b612b5f60c0830185612aec565b612b6c60e0830184612aec565b9998505050505050505050565b600080fd5b6000601f19601f8301169050919050565b7f4e487b7100000000000000000000000000000000000000000000000000000000600052604160045260246000fd5b612bc782612b7e565b810181811067ffffffffffffffff82111715612be657612be5612b8f565b5b80604052505050565b6000612bf961293c565b9050612c058282612bbe565b919050565b600067ffffffffffffffff821115612c2557612c24612b8f565b5b602082029050602081019050919050565b600080fd5b612c4481612ade565b8114612c4f57600080fd5b50565b600081359050612c6181612c3b565b92915050565b6000612c7a612c7584612c0a565b612bef565b90508083825260208201905060208402830185811115612c9d57612c9c612c36565b5b835b81811015612cc65780612cb28882612c52565b845260208401935050602081019050612c9f565b5050509392505050565b600082601f830112612ce557612ce4612b79565b5b8135612cf5848260208601612c67565b91505092915050565b60008060008060808587031215612d1857612d17612946565b5b6000612d2687828801612971565b945050602085013567ffffffffffffffff811115612d4757612d4661294b565b5b612d5387828801612cd0565b9350506040612d6487828801612c52565b9250506060612d7587828801612a32565b91505092959194509250565b600067ffffffffffffffff821115612d9c57612d9b612b8f565b5b602082029050602081019050919050565b600080fd5b600b8110612dbf57600080fd5b50565b600081359050612dd181612db2565b92915050565b600060408284031215612ded57612dec612dad565b5b612df76040612bef565b90506000612e0784828501612971565b6000830152506020612e1b84828501612dc2565b60208301525092915050565b6000612e3a612e3584612d81565b612bef565b90508083825260208201905060408402830185811115612e5d57612e5c612c36565b5b835b81811015612e865780612e728882612dd7565b845260208401935050604081019050612e5f565b5050509392505050565b600082601f830112612ea557612ea4612b79565b5b8135612eb5848260208601612e27565b91505092915050565b600067ffffffffffffffff821115612ed957612ed8612b8f565b5b602082029050602081019050919050565b612ef3816129b3565b8114612efe57600080fd5b50565b600081359050612f1081612eea565b92915050565b600060408284031215612f2c57612f2b612dad565b5b612f366040612bef565b90506000612f4684828501612971565b6000830152506020612f5a84828501612f01565b60208301525092915050565b6000612f79612f7484612ebe565b612bef565b90508083825260208201905060408402830185811115612f9c57612f9b612c36565b5b835b81811015612fc55780612fb18882612f16565b845260208401935050604081019050612f9e565b5050509392505050565b600082601f830112612fe457612fe3612b79565b5b8135612ff4848260208601612f66565b91505092915050565b6000806040838503121561301457613013612946565b5b600083013567ffffffffffffffff8111156130325761303161294b565b5b61303e85828601612e90565b925050602083013567ffffffffffffffff81111561305f5761305e61294b565b5b61306b85828601612fcf565b9150509250929050565b61307e81612a09565b82525050565b600060a0820190506130996000830188612a74565b6130a66020830187613075565b6130b36040830186612aec565b6130c060608301856129bf565b6130cd60808301846129bf565b9695505050505050565b6000602082840312156130ed576130ec612946565b5b60006130fb84828501612dc2565b91505092915050565b7f4e487b7100000000000000000000000000000000000000000000000000000000600052602160045260246000fd5b600b811061314457613143613104565b5b50565b600081905061315582613133565b919050565b600061316582613147565b9050919050565b6131758161315a565b82525050565b600060e082019050613190600083018a612a74565b61319d6020830189613075565b6131aa6040830188613075565b6131b760608301876129bf565b6131c46080830186612a74565b6131d160a083018561316c565b6131de60c0830184612aec565b98975050505050505050565b600081519050919050565b600082825260208201905092915050565b6000819050602082019050919050565b61321f81612ade565b82525050565b60006132318383613216565b60208301905092915050565b6000602082019050919050565b6000613255826131ea565b61325f81856131f5565b935061326a83613206565b8060005b8381101561329b5781516132828882613225565b975061328d8361323d565b92505060018101905061326e565b5085935050505092915050565b600060208201905081810360008301526132c2818461324a565b905092915050565b6000806000606084860312156132e3576132e2612946565b5b600084013567ffffffffffffffff8111156133015761330061294b565b5b61330d86828701612cd0565b935050602061331e86828701612c52565b925050604061332f86828701612a32565b9150509250925092565b600080604083850312156133505761334f612946565b5b600061335e85828601612a32565b925050602061336f85828601612971565b9150509250929050565b60008060006060848603121561339257613391612946565b5b600084013567ffffffffffffffff8111156133b0576133af61294b565b5b6133bc86828701612cd0565b93505060206133cd86828701612c52565b925050604084013567ffffffffffffffff8111156133ee576133ed61294b565b5b6133fa86828701612cd0565b9150509250925092565b60006020820190506134196000830184613075565b92915050565b61342881612950565b82525050565b61343781612a09565b82525050565b613446816129b3565b82525050565b6134558161315a565b82525050565b60e082016000820151613471600085018261341f565b506020820151613484602085018261342e565b506040820151613497604085018261342e565b5060608201516134aa606085018261343d565b5060808201516134bd608085018261341f565b5060a08201516134d060a085018261344c565b5060c08201516134e360c0850182613216565b50505050565b600060e0820190506134fe600083018461345b565b92915050565b600082825260208201905092915050565b6000613520826131ea565b61352a8185613504565b935061353583613206565b8060005b8381101561356657815161354d8882613225565b97506135588361323d565b925050600181019050613539565b5085935050505092915050565b600081519050919050565b600082825260208201905092915050565b6000819050602082019050919050565b60006135ab838361341f565b60208301905092915050565b6000602082019050919050565b60006135cf82613573565b6135d9818561357e565b93506135e48361358f565b8060005b838110156136155781516135fc888261359f565b9750613607836135b7565b9250506001810190506135e8565b5085935050505092915050565b60006101808301600083015161363b600086018261341f565b50602083015161364e602086018261341f565b506040830151613661604086018261341f565b506060830151613674606086018261343d565b506080830151848203608086015261368c8282613515565b91505060a08301516136a160a0860182613216565b5060c083015184820360c08601526136b98282613515565b91505060e08301516136ce60e0860182613216565b506101008301518482036101008601526136e882826135c4565b9150506101208301516136ff610120860182613216565b5061014083015184820361014086015261371982826135c4565b915050610160830151613730610160860182613216565b508091505092915050565b600060208201905081810360008301526137558184613622565b905092915050565b60006020820190506137726000830184612aec565b92915050565b60a08201600082015161378e600085018261341f565b5060208201516137a1602085018261342e565b5060408201516137b46040850182613216565b5060608201516137c7606085018261343d565b5060808201516137da608085018261343d565b50505050565b600060a0820190506137f56000830184613778565b92915050565b7f4e487b7100000000000000000000000000000000000000000000000000000000600052603260045260246000fd5b7f4e487b7100000000000000000000000000000000000000000000000000000000600052601160045260246000fd5b600061386482612950565b915061386f83612950565b92508282019050808211156138875761388661382a565b5b92915050565b600061389882612ade565b915061ffff82036138ac576138ab61382a565b5b600182019050919050565b60006138c282612950565b91506138cd83612950565b92508282039050818111156138e5576138e461382a565b5b92915050565b60006138f682612950565b91507fffffffffffffffffffffffffffffffffffffffffffffffffffffffffffffffff82036139285761392761382a565b5b600182019050919050565b600061393e82612950565b915061394983612950565b925082820261395781612950565b9150828204841483151761396e5761396d61382a565b5b5092915050565b7f4e487b7100000000000000000000000000000000000000000000000000000000600052601260045260246000fd5b60006139af82612950565b91506139ba83612950565b9250826139ca576139c9613975565b5b828204905092915050565b600082825260208201905092915050565b7f526f756e64206973206e6f74206f766572207965740000000000000000000000600082015250565b6000613a1c6015836139d5565b9150613a27826139e6565b602082019050919050565b60006020820190508181036000830152613a4b81613a0f565b9050919050565b7f57696e6e696e67206e756d6265727320616c7265616479207365740000000000600082015250565b6000613a88601b836139d5565b9150613a9382613a52565b602082019050919050565b60006020820190508181036000830152613ab781613a7b565b9050919050565b7f496e76616c69642073656e646572000000000000000000000000000000000000600082015250565b6000613af4600e836139d5565b9150613aff82613abe565b602082019050919050565b60006020820190508181036000830152613b2381613ae7565b9050919050565b7f526f756e64206973206f76657200000000000000000000000000000000000000600082015250565b6000613b60600d836139d5565b9150613b6b82613b2a565b602082019050919050565b60006020820190508181036000830152613b8f81613b53565b9050919050565b7f496e76616c6964206e756d6265727320636f756e740000000000000000000000600082015250565b6000613bcc6015836139d5565b9150613bd782613b96565b602082019050919050565b60006020820190508181036000830152613bfb81613bbf565b9050919050565b7f496e76616c6964206e756d626572730000000000000000000000000000000000600082015250565b6000613c38600f836139d5565b9150613c4382613c02565b602082019050919050565b60006020820190508181036000830152613c6781613c2b565b9050919050565b7f496e76616c696420706f776572206e756d626572000000000000000000000000600082015250565b6000613ca46014836139d5565b9150613caf82613c6e565b602082019050919050565b60006020820190508181036000830152613cd381613c97565b9050919050565b7f526566657272616c2063616e6e6f74206265207468652073616d65206173207460008201527f6865207061727469636970616e74000000000000000000000000000000000000602082015250565b6000613d36602e836139d5565b9150613d4182613cda565b604082019050919050565b60006020820190508181036000830152613d6581613d29565b9050919050565b600081519050613d7b8161295a565b92915050565b600060208284031215613d9757613d96612946565b5b6000613da584828501613d6c565b91505092915050565b6000604082019050613dc36000830185613075565b613dd06020830184612a74565b9392505050565b600081519050613de681612eea565b92915050565b600060208284031215613e0257613e01612946565b5b6000613e1084828501613dd7565b91505092915050565b600081519050919050565b600081905092915050565b60005b83811015613e4d578082015181840152602081019050613e32565b60008484015250505050565b6000613e6482613e19565b613e6e8185613e24565b9350613e7e818560208601613e2f565b80840191505092915050565b6000613e968284613e59565b91508190509291505056fea2646970667358221220735506dc6e08a72f44c4ad46bbfbcb2f1c6290909a99b22923762ac07e7a793264736f6c63430008180033",
  "devdoc": {
    "errors": {
      "AddressEmptyCode(address)": [
        {
          "details": "There's no code at `target` (it is not a contract)."
        }
      ],
      "AddressInsufficientBalance(address)": [
        {
          "details": "The ETH balance of the account is not enough to perform the operation."
        }
      ],
      "FailedInnerCall()": [
        {
          "details": "A call to an address target failed. The target may have reverted."
        }
      ],
      "OwnableInvalidOwner(address)": [
        {
          "details": "The owner is not a valid owner account. (eg. `address(0)`)"
        }
      ],
      "OwnableUnauthorizedAccount(address)": [
        {
          "details": "The caller account is not authorized to perform an operation."
        }
      ],
      "SafeERC20FailedOperation(address)": [
        {
          "details": "An operation with an ERC20 token failed."
        }
      ]
    },
    "kind": "dev",
    "methods": {
      "owner()": {
        "details": "Returns the address of the current owner."
      },
      "renounceOwnership()": {
        "details": "Leaves the contract without owner. It will not be possible to call `onlyOwner` functions. Can only be called by the current owner. NOTE: Renouncing ownership will leave the contract without an owner, thereby disabling any functionality that is only available to the owner."
      },
      "transferOwnership(address)": {
        "details": "Transfers ownership of the contract to a new account (`newOwner`). Can only be called by the current owner."
      }
    },
    "version": 1
  },
  "userdoc": {
    "kind": "user",
    "methods": {},
    "version": 1
  },
  "storageLayout": {
    "storage": [
      {
        "astId": 8,
        "contract": "contracts/LotteryRound.sol:LotteryRound",
        "label": "_owner",
        "offset": 0,
        "slot": "0",
        "type": "t_address"
      },
      {
        "astId": 3979,
        "contract": "contracts/LotteryRound.sol:LotteryRound",
        "label": "teamAddress",
        "offset": 0,
        "slot": "1",
        "type": "t_address"
      },
      {
        "astId": 2962,
        "contract": "contracts/LotteryRound.sol:LotteryRound",
        "label": "round",
        "offset": 0,
        "slot": "2",
        "type": "t_struct(Round)935_storage"
      },
      {
        "astId": 2975,
        "contract": "contracts/LotteryRound.sol:LotteryRound",
        "label": "tickets",
        "offset": 0,
        "slot": "14",
        "type": "t_array(t_struct(Ticket)951_storage)dyn_storage"
      },
      {
        "astId": 2993,
        "contract": "contracts/LotteryRound.sol:LotteryRound",
        "label": "ticketNumbers",
        "offset": 0,
        "slot": "15",
        "type": "t_mapping(t_uint256,t_array(t_uint16)dyn_storage)"
      },
      {
        "astId": 3011,
        "contract": "contracts/LotteryRound.sol:LotteryRound",
        "label": "roundTicketsByAddress",
        "offset": 0,
        "slot": "16",
        "type": "t_mapping(t_address,t_array(t_uint256)dyn_storage)"
      },
      {
        "astId": 3015,
        "contract": "contracts/LotteryRound.sol:LotteryRound",
        "label": "roundTicketsByAddressCount",
        "offset": 0,
        "slot": "17",
        "type": "t_mapping(t_address,t_uint256)"
      },
      {
        "astId": 3019,
        "contract": "contracts/LotteryRound.sol:LotteryRound",
        "label": "referralTickets",
        "offset": 0,
        "slot": "18",
        "type": "t_array(t_struct(ReferralTicket)968_storage)dyn_storage"
      },
      {
        "astId": 3037,
        "contract": "contracts/LotteryRound.sol:LotteryRound",
        "label": "roundReferralTicketsByAddress",
        "offset": 0,
        "slot": "19",
        "type": "t_mapping(t_address,t_array(t_uint256)dyn_storage)"
      },
      {
        "astId": 3041,
        "contract": "contracts/LotteryRound.sol:LotteryRound",
        "label": "roundReferralTicketsByAddressCount",
        "offset": 0,
        "slot": "20",
        "type": "t_mapping(t_address,t_uint256)"
      },
      {
        "astId": 3046,
        "contract": "contracts/LotteryRound.sol:LotteryRound",
        "label": "victoryTierAmounts",
        "offset": 0,
        "slot": "21",
        "type": "t_mapping(t_enum(RoundVictoryTier)906,t_uint256)"
      },
      {
        "astId": 3051,
        "contract": "contracts/LotteryRound.sol:LotteryRound",
        "label": "victoryTierAmountsClaimed",
        "offset": 0,
        "slot": "22",
        "type": "t_mapping(t_enum(RoundVictoryTier)906,t_uint256)"
      },
      {
        "astId": 3056,
        "contract": "contracts/LotteryRound.sol:LotteryRound",
        "label": "winnersForEachTier",
        "offset": 0,
        "slot": "23",
        "type": "t_mapping(t_enum(RoundVictoryTier)906,t_uint256)"
      },
      {
        "astId": 3058,
        "contract": "contracts/LotteryRound.sol:LotteryRound",
        "label": "previousRound",
        "offset": 0,
        "slot": "24",
        "type": "t_address"
      }
    ],
    "types": {
      "t_address": {
        "encoding": "inplace",
        "label": "address",
        "numberOfBytes": "20"
      },
      "t_array(t_struct(ReferralTicket)968_storage)dyn_storage": {
        "base": "t_struct(ReferralTicket)968_storage",
        "encoding": "dynamic_array",
        "label": "struct ReferralTicket[]",
        "numberOfBytes": "32"
      },
      "t_array(t_struct(Ticket)951_storage)dyn_storage": {
        "base": "t_struct(Ticket)951_storage",
        "encoding": "dynamic_array",
        "label": "struct Ticket[]",
        "numberOfBytes": "32"
      },
      "t_array(t_uint16)dyn_storage": {
        "base": "t_uint16",
        "encoding": "dynamic_array",
        "label": "uint16[]",
        "numberOfBytes": "32"
      },
      "t_array(t_uint256)dyn_storage": {
        "base": "t_uint256",
        "encoding": "dynamic_array",
        "label": "uint256[]",
        "numberOfBytes": "32"
      },
      "t_bool": {
        "encoding": "inplace",
        "label": "bool",
        "numberOfBytes": "1"
      },
      "t_enum(RoundVictoryTier)906": {
        "encoding": "inplace",
        "label": "enum RoundVictoryTier",
        "numberOfBytes": "1"
      },
      "t_mapping(t_address,t_array(t_uint256)dyn_storage)": {
        "encoding": "mapping",
        "key": "t_address",
        "label": "mapping(address => uint256[])",
        "numberOfBytes": "32",
        "value": "t_array(t_uint256)dyn_storage"
      },
      "t_mapping(t_address,t_uint256)": {
        "encoding": "mapping",
        "key": "t_address",
        "label": "mapping(address => uint256)",
        "numberOfBytes": "32",
        "value": "t_uint256"
      },
      "t_mapping(t_enum(RoundVictoryTier)906,t_uint256)": {
        "encoding": "mapping",
        "key": "t_enum(RoundVictoryTier)906",
        "label": "mapping(enum RoundVictoryTier => uint256)",
        "numberOfBytes": "32",
        "value": "t_uint256"
      },
      "t_mapping(t_uint256,t_array(t_uint16)dyn_storage)": {
        "encoding": "mapping",
        "key": "t_uint256",
        "label": "mapping(uint256 => uint16[])",
        "numberOfBytes": "32",
        "value": "t_array(t_uint16)dyn_storage"
      },
      "t_struct(ReferralTicket)968_storage": {
        "encoding": "inplace",
        "label": "struct ReferralTicket",
        "members": [
          {
            "astId": 959,
            "contract": "contracts/LotteryRound.sol:LotteryRound",
            "label": "id",
            "offset": 0,
            "slot": "0",
            "type": "t_uint256"
          },
          {
            "astId": 961,
            "contract": "contracts/LotteryRound.sol:LotteryRound",
            "label": "referralAddress",
            "offset": 0,
            "slot": "1",
            "type": "t_address"
          },
          {
            "astId": 963,
            "contract": "contracts/LotteryRound.sol:LotteryRound",
            "label": "referralTicketNumber",
            "offset": 20,
            "slot": "1",
            "type": "t_uint16"
          },
          {
            "astId": 965,
            "contract": "contracts/LotteryRound.sol:LotteryRound",
            "label": "winner",
            "offset": 22,
            "slot": "1",
            "type": "t_bool"
          },
          {
            "astId": 967,
            "contract": "contracts/LotteryRound.sol:LotteryRound",
            "label": "claimed",
            "offset": 23,
            "slot": "1",
            "type": "t_bool"
          }
        ],
        "numberOfBytes": "64"
      },
      "t_struct(Round)935_storage": {
        "encoding": "inplace",
        "label": "struct Round",
        "members": [
          {
            "astId": 908,
            "contract": "contracts/LotteryRound.sol:LotteryRound",
            "label": "id",
            "offset": 0,
            "slot": "0",
            "type": "t_uint256"
          },
          {
            "astId": 910,
            "contract": "contracts/LotteryRound.sol:LotteryRound",
            "label": "startTime",
            "offset": 0,
            "slot": "1",
            "type": "t_uint256"
          },
          {
            "astId": 912,
            "contract": "contracts/LotteryRound.sol:LotteryRound",
            "label": "endTime",
            "offset": 0,
            "slot": "2",
            "type": "t_uint256"
          },
          {
            "astId": 914,
            "contract": "contracts/LotteryRound.sol:LotteryRound",
            "label": "ended",
            "offset": 0,
            "slot": "3",
            "type": "t_bool"
          },
          {
            "astId": 917,
            "contract": "contracts/LotteryRound.sol:LotteryRound",
            "label": "roundNumbers",
            "offset": 0,
            "slot": "4",
            "type": "t_array(t_uint16)dyn_storage"
          },
          {
            "astId": 919,
            "contract": "contracts/LotteryRound.sol:LotteryRound",
            "label": "powerNumber",
            "offset": 0,
            "slot": "5",
            "type": "t_uint16"
          },
          {
            "astId": 922,
            "contract": "contracts/LotteryRound.sol:LotteryRound",
            "label": "referralWinnersNumber",
            "offset": 0,
            "slot": "6",
            "type": "t_array(t_uint16)dyn_storage"
          },
          {
            "astId": 924,
            "contract": "contracts/LotteryRound.sol:LotteryRound",
            "label": "referralWinnersNumberCount",
            "offset": 0,
            "slot": "7",
            "type": "t_uint16"
          },
          {
            "astId": 927,
            "contract": "contracts/LotteryRound.sol:LotteryRound",
            "label": "ticketIds",
            "offset": 0,
            "slot": "8",
            "type": "t_array(t_uint256)dyn_storage"
          },
          {
            "astId": 929,
            "contract": "contracts/LotteryRound.sol:LotteryRound",
            "label": "ticketsCount",
            "offset": 0,
            "slot": "9",
            "type": "t_uint16"
          },
          {
            "astId": 932,
            "contract": "contracts/LotteryRound.sol:LotteryRound",
            "label": "referralTicketIds",
            "offset": 0,
            "slot": "10",
            "type": "t_array(t_uint256)dyn_storage"
          },
          {
            "astId": 934,
            "contract": "contracts/LotteryRound.sol:LotteryRound",
            "label": "referralCounts",
            "offset": 0,
            "slot": "11",
            "type": "t_uint16"
          }
        ],
        "numberOfBytes": "384"
      },
      "t_struct(Ticket)951_storage": {
        "encoding": "inplace",
        "label": "struct Ticket",
        "members": [
          {
            "astId": 937,
            "contract": "contracts/LotteryRound.sol:LotteryRound",
            "label": "id",
            "offset": 0,
            "slot": "0",
            "type": "t_uint256"
          },
          {
            "astId": 939,
            "contract": "contracts/LotteryRound.sol:LotteryRound",
            "label": "participantAddress",
            "offset": 0,
            "slot": "1",
            "type": "t_address"
          },
          {
            "astId": 941,
            "contract": "contracts/LotteryRound.sol:LotteryRound",
            "label": "referralAddress",
            "offset": 0,
            "slot": "2",
            "type": "t_address"
          },
          {
            "astId": 943,
            "contract": "contracts/LotteryRound.sol:LotteryRound",
            "label": "claimed",
            "offset": 20,
            "slot": "2",
            "type": "t_bool"
          },
          {
            "astId": 945,
            "contract": "contracts/LotteryRound.sol:LotteryRound",
            "label": "chainId",
            "offset": 0,
            "slot": "3",
            "type": "t_uint256"
          },
          {
            "astId": 948,
            "contract": "contracts/LotteryRound.sol:LotteryRound",
            "label": "victoryTier",
            "offset": 0,
            "slot": "4",
            "type": "t_enum(RoundVictoryTier)906"
          },
          {
            "astId": 950,
            "contract": "contracts/LotteryRound.sol:LotteryRound",
            "label": "powerNumber",
            "offset": 1,
            "slot": "4",
            "type": "t_uint16"
          }
        ],
        "numberOfBytes": "160"
      },
      "t_uint16": {
        "encoding": "inplace",
        "label": "uint16",
        "numberOfBytes": "2"
      },
      "t_uint256": {
        "encoding": "inplace",
        "label": "uint256",
        "numberOfBytes": "32"
      }
    }
  }
}