{
  "address": "0x9e7aA89225C86dBCF59eB7B2e6a6e5FBe7e85d89",
  "abi": [
    {
      "inputs": [
        {
          "internalType": "address",
          "name": "cyclixRandomizer",
          "type": "address"
        },
        {
          "internalType": "address",
          "name": "lotteryReader",
          "type": "address"
        },
        {
          "internalType": "address",
          "name": "_lotteryRoundCreator",
          "type": "address"
        },
        {
          "internalType": "address",
          "name": "_paymentToken",
          "type": "address"
        },
        {
          "internalType": "uint256",
          "name": "_ticketPrice",
          "type": "uint256"
        }
      ],
      "stateMutability": "nonpayable",
      "type": "constructor"
    },
    {
      "inputs": [
        {
          "internalType": "address",
          "name": "target",
          "type": "address"
        }
      ],
      "name": "AddressEmptyCode",
      "type": "error"
    },
    {
      "inputs": [
        {
          "internalType": "address",
          "name": "account",
          "type": "address"
        }
      ],
      "name": "AddressInsufficientBalance",
      "type": "error"
    },
    {
      "inputs": [],
      "name": "FailedInnerCall",
      "type": "error"
    },
    {
      "inputs": [
        {
          "internalType": "address",
          "name": "owner",
          "type": "address"
        }
      ],
      "name": "OwnableInvalidOwner",
      "type": "error"
    },
    {
      "inputs": [
        {
          "internalType": "address",
          "name": "account",
          "type": "address"
        }
      ],
      "name": "OwnableUnauthorizedAccount",
      "type": "error"
    },
    {
      "inputs": [
        {
          "internalType": "address",
          "name": "token",
          "type": "address"
        }
      ],
      "name": "SafeERC20FailedOperation",
      "type": "error"
    },
    {
      "anonymous": false,
      "inputs": [
        {
          "indexed": true,
          "internalType": "address",
          "name": "previousOwner",
          "type": "address"
        },
        {
          "indexed": true,
          "internalType": "address",
          "name": "newOwner",
          "type": "address"
        }
      ],
      "name": "OwnershipTransferred",
      "type": "event"
    },
    {
      "inputs": [
        {
          "internalType": "address",
          "name": "wallet",
          "type": "address"
        }
      ],
      "name": "addBankWallet",
      "outputs": [],
      "stateMutability": "nonpayable",
      "type": "function"
    },
    {
      "inputs": [
        {
          "internalType": "address[]",
          "name": "participant",
          "type": "address[]"
        }
      ],
      "name": "addFreeRound",
      "outputs": [],
      "stateMutability": "nonpayable",
      "type": "function"
    },
    {
      "inputs": [
        {
          "internalType": "uint256",
          "name": "",
          "type": "uint256"
        }
      ],
      "name": "bankWallets",
      "outputs": [
        {
          "internalType": "address",
          "name": "",
          "type": "address"
        }
      ],
      "stateMutability": "view",
      "type": "function"
    },
    {
      "inputs": [
        {
          "internalType": "uint256",
          "name": "chainId",
          "type": "uint256"
        },
        {
          "internalType": "uint16[]",
          "name": "chosenNumbers",
          "type": "uint16[]"
        },
        {
          "internalType": "address",
          "name": "referral",
          "type": "address"
        },
        {
          "internalType": "address",
          "name": "buyer",
          "type": "address"
        }
      ],
      "name": "buyTicket",
      "outputs": [],
      "stateMutability": "nonpayable",
      "type": "function"
    },
    {
      "inputs": [
        {
          "internalType": "uint256",
          "name": "chainId",
          "type": "uint256"
        },
        {
          "internalType": "uint16[]",
          "name": "moreTicketNumbers",
          "type": "uint16[]"
        },
        {
          "internalType": "address",
          "name": "referral",
          "type": "address"
        },
        {
          "internalType": "address",
          "name": "buyer",
          "type": "address"
        }
      ],
      "name": "buyTickets",
      "outputs": [],
      "stateMutability": "nonpayable",
      "type": "function"
    },
    {
      "inputs": [
        {
          "internalType": "uint256",
          "name": "referralTicketId",
          "type": "uint256"
        }
      ],
      "name": "claimReferralVictory",
      "outputs": [],
      "stateMutability": "nonpayable",
      "type": "function"
    },
    {
      "inputs": [
        {
          "internalType": "uint256",
          "name": "ticketId",
          "type": "uint256"
        }
      ],
      "name": "claimVictory",
      "outputs": [],
      "stateMutability": "nonpayable",
      "type": "function"
    },
    {
      "inputs": [
        {
          "internalType": "uint256",
          "name": "_statusEndTime",
          "type": "uint256"
        }
      ],
      "name": "closeRound",
      "outputs": [],
      "stateMutability": "nonpayable",
      "type": "function"
    },
    {
      "inputs": [],
      "name": "counterForBankWallets",
      "outputs": [
        {
          "internalType": "uint16",
          "name": "",
          "type": "uint16"
        }
      ],
      "stateMutability": "view",
      "type": "function"
    },
    {
      "inputs": [
        {
          "internalType": "uint256",
          "name": "roundId",
          "type": "uint256"
        },
        {
          "internalType": "uint256",
          "name": "_statusEndTime",
          "type": "uint256"
        }
      ],
      "name": "fetchRoundNumbers",
      "outputs": [],
      "stateMutability": "nonpayable",
      "type": "function"
    },
    {
      "inputs": [
        {
          "internalType": "address",
          "name": "",
          "type": "address"
        }
      ],
      "name": "freeRounds",
      "outputs": [
        {
          "internalType": "uint16",
          "name": "",
          "type": "uint16"
        }
      ],
      "stateMutability": "view",
      "type": "function"
    },
    {
      "inputs": [],
      "name": "freeRoundsAreEnabled",
      "outputs": [
        {
          "internalType": "bool",
          "name": "",
          "type": "bool"
        }
      ],
      "stateMutability": "view",
      "type": "function"
    },
    {
      "inputs": [],
      "name": "lotteryRoundCreator",
      "outputs": [
        {
          "internalType": "contract LotteryRoundCreatorInterface",
          "name": "",
          "type": "address"
        }
      ],
      "stateMutability": "view",
      "type": "function"
    },
    {
      "inputs": [],
      "name": "lotteryStatus",
      "outputs": [
        {
          "internalType": "enum LotteryStatuses",
          "name": "",
          "type": "uint8"
        }
      ],
      "stateMutability": "view",
      "type": "function"
    },
    {
      "inputs": [
        {
          "internalType": "uint256",
          "name": "roundId",
          "type": "uint256"
        },
        {
          "internalType": "uint256",
          "name": "claimingTimeInSeconds",
          "type": "uint256"
        }
      ],
      "name": "markWinners",
      "outputs": [],
      "stateMutability": "nonpayable",
      "type": "function"
    },
    {
      "inputs": [],
      "name": "owner",
      "outputs": [
        {
          "internalType": "address",
          "name": "",
          "type": "address"
        }
      ],
      "stateMutability": "view",
      "type": "function"
    },
    {
      "inputs": [],
      "name": "paymentToken",
      "outputs": [
        {
          "internalType": "contract IERC20Metadata",
          "name": "",
          "type": "address"
        }
      ],
      "stateMutability": "view",
      "type": "function"
    },
    {
      "inputs": [],
      "name": "percentageOfReferralWinners",
      "outputs": [
        {
          "internalType": "uint16",
          "name": "",
          "type": "uint16"
        }
      ],
      "stateMutability": "view",
      "type": "function"
    },
    {
      "inputs": [
        {
          "internalType": "uint256",
          "name": "",
          "type": "uint256"
        }
      ],
      "name": "publicRoundRandomNumbersRequestId",
      "outputs": [
        {
          "internalType": "uint256",
          "name": "",
          "type": "uint256"
        }
      ],
      "stateMutability": "view",
      "type": "function"
    },
    {
      "inputs": [],
      "name": "randomizer",
      "outputs": [
        {
          "internalType": "contract CyclixRandomizerInterface",
          "name": "",
          "type": "address"
        }
      ],
      "stateMutability": "view",
      "type": "function"
    },
    {
      "inputs": [],
      "name": "reader",
      "outputs": [
        {
          "internalType": "contract LotteryReaderInterface",
          "name": "",
          "type": "address"
        }
      ],
      "stateMutability": "view",
      "type": "function"
    },
    {
      "inputs": [
        {
          "internalType": "address",
          "name": "wallet",
          "type": "address"
        }
      ],
      "name": "removeBankWallet",
      "outputs": [],
      "stateMutability": "nonpayable",
      "type": "function"
    },
    {
      "inputs": [],
      "name": "renounceOwnership",
      "outputs": [],
      "stateMutability": "nonpayable",
      "type": "function"
    },
    {
      "inputs": [],
      "name": "roundCount",
      "outputs": [
        {
          "internalType": "uint256",
          "name": "",
          "type": "uint256"
        }
      ],
      "stateMutability": "view",
      "type": "function"
    },
    {
      "inputs": [
        {
          "internalType": "uint256",
          "name": "",
          "type": "uint256"
        }
      ],
      "name": "rounds",
      "outputs": [
        {
          "internalType": "address",
          "name": "",
          "type": "address"
        }
      ],
      "stateMutability": "view",
      "type": "function"
    },
    {
      "inputs": [],
      "name": "sendCryptoToTeam",
      "outputs": [],
      "stateMutability": "nonpayable",
      "type": "function"
    },
    {
      "inputs": [
        {
          "internalType": "address",
          "name": "_token",
          "type": "address"
        }
      ],
      "name": "sendTokenToTeam",
      "outputs": [],
      "stateMutability": "nonpayable",
      "type": "function"
    },
    {
      "inputs": [
        {
          "internalType": "address",
          "name": "operator",
          "type": "address"
        },
        {
          "internalType": "bool",
          "name": "value",
          "type": "bool"
        }
      ],
      "name": "setCrossChainOperator",
      "outputs": [],
      "stateMutability": "nonpayable",
      "type": "function"
    },
    {
      "inputs": [
        {
          "internalType": "bool",
          "name": "v",
          "type": "bool"
        }
      ],
      "name": "setFreeRoundsOnPurchase",
      "outputs": [],
      "stateMutability": "nonpayable",
      "type": "function"
    },
    {
      "inputs": [
        {
          "internalType": "address",
          "name": "_paymentToken",
          "type": "address"
        }
      ],
      "name": "setPaymentToken",
      "outputs": [],
      "stateMutability": "nonpayable",
      "type": "function"
    },
    {
      "inputs": [
        {
          "internalType": "uint16",
          "name": "percentage",
          "type": "uint16"
        }
      ],
      "name": "setPercentageOfReferralWinners",
      "outputs": [],
      "stateMutability": "nonpayable",
      "type": "function"
    },
    {
      "inputs": [
        {
          "internalType": "uint16[]",
          "name": "_poolPercentagesBasePoints",
          "type": "uint16[]"
        }
      ],
      "name": "setPoolPercentagesBasePoints",
      "outputs": [],
      "stateMutability": "nonpayable",
      "type": "function"
    },
    {
      "inputs": [
        {
          "internalType": "uint256",
          "name": "_ticketPrice",
          "type": "uint256"
        }
      ],
      "name": "setTicketPrice",
      "outputs": [],
      "stateMutability": "nonpayable",
      "type": "function"
    },
    {
      "inputs": [
        {
          "internalType": "address",
          "name": "wallet",
          "type": "address"
        }
      ],
      "name": "setTreasuryWallet",
      "outputs": [],
      "stateMutability": "nonpayable",
      "type": "function"
    },
    {
      "inputs": [
        {
          "internalType": "uint256",
          "name": "_statusEndTime",
          "type": "uint256"
        }
      ],
      "name": "startNewRound",
      "outputs": [],
      "stateMutability": "nonpayable",
      "type": "function"
    },
    {
      "inputs": [],
      "name": "statusEndTime",
      "outputs": [
        {
          "internalType": "uint256",
          "name": "",
          "type": "uint256"
        }
      ],
      "stateMutability": "view",
      "type": "function"
    },
    {
      "inputs": [],
      "name": "statusStartTime",
      "outputs": [
        {
          "internalType": "uint256",
          "name": "",
          "type": "uint256"
        }
      ],
      "stateMutability": "view",
      "type": "function"
    },
    {
      "inputs": [],
      "name": "ticketPrice",
      "outputs": [
        {
          "internalType": "uint256",
          "name": "",
          "type": "uint256"
        }
      ],
      "stateMutability": "view",
      "type": "function"
    },
    {
      "inputs": [
        {
          "internalType": "address",
          "name": "newOwner",
          "type": "address"
        }
      ],
      "name": "transferOwnership",
      "outputs": [],
      "stateMutability": "nonpayable",
      "type": "function"
    },
    {
      "inputs": [],
      "name": "treasuryWallets",
      "outputs": [
        {
          "internalType": "address",
          "name": "",
          "type": "address"
        }
      ],
      "stateMutability": "view",
      "type": "function"
    },
    {
      "inputs": [
        {
          "internalType": "address",
          "name": "_teamAddress",
          "type": "address"
        }
      ],
      "name": "updateTeamAddress",
      "outputs": [],
      "stateMutability": "nonpayable",
      "type": "function"
    }
  ],
  "transactionHash": "0x4533f44d2d721d55d953dafbc9992af626e785370a05805fb4ce62fe3d4ce70d",
  "args": [
    "0x634b6fA78617C8131F866822B407B2D606FbE424",
    "0x02B20cB9D09AF0D860084c8959CFCB99E1256e3F",
    "0xdD52ED1A77825fF149445B454321694208a0E60f",
    "0x2e13f2B116b8d4B765D730f20A4aF09d15D8B62e",
    10
  ],
  "numDeployments": 4,
  "solcInputHash": "badce1d8e7635231dc9117a9beb5fee1",
  "bytecode": "0x60806040526000601060006101000a81548160ff021916908315150217905550600a601060016101000a81548161ffff021916908361ffff1602179055503480156200004a57600080fd5b506040516200691c3803806200691c8339818101604052810190620000709190620005a0565b3380600073ffffffffffffffffffffffffffffffffffffffff168173ffffffffffffffffffffffffffffffffffffffff1603620000e75760006040517f1e4fbdf7000000000000000000000000000000000000000000000000000000008152600401620000de919062000639565b60405180910390fd5b620000f8816200043760201b60201c565b5080600160006101000a81548173ffffffffffffffffffffffffffffffffffffffff021916908373ffffffffffffffffffffffffffffffffffffffff1602179055505084600d60006101000a81548173ffffffffffffffffffffffffffffffffffffffff021916908373ffffffffffffffffffffffffffffffffffffffff160217905550600d60009054906101000a900473ffffffffffffffffffffffffffffffffffffffff1673ffffffffffffffffffffffffffffffffffffffff1663cd0f2311306040518263ffffffff1660e01b8152600401620001d99190620006b7565b600060405180830381600087803b158015620001f457600080fd5b505af115801562000209573d6000803e3d6000fd5b5050505083600e60006101000a81548173ffffffffffffffffffffffffffffffffffffffff021916908373ffffffffffffffffffffffffffffffffffffffff16021790555082601060036101000a81548173ffffffffffffffffffffffffffffffffffffffff021916908373ffffffffffffffffffffffffffffffffffffffff16021790555081600c60006101000a81548173ffffffffffffffffffffffffffffffffffffffff021916908373ffffffffffffffffffffffffffffffffffffffff160217905550600c60009054906101000a900473ffffffffffffffffffffffffffffffffffffffff1673ffffffffffffffffffffffffffffffffffffffff1663313ce5676040518163ffffffff1660e01b8152600401602060405180830381865afa1580156200033e573d6000803e3d6000fd5b505050506040513d601f19601f8201168201806040525081019062000364919062000727565b60ff16600a620003759190620008dc565b816200038291906200092d565b600f8190555033600b60006101000a81548173ffffffffffffffffffffffffffffffffffffffff021916908373ffffffffffffffffffffffffffffffffffffffff160217905550600a339080600181540180825580915050600190039060005260206000200160009091909190916101000a81548173ffffffffffffffffffffffffffffffffffffffff021916908373ffffffffffffffffffffffffffffffffffffffff160217905550505050505062000978565b60008060009054906101000a900473ffffffffffffffffffffffffffffffffffffffff169050816000806101000a81548173ffffffffffffffffffffffffffffffffffffffff021916908373ffffffffffffffffffffffffffffffffffffffff1602179055508173ffffffffffffffffffffffffffffffffffffffff168173ffffffffffffffffffffffffffffffffffffffff167f8be0079c531659141344cd1fd0a4f28419497f9722a3daafe3b4186f6b6457e060405160405180910390a35050565b600080fd5b600073ffffffffffffffffffffffffffffffffffffffff82169050919050565b60006200052d8262000500565b9050919050565b6200053f8162000520565b81146200054b57600080fd5b50565b6000815190506200055f8162000534565b92915050565b6000819050919050565b6200057a8162000565565b81146200058657600080fd5b50565b6000815190506200059a816200056f565b92915050565b600080600080600060a08688031215620005bf57620005be620004fb565b5b6000620005cf888289016200054e565b9550506020620005e2888289016200054e565b9450506040620005f5888289016200054e565b935050606062000608888289016200054e565b92505060806200061b8882890162000589565b9150509295509295909350565b620006338162000520565b82525050565b600060208201905062000650600083018462000628565b92915050565b600082825260208201905092915050565b7f4c6f74746572794d617374657256302e31000000000000000000000000000000600082015250565b60006200069f60118362000656565b9150620006ac8262000667565b602082019050919050565b6000604082019050620006ce600083018462000628565b8181036020830152620006e18162000690565b905092915050565b600060ff82169050919050565b6200070181620006e9565b81146200070d57600080fd5b50565b6000815190506200072181620006f6565b92915050565b60006020828403121562000740576200073f620004fb565b5b6000620007508482850162000710565b91505092915050565b7f4e487b7100000000000000000000000000000000000000000000000000000000600052601160045260246000fd5b60008160011c9050919050565b6000808291508390505b6001851115620007e757808604811115620007bf57620007be62000759565b5b6001851615620007cf5780820291505b8081029050620007df8562000788565b94506200079f565b94509492505050565b600082620008025760019050620008d5565b81620008125760009050620008d5565b81600181146200082b576002811462000836576200086c565b6001915050620008d5565b60ff8411156200084b576200084a62000759565b5b8360020a91508482111562000865576200086462000759565b5b50620008d5565b5060208310610133831016604e8410600b8410161715620008a65782820a905083811115620008a0576200089f62000759565b5b620008d5565b620008b5848484600162000795565b92509050818404811115620008cf57620008ce62000759565b5b81810290505b9392505050565b6000620008e98262000565565b9150620008f68362000565565b9250620009257fffffffffffffffffffffffffffffffffffffffffffffffffffffffffffffffff8484620007f0565b905092915050565b60006200093a8262000565565b9150620009478362000565565b9250828202620009578162000565565b9150828204841483151762000971576200097062000759565b5b5092915050565b615f9480620009886000396000f3fe608060405234801561001057600080fd5b50600436106102535760003560e01c806388e01a9811610146578063b62fe01b116100c3578063d4fc42c611610087578063d4fc42c61461066c578063e03d753a1461068a578063eb7165fa146106a8578063f10fb584146106c4578063f2fde38b146106e2578063f4dec22b146106fe57610253565b8063b62fe01b146105de578063ba968494146105fa578063bbd1783a14610616578063c96acb5a14610620578063cedd1bc31461063c57610253565b8063998da3e91161010a578063998da3e914610552578063a8602fea1461056e578063a8eed12d1461058a578063b086f3c0146105a6578063b33d8c54146105c257610253565b806388e01a98146104ae5780638c65c81f146104ca5780638da5cb5b146104fa57806392566fdd146105185780639469f2931461053657610253565b8063258799f8116101d45780634ff776b8116101985780634ff776b8146104325780636a326ab11461044e578063715018a61461046a5780637a5ed7211461047457806387da46f11461049057610253565b8063258799f81461038e5780633013ce29146103be57806339c834e9146103dc5780633fda7d95146103f85780634615102c1461041657610253565b806314eb76ac1161021b57806314eb76ac146102ec57806315981650146103085780631e410ddb146103245780631fcebf6814610340578063224294291461037057610253565b80630d683dd9146102585780630f5c49de14610276578063104dc360146102925780631209b1f6146102b0578063127f0b3f146102ce575b600080fd5b61026061071c565b60405161026d9190613f8f565b60405180910390f35b610290600480360381019061028b9190613ff6565b61072f565b005b61029a610754565b6040516102a79190614064565b60405180910390f35b6102b861077a565b6040516102c59190614098565b60405180910390f35b6102d6610780565b6040516102e39190614098565b60405180910390f35b610306600480360381019061030191906140df565b610786565b005b610322600480360381019061031d9190614138565b6107d2565b005b61033e6004803603810190610339919061419f565b6107e4565b005b61035a600480360381019061035591906140df565b61080c565b60405161036791906141db565b60405180910390f35b61037861082d565b6040516103859190614098565b60405180910390f35b6103a860048036038101906103a39190614138565b610833565b6040516103b59190614064565b60405180910390f35b6103c6610872565b6040516103d39190614255565b60405180910390f35b6103f660048036038101906103f191906140df565b610898565b005b610400610a26565b60405161040d9190614098565b60405180910390f35b610430600480360381019061042b9190614138565b610a2c565b005b61044c60048036038101906104479190614138565b610f6d565b005b610468600480360381019061046391906140df565b611823565b005b61047261186f565b005b61048e600480360381019061048991906143c9565b611883565b005b61049861196e565b6040516104a5919061446d565b60405180910390f35b6104c860048036038101906104c39190614138565b611994565b005b6104e460048036038101906104df9190614138565b611bfb565b6040516104f19190614064565b60405180910390f35b610502611c3a565b60405161050f9190614064565b60405180910390f35b610520611c63565b60405161052d91906141db565b60405180910390f35b610550600480360381019061054b9190614488565b611c77565b005b61056c600480360381019061056791906140df565b611d39565b005b610588600480360381019061058391906140df565b611dfa565b005b6105a4600480360381019061059f91906144d1565b611e46565b005b6105c060048036038101906105bb9190614138565b611ea9565b005b6105dc60048036038101906105d7919061456c565b6126b8565b005b6105f860048036038101906105f391906145b9565b61277f565b005b610614600480360381019061060f91906140df565b612d7b565b005b61061e612eba565b005b61063a600480360381019061063591906145b9565b612f37565b005b61065660048036038101906106519190614138565b61317e565b6040516106639190614098565b60405180910390f35b610674613196565b604051610681919061461a565b60405180910390f35b6106926131bc565b60405161069f9190614644565b60405180910390f35b6106c260048036038101906106bd91906143c9565b6131cf565b005b6106cc613873565b6040516106d99190614680565b60405180910390f35b6106fc60048036038101906106f791906140df565b613899565b005b61070661391f565b60405161071391906141db565b60405180910390f35b600460009054906101000a900460ff1681565b610737613933565b80601060006101000a81548160ff02191690831515021790555050565b600b60009054906101000a900473ffffffffffffffffffffffffffffffffffffffff1681565b600f5481565b60025481565b61078e613933565b80600160006101000a81548173ffffffffffffffffffffffffffffffffffffffff021916908373ffffffffffffffffffffffffffffffffffffffff16021790555050565b6107da613933565b80600f8190555050565b6107ec613933565b80601060016101000a81548161ffff021916908361ffff16021790555050565b60076020528060005260406000206000915054906101000a900461ffff1681565b60065481565b600a818154811061084357600080fd5b906000526020600020016000915054906101000a900473ffffffffffffffffffffffffffffffffffffffff1681565b600c60009054906101000a900473ffffffffffffffffffffffffffffffffffffffff1681565b6108a0613933565b60005b600a80549050811015610a22578173ffffffffffffffffffffffffffffffffffffffff16600a82815481106108db576108da61469b565b5b9060005260206000200160009054906101000a900473ffffffffffffffffffffffffffffffffffffffff1673ffffffffffffffffffffffffffffffffffffffff1603610a1557600a6001600a8054905061093591906146f9565b815481106109465761094561469b565b5b9060005260206000200160009054906101000a900473ffffffffffffffffffffffffffffffffffffffff16600a82815481106109855761098461469b565b5b9060005260206000200160006101000a81548173ffffffffffffffffffffffffffffffffffffffff021916908373ffffffffffffffffffffffffffffffffffffffff160217905550600a8054806109df576109de61472d565b5b6001900381819060005260206000200160006101000a81549073ffffffffffffffffffffffffffffffffffffffff021916905590555b80806001019150506108a3565b5050565b60055481565b610a34613933565b60026000815480929190610a479061475c565b919050555060016002541115610e22576003601060039054906101000a900473ffffffffffffffffffffffffffffffffffffffff1673ffffffffffffffffffffffffffffffffffffffff166363ea940f83600360028054610aa891906146f9565b81548110610ab957610ab861469b565b5b9060005260206000200160009054906101000a900473ffffffffffffffffffffffffffffffffffffffff166040518363ffffffff1660e01b8152600401610b019291906147a4565b6020604051808303816000875af1158015610b20573d6000803e3d6000fd5b505050506040513d601f19601f82011682018060405250810190610b4491906147e2565b9080600181540180825580915050600190039060005260206000200160009091909190916101000a81548173ffffffffffffffffffffffffffffffffffffffff021916908373ffffffffffffffffffffffffffffffffffffffff160217905550600360028054610bb491906146f9565b81548110610bc557610bc461469b565b5b9060005260206000200160009054906101000a900473ffffffffffffffffffffffffffffffffffffffff1673ffffffffffffffffffffffffffffffffffffffff16639f8743f76040518163ffffffff1660e01b81526004016000604051808303816000875af1158015610c3c573d6000803e3d6000fd5b505050506040513d6000823e3d601f19601f82011682018060405250810190610c659190614b2e565b60600151610ca8576040517f08c379a0000000000000000000000000000000000000000000000000000000008152600401610c9f90614bd4565b60405180910390fd5b60036001600254610cb991906146f9565b81548110610cca57610cc961469b565b5b9060005260206000200160009054906101000a900473ffffffffffffffffffffffffffffffffffffffff1673ffffffffffffffffffffffffffffffffffffffff1663b288e1a96040518163ffffffff1660e01b81526004016020604051808303816000875af1158015610d41573d6000803e3d6000fd5b505050506040513d601f19601f82011682018060405250810190610d6591906147e2565b73ffffffffffffffffffffffffffffffffffffffff16600360028054610d8b91906146f9565b81548110610d9c57610d9b61469b565b5b9060005260206000200160009054906101000a900473ffffffffffffffffffffffffffffffffffffffff1673ffffffffffffffffffffffffffffffffffffffff1614610e1d576040517f08c379a0000000000000000000000000000000000000000000000000000000008152600401610e1490614c66565b60405180910390fd5b610f26565b6003601060039054906101000a900473ffffffffffffffffffffffffffffffffffffffff1673ffffffffffffffffffffffffffffffffffffffff166363ea940f8360006040518363ffffffff1660e01b8152600401610e829291906147a4565b6020604051808303816000875af1158015610ea1573d6000803e3d6000fd5b505050506040513d601f19601f82011682018060405250810190610ec591906147e2565b9080600181540180825580915050600190039060005260206000200160009091909190916101000a81548173ffffffffffffffffffffffffffffffffffffffff021916908373ffffffffffffffffffffffffffffffffffffffff1602179055505b6000600460006101000a81548160ff02191690836003811115610f4c57610f4b613f18565b5b0217905550426005819055508042610f649190614c86565b60068190555050565b600060036001600254610f8091906146f9565b81548110610f9157610f9061469b565b5b9060005260206000200160009054906101000a900473ffffffffffffffffffffffffffffffffffffffff16905060008173ffffffffffffffffffffffffffffffffffffffff16639b7be8fc846040518263ffffffff1660e01b8152600401610ff99190614098565b60c060405180830381865afa158015611016573d6000803e3d6000fd5b505050506040513d601f19601f8201168201806040525081019061103a9190614d7f565b905082816000015114611082576040517f08c379a000000000000000000000000000000000000000000000000000000000815260040161107990614df8565b60405180910390fd5b3373ffffffffffffffffffffffffffffffffffffffff16816020015173ffffffffffffffffffffffffffffffffffffffff16146110f4576040517f08c379a00000000000000000000000000000000000000000000000000000000081526004016110eb90614e64565b60405180910390fd5b806060015115611139576040517f08c379a000000000000000000000000000000000000000000000000000000000815260040161113090614ed0565b60405180910390fd5b8173ffffffffffffffffffffffffffffffffffffffff16639f8743f76040518163ffffffff1660e01b81526004016000604051808303816000875af1158015611186573d6000803e3d6000fd5b505050506040513d6000823e3d601f19601f820116820180604052508101906111af9190614b2e565b606001516111f2576040517f08c379a00000000000000000000000000000000000000000000000000000000081526004016111e990614f3c565b60405180910390fd5b60038081111561120557611204613f18565b5b600460009054906101000a900460ff16600381111561122757611226613f18565b5b14611267576040517f08c379a000000000000000000000000000000000000000000000000000000000815260040161125e90614fa8565b60405180910390fd5b60055442116112ab576040517f08c379a00000000000000000000000000000000000000000000000000000000081526004016112a290615014565b60405180910390fd5b60065442106112ef576040517f08c379a00000000000000000000000000000000000000000000000000000000081526004016112e690615080565b60405180910390fd5b6000600a81111561130357611302613f18565b5b8160a00151600a81111561131a57611319613f18565b5b0361135a576040517f08c379a0000000000000000000000000000000000000000000000000000000008152600401611351906150ec565b60405180910390fd5b600e60009054906101000a900473ffffffffffffffffffffffffffffffffffffffff1673ffffffffffffffffffffffffffffffffffffffff16632aa601708373ffffffffffffffffffffffffffffffffffffffff16639f8743f76040518163ffffffff1660e01b81526004016000604051808303816000875af11580156113e5573d6000803e3d6000fd5b505050506040513d6000823e3d601f19601f8201168201806040525081019061140e9190614b2e565b60000151856040518363ffffffff1660e01b815260040161143092919061510c565b6040805180830381865afa15801561144c573d6000803e3d6000fd5b505050506040513d601f19601f820116820180604052508101906114709190615185565b60200151600a81111561148657611485613f18565b5b8160a00151600a81111561149d5761149c613f18565b5b146114dd576040517f08c379a00000000000000000000000000000000000000000000000000000000081526004016114d4906151fe565b60405180910390fd5b60008273ffffffffffffffffffffffffffffffffffffffff1663efa3d5318360a001516040518263ffffffff1660e01b815260040161151c9190615266565b6020604051808303816000875af115801561153b573d6000803e3d6000fd5b505050506040513d601f19601f8201168201806040525081019061155f9190615281565b8373ffffffffffffffffffffffffffffffffffffffff1663e2e308308460a001516040518263ffffffff1660e01b815260040161159c9190615266565b602060405180830381865afa1580156115b9573d6000803e3d6000fd5b505050506040513d601f19601f820116820180604052508101906115dd9190615281565b816115eb576115ea6152ae565b5b04905080600c60009054906101000a900473ffffffffffffffffffffffffffffffffffffffff1673ffffffffffffffffffffffffffffffffffffffff166370a08231306040518263ffffffff1660e01b815260040161164a9190614064565b602060405180830381865afa158015611667573d6000803e3d6000fd5b505050506040513d601f19601f8201168201806040525081019061168b9190615281565b10156116cc576040517f08c379a00000000000000000000000000000000000000000000000000000000081526004016116c390615329565b60405180910390fd5b6003600160025403815481106116e5576116e461469b565b5b9060005260206000200160009054906101000a900473ffffffffffffffffffffffffffffffffffffffff1673ffffffffffffffffffffffffffffffffffffffff166382e5892385836040518363ffffffff1660e01b815260040161174a92919061510c565b600060405180830381600087803b15801561176457600080fd5b505af1158015611778573d6000803e3d6000fd5b50505050600c60009054906101000a900473ffffffffffffffffffffffffffffffffffffffff1673ffffffffffffffffffffffffffffffffffffffff1663a9059cbb33836040518363ffffffff1660e01b81526004016117d9929190615349565b6020604051808303816000875af11580156117f8573d6000803e3d6000fd5b505050506040513d601f19601f8201168201806040525081019061181c9190615372565b5050505050565b61182b613933565b80600c60006101000a81548173ffffffffffffffffffffffffffffffffffffffff021916908373ffffffffffffffffffffffffffffffffffffffff16021790555050565b611877613933565b61188160006139ba565b565b60005b8351811015611967576000600667ffffffffffffffff8111156118ac576118ab614286565b5b6040519080825280602002602001820160405280156118da5781602001602082028036833780820191505090505b50905060005b6006811015611945578581846118f69190614c86565b815181106119075761190661469b565b5b60200260200101518282815181106119225761192161469b565b5b602002602001019061ffff16908161ffff168152505080806001019150506118e0565b50611952868286866131cf565b506006816119609190614c86565b9050611886565b5050505050565b601060039054906101000a900473ffffffffffffffffffffffffffffffffffffffff1681565b61199c613933565b6000600360016002546119af91906146f9565b815481106119c0576119bf61469b565b5b9060005260206000200160009054906101000a900473ffffffffffffffffffffffffffffffffffffffff1690508073ffffffffffffffffffffffffffffffffffffffff1663e278fe6f6040518163ffffffff1660e01b8152600401600060405180830381600087803b158015611a3557600080fd5b505af1158015611a49573d6000803e3d6000fd5b505050506000600e60009054906101000a900473ffffffffffffffffffffffffffffffffffffffff1673ffffffffffffffffffffffffffffffffffffffff1663f1664df66002546040518263ffffffff1660e01b8152600401611aac9190614098565b602060405180830381865afa158015611ac9573d6000803e3d6000fd5b505050506040513d601f19601f82011682018060405250810190611aed919061539f565b9050600d60009054906101000a900473ffffffffffffffffffffffffffffffffffffffff1673ffffffffffffffffffffffffffffffffffffffff1663e726f2e1826006611b3a91906153cc565b6040518263ffffffff1660e01b8152600401611b569190615443565b6020604051808303816000875af1158015611b75573d6000803e3d6000fd5b505050506040513d601f19601f82011682018060405250810190611b999190615281565b601160006002548152602001908152602001600020819055506001600460006101000a81548160ff02191690836003811115611bd857611bd7613f18565b5b0217905550426005819055508242611bf09190614c86565b600681905550505050565b60038181548110611c0b57600080fd5b906000526020600020016000915054906101000a900473ffffffffffffffffffffffffffffffffffffffff1681565b60008060009054906101000a900473ffffffffffffffffffffffffffffffffffffffff16905090565b600960009054906101000a900461ffff1681565b611c7f613933565b60036001600254611c9091906146f9565b81548110611ca157611ca061469b565b5b9060005260206000200160009054906101000a900473ffffffffffffffffffffffffffffffffffffffff1673ffffffffffffffffffffffffffffffffffffffff16639469f293826040518263ffffffff1660e01b8152600401611d04919061551c565b600060405180830381600087803b158015611d1e57600080fd5b505af1158015611d32573d6000803e3d6000fd5b5050505050565b611d41613933565b60008173ffffffffffffffffffffffffffffffffffffffff166370a08231306040518263ffffffff1660e01b8152600401611d7c9190614064565b602060405180830381865afa158015611d99573d6000803e3d6000fd5b505050506040513d601f19601f82011682018060405250810190611dbd9190615281565b90506000811115611df657611df582600160009054906101000a900473ffffffffffffffffffffffffffffffffffffffff1683613a7e565b5b5050565b611e02613933565b80600b60006101000a81548173ffffffffffffffffffffffffffffffffffffffff021916908373ffffffffffffffffffffffffffffffffffffffff16021790555050565b611e4e613933565b80600860008473ffffffffffffffffffffffffffffffffffffffff1673ffffffffffffffffffffffffffffffffffffffff16815260200190815260200160002060006101000a81548160ff0219169083151502179055505050565b600060036001600254611ebc91906146f9565b81548110611ecd57611ecc61469b565b5b9060005260206000200160009054906101000a900473ffffffffffffffffffffffffffffffffffffffff16905060008173ffffffffffffffffffffffffffffffffffffffff1663dd85ae5f846040518263ffffffff1660e01b8152600401611f359190614098565b60a060405180830381865afa158015611f52573d6000803e3d6000fd5b505050506040513d601f19601f82011682018060405250810190611f7691906155ca565b905082816000015114611fbe576040517f08c379a0000000000000000000000000000000000000000000000000000000008152600401611fb590614df8565b60405180910390fd5b3373ffffffffffffffffffffffffffffffffffffffff16816020015173ffffffffffffffffffffffffffffffffffffffff1614612030576040517f08c379a000000000000000000000000000000000000000000000000000000000815260040161202790614e64565b60405180910390fd5b806080015115612075576040517f08c379a000000000000000000000000000000000000000000000000000000000815260040161206c90614ed0565b60405180910390fd5b8173ffffffffffffffffffffffffffffffffffffffff16639f8743f76040518163ffffffff1660e01b81526004016000604051808303816000875af11580156120c2573d6000803e3d6000fd5b505050506040513d6000823e3d601f19601f820116820180604052508101906120eb9190614b2e565b6060015161212e576040517f08c379a000000000000000000000000000000000000000000000000000000000815260040161212590614f3c565b60405180910390fd5b600115158160600151151514612179576040517f08c379a0000000000000000000000000000000000000000000000000000000008152600401612170906150ec565b60405180910390fd5b600e60009054906101000a900473ffffffffffffffffffffffffffffffffffffffff1673ffffffffffffffffffffffffffffffffffffffff1663078a6dbf8373ffffffffffffffffffffffffffffffffffffffff16639f8743f76040518163ffffffff1660e01b81526004016000604051808303816000875af1158015612204573d6000803e3d6000fd5b505050506040513d6000823e3d601f19601f8201168201806040525081019061222d9190614b2e565b60000151856040518363ffffffff1660e01b815260040161224f92919061510c565b6040805180830381865afa15801561226b573d6000803e3d6000fd5b505050506040513d601f19601f8201168201806040525081019061228f9190615647565b60200151151581606001511515146122dc576040517f08c379a00000000000000000000000000000000000000000000000000000000081526004016122d3906151fe565b60405180910390fd5b6000600e60009054906101000a900473ffffffffffffffffffffffffffffffffffffffff1673ffffffffffffffffffffffffffffffffffffffff1663f1664df68473ffffffffffffffffffffffffffffffffffffffff16639f8743f76040518163ffffffff1660e01b81526004016000604051808303816000875af1158015612369573d6000803e3d6000fd5b505050506040513d6000823e3d601f19601f820116820180604052508101906123929190614b2e565b600001516040518263ffffffff1660e01b81526004016123b29190614098565b602060405180830381865afa1580156123cf573d6000803e3d6000fd5b505050506040513d601f19601f820116820180604052508101906123f3919061539f565b61ffff168373ffffffffffffffffffffffffffffffffffffffff1663e2e3083060076040518263ffffffff1660e01b81526004016124319190615266565b602060405180830381865afa15801561244e573d6000803e3d6000fd5b505050506040513d601f19601f820116820180604052508101906124729190615281565b816124805761247f6152ae565b5b04905080600c60009054906101000a900473ffffffffffffffffffffffffffffffffffffffff1673ffffffffffffffffffffffffffffffffffffffff166370a08231306040518263ffffffff1660e01b81526004016124df9190614064565b602060405180830381865afa1580156124fc573d6000803e3d6000fd5b505050506040513d601f19601f820116820180604052508101906125209190615281565b1015612561576040517f08c379a000000000000000000000000000000000000000000000000000000000815260040161255890615329565b60405180910390fd5b60036001600254038154811061257a5761257961469b565b5b9060005260206000200160009054906101000a900473ffffffffffffffffffffffffffffffffffffffff1673ffffffffffffffffffffffffffffffffffffffff16630cee803c85836040518363ffffffff1660e01b81526004016125df92919061510c565b600060405180830381600087803b1580156125f957600080fd5b505af115801561260d573d6000803e3d6000fd5b50505050600c60009054906101000a900473ffffffffffffffffffffffffffffffffffffffff1673ffffffffffffffffffffffffffffffffffffffff1663a9059cbb33836040518363ffffffff1660e01b815260040161266e929190615349565b6020604051808303816000875af115801561268d573d6000803e3d6000fd5b505050506040513d601f19601f820116820180604052508101906126b19190615372565b5050505050565b6126c0613933565b60005b8282905081101561277a57600760008484848181106126e5576126e461469b565b5b90506020020160208101906126fa91906140df565b73ffffffffffffffffffffffffffffffffffffffff1673ffffffffffffffffffffffffffffffffffffffff168152602001908152602001600020600081819054906101000a900461ffff168092919061275290615674565b91906101000a81548161ffff021916908361ffff1602179055505080806001019150506126c3565b505050565b612787613933565b6000600360018461279891906146f9565b815481106127a9576127a861469b565b5b9060005260206000200160009054906101000a900473ffffffffffffffffffffffffffffffffffffffff1690508073ffffffffffffffffffffffffffffffffffffffff1663343f25666040518163ffffffff1660e01b815260040160006040518083038186803b15801561281c57600080fd5b505afa158015612830573d6000803e3d6000fd5b50505050600080600d60009054906101000a900473ffffffffffffffffffffffffffffffffffffffff1673ffffffffffffffffffffffffffffffffffffffff1663d8a4676f60116000888152602001908152602001600020546040518263ffffffff1660e01b81526004016128a59190614098565b600060405180830381865afa1580156128c2573d6000803e3d6000fd5b505050506040513d6000823e3d601f19601f820116820180604052508101906128eb919061569e565b915091508161292f576040517f08c379a000000000000000000000000000000000000000000000000000000000815260040161292690615746565b60405180910390fd5b6000600667ffffffffffffffff81111561294c5761294b614286565b5b60405190808252806020026020018201604052801561297a5781602001602082028036833780820191505090505b50905060006006835161298d91906146f9565b67ffffffffffffffff8111156129a6576129a5614286565b5b6040519080825280602002602001820160405280156129d45781602001602082028036833780820191505090505b5090508315612cc15760005b6006811015612ada57600e60009054906101000a900473ffffffffffffffffffffffffffffffffffffffff1673ffffffffffffffffffffffffffffffffffffffff16630c746a8a858381518110612a3a57612a3961469b565b5b60200260200101516045866040518463ffffffff1660e01b8152600401612a63939291906157a1565b602060405180830381865afa158015612a80573d6000803e3d6000fd5b505050506040513d601f19601f82011682018060405250810190612aa4919061539f565b838281518110612ab757612ab661469b565b5b602002602001019061ffff16908161ffff168152505080806001019150506129e0565b506001601a84600581518110612af357612af261469b565b5b6020026020010151612b0591906157df565b612b0f9190614c86565b82600581518110612b2357612b2261469b565b5b602002602001019061ffff16908161ffff16815250506000600690505b8351811015612cbf57600e60009054906101000a900473ffffffffffffffffffffffffffffffffffffffff1673ffffffffffffffffffffffffffffffffffffffff16630c746a8a858381518110612b9a57612b9961469b565b5b60200260200101518873ffffffffffffffffffffffffffffffffffffffff16639f8743f76040518163ffffffff1660e01b81526004016000604051808303816000875af1158015612bef573d6000803e3d6000fd5b505050506040513d6000823e3d601f19601f82011682018060405250810190612c189190614b2e565b6101400151856040518463ffffffff1660e01b8152600401612c3c93929190615810565b602060405180830381865afa158015612c59573d6000803e3d6000fd5b505050506040513d601f19601f82011682018060405250810190612c7d919061539f565b82600683612c8b91906146f9565b81518110612c9c57612c9b61469b565b5b602002602001019061ffff16908161ffff16815250508080600101915050612b40565b505b8473ffffffffffffffffffffffffffffffffffffffff16632724d10483836040518363ffffffff1660e01b8152600401612cfc92919061584e565b600060405180830381600087803b158015612d1657600080fd5b505af1158015612d2a573d6000803e3d6000fd5b505050506002600460006101000a81548160ff02191690836003811115612d5457612d53613f18565b5b0217905550426005819055508542612d6c9190614c86565b60068190555050505050505050565b612d83613933565b60005b600a80549050811015612e53578173ffffffffffffffffffffffffffffffffffffffff16600a8281548110612dbe57612dbd61469b565b5b9060005260206000200160009054906101000a900473ffffffffffffffffffffffffffffffffffffffff1673ffffffffffffffffffffffffffffffffffffffff1603612e46576000612e45576040517f08c379a0000000000000000000000000000000000000000000000000000000008152600401612e3c906158d1565b60405180910390fd5b5b8080600101915050612d86565b50600a819080600181540180825580915050600190039060005260206000200160009091909190916101000a81548173ffffffffffffffffffffffffffffffffffffffff021916908373ffffffffffffffffffffffffffffffffffffffff16021790555050565b612ec2613933565b6000471115612f3557600160009054906101000a900473ffffffffffffffffffffffffffffffffffffffff1673ffffffffffffffffffffffffffffffffffffffff166108fc479081150290604051600060405180830381858888f19350505050158015612f33573d6000803e3d6000fd5b505b565b612f3f613933565b6003600183612f4e91906146f9565b81548110612f5f57612f5e61469b565b5b9060005260206000200160009054906101000a900473ffffffffffffffffffffffffffffffffffffffff1673ffffffffffffffffffffffffffffffffffffffff16633590bd3c600e60009054906101000a900473ffffffffffffffffffffffffffffffffffffffff1673ffffffffffffffffffffffffffffffffffffffff1663c099ae19856040518263ffffffff1660e01b81526004016130009190614098565b600060405180830381865afa15801561301d573d6000803e3d6000fd5b505050506040513d6000823e3d601f19601f8201168201806040525081019061304691906159b4565b600e60009054906101000a900473ffffffffffffffffffffffffffffffffffffffff1673ffffffffffffffffffffffffffffffffffffffff1663d856f0d5866040518263ffffffff1660e01b81526004016130a19190614098565b600060405180830381865afa1580156130be573d6000803e3d6000fd5b505050506040513d6000823e3d601f19601f820116820180604052508101906130e79190615ac0565b6040518363ffffffff1660e01b8152600401613104929190615cf2565b600060405180830381600087803b15801561311e57600080fd5b505af1158015613132573d6000803e3d6000fd5b505050506003600460006101000a81548160ff0219169083600381111561315c5761315b613f18565b5b02179055504260058190555080426131749190614c86565b6006819055505050565b60116020528060005260406000206000915090505481565b600e60009054906101000a900473ffffffffffffffffffffffffffffffffffffffff1681565b601060009054906101000a900460ff1681565b6000600760008373ffffffffffffffffffffffffffffffffffffffff1673ffffffffffffffffffffffffffffffffffffffff16815260200190815260200160002060009054906101000a900461ffff1661ffff1611806132ce5750600f54600c60009054906101000a900473ffffffffffffffffffffffffffffffffffffffff1673ffffffffffffffffffffffffffffffffffffffff1663dd62ed3e83306040518363ffffffff1660e01b815260040161328a929190615d29565b602060405180830381865afa1580156132a7573d6000803e3d6000fd5b505050506040513d601f19601f820116820180604052508101906132cb9190615281565b10155b806133225750600860003373ffffffffffffffffffffffffffffffffffffffff1673ffffffffffffffffffffffffffffffffffffffff16815260200190815260200160002060009054906101000a900460ff165b613361576040517f08c379a000000000000000000000000000000000000000000000000000000000815260040161335890615d9e565b60405180910390fd5b60006003600160025461337491906146f9565b815481106133855761338461469b565b5b9060005260206000200160009054906101000a900473ffffffffffffffffffffffffffffffffffffffff1690506000600760008473ffffffffffffffffffffffffffffffffffffffff1673ffffffffffffffffffffffffffffffffffffffff16815260200190815260200160002060009054906101000a900461ffff1661ffff16111561348957600760008373ffffffffffffffffffffffffffffffffffffffff1673ffffffffffffffffffffffffffffffffffffffff168152602001908152602001600020600081819054906101000a900461ffff168092919061346990615dbe565b91906101000a81548161ffff021916908361ffff160217905550506137fb565b600860003373ffffffffffffffffffffffffffffffffffffffff1673ffffffffffffffffffffffffffffffffffffffff16815260200190815260200160002060009054906101000a900460ff1661378357600f54600c60009054906101000a900473ffffffffffffffffffffffffffffffffffffffff1673ffffffffffffffffffffffffffffffffffffffff166370a08231326040518263ffffffff1660e01b81526004016135389190614064565b602060405180830381865afa158015613555573d6000803e3d6000fd5b505050506040513d601f19601f820116820180604052508101906135799190615281565b10156135ba576040517f08c379a00000000000000000000000000000000000000000000000000000000081526004016135b190615e33565b60405180910390fd5b600a805490506009600081819054906101000a900461ffff16809291906135e090615674565b91906101000a81548161ffff021916908361ffff16021790555061ffff1661360891906157df565b600960006101000a81548161ffff021916908361ffff16021790555060008173ffffffffffffffffffffffffffffffffffffffff1663af33d08f600f546040518263ffffffff1660e01b81526004016136619190614098565b602060405180830381865afa15801561367e573d6000803e3d6000fd5b505050506040513d601f19601f820116820180604052508101906136a29190615281565b9050613731600c60009054906101000a900473ffffffffffffffffffffffffffffffffffffffff1684600a600960009054906101000a900461ffff1661ffff16815481106136f3576136f261469b565b5b9060005260206000200160009054906101000a900473ffffffffffffffffffffffffffffffffffffffff1684600f5461372c91906146f9565b613afd565b613781600c60009054906101000a900473ffffffffffffffffffffffffffffffffffffffff1684600b60009054906101000a900473ffffffffffffffffffffffffffffffffffffffff1684613afd565b505b8073ffffffffffffffffffffffffffffffffffffffff1663b56c12b4600f546040518263ffffffff1660e01b81526004016137be9190614098565b600060405180830381600087803b1580156137d857600080fd5b505af11580156137ec573d6000803e3d6000fd5b505050506137fa8284613b7f565b5b8073ffffffffffffffffffffffffffffffffffffffff1663eb7165fa868686866040518563ffffffff1660e01b815260040161383a9493929190615e53565b600060405180830381600087803b15801561385457600080fd5b505af1158015613868573d6000803e3d6000fd5b505050505050505050565b600d60009054906101000a900473ffffffffffffffffffffffffffffffffffffffff1681565b6138a1613933565b600073ffffffffffffffffffffffffffffffffffffffff168173ffffffffffffffffffffffffffffffffffffffff16036139135760006040517f1e4fbdf700000000000000000000000000000000000000000000000000000000815260040161390a9190614064565b60405180910390fd5b61391c816139ba565b50565b601060019054906101000a900461ffff1681565b61393b613cc2565b73ffffffffffffffffffffffffffffffffffffffff16613959611c3a565b73ffffffffffffffffffffffffffffffffffffffff16146139b85761397c613cc2565b6040517f118cdaa70000000000000000000000000000000000000000000000000000000081526004016139af9190614064565b60405180910390fd5b565b60008060009054906101000a900473ffffffffffffffffffffffffffffffffffffffff169050816000806101000a81548173ffffffffffffffffffffffffffffffffffffffff021916908373ffffffffffffffffffffffffffffffffffffffff1602179055508173ffffffffffffffffffffffffffffffffffffffff168173ffffffffffffffffffffffffffffffffffffffff167f8be0079c531659141344cd1fd0a4f28419497f9722a3daafe3b4186f6b6457e060405160405180910390a35050565b613af8838473ffffffffffffffffffffffffffffffffffffffff1663a9059cbb8585604051602401613ab1929190615349565b604051602081830303815290604052915060e01b6020820180517bffffffffffffffffffffffffffffffffffffffffffffffffffffffff8381831617835250505050613cca565b505050565b613b79848573ffffffffffffffffffffffffffffffffffffffff166323b872dd868686604051602401613b3293929190615e9f565b604051602081830303815290604052915060e01b6020820180517bffffffffffffffffffffffffffffffffffffffffffffffffffffffff8381831617835250505050613cca565b50505050565b600073ffffffffffffffffffffffffffffffffffffffff168173ffffffffffffffffffffffffffffffffffffffff1614158015613bc85750601060009054906101000a900460ff165b15613cbe57600760008373ffffffffffffffffffffffffffffffffffffffff1673ffffffffffffffffffffffffffffffffffffffff168152602001908152602001600020600081819054906101000a900461ffff1680929190613c2a90615674565b91906101000a81548161ffff021916908361ffff16021790555050600760008273ffffffffffffffffffffffffffffffffffffffff1673ffffffffffffffffffffffffffffffffffffffff168152602001908152602001600020600081819054906101000a900461ffff1680929190613ca290615674565b91906101000a81548161ffff021916908361ffff160217905550505b5050565b600033905090565b6000613cf5828473ffffffffffffffffffffffffffffffffffffffff16613d6190919063ffffffff16565b90506000815114158015613d1a575080806020019051810190613d189190615372565b155b15613d5c57826040517f5274afe7000000000000000000000000000000000000000000000000000000008152600401613d539190614064565b60405180910390fd5b505050565b6060613d6f83836000613d77565b905092915050565b606081471015613dbe57306040517fcd786059000000000000000000000000000000000000000000000000000000008152600401613db59190614064565b60405180910390fd5b6000808573ffffffffffffffffffffffffffffffffffffffff168486604051613de79190615f47565b60006040518083038185875af1925050503d8060008114613e24576040519150601f19603f3d011682016040523d82523d6000602084013e613e29565b606091505b5091509150613e39868383613e44565b925050509392505050565b606082613e5957613e5482613ed3565b613ecb565b60008251148015613e81575060008473ffffffffffffffffffffffffffffffffffffffff163b145b15613ec357836040517f9996b315000000000000000000000000000000000000000000000000000000008152600401613eba9190614064565b60405180910390fd5b819050613ecc565b5b9392505050565b600081511115613ee65780518082602001fd5b6040517f1425ea4200000000000000000000000000000000000000000000000000000000815260040160405180910390fd5b7f4e487b7100000000000000000000000000000000000000000000000000000000600052602160045260246000fd5b60048110613f5857613f57613f18565b5b50565b6000819050613f6982613f47565b919050565b6000613f7982613f5b565b9050919050565b613f8981613f6e565b82525050565b6000602082019050613fa46000830184613f80565b92915050565b6000604051905090565b600080fd5b600080fd5b60008115159050919050565b613fd381613fbe565b8114613fde57600080fd5b50565b600081359050613ff081613fca565b92915050565b60006020828403121561400c5761400b613fb4565b5b600061401a84828501613fe1565b91505092915050565b600073ffffffffffffffffffffffffffffffffffffffff82169050919050565b600061404e82614023565b9050919050565b61405e81614043565b82525050565b60006020820190506140796000830184614055565b92915050565b6000819050919050565b6140928161407f565b82525050565b60006020820190506140ad6000830184614089565b92915050565b6140bc81614043565b81146140c757600080fd5b50565b6000813590506140d9816140b3565b92915050565b6000602082840312156140f5576140f4613fb4565b5b6000614103848285016140ca565b91505092915050565b6141158161407f565b811461412057600080fd5b50565b6000813590506141328161410c565b92915050565b60006020828403121561414e5761414d613fb4565b5b600061415c84828501614123565b91505092915050565b600061ffff82169050919050565b61417c81614165565b811461418757600080fd5b50565b60008135905061419981614173565b92915050565b6000602082840312156141b5576141b4613fb4565b5b60006141c38482850161418a565b91505092915050565b6141d581614165565b82525050565b60006020820190506141f060008301846141cc565b92915050565b6000819050919050565b600061421b61421661421184614023565b6141f6565b614023565b9050919050565b600061422d82614200565b9050919050565b600061423f82614222565b9050919050565b61424f81614234565b82525050565b600060208201905061426a6000830184614246565b92915050565b600080fd5b6000601f19601f8301169050919050565b7f4e487b7100000000000000000000000000000000000000000000000000000000600052604160045260246000fd5b6142be82614275565b810181811067ffffffffffffffff821117156142dd576142dc614286565b5b80604052505050565b60006142f0613faa565b90506142fc82826142b5565b919050565b600067ffffffffffffffff82111561431c5761431b614286565b5b602082029050602081019050919050565b600080fd5b600061434561434084614301565b6142e6565b905080838252602082019050602084028301858111156143685761436761432d565b5b835b81811015614391578061437d888261418a565b84526020840193505060208101905061436a565b5050509392505050565b600082601f8301126143b0576143af614270565b5b81356143c0848260208601614332565b91505092915050565b600080600080608085870312156143e3576143e2613fb4565b5b60006143f187828801614123565b945050602085013567ffffffffffffffff81111561441257614411613fb9565b5b61441e8782880161439b565b935050604061442f878288016140ca565b9250506060614440878288016140ca565b91505092959194509250565b600061445782614222565b9050919050565b6144678161444c565b82525050565b6000602082019050614482600083018461445e565b92915050565b60006020828403121561449e5761449d613fb4565b5b600082013567ffffffffffffffff8111156144bc576144bb613fb9565b5b6144c88482850161439b565b91505092915050565b600080604083850312156144e8576144e7613fb4565b5b60006144f6858286016140ca565b925050602061450785828601613fe1565b9150509250929050565b600080fd5b60008083601f84011261452c5761452b614270565b5b8235905067ffffffffffffffff81111561454957614548614511565b5b6020830191508360208202830111156145655761456461432d565b5b9250929050565b6000806020838503121561458357614582613fb4565b5b600083013567ffffffffffffffff8111156145a1576145a0613fb9565b5b6145ad85828601614516565b92509250509250929050565b600080604083850312156145d0576145cf613fb4565b5b60006145de85828601614123565b92505060206145ef85828601614123565b9150509250929050565b600061460482614222565b9050919050565b614614816145f9565b82525050565b600060208201905061462f600083018461460b565b92915050565b61463e81613fbe565b82525050565b60006020820190506146596000830184614635565b92915050565b600061466a82614222565b9050919050565b61467a8161465f565b82525050565b60006020820190506146956000830184614671565b92915050565b7f4e487b7100000000000000000000000000000000000000000000000000000000600052603260045260246000fd5b7f4e487b7100000000000000000000000000000000000000000000000000000000600052601160045260246000fd5b60006147048261407f565b915061470f8361407f565b9250828203905081811115614727576147266146ca565b5b92915050565b7f4e487b7100000000000000000000000000000000000000000000000000000000600052603160045260246000fd5b60006147678261407f565b91507fffffffffffffffffffffffffffffffffffffffffffffffffffffffffffffffff8203614799576147986146ca565b5b600182019050919050565b60006040820190506147b96000830185614089565b6147c66020830184614055565b9392505050565b6000815190506147dc816140b3565b92915050565b6000602082840312156147f8576147f7613fb4565b5b6000614806848285016147cd565b91505092915050565b600080fd5b600080fd5b6000815190506148288161410c565b92915050565b60008151905061483d81613fca565b92915050565b60008151905061485281614173565b92915050565b600061486b61486684614301565b6142e6565b9050808382526020820190506020840283018581111561488e5761488d61432d565b5b835b818110156148b757806148a38882614843565b845260208401935050602081019050614890565b5050509392505050565b600082601f8301126148d6576148d5614270565b5b81516148e6848260208601614858565b91505092915050565b600067ffffffffffffffff82111561490a57614909614286565b5b602082029050602081019050919050565b600061492e614929846148ef565b6142e6565b905080838252602082019050602084028301858111156149515761495061432d565b5b835b8181101561497a57806149668882614819565b845260208401935050602081019050614953565b5050509392505050565b600082601f83011261499957614998614270565b5b81516149a984826020860161491b565b91505092915050565b600061016082840312156149c9576149c861480f565b5b6149d46101606142e6565b905060006149e484828501614819565b60008301525060206149f884828501614819565b6020830152506040614a0c84828501614819565b6040830152506060614a208482850161482e565b606083015250608082015167ffffffffffffffff811115614a4457614a43614814565b5b614a50848285016148c1565b60808301525060a082015167ffffffffffffffff811115614a7457614a73614814565b5b614a80848285016148c1565b60a08301525060c0614a9484828501614843565b60c08301525060e082015167ffffffffffffffff811115614ab857614ab7614814565b5b614ac484828501614984565b60e083015250610100614ad984828501614843565b6101008301525061012082015167ffffffffffffffff811115614aff57614afe614814565b5b614b0b84828501614984565b61012083015250610140614b2184828501614843565b6101408301525092915050565b600060208284031215614b4457614b43613fb4565b5b600082015167ffffffffffffffff811115614b6257614b61613fb9565b5b614b6e848285016149b2565b91505092915050565b600082825260208201905092915050565b7f50726576696f757320726f756e64206e6f7420656e6465640000000000000000600082015250565b6000614bbe601883614b77565b9150614bc982614b88565b602082019050919050565b60006020820190508181036000830152614bed81614bb1565b9050919050565b7f50726576696f757320726f756e64206e6f742070726f7061676174656420636f60008201527f72726563746c7900000000000000000000000000000000000000000000000000602082015250565b6000614c50602783614b77565b9150614c5b82614bf4565b604082019050919050565b60006020820190508181036000830152614c7f81614c43565b9050919050565b6000614c918261407f565b9150614c9c8361407f565b9250828201905080821115614cb457614cb36146ca565b5b92915050565b600b8110614cc757600080fd5b50565b600081519050614cd981614cba565b92915050565b600060c08284031215614cf557614cf461480f565b5b614cff60c06142e6565b90506000614d0f84828501614819565b6000830152506020614d23848285016147cd565b6020830152506040614d37848285016147cd565b6040830152506060614d4b8482850161482e565b6060830152506080614d5f84828501614819565b60808301525060a0614d7384828501614cca565b60a08301525092915050565b600060c08284031215614d9557614d94613fb4565b5b6000614da384828501614cdf565b91505092915050565b7f496e76616c6964207469636b6574206964000000000000000000000000000000600082015250565b6000614de2601183614b77565b9150614ded82614dac565b602082019050919050565b60006020820190508181036000830152614e1181614dd5565b9050919050565b7f496e76616c6964207469636b6574206f776e6572000000000000000000000000600082015250565b6000614e4e601483614b77565b9150614e5982614e18565b602082019050919050565b60006020820190508181036000830152614e7d81614e41565b9050919050565b7f5469636b657420616c726561647920636c61696d656400000000000000000000600082015250565b6000614eba601683614b77565b9150614ec582614e84565b602082019050919050565b60006020820190508181036000830152614ee981614ead565b9050919050565b7f526f756e64206e6f7420656e6465640000000000000000000000000000000000600082015250565b6000614f26600f83614b77565b9150614f3182614ef0565b602082019050919050565b60006020820190508181036000830152614f5581614f19565b9050919050565b7f436c61696d206e6f742073746172746564000000000000000000000000000000600082015250565b6000614f92601183614b77565b9150614f9d82614f5c565b602082019050919050565b60006020820190508181036000830152614fc181614f85565b9050919050565b7f436c61696d206e6f7420737461727465643a20746f6f206561726c7900000000600082015250565b6000614ffe601c83614b77565b915061500982614fc8565b602082019050919050565b6000602082019050818103600083015261502d81614ff1565b9050919050565b7f436c61696d206e6f7420737461727465643a20746f6f206c6174650000000000600082015250565b600061506a601b83614b77565b915061507582615034565b602082019050919050565b600060208201905081810360008301526150998161505d565b9050919050565b7f4e6f207072697a6520666f722074686973207469636b65740000000000000000600082015250565b60006150d6601883614b77565b91506150e1826150a0565b602082019050919050565b60006020820190508181036000830152615105816150c9565b9050919050565b60006040820190506151216000830185614089565b61512e6020830184614089565b9392505050565b60006040828403121561514b5761514a61480f565b5b61515560406142e6565b9050600061516584828501614819565b600083015250602061517984828501614cca565b60208301525092915050565b60006040828403121561519b5761519a613fb4565b5b60006151a984828501615135565b91505092915050565b7f496e76616c6964207469636b6574207469657200000000000000000000000000600082015250565b60006151e8601383614b77565b91506151f3826151b2565b602082019050919050565b60006020820190508181036000830152615217816151db565b9050919050565b600b811061522f5761522e613f18565b5b50565b60008190506152408261521e565b919050565b600061525082615232565b9050919050565b61526081615245565b82525050565b600060208201905061527b6000830184615257565b92915050565b60006020828403121561529757615296613fb4565b5b60006152a584828501614819565b91505092915050565b7f4e487b7100000000000000000000000000000000000000000000000000000000600052601260045260246000fd5b7f4e6f7420656e6f7567682066756e6473206f6e20636f6e747261637400000000600082015250565b6000615313601c83614b77565b915061531e826152dd565b602082019050919050565b6000602082019050818103600083015261534281615306565b9050919050565b600060408201905061535e6000830185614055565b61536b6020830184614089565b9392505050565b60006020828403121561538857615387613fb4565b5b60006153968482850161482e565b91505092915050565b6000602082840312156153b5576153b4613fb4565b5b60006153c384828501614843565b91505092915050565b60006153d782614165565b91506153e283614165565b9250828201905061ffff8111156153fc576153fb6146ca565b5b92915050565b600063ffffffff82169050919050565b600061542d61542861542384614165565b6141f6565b615402565b9050919050565b61543d81615412565b82525050565b60006020820190506154586000830184615434565b92915050565b600081519050919050565b600082825260208201905092915050565b6000819050602082019050919050565b61549381614165565b82525050565b60006154a5838361548a565b60208301905092915050565b6000602082019050919050565b60006154c98261545e565b6154d38185615469565b93506154de8361547a565b8060005b8381101561550f5781516154f68882615499565b9750615501836154b1565b9250506001810190506154e2565b5085935050505092915050565b6000602082019050818103600083015261553681846154be565b905092915050565b600060a082840312156155545761555361480f565b5b61555e60a06142e6565b9050600061556e84828501614819565b6000830152506020615582848285016147cd565b602083015250604061559684828501614843565b60408301525060606155aa8482850161482e565b60608301525060806155be8482850161482e565b60808301525092915050565b600060a082840312156155e0576155df613fb4565b5b60006155ee8482850161553e565b91505092915050565b60006040828403121561560d5761560c61480f565b5b61561760406142e6565b9050600061562784828501614819565b600083015250602061563b8482850161482e565b60208301525092915050565b60006040828403121561565d5761565c613fb4565b5b600061566b848285016155f7565b91505092915050565b600061567f82614165565b915061ffff8203615693576156926146ca565b5b600182019050919050565b600080604083850312156156b5576156b4613fb4565b5b60006156c38582860161482e565b925050602083015167ffffffffffffffff8111156156e4576156e3613fb9565b5b6156f085828601614984565b9150509250929050565b7f52616e646f6d206e756d62657273206e6f742072656164790000000000000000600082015250565b6000615730601883614b77565b915061573b826156fa565b602082019050919050565b6000602082019050818103600083015261575f81615723565b9050919050565b6000819050919050565b600061578b61578661578184615766565b6141f6565b614165565b9050919050565b61579b81615770565b82525050565b60006060820190506157b66000830186614089565b6157c36020830185615792565b81810360408301526157d581846154be565b9050949350505050565b60006157ea8261407f565b91506157f58361407f565b925082615805576158046152ae565b5b828206905092915050565b60006060820190506158256000830186614089565b61583260208301856141cc565b818103604083015261584481846154be565b9050949350505050565b6000604082019050818103600083015261586881856154be565b9050818103602083015261587c81846154be565b90509392505050565b7f57616c6c657420616c7265616479206164646564000000000000000000000000600082015250565b60006158bb601483614b77565b91506158c682615885565b602082019050919050565b600060208201905081810360008301526158ea816158ae565b9050919050565b600067ffffffffffffffff82111561590c5761590b614286565b5b602082029050602081019050919050565b600061593061592b846158f1565b6142e6565b905080838252602082019050604084028301858111156159535761595261432d565b5b835b8181101561597c57806159688882615135565b845260208401935050604081019050615955565b5050509392505050565b600082601f83011261599b5761599a614270565b5b81516159ab84826020860161591d565b91505092915050565b6000602082840312156159ca576159c9613fb4565b5b600082015167ffffffffffffffff8111156159e8576159e7613fb9565b5b6159f484828501615986565b91505092915050565b600067ffffffffffffffff821115615a1857615a17614286565b5b602082029050602081019050919050565b6000615a3c615a37846159fd565b6142e6565b90508083825260208201905060408402830185811115615a5f57615a5e61432d565b5b835b81811015615a885780615a7488826155f7565b845260208401935050604081019050615a61565b5050509392505050565b600082601f830112615aa757615aa6614270565b5b8151615ab7848260208601615a29565b91505092915050565b600060208284031215615ad657615ad5613fb4565b5b600082015167ffffffffffffffff811115615af457615af3613fb9565b5b615b0084828501615a92565b91505092915050565b600081519050919050565b600082825260208201905092915050565b6000819050602082019050919050565b615b3e8161407f565b82525050565b615b4d81615245565b82525050565b604082016000820151615b696000850182615b35565b506020820151615b7c6020850182615b44565b50505050565b6000615b8e8383615b53565b60408301905092915050565b6000602082019050919050565b6000615bb282615b09565b615bbc8185615b14565b9350615bc783615b25565b8060005b83811015615bf8578151615bdf8882615b82565b9750615bea83615b9a565b925050600181019050615bcb565b5085935050505092915050565b600081519050919050565b600082825260208201905092915050565b6000819050602082019050919050565b615c3a81613fbe565b82525050565b604082016000820151615c566000850182615b35565b506020820151615c696020850182615c31565b50505050565b6000615c7b8383615c40565b60408301905092915050565b6000602082019050919050565b6000615c9f82615c05565b615ca98185615c10565b9350615cb483615c21565b8060005b83811015615ce5578151615ccc8882615c6f565b9750615cd783615c87565b925050600181019050615cb8565b5085935050505092915050565b60006040820190508181036000830152615d0c8185615ba7565b90508181036020830152615d208184615c94565b90509392505050565b6000604082019050615d3e6000830185614055565b615d4b6020830184614055565b9392505050565b7f4d697373696e6720416c6c6f77616e6365000000000000000000000000000000600082015250565b6000615d88601183614b77565b9150615d9382615d52565b602082019050919050565b60006020820190508181036000830152615db781615d7b565b9050919050565b6000615dc982614165565b915060008203615ddc57615ddb6146ca565b5b600182039050919050565b7f496e73756666696369656e742066756e64730000000000000000000000000000600082015250565b6000615e1d601283614b77565b9150615e2882615de7565b602082019050919050565b60006020820190508181036000830152615e4c81615e10565b9050919050565b6000608082019050615e686000830187614089565b8181036020830152615e7a81866154be565b9050615e896040830185614055565b615e966060830184614055565b95945050505050565b6000606082019050615eb46000830186614055565b615ec16020830185614055565b615ece6040830184614089565b949350505050565b600081519050919050565b600081905092915050565b60005b83811015615f0a578082015181840152602081019050615eef565b60008484015250505050565b6000615f2182615ed6565b615f2b8185615ee1565b9350615f3b818560208601615eec565b80840191505092915050565b6000615f538284615f16565b91508190509291505056fea2646970667358221220c0b829ea11e7950801e460c1d41c3fc00cd308dc702889a55b48b6626b29aa1064736f6c63430008180033",
  "devdoc": {
    "errors": {
      "AddressEmptyCode(address)": [
        {
          "details": "There's no code at `target` (it is not a contract)."
        }
      ],
      "AddressInsufficientBalance(address)": [
        {
          "details": "The ETH balance of the account is not enough to perform the operation."
        }
      ],
      "FailedInnerCall()": [
        {
          "details": "A call to an address target failed. The target may have reverted."
        }
      ],
      "OwnableInvalidOwner(address)": [
        {
          "details": "The owner is not a valid owner account. (eg. `address(0)`)"
        }
      ],
      "OwnableUnauthorizedAccount(address)": [
        {
          "details": "The caller account is not authorized to perform an operation."
        }
      ],
      "SafeERC20FailedOperation(address)": [
        {
          "details": "An operation with an ERC20 token failed."
        }
      ]
    },
    "kind": "dev",
    "methods": {
      "owner()": {
        "details": "Returns the address of the current owner."
      },
      "renounceOwnership()": {
        "details": "Leaves the contract without owner. It will not be possible to call `onlyOwner` functions. Can only be called by the current owner. NOTE: Renouncing ownership will leave the contract without an owner, thereby disabling any functionality that is only available to the owner."
      },
      "transferOwnership(address)": {
        "details": "Transfers ownership of the contract to a new account (`newOwner`). Can only be called by the current owner."
      }
    },
    "version": 1
  },
  "userdoc": {
    "kind": "user",
    "methods": {},
    "version": 1
  },
  "storageLayout": {
    "storage": [
      {
        "astId": 8,
        "contract": "contracts/LotteryMaster.sol:LotteryMaster",
        "label": "_owner",
        "offset": 0,
        "slot": "0",
        "type": "t_address"
      },
      {
        "astId": 4468,
        "contract": "contracts/LotteryMaster.sol:LotteryMaster",
        "label": "teamAddress",
        "offset": 0,
        "slot": "1",
        "type": "t_address"
      },
      {
        "astId": 1001,
        "contract": "contracts/LotteryMaster.sol:LotteryMaster",
        "label": "roundCount",
        "offset": 0,
        "slot": "2",
        "type": "t_uint256"
      },
      {
        "astId": 1004,
        "contract": "contracts/LotteryMaster.sol:LotteryMaster",
        "label": "rounds",
        "offset": 0,
        "slot": "3",
        "type": "t_array(t_address)dyn_storage"
      },
      {
        "astId": 1007,
        "contract": "contracts/LotteryMaster.sol:LotteryMaster",
        "label": "lotteryStatus",
        "offset": 0,
        "slot": "4",
        "type": "t_enum(LotteryStatuses)997"
      },
      {
        "astId": 1009,
        "contract": "contracts/LotteryMaster.sol:LotteryMaster",
        "label": "statusStartTime",
        "offset": 0,
        "slot": "5",
        "type": "t_uint256"
      },
      {
        "astId": 1011,
        "contract": "contracts/LotteryMaster.sol:LotteryMaster",
        "label": "statusEndTime",
        "offset": 0,
        "slot": "6",
        "type": "t_uint256"
      },
      {
        "astId": 1015,
        "contract": "contracts/LotteryMaster.sol:LotteryMaster",
        "label": "freeRounds",
        "offset": 0,
        "slot": "7",
        "type": "t_mapping(t_address,t_uint16)"
      },
      {
        "astId": 1019,
        "contract": "contracts/LotteryMaster.sol:LotteryMaster",
        "label": "crossChainOperator",
        "offset": 0,
        "slot": "8",
        "type": "t_mapping(t_address,t_bool)"
      },
      {
        "astId": 1037,
        "contract": "contracts/LotteryMaster.sol:LotteryMaster",
        "label": "counterForBankWallets",
        "offset": 0,
        "slot": "9",
        "type": "t_uint16"
      },
      {
        "astId": 1040,
        "contract": "contracts/LotteryMaster.sol:LotteryMaster",
        "label": "bankWallets",
        "offset": 0,
        "slot": "10",
        "type": "t_array(t_address)dyn_storage"
      },
      {
        "astId": 1125,
        "contract": "contracts/LotteryMaster.sol:LotteryMaster",
        "label": "treasuryWallets",
        "offset": 0,
        "slot": "11",
        "type": "t_address"
      },
      {
        "astId": 1140,
        "contract": "contracts/LotteryMaster.sol:LotteryMaster",
        "label": "paymentToken",
        "offset": 0,
        "slot": "12",
        "type": "t_contract(IERC20Metadata)251"
      },
      {
        "astId": 1157,
        "contract": "contracts/LotteryMaster.sol:LotteryMaster",
        "label": "randomizer",
        "offset": 0,
        "slot": "13",
        "type": "t_contract(CyclixRandomizerInterface)892"
      },
      {
        "astId": 1160,
        "contract": "contracts/LotteryMaster.sol:LotteryMaster",
        "label": "reader",
        "offset": 0,
        "slot": "14",
        "type": "t_contract(LotteryReaderInterface)3253"
      },
      {
        "astId": 1162,
        "contract": "contracts/LotteryMaster.sol:LotteryMaster",
        "label": "ticketPrice",
        "offset": 0,
        "slot": "15",
        "type": "t_uint256"
      },
      {
        "astId": 1177,
        "contract": "contracts/LotteryMaster.sol:LotteryMaster",
        "label": "freeRoundsAreEnabled",
        "offset": 0,
        "slot": "16",
        "type": "t_bool"
      },
      {
        "astId": 1192,
        "contract": "contracts/LotteryMaster.sol:LotteryMaster",
        "label": "percentageOfReferralWinners",
        "offset": 1,
        "slot": "16",
        "type": "t_uint16"
      },
      {
        "astId": 1227,
        "contract": "contracts/LotteryMaster.sol:LotteryMaster",
        "label": "lotteryRoundCreator",
        "offset": 3,
        "slot": "16",
        "type": "t_contract(LotteryRoundCreatorInterface)4328"
      },
      {
        "astId": 1667,
        "contract": "contracts/LotteryMaster.sol:LotteryMaster",
        "label": "publicRoundRandomNumbersRequestId",
        "offset": 0,
        "slot": "17",
        "type": "t_mapping(t_uint256,t_uint256)"
      }
    ],
    "types": {
      "t_address": {
        "encoding": "inplace",
        "label": "address",
        "numberOfBytes": "20"
      },
      "t_array(t_address)dyn_storage": {
        "base": "t_address",
        "encoding": "dynamic_array",
        "label": "address[]",
        "numberOfBytes": "32"
      },
      "t_bool": {
        "encoding": "inplace",
        "label": "bool",
        "numberOfBytes": "1"
      },
      "t_contract(CyclixRandomizerInterface)892": {
        "encoding": "inplace",
        "label": "contract CyclixRandomizerInterface",
        "numberOfBytes": "20"
      },
      "t_contract(IERC20Metadata)251": {
        "encoding": "inplace",
        "label": "contract IERC20Metadata",
        "numberOfBytes": "20"
      },
      "t_contract(LotteryReaderInterface)3253": {
        "encoding": "inplace",
        "label": "contract LotteryReaderInterface",
        "numberOfBytes": "20"
      },
      "t_contract(LotteryRoundCreatorInterface)4328": {
        "encoding": "inplace",
        "label": "contract LotteryRoundCreatorInterface",
        "numberOfBytes": "20"
      },
      "t_enum(LotteryStatuses)997": {
        "encoding": "inplace",
        "label": "enum LotteryStatuses",
        "numberOfBytes": "1"
      },
      "t_mapping(t_address,t_bool)": {
        "encoding": "mapping",
        "key": "t_address",
        "label": "mapping(address => bool)",
        "numberOfBytes": "32",
        "value": "t_bool"
      },
      "t_mapping(t_address,t_uint16)": {
        "encoding": "mapping",
        "key": "t_address",
        "label": "mapping(address => uint16)",
        "numberOfBytes": "32",
        "value": "t_uint16"
      },
      "t_mapping(t_uint256,t_uint256)": {
        "encoding": "mapping",
        "key": "t_uint256",
        "label": "mapping(uint256 => uint256)",
        "numberOfBytes": "32",
        "value": "t_uint256"
      },
      "t_uint16": {
        "encoding": "inplace",
        "label": "uint16",
        "numberOfBytes": "2"
      },
      "t_uint256": {
        "encoding": "inplace",
        "label": "uint256",
        "numberOfBytes": "32"
      }
    }
  }
}