{
  "address": "0x0C75d37E7b91F7d197b030bEa075E70c249b833b",
  "abi": [
    {
      "inputs": [
        {
          "internalType": "address",
          "name": "cyclixRandomizer",
          "type": "address"
        },
        {
          "internalType": "address",
          "name": "lotteryReader",
          "type": "address"
        },
        {
          "internalType": "address",
          "name": "_lotteryRoundCreator",
          "type": "address"
        },
        {
          "internalType": "address",
          "name": "_paymentToken",
          "type": "address"
        },
        {
          "internalType": "uint256",
          "name": "_ticketPrice",
          "type": "uint256"
        },
        {
          "internalType": "bool",
          "name": "_freeRoundsAreEnabled",
          "type": "bool"
        }
      ],
      "stateMutability": "nonpayable",
      "type": "constructor"
    },
    {
      "inputs": [
        {
          "internalType": "address",
          "name": "target",
          "type": "address"
        }
      ],
      "name": "AddressEmptyCode",
      "type": "error"
    },
    {
      "inputs": [
        {
          "internalType": "address",
          "name": "account",
          "type": "address"
        }
      ],
      "name": "AddressInsufficientBalance",
      "type": "error"
    },
    {
      "inputs": [],
      "name": "FailedInnerCall",
      "type": "error"
    },
    {
      "inputs": [
        {
          "internalType": "address",
          "name": "owner",
          "type": "address"
        }
      ],
      "name": "OwnableInvalidOwner",
      "type": "error"
    },
    {
      "inputs": [
        {
          "internalType": "address",
          "name": "account",
          "type": "address"
        }
      ],
      "name": "OwnableUnauthorizedAccount",
      "type": "error"
    },
    {
      "inputs": [
        {
          "internalType": "address",
          "name": "token",
          "type": "address"
        }
      ],
      "name": "SafeERC20FailedOperation",
      "type": "error"
    },
    {
      "anonymous": false,
      "inputs": [
        {
          "indexed": true,
          "internalType": "address",
          "name": "previousOwner",
          "type": "address"
        },
        {
          "indexed": true,
          "internalType": "address",
          "name": "newOwner",
          "type": "address"
        }
      ],
      "name": "OwnershipTransferred",
      "type": "event"
    },
    {
      "inputs": [
        {
          "internalType": "address[]",
          "name": "participant",
          "type": "address[]"
        },
        {
          "internalType": "uint256[]",
          "name": "freeTicketAmounts",
          "type": "uint256[]"
        }
      ],
      "name": "addFreeRound",
      "outputs": [],
      "stateMutability": "nonpayable",
      "type": "function"
    },
    {
      "inputs": [
        {
          "internalType": "uint256",
          "name": "",
          "type": "uint256"
        }
      ],
      "name": "bankWallets",
      "outputs": [
        {
          "internalType": "address",
          "name": "",
          "type": "address"
        }
      ],
      "stateMutability": "view",
      "type": "function"
    },
    {
      "inputs": [
        {
          "internalType": "uint16[]",
          "name": "moreTicketNumbers",
          "type": "uint16[]"
        },
        {
          "internalType": "address",
          "name": "referral",
          "type": "address"
        },
        {
          "internalType": "address",
          "name": "buyer",
          "type": "address"
        }
      ],
      "name": "buyTickets",
      "outputs": [],
      "stateMutability": "nonpayable",
      "type": "function"
    },
    {
      "inputs": [],
      "name": "claimVictory",
      "outputs": [],
      "stateMutability": "nonpayable",
      "type": "function"
    },
    {
      "inputs": [
        {
          "internalType": "uint256",
          "name": "_statusStartTime",
          "type": "uint256"
        },
        {
          "internalType": "uint256",
          "name": "_statusEndTime",
          "type": "uint256"
        },
        {
          "internalType": "uint32",
          "name": "referralWinners",
          "type": "uint32"
        }
      ],
      "name": "closeRound",
      "outputs": [],
      "stateMutability": "nonpayable",
      "type": "function"
    },
    {
      "inputs": [],
      "name": "counterForBankWallets",
      "outputs": [
        {
          "internalType": "uint16",
          "name": "",
          "type": "uint16"
        }
      ],
      "stateMutability": "view",
      "type": "function"
    },
    {
      "inputs": [
        {
          "internalType": "uint256",
          "name": "roundId",
          "type": "uint256"
        },
        {
          "internalType": "uint256",
          "name": "_statusStartTime",
          "type": "uint256"
        },
        {
          "internalType": "uint256",
          "name": "_statusEndTime",
          "type": "uint256"
        },
        {
          "internalType": "uint16",
          "name": "referralWinnersCountCrossChain",
          "type": "uint16"
        }
      ],
      "name": "fetchRoundNumbers",
      "outputs": [],
      "stateMutability": "nonpayable",
      "type": "function"
    },
    {
      "inputs": [
        {
          "internalType": "uint256",
          "name": "",
          "type": "uint256"
        },
        {
          "internalType": "address",
          "name": "",
          "type": "address"
        }
      ],
      "name": "freeRounds",
      "outputs": [
        {
          "internalType": "uint256",
          "name": "",
          "type": "uint256"
        }
      ],
      "stateMutability": "view",
      "type": "function"
    },
    {
      "inputs": [],
      "name": "freeRoundsAreEnabled",
      "outputs": [
        {
          "internalType": "bool",
          "name": "",
          "type": "bool"
        }
      ],
      "stateMutability": "view",
      "type": "function"
    },
    {
      "inputs": [],
      "name": "lotteryRoundCreator",
      "outputs": [
        {
          "internalType": "contract LotteryRoundCreatorInterface",
          "name": "",
          "type": "address"
        }
      ],
      "stateMutability": "view",
      "type": "function"
    },
    {
      "inputs": [],
      "name": "lotteryStatus",
      "outputs": [
        {
          "internalType": "enum LotteryStatuses",
          "name": "",
          "type": "uint8"
        }
      ],
      "stateMutability": "view",
      "type": "function"
    },
    {
      "inputs": [
        {
          "internalType": "uint256",
          "name": "roundId",
          "type": "uint256"
        },
        {
          "internalType": "uint256",
          "name": "_statusStartTime",
          "type": "uint256"
        },
        {
          "internalType": "uint256",
          "name": "_statusEndTime",
          "type": "uint256"
        },
        {
          "internalType": "uint256[]",
          "name": "amountWonForEachTicketCrossChain",
          "type": "uint256[]"
        }
      ],
      "name": "markWinners",
      "outputs": [],
      "stateMutability": "nonpayable",
      "type": "function"
    },
    {
      "inputs": [],
      "name": "owner",
      "outputs": [
        {
          "internalType": "address",
          "name": "",
          "type": "address"
        }
      ],
      "stateMutability": "view",
      "type": "function"
    },
    {
      "inputs": [],
      "name": "paymentToken",
      "outputs": [
        {
          "internalType": "contract IERC20Metadata",
          "name": "",
          "type": "address"
        }
      ],
      "stateMutability": "view",
      "type": "function"
    },
    {
      "inputs": [],
      "name": "percentageOfReferralWinners",
      "outputs": [
        {
          "internalType": "uint16",
          "name": "",
          "type": "uint16"
        }
      ],
      "stateMutability": "view",
      "type": "function"
    },
    {
      "inputs": [
        {
          "internalType": "uint256",
          "name": "",
          "type": "uint256"
        }
      ],
      "name": "publicRoundRandomNumbersRequestId",
      "outputs": [
        {
          "internalType": "uint256",
          "name": "",
          "type": "uint256"
        }
      ],
      "stateMutability": "view",
      "type": "function"
    },
    {
      "inputs": [],
      "name": "randomizer",
      "outputs": [
        {
          "internalType": "contract CyclixRandomizerInterface",
          "name": "",
          "type": "address"
        }
      ],
      "stateMutability": "view",
      "type": "function"
    },
    {
      "inputs": [],
      "name": "reader",
      "outputs": [
        {
          "internalType": "contract LotteryReaderInterface",
          "name": "",
          "type": "address"
        }
      ],
      "stateMutability": "view",
      "type": "function"
    },
    {
      "inputs": [],
      "name": "renounceOwnership",
      "outputs": [],
      "stateMutability": "nonpayable",
      "type": "function"
    },
    {
      "inputs": [],
      "name": "roundCount",
      "outputs": [
        {
          "internalType": "uint256",
          "name": "",
          "type": "uint256"
        }
      ],
      "stateMutability": "view",
      "type": "function"
    },
    {
      "inputs": [
        {
          "internalType": "uint256",
          "name": "",
          "type": "uint256"
        }
      ],
      "name": "rounds",
      "outputs": [
        {
          "internalType": "address",
          "name": "",
          "type": "address"
        }
      ],
      "stateMutability": "view",
      "type": "function"
    },
    {
      "inputs": [],
      "name": "sendCryptoToTeam",
      "outputs": [],
      "stateMutability": "nonpayable",
      "type": "function"
    },
    {
      "inputs": [
        {
          "internalType": "address",
          "name": "_token",
          "type": "address"
        }
      ],
      "name": "sendTokenToTeam",
      "outputs": [],
      "stateMutability": "nonpayable",
      "type": "function"
    },
    {
      "inputs": [
        {
          "internalType": "address",
          "name": "wallet",
          "type": "address"
        },
        {
          "internalType": "bool",
          "name": "add",
          "type": "bool"
        }
      ],
      "name": "setBankWallet",
      "outputs": [],
      "stateMutability": "nonpayable",
      "type": "function"
    },
    {
      "inputs": [
        {
          "internalType": "uint256",
          "name": "_statusStartTime",
          "type": "uint256"
        },
        {
          "internalType": "uint256",
          "name": "_statusEndTime",
          "type": "uint256"
        }
      ],
      "name": "startNewRound",
      "outputs": [],
      "stateMutability": "nonpayable",
      "type": "function"
    },
    {
      "inputs": [
        {
          "internalType": "uint256",
          "name": "_statusStartTime",
          "type": "uint256"
        },
        {
          "internalType": "uint256",
          "name": "_statusEndTime",
          "type": "uint256"
        },
        {
          "internalType": "address",
          "name": "previousRound",
          "type": "address"
        },
        {
          "internalType": "uint256",
          "name": "uiId",
          "type": "uint256"
        }
      ],
      "name": "startNewRoundForUpgrade",
      "outputs": [],
      "stateMutability": "nonpayable",
      "type": "function"
    },
    {
      "inputs": [],
      "name": "statusEndTime",
      "outputs": [
        {
          "internalType": "uint256",
          "name": "",
          "type": "uint256"
        }
      ],
      "stateMutability": "view",
      "type": "function"
    },
    {
      "inputs": [],
      "name": "statusStartTime",
      "outputs": [
        {
          "internalType": "uint256",
          "name": "",
          "type": "uint256"
        }
      ],
      "stateMutability": "view",
      "type": "function"
    },
    {
      "inputs": [],
      "name": "ticketPrice",
      "outputs": [
        {
          "internalType": "uint256",
          "name": "",
          "type": "uint256"
        }
      ],
      "stateMutability": "view",
      "type": "function"
    },
    {
      "inputs": [
        {
          "internalType": "address",
          "name": "newOwner",
          "type": "address"
        }
      ],
      "name": "transferOwnership",
      "outputs": [],
      "stateMutability": "nonpayable",
      "type": "function"
    },
    {
      "inputs": [
        {
          "internalType": "address",
          "name": "cyclixRandomizer",
          "type": "address"
        },
        {
          "internalType": "address",
          "name": "lotteryReader",
          "type": "address"
        },
        {
          "internalType": "address",
          "name": "_lotteryRoundCreator",
          "type": "address"
        },
        {
          "internalType": "address",
          "name": "_paymentToken",
          "type": "address"
        },
        {
          "internalType": "uint256",
          "name": "_ticketPrice",
          "type": "uint256"
        },
        {
          "internalType": "uint16",
          "name": "_percentageOfReferralWinners",
          "type": "uint16"
        },
        {
          "internalType": "uint16[]",
          "name": "_poolPercentagesBasePoints",
          "type": "uint16[]"
        },
        {
          "internalType": "bool",
          "name": "_freeRoundsAreEnabled",
          "type": "bool"
        }
      ],
      "name": "updateSetup",
      "outputs": [],
      "stateMutability": "nonpayable",
      "type": "function"
    },
    {
      "inputs": [
        {
          "internalType": "address",
          "name": "_teamAddress",
          "type": "address"
        }
      ],
      "name": "updateTeamAddress",
      "outputs": [],
      "stateMutability": "nonpayable",
      "type": "function"
    }
  ],
  "transactionHash": "0xee0e82d44c25d0a9198e1606bdc46dbc2866c3ee92989fabb9883f36eaec5d81",
  "args": [
    "0x17A1a3cb035624c53AEe5e59C8db92633F901E8c",
    "0x2Cb07985542a3b6d6B521B5617613F8DB0F349ed",
    "0xDE928976e45dbBCB49F00D0891420B87E3Df09ac",
    "0x79D80555ba60aeFB7a53cb888Eb43237A5415Dd9",
    10,
    true
  ],
  "numDeployments": 2,
  "solcInputHash": "c120032d4bbd2046b92681081008f44c",
  "bytecode": "0x60806040526000600f60006101000a81548160ff021916908315150217905550600a600f60016101000a81548161ffff021916908361ffff1602179055503480156200004a57600080fd5b5060405162005cff38038062005cff8339818101604052810190620000709190620005be565b3380600073ffffffffffffffffffffffffffffffffffffffff168173ffffffffffffffffffffffffffffffffffffffff1603620000e75760006040517f1e4fbdf7000000000000000000000000000000000000000000000000000000008152600401620000de91906200066b565b60405180910390fd5b620000f8816200041860201b60201c565b5080600160006101000a81548173ffffffffffffffffffffffffffffffffffffffff021916908373ffffffffffffffffffffffffffffffffffffffff160217905550504660028190555085600c60006101000a81548173ffffffffffffffffffffffffffffffffffffffff021916908373ffffffffffffffffffffffffffffffffffffffff160217905550600c60009054906101000a900473ffffffffffffffffffffffffffffffffffffffff1673ffffffffffffffffffffffffffffffffffffffff1663cd0f2311306040518263ffffffff1660e01b8152600401620001e09190620006e9565b600060405180830381600087803b158015620001fb57600080fd5b505af115801562000210573d6000803e3d6000fd5b5050505084600d60006101000a81548173ffffffffffffffffffffffffffffffffffffffff021916908373ffffffffffffffffffffffffffffffffffffffff16021790555083600f60036101000a81548173ffffffffffffffffffffffffffffffffffffffff021916908373ffffffffffffffffffffffffffffffffffffffff16021790555082600b60006101000a81548173ffffffffffffffffffffffffffffffffffffffff021916908373ffffffffffffffffffffffffffffffffffffffff160217905550600b60009054906101000a900473ffffffffffffffffffffffffffffffffffffffff1673ffffffffffffffffffffffffffffffffffffffff1663313ce5676040518163ffffffff1660e01b8152600401602060405180830381865afa15801562000345573d6000803e3d6000fd5b505050506040513d601f19601f820116820180604052508101906200036b919062000759565b60ff16600a6200037c91906200090e565b826200038991906200095f565b600e8190555080600f60006101000a81548160ff021916908315150217905550600a339080600181540180825580915050600190039060005260206000200160009091909190916101000a81548173ffffffffffffffffffffffffffffffffffffffff021916908373ffffffffffffffffffffffffffffffffffffffff160217905550505050505050620009aa565b60008060009054906101000a900473ffffffffffffffffffffffffffffffffffffffff169050816000806101000a81548173ffffffffffffffffffffffffffffffffffffffff021916908373ffffffffffffffffffffffffffffffffffffffff1602179055508173ffffffffffffffffffffffffffffffffffffffff168173ffffffffffffffffffffffffffffffffffffffff167f8be0079c531659141344cd1fd0a4f28419497f9722a3daafe3b4186f6b6457e060405160405180910390a35050565b600080fd5b600073ffffffffffffffffffffffffffffffffffffffff82169050919050565b60006200050e82620004e1565b9050919050565b620005208162000501565b81146200052c57600080fd5b50565b600081519050620005408162000515565b92915050565b6000819050919050565b6200055b8162000546565b81146200056757600080fd5b50565b6000815190506200057b8162000550565b92915050565b60008115159050919050565b620005988162000581565b8114620005a457600080fd5b50565b600081519050620005b8816200058d565b92915050565b60008060008060008060c08789031215620005de57620005dd620004dc565b5b6000620005ee89828a016200052f565b96505060206200060189828a016200052f565b95505060406200061489828a016200052f565b94505060606200062789828a016200052f565b93505060806200063a89828a016200056a565b92505060a06200064d89828a01620005a7565b9150509295509295509295565b620006658162000501565b82525050565b60006020820190506200068260008301846200065a565b92915050565b600082825260208201905092915050565b7f4c6f74746572794d617374657256302e31000000000000000000000000000000600082015250565b6000620006d160118362000688565b9150620006de8262000699565b602082019050919050565b60006040820190506200070060008301846200065a565b81810360208301526200071381620006c2565b905092915050565b600060ff82169050919050565b62000733816200071b565b81146200073f57600080fd5b50565b600081519050620007538162000728565b92915050565b600060208284031215620007725762000771620004dc565b5b6000620007828482850162000742565b91505092915050565b7f4e487b7100000000000000000000000000000000000000000000000000000000600052601160045260246000fd5b60008160011c9050919050565b6000808291508390505b60018511156200081957808604811115620007f157620007f06200078b565b5b6001851615620008015780820291505b80810290506200081185620007ba565b9450620007d1565b94509492505050565b60008262000834576001905062000907565b8162000844576000905062000907565b81600181146200085d576002811462000868576200089e565b600191505062000907565b60ff8411156200087d576200087c6200078b565b5b8360020a9150848211156200089757620008966200078b565b5b5062000907565b5060208310610133831016604e8410600b8410161715620008d85782820a905083811115620008d257620008d16200078b565b5b62000907565b620008e78484846001620007c7565b925090508184048111156200090157620009006200078b565b5b81810290505b9392505050565b60006200091b8262000546565b9150620009288362000546565b9250620009577fffffffffffffffffffffffffffffffffffffffffffffffffffffffffffffffff848462000822565b905092915050565b60006200096c8262000546565b9150620009798362000546565b9250828202620009898162000546565b91508282048414831517620009a357620009a26200078b565b5b5092915050565b61534580620009ba6000396000f3fe608060405234801561001057600080fd5b50600436106101f05760003560e01c8063715018a61161010f578063bbd1783a116100a2578063f10fb58411610071578063f10fb58414610535578063f2fde38b14610553578063f4dec22b1461056f578063f542bd9a1461058d576101f0565b8063bbd1783a146104bf578063cedd1bc3146104c9578063d4fc42c6146104f9578063e03d753a14610517576101f0565b806392566fdd116100de57806392566fdd1461044d578063998da3e91461046b578063aa22365214610487578063aec34c68146104a3576101f0565b8063715018a6146103d757806387da46f1146103e15780638c65c81f146103ff5780638da5cb5b1461042f576101f0565b8063224294291161018757806347be7bf61161015657806347be7bf6146103535780634f289552146103835780636252fc211461039f57806362cd30d1146103bb576101f0565b806322429429146102c9578063258799f8146102e75780633013ce29146103175780633fda7d9514610335576101f0565b8063127f0b3f116101c3578063127f0b3f1461026957806314eb76ac146102875780631abddf33146102a35780631ed15aa4146102ad576101f0565b806303fd78fb146101f5578063040ae259146102115780630d683dd91461022d5780631209b1f61461024b575b600080fd5b61020f600480360381019061020a9190613150565b6105a9565b005b61022b600480360381019061022691906131d3565b6107bc565b005b610235610916565b604051610242919061328a565b60405180910390f35b610253610929565b60405161026091906132b4565b60405180910390f35b61027161092f565b60405161027e91906132b4565b60405180910390f35b6102a1600480360381019061029c919061332d565b610935565b005b6102ab610981565b005b6102c760048036038101906102c29190613392565b610f70565b005b6102d16111b6565b6040516102de91906132b4565b60405180910390f35b61030160048036038101906102fc91906133d2565b6111bc565b60405161030e919061340e565b60405180910390f35b61031f6111fb565b60405161032c9190613488565b60405180910390f35b61033d611221565b60405161034a91906132b4565b60405180910390f35b61036d600480360381019061036891906134a3565b611227565b60405161037a91906132b4565b60405180910390f35b61039d60048036038101906103989190613594565b61124c565b005b6103b960048036038101906103b4919061364f565b61131f565b005b6103d560048036038101906103d09190613779565b61186b565b005b6103df611c03565b005b6103e9611c17565b6040516103f6919061386c565b60405180910390f35b610419600480360381019061041491906133d2565b611c3d565b604051610426919061340e565b60405180910390f35b610437611c7c565b604051610444919061340e565b60405180910390f35b610455611ca5565b6040516104629190613896565b60405180910390f35b6104856004803603810190610480919061332d565b611cb9565b005b6104a1600480360381019061049c91906138b1565b611d7a565b005b6104bd60048036038101906104b89190613954565b611f7c565b005b6104c761210a565b005b6104e360048036038101906104de91906133d2565b612187565b6040516104f091906132b4565b60405180910390f35b61050161219f565b60405161050e91906139c8565b60405180910390f35b61051f6121c5565b60405161052c91906139f2565b60405180910390f35b61053d6121d8565b60405161054a9190613a2e565b60405180910390f35b61056d6004803603810190610568919061332d565b6121fe565b005b610577612284565b6040516105849190613896565b60405180910390f35b6105a760048036038101906105a29190613a49565b612298565b005b6105b1612565565b60046001856105c09190613ae7565b815481106105d1576105d0613b1b565b5b9060005260206000200160009054906101000a900473ffffffffffffffffffffffffffffffffffffffff1673ffffffffffffffffffffffffffffffffffffffff1663df4fbb2f600d60009054906101000a900473ffffffffffffffffffffffffffffffffffffffff1673ffffffffffffffffffffffffffffffffffffffff16639f75e5c9876040518263ffffffff1660e01b815260040161067291906132b4565b600060405180830381865afa15801561068f573d6000803e3d6000fd5b505050506040513d6000823e3d601f19601f820116820180604052508101906106b89190613d1b565b600d60009054906101000a900473ffffffffffffffffffffffffffffffffffffffff1673ffffffffffffffffffffffffffffffffffffffff166348b2e35c886040518263ffffffff1660e01b815260040161071391906132b4565b600060405180830381865afa158015610730573d6000803e3d6000fd5b505050506040513d6000823e3d601f19601f820116820180604052508101906107599190613edb565b846040518463ffffffff1660e01b8152600401610778939291906142af565b600060405180830381600087803b15801561079257600080fd5b505af11580156107a6573d6000803e3d6000fd5b505050506107b6600384846125ec565b50505050565b6107c4612565565b60006003541115610903576000600460016003546107e29190613ae7565b815481106107f3576107f2613b1b565b5b9060005260206000200160009054906101000a900473ffffffffffffffffffffffffffffffffffffffff1690506108fd8383600460016003546108369190613ae7565b8154811061084757610846613b1b565b5b9060005260206000200160009054906101000a900473ffffffffffffffffffffffffffffffffffffffff1660018573ffffffffffffffffffffffffffffffffffffffff16639f8743f76040518163ffffffff1660e01b81526004016000604051808303816000875af11580156108c1573d6000803e3d6000fd5b505050506040513d6000823e3d601f19601f820116820180604052508101906108ea91906145d0565b602001516108f89190614619565b611d7a565b50610912565b610911828260006001611d7a565b5b5050565b600560009054906101000a900460ff1681565b600e5481565b60035481565b61093d612565565b80600160006101000a81548173ffffffffffffffffffffffffffffffffffffffff021916908373ffffffffffffffffffffffffffffffffffffffff16021790555050565b60038081111561099457610993613213565b5b600560009054906101000a900460ff1660038111156109b6576109b5613213565b5b146109f6576040517f08c379a00000000000000000000000000000000000000000000000000000000081526004016109ed906146aa565b60405180910390fd5b4260075411610a3a576040517f08c379a0000000000000000000000000000000000000000000000000000000008152600401610a3190614716565b60405180910390fd5b6000600d60009054906101000a900473ffffffffffffffffffffffffffffffffffffffff1673ffffffffffffffffffffffffffffffffffffffff1663b7991e336003543360006040518463ffffffff1660e01b8152600401610a9e93929190614736565b602060405180830381865afa158015610abb573d6000803e3d6000fd5b505050506040513d601f19601f82011682018060405250810190610adf919061476d565b90506000600d60009054906101000a900473ffffffffffffffffffffffffffffffffffffffff1673ffffffffffffffffffffffffffffffffffffffff1663a521dc956003543360006040518463ffffffff1660e01b8152600401610b4593929190614736565b602060405180830381865afa158015610b62573d6000803e3d6000fd5b505050506040513d601f19601f82011682018060405250810190610b86919061476d565b90506000821180610b975750600081115b610bd6576040517f08c379a0000000000000000000000000000000000000000000000000000000008152600401610bcd906147e6565b60405180910390fd5b8082610be29190614619565b600b60009054906101000a900473ffffffffffffffffffffffffffffffffffffffff1673ffffffffffffffffffffffffffffffffffffffff166370a08231306040518263ffffffff1660e01b8152600401610c3d919061340e565b602060405180830381865afa158015610c5a573d6000803e3d6000fd5b505050506040513d601f19601f82011682018060405250810190610c7e919061476d565b1015610cbf576040517f08c379a0000000000000000000000000000000000000000000000000000000008152600401610cb690614852565b60405180910390fd5b60046001600354610cd09190613ae7565b81548110610ce157610ce0613b1b565b5b9060005260206000200160009054906101000a900473ffffffffffffffffffffffffffffffffffffffff1673ffffffffffffffffffffffffffffffffffffffff1663b82e18ff600d60009054906101000a900473ffffffffffffffffffffffffffffffffffffffff1673ffffffffffffffffffffffffffffffffffffffff1663eed25896600354336040518363ffffffff1660e01b8152600401610d86929190614872565b600060405180830381865afa158015610da3573d6000803e3d6000fd5b505050506040513d6000823e3d601f19601f82011682018060405250810190610dcc9190613d1b565b600d60009054906101000a900473ffffffffffffffffffffffffffffffffffffffff1673ffffffffffffffffffffffffffffffffffffffff166317ba3b7d600354336040518363ffffffff1660e01b8152600401610e2b929190614872565b600060405180830381865afa158015610e48573d6000803e3d6000fd5b505050506040513d6000823e3d601f19601f82011682018060405250810190610e719190613edb565b6040518363ffffffff1660e01b8152600401610e8e92919061489b565b600060405180830381600087803b158015610ea857600080fd5b505af1158015610ebc573d6000803e3d6000fd5b50505050600b60009054906101000a900473ffffffffffffffffffffffffffffffffffffffff1673ffffffffffffffffffffffffffffffffffffffff1663a9059cbb338385610f0b9190614619565b6040518363ffffffff1660e01b8152600401610f289291906148d2565b6020604051808303816000875af1158015610f47573d6000803e3d6000fd5b505050506040513d601f19601f82011682018060405250810190610f6b91906148fb565b505050565b610f78612565565b60005b600a80549050811015611147578273ffffffffffffffffffffffffffffffffffffffff16600a8281548110610fb357610fb2613b1b565b5b9060005260206000200160009054906101000a900473ffffffffffffffffffffffffffffffffffffffff1673ffffffffffffffffffffffffffffffffffffffff160361113a578115611045576000611040576040517f08c379a000000000000000000000000000000000000000000000000000000000815260040161103790614974565b60405180910390fd5b611139565b600a6001600a805490506110599190613ae7565b8154811061106a57611069613b1b565b5b9060005260206000200160009054906101000a900473ffffffffffffffffffffffffffffffffffffffff16600a82815481106110a9576110a8613b1b565b5b9060005260206000200160006101000a81548173ffffffffffffffffffffffffffffffffffffffff021916908373ffffffffffffffffffffffffffffffffffffffff160217905550600a80548061110357611102614994565b5b6001900381819060005260206000200160006101000a81549073ffffffffffffffffffffffffffffffffffffffff021916905590555b5b8080600101915050610f7b565b5080156111b257600a829080600181540180825580915050600190039060005260206000200160009091909190916101000a81548173ffffffffffffffffffffffffffffffffffffffff021916908373ffffffffffffffffffffffffffffffffffffffff1602179055505b5050565b60075481565b600a81815481106111cc57600080fd5b906000526020600020016000915054906101000a900473ffffffffffffffffffffffffffffffffffffffff1681565b600b60009054906101000a900473ffffffffffffffffffffffffffffffffffffffff1681565b60065481565b6008602052816000526040600020602052806000526040600020600091509150505481565b611254612565565b60005b848490508110156113185782828281811061127557611274613b1b565b5b9050602002013560086000600354815260200190815260200160002060008787858181106112a6576112a5613b1b565b5b90506020020160208101906112bb919061332d565b73ffffffffffffffffffffffffffffffffffffffff1673ffffffffffffffffffffffffffffffffffffffff16815260200190815260200160002060008282546113049190614619565b925050819055508080600101915050611257565b5050505050565b611327612565565b600060046001866113389190613ae7565b8154811061134957611348613b1b565b5b9060005260206000200160009054906101000a900473ffffffffffffffffffffffffffffffffffffffff1690508073ffffffffffffffffffffffffffffffffffffffff1663343f25666040518163ffffffff1660e01b815260040160006040518083038186803b1580156113bc57600080fd5b505afa1580156113d0573d6000803e3d6000fd5b50505050600080600c60009054906101000a900473ffffffffffffffffffffffffffffffffffffffff1673ffffffffffffffffffffffffffffffffffffffff1663d8a4676f601060008a8152602001908152602001600020546040518263ffffffff1660e01b815260040161144591906132b4565b600060405180830381865afa158015611462573d6000803e3d6000fd5b505050506040513d6000823e3d601f19601f8201168201806040525081019061148b91906149c3565b91509150816114cf576040517f08c379a00000000000000000000000000000000000000000000000000000000081526004016114c690614a6b565b60405180910390fd5b6000600667ffffffffffffffff8111156114ec576114eb61300d565b5b60405190808252806020026020018201604052801561151a5781602001602082028036833780820191505090505b50905060006006835161152d9190613ae7565b67ffffffffffffffff8111156115465761154561300d565b5b6040519080825280602002602001820160405280156115745781602001602082028036833780820191505090505b50905083156117e75760005b600681101561167a57600d60009054906101000a900473ffffffffffffffffffffffffffffffffffffffff1673ffffffffffffffffffffffffffffffffffffffff16630c746a8a8583815181106115da576115d9613b1b565b5b60200260200101516045866040518463ffffffff1660e01b815260040161160393929190614b84565b602060405180830381865afa158015611620573d6000803e3d6000fd5b505050506040513d601f19601f820116820180604052508101906116449190614bc2565b83828151811061165757611656613b1b565b5b602002602001019061ffff16908161ffff16815250508080600101915050611580565b506001601a8460058151811061169357611692613b1b565b5b60200260200101516116a59190614c1e565b6116af9190614619565b826005815181106116c3576116c2613b1b565b5b602002602001019061ffff16908161ffff16815250506000600690505b83518110156117e557600d60009054906101000a900473ffffffffffffffffffffffffffffffffffffffff1673ffffffffffffffffffffffffffffffffffffffff16630c746a8a85838151811061173a57611739613b1b565b5b602002602001015189856040518463ffffffff1660e01b815260040161176293929190614c4f565b602060405180830381865afa15801561177f573d6000803e3d6000fd5b505050506040513d601f19601f820116820180604052508101906117a39190614bc2565b826006836117b19190613ae7565b815181106117c2576117c1613b1b565b5b602002602001019061ffff16908161ffff168152505080806001019150506116e0565b505b8473ffffffffffffffffffffffffffffffffffffffff16632724d10483836040518363ffffffff1660e01b8152600401611822929190614c8d565b600060405180830381600087803b15801561183c57600080fd5b505af1158015611850573d6000803e3d6000fd5b50505050611860600289896125ec565b505050505050505050565b611873612565565b8773ffffffffffffffffffffffffffffffffffffffff16600c60009054906101000a900473ffffffffffffffffffffffffffffffffffffffff1673ffffffffffffffffffffffffffffffffffffffff16146119975787600c60006101000a81548173ffffffffffffffffffffffffffffffffffffffff021916908373ffffffffffffffffffffffffffffffffffffffff160217905550600c60009054906101000a900473ffffffffffffffffffffffffffffffffffffffff1673ffffffffffffffffffffffffffffffffffffffff1663cd0f2311306040518263ffffffff1660e01b81526004016119649190614d10565b600060405180830381600087803b15801561197e57600080fd5b505af1158015611992573d6000803e3d6000fd5b505050505b86600d60006101000a81548173ffffffffffffffffffffffffffffffffffffffff021916908373ffffffffffffffffffffffffffffffffffffffff16021790555085600f60036101000a81548173ffffffffffffffffffffffffffffffffffffffff021916908373ffffffffffffffffffffffffffffffffffffffff16021790555084600b60006101000a81548173ffffffffffffffffffffffffffffffffffffffff021916908373ffffffffffffffffffffffffffffffffffffffff160217905550600b60009054906101000a900473ffffffffffffffffffffffffffffffffffffffff1673ffffffffffffffffffffffffffffffffffffffff1663313ce5676040518163ffffffff1660e01b8152600401602060405180830381865afa158015611ac7573d6000803e3d6000fd5b505050506040513d601f19601f82011682018060405250810190611aeb9190614d77565b60ff16600a611afa9190614ed7565b84611b059190614f22565b600e8190555082600f60016101000a81548161ffff021916908361ffff16021790555060046001600354611b399190613ae7565b81548110611b4a57611b49613b1b565b5b9060005260206000200160009054906101000a900473ffffffffffffffffffffffffffffffffffffffff1673ffffffffffffffffffffffffffffffffffffffff16639469f293836040518263ffffffff1660e01b8152600401611bad9190614f64565b600060405180830381600087803b158015611bc757600080fd5b505af1158015611bdb573d6000803e3d6000fd5b5050505080600f60006101000a81548160ff0219169083151502179055505050505050505050565b611c0b612565565b611c156000612631565b565b600f60039054906101000a900473ffffffffffffffffffffffffffffffffffffffff1681565b60048181548110611c4d57600080fd5b906000526020600020016000915054906101000a900473ffffffffffffffffffffffffffffffffffffffff1681565b60008060009054906101000a900473ffffffffffffffffffffffffffffffffffffffff16905090565b600960009054906101000a900461ffff1681565b611cc1612565565b60008173ffffffffffffffffffffffffffffffffffffffff166370a08231306040518263ffffffff1660e01b8152600401611cfc919061340e565b602060405180830381865afa158015611d19573d6000803e3d6000fd5b505050506040513d601f19601f82011682018060405250810190611d3d919061476d565b90506000811115611d7657611d7582600160009054906101000a900473ffffffffffffffffffffffffffffffffffffffff16836126f5565b5b5050565b611d82612565565b60036000815480929190611d9590614f86565b9190505550600073ffffffffffffffffffffffffffffffffffffffff168273ffffffffffffffffffffffffffffffffffffffff161480611e145750600380811115611de357611de2613213565b5b600560009054906101000a900460ff166003811115611e0557611e04613213565b5b148015611e13575042600754105b5b80611e2157506000600754145b611e60576040517f08c379a0000000000000000000000000000000000000000000000000000000008152600401611e579061501a565b60405180910390fd5b6004600f60039054906101000a900473ffffffffffffffffffffffffffffffffffffffff1673ffffffffffffffffffffffffffffffffffffffff166340818212868686600354876040518663ffffffff1660e01b8152600401611ec795949392919061503a565b6020604051808303816000875af1158015611ee6573d6000803e3d6000fd5b505050506040513d601f19601f82011682018060405250810190611f0a919061508d565b9080600181540180825580915050600190039060005260206000200160009091909190916101000a81548173ffffffffffffffffffffffffffffffffffffffff021916908373ffffffffffffffffffffffffffffffffffffffff160217905550611f76600085856125ec565b50505050565b611f84612565565b600060046001600354611f979190613ae7565b81548110611fa857611fa7613b1b565b5b9060005260206000200160009054906101000a900473ffffffffffffffffffffffffffffffffffffffff1690508073ffffffffffffffffffffffffffffffffffffffff1663e278fe6f6040518163ffffffff1660e01b8152600401600060405180830381600087803b15801561201d57600080fd5b505af1158015612031573d6000803e3d6000fd5b50505050600c60009054906101000a900473ffffffffffffffffffffffffffffffffffffffff1673ffffffffffffffffffffffffffffffffffffffff1663e726f2e183600661208091906150ba565b6040518263ffffffff1660e01b815260040161209c9190615101565b6020604051808303816000875af11580156120bb573d6000803e3d6000fd5b505050506040513d601f19601f820116820180604052508101906120df919061476d565b60106000600354815260200190815260200160002081905550612104600185856125ec565b50505050565b612112612565565b600047111561218557600160009054906101000a900473ffffffffffffffffffffffffffffffffffffffff1673ffffffffffffffffffffffffffffffffffffffff166108fc479081150290604051600060405180830381858888f19350505050158015612183573d6000803e3d6000fd5b505b565b60106020528060005260406000206000915090505481565b600d60009054906101000a900473ffffffffffffffffffffffffffffffffffffffff1681565b600f60009054906101000a900460ff1681565b600c60009054906101000a900473ffffffffffffffffffffffffffffffffffffffff1681565b612206612565565b600073ffffffffffffffffffffffffffffffffffffffff168173ffffffffffffffffffffffffffffffffffffffff16036122785760006040517f1e4fbdf700000000000000000000000000000000000000000000000000000000815260040161226f919061340e565b60405180910390fd5b61228181612631565b50565b600f60019054906101000a900461ffff1681565b6000805b8451811015612391576000600667ffffffffffffffff8111156122c2576122c161300d565b5b6040519080825280602002602001820160405280156122f05781602001602082028036833780820191505090505b50905060005b600681101561235b5786818461230c9190614619565b8151811061231d5761231c613b1b565b5b602002602001015182828151811061233857612337613b1b565b5b602002602001019061ffff16908161ffff168152505080806001019150506122f6565b50612367818686612774565b1561237c576001836123799190614619565b92505b5060068161238a9190614619565b905061229c565b50600073ffffffffffffffffffffffffffffffffffffffff168373ffffffffffffffffffffffffffffffffffffffff16141580156123db5750600f60009054906101000a900460ff165b1561255f578060068551816123f3576123f2614bef565b5b0460086000600354815260200190815260200160002060008573ffffffffffffffffffffffffffffffffffffffff1673ffffffffffffffffffffffffffffffffffffffff16815260200190815260200160002054010360086000600354815260200190815260200160002060008473ffffffffffffffffffffffffffffffffffffffff1673ffffffffffffffffffffffffffffffffffffffff168152602001908152602001600020819055508060068551816124b2576124b1614bef565b5b0460086000600354815260200190815260200160002060008673ffffffffffffffffffffffffffffffffffffffff1673ffffffffffffffffffffffffffffffffffffffff16815260200190815260200160002054010360086000600354815260200190815260200160002060008573ffffffffffffffffffffffffffffffffffffffff1673ffffffffffffffffffffffffffffffffffffffff168152602001908152602001600020819055505b50505050565b61256d612cd5565b73ffffffffffffffffffffffffffffffffffffffff1661258b611c7c565b73ffffffffffffffffffffffffffffffffffffffff16146125ea576125ae612cd5565b6040517f118cdaa70000000000000000000000000000000000000000000000000000000081526004016125e1919061340e565b60405180910390fd5b565b6125f4612565565b82600560006101000a81548160ff0219169083600381111561261957612618613213565b5b02179055508160068190555080600781905550505050565b60008060009054906101000a900473ffffffffffffffffffffffffffffffffffffffff169050816000806101000a81548173ffffffffffffffffffffffffffffffffffffffff021916908373ffffffffffffffffffffffffffffffffffffffff1602179055508173ffffffffffffffffffffffffffffffffffffffff168173ffffffffffffffffffffffffffffffffffffffff167f8be0079c531659141344cd1fd0a4f28419497f9722a3daafe3b4186f6b6457e060405160405180910390a35050565b61276f838473ffffffffffffffffffffffffffffffffffffffff1663a9059cbb85856040516024016127289291906148d2565b604051602081830303815290604052915060e01b6020820180517bffffffffffffffffffffffffffffffffffffffffffffffffffffffff8381831617835250505050612cdd565b505050565b60008060086000600354815260200190815260200160002060008473ffffffffffffffffffffffffffffffffffffffff1673ffffffffffffffffffffffffffffffffffffffff1681526020019081526020016000205411806128755750600e54600b60009054906101000a900473ffffffffffffffffffffffffffffffffffffffff1673ffffffffffffffffffffffffffffffffffffffff1663dd62ed3e84306040518363ffffffff1660e01b815260040161283192919061511c565b602060405180830381865afa15801561284e573d6000803e3d6000fd5b505050506040513d601f19601f82011682018060405250810190612872919061476d565b10155b61287e57600080fd5b6000600460016003546128919190613ae7565b815481106128a2576128a1613b1b565b5b9060005260206000200160009054906101000a900473ffffffffffffffffffffffffffffffffffffffff16905060008060086000600354815260200190815260200160002060008673ffffffffffffffffffffffffffffffffffffffff1673ffffffffffffffffffffffffffffffffffffffff16815260200190815260200160002054111561299c5760086000600354815260200190815260200160002060008573ffffffffffffffffffffffffffffffffffffffff1673ffffffffffffffffffffffffffffffffffffffff168152602001908152602001600020600081548092919061298e90615145565b919050555060019050612bd6565b600e54600b60009054906101000a900473ffffffffffffffffffffffffffffffffffffffff1673ffffffffffffffffffffffffffffffffffffffff166370a08231326040518263ffffffff1660e01b81526004016129fa919061340e565b602060405180830381865afa158015612a17573d6000803e3d6000fd5b505050506040513d601f19601f82011682018060405250810190612a3b919061476d565b1015612a7c576040517f08c379a0000000000000000000000000000000000000000000000000000000008152600401612a73906151ba565b60405180910390fd5b600a805490506009600081819054906101000a900461ffff1680929190612aa2906151da565b91906101000a81548161ffff021916908361ffff16021790555061ffff16612aca9190614c1e565b600960006101000a81548161ffff021916908361ffff160217905550612b68600b60009054906101000a900473ffffffffffffffffffffffffffffffffffffffff1685600a600960009054906101000a900461ffff1661ffff1681548110612b3557612b34613b1b565b5b9060005260206000200160009054906101000a900473ffffffffffffffffffffffffffffffffffffffff16600e54612d74565b8173ffffffffffffffffffffffffffffffffffffffff1663b56c12b4600e546040518263ffffffff1660e01b8152600401612ba391906132b4565b600060405180830381600087803b158015612bbd57600080fd5b505af1158015612bd1573d6000803e3d6000fd5b505050505b8015612c55578173ffffffffffffffffffffffffffffffffffffffff1663eb7165fa600254886000886040518563ffffffff1660e01b8152600401612c1e9493929190615204565b600060405180830381600087803b158015612c3857600080fd5b505af1158015612c4c573d6000803e3d6000fd5b50505050612cc9565b8173ffffffffffffffffffffffffffffffffffffffff1663eb7165fa6002548888886040518563ffffffff1660e01b8152600401612c969493929190615204565b600060405180830381600087803b158015612cb057600080fd5b505af1158015612cc4573d6000803e3d6000fd5b505050505b80925050509392505050565b600033905090565b6000612d08828473ffffffffffffffffffffffffffffffffffffffff16612df690919063ffffffff16565b90506000815114158015612d2d575080806020019051810190612d2b91906148fb565b155b15612d6f57826040517f5274afe7000000000000000000000000000000000000000000000000000000008152600401612d66919061340e565b60405180910390fd5b505050565b612df0848573ffffffffffffffffffffffffffffffffffffffff166323b872dd868686604051602401612da993929190615250565b604051602081830303815290604052915060e01b6020820180517bffffffffffffffffffffffffffffffffffffffffffffffffffffffff8381831617835250505050612cdd565b50505050565b6060612e0483836000612e0c565b905092915050565b606081471015612e5357306040517fcd786059000000000000000000000000000000000000000000000000000000008152600401612e4a919061340e565b60405180910390fd5b6000808573ffffffffffffffffffffffffffffffffffffffff168486604051612e7c91906152f8565b60006040518083038185875af1925050503d8060008114612eb9576040519150601f19603f3d011682016040523d82523d6000602084013e612ebe565b606091505b5091509150612ece868383612ed9565b925050509392505050565b606082612eee57612ee982612f68565b612f60565b60008251148015612f16575060008473ffffffffffffffffffffffffffffffffffffffff163b145b15612f5857836040517f9996b315000000000000000000000000000000000000000000000000000000008152600401612f4f919061340e565b60405180910390fd5b819050612f61565b5b9392505050565b600081511115612f7b5780518082602001fd5b6040517f1425ea4200000000000000000000000000000000000000000000000000000000815260040160405180910390fd5b6000604051905090565b600080fd5b600080fd5b6000819050919050565b612fd481612fc1565b8114612fdf57600080fd5b50565b600081359050612ff181612fcb565b92915050565b600080fd5b6000601f19601f8301169050919050565b7f4e487b7100000000000000000000000000000000000000000000000000000000600052604160045260246000fd5b61304582612ffc565b810181811067ffffffffffffffff821117156130645761306361300d565b5b80604052505050565b6000613077612fad565b9050613083828261303c565b919050565b600067ffffffffffffffff8211156130a3576130a261300d565b5b602082029050602081019050919050565b600080fd5b60006130cc6130c784613088565b61306d565b905080838252602082019050602084028301858111156130ef576130ee6130b4565b5b835b8181101561311857806131048882612fe2565b8452602084019350506020810190506130f1565b5050509392505050565b600082601f83011261313757613136612ff7565b5b81356131478482602086016130b9565b91505092915050565b6000806000806080858703121561316a57613169612fb7565b5b600061317887828801612fe2565b945050602061318987828801612fe2565b935050604061319a87828801612fe2565b925050606085013567ffffffffffffffff8111156131bb576131ba612fbc565b5b6131c787828801613122565b91505092959194509250565b600080604083850312156131ea576131e9612fb7565b5b60006131f885828601612fe2565b925050602061320985828601612fe2565b9150509250929050565b7f4e487b7100000000000000000000000000000000000000000000000000000000600052602160045260246000fd5b6004811061325357613252613213565b5b50565b600081905061326482613242565b919050565b600061327482613256565b9050919050565b61328481613269565b82525050565b600060208201905061329f600083018461327b565b92915050565b6132ae81612fc1565b82525050565b60006020820190506132c960008301846132a5565b92915050565b600073ffffffffffffffffffffffffffffffffffffffff82169050919050565b60006132fa826132cf565b9050919050565b61330a816132ef565b811461331557600080fd5b50565b60008135905061332781613301565b92915050565b60006020828403121561334357613342612fb7565b5b600061335184828501613318565b91505092915050565b60008115159050919050565b61336f8161335a565b811461337a57600080fd5b50565b60008135905061338c81613366565b92915050565b600080604083850312156133a9576133a8612fb7565b5b60006133b785828601613318565b92505060206133c88582860161337d565b9150509250929050565b6000602082840312156133e8576133e7612fb7565b5b60006133f684828501612fe2565b91505092915050565b613408816132ef565b82525050565b600060208201905061342360008301846133ff565b92915050565b6000819050919050565b600061344e613449613444846132cf565b613429565b6132cf565b9050919050565b600061346082613433565b9050919050565b600061347282613455565b9050919050565b61348281613467565b82525050565b600060208201905061349d6000830184613479565b92915050565b600080604083850312156134ba576134b9612fb7565b5b60006134c885828601612fe2565b92505060206134d985828601613318565b9150509250929050565b600080fd5b60008083601f8401126134fe576134fd612ff7565b5b8235905067ffffffffffffffff81111561351b5761351a6134e3565b5b602083019150836020820283011115613537576135366130b4565b5b9250929050565b60008083601f84011261355457613553612ff7565b5b8235905067ffffffffffffffff811115613571576135706134e3565b5b60208301915083602082028301111561358d5761358c6130b4565b5b9250929050565b600080600080604085870312156135ae576135ad612fb7565b5b600085013567ffffffffffffffff8111156135cc576135cb612fbc565b5b6135d8878288016134e8565b9450945050602085013567ffffffffffffffff8111156135fb576135fa612fbc565b5b6136078782880161353e565b925092505092959194509250565b600061ffff82169050919050565b61362c81613615565b811461363757600080fd5b50565b60008135905061364981613623565b92915050565b6000806000806080858703121561366957613668612fb7565b5b600061367787828801612fe2565b945050602061368887828801612fe2565b935050604061369987828801612fe2565b92505060606136aa8782880161363a565b91505092959194509250565b600067ffffffffffffffff8211156136d1576136d061300d565b5b602082029050602081019050919050565b60006136f56136f0846136b6565b61306d565b90508083825260208201905060208402830185811115613718576137176130b4565b5b835b81811015613741578061372d888261363a565b84526020840193505060208101905061371a565b5050509392505050565b600082601f8301126137605761375f612ff7565b5b81356137708482602086016136e2565b91505092915050565b600080600080600080600080610100898b03121561379a57613799612fb7565b5b60006137a88b828c01613318565b98505060206137b98b828c01613318565b97505060406137ca8b828c01613318565b96505060606137db8b828c01613318565b95505060806137ec8b828c01612fe2565b94505060a06137fd8b828c0161363a565b93505060c089013567ffffffffffffffff81111561381e5761381d612fbc565b5b61382a8b828c0161374b565b92505060e061383b8b828c0161337d565b9150509295985092959890939650565b600061385682613455565b9050919050565b6138668161384b565b82525050565b6000602082019050613881600083018461385d565b92915050565b61389081613615565b82525050565b60006020820190506138ab6000830184613887565b92915050565b600080600080608085870312156138cb576138ca612fb7565b5b60006138d987828801612fe2565b94505060206138ea87828801612fe2565b93505060406138fb87828801613318565b925050606061390c87828801612fe2565b91505092959194509250565b600063ffffffff82169050919050565b61393181613918565b811461393c57600080fd5b50565b60008135905061394e81613928565b92915050565b60008060006060848603121561396d5761396c612fb7565b5b600061397b86828701612fe2565b935050602061398c86828701612fe2565b925050604061399d8682870161393f565b9150509250925092565b60006139b282613455565b9050919050565b6139c2816139a7565b82525050565b60006020820190506139dd60008301846139b9565b92915050565b6139ec8161335a565b82525050565b6000602082019050613a0760008301846139e3565b92915050565b6000613a1882613455565b9050919050565b613a2881613a0d565b82525050565b6000602082019050613a436000830184613a1f565b92915050565b600080600060608486031215613a6257613a61612fb7565b5b600084013567ffffffffffffffff811115613a8057613a7f612fbc565b5b613a8c8682870161374b565b9350506020613a9d86828701613318565b9250506040613aae86828701613318565b9150509250925092565b7f4e487b7100000000000000000000000000000000000000000000000000000000600052601160045260246000fd5b6000613af282612fc1565b9150613afd83612fc1565b9250828203905081811115613b1557613b14613ab8565b5b92915050565b7f4e487b7100000000000000000000000000000000000000000000000000000000600052603260045260246000fd5b600067ffffffffffffffff821115613b6557613b6461300d565b5b602082029050602081019050919050565b600080fd5b600080fd5b600081519050613b8f81612fcb565b92915050565b600081519050613ba481613301565b92915050565b600a8110613bb757600080fd5b50565b600081519050613bc981613baa565b92915050565b600081519050613bde81613366565b92915050565b600060c08284031215613bfa57613bf9613b76565b5b613c0460c061306d565b90506000613c1484828501613b80565b6000830152506020613c2884828501613b95565b6020830152506040613c3c84828501613bba565b6040830152506060613c5084828501613bcf565b6060830152506080613c6484828501613bcf565b60808301525060a0613c7884828501613b80565b60a08301525092915050565b6000613c97613c9284613b4a565b61306d565b90508083825260208201905060c08402830185811115613cba57613cb96130b4565b5b835b81811015613ce35780613ccf8882613be4565b84526020840193505060c081019050613cbc565b5050509392505050565b600082601f830112613d0257613d01612ff7565b5b8151613d12848260208601613c84565b91505092915050565b600060208284031215613d3157613d30612fb7565b5b600082015167ffffffffffffffff811115613d4f57613d4e612fbc565b5b613d5b84828501613ced565b91505092915050565b600067ffffffffffffffff821115613d7f57613d7e61300d565b5b602082029050602081019050919050565b600060e08284031215613da657613da5613b76565b5b613db060e061306d565b90506000613dc084828501613b80565b6000830152506020613dd484828501613b95565b6020830152506040613de884828501613b95565b6040830152506060613dfc84828501613b80565b6060830152506080613e1084828501613bcf565b60808301525060a0613e2484828501613bcf565b60a08301525060c0613e3884828501613b80565b60c08301525092915050565b6000613e57613e5284613d64565b61306d565b90508083825260208201905060e08402830185811115613e7a57613e796130b4565b5b835b81811015613ea35780613e8f8882613d90565b84526020840193505060e081019050613e7c565b5050509392505050565b600082601f830112613ec257613ec1612ff7565b5b8151613ed2848260208601613e44565b91505092915050565b600060208284031215613ef157613ef0612fb7565b5b600082015167ffffffffffffffff811115613f0f57613f0e612fbc565b5b613f1b84828501613ead565b91505092915050565b600081519050919050565b600082825260208201905092915050565b6000819050602082019050919050565b613f5981612fc1565b82525050565b613f68816132ef565b82525050565b600a8110613f7f57613f7e613213565b5b50565b6000819050613f9082613f6e565b919050565b6000613fa082613f82565b9050919050565b613fb081613f95565b82525050565b613fbf8161335a565b82525050565b60c082016000820151613fdb6000850182613f50565b506020820151613fee6020850182613f5f565b5060408201516140016040850182613fa7565b5060608201516140146060850182613fb6565b5060808201516140276080850182613fb6565b5060a082015161403a60a0850182613f50565b50505050565b600061404c8383613fc5565b60c08301905092915050565b6000602082019050919050565b600061407082613f24565b61407a8185613f2f565b935061408583613f40565b8060005b838110156140b657815161409d8882614040565b97506140a883614058565b925050600181019050614089565b5085935050505092915050565b600081519050919050565b600082825260208201905092915050565b6000819050602082019050919050565b60e0820160008201516141056000850182613f50565b5060208201516141186020850182613f5f565b50604082015161412b6040850182613f5f565b50606082015161413e6060850182613f50565b5060808201516141516080850182613fb6565b5060a082015161416460a0850182613fb6565b5060c082015161417760c0850182613f50565b50505050565b600061418983836140ef565b60e08301905092915050565b6000602082019050919050565b60006141ad826140c3565b6141b781856140ce565b93506141c2836140df565b8060005b838110156141f35781516141da888261417d565b97506141e583614195565b9250506001810190506141c6565b5085935050505092915050565b600081519050919050565b600082825260208201905092915050565b6000819050602082019050919050565b60006142388383613f50565b60208301905092915050565b6000602082019050919050565b600061425c82614200565b614266818561420b565b93506142718361421c565b8060005b838110156142a2578151614289888261422c565b975061429483614244565b925050600181019050614275565b5085935050505092915050565b600060608201905081810360008301526142c98186614065565b905081810360208301526142dd81856141a2565b905081810360408301526142f18184614251565b9050949350505050565b60008151905061430a81613623565b92915050565b600061432361431e846136b6565b61306d565b90508083825260208201905060208402830185811115614346576143456130b4565b5b835b8181101561436f578061435b88826142fb565b845260208401935050602081019050614348565b5050509392505050565b600082601f83011261438e5761438d612ff7565b5b815161439e848260208601614310565b91505092915050565b60006143ba6143b584613088565b61306d565b905080838252602082019050602084028301858111156143dd576143dc6130b4565b5b835b8181101561440657806143f28882613b80565b8452602084019350506020810190506143df565b5050509392505050565b600082601f83011261442557614424612ff7565b5b81516144358482602086016143a7565b91505092915050565b6000610180828403121561445557614454613b76565b5b61446061018061306d565b9050600061447084828501613b80565b600083015250602061448484828501613b80565b602083015250604061449884828501613b80565b60408301525060606144ac84828501613b80565b60608301525060806144c084828501613bcf565b60808301525060a082015167ffffffffffffffff8111156144e4576144e3613b7b565b5b6144f084828501614379565b60a08301525060c082015167ffffffffffffffff81111561451457614513613b7b565b5b61452084828501614410565b60c08301525060e0614534848285016142fb565b60e08301525061010082015167ffffffffffffffff81111561455957614558613b7b565b5b61456584828501614410565b6101008301525061012061457b848285016142fb565b6101208301525061014082015167ffffffffffffffff8111156145a1576145a0613b7b565b5b6145ad84828501614410565b610140830152506101606145c3848285016142fb565b6101608301525092915050565b6000602082840312156145e6576145e5612fb7565b5b600082015167ffffffffffffffff81111561460457614603612fbc565b5b6146108482850161443e565b91505092915050565b600061462482612fc1565b915061462f83612fc1565b925082820190508082111561464757614646613ab8565b5b92915050565b600082825260208201905092915050565b7f4c6f7474657279206973206e6f7420696e20636c61696d20706572696f640000600082015250565b6000614694601e8361464d565b915061469f8261465e565b602082019050919050565b600060208201905081810360008301526146c381614687565b9050919050565b7f436c61696d20506572696f6420656e6465640000000000000000000000000000600082015250565b600061470060128361464d565b915061470b826146ca565b602082019050919050565b6000602082019050818103600083015261472f816146f3565b9050919050565b600060608201905061474b60008301866132a5565b61475860208301856133ff565b61476560408301846139e3565b949350505050565b60006020828403121561478357614782612fb7565b5b600061479184828501613b80565b91505092915050565b7f4e6f7468696e6720746f20636c61696d20666f7220746869732077616c6c6574600082015250565b60006147d060208361464d565b91506147db8261479a565b602082019050919050565b600060208201905081810360008301526147ff816147c3565b9050919050565b7f4e6f7420656e6f7567682066756e6473206f6e20636f6e747261637400000000600082015250565b600061483c601c8361464d565b915061484782614806565b602082019050919050565b6000602082019050818103600083015261486b8161482f565b9050919050565b600060408201905061488760008301856132a5565b61489460208301846133ff565b9392505050565b600060408201905081810360008301526148b58185614065565b905081810360208301526148c981846141a2565b90509392505050565b60006040820190506148e760008301856133ff565b6148f460208301846132a5565b9392505050565b60006020828403121561491157614910612fb7565b5b600061491f84828501613bcf565b91505092915050565b7f57616c6c657420616c7265616479206164646564000000000000000000000000600082015250565b600061495e60148361464d565b915061496982614928565b602082019050919050565b6000602082019050818103600083015261498d81614951565b9050919050565b7f4e487b7100000000000000000000000000000000000000000000000000000000600052603160045260246000fd5b600080604083850312156149da576149d9612fb7565b5b60006149e885828601613bcf565b925050602083015167ffffffffffffffff811115614a0957614a08612fbc565b5b614a1585828601614410565b9150509250929050565b7f52616e646f6d206e756d62657273206e6f742072656164790000000000000000600082015250565b6000614a5560188361464d565b9150614a6082614a1f565b602082019050919050565b60006020820190508181036000830152614a8481614a48565b9050919050565b6000819050919050565b6000614ab0614aab614aa684614a8b565b613429565b613615565b9050919050565b614ac081614a95565b82525050565b600081519050919050565b600082825260208201905092915050565b6000819050602082019050919050565b614afb81613615565b82525050565b6000614b0d8383614af2565b60208301905092915050565b6000602082019050919050565b6000614b3182614ac6565b614b3b8185614ad1565b9350614b4683614ae2565b8060005b83811015614b77578151614b5e8882614b01565b9750614b6983614b19565b925050600181019050614b4a565b5085935050505092915050565b6000606082019050614b9960008301866132a5565b614ba66020830185614ab7565b8181036040830152614bb88184614b26565b9050949350505050565b600060208284031215614bd857614bd7612fb7565b5b6000614be6848285016142fb565b91505092915050565b7f4e487b7100000000000000000000000000000000000000000000000000000000600052601260045260246000fd5b6000614c2982612fc1565b9150614c3483612fc1565b925082614c4457614c43614bef565b5b828206905092915050565b6000606082019050614c6460008301866132a5565b614c716020830185613887565b8181036040830152614c838184614b26565b9050949350505050565b60006040820190508181036000830152614ca78185614b26565b90508181036020830152614cbb8184614b26565b90509392505050565b7f4c6f74746572794d617374657256302e31000000000000000000000000000000600082015250565b6000614cfa60118361464d565b9150614d0582614cc4565b602082019050919050565b6000604082019050614d2560008301846133ff565b8181036020830152614d3681614ced565b905092915050565b600060ff82169050919050565b614d5481614d3e565b8114614d5f57600080fd5b50565b600081519050614d7181614d4b565b92915050565b600060208284031215614d8d57614d8c612fb7565b5b6000614d9b84828501614d62565b91505092915050565b60008160011c9050919050565b6000808291508390505b6001851115614dfb57808604811115614dd757614dd6613ab8565b5b6001851615614de65780820291505b8081029050614df485614da4565b9450614dbb565b94509492505050565b600082614e145760019050614ed0565b81614e225760009050614ed0565b8160018114614e385760028114614e4257614e71565b6001915050614ed0565b60ff841115614e5457614e53613ab8565b5b8360020a915084821115614e6b57614e6a613ab8565b5b50614ed0565b5060208310610133831016604e8410600b8410161715614ea65782820a905083811115614ea157614ea0613ab8565b5b614ed0565b614eb38484846001614db1565b92509050818404811115614eca57614ec9613ab8565b5b81810290505b9392505050565b6000614ee282612fc1565b9150614eed83612fc1565b9250614f1a7fffffffffffffffffffffffffffffffffffffffffffffffffffffffffffffffff8484614e04565b905092915050565b6000614f2d82612fc1565b9150614f3883612fc1565b9250828202614f4681612fc1565b91508282048414831517614f5d57614f5c613ab8565b5b5092915050565b60006020820190508181036000830152614f7e8184614b26565b905092915050565b6000614f9182612fc1565b91507fffffffffffffffffffffffffffffffffffffffffffffffffffffffffffffffff8203614fc357614fc2613ab8565b5b600182019050919050565b7f50726576696f757320726f756e64206e6f7420656e6465640000000000000000600082015250565b600061500460188361464d565b915061500f82614fce565b602082019050919050565b6000602082019050818103600083015261503381614ff7565b9050919050565b600060a08201905061504f60008301886132a5565b61505c60208301876132a5565b61506960408301866133ff565b61507660608301856132a5565b61508360808301846132a5565b9695505050505050565b6000602082840312156150a3576150a2612fb7565b5b60006150b184828501613b95565b91505092915050565b60006150c582613918565b91506150d083613918565b9250828201905063ffffffff8111156150ec576150eb613ab8565b5b92915050565b6150fb81613918565b82525050565b600060208201905061511660008301846150f2565b92915050565b600060408201905061513160008301856133ff565b61513e60208301846133ff565b9392505050565b600061515082612fc1565b91506000820361516357615162613ab8565b5b600182039050919050565b7f496e73756666696369656e742066756e64730000000000000000000000000000600082015250565b60006151a460128361464d565b91506151af8261516e565b602082019050919050565b600060208201905081810360008301526151d381615197565b9050919050565b60006151e582613615565b915061ffff82036151f9576151f8613ab8565b5b600182019050919050565b600060808201905061521960008301876132a5565b818103602083015261522b8186614b26565b905061523a60408301856133ff565b61524760608301846133ff565b95945050505050565b600060608201905061526560008301866133ff565b61527260208301856133ff565b61527f60408301846132a5565b949350505050565b600081519050919050565b600081905092915050565b60005b838110156152bb5780820151818401526020810190506152a0565b60008484015250505050565b60006152d282615287565b6152dc8185615292565b93506152ec81856020860161529d565b80840191505092915050565b600061530482846152c7565b91508190509291505056fea26469706673582212206ef648f4c76eb8f9a2ae190d34996a1d6e495daa5e750313fef23183a07a677d64736f6c63430008180033",
  "devdoc": {
    "errors": {
      "AddressEmptyCode(address)": [
        {
          "details": "There's no code at `target` (it is not a contract)."
        }
      ],
      "AddressInsufficientBalance(address)": [
        {
          "details": "The ETH balance of the account is not enough to perform the operation."
        }
      ],
      "FailedInnerCall()": [
        {
          "details": "A call to an address target failed. The target may have reverted."
        }
      ],
      "OwnableInvalidOwner(address)": [
        {
          "details": "The owner is not a valid owner account. (eg. `address(0)`)"
        }
      ],
      "OwnableUnauthorizedAccount(address)": [
        {
          "details": "The caller account is not authorized to perform an operation."
        }
      ],
      "SafeERC20FailedOperation(address)": [
        {
          "details": "An operation with an ERC20 token failed."
        }
      ]
    },
    "kind": "dev",
    "methods": {
      "owner()": {
        "details": "Returns the address of the current owner."
      },
      "renounceOwnership()": {
        "details": "Leaves the contract without owner. It will not be possible to call `onlyOwner` functions. Can only be called by the current owner. NOTE: Renouncing ownership will leave the contract without an owner, thereby disabling any functionality that is only available to the owner."
      },
      "transferOwnership(address)": {
        "details": "Transfers ownership of the contract to a new account (`newOwner`). Can only be called by the current owner."
      }
    },
    "version": 1
  },
  "userdoc": {
    "kind": "user",
    "methods": {},
    "version": 1
  },
  "storageLayout": {
    "storage": [
      {
        "astId": 8,
        "contract": "contracts/LotteryMaster.sol:LotteryMaster",
        "label": "_owner",
        "offset": 0,
        "slot": "0",
        "type": "t_address"
      },
      {
        "astId": 4999,
        "contract": "contracts/LotteryMaster.sol:LotteryMaster",
        "label": "teamAddress",
        "offset": 0,
        "slot": "1",
        "type": "t_address"
      },
      {
        "astId": 1035,
        "contract": "contracts/LotteryMaster.sol:LotteryMaster",
        "label": "chainId",
        "offset": 0,
        "slot": "2",
        "type": "t_uint256"
      },
      {
        "astId": 1037,
        "contract": "contracts/LotteryMaster.sol:LotteryMaster",
        "label": "roundCount",
        "offset": 0,
        "slot": "3",
        "type": "t_uint256"
      },
      {
        "astId": 1040,
        "contract": "contracts/LotteryMaster.sol:LotteryMaster",
        "label": "rounds",
        "offset": 0,
        "slot": "4",
        "type": "t_array(t_address)dyn_storage"
      },
      {
        "astId": 1043,
        "contract": "contracts/LotteryMaster.sol:LotteryMaster",
        "label": "lotteryStatus",
        "offset": 0,
        "slot": "5",
        "type": "t_enum(LotteryStatuses)1029"
      },
      {
        "astId": 1045,
        "contract": "contracts/LotteryMaster.sol:LotteryMaster",
        "label": "statusStartTime",
        "offset": 0,
        "slot": "6",
        "type": "t_uint256"
      },
      {
        "astId": 1047,
        "contract": "contracts/LotteryMaster.sol:LotteryMaster",
        "label": "statusEndTime",
        "offset": 0,
        "slot": "7",
        "type": "t_uint256"
      },
      {
        "astId": 1053,
        "contract": "contracts/LotteryMaster.sol:LotteryMaster",
        "label": "freeRounds",
        "offset": 0,
        "slot": "8",
        "type": "t_mapping(t_uint256,t_mapping(t_address,t_uint256))"
      },
      {
        "astId": 1092,
        "contract": "contracts/LotteryMaster.sol:LotteryMaster",
        "label": "counterForBankWallets",
        "offset": 0,
        "slot": "9",
        "type": "t_uint16"
      },
      {
        "astId": 1095,
        "contract": "contracts/LotteryMaster.sol:LotteryMaster",
        "label": "bankWallets",
        "offset": 0,
        "slot": "10",
        "type": "t_array(t_address)dyn_storage"
      },
      {
        "astId": 1162,
        "contract": "contracts/LotteryMaster.sol:LotteryMaster",
        "label": "paymentToken",
        "offset": 0,
        "slot": "11",
        "type": "t_contract(IERC20Metadata)251"
      },
      {
        "astId": 1165,
        "contract": "contracts/LotteryMaster.sol:LotteryMaster",
        "label": "randomizer",
        "offset": 0,
        "slot": "12",
        "type": "t_contract(CyclixRandomizerInterface)901"
      },
      {
        "astId": 1168,
        "contract": "contracts/LotteryMaster.sol:LotteryMaster",
        "label": "reader",
        "offset": 0,
        "slot": "13",
        "type": "t_contract(LotteryReaderInterface)3887"
      },
      {
        "astId": 1170,
        "contract": "contracts/LotteryMaster.sol:LotteryMaster",
        "label": "ticketPrice",
        "offset": 0,
        "slot": "14",
        "type": "t_uint256"
      },
      {
        "astId": 1173,
        "contract": "contracts/LotteryMaster.sol:LotteryMaster",
        "label": "freeRoundsAreEnabled",
        "offset": 0,
        "slot": "15",
        "type": "t_bool"
      },
      {
        "astId": 1176,
        "contract": "contracts/LotteryMaster.sol:LotteryMaster",
        "label": "percentageOfReferralWinners",
        "offset": 1,
        "slot": "15",
        "type": "t_uint16"
      },
      {
        "astId": 1179,
        "contract": "contracts/LotteryMaster.sol:LotteryMaster",
        "label": "lotteryRoundCreator",
        "offset": 3,
        "slot": "15",
        "type": "t_contract(LotteryRoundCreatorInterface)4873"
      },
      {
        "astId": 1764,
        "contract": "contracts/LotteryMaster.sol:LotteryMaster",
        "label": "publicRoundRandomNumbersRequestId",
        "offset": 0,
        "slot": "16",
        "type": "t_mapping(t_uint256,t_uint256)"
      }
    ],
    "types": {
      "t_address": {
        "encoding": "inplace",
        "label": "address",
        "numberOfBytes": "20"
      },
      "t_array(t_address)dyn_storage": {
        "base": "t_address",
        "encoding": "dynamic_array",
        "label": "address[]",
        "numberOfBytes": "32"
      },
      "t_bool": {
        "encoding": "inplace",
        "label": "bool",
        "numberOfBytes": "1"
      },
      "t_contract(CyclixRandomizerInterface)901": {
        "encoding": "inplace",
        "label": "contract CyclixRandomizerInterface",
        "numberOfBytes": "20"
      },
      "t_contract(IERC20Metadata)251": {
        "encoding": "inplace",
        "label": "contract IERC20Metadata",
        "numberOfBytes": "20"
      },
      "t_contract(LotteryReaderInterface)3887": {
        "encoding": "inplace",
        "label": "contract LotteryReaderInterface",
        "numberOfBytes": "20"
      },
      "t_contract(LotteryRoundCreatorInterface)4873": {
        "encoding": "inplace",
        "label": "contract LotteryRoundCreatorInterface",
        "numberOfBytes": "20"
      },
      "t_enum(LotteryStatuses)1029": {
        "encoding": "inplace",
        "label": "enum LotteryStatuses",
        "numberOfBytes": "1"
      },
      "t_mapping(t_address,t_uint256)": {
        "encoding": "mapping",
        "key": "t_address",
        "label": "mapping(address => uint256)",
        "numberOfBytes": "32",
        "value": "t_uint256"
      },
      "t_mapping(t_uint256,t_mapping(t_address,t_uint256))": {
        "encoding": "mapping",
        "key": "t_uint256",
        "label": "mapping(uint256 => mapping(address => uint256))",
        "numberOfBytes": "32",
        "value": "t_mapping(t_address,t_uint256)"
      },
      "t_mapping(t_uint256,t_uint256)": {
        "encoding": "mapping",
        "key": "t_uint256",
        "label": "mapping(uint256 => uint256)",
        "numberOfBytes": "32",
        "value": "t_uint256"
      },
      "t_uint16": {
        "encoding": "inplace",
        "label": "uint16",
        "numberOfBytes": "2"
      },
      "t_uint256": {
        "encoding": "inplace",
        "label": "uint256",
        "numberOfBytes": "32"
      }
    }
  }
}