{
  "address": "0xFF49f085A0bD03c2f9517B43EceC9D5adf3a680f",
  "abi": [
    {
      "inputs": [
        {
          "internalType": "address",
          "name": "cyclixRandomizer",
          "type": "address"
        },
        {
          "internalType": "address",
          "name": "lotteryReader",
          "type": "address"
        },
        {
          "internalType": "address",
          "name": "_paymentToken",
          "type": "address"
        },
        {
          "internalType": "uint256",
          "name": "_ticketPrice",
          "type": "uint256"
        }
      ],
      "stateMutability": "nonpayable",
      "type": "constructor"
    },
    {
      "inputs": [
        {
          "internalType": "address",
          "name": "target",
          "type": "address"
        }
      ],
      "name": "AddressEmptyCode",
      "type": "error"
    },
    {
      "inputs": [
        {
          "internalType": "address",
          "name": "account",
          "type": "address"
        }
      ],
      "name": "AddressInsufficientBalance",
      "type": "error"
    },
    {
      "inputs": [],
      "name": "FailedInnerCall",
      "type": "error"
    },
    {
      "inputs": [
        {
          "internalType": "address",
          "name": "owner",
          "type": "address"
        }
      ],
      "name": "OwnableInvalidOwner",
      "type": "error"
    },
    {
      "inputs": [
        {
          "internalType": "address",
          "name": "account",
          "type": "address"
        }
      ],
      "name": "OwnableUnauthorizedAccount",
      "type": "error"
    },
    {
      "inputs": [
        {
          "internalType": "address",
          "name": "token",
          "type": "address"
        }
      ],
      "name": "SafeERC20FailedOperation",
      "type": "error"
    },
    {
      "anonymous": false,
      "inputs": [
        {
          "indexed": true,
          "internalType": "address",
          "name": "previousOwner",
          "type": "address"
        },
        {
          "indexed": true,
          "internalType": "address",
          "name": "newOwner",
          "type": "address"
        }
      ],
      "name": "OwnershipTransferred",
      "type": "event"
    },
    {
      "inputs": [
        {
          "internalType": "address",
          "name": "wallet",
          "type": "address"
        }
      ],
      "name": "addBankWallet",
      "outputs": [],
      "stateMutability": "nonpayable",
      "type": "function"
    },
    {
      "inputs": [
        {
          "internalType": "address[]",
          "name": "participant",
          "type": "address[]"
        }
      ],
      "name": "addFreeRound",
      "outputs": [],
      "stateMutability": "nonpayable",
      "type": "function"
    },
    {
      "inputs": [
        {
          "internalType": "uint256",
          "name": "",
          "type": "uint256"
        }
      ],
      "name": "bankWallets",
      "outputs": [
        {
          "internalType": "address",
          "name": "",
          "type": "address"
        }
      ],
      "stateMutability": "view",
      "type": "function"
    },
    {
      "inputs": [
        {
          "internalType": "uint256",
          "name": "chainId",
          "type": "uint256"
        },
        {
          "internalType": "uint16[]",
          "name": "chosenNumbers",
          "type": "uint16[]"
        },
        {
          "internalType": "uint16",
          "name": "powerNumber",
          "type": "uint16"
        },
        {
          "internalType": "address",
          "name": "referral",
          "type": "address"
        }
      ],
      "name": "buyTicket",
      "outputs": [],
      "stateMutability": "nonpayable",
      "type": "function"
    },
    {
      "inputs": [
        {
          "internalType": "uint256",
          "name": "referralTicketId",
          "type": "uint256"
        }
      ],
      "name": "claimReferralVictory",
      "outputs": [],
      "stateMutability": "nonpayable",
      "type": "function"
    },
    {
      "inputs": [
        {
          "internalType": "uint256",
          "name": "ticketId",
          "type": "uint256"
        }
      ],
      "name": "claimVictory",
      "outputs": [],
      "stateMutability": "nonpayable",
      "type": "function"
    },
    {
      "inputs": [],
      "name": "closeRound",
      "outputs": [],
      "stateMutability": "nonpayable",
      "type": "function"
    },
    {
      "inputs": [],
      "name": "counterForBankWallets",
      "outputs": [
        {
          "internalType": "uint16",
          "name": "",
          "type": "uint16"
        }
      ],
      "stateMutability": "view",
      "type": "function"
    },
    {
      "inputs": [
        {
          "internalType": "uint256",
          "name": "roundId",
          "type": "uint256"
        }
      ],
      "name": "fetchRoundNumbers",
      "outputs": [],
      "stateMutability": "nonpayable",
      "type": "function"
    },
    {
      "inputs": [
        {
          "internalType": "address",
          "name": "",
          "type": "address"
        }
      ],
      "name": "freeRounds",
      "outputs": [
        {
          "internalType": "uint16",
          "name": "",
          "type": "uint16"
        }
      ],
      "stateMutability": "view",
      "type": "function"
    },
    {
      "inputs": [],
      "name": "freeRoundsAreEnabled",
      "outputs": [
        {
          "internalType": "bool",
          "name": "",
          "type": "bool"
        }
      ],
      "stateMutability": "view",
      "type": "function"
    },
    {
      "inputs": [],
      "name": "getCurrentRound",
      "outputs": [
        {
          "internalType": "address",
          "name": "",
          "type": "address"
        }
      ],
      "stateMutability": "view",
      "type": "function"
    },
    {
      "inputs": [
        {
          "internalType": "uint256",
          "name": "roundId",
          "type": "uint256"
        }
      ],
      "name": "markWinners",
      "outputs": [],
      "stateMutability": "nonpayable",
      "type": "function"
    },
    {
      "inputs": [],
      "name": "owner",
      "outputs": [
        {
          "internalType": "address",
          "name": "",
          "type": "address"
        }
      ],
      "stateMutability": "view",
      "type": "function"
    },
    {
      "inputs": [],
      "name": "paymentToken",
      "outputs": [
        {
          "internalType": "contract IERC20Metadata",
          "name": "",
          "type": "address"
        }
      ],
      "stateMutability": "view",
      "type": "function"
    },
    {
      "inputs": [],
      "name": "percentageOfReferralWinners",
      "outputs": [
        {
          "internalType": "uint16",
          "name": "",
          "type": "uint16"
        }
      ],
      "stateMutability": "view",
      "type": "function"
    },
    {
      "inputs": [
        {
          "internalType": "uint256",
          "name": "",
          "type": "uint256"
        }
      ],
      "name": "publicRoundRandomNumbersRequestId",
      "outputs": [
        {
          "internalType": "uint256",
          "name": "",
          "type": "uint256"
        }
      ],
      "stateMutability": "view",
      "type": "function"
    },
    {
      "inputs": [],
      "name": "randomizer",
      "outputs": [
        {
          "internalType": "contract CyclixRandomizerInterface",
          "name": "",
          "type": "address"
        }
      ],
      "stateMutability": "view",
      "type": "function"
    },
    {
      "inputs": [],
      "name": "reader",
      "outputs": [
        {
          "internalType": "contract LotteryReaderInterface",
          "name": "",
          "type": "address"
        }
      ],
      "stateMutability": "view",
      "type": "function"
    },
    {
      "inputs": [
        {
          "internalType": "address",
          "name": "wallet",
          "type": "address"
        }
      ],
      "name": "removeBankWallet",
      "outputs": [],
      "stateMutability": "nonpayable",
      "type": "function"
    },
    {
      "inputs": [],
      "name": "renounceOwnership",
      "outputs": [],
      "stateMutability": "nonpayable",
      "type": "function"
    },
    {
      "inputs": [],
      "name": "roundCount",
      "outputs": [
        {
          "internalType": "uint256",
          "name": "",
          "type": "uint256"
        }
      ],
      "stateMutability": "view",
      "type": "function"
    },
    {
      "inputs": [
        {
          "internalType": "uint256",
          "name": "roundId",
          "type": "uint256"
        }
      ],
      "name": "roundForId",
      "outputs": [
        {
          "internalType": "address",
          "name": "",
          "type": "address"
        }
      ],
      "stateMutability": "view",
      "type": "function"
    },
    {
      "inputs": [
        {
          "internalType": "uint256",
          "name": "",
          "type": "uint256"
        }
      ],
      "name": "rounds",
      "outputs": [
        {
          "internalType": "address",
          "name": "",
          "type": "address"
        }
      ],
      "stateMutability": "view",
      "type": "function"
    },
    {
      "inputs": [],
      "name": "sendCryptoToTeam",
      "outputs": [],
      "stateMutability": "nonpayable",
      "type": "function"
    },
    {
      "inputs": [
        {
          "internalType": "address",
          "name": "_token",
          "type": "address"
        }
      ],
      "name": "sendTokenToTeam",
      "outputs": [],
      "stateMutability": "nonpayable",
      "type": "function"
    },
    {
      "inputs": [
        {
          "internalType": "bool",
          "name": "v",
          "type": "bool"
        }
      ],
      "name": "setFreeRoundsOnPurchase",
      "outputs": [],
      "stateMutability": "nonpayable",
      "type": "function"
    },
    {
      "inputs": [
        {
          "internalType": "address",
          "name": "_paymentToken",
          "type": "address"
        }
      ],
      "name": "setPaymentToken",
      "outputs": [],
      "stateMutability": "nonpayable",
      "type": "function"
    },
    {
      "inputs": [
        {
          "internalType": "uint16",
          "name": "percentage",
          "type": "uint16"
        }
      ],
      "name": "setPercentageOfReferralWinners",
      "outputs": [],
      "stateMutability": "nonpayable",
      "type": "function"
    },
    {
      "inputs": [
        {
          "internalType": "uint256",
          "name": "_ticketPrice",
          "type": "uint256"
        }
      ],
      "name": "setTicketPrice",
      "outputs": [],
      "stateMutability": "nonpayable",
      "type": "function"
    },
    {
      "inputs": [
        {
          "internalType": "address",
          "name": "wallet",
          "type": "address"
        }
      ],
      "name": "setTreasuryWallet",
      "outputs": [],
      "stateMutability": "nonpayable",
      "type": "function"
    },
    {
      "inputs": [
        {
          "internalType": "address",
          "name": "newLotteryRoundAddress",
          "type": "address"
        }
      ],
      "name": "startNewRound",
      "outputs": [],
      "stateMutability": "nonpayable",
      "type": "function"
    },
    {
      "inputs": [],
      "name": "ticketPrice",
      "outputs": [
        {
          "internalType": "uint256",
          "name": "",
          "type": "uint256"
        }
      ],
      "stateMutability": "view",
      "type": "function"
    },
    {
      "inputs": [
        {
          "internalType": "address",
          "name": "newOwner",
          "type": "address"
        }
      ],
      "name": "transferOwnership",
      "outputs": [],
      "stateMutability": "nonpayable",
      "type": "function"
    },
    {
      "inputs": [],
      "name": "treasuryWallets",
      "outputs": [
        {
          "internalType": "address",
          "name": "",
          "type": "address"
        }
      ],
      "stateMutability": "view",
      "type": "function"
    },
    {
      "inputs": [
        {
          "internalType": "address",
          "name": "_teamAddress",
          "type": "address"
        }
      ],
      "name": "updateTeamAddress",
      "outputs": [],
      "stateMutability": "nonpayable",
      "type": "function"
    }
  ],
  "transactionHash": "0x823a93f8e117e9fdbf6e09dafb1ffea0b16ef34013a7e264d3b87a058ae1320d",
  "args": [
    "0x603A50cF183cb4c103A95baDfaF011b749e04966",
    "0x0a2bc472FF5A1d00125818A03e04572DDD66e65d",
    "0xd6f605b40ba9D2ffB07f192d7eDf4eeB0B21c142",
    10
  ],
  "numDeployments": 3,
  "solcInputHash": "6980f2ca75b827fc7320137b1dd0b9ab",
  "bytecode": "0x60806040526000600c60006101000a81548160ff021916908315150217905550600a600c60016101000a81548161ffff021916908361ffff1602179055503480156200004a57600080fd5b5060405162005d6538038062005d6583398181016040528101906200007091906200055e565b3380600073ffffffffffffffffffffffffffffffffffffffff168173ffffffffffffffffffffffffffffffffffffffff1603620000e75760006040517f1e4fbdf7000000000000000000000000000000000000000000000000000000008152600401620000de9190620005e1565b60405180910390fd5b620000f881620003f560201b60201c565b5080600160006101000a81548173ffffffffffffffffffffffffffffffffffffffff021916908373ffffffffffffffffffffffffffffffffffffffff1602179055505083600960006101000a81548173ffffffffffffffffffffffffffffffffffffffff021916908373ffffffffffffffffffffffffffffffffffffffff160217905550600960009054906101000a900473ffffffffffffffffffffffffffffffffffffffff1673ffffffffffffffffffffffffffffffffffffffff1663cd0f2311306040518263ffffffff1660e01b8152600401620001d991906200065f565b600060405180830381600087803b158015620001f457600080fd5b505af115801562000209573d6000803e3d6000fd5b5050505082600a60006101000a81548173ffffffffffffffffffffffffffffffffffffffff021916908373ffffffffffffffffffffffffffffffffffffffff16021790555081600860006101000a81548173ffffffffffffffffffffffffffffffffffffffff021916908373ffffffffffffffffffffffffffffffffffffffff160217905550600860009054906101000a900473ffffffffffffffffffffffffffffffffffffffff1673ffffffffffffffffffffffffffffffffffffffff1663313ce5676040518163ffffffff1660e01b8152600401602060405180830381865afa158015620002fd573d6000803e3d6000fd5b505050506040513d601f19601f82011682018060405250810190620003239190620006cf565b60ff16600a62000334919062000884565b81620003419190620008d5565b600b8190555033600760006101000a81548173ffffffffffffffffffffffffffffffffffffffff021916908373ffffffffffffffffffffffffffffffffffffffff1602179055506006339080600181540180825580915050600190039060005260206000200160009091909190916101000a81548173ffffffffffffffffffffffffffffffffffffffff021916908373ffffffffffffffffffffffffffffffffffffffff1602179055505050505062000920565b60008060009054906101000a900473ffffffffffffffffffffffffffffffffffffffff169050816000806101000a81548173ffffffffffffffffffffffffffffffffffffffff021916908373ffffffffffffffffffffffffffffffffffffffff1602179055508173ffffffffffffffffffffffffffffffffffffffff168173ffffffffffffffffffffffffffffffffffffffff167f8be0079c531659141344cd1fd0a4f28419497f9722a3daafe3b4186f6b6457e060405160405180910390a35050565b600080fd5b600073ffffffffffffffffffffffffffffffffffffffff82169050919050565b6000620004eb82620004be565b9050919050565b620004fd81620004de565b81146200050957600080fd5b50565b6000815190506200051d81620004f2565b92915050565b6000819050919050565b620005388162000523565b81146200054457600080fd5b50565b60008151905062000558816200052d565b92915050565b600080600080608085870312156200057b576200057a620004b9565b5b60006200058b878288016200050c565b94505060206200059e878288016200050c565b9350506040620005b1878288016200050c565b9250506060620005c48782880162000547565b91505092959194509250565b620005db81620004de565b82525050565b6000602082019050620005f86000830184620005d0565b92915050565b600082825260208201905092915050565b7f4c6f74746572794d617374657256302e31000000000000000000000000000000600082015250565b600062000647601183620005fe565b915062000654826200060f565b602082019050919050565b6000604082019050620006766000830184620005d0565b8181036020830152620006898162000638565b905092915050565b600060ff82169050919050565b620006a98162000691565b8114620006b557600080fd5b50565b600081519050620006c9816200069e565b92915050565b600060208284031215620006e857620006e7620004b9565b5b6000620006f884828501620006b8565b91505092915050565b7f4e487b7100000000000000000000000000000000000000000000000000000000600052601160045260246000fd5b60008160011c9050919050565b6000808291508390505b60018511156200078f5780860481111562000767576200076662000701565b5b6001851615620007775780820291505b8081029050620007878562000730565b945062000747565b94509492505050565b600082620007aa57600190506200087d565b81620007ba57600090506200087d565b8160018114620007d35760028114620007de5762000814565b60019150506200087d565b60ff841115620007f357620007f262000701565b5b8360020a9150848211156200080d576200080c62000701565b5b506200087d565b5060208310610133831016604e8410600b84101617156200084e5782820a90508381111562000848576200084762000701565b5b6200087d565b6200085d84848460016200073d565b9250905081840481111562000877576200087662000701565b5b81810290505b9392505050565b6000620008918262000523565b91506200089e8362000523565b9250620008cd7fffffffffffffffffffffffffffffffffffffffffffffffffffffffffffffffff848462000798565b905092915050565b6000620008e28262000523565b9150620008ef8362000523565b9250828202620008ff8162000523565b9150828204841483151762000919576200091862000701565b5b5092915050565b61543580620009306000396000f3fe608060405234801561001057600080fd5b506004361061021c5760003560e01c806392566fdd11610125578063cedd1bc3116100ad578063e278fe6f1161007c578063e278fe6f146105c3578063f10fb584146105cd578063f2fde38b146105eb578063f4dec22b14610607578063fd12e8cc146106255761021c565b8063cedd1bc31461053b578063d4fc42c61461056b578063dc41848514610589578063e03d753a146105a55761021c565b8063a8602fea116100f4578063a8602fea146104c1578063b086f3c0146104dd578063b33d8c54146104f9578063ba96849414610515578063bbd1783a146105315761021c565b806392566fdd1461044d578063998da3e91461046b578063a32bf59714610487578063a628f4fd146104a55761021c565b8063258799f8116101a85780634ff776b8116101775780634ff776b8146103bd5780636a326ab1146103d9578063715018a6146103f55780638c65c81f146103ff5780638da5cb5b1461042f5761021c565b8063258799f814610337578063266fbf90146103675780633013ce291461038357806339c834e9146103a15761021c565b806314eb76ac116101ef57806314eb76ac1461029757806315981650146102b35780631e410ddb146102cf5780631f9f168e146102eb5780631fcebf68146103075761021c565b80630f5c49de14610221578063104dc3601461023d5780631209b1f61461025b578063127f0b3f14610279575b600080fd5b61023b600480360381019061023691906136c4565b610655565b005b61024561067a565b6040516102529190613732565b60405180910390f35b6102636106a0565b6040516102709190613766565b60405180910390f35b6102816106a6565b60405161028e9190613766565b60405180910390f35b6102b160048036038101906102ac91906137ad565b6106ac565b005b6102cd60048036038101906102c89190613806565b6106f8565b005b6102e960048036038101906102e4919061386d565b61070a565b005b610305600480360381019061030091906137ad565b610732565b005b610321600480360381019061031c91906137ad565b6109ed565b60405161032e91906138a9565b60405180910390f35b610351600480360381019061034c9190613806565b610a0e565b60405161035e9190613732565b60405180910390f35b610381600480360381019061037c9190613a1d565b610a4d565b005b61038b61104b565b6040516103989190613aff565b60405180910390f35b6103bb60048036038101906103b691906137ad565b611071565b005b6103d760048036038101906103d29190613806565b6111ff565b005b6103f360048036038101906103ee91906137ad565b611931565b005b6103fd61197d565b005b61041960048036038101906104149190613806565b611991565b6040516104269190613732565b60405180910390f35b6104376119d0565b6040516104449190613732565b60405180910390f35b6104556119f9565b60405161046291906138a9565b60405180910390f35b610485600480360381019061048091906137ad565b611a0d565b005b61048f611ace565b60405161049c9190613732565b60405180910390f35b6104bf60048036038101906104ba9190613806565b611b22565b005b6104db60048036038101906104d691906137ad565b611d24565b005b6104f760048036038101906104f29190613806565b611d70565b005b610513600480360381019061050e9190613b75565b6124f8565b005b61052f600480360381019061052a91906137ad565b6125bf565b005b6105396126fe565b005b61055560048036038101906105509190613806565b61277b565b6040516105629190613766565b60405180910390f35b610573612793565b6040516105809190613be3565b60405180910390f35b6105a3600480360381019061059e9190613806565b6127b9565b005b6105ad612d4a565b6040516105ba9190613c0d565b60405180910390f35b6105cb612d5d565b005b6105d5612f7f565b6040516105e29190613c49565b60405180910390f35b610605600480360381019061060091906137ad565b612fa5565b005b61060f61302b565b60405161061c91906138a9565b60405180910390f35b61063f600480360381019061063a9190613806565b61303f565b60405161064c9190613732565b60405180910390f35b61065d613093565b80600c60006101000a81548160ff02191690831515021790555050565b600760009054906101000a900473ffffffffffffffffffffffffffffffffffffffff1681565b600b5481565b60025481565b6106b4613093565b80600160006101000a81548173ffffffffffffffffffffffffffffffffffffffff021916908373ffffffffffffffffffffffffffffffffffffffff16021790555050565b610700613093565b80600b8190555050565b610712613093565b80600c60016101000a81548161ffff021916908361ffff16021790555050565b61073a613093565b6002600081548092919061074d90613c93565b91905055506003819080600181540180825580915050600190039060005260206000200160009091909190916101000a81548173ffffffffffffffffffffffffffffffffffffffff021916908373ffffffffffffffffffffffffffffffffffffffff160217905550600160025411156109ea576003600280546107d09190613cdb565b815481106107e1576107e0613d0f565b5b9060005260206000200160009054906101000a900473ffffffffffffffffffffffffffffffffffffffff1673ffffffffffffffffffffffffffffffffffffffff16639f8743f76040518163ffffffff1660e01b8152600401600060405180830381865afa158015610856573d6000803e3d6000fd5b505050506040513d6000823e3d601f19601f8201168201806040525081019061087f9190614073565b606001516108c2576040517f08c379a00000000000000000000000000000000000000000000000000000000081526004016108b990614119565b60405180910390fd5b8073ffffffffffffffffffffffffffffffffffffffff1663b288e1a96040518163ffffffff1660e01b8152600401602060405180830381865afa15801561090d573d6000803e3d6000fd5b505050506040513d601f19601f82011682018060405250810190610931919061414e565b73ffffffffffffffffffffffffffffffffffffffff166003600280546109579190613cdb565b8154811061096857610967613d0f565b5b9060005260206000200160009054906101000a900473ffffffffffffffffffffffffffffffffffffffff1673ffffffffffffffffffffffffffffffffffffffff16146109e9576040517f08c379a00000000000000000000000000000000000000000000000000000000081526004016109e0906141ed565b60405180910390fd5b5b50565b60046020528060005260406000206000915054906101000a900461ffff1681565b60068181548110610a1e57600080fd5b906000526020600020016000915054906101000a900473ffffffffffffffffffffffffffffffffffffffff1681565b6000600460003273ffffffffffffffffffffffffffffffffffffffff1673ffffffffffffffffffffffffffffffffffffffff16815260200190815260200160002060009054906101000a900461ffff1661ffff161180610b4c5750600b54600860009054906101000a900473ffffffffffffffffffffffffffffffffffffffff1673ffffffffffffffffffffffffffffffffffffffff1663dd62ed3e32306040518363ffffffff1660e01b8152600401610b0892919061420d565b602060405180830381865afa158015610b25573d6000803e3d6000fd5b505050506040513d601f19601f82011682018060405250810190610b499190614236565b10155b610b8b576040517f08c379a0000000000000000000000000000000000000000000000000000000008152600401610b82906142af565b60405180910390fd5b600060036001600254610b9e9190613cdb565b81548110610baf57610bae613d0f565b5b9060005260206000200160009054906101000a900473ffffffffffffffffffffffffffffffffffffffff1690506000600460003373ffffffffffffffffffffffffffffffffffffffff1673ffffffffffffffffffffffffffffffffffffffff16815260200190815260200160002060009054906101000a900461ffff1661ffff161115610cb357600460003373ffffffffffffffffffffffffffffffffffffffff1673ffffffffffffffffffffffffffffffffffffffff168152602001908152602001600020600081819054906101000a900461ffff1680929190610c93906142cf565b91906101000a81548161ffff021916908361ffff16021790555050610fd3565b600b54600860009054906101000a900473ffffffffffffffffffffffffffffffffffffffff1673ffffffffffffffffffffffffffffffffffffffff166370a08231326040518263ffffffff1660e01b8152600401610d119190613732565b602060405180830381865afa158015610d2e573d6000803e3d6000fd5b505050506040513d601f19601f82011682018060405250810190610d529190614236565b1015610d93576040517f08c379a0000000000000000000000000000000000000000000000000000000008152600401610d8a90614344565b60405180910390fd5b6006805490506005600081819054906101000a900461ffff1680929190610db990614364565b91906101000a81548161ffff021916908361ffff16021790555061ffff16610de191906143bd565b600560006101000a81548161ffff021916908361ffff16021790555060008173ffffffffffffffffffffffffffffffffffffffff1663af33d08f600b546040518263ffffffff1660e01b8152600401610e3a9190613766565b602060405180830381865afa158015610e57573d6000803e3d6000fd5b505050506040513d601f19601f82011682018060405250810190610e7b9190614236565b9050610f0a600860009054906101000a900473ffffffffffffffffffffffffffffffffffffffff16336006600560009054906101000a900461ffff1661ffff1681548110610ecc57610ecb613d0f565b5b9060005260206000200160009054906101000a900473ffffffffffffffffffffffffffffffffffffffff1684600b54610f059190613cdb565b61311a565b610f5a600860009054906101000a900473ffffffffffffffffffffffffffffffffffffffff1633600760009054906101000a900473ffffffffffffffffffffffffffffffffffffffff168461311a565b8173ffffffffffffffffffffffffffffffffffffffff1663b56c12b4600b546040518263ffffffff1660e01b8152600401610f959190613766565b600060405180830381600087803b158015610faf57600080fd5b505af1158015610fc3573d6000803e3d6000fd5b50505050610fd1338461319c565b505b8073ffffffffffffffffffffffffffffffffffffffff1663266fbf90868686866040518563ffffffff1660e01b815260040161101294939291906144ac565b600060405180830381600087803b15801561102c57600080fd5b505af1158015611040573d6000803e3d6000fd5b505050505050505050565b600860009054906101000a900473ffffffffffffffffffffffffffffffffffffffff1681565b611079613093565b60005b6006805490508110156111fb578173ffffffffffffffffffffffffffffffffffffffff16600682815481106110b4576110b3613d0f565b5b9060005260206000200160009054906101000a900473ffffffffffffffffffffffffffffffffffffffff1673ffffffffffffffffffffffffffffffffffffffff16036111ee576006600160068054905061110e9190613cdb565b8154811061111f5761111e613d0f565b5b9060005260206000200160009054906101000a900473ffffffffffffffffffffffffffffffffffffffff166006828154811061115e5761115d613d0f565b5b9060005260206000200160006101000a81548173ffffffffffffffffffffffffffffffffffffffff021916908373ffffffffffffffffffffffffffffffffffffffff16021790555060068054806111b8576111b76144f8565b5b6001900381819060005260206000200160006101000a81549073ffffffffffffffffffffffffffffffffffffffff021916905590555b808060010191505061107c565b5050565b6000611209611ace565b905060008173ffffffffffffffffffffffffffffffffffffffff16639b7be8fc846040518263ffffffff1660e01b81526004016112469190613766565b60e060405180830381865afa158015611263573d6000803e3d6000fd5b505050506040513d601f19601f820116820180604052508101906112879190614600565b9050828160000151146112cf576040517f08c379a00000000000000000000000000000000000000000000000000000000081526004016112c690614679565b60405180910390fd5b3373ffffffffffffffffffffffffffffffffffffffff16816020015173ffffffffffffffffffffffffffffffffffffffff1614611341576040517f08c379a0000000000000000000000000000000000000000000000000000000008152600401611338906146e5565b60405180910390fd5b806060015115611386576040517f08c379a000000000000000000000000000000000000000000000000000000000815260040161137d90614751565b60405180910390fd5b8173ffffffffffffffffffffffffffffffffffffffff16639f8743f76040518163ffffffff1660e01b8152600401600060405180830381865afa1580156113d1573d6000803e3d6000fd5b505050506040513d6000823e3d601f19601f820116820180604052508101906113fa9190614073565b6060015161143d576040517f08c379a0000000000000000000000000000000000000000000000000000000008152600401611434906147bd565b60405180910390fd5b6000600a811115611451576114506147dd565b5b8160a00151600a811115611468576114676147dd565b5b036114a8576040517f08c379a000000000000000000000000000000000000000000000000000000000815260040161149f90614858565b60405180910390fd5b600a60009054906101000a900473ffffffffffffffffffffffffffffffffffffffff1673ffffffffffffffffffffffffffffffffffffffff16632aa601708373ffffffffffffffffffffffffffffffffffffffff16639f8743f76040518163ffffffff1660e01b8152600401600060405180830381865afa158015611531573d6000803e3d6000fd5b505050506040513d6000823e3d601f19601f8201168201806040525081019061155a9190614073565b60000151856040518363ffffffff1660e01b815260040161157c929190614878565b6040805180830381865afa158015611598573d6000803e3d6000fd5b505050506040513d601f19601f820116820180604052508101906115bc91906148f1565b60200151600a8111156115d2576115d16147dd565b5b8160a00151600a8111156115e9576115e86147dd565b5b14611629576040517f08c379a00000000000000000000000000000000000000000000000000000000081526004016116209061496a565b60405180910390fd5b60008273ffffffffffffffffffffffffffffffffffffffff1663efa3d5318360a001516040518263ffffffff1660e01b815260040161166891906149d2565b602060405180830381865afa158015611685573d6000803e3d6000fd5b505050506040513d601f19601f820116820180604052508101906116a99190614236565b8373ffffffffffffffffffffffffffffffffffffffff1663e2e308308460a001516040518263ffffffff1660e01b81526004016116e691906149d2565b602060405180830381865afa158015611703573d6000803e3d6000fd5b505050506040513d601f19601f820116820180604052508101906117279190614236565b816117355761173461438e565b5b04905080600860009054906101000a900473ffffffffffffffffffffffffffffffffffffffff1673ffffffffffffffffffffffffffffffffffffffff166370a08231306040518263ffffffff1660e01b81526004016117949190613732565b602060405180830381865afa1580156117b1573d6000803e3d6000fd5b505050506040513d601f19601f820116820180604052508101906117d59190614236565b1015611816576040517f08c379a000000000000000000000000000000000000000000000000000000000815260040161180d90614a39565b60405180910390fd5b61181e611ace565b73ffffffffffffffffffffffffffffffffffffffff166382e5892385836040518363ffffffff1660e01b8152600401611858929190614878565b600060405180830381600087803b15801561187257600080fd5b505af1158015611886573d6000803e3d6000fd5b50505050600860009054906101000a900473ffffffffffffffffffffffffffffffffffffffff1673ffffffffffffffffffffffffffffffffffffffff1663a9059cbb33836040518363ffffffff1660e01b81526004016118e7929190614a59565b6020604051808303816000875af1158015611906573d6000803e3d6000fd5b505050506040513d601f19601f8201168201806040525081019061192a9190614a82565b5050505050565b611939613093565b80600860006101000a81548173ffffffffffffffffffffffffffffffffffffffff021916908373ffffffffffffffffffffffffffffffffffffffff16021790555050565b611985613093565b61198f60006132df565b565b600381815481106119a157600080fd5b906000526020600020016000915054906101000a900473ffffffffffffffffffffffffffffffffffffffff1681565b60008060009054906101000a900473ffffffffffffffffffffffffffffffffffffffff16905090565b600560009054906101000a900461ffff1681565b611a15613093565b60008173ffffffffffffffffffffffffffffffffffffffff166370a08231306040518263ffffffff1660e01b8152600401611a509190613732565b602060405180830381865afa158015611a6d573d6000803e3d6000fd5b505050506040513d601f19601f82011682018060405250810190611a919190614236565b90506000811115611aca57611ac982600160009054906101000a900473ffffffffffffffffffffffffffffffffffffffff16836133a3565b5b5050565b600060036001600254611ae19190613cdb565b81548110611af257611af1613d0f565b5b9060005260206000200160009054906101000a900473ffffffffffffffffffffffffffffffffffffffff16905090565b611b2a613093565b6003600182611b399190613cdb565b81548110611b4a57611b49613d0f565b5b9060005260206000200160009054906101000a900473ffffffffffffffffffffffffffffffffffffffff1673ffffffffffffffffffffffffffffffffffffffff16633590bd3c600a60009054906101000a900473ffffffffffffffffffffffffffffffffffffffff1673ffffffffffffffffffffffffffffffffffffffff1663c099ae19846040518263ffffffff1660e01b8152600401611beb9190613766565b600060405180830381865afa158015611c08573d6000803e3d6000fd5b505050506040513d6000823e3d601f19601f82011682018060405250810190611c319190614b72565b600a60009054906101000a900473ffffffffffffffffffffffffffffffffffffffff1673ffffffffffffffffffffffffffffffffffffffff1663d856f0d5856040518263ffffffff1660e01b8152600401611c8c9190613766565b600060405180830381865afa158015611ca9573d6000803e3d6000fd5b505050506040513d6000823e3d601f19601f82011682018060405250810190611cd29190614cce565b6040518363ffffffff1660e01b8152600401611cef929190614f00565b600060405180830381600087803b158015611d0957600080fd5b505af1158015611d1d573d6000803e3d6000fd5b5050505050565b611d2c613093565b80600760006101000a81548173ffffffffffffffffffffffffffffffffffffffff021916908373ffffffffffffffffffffffffffffffffffffffff16021790555050565b6000611d7a611ace565b905060008173ffffffffffffffffffffffffffffffffffffffff1663dd85ae5f846040518263ffffffff1660e01b8152600401611db79190613766565b60a060405180830381865afa158015611dd4573d6000803e3d6000fd5b505050506040513d601f19601f82011682018060405250810190611df89190614fc3565b905082816000015114611e40576040517f08c379a0000000000000000000000000000000000000000000000000000000008152600401611e3790614679565b60405180910390fd5b3373ffffffffffffffffffffffffffffffffffffffff16816020015173ffffffffffffffffffffffffffffffffffffffff1614611eb2576040517f08c379a0000000000000000000000000000000000000000000000000000000008152600401611ea9906146e5565b60405180910390fd5b806080015115611ef7576040517f08c379a0000000000000000000000000000000000000000000000000000000008152600401611eee90614751565b60405180910390fd5b8173ffffffffffffffffffffffffffffffffffffffff16639f8743f76040518163ffffffff1660e01b8152600401600060405180830381865afa158015611f42573d6000803e3d6000fd5b505050506040513d6000823e3d601f19601f82011682018060405250810190611f6b9190614073565b60600151611fae576040517f08c379a0000000000000000000000000000000000000000000000000000000008152600401611fa5906147bd565b60405180910390fd5b600115158160600151151514611ff9576040517f08c379a0000000000000000000000000000000000000000000000000000000008152600401611ff090614858565b60405180910390fd5b600a60009054906101000a900473ffffffffffffffffffffffffffffffffffffffff1673ffffffffffffffffffffffffffffffffffffffff1663078a6dbf8373ffffffffffffffffffffffffffffffffffffffff16639f8743f76040518163ffffffff1660e01b8152600401600060405180830381865afa158015612082573d6000803e3d6000fd5b505050506040513d6000823e3d601f19601f820116820180604052508101906120ab9190614073565b60000151856040518363ffffffff1660e01b81526004016120cd929190614878565b6040805180830381865afa1580156120e9573d6000803e3d6000fd5b505050506040513d601f19601f8201168201806040525081019061210d9190614ff0565b602001511515816060015115151461215a576040517f08c379a00000000000000000000000000000000000000000000000000000000081526004016121519061496a565b60405180910390fd5b6000600a60009054906101000a900473ffffffffffffffffffffffffffffffffffffffff1673ffffffffffffffffffffffffffffffffffffffff1663f1664df68473ffffffffffffffffffffffffffffffffffffffff16639f8743f76040518163ffffffff1660e01b8152600401600060405180830381865afa1580156121e5573d6000803e3d6000fd5b505050506040513d6000823e3d601f19601f8201168201806040525081019061220e9190614073565b600001516040518263ffffffff1660e01b815260040161222e9190613766565b602060405180830381865afa15801561224b573d6000803e3d6000fd5b505050506040513d601f19601f8201168201806040525081019061226f919061501d565b61ffff168373ffffffffffffffffffffffffffffffffffffffff1663e2e3083060076040518263ffffffff1660e01b81526004016122ad91906149d2565b602060405180830381865afa1580156122ca573d6000803e3d6000fd5b505050506040513d601f19601f820116820180604052508101906122ee9190614236565b816122fc576122fb61438e565b5b04905080600860009054906101000a900473ffffffffffffffffffffffffffffffffffffffff1673ffffffffffffffffffffffffffffffffffffffff166370a08231306040518263ffffffff1660e01b815260040161235b9190613732565b602060405180830381865afa158015612378573d6000803e3d6000fd5b505050506040513d601f19601f8201168201806040525081019061239c9190614236565b10156123dd576040517f08c379a00000000000000000000000000000000000000000000000000000000081526004016123d490614a39565b60405180910390fd5b6123e5611ace565b73ffffffffffffffffffffffffffffffffffffffff16630cee803c85836040518363ffffffff1660e01b815260040161241f929190614878565b600060405180830381600087803b15801561243957600080fd5b505af115801561244d573d6000803e3d6000fd5b50505050600860009054906101000a900473ffffffffffffffffffffffffffffffffffffffff1673ffffffffffffffffffffffffffffffffffffffff1663a9059cbb33836040518363ffffffff1660e01b81526004016124ae929190614a59565b6020604051808303816000875af11580156124cd573d6000803e3d6000fd5b505050506040513d601f19601f820116820180604052508101906124f19190614a82565b5050505050565b612500613093565b60005b828290508110156125ba576004600084848481811061252557612524613d0f565b5b905060200201602081019061253a91906137ad565b73ffffffffffffffffffffffffffffffffffffffff1673ffffffffffffffffffffffffffffffffffffffff168152602001908152602001600020600081819054906101000a900461ffff168092919061259290614364565b91906101000a81548161ffff021916908361ffff160217905550508080600101915050612503565b505050565b6125c7613093565b60005b600680549050811015612697578173ffffffffffffffffffffffffffffffffffffffff166006828154811061260257612601613d0f565b5b9060005260206000200160009054906101000a900473ffffffffffffffffffffffffffffffffffffffff1673ffffffffffffffffffffffffffffffffffffffff160361268a576000612689576040517f08c379a000000000000000000000000000000000000000000000000000000000815260040161268090615096565b60405180910390fd5b5b80806001019150506125ca565b506006819080600181540180825580915050600190039060005260206000200160009091909190916101000a81548173ffffffffffffffffffffffffffffffffffffffff021916908373ffffffffffffffffffffffffffffffffffffffff16021790555050565b612706613093565b600047111561277957600160009054906101000a900473ffffffffffffffffffffffffffffffffffffffff1673ffffffffffffffffffffffffffffffffffffffff166108fc479081150290604051600060405180830381858888f19350505050158015612777573d6000803e3d6000fd5b505b565b600d6020528060005260406000206000915090505481565b600a60009054906101000a900473ffffffffffffffffffffffffffffffffffffffff1681565b6127c1613093565b600060036001836127d29190613cdb565b815481106127e3576127e2613d0f565b5b9060005260206000200160009054906101000a900473ffffffffffffffffffffffffffffffffffffffff1690508073ffffffffffffffffffffffffffffffffffffffff1663343f25666040518163ffffffff1660e01b815260040160006040518083038186803b15801561285657600080fd5b505afa15801561286a573d6000803e3d6000fd5b50505050600080600960009054906101000a900473ffffffffffffffffffffffffffffffffffffffff1673ffffffffffffffffffffffffffffffffffffffff1663d8a4676f600d6000878152602001908152602001600020546040518263ffffffff1660e01b81526004016128df9190613766565b600060405180830381865afa1580156128fc573d6000803e3d6000fd5b505050506040513d6000823e3d601f19601f8201168201806040525081019061292591906150b6565b9150915081612969576040517f08c379a00000000000000000000000000000000000000000000000000000000081526004016129609061515e565b60405180910390fd5b6000600567ffffffffffffffff811115612986576129856138da565b5b6040519080825280602002602001820160405280156129b45781602001602082028036833780820191505090505b509050600080600684516129c89190613cdb565b67ffffffffffffffff8111156129e1576129e06138da565b5b604051908082528060200260200182016040528015612a0f5781602001602082028036833780820191505090505b5090508415612cd25760005b6005811015612b1557600a60009054906101000a900473ffffffffffffffffffffffffffffffffffffffff1673ffffffffffffffffffffffffffffffffffffffff16630c746a8a868381518110612a7557612a74613d0f565b5b60200260200101516045876040518463ffffffff1660e01b8152600401612a9e939291906151b9565b602060405180830381865afa158015612abb573d6000803e3d6000fd5b505050506040513d601f19601f82011682018060405250810190612adf919061501d565b848281518110612af257612af1613d0f565b5b602002602001019061ffff16908161ffff16815250508080600101915050612a1b565b506001601a85600581518110612b2e57612b2d613d0f565b5b6020026020010151612b4091906143bd565b612b4a91906151f7565b91506000600690505b8451811015612cd057600a60009054906101000a900473ffffffffffffffffffffffffffffffffffffffff1673ffffffffffffffffffffffffffffffffffffffff16630c746a8a868381518110612bad57612bac613d0f565b5b60200260200101518973ffffffffffffffffffffffffffffffffffffffff16639f8743f76040518163ffffffff1660e01b8152600401600060405180830381865afa158015612c00573d6000803e3d6000fd5b505050506040513d6000823e3d601f19601f82011682018060405250810190612c299190614073565b6101600151856040518463ffffffff1660e01b8152600401612c4d9392919061522b565b602060405180830381865afa158015612c6a573d6000803e3d6000fd5b505050506040513d601f19601f82011682018060405250810190612c8e919061501d565b82600683612c9c9190613cdb565b81518110612cad57612cac613d0f565b5b602002602001019061ffff16908161ffff16815250508080600101915050612b53565b505b8573ffffffffffffffffffffffffffffffffffffffff16636a65bcda8484846040518463ffffffff1660e01b8152600401612d0f93929190615269565b600060405180830381600087803b158015612d2957600080fd5b505af1158015612d3d573d6000803e3d6000fd5b5050505050505050505050565b600c60009054906101000a900460ff1681565b612d65613093565b600060036001600254612d789190613cdb565b81548110612d8957612d88613d0f565b5b9060005260206000200160009054906101000a900473ffffffffffffffffffffffffffffffffffffffff1690508073ffffffffffffffffffffffffffffffffffffffff1663e278fe6f6040518163ffffffff1660e01b8152600401600060405180830381600087803b158015612dfe57600080fd5b505af1158015612e12573d6000803e3d6000fd5b505050506000600a60009054906101000a900473ffffffffffffffffffffffffffffffffffffffff1673ffffffffffffffffffffffffffffffffffffffff1663f1664df66002546040518263ffffffff1660e01b8152600401612e759190613766565b602060405180830381865afa158015612e92573d6000803e3d6000fd5b505050506040513d601f19601f82011682018060405250810190612eb6919061501d565b9050600960009054906101000a900473ffffffffffffffffffffffffffffffffffffffff1673ffffffffffffffffffffffffffffffffffffffff1663e726f2e1826006612f0391906152ae565b6040518263ffffffff1660e01b8152600401612f1f9190615325565b6020604051808303816000875af1158015612f3e573d6000803e3d6000fd5b505050506040513d601f19601f82011682018060405250810190612f629190614236565b600d60006002548152602001908152602001600020819055505050565b600960009054906101000a900473ffffffffffffffffffffffffffffffffffffffff1681565b612fad613093565b600073ffffffffffffffffffffffffffffffffffffffff168173ffffffffffffffffffffffffffffffffffffffff160361301f5760006040517f1e4fbdf70000000000000000000000000000000000000000000000000000000081526004016130169190613732565b60405180910390fd5b613028816132df565b50565b600c60019054906101000a900461ffff1681565b600060036001836130509190613cdb565b8154811061306157613060613d0f565b5b9060005260206000200160009054906101000a900473ffffffffffffffffffffffffffffffffffffffff169050919050565b61309b613422565b73ffffffffffffffffffffffffffffffffffffffff166130b96119d0565b73ffffffffffffffffffffffffffffffffffffffff1614613118576130dc613422565b6040517f118cdaa700000000000000000000000000000000000000000000000000000000815260040161310f9190613732565b60405180910390fd5b565b613196848573ffffffffffffffffffffffffffffffffffffffff166323b872dd86868660405160240161314f93929190615340565b604051602081830303815290604052915060e01b6020820180517bffffffffffffffffffffffffffffffffffffffffffffffffffffffff838183161783525050505061342a565b50505050565b600073ffffffffffffffffffffffffffffffffffffffff168173ffffffffffffffffffffffffffffffffffffffff16141580156131e55750600c60009054906101000a900460ff165b156132db57600460008373ffffffffffffffffffffffffffffffffffffffff1673ffffffffffffffffffffffffffffffffffffffff168152602001908152602001600020600081819054906101000a900461ffff168092919061324790614364565b91906101000a81548161ffff021916908361ffff16021790555050600460008273ffffffffffffffffffffffffffffffffffffffff1673ffffffffffffffffffffffffffffffffffffffff168152602001908152602001600020600081819054906101000a900461ffff16809291906132bf90614364565b91906101000a81548161ffff021916908361ffff160217905550505b5050565b60008060009054906101000a900473ffffffffffffffffffffffffffffffffffffffff169050816000806101000a81548173ffffffffffffffffffffffffffffffffffffffff021916908373ffffffffffffffffffffffffffffffffffffffff1602179055508173ffffffffffffffffffffffffffffffffffffffff168173ffffffffffffffffffffffffffffffffffffffff167f8be0079c531659141344cd1fd0a4f28419497f9722a3daafe3b4186f6b6457e060405160405180910390a35050565b61341d838473ffffffffffffffffffffffffffffffffffffffff1663a9059cbb85856040516024016133d6929190614a59565b604051602081830303815290604052915060e01b6020820180517bffffffffffffffffffffffffffffffffffffffffffffffffffffffff838183161783525050505061342a565b505050565b600033905090565b6000613455828473ffffffffffffffffffffffffffffffffffffffff166134c190919063ffffffff16565b9050600081511415801561347a5750808060200190518101906134789190614a82565b155b156134bc57826040517f5274afe70000000000000000000000000000000000000000000000000000000081526004016134b39190613732565b60405180910390fd5b505050565b60606134cf838360006134d7565b905092915050565b60608147101561351e57306040517fcd7860590000000000000000000000000000000000000000000000000000000081526004016135159190613732565b60405180910390fd5b6000808573ffffffffffffffffffffffffffffffffffffffff16848660405161354791906153e8565b60006040518083038185875af1925050503d8060008114613584576040519150601f19603f3d011682016040523d82523d6000602084013e613589565b606091505b50915091506135998683836135a4565b925050509392505050565b6060826135b9576135b482613633565b61362b565b600082511480156135e1575060008473ffffffffffffffffffffffffffffffffffffffff163b145b1561362357836040517f9996b31500000000000000000000000000000000000000000000000000000000815260040161361a9190613732565b60405180910390fd5b81905061362c565b5b9392505050565b6000815111156136465780518082602001fd5b6040517f1425ea4200000000000000000000000000000000000000000000000000000000815260040160405180910390fd5b6000604051905090565b600080fd5b600080fd5b60008115159050919050565b6136a18161368c565b81146136ac57600080fd5b50565b6000813590506136be81613698565b92915050565b6000602082840312156136da576136d9613682565b5b60006136e8848285016136af565b91505092915050565b600073ffffffffffffffffffffffffffffffffffffffff82169050919050565b600061371c826136f1565b9050919050565b61372c81613711565b82525050565b60006020820190506137476000830184613723565b92915050565b6000819050919050565b6137608161374d565b82525050565b600060208201905061377b6000830184613757565b92915050565b61378a81613711565b811461379557600080fd5b50565b6000813590506137a781613781565b92915050565b6000602082840312156137c3576137c2613682565b5b60006137d184828501613798565b91505092915050565b6137e38161374d565b81146137ee57600080fd5b50565b600081359050613800816137da565b92915050565b60006020828403121561381c5761381b613682565b5b600061382a848285016137f1565b91505092915050565b600061ffff82169050919050565b61384a81613833565b811461385557600080fd5b50565b60008135905061386781613841565b92915050565b60006020828403121561388357613882613682565b5b600061389184828501613858565b91505092915050565b6138a381613833565b82525050565b60006020820190506138be600083018461389a565b92915050565b600080fd5b6000601f19601f8301169050919050565b7f4e487b7100000000000000000000000000000000000000000000000000000000600052604160045260246000fd5b613912826138c9565b810181811067ffffffffffffffff82111715613931576139306138da565b5b80604052505050565b6000613944613678565b90506139508282613909565b919050565b600067ffffffffffffffff8211156139705761396f6138da565b5b602082029050602081019050919050565b600080fd5b600061399961399484613955565b61393a565b905080838252602082019050602084028301858111156139bc576139bb613981565b5b835b818110156139e557806139d18882613858565b8452602084019350506020810190506139be565b5050509392505050565b600082601f830112613a0457613a036138c4565b5b8135613a14848260208601613986565b91505092915050565b60008060008060808587031215613a3757613a36613682565b5b6000613a45878288016137f1565b945050602085013567ffffffffffffffff811115613a6657613a65613687565b5b613a72878288016139ef565b9350506040613a8387828801613858565b9250506060613a9487828801613798565b91505092959194509250565b6000819050919050565b6000613ac5613ac0613abb846136f1565b613aa0565b6136f1565b9050919050565b6000613ad782613aaa565b9050919050565b6000613ae982613acc565b9050919050565b613af981613ade565b82525050565b6000602082019050613b146000830184613af0565b92915050565b600080fd5b60008083601f840112613b3557613b346138c4565b5b8235905067ffffffffffffffff811115613b5257613b51613b1a565b5b602083019150836020820283011115613b6e57613b6d613981565b5b9250929050565b60008060208385031215613b8c57613b8b613682565b5b600083013567ffffffffffffffff811115613baa57613ba9613687565b5b613bb685828601613b1f565b92509250509250929050565b6000613bcd82613acc565b9050919050565b613bdd81613bc2565b82525050565b6000602082019050613bf86000830184613bd4565b92915050565b613c078161368c565b82525050565b6000602082019050613c226000830184613bfe565b92915050565b6000613c3382613acc565b9050919050565b613c4381613c28565b82525050565b6000602082019050613c5e6000830184613c3a565b92915050565b7f4e487b7100000000000000000000000000000000000000000000000000000000600052601160045260246000fd5b6000613c9e8261374d565b91507fffffffffffffffffffffffffffffffffffffffffffffffffffffffffffffffff8203613cd057613ccf613c64565b5b600182019050919050565b6000613ce68261374d565b9150613cf18361374d565b9250828203905081811115613d0957613d08613c64565b5b92915050565b7f4e487b7100000000000000000000000000000000000000000000000000000000600052603260045260246000fd5b600080fd5b600080fd5b600081519050613d57816137da565b92915050565b600081519050613d6c81613698565b92915050565b600081519050613d8181613841565b92915050565b6000613d9a613d9584613955565b61393a565b90508083825260208201905060208402830185811115613dbd57613dbc613981565b5b835b81811015613de65780613dd28882613d72565b845260208401935050602081019050613dbf565b5050509392505050565b600082601f830112613e0557613e046138c4565b5b8151613e15848260208601613d87565b91505092915050565b600067ffffffffffffffff821115613e3957613e386138da565b5b602082029050602081019050919050565b6000613e5d613e5884613e1e565b61393a565b90508083825260208201905060208402830185811115613e8057613e7f613981565b5b835b81811015613ea95780613e958882613d48565b845260208401935050602081019050613e82565b5050509392505050565b600082601f830112613ec857613ec76138c4565b5b8151613ed8848260208601613e4a565b91505092915050565b60006101808284031215613ef857613ef7613d3e565b5b613f0361018061393a565b90506000613f1384828501613d48565b6000830152506020613f2784828501613d48565b6020830152506040613f3b84828501613d48565b6040830152506060613f4f84828501613d5d565b606083015250608082015167ffffffffffffffff811115613f7357613f72613d43565b5b613f7f84828501613df0565b60808301525060a0613f9384828501613d72565b60a08301525060c082015167ffffffffffffffff811115613fb757613fb6613d43565b5b613fc384828501613df0565b60c08301525060e0613fd784828501613d72565b60e08301525061010082015167ffffffffffffffff811115613ffc57613ffb613d43565b5b61400884828501613eb3565b6101008301525061012061401e84828501613d72565b6101208301525061014082015167ffffffffffffffff81111561404457614043613d43565b5b61405084828501613eb3565b6101408301525061016061406684828501613d72565b6101608301525092915050565b60006020828403121561408957614088613682565b5b600082015167ffffffffffffffff8111156140a7576140a6613687565b5b6140b384828501613ee1565b91505092915050565b600082825260208201905092915050565b7f50726576696f757320726f756e64206e6f7420656e6465640000000000000000600082015250565b60006141036018836140bc565b915061410e826140cd565b602082019050919050565b60006020820190508181036000830152614132816140f6565b9050919050565b60008151905061414881613781565b92915050565b60006020828403121561416457614163613682565b5b600061417284828501614139565b91505092915050565b7f50726576696f757320726f756e64206e6f742070726f7061676174656420636f60008201527f72726563746c7900000000000000000000000000000000000000000000000000602082015250565b60006141d76027836140bc565b91506141e28261417b565b604082019050919050565b60006020820190508181036000830152614206816141ca565b9050919050565b60006040820190506142226000830185613723565b61422f6020830184613723565b9392505050565b60006020828403121561424c5761424b613682565b5b600061425a84828501613d48565b91505092915050565b7f4d697373696e6720416c6c6f77616e6365000000000000000000000000000000600082015250565b60006142996011836140bc565b91506142a482614263565b602082019050919050565b600060208201905081810360008301526142c88161428c565b9050919050565b60006142da82613833565b9150600082036142ed576142ec613c64565b5b600182039050919050565b7f496e73756666696369656e742066756e64730000000000000000000000000000600082015250565b600061432e6012836140bc565b9150614339826142f8565b602082019050919050565b6000602082019050818103600083015261435d81614321565b9050919050565b600061436f82613833565b915061ffff820361438357614382613c64565b5b600182019050919050565b7f4e487b7100000000000000000000000000000000000000000000000000000000600052601260045260246000fd5b60006143c88261374d565b91506143d38361374d565b9250826143e3576143e261438e565b5b828206905092915050565b600081519050919050565b600082825260208201905092915050565b6000819050602082019050919050565b61442381613833565b82525050565b6000614435838361441a565b60208301905092915050565b6000602082019050919050565b6000614459826143ee565b61446381856143f9565b935061446e8361440a565b8060005b8381101561449f5781516144868882614429565b975061449183614441565b925050600181019050614472565b5085935050505092915050565b60006080820190506144c16000830187613757565b81810360208301526144d3818661444e565b90506144e2604083018561389a565b6144ef6060830184613723565b95945050505050565b7f4e487b7100000000000000000000000000000000000000000000000000000000600052603160045260246000fd5b600b811061453457600080fd5b50565b60008151905061454681614527565b92915050565b600060e0828403121561456257614561613d3e565b5b61456c60e061393a565b9050600061457c84828501613d48565b600083015250602061459084828501614139565b60208301525060406145a484828501614139565b60408301525060606145b884828501613d5d565b60608301525060806145cc84828501613d48565b60808301525060a06145e084828501614537565b60a08301525060c06145f484828501613d72565b60c08301525092915050565b600060e0828403121561461657614615613682565b5b60006146248482850161454c565b91505092915050565b7f496e76616c6964207469636b6574206964000000000000000000000000000000600082015250565b60006146636011836140bc565b915061466e8261462d565b602082019050919050565b6000602082019050818103600083015261469281614656565b9050919050565b7f496e76616c6964207469636b6574206f776e6572000000000000000000000000600082015250565b60006146cf6014836140bc565b91506146da82614699565b602082019050919050565b600060208201905081810360008301526146fe816146c2565b9050919050565b7f5469636b657420616c726561647920636c61696d656400000000000000000000600082015250565b600061473b6016836140bc565b915061474682614705565b602082019050919050565b6000602082019050818103600083015261476a8161472e565b9050919050565b7f526f756e64206e6f7420656e6465640000000000000000000000000000000000600082015250565b60006147a7600f836140bc565b91506147b282614771565b602082019050919050565b600060208201905081810360008301526147d68161479a565b9050919050565b7f4e487b7100000000000000000000000000000000000000000000000000000000600052602160045260246000fd5b7f4e6f207072697a6520666f722074686973207469636b65740000000000000000600082015250565b60006148426018836140bc565b915061484d8261480c565b602082019050919050565b6000602082019050818103600083015261487181614835565b9050919050565b600060408201905061488d6000830185613757565b61489a6020830184613757565b9392505050565b6000604082840312156148b7576148b6613d3e565b5b6148c1604061393a565b905060006148d184828501613d48565b60008301525060206148e584828501614537565b60208301525092915050565b60006040828403121561490757614906613682565b5b6000614915848285016148a1565b91505092915050565b7f496e76616c6964207469636b6574207469657200000000000000000000000000600082015250565b60006149546013836140bc565b915061495f8261491e565b602082019050919050565b6000602082019050818103600083015261498381614947565b9050919050565b600b811061499b5761499a6147dd565b5b50565b60008190506149ac8261498a565b919050565b60006149bc8261499e565b9050919050565b6149cc816149b1565b82525050565b60006020820190506149e760008301846149c3565b92915050565b7f4e6f7420656e6f7567682066756e6473206f6e20636f6e747261637400000000600082015250565b6000614a23601c836140bc565b9150614a2e826149ed565b602082019050919050565b60006020820190508181036000830152614a5281614a16565b9050919050565b6000604082019050614a6e6000830185613723565b614a7b6020830184613757565b9392505050565b600060208284031215614a9857614a97613682565b5b6000614aa684828501613d5d565b91505092915050565b600067ffffffffffffffff821115614aca57614ac96138da565b5b602082029050602081019050919050565b6000614aee614ae984614aaf565b61393a565b90508083825260208201905060408402830185811115614b1157614b10613981565b5b835b81811015614b3a5780614b2688826148a1565b845260208401935050604081019050614b13565b5050509392505050565b600082601f830112614b5957614b586138c4565b5b8151614b69848260208601614adb565b91505092915050565b600060208284031215614b8857614b87613682565b5b600082015167ffffffffffffffff811115614ba657614ba5613687565b5b614bb284828501614b44565b91505092915050565b600067ffffffffffffffff821115614bd657614bd56138da565b5b602082029050602081019050919050565b600060408284031215614bfd57614bfc613d3e565b5b614c07604061393a565b90506000614c1784828501613d48565b6000830152506020614c2b84828501613d5d565b60208301525092915050565b6000614c4a614c4584614bbb565b61393a565b90508083825260208201905060408402830185811115614c6d57614c6c613981565b5b835b81811015614c965780614c828882614be7565b845260208401935050604081019050614c6f565b5050509392505050565b600082601f830112614cb557614cb46138c4565b5b8151614cc5848260208601614c37565b91505092915050565b600060208284031215614ce457614ce3613682565b5b600082015167ffffffffffffffff811115614d0257614d01613687565b5b614d0e84828501614ca0565b91505092915050565b600081519050919050565b600082825260208201905092915050565b6000819050602082019050919050565b614d4c8161374d565b82525050565b614d5b816149b1565b82525050565b604082016000820151614d776000850182614d43565b506020820151614d8a6020850182614d52565b50505050565b6000614d9c8383614d61565b60408301905092915050565b6000602082019050919050565b6000614dc082614d17565b614dca8185614d22565b9350614dd583614d33565b8060005b83811015614e06578151614ded8882614d90565b9750614df883614da8565b925050600181019050614dd9565b5085935050505092915050565b600081519050919050565b600082825260208201905092915050565b6000819050602082019050919050565b614e488161368c565b82525050565b604082016000820151614e646000850182614d43565b506020820151614e776020850182614e3f565b50505050565b6000614e898383614e4e565b60408301905092915050565b6000602082019050919050565b6000614ead82614e13565b614eb78185614e1e565b9350614ec283614e2f565b8060005b83811015614ef3578151614eda8882614e7d565b9750614ee583614e95565b925050600181019050614ec6565b5085935050505092915050565b60006040820190508181036000830152614f1a8185614db5565b90508181036020830152614f2e8184614ea2565b90509392505050565b600060a08284031215614f4d57614f4c613d3e565b5b614f5760a061393a565b90506000614f6784828501613d48565b6000830152506020614f7b84828501614139565b6020830152506040614f8f84828501613d72565b6040830152506060614fa384828501613d5d565b6060830152506080614fb784828501613d5d565b60808301525092915050565b600060a08284031215614fd957614fd8613682565b5b6000614fe784828501614f37565b91505092915050565b60006040828403121561500657615005613682565b5b600061501484828501614be7565b91505092915050565b60006020828403121561503357615032613682565b5b600061504184828501613d72565b91505092915050565b7f57616c6c657420616c7265616479206164646564000000000000000000000000600082015250565b60006150806014836140bc565b915061508b8261504a565b602082019050919050565b600060208201905081810360008301526150af81615073565b9050919050565b600080604083850312156150cd576150cc613682565b5b60006150db85828601613d5d565b925050602083015167ffffffffffffffff8111156150fc576150fb613687565b5b61510885828601613eb3565b9150509250929050565b7f52616e646f6d206e756d62657273206e6f742072656164790000000000000000600082015250565b60006151486018836140bc565b915061515382615112565b602082019050919050565b600060208201905081810360008301526151778161513b565b9050919050565b6000819050919050565b60006151a361519e6151998461517e565b613aa0565b613833565b9050919050565b6151b381615188565b82525050565b60006060820190506151ce6000830186613757565b6151db60208301856151aa565b81810360408301526151ed818461444e565b9050949350505050565b60006152028261374d565b915061520d8361374d565b925082820190508082111561522557615224613c64565b5b92915050565b60006060820190506152406000830186613757565b61524d602083018561389a565b818103604083015261525f818461444e565b9050949350505050565b60006060820190508181036000830152615283818661444e565b9050615292602083018561389a565b81810360408301526152a4818461444e565b9050949350505050565b60006152b982613833565b91506152c483613833565b9250828201905061ffff8111156152de576152dd613c64565b5b92915050565b600063ffffffff82169050919050565b600061530f61530a61530584613833565b613aa0565b6152e4565b9050919050565b61531f816152f4565b82525050565b600060208201905061533a6000830184615316565b92915050565b60006060820190506153556000830186613723565b6153626020830185613723565b61536f6040830184613757565b949350505050565b600081519050919050565b600081905092915050565b60005b838110156153ab578082015181840152602081019050615390565b60008484015250505050565b60006153c282615377565b6153cc8185615382565b93506153dc81856020860161538d565b80840191505092915050565b60006153f482846153b7565b91508190509291505056fea264697066735822122065c6925cc8b79228207d80e1a5eaf714665b05b4f320f81b13e641c1acc7a47264736f6c63430008180033",
  "devdoc": {
    "errors": {
      "AddressEmptyCode(address)": [
        {
          "details": "There's no code at `target` (it is not a contract)."
        }
      ],
      "AddressInsufficientBalance(address)": [
        {
          "details": "The ETH balance of the account is not enough to perform the operation."
        }
      ],
      "FailedInnerCall()": [
        {
          "details": "A call to an address target failed. The target may have reverted."
        }
      ],
      "OwnableInvalidOwner(address)": [
        {
          "details": "The owner is not a valid owner account. (eg. `address(0)`)"
        }
      ],
      "OwnableUnauthorizedAccount(address)": [
        {
          "details": "The caller account is not authorized to perform an operation."
        }
      ],
      "SafeERC20FailedOperation(address)": [
        {
          "details": "An operation with an ERC20 token failed."
        }
      ]
    },
    "kind": "dev",
    "methods": {
      "owner()": {
        "details": "Returns the address of the current owner."
      },
      "renounceOwnership()": {
        "details": "Leaves the contract without owner. It will not be possible to call `onlyOwner` functions. Can only be called by the current owner. NOTE: Renouncing ownership will leave the contract without an owner, thereby disabling any functionality that is only available to the owner."
      },
      "transferOwnership(address)": {
        "details": "Transfers ownership of the contract to a new account (`newOwner`). Can only be called by the current owner."
      }
    },
    "version": 1
  },
  "userdoc": {
    "kind": "user",
    "methods": {},
    "version": 1
  },
  "storageLayout": {
    "storage": [
      {
        "astId": 8,
        "contract": "contracts/LotteryMaster.sol:LotteryMaster",
        "label": "_owner",
        "offset": 0,
        "slot": "0",
        "type": "t_address"
      },
      {
        "astId": 4092,
        "contract": "contracts/LotteryMaster.sol:LotteryMaster",
        "label": "teamAddress",
        "offset": 0,
        "slot": "1",
        "type": "t_address"
      },
      {
        "astId": 1001,
        "contract": "contracts/LotteryMaster.sol:LotteryMaster",
        "label": "roundCount",
        "offset": 0,
        "slot": "2",
        "type": "t_uint256"
      },
      {
        "astId": 1004,
        "contract": "contracts/LotteryMaster.sol:LotteryMaster",
        "label": "rounds",
        "offset": 0,
        "slot": "3",
        "type": "t_array(t_address)dyn_storage"
      },
      {
        "astId": 1034,
        "contract": "contracts/LotteryMaster.sol:LotteryMaster",
        "label": "freeRounds",
        "offset": 0,
        "slot": "4",
        "type": "t_mapping(t_address,t_uint16)"
      },
      {
        "astId": 1036,
        "contract": "contracts/LotteryMaster.sol:LotteryMaster",
        "label": "counterForBankWallets",
        "offset": 0,
        "slot": "5",
        "type": "t_uint16"
      },
      {
        "astId": 1039,
        "contract": "contracts/LotteryMaster.sol:LotteryMaster",
        "label": "bankWallets",
        "offset": 0,
        "slot": "6",
        "type": "t_array(t_address)dyn_storage"
      },
      {
        "astId": 1124,
        "contract": "contracts/LotteryMaster.sol:LotteryMaster",
        "label": "treasuryWallets",
        "offset": 0,
        "slot": "7",
        "type": "t_address"
      },
      {
        "astId": 1139,
        "contract": "contracts/LotteryMaster.sol:LotteryMaster",
        "label": "paymentToken",
        "offset": 0,
        "slot": "8",
        "type": "t_contract(IERC20Metadata)251"
      },
      {
        "astId": 1156,
        "contract": "contracts/LotteryMaster.sol:LotteryMaster",
        "label": "randomizer",
        "offset": 0,
        "slot": "9",
        "type": "t_contract(CyclixRandomizerInterface)892"
      },
      {
        "astId": 1159,
        "contract": "contracts/LotteryMaster.sol:LotteryMaster",
        "label": "reader",
        "offset": 0,
        "slot": "10",
        "type": "t_contract(LotteryReaderInterface)3004"
      },
      {
        "astId": 1161,
        "contract": "contracts/LotteryMaster.sol:LotteryMaster",
        "label": "ticketPrice",
        "offset": 0,
        "slot": "11",
        "type": "t_uint256"
      },
      {
        "astId": 1176,
        "contract": "contracts/LotteryMaster.sol:LotteryMaster",
        "label": "freeRoundsAreEnabled",
        "offset": 0,
        "slot": "12",
        "type": "t_bool"
      },
      {
        "astId": 1191,
        "contract": "contracts/LotteryMaster.sol:LotteryMaster",
        "label": "percentageOfReferralWinners",
        "offset": 1,
        "slot": "12",
        "type": "t_uint16"
      },
      {
        "astId": 1523,
        "contract": "contracts/LotteryMaster.sol:LotteryMaster",
        "label": "publicRoundRandomNumbersRequestId",
        "offset": 0,
        "slot": "13",
        "type": "t_mapping(t_uint256,t_uint256)"
      }
    ],
    "types": {
      "t_address": {
        "encoding": "inplace",
        "label": "address",
        "numberOfBytes": "20"
      },
      "t_array(t_address)dyn_storage": {
        "base": "t_address",
        "encoding": "dynamic_array",
        "label": "address[]",
        "numberOfBytes": "32"
      },
      "t_bool": {
        "encoding": "inplace",
        "label": "bool",
        "numberOfBytes": "1"
      },
      "t_contract(CyclixRandomizerInterface)892": {
        "encoding": "inplace",
        "label": "contract CyclixRandomizerInterface",
        "numberOfBytes": "20"
      },
      "t_contract(IERC20Metadata)251": {
        "encoding": "inplace",
        "label": "contract IERC20Metadata",
        "numberOfBytes": "20"
      },
      "t_contract(LotteryReaderInterface)3004": {
        "encoding": "inplace",
        "label": "contract LotteryReaderInterface",
        "numberOfBytes": "20"
      },
      "t_mapping(t_address,t_uint16)": {
        "encoding": "mapping",
        "key": "t_address",
        "label": "mapping(address => uint16)",
        "numberOfBytes": "32",
        "value": "t_uint16"
      },
      "t_mapping(t_uint256,t_uint256)": {
        "encoding": "mapping",
        "key": "t_uint256",
        "label": "mapping(uint256 => uint256)",
        "numberOfBytes": "32",
        "value": "t_uint256"
      },
      "t_uint16": {
        "encoding": "inplace",
        "label": "uint16",
        "numberOfBytes": "2"
      },
      "t_uint256": {
        "encoding": "inplace",
        "label": "uint256",
        "numberOfBytes": "32"
      }
    }
  }
}