{
  "address": "0xAC5EAE110a29cC6757700AD77629198420ebac1E",
  "abi": [
    {
      "inputs": [
        {
          "internalType": "address",
          "name": "cyclixRandomizer",
          "type": "address"
        },
        {
          "internalType": "address",
          "name": "lotteryReader",
          "type": "address"
        },
        {
          "internalType": "address",
          "name": "_lotteryRoundCreator",
          "type": "address"
        },
        {
          "internalType": "address",
          "name": "_paymentToken",
          "type": "address"
        },
        {
          "internalType": "uint256",
          "name": "_ticketPrice",
          "type": "uint256"
        },
        {
          "internalType": "bool",
          "name": "_freeRoundsAreEnabled",
          "type": "bool"
        }
      ],
      "stateMutability": "nonpayable",
      "type": "constructor"
    },
    {
      "inputs": [
        {
          "internalType": "address",
          "name": "target",
          "type": "address"
        }
      ],
      "name": "AddressEmptyCode",
      "type": "error"
    },
    {
      "inputs": [
        {
          "internalType": "address",
          "name": "account",
          "type": "address"
        }
      ],
      "name": "AddressInsufficientBalance",
      "type": "error"
    },
    {
      "inputs": [],
      "name": "FailedInnerCall",
      "type": "error"
    },
    {
      "inputs": [
        {
          "internalType": "address",
          "name": "owner",
          "type": "address"
        }
      ],
      "name": "OwnableInvalidOwner",
      "type": "error"
    },
    {
      "inputs": [
        {
          "internalType": "address",
          "name": "account",
          "type": "address"
        }
      ],
      "name": "OwnableUnauthorizedAccount",
      "type": "error"
    },
    {
      "inputs": [
        {
          "internalType": "address",
          "name": "token",
          "type": "address"
        }
      ],
      "name": "SafeERC20FailedOperation",
      "type": "error"
    },
    {
      "anonymous": false,
      "inputs": [
        {
          "indexed": true,
          "internalType": "address",
          "name": "previousOwner",
          "type": "address"
        },
        {
          "indexed": true,
          "internalType": "address",
          "name": "newOwner",
          "type": "address"
        }
      ],
      "name": "OwnershipTransferred",
      "type": "event"
    },
    {
      "inputs": [
        {
          "internalType": "address[]",
          "name": "participant",
          "type": "address[]"
        }
      ],
      "name": "addFreeRound",
      "outputs": [],
      "stateMutability": "nonpayable",
      "type": "function"
    },
    {
      "inputs": [
        {
          "internalType": "uint256",
          "name": "",
          "type": "uint256"
        }
      ],
      "name": "bankWallets",
      "outputs": [
        {
          "internalType": "address",
          "name": "",
          "type": "address"
        }
      ],
      "stateMutability": "view",
      "type": "function"
    },
    {
      "inputs": [
        {
          "internalType": "uint256",
          "name": "chainId",
          "type": "uint256"
        },
        {
          "internalType": "uint16[]",
          "name": "chosenNumbers",
          "type": "uint16[]"
        },
        {
          "internalType": "address",
          "name": "referral",
          "type": "address"
        },
        {
          "internalType": "address",
          "name": "buyer",
          "type": "address"
        }
      ],
      "name": "buyTicket",
      "outputs": [],
      "stateMutability": "nonpayable",
      "type": "function"
    },
    {
      "inputs": [
        {
          "internalType": "uint256",
          "name": "chainId",
          "type": "uint256"
        },
        {
          "internalType": "uint16[]",
          "name": "moreTicketNumbers",
          "type": "uint16[]"
        },
        {
          "internalType": "address",
          "name": "referral",
          "type": "address"
        },
        {
          "internalType": "address",
          "name": "buyer",
          "type": "address"
        }
      ],
      "name": "buyTickets",
      "outputs": [],
      "stateMutability": "nonpayable",
      "type": "function"
    },
    {
      "inputs": [],
      "name": "claimVictory",
      "outputs": [],
      "stateMutability": "nonpayable",
      "type": "function"
    },
    {
      "inputs": [
        {
          "internalType": "uint256",
          "name": "_statusEndTime",
          "type": "uint256"
        }
      ],
      "name": "closeRound",
      "outputs": [],
      "stateMutability": "nonpayable",
      "type": "function"
    },
    {
      "inputs": [],
      "name": "counterForBankWallets",
      "outputs": [
        {
          "internalType": "uint16",
          "name": "",
          "type": "uint16"
        }
      ],
      "stateMutability": "view",
      "type": "function"
    },
    {
      "inputs": [
        {
          "internalType": "address",
          "name": "",
          "type": "address"
        }
      ],
      "name": "crossChainOperator",
      "outputs": [
        {
          "internalType": "bool",
          "name": "",
          "type": "bool"
        }
      ],
      "stateMutability": "view",
      "type": "function"
    },
    {
      "inputs": [
        {
          "internalType": "uint256",
          "name": "roundId",
          "type": "uint256"
        },
        {
          "internalType": "uint256",
          "name": "_statusEndTime",
          "type": "uint256"
        }
      ],
      "name": "fetchRoundNumbers",
      "outputs": [],
      "stateMutability": "nonpayable",
      "type": "function"
    },
    {
      "inputs": [
        {
          "internalType": "address",
          "name": "",
          "type": "address"
        }
      ],
      "name": "freeRounds",
      "outputs": [
        {
          "internalType": "uint16",
          "name": "",
          "type": "uint16"
        }
      ],
      "stateMutability": "view",
      "type": "function"
    },
    {
      "inputs": [],
      "name": "freeRoundsAreEnabled",
      "outputs": [
        {
          "internalType": "bool",
          "name": "",
          "type": "bool"
        }
      ],
      "stateMutability": "view",
      "type": "function"
    },
    {
      "inputs": [],
      "name": "lotteryRoundCreator",
      "outputs": [
        {
          "internalType": "contract LotteryRoundCreatorInterface",
          "name": "",
          "type": "address"
        }
      ],
      "stateMutability": "view",
      "type": "function"
    },
    {
      "inputs": [],
      "name": "lotteryStatus",
      "outputs": [
        {
          "internalType": "enum LotteryStatuses",
          "name": "",
          "type": "uint8"
        }
      ],
      "stateMutability": "view",
      "type": "function"
    },
    {
      "inputs": [
        {
          "internalType": "uint256",
          "name": "roundId",
          "type": "uint256"
        },
        {
          "internalType": "uint256",
          "name": "_statusEndTime",
          "type": "uint256"
        }
      ],
      "name": "markWinners",
      "outputs": [],
      "stateMutability": "nonpayable",
      "type": "function"
    },
    {
      "inputs": [],
      "name": "owner",
      "outputs": [
        {
          "internalType": "address",
          "name": "",
          "type": "address"
        }
      ],
      "stateMutability": "view",
      "type": "function"
    },
    {
      "inputs": [],
      "name": "paymentToken",
      "outputs": [
        {
          "internalType": "contract IERC20Metadata",
          "name": "",
          "type": "address"
        }
      ],
      "stateMutability": "view",
      "type": "function"
    },
    {
      "inputs": [],
      "name": "percentageOfReferralWinners",
      "outputs": [
        {
          "internalType": "uint16",
          "name": "",
          "type": "uint16"
        }
      ],
      "stateMutability": "view",
      "type": "function"
    },
    {
      "inputs": [
        {
          "internalType": "uint256",
          "name": "",
          "type": "uint256"
        }
      ],
      "name": "publicRoundRandomNumbersRequestId",
      "outputs": [
        {
          "internalType": "uint256",
          "name": "",
          "type": "uint256"
        }
      ],
      "stateMutability": "view",
      "type": "function"
    },
    {
      "inputs": [],
      "name": "randomizer",
      "outputs": [
        {
          "internalType": "contract CyclixRandomizerInterface",
          "name": "",
          "type": "address"
        }
      ],
      "stateMutability": "view",
      "type": "function"
    },
    {
      "inputs": [],
      "name": "reader",
      "outputs": [
        {
          "internalType": "contract LotteryReaderInterface",
          "name": "",
          "type": "address"
        }
      ],
      "stateMutability": "view",
      "type": "function"
    },
    {
      "inputs": [],
      "name": "renounceOwnership",
      "outputs": [],
      "stateMutability": "nonpayable",
      "type": "function"
    },
    {
      "inputs": [],
      "name": "roundCount",
      "outputs": [
        {
          "internalType": "uint256",
          "name": "",
          "type": "uint256"
        }
      ],
      "stateMutability": "view",
      "type": "function"
    },
    {
      "inputs": [
        {
          "internalType": "uint256",
          "name": "",
          "type": "uint256"
        }
      ],
      "name": "rounds",
      "outputs": [
        {
          "internalType": "address",
          "name": "",
          "type": "address"
        }
      ],
      "stateMutability": "view",
      "type": "function"
    },
    {
      "inputs": [],
      "name": "sendCryptoToTeam",
      "outputs": [],
      "stateMutability": "nonpayable",
      "type": "function"
    },
    {
      "inputs": [
        {
          "internalType": "address",
          "name": "_token",
          "type": "address"
        }
      ],
      "name": "sendTokenToTeam",
      "outputs": [],
      "stateMutability": "nonpayable",
      "type": "function"
    },
    {
      "inputs": [
        {
          "internalType": "address",
          "name": "wallet",
          "type": "address"
        },
        {
          "internalType": "bool",
          "name": "add",
          "type": "bool"
        }
      ],
      "name": "setBankWallet",
      "outputs": [],
      "stateMutability": "nonpayable",
      "type": "function"
    },
    {
      "inputs": [
        {
          "internalType": "address",
          "name": "operator",
          "type": "address"
        },
        {
          "internalType": "bool",
          "name": "value",
          "type": "bool"
        }
      ],
      "name": "setCrossChainOperator",
      "outputs": [],
      "stateMutability": "nonpayable",
      "type": "function"
    },
    {
      "inputs": [
        {
          "internalType": "uint256",
          "name": "_statusEndTime",
          "type": "uint256"
        }
      ],
      "name": "startNewRound",
      "outputs": [],
      "stateMutability": "nonpayable",
      "type": "function"
    },
    {
      "inputs": [],
      "name": "statusEndTime",
      "outputs": [
        {
          "internalType": "uint256",
          "name": "",
          "type": "uint256"
        }
      ],
      "stateMutability": "view",
      "type": "function"
    },
    {
      "inputs": [],
      "name": "statusStartTime",
      "outputs": [
        {
          "internalType": "uint256",
          "name": "",
          "type": "uint256"
        }
      ],
      "stateMutability": "view",
      "type": "function"
    },
    {
      "inputs": [],
      "name": "ticketPrice",
      "outputs": [
        {
          "internalType": "uint256",
          "name": "",
          "type": "uint256"
        }
      ],
      "stateMutability": "view",
      "type": "function"
    },
    {
      "inputs": [
        {
          "internalType": "address",
          "name": "newOwner",
          "type": "address"
        }
      ],
      "name": "transferOwnership",
      "outputs": [],
      "stateMutability": "nonpayable",
      "type": "function"
    },
    {
      "inputs": [
        {
          "internalType": "address",
          "name": "cyclixRandomizer",
          "type": "address"
        },
        {
          "internalType": "address",
          "name": "lotteryReader",
          "type": "address"
        },
        {
          "internalType": "address",
          "name": "_lotteryRoundCreator",
          "type": "address"
        },
        {
          "internalType": "address",
          "name": "_paymentToken",
          "type": "address"
        },
        {
          "internalType": "uint256",
          "name": "_ticketPrice",
          "type": "uint256"
        },
        {
          "internalType": "uint16",
          "name": "_percentageOfReferralWinners",
          "type": "uint16"
        },
        {
          "internalType": "uint16[]",
          "name": "_poolPercentagesBasePoints",
          "type": "uint16[]"
        },
        {
          "internalType": "bool",
          "name": "_freeRoundsAreEnabled",
          "type": "bool"
        }
      ],
      "name": "updateSetup",
      "outputs": [],
      "stateMutability": "nonpayable",
      "type": "function"
    },
    {
      "inputs": [
        {
          "internalType": "address",
          "name": "_teamAddress",
          "type": "address"
        }
      ],
      "name": "updateTeamAddress",
      "outputs": [],
      "stateMutability": "nonpayable",
      "type": "function"
    }
  ],
  "transactionHash": "0x5a2aa7502138fa08bd94114efa6af2ce8338c61f27033888f50fb79be9d664d1",
  "args": [
    "0x44f406DD646775eC29262d353E3532d88366259D",
    "0x1854F3896B27f438158d5B753f5a965b74418747",
    "0xfC75304A15092eaa8F36791Ef14BCfef8d0e97e1",
    "0xE163aA8E024072b0282b348577Cb2A63D51188B5",
    10,
    true
  ],
  "numDeployments": 2,
  "solcInputHash": "e654e70783ac5685e5f1ecedf2736209",
  "bytecode": "0x60806040526000600f60006101000a81548160ff021916908315150217905550600a600f60016101000a81548161ffff021916908361ffff1602179055503480156200004a57600080fd5b5060405162005a3c38038062005a3c8339818101604052810190620000709190620005b7565b3380600073ffffffffffffffffffffffffffffffffffffffff168173ffffffffffffffffffffffffffffffffffffffff1603620000e75760006040517f1e4fbdf7000000000000000000000000000000000000000000000000000000008152600401620000de919062000664565b60405180910390fd5b620000f8816200041160201b60201c565b5080600160006101000a81548173ffffffffffffffffffffffffffffffffffffffff021916908373ffffffffffffffffffffffffffffffffffffffff1602179055505085600c60006101000a81548173ffffffffffffffffffffffffffffffffffffffff021916908373ffffffffffffffffffffffffffffffffffffffff160217905550600c60009054906101000a900473ffffffffffffffffffffffffffffffffffffffff1673ffffffffffffffffffffffffffffffffffffffff1663cd0f2311306040518263ffffffff1660e01b8152600401620001d99190620006e2565b600060405180830381600087803b158015620001f457600080fd5b505af115801562000209573d6000803e3d6000fd5b5050505084600d60006101000a81548173ffffffffffffffffffffffffffffffffffffffff021916908373ffffffffffffffffffffffffffffffffffffffff16021790555083600f60036101000a81548173ffffffffffffffffffffffffffffffffffffffff021916908373ffffffffffffffffffffffffffffffffffffffff16021790555082600b60006101000a81548173ffffffffffffffffffffffffffffffffffffffff021916908373ffffffffffffffffffffffffffffffffffffffff160217905550600b60009054906101000a900473ffffffffffffffffffffffffffffffffffffffff1673ffffffffffffffffffffffffffffffffffffffff1663313ce5676040518163ffffffff1660e01b8152600401602060405180830381865afa1580156200033e573d6000803e3d6000fd5b505050506040513d601f19601f8201168201806040525081019062000364919062000752565b60ff16600a62000375919062000907565b8262000382919062000958565b600e8190555080600f60006101000a81548160ff021916908315150217905550600a339080600181540180825580915050600190039060005260206000200160009091909190916101000a81548173ffffffffffffffffffffffffffffffffffffffff021916908373ffffffffffffffffffffffffffffffffffffffff160217905550505050505050620009a3565b60008060009054906101000a900473ffffffffffffffffffffffffffffffffffffffff169050816000806101000a81548173ffffffffffffffffffffffffffffffffffffffff021916908373ffffffffffffffffffffffffffffffffffffffff1602179055508173ffffffffffffffffffffffffffffffffffffffff168173ffffffffffffffffffffffffffffffffffffffff167f8be0079c531659141344cd1fd0a4f28419497f9722a3daafe3b4186f6b6457e060405160405180910390a35050565b600080fd5b600073ffffffffffffffffffffffffffffffffffffffff82169050919050565b60006200050782620004da565b9050919050565b6200051981620004fa565b81146200052557600080fd5b50565b60008151905062000539816200050e565b92915050565b6000819050919050565b62000554816200053f565b81146200056057600080fd5b50565b600081519050620005748162000549565b92915050565b60008115159050919050565b62000591816200057a565b81146200059d57600080fd5b50565b600081519050620005b18162000586565b92915050565b60008060008060008060c08789031215620005d757620005d6620004d5565b5b6000620005e789828a0162000528565b9650506020620005fa89828a0162000528565b95505060406200060d89828a0162000528565b94505060606200062089828a0162000528565b93505060806200063389828a0162000563565b92505060a06200064689828a01620005a0565b9150509295509295509295565b6200065e81620004fa565b82525050565b60006020820190506200067b600083018462000653565b92915050565b600082825260208201905092915050565b7f4c6f74746572794d617374657256302e31000000000000000000000000000000600082015250565b6000620006ca60118362000681565b9150620006d78262000692565b602082019050919050565b6000604082019050620006f9600083018462000653565b81810360208301526200070c81620006bb565b905092915050565b600060ff82169050919050565b6200072c8162000714565b81146200073857600080fd5b50565b6000815190506200074c8162000721565b92915050565b6000602082840312156200076b576200076a620004d5565b5b60006200077b848285016200073b565b91505092915050565b7f4e487b7100000000000000000000000000000000000000000000000000000000600052601160045260246000fd5b60008160011c9050919050565b6000808291508390505b60018511156200081257808604811115620007ea57620007e962000784565b5b6001851615620007fa5780820291505b80810290506200080a85620007b3565b9450620007ca565b94509492505050565b6000826200082d576001905062000900565b816200083d576000905062000900565b8160018114620008565760028114620008615762000897565b600191505062000900565b60ff84111562000876576200087562000784565b5b8360020a91508482111562000890576200088f62000784565b5b5062000900565b5060208310610133831016604e8410600b8410161715620008d15782820a905083811115620008cb57620008ca62000784565b5b62000900565b620008e08484846001620007c0565b92509050818404811115620008fa57620008f962000784565b5b81810290505b9392505050565b600062000914826200053f565b915062000921836200053f565b9250620009507fffffffffffffffffffffffffffffffffffffffffffffffffffffffffffffffff84846200081b565b905092915050565b600062000965826200053f565b915062000972836200053f565b925082820262000982816200053f565b915082820484148315176200099c576200099b62000784565b5b5092915050565b61508980620009b36000396000f3fe608060405234801561001057600080fd5b50600436106102065760003560e01c806388e01a981161011a578063bbd1783a116100ad578063e03d753a1161007c578063e03d753a14610579578063eb7165fa14610597578063f10fb584146105b3578063f2fde38b146105d1578063f4dec22b146105ed57610206565b8063bbd1783a14610505578063c96acb5a1461050f578063cedd1bc31461052b578063d4fc42c61461055b57610206565b8063998da3e9116100e9578063998da3e914610495578063a8eed12d146104b1578063b33d8c54146104cd578063b62fe01b146104e957610206565b806388e01a981461040d5780638c65c81f146104295780638da5cb5b1461045957806392566fdd1461047757610206565b8063258799f81161019d57806362cd30d11161016c57806362cd30d11461037d578063715018a61461039957806375e5460d146103a35780637a5ed721146103d357806387da46f1146103ef57610206565b8063258799f8146102f55780633013ce29146103255780633fda7d95146103435780634615102c1461036157610206565b80631abddf33116101d95780631abddf33146102815780631ed15aa41461028b5780631fcebf68146102a757806322429429146102d757610206565b80630d683dd91461020b5780631209b1f614610229578063127f0b3f1461024757806314eb76ac14610265575b600080fd5b61021361060b565b6040516102209190613184565b60405180910390f35b61023161061e565b60405161023e91906131b8565b60405180910390f35b61024f610624565b60405161025c91906131b8565b60405180910390f35b61027f600480360381019061027a9190613245565b61062a565b005b610289610676565b005b6102a560048036038101906102a091906132aa565b610c65565b005b6102c160048036038101906102bc9190613245565b610eab565b6040516102ce9190613307565b60405180910390f35b6102df610ecc565b6040516102ec91906131b8565b60405180910390f35b61030f600480360381019061030a919061334e565b610ed2565b60405161031c919061338a565b60405180910390f35b61032d610f11565b60405161033a9190613404565b60405180910390f35b61034b610f37565b60405161035891906131b8565b60405180910390f35b61037b6004803603810190610376919061334e565b610f3d565b005b610397600480360381019061039291906135a4565b61124e565b005b6103a16115e6565b005b6103bd60048036038101906103b89190613245565b6115fa565b6040516103ca9190613685565b60405180910390f35b6103ed60048036038101906103e891906136a0565b61161a565b005b6103f7611705565b6040516104049190613744565b60405180910390f35b6104276004803603810190610422919061334e565b61172b565b005b610443600480360381019061043e919061334e565b611959565b604051610450919061338a565b60405180910390f35b610461611998565b60405161046e919061338a565b60405180910390f35b61047f6119c1565b60405161048c9190613307565b60405180910390f35b6104af60048036038101906104aa9190613245565b6119d5565b005b6104cb60048036038101906104c691906132aa565b611a96565b005b6104e760048036038101906104e291906137ba565b611af9565b005b61050360048036038101906104fe9190613807565b611bc0565b005b61050d612183565b005b61052960048036038101906105249190613807565b612200565b005b6105456004803603810190610540919061334e565b61240e565b60405161055291906131b8565b60405180910390f35b610563612426565b6040516105709190613868565b60405180910390f35b61058161244c565b60405161058e9190613685565b60405180910390f35b6105b160048036038101906105ac91906136a0565b61245f565b005b6105bb612b5c565b6040516105c891906138a4565b60405180910390f35b6105eb60048036038101906105e69190613245565b612b82565b005b6105f5612c08565b6040516106029190613307565b60405180910390f35b600460009054906101000a900460ff1681565b600e5481565b60025481565b610632612c1c565b80600160006101000a81548173ffffffffffffffffffffffffffffffffffffffff021916908373ffffffffffffffffffffffffffffffffffffffff16021790555050565b6003808111156106895761068861310d565b5b600460009054906101000a900460ff1660038111156106ab576106aa61310d565b5b146106eb576040517f08c379a00000000000000000000000000000000000000000000000000000000081526004016106e29061391c565b60405180910390fd5b426006541161072f576040517f08c379a000000000000000000000000000000000000000000000000000000000815260040161072690613988565b60405180910390fd5b6000600d60009054906101000a900473ffffffffffffffffffffffffffffffffffffffff1673ffffffffffffffffffffffffffffffffffffffff1663b7991e336002543360006040518463ffffffff1660e01b8152600401610793939291906139a8565b602060405180830381865afa1580156107b0573d6000803e3d6000fd5b505050506040513d601f19601f820116820180604052508101906107d491906139f4565b90506000600d60009054906101000a900473ffffffffffffffffffffffffffffffffffffffff1673ffffffffffffffffffffffffffffffffffffffff1663a521dc956002543360006040518463ffffffff1660e01b815260040161083a939291906139a8565b602060405180830381865afa158015610857573d6000803e3d6000fd5b505050506040513d601f19601f8201168201806040525081019061087b91906139f4565b9050600082118061088c5750600081115b6108cb576040517f08c379a00000000000000000000000000000000000000000000000000000000081526004016108c290613a6d565b60405180910390fd5b80826108d79190613abc565b600b60009054906101000a900473ffffffffffffffffffffffffffffffffffffffff1673ffffffffffffffffffffffffffffffffffffffff166370a08231306040518263ffffffff1660e01b8152600401610932919061338a565b602060405180830381865afa15801561094f573d6000803e3d6000fd5b505050506040513d601f19601f8201168201806040525081019061097391906139f4565b10156109b4576040517f08c379a00000000000000000000000000000000000000000000000000000000081526004016109ab90613b3c565b60405180910390fd5b600360016002546109c59190613b5c565b815481106109d6576109d5613b90565b5b9060005260206000200160009054906101000a900473ffffffffffffffffffffffffffffffffffffffff1673ffffffffffffffffffffffffffffffffffffffff1663d1349d0c600d60009054906101000a900473ffffffffffffffffffffffffffffffffffffffff1673ffffffffffffffffffffffffffffffffffffffff1663eed25896600254336040518363ffffffff1660e01b8152600401610a7b929190613bbf565b600060405180830381865afa158015610a98573d6000803e3d6000fd5b505050506040513d6000823e3d601f19601f82011682018060405250810190610ac19190613da4565b600d60009054906101000a900473ffffffffffffffffffffffffffffffffffffffff1673ffffffffffffffffffffffffffffffffffffffff166317ba3b7d600254336040518363ffffffff1660e01b8152600401610b20929190613bbf565b600060405180830381865afa158015610b3d573d6000803e3d6000fd5b505050506040513d6000823e3d601f19601f82011682018060405250810190610b669190613f50565b6040518363ffffffff1660e01b8152600401610b83929190614262565b600060405180830381600087803b158015610b9d57600080fd5b505af1158015610bb1573d6000803e3d6000fd5b50505050600b60009054906101000a900473ffffffffffffffffffffffffffffffffffffffff1673ffffffffffffffffffffffffffffffffffffffff1663a9059cbb338385610c009190613abc565b6040518363ffffffff1660e01b8152600401610c1d929190614299565b6020604051808303816000875af1158015610c3c573d6000803e3d6000fd5b505050506040513d601f19601f82011682018060405250810190610c6091906142c2565b505050565b610c6d612c1c565b60005b600a80549050811015610e3c578273ffffffffffffffffffffffffffffffffffffffff16600a8281548110610ca857610ca7613b90565b5b9060005260206000200160009054906101000a900473ffffffffffffffffffffffffffffffffffffffff1673ffffffffffffffffffffffffffffffffffffffff1603610e2f578115610d3a576000610d35576040517f08c379a0000000000000000000000000000000000000000000000000000000008152600401610d2c9061433b565b60405180910390fd5b610e2e565b600a6001600a80549050610d4e9190613b5c565b81548110610d5f57610d5e613b90565b5b9060005260206000200160009054906101000a900473ffffffffffffffffffffffffffffffffffffffff16600a8281548110610d9e57610d9d613b90565b5b9060005260206000200160006101000a81548173ffffffffffffffffffffffffffffffffffffffff021916908373ffffffffffffffffffffffffffffffffffffffff160217905550600a805480610df857610df761435b565b5b6001900381819060005260206000200160006101000a81549073ffffffffffffffffffffffffffffffffffffffff021916905590555b5b8080600101915050610c70565b508015610ea757600a829080600181540180825580915050600190039060005260206000200160009091909190916101000a81548173ffffffffffffffffffffffffffffffffffffffff021916908373ffffffffffffffffffffffffffffffffffffffff1602179055505b5050565b60076020528060005260406000206000915054906101000a900461ffff1681565b60065481565b600a8181548110610ee257600080fd5b906000526020600020016000915054906101000a900473ffffffffffffffffffffffffffffffffffffffff1681565b600b60009054906101000a900473ffffffffffffffffffffffffffffffffffffffff1681565b60055481565b610f45612c1c565b60026000815480929190610f589061438a565b91905055506001600254111561113c576003600f60039054906101000a900473ffffffffffffffffffffffffffffffffffffffff1673ffffffffffffffffffffffffffffffffffffffff166363ea940f83600360028054610fb99190613b5c565b81548110610fca57610fc9613b90565b5b9060005260206000200160009054906101000a900473ffffffffffffffffffffffffffffffffffffffff166040518363ffffffff1660e01b8152600401611012929190613bbf565b6020604051808303816000875af1158015611031573d6000803e3d6000fd5b505050506040513d601f19601f8201168201806040525081019061105591906143d2565b9080600181540180825580915050600190039060005260206000200160009091909190916101000a81548173ffffffffffffffffffffffffffffffffffffffff021916908373ffffffffffffffffffffffffffffffffffffffff1602179055506003808111156110c8576110c761310d565b5b600460009054906101000a900460ff1660038111156110ea576110e961310d565b5b1480156110f8575042600654105b611137576040517f08c379a000000000000000000000000000000000000000000000000000000000815260040161112e9061444b565b60405180910390fd5b611240565b6003600f60039054906101000a900473ffffffffffffffffffffffffffffffffffffffff1673ffffffffffffffffffffffffffffffffffffffff166363ea940f8360006040518363ffffffff1660e01b815260040161119c929190613bbf565b6020604051808303816000875af11580156111bb573d6000803e3d6000fd5b505050506040513d601f19601f820116820180604052508101906111df91906143d2565b9080600181540180825580915050600190039060005260206000200160009091909190916101000a81548173ffffffffffffffffffffffffffffffffffffffff021916908373ffffffffffffffffffffffffffffffffffffffff1602179055505b61124b600082612ca3565b50565b611256612c1c565b8773ffffffffffffffffffffffffffffffffffffffff16600c60009054906101000a900473ffffffffffffffffffffffffffffffffffffffff1673ffffffffffffffffffffffffffffffffffffffff161461137a5787600c60006101000a81548173ffffffffffffffffffffffffffffffffffffffff021916908373ffffffffffffffffffffffffffffffffffffffff160217905550600c60009054906101000a900473ffffffffffffffffffffffffffffffffffffffff1673ffffffffffffffffffffffffffffffffffffffff1663cd0f2311306040518263ffffffff1660e01b815260040161134791906144b7565b600060405180830381600087803b15801561136157600080fd5b505af1158015611375573d6000803e3d6000fd5b505050505b86600d60006101000a81548173ffffffffffffffffffffffffffffffffffffffff021916908373ffffffffffffffffffffffffffffffffffffffff16021790555085600f60036101000a81548173ffffffffffffffffffffffffffffffffffffffff021916908373ffffffffffffffffffffffffffffffffffffffff16021790555084600b60006101000a81548173ffffffffffffffffffffffffffffffffffffffff021916908373ffffffffffffffffffffffffffffffffffffffff160217905550600b60009054906101000a900473ffffffffffffffffffffffffffffffffffffffff1673ffffffffffffffffffffffffffffffffffffffff1663313ce5676040518163ffffffff1660e01b8152600401602060405180830381865afa1580156114aa573d6000803e3d6000fd5b505050506040513d601f19601f820116820180604052508101906114ce919061451e565b60ff16600a6114dd919061467e565b846114e891906146c9565b600e8190555082600f60016101000a81548161ffff021916908361ffff1602179055506003600160025461151c9190613b5c565b8154811061152d5761152c613b90565b5b9060005260206000200160009054906101000a900473ffffffffffffffffffffffffffffffffffffffff1673ffffffffffffffffffffffffffffffffffffffff16639469f293836040518263ffffffff1660e01b815260040161159091906147c9565b600060405180830381600087803b1580156115aa57600080fd5b505af11580156115be573d6000803e3d6000fd5b5050505080600f60006101000a81548160ff0219169083151502179055505050505050505050565b6115ee612c1c565b6115f86000612cf2565b565b60086020528060005260406000206000915054906101000a900460ff1681565b60005b83518110156116fe576000600667ffffffffffffffff81111561164357611642613461565b5b6040519080825280602002602001820160405280156116715781602001602082028036833780820191505090505b50905060005b60068110156116dc5785818461168d9190613abc565b8151811061169e5761169d613b90565b5b60200260200101518282815181106116b9576116b8613b90565b5b602002602001019061ffff16908161ffff16815250508080600101915050611677565b506116e98682868661245f565b506006816116f79190613abc565b905061161d565b5050505050565b600f60039054906101000a900473ffffffffffffffffffffffffffffffffffffffff1681565b611733612c1c565b6000600360016002546117469190613b5c565b8154811061175757611756613b90565b5b9060005260206000200160009054906101000a900473ffffffffffffffffffffffffffffffffffffffff1690508073ffffffffffffffffffffffffffffffffffffffff1663e278fe6f6040518163ffffffff1660e01b8152600401600060405180830381600087803b1580156117cc57600080fd5b505af11580156117e0573d6000803e3d6000fd5b505050506000600d60009054906101000a900473ffffffffffffffffffffffffffffffffffffffff1673ffffffffffffffffffffffffffffffffffffffff1663f1664df66002546040518263ffffffff1660e01b815260040161184391906131b8565b602060405180830381865afa158015611860573d6000803e3d6000fd5b505050506040513d601f19601f820116820180604052508101906118849190614800565b9050600c60009054906101000a900473ffffffffffffffffffffffffffffffffffffffff1673ffffffffffffffffffffffffffffffffffffffff1663e726f2e18260066118d1919061482d565b6040518263ffffffff1660e01b81526004016118ed91906148a4565b6020604051808303816000875af115801561190c573d6000803e3d6000fd5b505050506040513d601f19601f8201168201806040525081019061193091906139f4565b60106000600254815260200190815260200160002081905550611954600184612ca3565b505050565b6003818154811061196957600080fd5b906000526020600020016000915054906101000a900473ffffffffffffffffffffffffffffffffffffffff1681565b60008060009054906101000a900473ffffffffffffffffffffffffffffffffffffffff16905090565b600960009054906101000a900461ffff1681565b6119dd612c1c565b60008173ffffffffffffffffffffffffffffffffffffffff166370a08231306040518263ffffffff1660e01b8152600401611a18919061338a565b602060405180830381865afa158015611a35573d6000803e3d6000fd5b505050506040513d601f19601f82011682018060405250810190611a5991906139f4565b90506000811115611a9257611a9182600160009054906101000a900473ffffffffffffffffffffffffffffffffffffffff1683612db6565b5b5050565b611a9e612c1c565b80600860008473ffffffffffffffffffffffffffffffffffffffff1673ffffffffffffffffffffffffffffffffffffffff16815260200190815260200160002060006101000a81548160ff0219169083151502179055505050565b611b01612c1c565b60005b82829050811015611bbb5760076000848484818110611b2657611b25613b90565b5b9050602002016020810190611b3b9190613245565b73ffffffffffffffffffffffffffffffffffffffff1673ffffffffffffffffffffffffffffffffffffffff168152602001908152602001600020600081819054906101000a900461ffff1680929190611b93906148bf565b91906101000a81548161ffff021916908361ffff160217905550508080600101915050611b04565b505050565b611bc8612c1c565b60006003600184611bd99190613b5c565b81548110611bea57611be9613b90565b5b9060005260206000200160009054906101000a900473ffffffffffffffffffffffffffffffffffffffff1690508073ffffffffffffffffffffffffffffffffffffffff1663343f25666040518163ffffffff1660e01b815260040160006040518083038186803b158015611c5d57600080fd5b505afa158015611c71573d6000803e3d6000fd5b50505050600080600c60009054906101000a900473ffffffffffffffffffffffffffffffffffffffff1673ffffffffffffffffffffffffffffffffffffffff1663d8a4676f60106000888152602001908152602001600020546040518263ffffffff1660e01b8152600401611ce691906131b8565b600060405180830381865afa158015611d03573d6000803e3d6000fd5b505050506040513d6000823e3d601f19601f82011682018060405250810190611d2c91906149ac565b9150915081611d70576040517f08c379a0000000000000000000000000000000000000000000000000000000008152600401611d6790614a54565b60405180910390fd5b6000600667ffffffffffffffff811115611d8d57611d8c613461565b5b604051908082528060200260200182016040528015611dbb5781602001602082028036833780820191505090505b509050600060068351611dce9190613b5c565b67ffffffffffffffff811115611de757611de6613461565b5b604051908082528060200260200182016040528015611e155781602001602082028036833780820191505090505b50905083156121025760005b6006811015611f1b57600d60009054906101000a900473ffffffffffffffffffffffffffffffffffffffff1673ffffffffffffffffffffffffffffffffffffffff16630c746a8a858381518110611e7b57611e7a613b90565b5b60200260200101516045866040518463ffffffff1660e01b8152600401611ea493929190614aaf565b602060405180830381865afa158015611ec1573d6000803e3d6000fd5b505050506040513d601f19601f82011682018060405250810190611ee59190614800565b838281518110611ef857611ef7613b90565b5b602002602001019061ffff16908161ffff16815250508080600101915050611e21565b506001601a84600581518110611f3457611f33613b90565b5b6020026020010151611f469190614b1c565b611f509190613abc565b82600581518110611f6457611f63613b90565b5b602002602001019061ffff16908161ffff16815250506000600690505b835181101561210057600d60009054906101000a900473ffffffffffffffffffffffffffffffffffffffff1673ffffffffffffffffffffffffffffffffffffffff16630c746a8a858381518110611fdb57611fda613b90565b5b60200260200101518873ffffffffffffffffffffffffffffffffffffffff16639f8743f76040518163ffffffff1660e01b81526004016000604051808303816000875af1158015612030573d6000803e3d6000fd5b505050506040513d6000823e3d601f19601f820116820180604052508101906120599190614d60565b6101400151856040518463ffffffff1660e01b815260040161207d93929190614da9565b602060405180830381865afa15801561209a573d6000803e3d6000fd5b505050506040513d601f19601f820116820180604052508101906120be9190614800565b826006836120cc9190613b5c565b815181106120dd576120dc613b90565b5b602002602001019061ffff16908161ffff16815250508080600101915050611f81565b505b8473ffffffffffffffffffffffffffffffffffffffff16632724d10483836040518363ffffffff1660e01b815260040161213d929190614de7565b600060405180830381600087803b15801561215757600080fd5b505af115801561216b573d6000803e3d6000fd5b5050505061217a600287612ca3565b50505050505050565b61218b612c1c565b60004711156121fe57600160009054906101000a900473ffffffffffffffffffffffffffffffffffffffff1673ffffffffffffffffffffffffffffffffffffffff166108fc479081150290604051600060405180830381858888f193505050501580156121fc573d6000803e3d6000fd5b505b565b612208612c1c565b60036001836122179190613b5c565b8154811061222857612227613b90565b5b9060005260206000200160009054906101000a900473ffffffffffffffffffffffffffffffffffffffff1673ffffffffffffffffffffffffffffffffffffffff1663d84652c8600d60009054906101000a900473ffffffffffffffffffffffffffffffffffffffff1673ffffffffffffffffffffffffffffffffffffffff16639f75e5c9856040518263ffffffff1660e01b81526004016122c991906131b8565b600060405180830381865afa1580156122e6573d6000803e3d6000fd5b505050506040513d6000823e3d601f19601f8201168201806040525081019061230f9190613da4565b600d60009054906101000a900473ffffffffffffffffffffffffffffffffffffffff1673ffffffffffffffffffffffffffffffffffffffff166348b2e35c866040518263ffffffff1660e01b815260040161236a91906131b8565b600060405180830381865afa158015612387573d6000803e3d6000fd5b505050506040513d6000823e3d601f19601f820116820180604052508101906123b09190613f50565b6040518363ffffffff1660e01b81526004016123cd929190614262565b600060405180830381600087803b1580156123e757600080fd5b505af11580156123fb573d6000803e3d6000fd5b5050505061240a600382612ca3565b5050565b60106020528060005260406000206000915090505481565b600d60009054906101000a900473ffffffffffffffffffffffffffffffffffffffff1681565b600f60009054906101000a900460ff1681565b6000600760008373ffffffffffffffffffffffffffffffffffffffff1673ffffffffffffffffffffffffffffffffffffffff16815260200190815260200160002060009054906101000a900461ffff1661ffff16118061255e5750600e54600b60009054906101000a900473ffffffffffffffffffffffffffffffffffffffff1673ffffffffffffffffffffffffffffffffffffffff1663dd62ed3e83306040518363ffffffff1660e01b815260040161251a929190614e1e565b602060405180830381865afa158015612537573d6000803e3d6000fd5b505050506040513d601f19601f8201168201806040525081019061255b91906139f4565b10155b806125b25750600860003373ffffffffffffffffffffffffffffffffffffffff1673ffffffffffffffffffffffffffffffffffffffff16815260200190815260200160002060009054906101000a900460ff165b6125f1576040517f08c379a00000000000000000000000000000000000000000000000000000000081526004016125e890614e93565b60405180910390fd5b6000600360016002546126049190613b5c565b8154811061261557612614613b90565b5b9060005260206000200160009054906101000a900473ffffffffffffffffffffffffffffffffffffffff1690506000600760008473ffffffffffffffffffffffffffffffffffffffff1673ffffffffffffffffffffffffffffffffffffffff16815260200190815260200160002060009054906101000a900461ffff1661ffff16111561271957600760008373ffffffffffffffffffffffffffffffffffffffff1673ffffffffffffffffffffffffffffffffffffffff168152602001908152602001600020600081819054906101000a900461ffff16809291906126f990614eb3565b91906101000a81548161ffff021916908361ffff16021790555050612ae4565b600860003373ffffffffffffffffffffffffffffffffffffffff1673ffffffffffffffffffffffffffffffffffffffff16815260200190815260200160002060009054906101000a900460ff1661293757600e54600b60009054906101000a900473ffffffffffffffffffffffffffffffffffffffff1673ffffffffffffffffffffffffffffffffffffffff166370a08231326040518263ffffffff1660e01b81526004016127c8919061338a565b602060405180830381865afa1580156127e5573d6000803e3d6000fd5b505050506040513d601f19601f8201168201806040525081019061280991906139f4565b101561284a576040517f08c379a000000000000000000000000000000000000000000000000000000000815260040161284190614f28565b60405180910390fd5b600a805490506009600081819054906101000a900461ffff1680929190612870906148bf565b91906101000a81548161ffff021916908361ffff16021790555061ffff166128989190614b1c565b600960006101000a81548161ffff021916908361ffff160217905550612936600b60009054906101000a900473ffffffffffffffffffffffffffffffffffffffff1683600a600960009054906101000a900461ffff1661ffff168154811061290357612902613b90565b5b9060005260206000200160009054906101000a900473ffffffffffffffffffffffffffffffffffffffff16600e54612e35565b5b8073ffffffffffffffffffffffffffffffffffffffff1663b56c12b4600e546040518263ffffffff1660e01b815260040161297291906131b8565b600060405180830381600087803b15801561298c57600080fd5b505af11580156129a0573d6000803e3d6000fd5b50505050600073ffffffffffffffffffffffffffffffffffffffff168373ffffffffffffffffffffffffffffffffffffffff16141580156129ed5750600f60009054906101000a900460ff165b15612ae357600760008373ffffffffffffffffffffffffffffffffffffffff1673ffffffffffffffffffffffffffffffffffffffff168152602001908152602001600020600081819054906101000a900461ffff1680929190612a4f906148bf565b91906101000a81548161ffff021916908361ffff16021790555050600760008473ffffffffffffffffffffffffffffffffffffffff1673ffffffffffffffffffffffffffffffffffffffff168152602001908152602001600020600081819054906101000a900461ffff1680929190612ac7906148bf565b91906101000a81548161ffff021916908361ffff160217905550505b5b8073ffffffffffffffffffffffffffffffffffffffff1663eb7165fa868686866040518563ffffffff1660e01b8152600401612b239493929190614f48565b600060405180830381600087803b158015612b3d57600080fd5b505af1158015612b51573d6000803e3d6000fd5b505050505050505050565b600c60009054906101000a900473ffffffffffffffffffffffffffffffffffffffff1681565b612b8a612c1c565b600073ffffffffffffffffffffffffffffffffffffffff168173ffffffffffffffffffffffffffffffffffffffff1603612bfc5760006040517f1e4fbdf7000000000000000000000000000000000000000000000000000000008152600401612bf3919061338a565b60405180910390fd5b612c0581612cf2565b50565b600f60019054906101000a900461ffff1681565b612c24612eb7565b73ffffffffffffffffffffffffffffffffffffffff16612c42611998565b73ffffffffffffffffffffffffffffffffffffffff1614612ca157612c65612eb7565b6040517f118cdaa7000000000000000000000000000000000000000000000000000000008152600401612c98919061338a565b60405180910390fd5b565b612cab612c1c565b81600460006101000a81548160ff02191690836003811115612cd057612ccf61310d565b5b0217905550426005819055508042612ce89190613abc565b6006819055505050565b60008060009054906101000a900473ffffffffffffffffffffffffffffffffffffffff169050816000806101000a81548173ffffffffffffffffffffffffffffffffffffffff021916908373ffffffffffffffffffffffffffffffffffffffff1602179055508173ffffffffffffffffffffffffffffffffffffffff168173ffffffffffffffffffffffffffffffffffffffff167f8be0079c531659141344cd1fd0a4f28419497f9722a3daafe3b4186f6b6457e060405160405180910390a35050565b612e30838473ffffffffffffffffffffffffffffffffffffffff1663a9059cbb8585604051602401612de9929190614299565b604051602081830303815290604052915060e01b6020820180517bffffffffffffffffffffffffffffffffffffffffffffffffffffffff8381831617835250505050612ebf565b505050565b612eb1848573ffffffffffffffffffffffffffffffffffffffff166323b872dd868686604051602401612e6a93929190614f94565b604051602081830303815290604052915060e01b6020820180517bffffffffffffffffffffffffffffffffffffffffffffffffffffffff8381831617835250505050612ebf565b50505050565b600033905090565b6000612eea828473ffffffffffffffffffffffffffffffffffffffff16612f5690919063ffffffff16565b90506000815114158015612f0f575080806020019051810190612f0d91906142c2565b155b15612f5157826040517f5274afe7000000000000000000000000000000000000000000000000000000008152600401612f48919061338a565b60405180910390fd5b505050565b6060612f6483836000612f6c565b905092915050565b606081471015612fb357306040517fcd786059000000000000000000000000000000000000000000000000000000008152600401612faa919061338a565b60405180910390fd5b6000808573ffffffffffffffffffffffffffffffffffffffff168486604051612fdc919061503c565b60006040518083038185875af1925050503d8060008114613019576040519150601f19603f3d011682016040523d82523d6000602084013e61301e565b606091505b509150915061302e868383613039565b925050509392505050565b60608261304e57613049826130c8565b6130c0565b60008251148015613076575060008473ffffffffffffffffffffffffffffffffffffffff163b145b156130b857836040517f9996b3150000000000000000000000000000000000000000000000000000000081526004016130af919061338a565b60405180910390fd5b8190506130c1565b5b9392505050565b6000815111156130db5780518082602001fd5b6040517f1425ea4200000000000000000000000000000000000000000000000000000000815260040160405180910390fd5b7f4e487b7100000000000000000000000000000000000000000000000000000000600052602160045260246000fd5b6004811061314d5761314c61310d565b5b50565b600081905061315e8261313c565b919050565b600061316e82613150565b9050919050565b61317e81613163565b82525050565b60006020820190506131996000830184613175565b92915050565b6000819050919050565b6131b28161319f565b82525050565b60006020820190506131cd60008301846131a9565b92915050565b6000604051905090565b600080fd5b600080fd5b600073ffffffffffffffffffffffffffffffffffffffff82169050919050565b6000613212826131e7565b9050919050565b61322281613207565b811461322d57600080fd5b50565b60008135905061323f81613219565b92915050565b60006020828403121561325b5761325a6131dd565b5b600061326984828501613230565b91505092915050565b60008115159050919050565b61328781613272565b811461329257600080fd5b50565b6000813590506132a48161327e565b92915050565b600080604083850312156132c1576132c06131dd565b5b60006132cf85828601613230565b92505060206132e085828601613295565b9150509250929050565b600061ffff82169050919050565b613301816132ea565b82525050565b600060208201905061331c60008301846132f8565b92915050565b61332b8161319f565b811461333657600080fd5b50565b60008135905061334881613322565b92915050565b600060208284031215613364576133636131dd565b5b600061337284828501613339565b91505092915050565b61338481613207565b82525050565b600060208201905061339f600083018461337b565b92915050565b6000819050919050565b60006133ca6133c56133c0846131e7565b6133a5565b6131e7565b9050919050565b60006133dc826133af565b9050919050565b60006133ee826133d1565b9050919050565b6133fe816133e3565b82525050565b600060208201905061341960008301846133f5565b92915050565b613428816132ea565b811461343357600080fd5b50565b6000813590506134458161341f565b92915050565b600080fd5b6000601f19601f8301169050919050565b7f4e487b7100000000000000000000000000000000000000000000000000000000600052604160045260246000fd5b61349982613450565b810181811067ffffffffffffffff821117156134b8576134b7613461565b5b80604052505050565b60006134cb6131d3565b90506134d78282613490565b919050565b600067ffffffffffffffff8211156134f7576134f6613461565b5b602082029050602081019050919050565b600080fd5b600061352061351b846134dc565b6134c1565b9050808382526020820190506020840283018581111561354357613542613508565b5b835b8181101561356c57806135588882613436565b845260208401935050602081019050613545565b5050509392505050565b600082601f83011261358b5761358a61344b565b5b813561359b84826020860161350d565b91505092915050565b600080600080600080600080610100898b0312156135c5576135c46131dd565b5b60006135d38b828c01613230565b98505060206135e48b828c01613230565b97505060406135f58b828c01613230565b96505060606136068b828c01613230565b95505060806136178b828c01613339565b94505060a06136288b828c01613436565b93505060c089013567ffffffffffffffff811115613649576136486131e2565b5b6136558b828c01613576565b92505060e06136668b828c01613295565b9150509295985092959890939650565b61367f81613272565b82525050565b600060208201905061369a6000830184613676565b92915050565b600080600080608085870312156136ba576136b96131dd565b5b60006136c887828801613339565b945050602085013567ffffffffffffffff8111156136e9576136e86131e2565b5b6136f587828801613576565b935050604061370687828801613230565b925050606061371787828801613230565b91505092959194509250565b600061372e826133d1565b9050919050565b61373e81613723565b82525050565b60006020820190506137596000830184613735565b92915050565b600080fd5b60008083601f84011261377a5761377961344b565b5b8235905067ffffffffffffffff8111156137975761379661375f565b5b6020830191508360208202830111156137b3576137b2613508565b5b9250929050565b600080602083850312156137d1576137d06131dd565b5b600083013567ffffffffffffffff8111156137ef576137ee6131e2565b5b6137fb85828601613764565b92509250509250929050565b6000806040838503121561381e5761381d6131dd565b5b600061382c85828601613339565b925050602061383d85828601613339565b9150509250929050565b6000613852826133d1565b9050919050565b61386281613847565b82525050565b600060208201905061387d6000830184613859565b92915050565b600061388e826133d1565b9050919050565b61389e81613883565b82525050565b60006020820190506138b96000830184613895565b92915050565b600082825260208201905092915050565b7f4c6f7474657279206973206e6f7420696e20636c61696d20706572696f640000600082015250565b6000613906601e836138bf565b9150613911826138d0565b602082019050919050565b60006020820190508181036000830152613935816138f9565b9050919050565b7f436c61696d20506572696f6420656e6465640000000000000000000000000000600082015250565b60006139726012836138bf565b915061397d8261393c565b602082019050919050565b600060208201905081810360008301526139a181613965565b9050919050565b60006060820190506139bd60008301866131a9565b6139ca602083018561337b565b6139d76040830184613676565b949350505050565b6000815190506139ee81613322565b92915050565b600060208284031215613a0a57613a096131dd565b5b6000613a18848285016139df565b91505092915050565b7f4e6f7468696e6720746f20636c61696d20666f7220746869732077616c6c6574600082015250565b6000613a576020836138bf565b9150613a6282613a21565b602082019050919050565b60006020820190508181036000830152613a8681613a4a565b9050919050565b7f4e487b7100000000000000000000000000000000000000000000000000000000600052601160045260246000fd5b6000613ac78261319f565b9150613ad28361319f565b9250828201905080821115613aea57613ae9613a8d565b5b92915050565b7f4e6f7420656e6f7567682066756e6473206f6e20636f6e747261637400000000600082015250565b6000613b26601c836138bf565b9150613b3182613af0565b602082019050919050565b60006020820190508181036000830152613b5581613b19565b9050919050565b6000613b678261319f565b9150613b728361319f565b9250828203905081811115613b8a57613b89613a8d565b5b92915050565b7f4e487b7100000000000000000000000000000000000000000000000000000000600052603260045260246000fd5b6000604082019050613bd460008301856131a9565b613be1602083018461337b565b9392505050565b600067ffffffffffffffff821115613c0357613c02613461565b5b602082029050602081019050919050565b600080fd5b600080fd5b600081519050613c2d81613219565b92915050565b600a8110613c4057600080fd5b50565b600081519050613c5281613c33565b92915050565b600081519050613c678161327e565b92915050565b600060c08284031215613c8357613c82613c14565b5b613c8d60c06134c1565b90506000613c9d848285016139df565b6000830152506020613cb184828501613c1e565b6020830152506040613cc584828501613c43565b6040830152506060613cd984828501613c58565b6060830152506080613ced84828501613c58565b60808301525060a0613d01848285016139df565b60a08301525092915050565b6000613d20613d1b84613be8565b6134c1565b90508083825260208201905060c08402830185811115613d4357613d42613508565b5b835b81811015613d6c5780613d588882613c6d565b84526020840193505060c081019050613d45565b5050509392505050565b600082601f830112613d8b57613d8a61344b565b5b8151613d9b848260208601613d0d565b91505092915050565b600060208284031215613dba57613db96131dd565b5b600082015167ffffffffffffffff811115613dd857613dd76131e2565b5b613de484828501613d76565b91505092915050565b600067ffffffffffffffff821115613e0857613e07613461565b5b602082029050602081019050919050565b600060c08284031215613e2f57613e2e613c14565b5b613e3960c06134c1565b90506000613e49848285016139df565b6000830152506020613e5d84828501613c1e565b6020830152506040613e71848285016139df565b6040830152506060613e8584828501613c58565b6060830152506080613e9984828501613c58565b60808301525060a0613ead848285016139df565b60a08301525092915050565b6000613ecc613ec784613ded565b6134c1565b90508083825260208201905060c08402830185811115613eef57613eee613508565b5b835b81811015613f185780613f048882613e19565b84526020840193505060c081019050613ef1565b5050509392505050565b600082601f830112613f3757613f3661344b565b5b8151613f47848260208601613eb9565b91505092915050565b600060208284031215613f6657613f656131dd565b5b600082015167ffffffffffffffff811115613f8457613f836131e2565b5b613f9084828501613f22565b91505092915050565b600081519050919050565b600082825260208201905092915050565b6000819050602082019050919050565b613fce8161319f565b82525050565b613fdd81613207565b82525050565b600a8110613ff457613ff361310d565b5b50565b600081905061400582613fe3565b919050565b600061401582613ff7565b9050919050565b6140258161400a565b82525050565b61403481613272565b82525050565b60c0820160008201516140506000850182613fc5565b5060208201516140636020850182613fd4565b506040820151614076604085018261401c565b506060820151614089606085018261402b565b50608082015161409c608085018261402b565b5060a08201516140af60a0850182613fc5565b50505050565b60006140c1838361403a565b60c08301905092915050565b6000602082019050919050565b60006140e582613f99565b6140ef8185613fa4565b93506140fa83613fb5565b8060005b8381101561412b57815161411288826140b5565b975061411d836140cd565b9250506001810190506140fe565b5085935050505092915050565b600081519050919050565b600082825260208201905092915050565b6000819050602082019050919050565b60c08201600082015161417a6000850182613fc5565b50602082015161418d6020850182613fd4565b5060408201516141a06040850182613fc5565b5060608201516141b3606085018261402b565b5060808201516141c6608085018261402b565b5060a08201516141d960a0850182613fc5565b50505050565b60006141eb8383614164565b60c08301905092915050565b6000602082019050919050565b600061420f82614138565b6142198185614143565b935061422483614154565b8060005b8381101561425557815161423c88826141df565b9750614247836141f7565b925050600181019050614228565b5085935050505092915050565b6000604082019050818103600083015261427c81856140da565b905081810360208301526142908184614204565b90509392505050565b60006040820190506142ae600083018561337b565b6142bb60208301846131a9565b9392505050565b6000602082840312156142d8576142d76131dd565b5b60006142e684828501613c58565b91505092915050565b7f57616c6c657420616c7265616479206164646564000000000000000000000000600082015250565b60006143256014836138bf565b9150614330826142ef565b602082019050919050565b6000602082019050818103600083015261435481614318565b9050919050565b7f4e487b7100000000000000000000000000000000000000000000000000000000600052603160045260246000fd5b60006143958261319f565b91507fffffffffffffffffffffffffffffffffffffffffffffffffffffffffffffffff82036143c7576143c6613a8d565b5b600182019050919050565b6000602082840312156143e8576143e76131dd565b5b60006143f684828501613c1e565b91505092915050565b7f50726576696f757320726f756e64206e6f7420656e6465640000000000000000600082015250565b60006144356018836138bf565b9150614440826143ff565b602082019050919050565b6000602082019050818103600083015261446481614428565b9050919050565b7f4c6f74746572794d617374657256302e31000000000000000000000000000000600082015250565b60006144a16011836138bf565b91506144ac8261446b565b602082019050919050565b60006040820190506144cc600083018461337b565b81810360208301526144dd81614494565b905092915050565b600060ff82169050919050565b6144fb816144e5565b811461450657600080fd5b50565b600081519050614518816144f2565b92915050565b600060208284031215614534576145336131dd565b5b600061454284828501614509565b91505092915050565b60008160011c9050919050565b6000808291508390505b60018511156145a25780860481111561457e5761457d613a8d565b5b600185161561458d5780820291505b808102905061459b8561454b565b9450614562565b94509492505050565b6000826145bb5760019050614677565b816145c95760009050614677565b81600181146145df57600281146145e957614618565b6001915050614677565b60ff8411156145fb576145fa613a8d565b5b8360020a91508482111561461257614611613a8d565b5b50614677565b5060208310610133831016604e8410600b841016171561464d5782820a90508381111561464857614647613a8d565b5b614677565b61465a8484846001614558565b9250905081840481111561467157614670613a8d565b5b81810290505b9392505050565b60006146898261319f565b91506146948361319f565b92506146c17fffffffffffffffffffffffffffffffffffffffffffffffffffffffffffffffff84846145ab565b905092915050565b60006146d48261319f565b91506146df8361319f565b92508282026146ed8161319f565b9150828204841483151761470457614703613a8d565b5b5092915050565b600081519050919050565b600082825260208201905092915050565b6000819050602082019050919050565b614740816132ea565b82525050565b60006147528383614737565b60208301905092915050565b6000602082019050919050565b60006147768261470b565b6147808185614716565b935061478b83614727565b8060005b838110156147bc5781516147a38882614746565b97506147ae8361475e565b92505060018101905061478f565b5085935050505092915050565b600060208201905081810360008301526147e3818461476b565b905092915050565b6000815190506147fa8161341f565b92915050565b600060208284031215614816576148156131dd565b5b6000614824848285016147eb565b91505092915050565b6000614838826132ea565b9150614843836132ea565b9250828201905061ffff81111561485d5761485c613a8d565b5b92915050565b600063ffffffff82169050919050565b600061488e614889614884846132ea565b6133a5565b614863565b9050919050565b61489e81614873565b82525050565b60006020820190506148b96000830184614895565b92915050565b60006148ca826132ea565b915061ffff82036148de576148dd613a8d565b5b600182019050919050565b600067ffffffffffffffff82111561490457614903613461565b5b602082029050602081019050919050565b6000614928614923846148e9565b6134c1565b9050808382526020820190506020840283018581111561494b5761494a613508565b5b835b81811015614974578061496088826139df565b84526020840193505060208101905061494d565b5050509392505050565b600082601f8301126149935761499261344b565b5b81516149a3848260208601614915565b91505092915050565b600080604083850312156149c3576149c26131dd565b5b60006149d185828601613c58565b925050602083015167ffffffffffffffff8111156149f2576149f16131e2565b5b6149fe8582860161497e565b9150509250929050565b7f52616e646f6d206e756d62657273206e6f742072656164790000000000000000600082015250565b6000614a3e6018836138bf565b9150614a4982614a08565b602082019050919050565b60006020820190508181036000830152614a6d81614a31565b9050919050565b6000819050919050565b6000614a99614a94614a8f84614a74565b6133a5565b6132ea565b9050919050565b614aa981614a7e565b82525050565b6000606082019050614ac460008301866131a9565b614ad16020830185614aa0565b8181036040830152614ae3818461476b565b9050949350505050565b7f4e487b7100000000000000000000000000000000000000000000000000000000600052601260045260246000fd5b6000614b278261319f565b9150614b328361319f565b925082614b4257614b41614aed565b5b828206905092915050565b6000614b60614b5b846134dc565b6134c1565b90508083825260208201905060208402830185811115614b8357614b82613508565b5b835b81811015614bac5780614b9888826147eb565b845260208401935050602081019050614b85565b5050509392505050565b600082601f830112614bcb57614bca61344b565b5b8151614bdb848260208601614b4d565b91505092915050565b60006101608284031215614bfb57614bfa613c14565b5b614c066101606134c1565b90506000614c16848285016139df565b6000830152506020614c2a848285016139df565b6020830152506040614c3e848285016139df565b6040830152506060614c5284828501613c58565b606083015250608082015167ffffffffffffffff811115614c7657614c75613c19565b5b614c8284828501614bb6565b60808301525060a082015167ffffffffffffffff811115614ca657614ca5613c19565b5b614cb28482850161497e565b60a08301525060c0614cc6848285016147eb565b60c08301525060e082015167ffffffffffffffff811115614cea57614ce9613c19565b5b614cf68482850161497e565b60e083015250610100614d0b848285016147eb565b6101008301525061012082015167ffffffffffffffff811115614d3157614d30613c19565b5b614d3d8482850161497e565b61012083015250610140614d53848285016147eb565b6101408301525092915050565b600060208284031215614d7657614d756131dd565b5b600082015167ffffffffffffffff811115614d9457614d936131e2565b5b614da084828501614be4565b91505092915050565b6000606082019050614dbe60008301866131a9565b614dcb60208301856132f8565b8181036040830152614ddd818461476b565b9050949350505050565b60006040820190508181036000830152614e01818561476b565b90508181036020830152614e15818461476b565b90509392505050565b6000604082019050614e33600083018561337b565b614e40602083018461337b565b9392505050565b7f4d697373696e6720416c6c6f77616e6365000000000000000000000000000000600082015250565b6000614e7d6011836138bf565b9150614e8882614e47565b602082019050919050565b60006020820190508181036000830152614eac81614e70565b9050919050565b6000614ebe826132ea565b915060008203614ed157614ed0613a8d565b5b600182039050919050565b7f496e73756666696369656e742066756e64730000000000000000000000000000600082015250565b6000614f126012836138bf565b9150614f1d82614edc565b602082019050919050565b60006020820190508181036000830152614f4181614f05565b9050919050565b6000608082019050614f5d60008301876131a9565b8181036020830152614f6f818661476b565b9050614f7e604083018561337b565b614f8b606083018461337b565b95945050505050565b6000606082019050614fa9600083018661337b565b614fb6602083018561337b565b614fc360408301846131a9565b949350505050565b600081519050919050565b600081905092915050565b60005b83811015614fff578082015181840152602081019050614fe4565b60008484015250505050565b600061501682614fcb565b6150208185614fd6565b9350615030818560208601614fe1565b80840191505092915050565b6000615048828461500b565b91508190509291505056fea2646970667358221220d646d9d12b4d1c8f1ce009d66937117da08cdcbdc15cad6bb080a49e8cd573fc64736f6c63430008180033",
  "devdoc": {
    "errors": {
      "AddressEmptyCode(address)": [
        {
          "details": "There's no code at `target` (it is not a contract)."
        }
      ],
      "AddressInsufficientBalance(address)": [
        {
          "details": "The ETH balance of the account is not enough to perform the operation."
        }
      ],
      "FailedInnerCall()": [
        {
          "details": "A call to an address target failed. The target may have reverted."
        }
      ],
      "OwnableInvalidOwner(address)": [
        {
          "details": "The owner is not a valid owner account. (eg. `address(0)`)"
        }
      ],
      "OwnableUnauthorizedAccount(address)": [
        {
          "details": "The caller account is not authorized to perform an operation."
        }
      ],
      "SafeERC20FailedOperation(address)": [
        {
          "details": "An operation with an ERC20 token failed."
        }
      ]
    },
    "kind": "dev",
    "methods": {
      "owner()": {
        "details": "Returns the address of the current owner."
      },
      "renounceOwnership()": {
        "details": "Leaves the contract without owner. It will not be possible to call `onlyOwner` functions. Can only be called by the current owner. NOTE: Renouncing ownership will leave the contract without an owner, thereby disabling any functionality that is only available to the owner."
      },
      "transferOwnership(address)": {
        "details": "Transfers ownership of the contract to a new account (`newOwner`). Can only be called by the current owner."
      }
    },
    "version": 1
  },
  "userdoc": {
    "kind": "user",
    "methods": {},
    "version": 1
  },
  "storageLayout": {
    "storage": [
      {
        "astId": 8,
        "contract": "contracts/LotteryMaster.sol:LotteryMaster",
        "label": "_owner",
        "offset": 0,
        "slot": "0",
        "type": "t_address"
      },
      {
        "astId": 4927,
        "contract": "contracts/LotteryMaster.sol:LotteryMaster",
        "label": "teamAddress",
        "offset": 0,
        "slot": "1",
        "type": "t_address"
      },
      {
        "astId": 1025,
        "contract": "contracts/LotteryMaster.sol:LotteryMaster",
        "label": "roundCount",
        "offset": 0,
        "slot": "2",
        "type": "t_uint256"
      },
      {
        "astId": 1028,
        "contract": "contracts/LotteryMaster.sol:LotteryMaster",
        "label": "rounds",
        "offset": 0,
        "slot": "3",
        "type": "t_array(t_address)dyn_storage"
      },
      {
        "astId": 1031,
        "contract": "contracts/LotteryMaster.sol:LotteryMaster",
        "label": "lotteryStatus",
        "offset": 0,
        "slot": "4",
        "type": "t_enum(LotteryStatuses)1021"
      },
      {
        "astId": 1033,
        "contract": "contracts/LotteryMaster.sol:LotteryMaster",
        "label": "statusStartTime",
        "offset": 0,
        "slot": "5",
        "type": "t_uint256"
      },
      {
        "astId": 1035,
        "contract": "contracts/LotteryMaster.sol:LotteryMaster",
        "label": "statusEndTime",
        "offset": 0,
        "slot": "6",
        "type": "t_uint256"
      },
      {
        "astId": 1039,
        "contract": "contracts/LotteryMaster.sol:LotteryMaster",
        "label": "freeRounds",
        "offset": 0,
        "slot": "7",
        "type": "t_mapping(t_address,t_uint16)"
      },
      {
        "astId": 1043,
        "contract": "contracts/LotteryMaster.sol:LotteryMaster",
        "label": "crossChainOperator",
        "offset": 0,
        "slot": "8",
        "type": "t_mapping(t_address,t_bool)"
      },
      {
        "astId": 1061,
        "contract": "contracts/LotteryMaster.sol:LotteryMaster",
        "label": "counterForBankWallets",
        "offset": 0,
        "slot": "9",
        "type": "t_uint16"
      },
      {
        "astId": 1064,
        "contract": "contracts/LotteryMaster.sol:LotteryMaster",
        "label": "bankWallets",
        "offset": 0,
        "slot": "10",
        "type": "t_array(t_address)dyn_storage"
      },
      {
        "astId": 1131,
        "contract": "contracts/LotteryMaster.sol:LotteryMaster",
        "label": "paymentToken",
        "offset": 0,
        "slot": "11",
        "type": "t_contract(IERC20Metadata)251"
      },
      {
        "astId": 1134,
        "contract": "contracts/LotteryMaster.sol:LotteryMaster",
        "label": "randomizer",
        "offset": 0,
        "slot": "12",
        "type": "t_contract(CyclixRandomizerInterface)901"
      },
      {
        "astId": 1137,
        "contract": "contracts/LotteryMaster.sol:LotteryMaster",
        "label": "reader",
        "offset": 0,
        "slot": "13",
        "type": "t_contract(LotteryReaderInterface)3848"
      },
      {
        "astId": 1139,
        "contract": "contracts/LotteryMaster.sol:LotteryMaster",
        "label": "ticketPrice",
        "offset": 0,
        "slot": "14",
        "type": "t_uint256"
      },
      {
        "astId": 1142,
        "contract": "contracts/LotteryMaster.sol:LotteryMaster",
        "label": "freeRoundsAreEnabled",
        "offset": 0,
        "slot": "15",
        "type": "t_bool"
      },
      {
        "astId": 1145,
        "contract": "contracts/LotteryMaster.sol:LotteryMaster",
        "label": "percentageOfReferralWinners",
        "offset": 1,
        "slot": "15",
        "type": "t_uint16"
      },
      {
        "astId": 1148,
        "contract": "contracts/LotteryMaster.sol:LotteryMaster",
        "label": "lotteryRoundCreator",
        "offset": 3,
        "slot": "15",
        "type": "t_contract(LotteryRoundCreatorInterface)4804"
      },
      {
        "astId": 1652,
        "contract": "contracts/LotteryMaster.sol:LotteryMaster",
        "label": "publicRoundRandomNumbersRequestId",
        "offset": 0,
        "slot": "16",
        "type": "t_mapping(t_uint256,t_uint256)"
      }
    ],
    "types": {
      "t_address": {
        "encoding": "inplace",
        "label": "address",
        "numberOfBytes": "20"
      },
      "t_array(t_address)dyn_storage": {
        "base": "t_address",
        "encoding": "dynamic_array",
        "label": "address[]",
        "numberOfBytes": "32"
      },
      "t_bool": {
        "encoding": "inplace",
        "label": "bool",
        "numberOfBytes": "1"
      },
      "t_contract(CyclixRandomizerInterface)901": {
        "encoding": "inplace",
        "label": "contract CyclixRandomizerInterface",
        "numberOfBytes": "20"
      },
      "t_contract(IERC20Metadata)251": {
        "encoding": "inplace",
        "label": "contract IERC20Metadata",
        "numberOfBytes": "20"
      },
      "t_contract(LotteryReaderInterface)3848": {
        "encoding": "inplace",
        "label": "contract LotteryReaderInterface",
        "numberOfBytes": "20"
      },
      "t_contract(LotteryRoundCreatorInterface)4804": {
        "encoding": "inplace",
        "label": "contract LotteryRoundCreatorInterface",
        "numberOfBytes": "20"
      },
      "t_enum(LotteryStatuses)1021": {
        "encoding": "inplace",
        "label": "enum LotteryStatuses",
        "numberOfBytes": "1"
      },
      "t_mapping(t_address,t_bool)": {
        "encoding": "mapping",
        "key": "t_address",
        "label": "mapping(address => bool)",
        "numberOfBytes": "32",
        "value": "t_bool"
      },
      "t_mapping(t_address,t_uint16)": {
        "encoding": "mapping",
        "key": "t_address",
        "label": "mapping(address => uint16)",
        "numberOfBytes": "32",
        "value": "t_uint16"
      },
      "t_mapping(t_uint256,t_uint256)": {
        "encoding": "mapping",
        "key": "t_uint256",
        "label": "mapping(uint256 => uint256)",
        "numberOfBytes": "32",
        "value": "t_uint256"
      },
      "t_uint16": {
        "encoding": "inplace",
        "label": "uint16",
        "numberOfBytes": "2"
      },
      "t_uint256": {
        "encoding": "inplace",
        "label": "uint256",
        "numberOfBytes": "32"
      }
    }
  }
}