{
  "address": "0x0BBe4331E7A9C571740b980bD156067A1c0E79fe",
  "abi": [
    {
      "inputs": [
        {
          "internalType": "address",
          "name": "cyclixRandomizer",
          "type": "address"
        },
        {
          "internalType": "address",
          "name": "lotteryReader",
          "type": "address"
        },
        {
          "internalType": "address",
          "name": "_lotteryRoundCreator",
          "type": "address"
        },
        {
          "internalType": "address",
          "name": "_paymentToken",
          "type": "address"
        },
        {
          "internalType": "uint256",
          "name": "_ticketPrice",
          "type": "uint256"
        },
        {
          "internalType": "bool",
          "name": "_freeRoundsAreEnabled",
          "type": "bool"
        }
      ],
      "stateMutability": "nonpayable",
      "type": "constructor"
    },
    {
      "inputs": [
        {
          "internalType": "address",
          "name": "target",
          "type": "address"
        }
      ],
      "name": "AddressEmptyCode",
      "type": "error"
    },
    {
      "inputs": [
        {
          "internalType": "address",
          "name": "account",
          "type": "address"
        }
      ],
      "name": "AddressInsufficientBalance",
      "type": "error"
    },
    {
      "inputs": [],
      "name": "FailedInnerCall",
      "type": "error"
    },
    {
      "inputs": [
        {
          "internalType": "address",
          "name": "owner",
          "type": "address"
        }
      ],
      "name": "OwnableInvalidOwner",
      "type": "error"
    },
    {
      "inputs": [
        {
          "internalType": "address",
          "name": "account",
          "type": "address"
        }
      ],
      "name": "OwnableUnauthorizedAccount",
      "type": "error"
    },
    {
      "inputs": [
        {
          "internalType": "address",
          "name": "token",
          "type": "address"
        }
      ],
      "name": "SafeERC20FailedOperation",
      "type": "error"
    },
    {
      "anonymous": false,
      "inputs": [
        {
          "indexed": true,
          "internalType": "address",
          "name": "previousOwner",
          "type": "address"
        },
        {
          "indexed": true,
          "internalType": "address",
          "name": "newOwner",
          "type": "address"
        }
      ],
      "name": "OwnershipTransferred",
      "type": "event"
    },
    {
      "inputs": [
        {
          "internalType": "address[]",
          "name": "participant",
          "type": "address[]"
        }
      ],
      "name": "addFreeRound",
      "outputs": [],
      "stateMutability": "nonpayable",
      "type": "function"
    },
    {
      "inputs": [
        {
          "internalType": "uint256",
          "name": "",
          "type": "uint256"
        }
      ],
      "name": "bankWallets",
      "outputs": [
        {
          "internalType": "address",
          "name": "",
          "type": "address"
        }
      ],
      "stateMutability": "view",
      "type": "function"
    },
    {
      "inputs": [
        {
          "internalType": "uint256",
          "name": "chainId",
          "type": "uint256"
        },
        {
          "internalType": "uint16[]",
          "name": "moreTicketNumbers",
          "type": "uint16[]"
        },
        {
          "internalType": "address",
          "name": "referral",
          "type": "address"
        },
        {
          "internalType": "address",
          "name": "buyer",
          "type": "address"
        }
      ],
      "name": "buyTickets",
      "outputs": [],
      "stateMutability": "nonpayable",
      "type": "function"
    },
    {
      "inputs": [],
      "name": "claimVictory",
      "outputs": [],
      "stateMutability": "nonpayable",
      "type": "function"
    },
    {
      "inputs": [
        {
          "internalType": "uint256",
          "name": "_statusEndTime",
          "type": "uint256"
        }
      ],
      "name": "closeRound",
      "outputs": [],
      "stateMutability": "nonpayable",
      "type": "function"
    },
    {
      "inputs": [],
      "name": "counterForBankWallets",
      "outputs": [
        {
          "internalType": "uint16",
          "name": "",
          "type": "uint16"
        }
      ],
      "stateMutability": "view",
      "type": "function"
    },
    {
      "inputs": [
        {
          "internalType": "address",
          "name": "",
          "type": "address"
        }
      ],
      "name": "crossChainOperator",
      "outputs": [
        {
          "internalType": "bool",
          "name": "",
          "type": "bool"
        }
      ],
      "stateMutability": "view",
      "type": "function"
    },
    {
      "inputs": [
        {
          "internalType": "uint256",
          "name": "roundId",
          "type": "uint256"
        },
        {
          "internalType": "uint256",
          "name": "_statusEndTime",
          "type": "uint256"
        }
      ],
      "name": "fetchRoundNumbers",
      "outputs": [],
      "stateMutability": "nonpayable",
      "type": "function"
    },
    {
      "inputs": [
        {
          "internalType": "uint256",
          "name": "",
          "type": "uint256"
        },
        {
          "internalType": "address",
          "name": "",
          "type": "address"
        }
      ],
      "name": "freeRounds",
      "outputs": [
        {
          "internalType": "uint256",
          "name": "",
          "type": "uint256"
        }
      ],
      "stateMutability": "view",
      "type": "function"
    },
    {
      "inputs": [],
      "name": "freeRoundsAreEnabled",
      "outputs": [
        {
          "internalType": "bool",
          "name": "",
          "type": "bool"
        }
      ],
      "stateMutability": "view",
      "type": "function"
    },
    {
      "inputs": [],
      "name": "lotteryRoundCreator",
      "outputs": [
        {
          "internalType": "contract LotteryRoundCreatorInterface",
          "name": "",
          "type": "address"
        }
      ],
      "stateMutability": "view",
      "type": "function"
    },
    {
      "inputs": [],
      "name": "lotteryStatus",
      "outputs": [
        {
          "internalType": "enum LotteryStatuses",
          "name": "",
          "type": "uint8"
        }
      ],
      "stateMutability": "view",
      "type": "function"
    },
    {
      "inputs": [
        {
          "internalType": "uint256",
          "name": "roundId",
          "type": "uint256"
        },
        {
          "internalType": "uint256",
          "name": "_statusEndTime",
          "type": "uint256"
        }
      ],
      "name": "markWinners",
      "outputs": [],
      "stateMutability": "nonpayable",
      "type": "function"
    },
    {
      "inputs": [],
      "name": "owner",
      "outputs": [
        {
          "internalType": "address",
          "name": "",
          "type": "address"
        }
      ],
      "stateMutability": "view",
      "type": "function"
    },
    {
      "inputs": [],
      "name": "paymentToken",
      "outputs": [
        {
          "internalType": "contract IERC20Metadata",
          "name": "",
          "type": "address"
        }
      ],
      "stateMutability": "view",
      "type": "function"
    },
    {
      "inputs": [],
      "name": "percentageOfReferralWinners",
      "outputs": [
        {
          "internalType": "uint16",
          "name": "",
          "type": "uint16"
        }
      ],
      "stateMutability": "view",
      "type": "function"
    },
    {
      "inputs": [
        {
          "internalType": "uint256",
          "name": "",
          "type": "uint256"
        }
      ],
      "name": "publicRoundRandomNumbersRequestId",
      "outputs": [
        {
          "internalType": "uint256",
          "name": "",
          "type": "uint256"
        }
      ],
      "stateMutability": "view",
      "type": "function"
    },
    {
      "inputs": [],
      "name": "randomizer",
      "outputs": [
        {
          "internalType": "contract CyclixRandomizerInterface",
          "name": "",
          "type": "address"
        }
      ],
      "stateMutability": "view",
      "type": "function"
    },
    {
      "inputs": [],
      "name": "reader",
      "outputs": [
        {
          "internalType": "contract LotteryReaderInterface",
          "name": "",
          "type": "address"
        }
      ],
      "stateMutability": "view",
      "type": "function"
    },
    {
      "inputs": [],
      "name": "renounceOwnership",
      "outputs": [],
      "stateMutability": "nonpayable",
      "type": "function"
    },
    {
      "inputs": [],
      "name": "roundCount",
      "outputs": [
        {
          "internalType": "uint256",
          "name": "",
          "type": "uint256"
        }
      ],
      "stateMutability": "view",
      "type": "function"
    },
    {
      "inputs": [
        {
          "internalType": "uint256",
          "name": "",
          "type": "uint256"
        }
      ],
      "name": "rounds",
      "outputs": [
        {
          "internalType": "address",
          "name": "",
          "type": "address"
        }
      ],
      "stateMutability": "view",
      "type": "function"
    },
    {
      "inputs": [],
      "name": "sendCryptoToTeam",
      "outputs": [],
      "stateMutability": "nonpayable",
      "type": "function"
    },
    {
      "inputs": [
        {
          "internalType": "address",
          "name": "_token",
          "type": "address"
        }
      ],
      "name": "sendTokenToTeam",
      "outputs": [],
      "stateMutability": "nonpayable",
      "type": "function"
    },
    {
      "inputs": [
        {
          "internalType": "address",
          "name": "wallet",
          "type": "address"
        },
        {
          "internalType": "bool",
          "name": "add",
          "type": "bool"
        }
      ],
      "name": "setBankWallet",
      "outputs": [],
      "stateMutability": "nonpayable",
      "type": "function"
    },
    {
      "inputs": [
        {
          "internalType": "address",
          "name": "operator",
          "type": "address"
        },
        {
          "internalType": "bool",
          "name": "value",
          "type": "bool"
        }
      ],
      "name": "setCrossChainOperator",
      "outputs": [],
      "stateMutability": "nonpayable",
      "type": "function"
    },
    {
      "inputs": [
        {
          "internalType": "uint256",
          "name": "_statusEndTime",
          "type": "uint256"
        }
      ],
      "name": "startNewRound",
      "outputs": [],
      "stateMutability": "nonpayable",
      "type": "function"
    },
    {
      "inputs": [
        {
          "internalType": "uint256",
          "name": "_statusEndTime",
          "type": "uint256"
        },
        {
          "internalType": "address",
          "name": "previousRound",
          "type": "address"
        },
        {
          "internalType": "uint256",
          "name": "forcedUiIdForUpgrade",
          "type": "uint256"
        }
      ],
      "name": "startNewRoundForUpgrade",
      "outputs": [],
      "stateMutability": "nonpayable",
      "type": "function"
    },
    {
      "inputs": [],
      "name": "statusEndTime",
      "outputs": [
        {
          "internalType": "uint256",
          "name": "",
          "type": "uint256"
        }
      ],
      "stateMutability": "view",
      "type": "function"
    },
    {
      "inputs": [],
      "name": "statusStartTime",
      "outputs": [
        {
          "internalType": "uint256",
          "name": "",
          "type": "uint256"
        }
      ],
      "stateMutability": "view",
      "type": "function"
    },
    {
      "inputs": [],
      "name": "ticketPrice",
      "outputs": [
        {
          "internalType": "uint256",
          "name": "",
          "type": "uint256"
        }
      ],
      "stateMutability": "view",
      "type": "function"
    },
    {
      "inputs": [
        {
          "internalType": "address",
          "name": "newOwner",
          "type": "address"
        }
      ],
      "name": "transferOwnership",
      "outputs": [],
      "stateMutability": "nonpayable",
      "type": "function"
    },
    {
      "inputs": [
        {
          "internalType": "address",
          "name": "cyclixRandomizer",
          "type": "address"
        },
        {
          "internalType": "address",
          "name": "lotteryReader",
          "type": "address"
        },
        {
          "internalType": "address",
          "name": "_lotteryRoundCreator",
          "type": "address"
        },
        {
          "internalType": "address",
          "name": "_paymentToken",
          "type": "address"
        },
        {
          "internalType": "uint256",
          "name": "_ticketPrice",
          "type": "uint256"
        },
        {
          "internalType": "uint16",
          "name": "_percentageOfReferralWinners",
          "type": "uint16"
        },
        {
          "internalType": "uint16[]",
          "name": "_poolPercentagesBasePoints",
          "type": "uint16[]"
        },
        {
          "internalType": "bool",
          "name": "_freeRoundsAreEnabled",
          "type": "bool"
        }
      ],
      "name": "updateSetup",
      "outputs": [],
      "stateMutability": "nonpayable",
      "type": "function"
    },
    {
      "inputs": [
        {
          "internalType": "address",
          "name": "_teamAddress",
          "type": "address"
        }
      ],
      "name": "updateTeamAddress",
      "outputs": [],
      "stateMutability": "nonpayable",
      "type": "function"
    }
  ],
  "transactionHash": "0x948bd13739631b4bff3e8061024d2b6071ef6ff273f43f57b34ebb99633b571d",
  "args": [
    "0xd181575841960692F865D20a84ee6327b4E1622d",
    "0x79fAd75c48aCEba9425bf8805f25B53Fe7B79115",
    "0x791EF03cf297ef279D8378239E8F5e7524991314",
    "0x6462597d39626Bd72353766614f270Af4977B8f2",
    10,
    true
  ],
  "numDeployments": 1,
  "solcInputHash": "74ff73921509fd04430a2290aba2d506",
  "bytecode": "0x60806040526000600f60006101000a81548160ff021916908315150217905550600a600f60016101000a81548161ffff021916908361ffff1602179055503480156200004a57600080fd5b5060405162005bbf38038062005bbf8339818101604052810190620000709190620005b7565b3380600073ffffffffffffffffffffffffffffffffffffffff168173ffffffffffffffffffffffffffffffffffffffff1603620000e75760006040517f1e4fbdf7000000000000000000000000000000000000000000000000000000008152600401620000de919062000664565b60405180910390fd5b620000f8816200041160201b60201c565b5080600160006101000a81548173ffffffffffffffffffffffffffffffffffffffff021916908373ffffffffffffffffffffffffffffffffffffffff1602179055505085600c60006101000a81548173ffffffffffffffffffffffffffffffffffffffff021916908373ffffffffffffffffffffffffffffffffffffffff160217905550600c60009054906101000a900473ffffffffffffffffffffffffffffffffffffffff1673ffffffffffffffffffffffffffffffffffffffff1663cd0f2311306040518263ffffffff1660e01b8152600401620001d99190620006e2565b600060405180830381600087803b158015620001f457600080fd5b505af115801562000209573d6000803e3d6000fd5b5050505084600d60006101000a81548173ffffffffffffffffffffffffffffffffffffffff021916908373ffffffffffffffffffffffffffffffffffffffff16021790555083600f60036101000a81548173ffffffffffffffffffffffffffffffffffffffff021916908373ffffffffffffffffffffffffffffffffffffffff16021790555082600b60006101000a81548173ffffffffffffffffffffffffffffffffffffffff021916908373ffffffffffffffffffffffffffffffffffffffff160217905550600b60009054906101000a900473ffffffffffffffffffffffffffffffffffffffff1673ffffffffffffffffffffffffffffffffffffffff1663313ce5676040518163ffffffff1660e01b8152600401602060405180830381865afa1580156200033e573d6000803e3d6000fd5b505050506040513d601f19601f8201168201806040525081019062000364919062000752565b60ff16600a62000375919062000907565b8262000382919062000958565b600e8190555080600f60006101000a81548160ff021916908315150217905550600a339080600181540180825580915050600190039060005260206000200160009091909190916101000a81548173ffffffffffffffffffffffffffffffffffffffff021916908373ffffffffffffffffffffffffffffffffffffffff160217905550505050505050620009a3565b60008060009054906101000a900473ffffffffffffffffffffffffffffffffffffffff169050816000806101000a81548173ffffffffffffffffffffffffffffffffffffffff021916908373ffffffffffffffffffffffffffffffffffffffff1602179055508173ffffffffffffffffffffffffffffffffffffffff168173ffffffffffffffffffffffffffffffffffffffff167f8be0079c531659141344cd1fd0a4f28419497f9722a3daafe3b4186f6b6457e060405160405180910390a35050565b600080fd5b600073ffffffffffffffffffffffffffffffffffffffff82169050919050565b60006200050782620004da565b9050919050565b6200051981620004fa565b81146200052557600080fd5b50565b60008151905062000539816200050e565b92915050565b6000819050919050565b62000554816200053f565b81146200056057600080fd5b50565b600081519050620005748162000549565b92915050565b60008115159050919050565b62000591816200057a565b81146200059d57600080fd5b50565b600081519050620005b18162000586565b92915050565b60008060008060008060c08789031215620005d757620005d6620004d5565b5b6000620005e789828a0162000528565b9650506020620005fa89828a0162000528565b95505060406200060d89828a0162000528565b94505060606200062089828a0162000528565b93505060806200063389828a0162000563565b92505060a06200064689828a01620005a0565b9150509295509295509295565b6200065e81620004fa565b82525050565b60006020820190506200067b600083018462000653565b92915050565b600082825260208201905092915050565b7f4c6f74746572794d617374657256302e31000000000000000000000000000000600082015250565b6000620006ca60118362000681565b9150620006d78262000692565b602082019050919050565b6000604082019050620006f9600083018462000653565b81810360208301526200070c81620006bb565b905092915050565b600060ff82169050919050565b6200072c8162000714565b81146200073857600080fd5b50565b6000815190506200074c8162000721565b92915050565b6000602082840312156200076b576200076a620004d5565b5b60006200077b848285016200073b565b91505092915050565b7f4e487b7100000000000000000000000000000000000000000000000000000000600052601160045260246000fd5b60008160011c9050919050565b6000808291508390505b60018511156200081257808604811115620007ea57620007e962000784565b5b6001851615620007fa5780820291505b80810290506200080a85620007b3565b9450620007ca565b94509492505050565b6000826200082d576001905062000900565b816200083d576000905062000900565b8160018114620008565760028114620008615762000897565b600191505062000900565b60ff84111562000876576200087562000784565b5b8360020a91508482111562000890576200088f62000784565b5b5062000900565b5060208310610133831016604e8410600b8410161715620008d15782820a905083811115620008cb57620008ca62000784565b5b62000900565b620008e08484846001620007c0565b92509050818404811115620008fa57620008f962000784565b5b81810290505b9392505050565b600062000914826200053f565b915062000921836200053f565b9250620009507fffffffffffffffffffffffffffffffffffffffffffffffffffffffffffffffff84846200081b565b905092915050565b600062000965826200053f565b915062000972836200053f565b925082820262000982816200053f565b915082820484148315176200099c576200099b62000784565b5b5092915050565b61520c80620009b36000396000f3fe608060405234801561001057600080fd5b50600436106102065760003560e01c806387da46f11161011a578063b62fe01b116100ad578063d4fc42c61161007c578063d4fc42c614610577578063e03d753a14610595578063f10fb584146105b3578063f2fde38b146105d1578063f4dec22b146105ed57610206565b8063b62fe01b14610505578063bbd1783a14610521578063c96acb5a1461052b578063cedd1bc31461054757610206565b806392566fdd116100e957806392566fdd14610493578063998da3e9146104b1578063a8eed12d146104cd578063b33d8c54146104e957610206565b806387da46f11461040b57806388e01a98146104295780638c65c81f146104455780638da5cb5b1461047557610206565b80633013ce291161019d57806362cd30d11161016c57806362cd30d11461037d578063715018a61461039957806375e5460d146103a35780637a5ed721146103d3578063839163ae146103ef57610206565b80633013ce29146102f55780633fda7d95146103135780634615102c1461033157806347be7bf61461034d57610206565b80631abddf33116101d95780631abddf33146102815780631ed15aa41461028b57806322429429146102a7578063258799f8146102c557610206565b80630d683dd91461020b5780631209b1f614610229578063127f0b3f1461024757806314eb76ac14610265575b600080fd5b61021361060b565b6040516102209190613200565b60405180910390f35b61023161061e565b60405161023e9190613234565b60405180910390f35b61024f610624565b60405161025c9190613234565b60405180910390f35b61027f600480360381019061027a91906132c1565b61062a565b005b610289610676565b005b6102a560048036038101906102a09190613326565b610c65565b005b6102af610eab565b6040516102bc9190613234565b60405180910390f35b6102df60048036038101906102da9190613392565b610eb1565b6040516102ec91906133ce565b60405180910390f35b6102fd610ef0565b60405161030a9190613448565b60405180910390f35b61031b610f16565b6040516103289190613234565b60405180910390f35b61034b60048036038101906103469190613392565b610f1c565b005b61036760048036038101906103629190613463565b610f9c565b6040516103749190613234565b60405180910390f35b61039760048036038101906103929190613636565b610fc1565b005b6103a1611359565b005b6103bd60048036038101906103b891906132c1565b61136d565b6040516103ca9190613717565b60405180910390f35b6103ed60048036038101906103e89190613732565b61138d565b005b610409600480360381019061040491906137b5565b61165c565b005b610413611854565b6040516104209190613829565b60405180910390f35b610443600480360381019061043e9190613392565b61187a565b005b61045f600480360381019061045a9190613392565b611aa8565b60405161046c91906133ce565b60405180910390f35b61047d611ae7565b60405161048a91906133ce565b60405180910390f35b61049b611b10565b6040516104a89190613853565b60405180910390f35b6104cb60048036038101906104c691906132c1565b611b24565b005b6104e760048036038101906104e29190613326565b611be5565b005b61050360048036038101906104fe91906138c9565b611c48565b005b61051f600480360381019061051a9190613916565b611cff565b005b6105296122c2565b005b61054560048036038101906105409190613916565b61233f565b005b610561600480360381019061055c9190613392565b61254d565b60405161056e9190613234565b60405180910390f35b61057f612565565b60405161058c9190613977565b60405180910390f35b61059d61258b565b6040516105aa9190613717565b60405180910390f35b6105bb61259e565b6040516105c891906139b3565b60405180910390f35b6105eb60048036038101906105e691906132c1565b6125c4565b005b6105f561264a565b6040516106029190613853565b60405180910390f35b600460009054906101000a900460ff1681565b600e5481565b60025481565b61063261265e565b80600160006101000a81548173ffffffffffffffffffffffffffffffffffffffff021916908373ffffffffffffffffffffffffffffffffffffffff16021790555050565b60038081111561068957610688613189565b5b600460009054906101000a900460ff1660038111156106ab576106aa613189565b5b146106eb576040517f08c379a00000000000000000000000000000000000000000000000000000000081526004016106e290613a2b565b60405180910390fd5b426006541161072f576040517f08c379a000000000000000000000000000000000000000000000000000000000815260040161072690613a97565b60405180910390fd5b6000600d60009054906101000a900473ffffffffffffffffffffffffffffffffffffffff1673ffffffffffffffffffffffffffffffffffffffff1663b7991e336002543360006040518463ffffffff1660e01b815260040161079393929190613ab7565b602060405180830381865afa1580156107b0573d6000803e3d6000fd5b505050506040513d601f19601f820116820180604052508101906107d49190613b03565b90506000600d60009054906101000a900473ffffffffffffffffffffffffffffffffffffffff1673ffffffffffffffffffffffffffffffffffffffff1663a521dc956002543360006040518463ffffffff1660e01b815260040161083a93929190613ab7565b602060405180830381865afa158015610857573d6000803e3d6000fd5b505050506040513d601f19601f8201168201806040525081019061087b9190613b03565b9050600082118061088c5750600081115b6108cb576040517f08c379a00000000000000000000000000000000000000000000000000000000081526004016108c290613b7c565b60405180910390fd5b80826108d79190613bcb565b600b60009054906101000a900473ffffffffffffffffffffffffffffffffffffffff1673ffffffffffffffffffffffffffffffffffffffff166370a08231306040518263ffffffff1660e01b815260040161093291906133ce565b602060405180830381865afa15801561094f573d6000803e3d6000fd5b505050506040513d601f19601f820116820180604052508101906109739190613b03565b10156109b4576040517f08c379a00000000000000000000000000000000000000000000000000000000081526004016109ab90613c4b565b60405180910390fd5b600360016002546109c59190613c6b565b815481106109d6576109d5613c9f565b5b9060005260206000200160009054906101000a900473ffffffffffffffffffffffffffffffffffffffff1673ffffffffffffffffffffffffffffffffffffffff1663b82e18ff600d60009054906101000a900473ffffffffffffffffffffffffffffffffffffffff1673ffffffffffffffffffffffffffffffffffffffff1663eed25896600254336040518363ffffffff1660e01b8152600401610a7b929190613cce565b600060405180830381865afa158015610a98573d6000803e3d6000fd5b505050506040513d6000823e3d601f19601f82011682018060405250810190610ac19190613eb3565b600d60009054906101000a900473ffffffffffffffffffffffffffffffffffffffff1673ffffffffffffffffffffffffffffffffffffffff166317ba3b7d600254336040518363ffffffff1660e01b8152600401610b20929190613cce565b600060405180830381865afa158015610b3d573d6000803e3d6000fd5b505050506040513d6000823e3d601f19601f82011682018060405250810190610b669190614073565b6040518363ffffffff1660e01b8152600401610b83929190614398565b600060405180830381600087803b158015610b9d57600080fd5b505af1158015610bb1573d6000803e3d6000fd5b50505050600b60009054906101000a900473ffffffffffffffffffffffffffffffffffffffff1673ffffffffffffffffffffffffffffffffffffffff1663a9059cbb338385610c009190613bcb565b6040518363ffffffff1660e01b8152600401610c1d9291906143cf565b6020604051808303816000875af1158015610c3c573d6000803e3d6000fd5b505050506040513d601f19601f82011682018060405250810190610c6091906143f8565b505050565b610c6d61265e565b60005b600a80549050811015610e3c578273ffffffffffffffffffffffffffffffffffffffff16600a8281548110610ca857610ca7613c9f565b5b9060005260206000200160009054906101000a900473ffffffffffffffffffffffffffffffffffffffff1673ffffffffffffffffffffffffffffffffffffffff1603610e2f578115610d3a576000610d35576040517f08c379a0000000000000000000000000000000000000000000000000000000008152600401610d2c90614471565b60405180910390fd5b610e2e565b600a6001600a80549050610d4e9190613c6b565b81548110610d5f57610d5e613c9f565b5b9060005260206000200160009054906101000a900473ffffffffffffffffffffffffffffffffffffffff16600a8281548110610d9e57610d9d613c9f565b5b9060005260206000200160006101000a81548173ffffffffffffffffffffffffffffffffffffffff021916908373ffffffffffffffffffffffffffffffffffffffff160217905550600a805480610df857610df7614491565b5b6001900381819060005260206000200160006101000a81549073ffffffffffffffffffffffffffffffffffffffff021916905590555b5b8080600101915050610c70565b508015610ea757600a829080600181540180825580915050600190039060005260206000200160009091909190916101000a81548173ffffffffffffffffffffffffffffffffffffffff021916908373ffffffffffffffffffffffffffffffffffffffff1602179055505b5050565b60065481565b600a8181548110610ec157600080fd5b906000526020600020016000915054906101000a900473ffffffffffffffffffffffffffffffffffffffff1681565b600b60009054906101000a900473ffffffffffffffffffffffffffffffffffffffff1681565b60055481565b610f2461265e565b60006002541115610f8c57610f878160036001600254610f449190613c6b565b81548110610f5557610f54613c9f565b5b9060005260206000200160009054906101000a900473ffffffffffffffffffffffffffffffffffffffff16600061165c565b610f99565b610f988160008061165c565b5b50565b6007602052816000526040600020602052806000526040600020600091509150505481565b610fc961265e565b8773ffffffffffffffffffffffffffffffffffffffff16600c60009054906101000a900473ffffffffffffffffffffffffffffffffffffffff1673ffffffffffffffffffffffffffffffffffffffff16146110ed5787600c60006101000a81548173ffffffffffffffffffffffffffffffffffffffff021916908373ffffffffffffffffffffffffffffffffffffffff160217905550600c60009054906101000a900473ffffffffffffffffffffffffffffffffffffffff1673ffffffffffffffffffffffffffffffffffffffff1663cd0f2311306040518263ffffffff1660e01b81526004016110ba919061450c565b600060405180830381600087803b1580156110d457600080fd5b505af11580156110e8573d6000803e3d6000fd5b505050505b86600d60006101000a81548173ffffffffffffffffffffffffffffffffffffffff021916908373ffffffffffffffffffffffffffffffffffffffff16021790555085600f60036101000a81548173ffffffffffffffffffffffffffffffffffffffff021916908373ffffffffffffffffffffffffffffffffffffffff16021790555084600b60006101000a81548173ffffffffffffffffffffffffffffffffffffffff021916908373ffffffffffffffffffffffffffffffffffffffff160217905550600b60009054906101000a900473ffffffffffffffffffffffffffffffffffffffff1673ffffffffffffffffffffffffffffffffffffffff1663313ce5676040518163ffffffff1660e01b8152600401602060405180830381865afa15801561121d573d6000803e3d6000fd5b505050506040513d601f19601f820116820180604052508101906112419190614573565b60ff16600a61125091906146d3565b8461125b919061471e565b600e8190555082600f60016101000a81548161ffff021916908361ffff1602179055506003600160025461128f9190613c6b565b815481106112a05761129f613c9f565b5b9060005260206000200160009054906101000a900473ffffffffffffffffffffffffffffffffffffffff1673ffffffffffffffffffffffffffffffffffffffff16639469f293836040518263ffffffff1660e01b8152600401611303919061481e565b600060405180830381600087803b15801561131d57600080fd5b505af1158015611331573d6000803e3d6000fd5b5050505080600f60006101000a81548160ff0219169083151502179055505050505050505050565b61136161265e565b61136b60006126e5565b565b60086020528060005260406000206000915054906101000a900460ff1681565b6000805b8451811015611487576000600667ffffffffffffffff8111156113b7576113b66134f3565b5b6040519080825280602002602001820160405280156113e55781602001602082028036833780820191505090505b50905060005b6006811015611450578681846114019190613bcb565b8151811061141257611411613c9f565b5b602002602001015182828151811061142d5761142c613c9f565b5b602002602001019061ffff16908161ffff168152505080806001019150506113eb565b5061145d878287876127a9565b156114725760018361146f9190613bcb565b92505b506006816114809190613bcb565b9050611391565b50600073ffffffffffffffffffffffffffffffffffffffff168373ffffffffffffffffffffffffffffffffffffffff16141580156114d15750600f60009054906101000a900460ff165b15611655578060068551816114e9576114e8614840565b5b0460076000600254815260200190815260200160002060008573ffffffffffffffffffffffffffffffffffffffff1673ffffffffffffffffffffffffffffffffffffffff16815260200190815260200160002054010360076000600254815260200190815260200160002060008473ffffffffffffffffffffffffffffffffffffffff1673ffffffffffffffffffffffffffffffffffffffff168152602001908152602001600020819055508060068551816115a8576115a7614840565b5b0460076000600254815260200190815260200160002060008673ffffffffffffffffffffffffffffffffffffffff1673ffffffffffffffffffffffffffffffffffffffff16815260200190815260200160002054010360076000600254815260200190815260200160002060008573ffffffffffffffffffffffffffffffffffffffff1673ffffffffffffffffffffffffffffffffffffffff168152602001908152602001600020819055505b5050505050565b61166461265e565b600260008154809291906116779061486f565b91905055506003600f60039054906101000a900473ffffffffffffffffffffffffffffffffffffffff1673ffffffffffffffffffffffffffffffffffffffff1663f199f5308585856040518463ffffffff1660e01b81526004016116dd939291906148b7565b6020604051808303816000875af11580156116fc573d6000803e3d6000fd5b505050506040513d601f19601f8201168201806040525081019061172091906148ee565b9080600181540180825580915050600190039060005260206000200160009091909190916101000a81548173ffffffffffffffffffffffffffffffffffffffff021916908373ffffffffffffffffffffffffffffffffffffffff160217905550600073ffffffffffffffffffffffffffffffffffffffff168273ffffffffffffffffffffffffffffffffffffffff1614806117bb5750600081115b8061180557506003808111156117d4576117d3613189565b5b600460009054906101000a900460ff1660038111156117f6576117f5613189565b5b148015611804575042600654105b5b611844576040517f08c379a000000000000000000000000000000000000000000000000000000000815260040161183b90614967565b60405180910390fd5b61184f600084612de3565b505050565b600f60039054906101000a900473ffffffffffffffffffffffffffffffffffffffff1681565b61188261265e565b6000600360016002546118959190613c6b565b815481106118a6576118a5613c9f565b5b9060005260206000200160009054906101000a900473ffffffffffffffffffffffffffffffffffffffff1690508073ffffffffffffffffffffffffffffffffffffffff1663e278fe6f6040518163ffffffff1660e01b8152600401600060405180830381600087803b15801561191b57600080fd5b505af115801561192f573d6000803e3d6000fd5b505050506000600d60009054906101000a900473ffffffffffffffffffffffffffffffffffffffff1673ffffffffffffffffffffffffffffffffffffffff1663f1664df66002546040518263ffffffff1660e01b81526004016119929190613234565b602060405180830381865afa1580156119af573d6000803e3d6000fd5b505050506040513d601f19601f820116820180604052508101906119d3919061499c565b9050600c60009054906101000a900473ffffffffffffffffffffffffffffffffffffffff1673ffffffffffffffffffffffffffffffffffffffff1663e726f2e1826006611a2091906149c9565b6040518263ffffffff1660e01b8152600401611a3c9190614a40565b6020604051808303816000875af1158015611a5b573d6000803e3d6000fd5b505050506040513d601f19601f82011682018060405250810190611a7f9190613b03565b60106000600254815260200190815260200160002081905550611aa3600184612de3565b505050565b60038181548110611ab857600080fd5b906000526020600020016000915054906101000a900473ffffffffffffffffffffffffffffffffffffffff1681565b60008060009054906101000a900473ffffffffffffffffffffffffffffffffffffffff16905090565b600960009054906101000a900461ffff1681565b611b2c61265e565b60008173ffffffffffffffffffffffffffffffffffffffff166370a08231306040518263ffffffff1660e01b8152600401611b6791906133ce565b602060405180830381865afa158015611b84573d6000803e3d6000fd5b505050506040513d601f19601f82011682018060405250810190611ba89190613b03565b90506000811115611be157611be082600160009054906101000a900473ffffffffffffffffffffffffffffffffffffffff1683612e32565b5b5050565b611bed61265e565b80600860008473ffffffffffffffffffffffffffffffffffffffff1673ffffffffffffffffffffffffffffffffffffffff16815260200190815260200160002060006101000a81548160ff0219169083151502179055505050565b611c5061265e565b60005b82829050811015611cfa576007600060025481526020019081526020016000206000848484818110611c8857611c87613c9f565b5b9050602002016020810190611c9d91906132c1565b73ffffffffffffffffffffffffffffffffffffffff1673ffffffffffffffffffffffffffffffffffffffff1681526020019081526020016000206000815480929190611ce89061486f565b91905055508080600101915050611c53565b505050565b611d0761265e565b60006003600184611d189190613c6b565b81548110611d2957611d28613c9f565b5b9060005260206000200160009054906101000a900473ffffffffffffffffffffffffffffffffffffffff1690508073ffffffffffffffffffffffffffffffffffffffff1663343f25666040518163ffffffff1660e01b815260040160006040518083038186803b158015611d9c57600080fd5b505afa158015611db0573d6000803e3d6000fd5b50505050600080600c60009054906101000a900473ffffffffffffffffffffffffffffffffffffffff1673ffffffffffffffffffffffffffffffffffffffff1663d8a4676f60106000888152602001908152602001600020546040518263ffffffff1660e01b8152600401611e259190613234565b600060405180830381865afa158015611e42573d6000803e3d6000fd5b505050506040513d6000823e3d601f19601f82011682018060405250810190611e6b9190614b1e565b9150915081611eaf576040517f08c379a0000000000000000000000000000000000000000000000000000000008152600401611ea690614bc6565b60405180910390fd5b6000600667ffffffffffffffff811115611ecc57611ecb6134f3565b5b604051908082528060200260200182016040528015611efa5781602001602082028036833780820191505090505b509050600060068351611f0d9190613c6b565b67ffffffffffffffff811115611f2657611f256134f3565b5b604051908082528060200260200182016040528015611f545781602001602082028036833780820191505090505b50905083156122415760005b600681101561205a57600d60009054906101000a900473ffffffffffffffffffffffffffffffffffffffff1673ffffffffffffffffffffffffffffffffffffffff16630c746a8a858381518110611fba57611fb9613c9f565b5b60200260200101516045866040518463ffffffff1660e01b8152600401611fe393929190614c21565b602060405180830381865afa158015612000573d6000803e3d6000fd5b505050506040513d601f19601f82011682018060405250810190612024919061499c565b83828151811061203757612036613c9f565b5b602002602001019061ffff16908161ffff16815250508080600101915050611f60565b506001601a8460058151811061207357612072613c9f565b5b60200260200101516120859190614c5f565b61208f9190613bcb565b826005815181106120a3576120a2613c9f565b5b602002602001019061ffff16908161ffff16815250506000600690505b835181101561223f57600d60009054906101000a900473ffffffffffffffffffffffffffffffffffffffff1673ffffffffffffffffffffffffffffffffffffffff16630c746a8a85838151811061211a57612119613c9f565b5b60200260200101518873ffffffffffffffffffffffffffffffffffffffff16639f8743f76040518163ffffffff1660e01b81526004016000604051808303816000875af115801561216f573d6000803e3d6000fd5b505050506040513d6000823e3d601f19601f820116820180604052508101906121989190614eb9565b6101600151856040518463ffffffff1660e01b81526004016121bc93929190614f02565b602060405180830381865afa1580156121d9573d6000803e3d6000fd5b505050506040513d601f19601f820116820180604052508101906121fd919061499c565b8260068361220b9190613c6b565b8151811061221c5761221b613c9f565b5b602002602001019061ffff16908161ffff168152505080806001019150506120c0565b505b8473ffffffffffffffffffffffffffffffffffffffff16632724d10483836040518363ffffffff1660e01b815260040161227c929190614f40565b600060405180830381600087803b15801561229657600080fd5b505af11580156122aa573d6000803e3d6000fd5b505050506122b9600287612de3565b50505050505050565b6122ca61265e565b600047111561233d57600160009054906101000a900473ffffffffffffffffffffffffffffffffffffffff1673ffffffffffffffffffffffffffffffffffffffff166108fc479081150290604051600060405180830381858888f1935050505015801561233b573d6000803e3d6000fd5b505b565b61234761265e565b60036001836123569190613c6b565b8154811061236757612366613c9f565b5b9060005260206000200160009054906101000a900473ffffffffffffffffffffffffffffffffffffffff1673ffffffffffffffffffffffffffffffffffffffff166327e4de61600d60009054906101000a900473ffffffffffffffffffffffffffffffffffffffff1673ffffffffffffffffffffffffffffffffffffffff16639f75e5c9856040518263ffffffff1660e01b81526004016124089190613234565b600060405180830381865afa158015612425573d6000803e3d6000fd5b505050506040513d6000823e3d601f19601f8201168201806040525081019061244e9190613eb3565b600d60009054906101000a900473ffffffffffffffffffffffffffffffffffffffff1673ffffffffffffffffffffffffffffffffffffffff166348b2e35c866040518263ffffffff1660e01b81526004016124a99190613234565b600060405180830381865afa1580156124c6573d6000803e3d6000fd5b505050506040513d6000823e3d601f19601f820116820180604052508101906124ef9190614073565b6040518363ffffffff1660e01b815260040161250c929190614398565b600060405180830381600087803b15801561252657600080fd5b505af115801561253a573d6000803e3d6000fd5b50505050612549600382612de3565b5050565b60106020528060005260406000206000915090505481565b600d60009054906101000a900473ffffffffffffffffffffffffffffffffffffffff1681565b600f60009054906101000a900460ff1681565b600c60009054906101000a900473ffffffffffffffffffffffffffffffffffffffff1681565b6125cc61265e565b600073ffffffffffffffffffffffffffffffffffffffff168173ffffffffffffffffffffffffffffffffffffffff160361263e5760006040517f1e4fbdf700000000000000000000000000000000000000000000000000000000815260040161263591906133ce565b60405180910390fd5b612647816126e5565b50565b600f60019054906101000a900461ffff1681565b612666612eb1565b73ffffffffffffffffffffffffffffffffffffffff16612684611ae7565b73ffffffffffffffffffffffffffffffffffffffff16146126e3576126a7612eb1565b6040517f118cdaa70000000000000000000000000000000000000000000000000000000081526004016126da91906133ce565b60405180910390fd5b565b60008060009054906101000a900473ffffffffffffffffffffffffffffffffffffffff169050816000806101000a81548173ffffffffffffffffffffffffffffffffffffffff021916908373ffffffffffffffffffffffffffffffffffffffff1602179055508173ffffffffffffffffffffffffffffffffffffffff168173ffffffffffffffffffffffffffffffffffffffff167f8be0079c531659141344cd1fd0a4f28419497f9722a3daafe3b4186f6b6457e060405160405180910390a35050565b60008060076000600254815260200190815260200160002060008473ffffffffffffffffffffffffffffffffffffffff1673ffffffffffffffffffffffffffffffffffffffff1681526020019081526020016000205411806128aa5750600e54600b60009054906101000a900473ffffffffffffffffffffffffffffffffffffffff1673ffffffffffffffffffffffffffffffffffffffff1663dd62ed3e84306040518363ffffffff1660e01b8152600401612866929190614f77565b602060405180830381865afa158015612883573d6000803e3d6000fd5b505050506040513d601f19601f820116820180604052508101906128a79190613b03565b10155b806128fe5750600860003373ffffffffffffffffffffffffffffffffffffffff1673ffffffffffffffffffffffffffffffffffffffff16815260200190815260200160002060009054906101000a900460ff165b61293d576040517f08c379a000000000000000000000000000000000000000000000000000000000815260040161293490614fec565b60405180910390fd5b6000600360016002546129509190613c6b565b8154811061296157612960613c9f565b5b9060005260206000200160009054906101000a900473ffffffffffffffffffffffffffffffffffffffff16905060008060076000600254815260200190815260200160002060008673ffffffffffffffffffffffffffffffffffffffff1673ffffffffffffffffffffffffffffffffffffffff168152602001908152602001600020541115612a5b5760076000600254815260200190815260200160002060008573ffffffffffffffffffffffffffffffffffffffff1673ffffffffffffffffffffffffffffffffffffffff1681526020019081526020016000206000815480929190612a4d9061500c565b919050555060019050612ce7565b600860003373ffffffffffffffffffffffffffffffffffffffff1673ffffffffffffffffffffffffffffffffffffffff16815260200190815260200160002060009054906101000a900460ff16612c7957600e54600b60009054906101000a900473ffffffffffffffffffffffffffffffffffffffff1673ffffffffffffffffffffffffffffffffffffffff166370a08231326040518263ffffffff1660e01b8152600401612b0a91906133ce565b602060405180830381865afa158015612b27573d6000803e3d6000fd5b505050506040513d601f19601f82011682018060405250810190612b4b9190613b03565b1015612b8c576040517f08c379a0000000000000000000000000000000000000000000000000000000008152600401612b8390615081565b60405180910390fd5b600a805490506009600081819054906101000a900461ffff1680929190612bb2906150a1565b91906101000a81548161ffff021916908361ffff16021790555061ffff16612bda9190614c5f565b600960006101000a81548161ffff021916908361ffff160217905550612c78600b60009054906101000a900473ffffffffffffffffffffffffffffffffffffffff1685600a600960009054906101000a900461ffff1661ffff1681548110612c4557612c44613c9f565b5b9060005260206000200160009054906101000a900473ffffffffffffffffffffffffffffffffffffffff16600e54612eb9565b5b8173ffffffffffffffffffffffffffffffffffffffff1663b56c12b4600e546040518263ffffffff1660e01b8152600401612cb49190613234565b600060405180830381600087803b158015612cce57600080fd5b505af1158015612ce2573d6000803e3d6000fd5b505050505b8015612d64578173ffffffffffffffffffffffffffffffffffffffff1663eb7165fa88886000886040518563ffffffff1660e01b8152600401612d2d94939291906150cb565b600060405180830381600087803b158015612d4757600080fd5b505af1158015612d5b573d6000803e3d6000fd5b50505050612dd6565b8173ffffffffffffffffffffffffffffffffffffffff1663eb7165fa888888886040518563ffffffff1660e01b8152600401612da394939291906150cb565b600060405180830381600087803b158015612dbd57600080fd5b505af1158015612dd1573d6000803e3d6000fd5b505050505b8092505050949350505050565b612deb61265e565b81600460006101000a81548160ff02191690836003811115612e1057612e0f613189565b5b0217905550426005819055508042612e289190613bcb565b6006819055505050565b612eac838473ffffffffffffffffffffffffffffffffffffffff1663a9059cbb8585604051602401612e659291906143cf565b604051602081830303815290604052915060e01b6020820180517bffffffffffffffffffffffffffffffffffffffffffffffffffffffff8381831617835250505050612f3b565b505050565b600033905090565b612f35848573ffffffffffffffffffffffffffffffffffffffff166323b872dd868686604051602401612eee93929190615117565b604051602081830303815290604052915060e01b6020820180517bffffffffffffffffffffffffffffffffffffffffffffffffffffffff8381831617835250505050612f3b565b50505050565b6000612f66828473ffffffffffffffffffffffffffffffffffffffff16612fd290919063ffffffff16565b90506000815114158015612f8b575080806020019051810190612f8991906143f8565b155b15612fcd57826040517f5274afe7000000000000000000000000000000000000000000000000000000008152600401612fc491906133ce565b60405180910390fd5b505050565b6060612fe083836000612fe8565b905092915050565b60608147101561302f57306040517fcd78605900000000000000000000000000000000000000000000000000000000815260040161302691906133ce565b60405180910390fd5b6000808573ffffffffffffffffffffffffffffffffffffffff16848660405161305891906151bf565b60006040518083038185875af1925050503d8060008114613095576040519150601f19603f3d011682016040523d82523d6000602084013e61309a565b606091505b50915091506130aa8683836130b5565b925050509392505050565b6060826130ca576130c582613144565b61313c565b600082511480156130f2575060008473ffffffffffffffffffffffffffffffffffffffff163b145b1561313457836040517f9996b31500000000000000000000000000000000000000000000000000000000815260040161312b91906133ce565b60405180910390fd5b81905061313d565b5b9392505050565b6000815111156131575780518082602001fd5b6040517f1425ea4200000000000000000000000000000000000000000000000000000000815260040160405180910390fd5b7f4e487b7100000000000000000000000000000000000000000000000000000000600052602160045260246000fd5b600481106131c9576131c8613189565b5b50565b60008190506131da826131b8565b919050565b60006131ea826131cc565b9050919050565b6131fa816131df565b82525050565b600060208201905061321560008301846131f1565b92915050565b6000819050919050565b61322e8161321b565b82525050565b60006020820190506132496000830184613225565b92915050565b6000604051905090565b600080fd5b600080fd5b600073ffffffffffffffffffffffffffffffffffffffff82169050919050565b600061328e82613263565b9050919050565b61329e81613283565b81146132a957600080fd5b50565b6000813590506132bb81613295565b92915050565b6000602082840312156132d7576132d6613259565b5b60006132e5848285016132ac565b91505092915050565b60008115159050919050565b613303816132ee565b811461330e57600080fd5b50565b600081359050613320816132fa565b92915050565b6000806040838503121561333d5761333c613259565b5b600061334b858286016132ac565b925050602061335c85828601613311565b9150509250929050565b61336f8161321b565b811461337a57600080fd5b50565b60008135905061338c81613366565b92915050565b6000602082840312156133a8576133a7613259565b5b60006133b68482850161337d565b91505092915050565b6133c881613283565b82525050565b60006020820190506133e360008301846133bf565b92915050565b6000819050919050565b600061340e61340961340484613263565b6133e9565b613263565b9050919050565b6000613420826133f3565b9050919050565b600061343282613415565b9050919050565b61344281613427565b82525050565b600060208201905061345d6000830184613439565b92915050565b6000806040838503121561347a57613479613259565b5b60006134888582860161337d565b9250506020613499858286016132ac565b9150509250929050565b600061ffff82169050919050565b6134ba816134a3565b81146134c557600080fd5b50565b6000813590506134d7816134b1565b92915050565b600080fd5b6000601f19601f8301169050919050565b7f4e487b7100000000000000000000000000000000000000000000000000000000600052604160045260246000fd5b61352b826134e2565b810181811067ffffffffffffffff8211171561354a576135496134f3565b5b80604052505050565b600061355d61324f565b90506135698282613522565b919050565b600067ffffffffffffffff821115613589576135886134f3565b5b602082029050602081019050919050565b600080fd5b60006135b26135ad8461356e565b613553565b905080838252602082019050602084028301858111156135d5576135d461359a565b5b835b818110156135fe57806135ea88826134c8565b8452602084019350506020810190506135d7565b5050509392505050565b600082601f83011261361d5761361c6134dd565b5b813561362d84826020860161359f565b91505092915050565b600080600080600080600080610100898b03121561365757613656613259565b5b60006136658b828c016132ac565b98505060206136768b828c016132ac565b97505060406136878b828c016132ac565b96505060606136988b828c016132ac565b95505060806136a98b828c0161337d565b94505060a06136ba8b828c016134c8565b93505060c089013567ffffffffffffffff8111156136db576136da61325e565b5b6136e78b828c01613608565b92505060e06136f88b828c01613311565b9150509295985092959890939650565b613711816132ee565b82525050565b600060208201905061372c6000830184613708565b92915050565b6000806000806080858703121561374c5761374b613259565b5b600061375a8782880161337d565b945050602085013567ffffffffffffffff81111561377b5761377a61325e565b5b61378787828801613608565b9350506040613798878288016132ac565b92505060606137a9878288016132ac565b91505092959194509250565b6000806000606084860312156137ce576137cd613259565b5b60006137dc8682870161337d565b93505060206137ed868287016132ac565b92505060406137fe8682870161337d565b9150509250925092565b600061381382613415565b9050919050565b61382381613808565b82525050565b600060208201905061383e600083018461381a565b92915050565b61384d816134a3565b82525050565b60006020820190506138686000830184613844565b92915050565b600080fd5b60008083601f840112613889576138886134dd565b5b8235905067ffffffffffffffff8111156138a6576138a561386e565b5b6020830191508360208202830111156138c2576138c161359a565b5b9250929050565b600080602083850312156138e0576138df613259565b5b600083013567ffffffffffffffff8111156138fe576138fd61325e565b5b61390a85828601613873565b92509250509250929050565b6000806040838503121561392d5761392c613259565b5b600061393b8582860161337d565b925050602061394c8582860161337d565b9150509250929050565b600061396182613415565b9050919050565b61397181613956565b82525050565b600060208201905061398c6000830184613968565b92915050565b600061399d82613415565b9050919050565b6139ad81613992565b82525050565b60006020820190506139c860008301846139a4565b92915050565b600082825260208201905092915050565b7f4c6f7474657279206973206e6f7420696e20636c61696d20706572696f640000600082015250565b6000613a15601e836139ce565b9150613a20826139df565b602082019050919050565b60006020820190508181036000830152613a4481613a08565b9050919050565b7f436c61696d20506572696f6420656e6465640000000000000000000000000000600082015250565b6000613a816012836139ce565b9150613a8c82613a4b565b602082019050919050565b60006020820190508181036000830152613ab081613a74565b9050919050565b6000606082019050613acc6000830186613225565b613ad960208301856133bf565b613ae66040830184613708565b949350505050565b600081519050613afd81613366565b92915050565b600060208284031215613b1957613b18613259565b5b6000613b2784828501613aee565b91505092915050565b7f4e6f7468696e6720746f20636c61696d20666f7220746869732077616c6c6574600082015250565b6000613b666020836139ce565b9150613b7182613b30565b602082019050919050565b60006020820190508181036000830152613b9581613b59565b9050919050565b7f4e487b7100000000000000000000000000000000000000000000000000000000600052601160045260246000fd5b6000613bd68261321b565b9150613be18361321b565b9250828201905080821115613bf957613bf8613b9c565b5b92915050565b7f4e6f7420656e6f7567682066756e6473206f6e20636f6e747261637400000000600082015250565b6000613c35601c836139ce565b9150613c4082613bff565b602082019050919050565b60006020820190508181036000830152613c6481613c28565b9050919050565b6000613c768261321b565b9150613c818361321b565b9250828203905081811115613c9957613c98613b9c565b5b92915050565b7f4e487b7100000000000000000000000000000000000000000000000000000000600052603260045260246000fd5b6000604082019050613ce36000830185613225565b613cf060208301846133bf565b9392505050565b600067ffffffffffffffff821115613d1257613d116134f3565b5b602082029050602081019050919050565b600080fd5b600080fd5b600081519050613d3c81613295565b92915050565b600a8110613d4f57600080fd5b50565b600081519050613d6181613d42565b92915050565b600081519050613d76816132fa565b92915050565b600060c08284031215613d9257613d91613d23565b5b613d9c60c0613553565b90506000613dac84828501613aee565b6000830152506020613dc084828501613d2d565b6020830152506040613dd484828501613d52565b6040830152506060613de884828501613d67565b6060830152506080613dfc84828501613d67565b60808301525060a0613e1084828501613aee565b60a08301525092915050565b6000613e2f613e2a84613cf7565b613553565b90508083825260208201905060c08402830185811115613e5257613e5161359a565b5b835b81811015613e7b5780613e678882613d7c565b84526020840193505060c081019050613e54565b5050509392505050565b600082601f830112613e9a57613e996134dd565b5b8151613eaa848260208601613e1c565b91505092915050565b600060208284031215613ec957613ec8613259565b5b600082015167ffffffffffffffff811115613ee757613ee661325e565b5b613ef384828501613e85565b91505092915050565b600067ffffffffffffffff821115613f1757613f166134f3565b5b602082029050602081019050919050565b600060e08284031215613f3e57613f3d613d23565b5b613f4860e0613553565b90506000613f5884828501613aee565b6000830152506020613f6c84828501613d2d565b6020830152506040613f8084828501613d2d565b6040830152506060613f9484828501613aee565b6060830152506080613fa884828501613d67565b60808301525060a0613fbc84828501613d67565b60a08301525060c0613fd084828501613aee565b60c08301525092915050565b6000613fef613fea84613efc565b613553565b90508083825260208201905060e084028301858111156140125761401161359a565b5b835b8181101561403b57806140278882613f28565b84526020840193505060e081019050614014565b5050509392505050565b600082601f83011261405a576140596134dd565b5b815161406a848260208601613fdc565b91505092915050565b60006020828403121561408957614088613259565b5b600082015167ffffffffffffffff8111156140a7576140a661325e565b5b6140b384828501614045565b91505092915050565b600081519050919050565b600082825260208201905092915050565b6000819050602082019050919050565b6140f18161321b565b82525050565b61410081613283565b82525050565b600a811061411757614116613189565b5b50565b600081905061412882614106565b919050565b60006141388261411a565b9050919050565b6141488161412d565b82525050565b614157816132ee565b82525050565b60c08201600082015161417360008501826140e8565b50602082015161418660208501826140f7565b506040820151614199604085018261413f565b5060608201516141ac606085018261414e565b5060808201516141bf608085018261414e565b5060a08201516141d260a08501826140e8565b50505050565b60006141e4838361415d565b60c08301905092915050565b6000602082019050919050565b6000614208826140bc565b61421281856140c7565b935061421d836140d8565b8060005b8381101561424e57815161423588826141d8565b9750614240836141f0565b925050600181019050614221565b5085935050505092915050565b600081519050919050565b600082825260208201905092915050565b6000819050602082019050919050565b60e08201600082015161429d60008501826140e8565b5060208201516142b060208501826140f7565b5060408201516142c360408501826140f7565b5060608201516142d660608501826140e8565b5060808201516142e9608085018261414e565b5060a08201516142fc60a085018261414e565b5060c082015161430f60c08501826140e8565b50505050565b60006143218383614287565b60e08301905092915050565b6000602082019050919050565b60006143458261425b565b61434f8185614266565b935061435a83614277565b8060005b8381101561438b5781516143728882614315565b975061437d8361432d565b92505060018101905061435e565b5085935050505092915050565b600060408201905081810360008301526143b281856141fd565b905081810360208301526143c6818461433a565b90509392505050565b60006040820190506143e460008301856133bf565b6143f16020830184613225565b9392505050565b60006020828403121561440e5761440d613259565b5b600061441c84828501613d67565b91505092915050565b7f57616c6c657420616c7265616479206164646564000000000000000000000000600082015250565b600061445b6014836139ce565b915061446682614425565b602082019050919050565b6000602082019050818103600083015261448a8161444e565b9050919050565b7f4e487b7100000000000000000000000000000000000000000000000000000000600052603160045260246000fd5b7f4c6f74746572794d617374657256302e31000000000000000000000000000000600082015250565b60006144f66011836139ce565b9150614501826144c0565b602082019050919050565b600060408201905061452160008301846133bf565b8181036020830152614532816144e9565b905092915050565b600060ff82169050919050565b6145508161453a565b811461455b57600080fd5b50565b60008151905061456d81614547565b92915050565b60006020828403121561458957614588613259565b5b60006145978482850161455e565b91505092915050565b60008160011c9050919050565b6000808291508390505b60018511156145f7578086048111156145d3576145d2613b9c565b5b60018516156145e25780820291505b80810290506145f0856145a0565b94506145b7565b94509492505050565b60008261461057600190506146cc565b8161461e57600090506146cc565b8160018114614634576002811461463e5761466d565b60019150506146cc565b60ff8411156146505761464f613b9c565b5b8360020a91508482111561466757614666613b9c565b5b506146cc565b5060208310610133831016604e8410600b84101617156146a25782820a90508381111561469d5761469c613b9c565b5b6146cc565b6146af84848460016145ad565b925090508184048111156146c6576146c5613b9c565b5b81810290505b9392505050565b60006146de8261321b565b91506146e98361321b565b92506147167fffffffffffffffffffffffffffffffffffffffffffffffffffffffffffffffff8484614600565b905092915050565b60006147298261321b565b91506147348361321b565b92508282026147428161321b565b9150828204841483151761475957614758613b9c565b5b5092915050565b600081519050919050565b600082825260208201905092915050565b6000819050602082019050919050565b614795816134a3565b82525050565b60006147a7838361478c565b60208301905092915050565b6000602082019050919050565b60006147cb82614760565b6147d5818561476b565b93506147e08361477c565b8060005b838110156148115781516147f8888261479b565b9750614803836147b3565b9250506001810190506147e4565b5085935050505092915050565b6000602082019050818103600083015261483881846147c0565b905092915050565b7f4e487b7100000000000000000000000000000000000000000000000000000000600052601260045260246000fd5b600061487a8261321b565b91507fffffffffffffffffffffffffffffffffffffffffffffffffffffffffffffffff82036148ac576148ab613b9c565b5b600182019050919050565b60006060820190506148cc6000830186613225565b6148d960208301856133bf565b6148e66040830184613225565b949350505050565b60006020828403121561490457614903613259565b5b600061491284828501613d2d565b91505092915050565b7f50726576696f757320726f756e64206e6f7420656e6465640000000000000000600082015250565b60006149516018836139ce565b915061495c8261491b565b602082019050919050565b6000602082019050818103600083015261498081614944565b9050919050565b600081519050614996816134b1565b92915050565b6000602082840312156149b2576149b1613259565b5b60006149c084828501614987565b91505092915050565b60006149d4826134a3565b91506149df836134a3565b9250828201905061ffff8111156149f9576149f8613b9c565b5b92915050565b600063ffffffff82169050919050565b6000614a2a614a25614a20846134a3565b6133e9565b6149ff565b9050919050565b614a3a81614a0f565b82525050565b6000602082019050614a556000830184614a31565b92915050565b600067ffffffffffffffff821115614a7657614a756134f3565b5b602082029050602081019050919050565b6000614a9a614a9584614a5b565b613553565b90508083825260208201905060208402830185811115614abd57614abc61359a565b5b835b81811015614ae65780614ad28882613aee565b845260208401935050602081019050614abf565b5050509392505050565b600082601f830112614b0557614b046134dd565b5b8151614b15848260208601614a87565b91505092915050565b60008060408385031215614b3557614b34613259565b5b6000614b4385828601613d67565b925050602083015167ffffffffffffffff811115614b6457614b6361325e565b5b614b7085828601614af0565b9150509250929050565b7f52616e646f6d206e756d62657273206e6f742072656164790000000000000000600082015250565b6000614bb06018836139ce565b9150614bbb82614b7a565b602082019050919050565b60006020820190508181036000830152614bdf81614ba3565b9050919050565b6000819050919050565b6000614c0b614c06614c0184614be6565b6133e9565b6134a3565b9050919050565b614c1b81614bf0565b82525050565b6000606082019050614c366000830186613225565b614c436020830185614c12565b8181036040830152614c5581846147c0565b9050949350505050565b6000614c6a8261321b565b9150614c758361321b565b925082614c8557614c84614840565b5b828206905092915050565b6000614ca3614c9e8461356e565b613553565b90508083825260208201905060208402830185811115614cc657614cc561359a565b5b835b81811015614cef5780614cdb8882614987565b845260208401935050602081019050614cc8565b5050509392505050565b600082601f830112614d0e57614d0d6134dd565b5b8151614d1e848260208601614c90565b91505092915050565b60006101808284031215614d3e57614d3d613d23565b5b614d49610180613553565b90506000614d5984828501613aee565b6000830152506020614d6d84828501613aee565b6020830152506040614d8184828501613aee565b6040830152506060614d9584828501613aee565b6060830152506080614da984828501613d67565b60808301525060a082015167ffffffffffffffff811115614dcd57614dcc613d28565b5b614dd984828501614cf9565b60a08301525060c082015167ffffffffffffffff811115614dfd57614dfc613d28565b5b614e0984828501614af0565b60c08301525060e0614e1d84828501614987565b60e08301525061010082015167ffffffffffffffff811115614e4257614e41613d28565b5b614e4e84828501614af0565b61010083015250610120614e6484828501614987565b6101208301525061014082015167ffffffffffffffff811115614e8a57614e89613d28565b5b614e9684828501614af0565b61014083015250610160614eac84828501614987565b6101608301525092915050565b600060208284031215614ecf57614ece613259565b5b600082015167ffffffffffffffff811115614eed57614eec61325e565b5b614ef984828501614d27565b91505092915050565b6000606082019050614f176000830186613225565b614f246020830185613844565b8181036040830152614f3681846147c0565b9050949350505050565b60006040820190508181036000830152614f5a81856147c0565b90508181036020830152614f6e81846147c0565b90509392505050565b6000604082019050614f8c60008301856133bf565b614f9960208301846133bf565b9392505050565b7f4d697373696e6720416c6c6f77616e6365000000000000000000000000000000600082015250565b6000614fd66011836139ce565b9150614fe182614fa0565b602082019050919050565b6000602082019050818103600083015261500581614fc9565b9050919050565b60006150178261321b565b91506000820361502a57615029613b9c565b5b600182039050919050565b7f496e73756666696369656e742066756e64730000000000000000000000000000600082015250565b600061506b6012836139ce565b915061507682615035565b602082019050919050565b6000602082019050818103600083015261509a8161505e565b9050919050565b60006150ac826134a3565b915061ffff82036150c0576150bf613b9c565b5b600182019050919050565b60006080820190506150e06000830187613225565b81810360208301526150f281866147c0565b905061510160408301856133bf565b61510e60608301846133bf565b95945050505050565b600060608201905061512c60008301866133bf565b61513960208301856133bf565b6151466040830184613225565b949350505050565b600081519050919050565b600081905092915050565b60005b83811015615182578082015181840152602081019050615167565b60008484015250505050565b60006151998261514e565b6151a38185615159565b93506151b3818560208601615164565b80840191505092915050565b60006151cb828461518e565b91508190509291505056fea26469706673582212203ac0adf90850bf1f967482d6e859604d88f359a7277afda78a7075407b23aeb864736f6c63430008180033",
  "devdoc": {
    "errors": {
      "AddressEmptyCode(address)": [
        {
          "details": "There's no code at `target` (it is not a contract)."
        }
      ],
      "AddressInsufficientBalance(address)": [
        {
          "details": "The ETH balance of the account is not enough to perform the operation."
        }
      ],
      "FailedInnerCall()": [
        {
          "details": "A call to an address target failed. The target may have reverted."
        }
      ],
      "OwnableInvalidOwner(address)": [
        {
          "details": "The owner is not a valid owner account. (eg. `address(0)`)"
        }
      ],
      "OwnableUnauthorizedAccount(address)": [
        {
          "details": "The caller account is not authorized to perform an operation."
        }
      ],
      "SafeERC20FailedOperation(address)": [
        {
          "details": "An operation with an ERC20 token failed."
        }
      ]
    },
    "kind": "dev",
    "methods": {
      "owner()": {
        "details": "Returns the address of the current owner."
      },
      "renounceOwnership()": {
        "details": "Leaves the contract without owner. It will not be possible to call `onlyOwner` functions. Can only be called by the current owner. NOTE: Renouncing ownership will leave the contract without an owner, thereby disabling any functionality that is only available to the owner."
      },
      "transferOwnership(address)": {
        "details": "Transfers ownership of the contract to a new account (`newOwner`). Can only be called by the current owner."
      }
    },
    "version": 1
  },
  "userdoc": {
    "kind": "user",
    "methods": {},
    "version": 1
  },
  "storageLayout": {
    "storage": [
      {
        "astId": 8,
        "contract": "contracts/LotteryMaster.sol:LotteryMaster",
        "label": "_owner",
        "offset": 0,
        "slot": "0",
        "type": "t_address"
      },
      {
        "astId": 4936,
        "contract": "contracts/LotteryMaster.sol:LotteryMaster",
        "label": "teamAddress",
        "offset": 0,
        "slot": "1",
        "type": "t_address"
      },
      {
        "astId": 1031,
        "contract": "contracts/LotteryMaster.sol:LotteryMaster",
        "label": "roundCount",
        "offset": 0,
        "slot": "2",
        "type": "t_uint256"
      },
      {
        "astId": 1034,
        "contract": "contracts/LotteryMaster.sol:LotteryMaster",
        "label": "rounds",
        "offset": 0,
        "slot": "3",
        "type": "t_array(t_address)dyn_storage"
      },
      {
        "astId": 1037,
        "contract": "contracts/LotteryMaster.sol:LotteryMaster",
        "label": "lotteryStatus",
        "offset": 0,
        "slot": "4",
        "type": "t_enum(LotteryStatuses)1027"
      },
      {
        "astId": 1039,
        "contract": "contracts/LotteryMaster.sol:LotteryMaster",
        "label": "statusStartTime",
        "offset": 0,
        "slot": "5",
        "type": "t_uint256"
      },
      {
        "astId": 1041,
        "contract": "contracts/LotteryMaster.sol:LotteryMaster",
        "label": "statusEndTime",
        "offset": 0,
        "slot": "6",
        "type": "t_uint256"
      },
      {
        "astId": 1047,
        "contract": "contracts/LotteryMaster.sol:LotteryMaster",
        "label": "freeRounds",
        "offset": 0,
        "slot": "7",
        "type": "t_mapping(t_uint256,t_mapping(t_address,t_uint256))"
      },
      {
        "astId": 1051,
        "contract": "contracts/LotteryMaster.sol:LotteryMaster",
        "label": "crossChainOperator",
        "offset": 0,
        "slot": "8",
        "type": "t_mapping(t_address,t_bool)"
      },
      {
        "astId": 1069,
        "contract": "contracts/LotteryMaster.sol:LotteryMaster",
        "label": "counterForBankWallets",
        "offset": 0,
        "slot": "9",
        "type": "t_uint16"
      },
      {
        "astId": 1072,
        "contract": "contracts/LotteryMaster.sol:LotteryMaster",
        "label": "bankWallets",
        "offset": 0,
        "slot": "10",
        "type": "t_array(t_address)dyn_storage"
      },
      {
        "astId": 1139,
        "contract": "contracts/LotteryMaster.sol:LotteryMaster",
        "label": "paymentToken",
        "offset": 0,
        "slot": "11",
        "type": "t_contract(IERC20Metadata)251"
      },
      {
        "astId": 1142,
        "contract": "contracts/LotteryMaster.sol:LotteryMaster",
        "label": "randomizer",
        "offset": 0,
        "slot": "12",
        "type": "t_contract(CyclixRandomizerInterface)901"
      },
      {
        "astId": 1145,
        "contract": "contracts/LotteryMaster.sol:LotteryMaster",
        "label": "reader",
        "offset": 0,
        "slot": "13",
        "type": "t_contract(LotteryReaderInterface)3855"
      },
      {
        "astId": 1147,
        "contract": "contracts/LotteryMaster.sol:LotteryMaster",
        "label": "ticketPrice",
        "offset": 0,
        "slot": "14",
        "type": "t_uint256"
      },
      {
        "astId": 1150,
        "contract": "contracts/LotteryMaster.sol:LotteryMaster",
        "label": "freeRoundsAreEnabled",
        "offset": 0,
        "slot": "15",
        "type": "t_bool"
      },
      {
        "astId": 1153,
        "contract": "contracts/LotteryMaster.sol:LotteryMaster",
        "label": "percentageOfReferralWinners",
        "offset": 1,
        "slot": "15",
        "type": "t_uint16"
      },
      {
        "astId": 1156,
        "contract": "contracts/LotteryMaster.sol:LotteryMaster",
        "label": "lotteryRoundCreator",
        "offset": 3,
        "slot": "15",
        "type": "t_contract(LotteryRoundCreatorInterface)4813"
      },
      {
        "astId": 1761,
        "contract": "contracts/LotteryMaster.sol:LotteryMaster",
        "label": "publicRoundRandomNumbersRequestId",
        "offset": 0,
        "slot": "16",
        "type": "t_mapping(t_uint256,t_uint256)"
      }
    ],
    "types": {
      "t_address": {
        "encoding": "inplace",
        "label": "address",
        "numberOfBytes": "20"
      },
      "t_array(t_address)dyn_storage": {
        "base": "t_address",
        "encoding": "dynamic_array",
        "label": "address[]",
        "numberOfBytes": "32"
      },
      "t_bool": {
        "encoding": "inplace",
        "label": "bool",
        "numberOfBytes": "1"
      },
      "t_contract(CyclixRandomizerInterface)901": {
        "encoding": "inplace",
        "label": "contract CyclixRandomizerInterface",
        "numberOfBytes": "20"
      },
      "t_contract(IERC20Metadata)251": {
        "encoding": "inplace",
        "label": "contract IERC20Metadata",
        "numberOfBytes": "20"
      },
      "t_contract(LotteryReaderInterface)3855": {
        "encoding": "inplace",
        "label": "contract LotteryReaderInterface",
        "numberOfBytes": "20"
      },
      "t_contract(LotteryRoundCreatorInterface)4813": {
        "encoding": "inplace",
        "label": "contract LotteryRoundCreatorInterface",
        "numberOfBytes": "20"
      },
      "t_enum(LotteryStatuses)1027": {
        "encoding": "inplace",
        "label": "enum LotteryStatuses",
        "numberOfBytes": "1"
      },
      "t_mapping(t_address,t_bool)": {
        "encoding": "mapping",
        "key": "t_address",
        "label": "mapping(address => bool)",
        "numberOfBytes": "32",
        "value": "t_bool"
      },
      "t_mapping(t_address,t_uint256)": {
        "encoding": "mapping",
        "key": "t_address",
        "label": "mapping(address => uint256)",
        "numberOfBytes": "32",
        "value": "t_uint256"
      },
      "t_mapping(t_uint256,t_mapping(t_address,t_uint256))": {
        "encoding": "mapping",
        "key": "t_uint256",
        "label": "mapping(uint256 => mapping(address => uint256))",
        "numberOfBytes": "32",
        "value": "t_mapping(t_address,t_uint256)"
      },
      "t_mapping(t_uint256,t_uint256)": {
        "encoding": "mapping",
        "key": "t_uint256",
        "label": "mapping(uint256 => uint256)",
        "numberOfBytes": "32",
        "value": "t_uint256"
      },
      "t_uint16": {
        "encoding": "inplace",
        "label": "uint16",
        "numberOfBytes": "2"
      },
      "t_uint256": {
        "encoding": "inplace",
        "label": "uint256",
        "numberOfBytes": "32"
      }
    }
  }
}