{
  "address": "0xDe6006792A81d465B76790d73c8a6AF993d9A417",
  "abi": [
    {
      "inputs": [],
      "stateMutability": "nonpayable",
      "type": "constructor"
    },
    {
      "inputs": [
        {
          "internalType": "address",
          "name": "owner",
          "type": "address"
        }
      ],
      "name": "OwnableInvalidOwner",
      "type": "error"
    },
    {
      "inputs": [
        {
          "internalType": "address",
          "name": "account",
          "type": "address"
        }
      ],
      "name": "OwnableUnauthorizedAccount",
      "type": "error"
    },
    {
      "anonymous": false,
      "inputs": [
        {
          "indexed": true,
          "internalType": "address",
          "name": "previousOwner",
          "type": "address"
        },
        {
          "indexed": true,
          "internalType": "address",
          "name": "newOwner",
          "type": "address"
        }
      ],
      "name": "OwnershipTransferred",
      "type": "event"
    },
    {
      "inputs": [],
      "name": "owner",
      "outputs": [
        {
          "internalType": "address",
          "name": "",
          "type": "address"
        }
      ],
      "stateMutability": "view",
      "type": "function"
    },
    {
      "inputs": [],
      "name": "renounceOwnership",
      "outputs": [],
      "stateMutability": "nonpayable",
      "type": "function"
    },
    {
      "inputs": [
        {
          "internalType": "uint256",
          "name": "roundDurationInSeconds",
          "type": "uint256"
        },
        {
          "internalType": "address",
          "name": "previousRoundAddress",
          "type": "address"
        }
      ],
      "name": "startNewRound",
      "outputs": [
        {
          "internalType": "address",
          "name": "",
          "type": "address"
        }
      ],
      "stateMutability": "nonpayable",
      "type": "function"
    },
    {
      "inputs": [
        {
          "internalType": "address",
          "name": "newOwner",
          "type": "address"
        }
      ],
      "name": "transferOwnership",
      "outputs": [],
      "stateMutability": "nonpayable",
      "type": "function"
    }
  ],
  "transactionHash": "0xa01c0244f03681dbc8ec3fb92c3d4e7ec65bb2930939962d7e64f01cbf239da1",
  "args": [],
  "numDeployments": 1,
  "solcInputHash": "f853f91d65f57f0c74b843411d35eaac",
  "bytecode": "0x608060405234801561001057600080fd5b5033600073ffffffffffffffffffffffffffffffffffffffff168173ffffffffffffffffffffffffffffffffffffffff16036100845760006040517f1e4fbdf700000000000000000000000000000000000000000000000000000000815260040161007b919061019e565b60405180910390fd5b6100938161009960201b60201c565b506101b9565b60008060009054906101000a900473ffffffffffffffffffffffffffffffffffffffff169050816000806101000a81548173ffffffffffffffffffffffffffffffffffffffff021916908373ffffffffffffffffffffffffffffffffffffffff1602179055508173ffffffffffffffffffffffffffffffffffffffff168173ffffffffffffffffffffffffffffffffffffffff167f8be0079c531659141344cd1fd0a4f28419497f9722a3daafe3b4186f6b6457e060405160405180910390a35050565b600073ffffffffffffffffffffffffffffffffffffffff82169050919050565b60006101888261015d565b9050919050565b6101988161017d565b82525050565b60006020820190506101b3600083018461018f565b92915050565b6153e8806101c86000396000f3fe60806040523480156200001157600080fd5b5060043610620000525760003560e01c806363ea940f1462000057578063715018a6146200008d5780638da5cb5b1462000099578063f2fde38b14620000bb575b600080fd5b6200007560048036038101906200006f919062000485565b620000db565b604051620000849190620004dd565b60405180910390f35b62000097620001a8565b005b620000a3620001c0565b604051620000b29190620004dd565b60405180910390f35b620000d96004803603810190620000d39190620004fa565b620001e9565b005b6000620000e762000276565b60008284604051620000f990620003d2565b620001069291906200053d565b604051809103906000f08015801562000123573d6000803e3d6000fd5b5090508073ffffffffffffffffffffffffffffffffffffffff1663f2fde38b6200014c620001c0565b6040518263ffffffff1660e01b81526004016200016a9190620004dd565b600060405180830381600087803b1580156200018557600080fd5b505af11580156200019a573d6000803e3d6000fd5b505050508091505092915050565b620001b262000276565b620001be600062000306565b565b60008060009054906101000a900473ffffffffffffffffffffffffffffffffffffffff16905090565b620001f362000276565b600073ffffffffffffffffffffffffffffffffffffffff168173ffffffffffffffffffffffffffffffffffffffff1603620002685760006040517f1e4fbdf70000000000000000000000000000000000000000000000000000000081526004016200025f9190620004dd565b60405180910390fd5b620002738162000306565b50565b62000280620003ca565b73ffffffffffffffffffffffffffffffffffffffff16620002a0620001c0565b73ffffffffffffffffffffffffffffffffffffffff16146200030457620002c6620003ca565b6040517f118cdaa7000000000000000000000000000000000000000000000000000000008152600401620002fb9190620004dd565b60405180910390fd5b565b60008060009054906101000a900473ffffffffffffffffffffffffffffffffffffffff169050816000806101000a81548173ffffffffffffffffffffffffffffffffffffffff021916908373ffffffffffffffffffffffffffffffffffffffff1602179055508173ffffffffffffffffffffffffffffffffffffffff168173ffffffffffffffffffffffffffffffffffffffff167f8be0079c531659141344cd1fd0a4f28419497f9722a3daafe3b4186f6b6457e060405160405180910390a35050565b600033905090565b614e48806200056b83390190565b600080fd5b6000819050919050565b620003fa81620003e5565b81146200040657600080fd5b50565b6000813590506200041a81620003ef565b92915050565b600073ffffffffffffffffffffffffffffffffffffffff82169050919050565b60006200044d8262000420565b9050919050565b6200045f8162000440565b81146200046b57600080fd5b50565b6000813590506200047f8162000454565b92915050565b600080604083850312156200049f576200049e620003e0565b5b6000620004af8582860162000409565b9250506020620004c2858286016200046e565b9150509250929050565b620004d78162000440565b82525050565b6000602082019050620004f46000830184620004cc565b92915050565b600060208284031215620005135762000512620003e0565b5b600062000523848285016200046e565b91505092915050565b6200053781620003e5565b82525050565b6000604082019050620005546000830185620004cc565b6200056360208301846200052c565b939250505056fe6080604052604051806101200160405280610bb861ffff1681526020016105dc61ffff1681526020016103e861ffff1681526020016102bc61ffff1681526020016101f461ffff16815260200161012c61ffff1681526020016105dc61ffff1681526020016103e861ffff1681526020016101f461ffff1681525060199060096200008c92919062000a09565b503480156200009a57600080fd5b5060405162004e4838038062004e488339818101604052810190620000c0919062000c90565b33600073ffffffffffffffffffffffffffffffffffffffff168173ffffffffffffffffffffffffffffffffffffffff1603620001365760006040517f1e4fbdf70000000000000000000000000000000000000000000000000000000081526004016200012d919062000ce8565b60405180910390fd5b62000147816200053960201b60201c565b5060006001905082601860006101000a81548173ffffffffffffffffffffffffffffffffffffffff021916908373ffffffffffffffffffffffffffffffffffffffff160217905550600073ffffffffffffffffffffffffffffffffffffffff168373ffffffffffffffffffffffffffffffffffffffff16146200026657600083905060018173ffffffffffffffffffffffffffffffffffffffff16639f8743f76040518163ffffffff1660e01b8152600401600060405180830381865afa15801562000217573d6000803e3d6000fd5b505050506040513d6000823e3d601f19601f8201168201806040525081019062000242919062001179565b60000151620002529190620011f9565b915062000264620005fd60201b60201c565b505b60405180610160016040528082815260200142815260200183426200028c9190620011f9565b8152602001600015158152602001600067ffffffffffffffff811115620002b857620002b762000d1b565b5b604051908082528060200260200182016040528015620002e75781602001602082028036833780820191505090505b508152602001600067ffffffffffffffff8111156200030b576200030a62000d1b565b5b6040519080825280602002602001820160405280156200033a5781602001602082028036833780820191505090505b508152602001600061ffff168152602001600067ffffffffffffffff81111562000369576200036862000d1b565b5b604051908082528060200260200182016040528015620003985781602001602082028036833780820191505090505b508152602001600061ffff168152602001600067ffffffffffffffff811115620003c757620003c662000d1b565b5b604051908082528060200260200182016040528015620003f65781602001602082028036833780820191505090505b508152602001600061ffff16815250600160008201518160000155602082015181600101556040820151816002015560608201518160030160006101000a81548160ff02191690831515021790555060808201518160040190805190602001906200046392919062000aba565b5060a08201518160050190805190602001906200048292919062000b6b565b5060c08201518160060160006101000a81548161ffff021916908361ffff16021790555060e0820151816007019080519060200190620004c492919062000b6b565b506101008201518160080160006101000a81548161ffff021916908361ffff1602179055506101208201518160090190805190602001906200050892919062000b6b565b5061014082015181600a0160006101000a81548161ffff021916908361ffff160217905550905050505050620013b1565b60008060009054906101000a900473ffffffffffffffffffffffffffffffffffffffff169050816000806101000a81548173ffffffffffffffffffffffffffffffffffffffff021916908373ffffffffffffffffffffffffffffffffffffffff1602179055508173ffffffffffffffffffffffffffffffffffffffff168173ffffffffffffffffffffffffffffffffffffffff167f8be0079c531659141344cd1fd0a4f28419497f9722a3daafe3b4186f6b6457e060405160405180910390a35050565b6000601860009054906101000a900473ffffffffffffffffffffffffffffffffffffffff169050620007248173ffffffffffffffffffffffffffffffffffffffff1663d54ad2a16040518163ffffffff1660e01b8152600401602060405180830381865afa15801562000674573d6000803e3d6000fd5b505050506040513d601f19601f820116820180604052508101906200069a919062001234565b8273ffffffffffffffffffffffffffffffffffffffff166317fe23996040518163ffffffff1660e01b8152600401602060405180830381865afa158015620006e6573d6000803e3d6000fd5b505050506040513d601f19601f820116820180604052508101906200070c919062001234565b62000718919062001266565b6200072760201b60201c565b50565b620007376200090f60201b60201c565b6200079d81601960086009811115620007555762000754620012a1565b5b81548110620007695762000768620012d0565b5b90600052602060002090601091828204019190066002029054906101000a900461ffff1661ffff16620009b160201b60201c565b6200080382601960076009811115620007bb57620007ba620012a1565b5b81548110620007cf57620007ce620012d0565b5b90600052602060002090601091828204019190066002029054906101000a900461ffff1661ffff16620009b160201b60201c565b8262000810919062001266565b6200081c919062001266565b601560008282546200082f9190620011f9565b9250508190555060005b60098110156200090b576200089382601983815481106200085f576200085e620012d0565b5b90600052602060002090601091828204019190066002029054906101000a900461ffff1661ffff16620009b160201b60201c565b60136000836009811115620008ad57620008ac620012a1565b5b6009811115620008c257620008c1620012a1565b5b6009811115620008d757620008d6620012a1565b5b81526020019081526020016000206000828254620008f69190620011f9565b92505081905550808060010191505062000839565b5050565b6200091f620009d860201b60201c565b73ffffffffffffffffffffffffffffffffffffffff1662000945620009e060201b60201c565b73ffffffffffffffffffffffffffffffffffffffff1614620009af5762000971620009d860201b60201c565b6040517f118cdaa7000000000000000000000000000000000000000000000000000000008152600401620009a6919062000ce8565b60405180910390fd5b565b60006127108284620009c49190620012ff565b620009d0919062001379565b905092915050565b600033905090565b60008060009054906101000a900473ffffffffffffffffffffffffffffffffffffffff16905090565b82805482825590600052602060002090600f0160109004810192821562000aa75791602002820160005b8382111562000a7557835183826101000a81548161ffff021916908361ffff160217905550926020019260020160208160010104928301926001030262000a33565b801562000aa55782816101000a81549061ffff021916905560020160208160010104928301926001030262000a75565b505b50905062000ab6919062000bbd565b5090565b82805482825590600052602060002090600f0160109004810192821562000b585791602002820160005b8382111562000b2657835183826101000a81548161ffff021916908361ffff160217905550926020019260020160208160010104928301926001030262000ae4565b801562000b565782816101000a81549061ffff021916905560020160208160010104928301926001030262000b26565b505b50905062000b67919062000bbd565b5090565b82805482825590600052602060002090810192821562000baa579160200282015b8281111562000ba957825182559160200191906001019062000b8c565b5b50905062000bb9919062000bbd565b5090565b5b8082111562000bd857600081600090555060010162000bbe565b5090565b6000604051905090565b600080fd5b600080fd5b600073ffffffffffffffffffffffffffffffffffffffff82169050919050565b600062000c1d8262000bf0565b9050919050565b62000c2f8162000c10565b811462000c3b57600080fd5b50565b60008151905062000c4f8162000c24565b92915050565b6000819050919050565b62000c6a8162000c55565b811462000c7657600080fd5b50565b60008151905062000c8a8162000c5f565b92915050565b6000806040838503121562000caa5762000ca962000be6565b5b600062000cba8582860162000c3e565b925050602062000ccd8582860162000c79565b9150509250929050565b62000ce28162000c10565b82525050565b600060208201905062000cff600083018462000cd7565b92915050565b600080fd5b6000601f19601f8301169050919050565b7f4e487b7100000000000000000000000000000000000000000000000000000000600052604160045260246000fd5b62000d558262000d0a565b810181811067ffffffffffffffff8211171562000d775762000d7662000d1b565b5b80604052505050565b600062000d8c62000bdc565b905062000d9a828262000d4a565b919050565b600080fd5b60008115159050919050565b62000dbb8162000da4565b811462000dc757600080fd5b50565b60008151905062000ddb8162000db0565b92915050565b600080fd5b600067ffffffffffffffff82111562000e045762000e0362000d1b565b5b602082029050602081019050919050565b600080fd5b600061ffff82169050919050565b62000e338162000e1a565b811462000e3f57600080fd5b50565b60008151905062000e538162000e28565b92915050565b600062000e7062000e6a8462000de6565b62000d80565b9050808382526020820190506020840283018581111562000e965762000e9562000e15565b5b835b8181101562000ec3578062000eae888262000e42565b84526020840193505060208101905062000e98565b5050509392505050565b600082601f83011262000ee55762000ee462000de1565b5b815162000ef784826020860162000e59565b91505092915050565b600067ffffffffffffffff82111562000f1e5762000f1d62000d1b565b5b602082029050602081019050919050565b600062000f4662000f408462000f00565b62000d80565b9050808382526020820190506020840283018581111562000f6c5762000f6b62000e15565b5b835b8181101562000f99578062000f84888262000c79565b84526020840193505060208101905062000f6e565b5050509392505050565b600082601f83011262000fbb5762000fba62000de1565b5b815162000fcd84826020860162000f2f565b91505092915050565b6000610160828403121562000ff05762000fef62000d05565b5b62000ffd61016062000d80565b905060006200100f8482850162000c79565b6000830152506020620010258482850162000c79565b60208301525060406200103b8482850162000c79565b6040830152506060620010518482850162000dca565b606083015250608082015167ffffffffffffffff81111562001078576200107762000d9f565b5b620010868482850162000ecd565b60808301525060a082015167ffffffffffffffff811115620010ad57620010ac62000d9f565b5b620010bb8482850162000fa3565b60a08301525060c0620010d18482850162000e42565b60c08301525060e082015167ffffffffffffffff811115620010f857620010f762000d9f565b5b620011068482850162000fa3565b60e0830152506101006200111d8482850162000e42565b6101008301525061012082015167ffffffffffffffff81111562001146576200114562000d9f565b5b620011548482850162000fa3565b610120830152506101406200116c8482850162000e42565b6101408301525092915050565b60006020828403121562001192576200119162000be6565b5b600082015167ffffffffffffffff811115620011b357620011b262000beb565b5b620011c18482850162000fd6565b91505092915050565b7f4e487b7100000000000000000000000000000000000000000000000000000000600052601160045260246000fd5b6000620012068262000c55565b9150620012138362000c55565b92508282019050808211156200122e576200122d620011ca565b5b92915050565b6000602082840312156200124d576200124c62000be6565b5b60006200125d8482850162000c79565b91505092915050565b6000620012738262000c55565b9150620012808362000c55565b92508282039050818111156200129b576200129a620011ca565b5b92915050565b7f4e487b7100000000000000000000000000000000000000000000000000000000600052602160045260246000fd5b7f4e487b7100000000000000000000000000000000000000000000000000000000600052603260045260246000fd5b60006200130c8262000c55565b9150620013198362000c55565b9250828202620013298162000c55565b91508282048414831517620013435762001342620011ca565b5b5092915050565b7f4e487b7100000000000000000000000000000000000000000000000000000000600052601260045260246000fd5b6000620013868262000c55565b9150620013938362000c55565b925082620013a657620013a56200134a565b5b828204905092915050565b613a8780620013c16000396000f3fe608060405234801561001057600080fd5b506004361061021c5760003560e01c80638da5cb5b11610125578063d54ad2a1116100ad578063e2e308301161007c578063e2e3083014610697578063e65b76a9146106c7578063eb7165fa146106f7578063efa3d53114610713578063f2fde38b146107435761021c565b8063d54ad2a11461060f578063dd85ae5f1461062d578063df28f24b1461065d578063e278fe6f1461068d5761021c565b8063af33d08f116100f4578063af33d08f14610559578063b217be0514610589578063b288e1a9146105b9578063b56c12b4146105d7578063b82e18ff146105f35761021c565b80638da5cb5b146104d15780639469f293146104ef5780639b7be8fc1461050b5780639f8743f71461053b5761021c565b806336324a5d116101a857806358371dc61161017757806358371dc61461041b578063598f3b9d1461044b578063659a8d861461047b578063715018a6146104ab57806385a70d0f146104b55761021c565b806336324a5d146103515780633ed91226146103815780634e9eba1d146103b657806350b44712146103e65761021c565b806317fe2399116101ef57806317fe2399146102c15780632724d104146102df57806327e4de61146102fb5780632ed4851514610317578063343f2566146103475761021c565b806308469cc61461022157806308bb71cd146102515780630cee803c14610281578063146ca5311461029d575b600080fd5b61023b600480360381019061023691906125b8565b61075f565b6040516102489190612600565b60405180910390f35b61026b60048036038101906102669190612679565b610778565b60405161027891906126b5565b60405180910390f35b61029b600480360381019061029691906126d0565b610790565b005b6102a561082f565b6040516102b8979695949392919061272d565b60405180910390f35b6102c9610896565b6040516102d691906126b5565b60405180910390f35b6102f960048036038101906102f49190612921565b61089c565b005b61031560048036038101906103109190612cc9565b6108fd565b005b610331600480360381019061032c91906126d0565b610acd565b60405161033e91906126b5565b60405180910390f35b61034f610af0565b005b61036b600480360381019061036691906125b8565b610b85565b6040516103789190612600565b60405180910390f35b61039b600480360381019061039691906125b8565b610b9e565b6040516103ad96959493929190612d50565b60405180910390f35b6103d060048036038101906103cb9190612db1565b610c44565b6040516103dd91906126b5565b60405180910390f35b61040060048036038101906103fb91906125b8565b610c5c565b60405161041296959493929190612e55565b60405180910390f35b610435600480360381019061043091906125b8565b610d02565b6040516104429190612eb6565b60405180910390f35b610465600480360381019061046091906125b8565b610d3a565b6040516104729190612f8f565b60405180910390f35b61049560048036038101906104909190612fb1565b610dcd565b6040516104a291906126b5565b60405180910390f35b6104b3610dfe565b005b6104cf60048036038101906104ca9190612ff1565b610e12565b005b6104d9611079565b6040516104e6919061304d565b60405180910390f35b61050960048036038101906105049190613068565b6110a2565b005b610525600480360381019061052091906125b8565b6110c4565b6040516105329190613168565b60405180910390f35b610543611216565b60405161055091906133a5565b60405180910390f35b610573600480360381019061056e91906125b8565b611452565b60405161058091906126b5565b60405180910390f35b6105a3600480360381019061059e91906126d0565b6114a1565b6040516105b09190612eb6565b60405180910390f35b6105c16114e8565b6040516105ce919061304d565b60405180910390f35b6105f160048036038101906105ec91906125b8565b61150e565b005b61060d60048036038101906106089190612cc9565b6116b4565b005b6106176118a7565b60405161062491906126b5565b60405180910390f35b610647600480360381019061064291906125b8565b6118ad565b6040516106549190613442565b60405180910390f35b61067760048036038101906106729190612679565b6119df565b60405161068491906126b5565b60405180910390f35b6106956119f7565b005b6106b160048036038101906106ac9190612db1565b611a66565b6040516106be91906126b5565b60405180910390f35b6106e160048036038101906106dc9190612fb1565b611a7e565b6040516106ee91906126b5565b60405180910390f35b610711600480360381019061070c919061345d565b611aaf565b005b61072d60048036038101906107289190612db1565b61211f565b60405161073a91906126b5565b60405180910390f35b61075d60048036038101906107589190612679565b612137565b005b60008082118015610771575060458211155b9050919050565b60126020528060005260406000206000915090505481565b6107986121bd565b6000601083815481106107ae576107ad6134e0565b5b9060005260206000209060050201905060018160040160016101000a81548160ff0219169083151502179055508160146000600660098111156107f4576107f3612dde565b5b600981111561080657610805612dde565b5b81526020019081526020016000206000828254610823919061353e565b92505081905550505050565b60018060000154908060010154908060020154908060030160009054906101000a900460ff16908060060160009054906101000a900461ffff16908060080160009054906101000a900461ffff169080600a0160009054906101000a900461ffff16905087565b60155481565b6108a46121bd565b81600160040190805190602001906108bd929190612310565b5080600160050190805190602001906108d79291906123ba565b508051600160060160006101000a81548161ffff021916908361ffff1602179055505050565b6109056121bd565b60005b82518110156109ea576000838281518110610926576109256134e0565b5b602002602001015190506000600c82600001518154811061094a576109496134e0565b5b9060005260206000209060050201905081604001518160040160006101000a81548160ff0219169083600981111561098557610984612dde565b5b021790555060176000836040015160098111156109a5576109a4612dde565b5b60098111156109b7576109b6612dde565b5b815260200190815260200160002060008154809291906109d690613572565b919050555050508080600101915050610908565b5060005b8151811015610ac8576000828281518110610a0c57610a0b6134e0565b5b6020026020010151905060006010826000015181548110610a3057610a2f6134e0565b5b9060005260206000209060050201905081608001518160040160006101000a81548160ff021916908315150217905550816080015115610ab9576017600060066009811115610a8257610a81612dde565b5b6009811115610a9457610a93612dde565b5b81526020019081526020016000206000815480929190610ab390613572565b91905055505b505080806001019150506109ee565b505050565b60006127108284610ade91906135ba565b610ae8919061362b565b905092915050565b600160020154421015610b38576040517f08c379a0000000000000000000000000000000000000000000000000000000008152600401610b2f906136b9565b60405180910390fd5b600060016004018054905014610b83576040517f08c379a0000000000000000000000000000000000000000000000000000000008152600401610b7a90613725565b60405180910390fd5b565b60008082118015610b975750601a8211155b9050919050565b60108181548110610bae57600080fd5b90600052602060002090600502016000915090508060000154908060010160009054906101000a900473ffffffffffffffffffffffffffffffffffffffff16908060020160009054906101000a900473ffffffffffffffffffffffffffffffffffffffff16908060030154908060040160009054906101000a900460ff16908060040160019054906101000a900460ff16905086565b60146020528060005260406000206000915090505481565b600c8181548110610c6c57600080fd5b90600052602060002090600502016000915090508060000154908060010160009054906101000a900473ffffffffffffffffffffffffffffffffffffffff16908060020160009054906101000a900473ffffffffffffffffffffffffffffffffffffffff16908060020160149054906101000a900460ff16908060030154908060040160009054906101000a900460ff16905086565b60198181548110610d1257600080fd5b9060005260206000209060109182820401919006600202915054906101000a900461ffff1681565b6060600d6000838152602001908152602001600020805480602002602001604051908101604052809291908181526020018280548015610dc157602002820191906000526020600020906000905b82829054906101000a900461ffff1661ffff1681526020019060020190602082600101049283019260010382029150808411610d885790505b50505050509050919050565b60116020528160005260406000208181548110610de957600080fd5b90600052602060002001600091509150505481565b610e066121bd565b610e106000612244565b565b610e1a6121bd565b600073ffffffffffffffffffffffffffffffffffffffff163273ffffffffffffffffffffffffffffffffffffffff1603610e89576040517f08c379a0000000000000000000000000000000000000000000000000000000008152600401610e8090613791565b60405180910390fd5b6001600201544210610ed0576040517f08c379a0000000000000000000000000000000000000000000000000000000008152600401610ec7906137fd565b60405180910390fd5b6006825114610f14576040517f08c379a0000000000000000000000000000000000000000000000000000000008152600401610f0b90613869565b60405180910390fd5b60005b60018351610f259190613889565b811015610f9f57610f53838281518110610f4257610f416134e0565b5b602002602001015161ffff1661075f565b610f92576040517f08c379a0000000000000000000000000000000000000000000000000000000008152600401610f8990613909565b60405180910390fd5b8080600101915050610f17565b50610fc882600581518110610fb757610fb66134e0565b5b602002602001015161ffff16610b85565b611007576040517f08c379a0000000000000000000000000000000000000000000000000000000008152600401610ffe90613975565b60405180910390fd5b3273ffffffffffffffffffffffffffffffffffffffff168173ffffffffffffffffffffffffffffffffffffffff1603611075576040517f08c379a000000000000000000000000000000000000000000000000000000000815260040161106c90613a07565b60405180910390fd5b5050565b60008060009054906101000a900473ffffffffffffffffffffffffffffffffffffffff16905090565b6110aa6121bd565b80601990805190602001906110c0929190612310565b5050565b6110cc61240d565b600c82815481106110e0576110df6134e0565b5b90600052602060002090600502016040518060c0016040529081600082015481526020016001820160009054906101000a900473ffffffffffffffffffffffffffffffffffffffff1673ffffffffffffffffffffffffffffffffffffffff1673ffffffffffffffffffffffffffffffffffffffff1681526020016002820160009054906101000a900473ffffffffffffffffffffffffffffffffffffffff1673ffffffffffffffffffffffffffffffffffffffff1673ffffffffffffffffffffffffffffffffffffffff1681526020016002820160149054906101000a900460ff16151515158152602001600382015481526020016004820160009054906101000a900460ff1660098111156111f9576111f8612dde565b5b600981111561120b5761120a612dde565b5b815250509050919050565b61121e612483565b6001604051806101600160405290816000820154815260200160018201548152602001600282015481526020016003820160009054906101000a900460ff16151515158152602001600482018054806020026020016040519081016040528092919081815260200182805480156112dc57602002820191906000526020600020906000905b82829054906101000a900461ffff1661ffff16815260200190600201906020826001010492830192600103820291508084116112a35790505b505050505081526020016005820180548060200260200160405190810160405280929190818152602001828054801561133457602002820191906000526020600020905b815481526020019060010190808311611320575b505050505081526020016006820160009054906101000a900461ffff1661ffff1661ffff168152602001600782018054806020026020016040519081016040528092919081815260200182805480156113ac57602002820191906000526020600020905b815481526020019060010190808311611398575b505050505081526020016008820160009054906101000a900461ffff1661ffff1661ffff1681526020016009820180548060200260200160405190810160405280929190818152602001828054801561142457602002820191906000526020600020905b815481526020019060010190808311611410575b50505050508152602001600a820160009054906101000a900461ffff1661ffff1661ffff1681525050905090565b600061149a82601960088154811061146d5761146c6134e0565b5b90600052602060002090601091828204019190066002029054906101000a900461ffff1661ffff16610acd565b9050919050565b600d60205281600052604060002081815481106114bd57600080fd5b9060005260206000209060109182820401919006600202915091509054906101000a900461ffff1681565b601860009054906101000a900473ffffffffffffffffffffffffffffffffffffffff1681565b6115166121bd565b61156e816019600860098111156115305761152f612dde565b5b81548110611541576115406134e0565b5b90600052602060002090601091828204019190066002029054906101000a900461ffff1661ffff16610acd565b6115c68260196007600981111561158857611587612dde565b5b81548110611599576115986134e0565b5b90600052602060002090601091828204019190066002029054906101000a900461ffff1661ffff16610acd565b826115d19190613889565b6115db9190613889565b601560008282546115ec919061353e565b9250508190555060005b60098110156116b0576116448260198381548110611617576116166134e0565b5b90600052602060002090601091828204019190066002029054906101000a900461ffff1661ffff16610acd565b6013600083600981111561165b5761165a612dde565b5b600981111561166d5761166c612dde565b5b600981111561167f5761167e612dde565b5b8152602001908152602001600020600082825461169c919061353e565b9250508190555080806001019150506115f6565b5050565b6116bc6121bd565b60005b82518110156117b05760008382815181106116dd576116dc6134e0565b5b602002602001015190506000600c826000015181548110611701576117006134e0565b5b9060005260206000209060050201905060018160020160146101000a81548160ff0219169083151502179055508160a00151601460008460400151600981111561174e5761174d612dde565b5b60098111156117605761175f612dde565b5b8152602001908152602001600020600082825461177d919061353e565b925050819055508160a001516016600082825461179a919061353e565b92505081905550505080806001019150506116bf565b5060005b81518110156118a25760008282815181106117d2576117d16134e0565b5b60200260200101519050600060108260000151815481106117f6576117f56134e0565b5b9060005260206000209060050201905060018160040160016101000a81548160ff0219169083151502179055508160c0015160146000600660098111156118405761183f612dde565b5b600981111561185257611851612dde565b5b8152602001908152602001600020600082825461186f919061353e565b925050819055508160c001516016600082825461188c919061353e565b92505081905550505080806001019150506117b4565b505050565b60165481565b6118b56124eb565b601082815481106118c9576118c86134e0565b5b90600052602060002090600502016040518060c0016040529081600082015481526020016001820160009054906101000a900473ffffffffffffffffffffffffffffffffffffffff1673ffffffffffffffffffffffffffffffffffffffff1673ffffffffffffffffffffffffffffffffffffffff1681526020016002820160009054906101000a900473ffffffffffffffffffffffffffffffffffffffff1673ffffffffffffffffffffffffffffffffffffffff1673ffffffffffffffffffffffffffffffffffffffff168152602001600382015481526020016004820160009054906101000a900460ff161515151581526020016004820160019054906101000a900460ff1615151515815250509050919050565b600f6020528060005260406000206000915090505481565b6119ff6121bd565b600160020154421015611a47576040517f08c379a0000000000000000000000000000000000000000000000000000000008152600401611a3e906136b9565b60405180910390fd5b60018060030160006101000a81548160ff021916908315150217905550565b60136020528060005260406000206000915090505481565b600e6020528160005260406000208181548110611a9a57600080fd5b90600052602060002001600091509150505481565b611ab76121bd565b611ac18383610e12565b6000600c805490509050600c6040518060c001604052808381526020018473ffffffffffffffffffffffffffffffffffffffff1681526020018573ffffffffffffffffffffffffffffffffffffffff168152602001600015158152602001878152602001600980811115611b3857611b37612dde565b5b81525090806001815401808255809150506001900390600052602060002090600502016000909190919091506000820151816000015560208201518160010160006101000a81548173ffffffffffffffffffffffffffffffffffffffff021916908373ffffffffffffffffffffffffffffffffffffffff16021790555060408201518160020160006101000a81548173ffffffffffffffffffffffffffffffffffffffff021916908373ffffffffffffffffffffffffffffffffffffffff16021790555060608201518160020160146101000a81548160ff0219169083151502179055506080820151816003015560a08201518160040160006101000a81548160ff02191690836009811115611c5157611c50612dde565b5b0217905550505060005b8451811015611ce657600d6000838152602001908152602001600020858281518110611c8a57611c896134e0565b5b602002602001015190806001815401808255809150506001900390600052602060002090601091828204019190066002029091909190916101000a81548161ffff021916908361ffff1602179055508080600101915050611c5b565b5060016007018190806001815401808255809150506001900390600052602060002001600090919091909150556001600801600081819054906101000a900461ffff1680929190611d3690613a27565b91906101000a81548161ffff021916908361ffff16021790555050600e60008373ffffffffffffffffffffffffffffffffffffffff1673ffffffffffffffffffffffffffffffffffffffff1681526020019081526020016000206001600c80549050611da29190613889565b9080600181540180825580915050600190039060005260206000200160009091909190915055600f60008373ffffffffffffffffffffffffffffffffffffffff1673ffffffffffffffffffffffffffffffffffffffff1681526020019081526020016000206000815480929190611e1890613572565b9190505550600073ffffffffffffffffffffffffffffffffffffffff168373ffffffffffffffffffffffffffffffffffffffff1614612118576000601080549050905060016009018190806001815401808255809150506001900390600052602060002001600090919091909150556001600a01600081819054906101000a900461ffff1680929190611eaa90613a27565b91906101000a81548161ffff021916908361ffff1602179055505060106040518060c001604052808381526020018573ffffffffffffffffffffffffffffffffffffffff1681526020018673ffffffffffffffffffffffffffffffffffffffff1681526020016001600a0160009054906101000a900461ffff1661ffff1681526020016000151581526020016000151581525090806001815401808255809150506001900390600052602060002090600502016000909190919091506000820151816000015560208201518160010160006101000a81548173ffffffffffffffffffffffffffffffffffffffff021916908373ffffffffffffffffffffffffffffffffffffffff16021790555060408201518160020160006101000a81548173ffffffffffffffffffffffffffffffffffffffff021916908373ffffffffffffffffffffffffffffffffffffffff1602179055506060820151816003015560808201518160040160006101000a81548160ff02191690831515021790555060a08201518160040160016101000a81548160ff0219169083151502179055505050601160008573ffffffffffffffffffffffffffffffffffffffff1673ffffffffffffffffffffffffffffffffffffffff168152602001908152602001600020600160108054905061209b9190613889565b9080600181540180825580915050600190039060005260206000200160009091909190915055601260008573ffffffffffffffffffffffffffffffffffffffff1673ffffffffffffffffffffffffffffffffffffffff168152602001908152602001600020600081548092919061211190613572565b9190505550505b5050505050565b60176020528060005260406000206000915090505481565b61213f6121bd565b600073ffffffffffffffffffffffffffffffffffffffff168173ffffffffffffffffffffffffffffffffffffffff16036121b15760006040517f1e4fbdf70000000000000000000000000000000000000000000000000000000081526004016121a8919061304d565b60405180910390fd5b6121ba81612244565b50565b6121c5612308565b73ffffffffffffffffffffffffffffffffffffffff166121e3611079565b73ffffffffffffffffffffffffffffffffffffffff161461224257612206612308565b6040517f118cdaa7000000000000000000000000000000000000000000000000000000008152600401612239919061304d565b60405180910390fd5b565b60008060009054906101000a900473ffffffffffffffffffffffffffffffffffffffff169050816000806101000a81548173ffffffffffffffffffffffffffffffffffffffff021916908373ffffffffffffffffffffffffffffffffffffffff1602179055508173ffffffffffffffffffffffffffffffffffffffff168173ffffffffffffffffffffffffffffffffffffffff167f8be0079c531659141344cd1fd0a4f28419497f9722a3daafe3b4186f6b6457e060405160405180910390a35050565b600033905090565b82805482825590600052602060002090600f016010900481019282156123a95791602002820160005b8382111561237957835183826101000a81548161ffff021916908361ffff1602179055509260200192600201602081600101049283019260010302612339565b80156123a75782816101000a81549061ffff0219169055600201602081600101049283019260010302612379565b505b5090506123b69190612551565b5090565b8280548282559060005260206000209081019282156123fc579160200282015b828111156123fb578251829061ffff169055916020019190600101906123da565b5b5090506124099190612551565b5090565b6040518060c0016040528060008152602001600073ffffffffffffffffffffffffffffffffffffffff168152602001600073ffffffffffffffffffffffffffffffffffffffff168152602001600015158152602001600081526020016000600981111561247d5761247c612dde565b5b81525090565b6040518061016001604052806000815260200160008152602001600081526020016000151581526020016060815260200160608152602001600061ffff16815260200160608152602001600061ffff16815260200160608152602001600061ffff1681525090565b6040518060c0016040528060008152602001600073ffffffffffffffffffffffffffffffffffffffff168152602001600073ffffffffffffffffffffffffffffffffffffffff168152602001600081526020016000151581526020016000151581525090565b5b8082111561256a576000816000905550600101612552565b5090565b6000604051905090565b600080fd5b600080fd5b6000819050919050565b61259581612582565b81146125a057600080fd5b50565b6000813590506125b28161258c565b92915050565b6000602082840312156125ce576125cd612578565b5b60006125dc848285016125a3565b91505092915050565b60008115159050919050565b6125fa816125e5565b82525050565b600060208201905061261560008301846125f1565b92915050565b600073ffffffffffffffffffffffffffffffffffffffff82169050919050565b60006126468261261b565b9050919050565b6126568161263b565b811461266157600080fd5b50565b6000813590506126738161264d565b92915050565b60006020828403121561268f5761268e612578565b5b600061269d84828501612664565b91505092915050565b6126af81612582565b82525050565b60006020820190506126ca60008301846126a6565b92915050565b600080604083850312156126e7576126e6612578565b5b60006126f5858286016125a3565b9250506020612706858286016125a3565b9150509250929050565b600061ffff82169050919050565b61272781612710565b82525050565b600060e082019050612742600083018a6126a6565b61274f60208301896126a6565b61275c60408301886126a6565b61276960608301876125f1565b612776608083018661271e565b61278360a083018561271e565b61279060c083018461271e565b98975050505050505050565b600080fd5b6000601f19601f8301169050919050565b7f4e487b7100000000000000000000000000000000000000000000000000000000600052604160045260246000fd5b6127ea826127a1565b810181811067ffffffffffffffff82111715612809576128086127b2565b5b80604052505050565b600061281c61256e565b905061282882826127e1565b919050565b600067ffffffffffffffff821115612848576128476127b2565b5b602082029050602081019050919050565b600080fd5b61286781612710565b811461287257600080fd5b50565b6000813590506128848161285e565b92915050565b600061289d6128988461282d565b612812565b905080838252602082019050602084028301858111156128c0576128bf612859565b5b835b818110156128e957806128d58882612875565b8452602084019350506020810190506128c2565b5050509392505050565b600082601f8301126129085761290761279c565b5b813561291884826020860161288a565b91505092915050565b6000806040838503121561293857612937612578565b5b600083013567ffffffffffffffff8111156129565761295561257d565b5b612962858286016128f3565b925050602083013567ffffffffffffffff8111156129835761298261257d565b5b61298f858286016128f3565b9150509250929050565b600067ffffffffffffffff8211156129b4576129b36127b2565b5b602082029050602081019050919050565b600080fd5b600a81106129d757600080fd5b50565b6000813590506129e9816129ca565b92915050565b6129f8816125e5565b8114612a0357600080fd5b50565b600081359050612a15816129ef565b92915050565b600060c08284031215612a3157612a306129c5565b5b612a3b60c0612812565b90506000612a4b848285016125a3565b6000830152506020612a5f84828501612664565b6020830152506040612a73848285016129da565b6040830152506060612a8784828501612a06565b6060830152506080612a9b84828501612a06565b60808301525060a0612aaf848285016125a3565b60a08301525092915050565b6000612ace612ac984612999565b612812565b90508083825260208201905060c08402830185811115612af157612af0612859565b5b835b81811015612b1a5780612b068882612a1b565b84526020840193505060c081019050612af3565b5050509392505050565b600082601f830112612b3957612b3861279c565b5b8135612b49848260208601612abb565b91505092915050565b600067ffffffffffffffff821115612b6d57612b6c6127b2565b5b602082029050602081019050919050565b600060e08284031215612b9457612b936129c5565b5b612b9e60e0612812565b90506000612bae848285016125a3565b6000830152506020612bc284828501612664565b6020830152506040612bd684828501612664565b6040830152506060612bea848285016125a3565b6060830152506080612bfe84828501612a06565b60808301525060a0612c1284828501612a06565b60a08301525060c0612c26848285016125a3565b60c08301525092915050565b6000612c45612c4084612b52565b612812565b90508083825260208201905060e08402830185811115612c6857612c67612859565b5b835b81811015612c915780612c7d8882612b7e565b84526020840193505060e081019050612c6a565b5050509392505050565b600082601f830112612cb057612caf61279c565b5b8135612cc0848260208601612c32565b91505092915050565b60008060408385031215612ce057612cdf612578565b5b600083013567ffffffffffffffff811115612cfe57612cfd61257d565b5b612d0a85828601612b24565b925050602083013567ffffffffffffffff811115612d2b57612d2a61257d565b5b612d3785828601612c9b565b9150509250929050565b612d4a8161263b565b82525050565b600060c082019050612d6560008301896126a6565b612d726020830188612d41565b612d7f6040830187612d41565b612d8c60608301866126a6565b612d9960808301856125f1565b612da660a08301846125f1565b979650505050505050565b600060208284031215612dc757612dc6612578565b5b6000612dd5848285016129da565b91505092915050565b7f4e487b7100000000000000000000000000000000000000000000000000000000600052602160045260246000fd5b600a8110612e1e57612e1d612dde565b5b50565b6000819050612e2f82612e0d565b919050565b6000612e3f82612e21565b9050919050565b612e4f81612e34565b82525050565b600060c082019050612e6a60008301896126a6565b612e776020830188612d41565b612e846040830187612d41565b612e9160608301866125f1565b612e9e60808301856126a6565b612eab60a0830184612e46565b979650505050505050565b6000602082019050612ecb600083018461271e565b92915050565b600081519050919050565b600082825260208201905092915050565b6000819050602082019050919050565b612f0681612710565b82525050565b6000612f188383612efd565b60208301905092915050565b6000602082019050919050565b6000612f3c82612ed1565b612f468185612edc565b9350612f5183612eed565b8060005b83811015612f82578151612f698882612f0c565b9750612f7483612f24565b925050600181019050612f55565b5085935050505092915050565b60006020820190508181036000830152612fa98184612f31565b905092915050565b60008060408385031215612fc857612fc7612578565b5b6000612fd685828601612664565b9250506020612fe7858286016125a3565b9150509250929050565b6000806040838503121561300857613007612578565b5b600083013567ffffffffffffffff8111156130265761302561257d565b5b613032858286016128f3565b925050602061304385828601612664565b9150509250929050565b60006020820190506130626000830184612d41565b92915050565b60006020828403121561307e5761307d612578565b5b600082013567ffffffffffffffff81111561309c5761309b61257d565b5b6130a8848285016128f3565b91505092915050565b6130ba81612582565b82525050565b6130c98161263b565b82525050565b6130d8816125e5565b82525050565b6130e781612e34565b82525050565b60c08201600082015161310360008501826130b1565b50602082015161311660208501826130c0565b50604082015161312960408501826130c0565b50606082015161313c60608501826130cf565b50608082015161314f60808501826130b1565b5060a082015161316260a08501826130de565b50505050565b600060c08201905061317d60008301846130ed565b92915050565b600082825260208201905092915050565b600061319f82612ed1565b6131a98185613183565b93506131b483612eed565b8060005b838110156131e55781516131cc8882612f0c565b97506131d783612f24565b9250506001810190506131b8565b5085935050505092915050565b600081519050919050565b600082825260208201905092915050565b6000819050602082019050919050565b600061322a83836130b1565b60208301905092915050565b6000602082019050919050565b600061324e826131f2565b61325881856131fd565b93506132638361320e565b8060005b8381101561329457815161327b888261321e565b975061328683613236565b925050600181019050613267565b5085935050505092915050565b6000610160830160008301516132ba60008601826130b1565b5060208301516132cd60208601826130b1565b5060408301516132e060408601826130b1565b5060608301516132f360608601826130cf565b506080830151848203608086015261330b8282613194565b91505060a083015184820360a08601526133258282613243565b91505060c083015161333a60c0860182612efd565b5060e083015184820360e08601526133528282613243565b915050610100830151613369610100860182612efd565b506101208301518482036101208601526133838282613243565b91505061014083015161339a610140860182612efd565b508091505092915050565b600060208201905081810360008301526133bf81846132a1565b905092915050565b60c0820160008201516133dd60008501826130b1565b5060208201516133f060208501826130c0565b50604082015161340360408501826130c0565b50606082015161341660608501826130b1565b50608082015161342960808501826130cf565b5060a082015161343c60a08501826130cf565b50505050565b600060c08201905061345760008301846133c7565b92915050565b6000806000806080858703121561347757613476612578565b5b6000613485878288016125a3565b945050602085013567ffffffffffffffff8111156134a6576134a561257d565b5b6134b2878288016128f3565b93505060406134c387828801612664565b92505060606134d487828801612664565b91505092959194509250565b7f4e487b7100000000000000000000000000000000000000000000000000000000600052603260045260246000fd5b7f4e487b7100000000000000000000000000000000000000000000000000000000600052601160045260246000fd5b600061354982612582565b915061355483612582565b925082820190508082111561356c5761356b61350f565b5b92915050565b600061357d82612582565b91507fffffffffffffffffffffffffffffffffffffffffffffffffffffffffffffffff82036135af576135ae61350f565b5b600182019050919050565b60006135c582612582565b91506135d083612582565b92508282026135de81612582565b915082820484148315176135f5576135f461350f565b5b5092915050565b7f4e487b7100000000000000000000000000000000000000000000000000000000600052601260045260246000fd5b600061363682612582565b915061364183612582565b925082613651576136506135fc565b5b828204905092915050565b600082825260208201905092915050565b7f526f756e64206973206e6f74206f766572207965740000000000000000000000600082015250565b60006136a360158361365c565b91506136ae8261366d565b602082019050919050565b600060208201905081810360008301526136d281613696565b9050919050565b7f57696e6e696e67206e756d6265727320616c7265616479207365740000000000600082015250565b600061370f601b8361365c565b915061371a826136d9565b602082019050919050565b6000602082019050818103600083015261373e81613702565b9050919050565b7f496e76616c69642073656e646572000000000000000000000000000000000000600082015250565b600061377b600e8361365c565b915061378682613745565b602082019050919050565b600060208201905081810360008301526137aa8161376e565b9050919050565b7f526f756e64206973206f76657200000000000000000000000000000000000000600082015250565b60006137e7600d8361365c565b91506137f2826137b1565b602082019050919050565b60006020820190508181036000830152613816816137da565b9050919050565b7f496e76616c6964206e756d6265727320636f756e740000000000000000000000600082015250565b600061385360158361365c565b915061385e8261381d565b602082019050919050565b6000602082019050818103600083015261388281613846565b9050919050565b600061389482612582565b915061389f83612582565b92508282039050818111156138b7576138b661350f565b5b92915050565b7f496e76616c6964206e756d626572730000000000000000000000000000000000600082015250565b60006138f3600f8361365c565b91506138fe826138bd565b602082019050919050565b60006020820190508181036000830152613922816138e6565b9050919050565b7f496e76616c696420706f776572206e756d626572000000000000000000000000600082015250565b600061395f60148361365c565b915061396a82613929565b602082019050919050565b6000602082019050818103600083015261398e81613952565b9050919050565b7f526566657272616c2063616e6e6f74206265207468652073616d65206173207460008201527f6865207061727469636970616e74000000000000000000000000000000000000602082015250565b60006139f1602e8361365c565b91506139fc82613995565b604082019050919050565b60006020820190508181036000830152613a20816139e4565b9050919050565b6000613a3282612710565b915061ffff8203613a4657613a4561350f565b5b60018201905091905056fea2646970667358221220c179fe14f751219188de1059f69136995a64e7653d5f1e205b2f2ab53d60085d64736f6c63430008180033a2646970667358221220213d729f83d05474868bad2da37992f51e12520da6718710865b375cf923e39564736f6c63430008180033",
  "devdoc": {
    "errors": {
      "OwnableInvalidOwner(address)": [
        {
          "details": "The owner is not a valid owner account. (eg. `address(0)`)"
        }
      ],
      "OwnableUnauthorizedAccount(address)": [
        {
          "details": "The caller account is not authorized to perform an operation."
        }
      ]
    },
    "kind": "dev",
    "methods": {
      "owner()": {
        "details": "Returns the address of the current owner."
      },
      "renounceOwnership()": {
        "details": "Leaves the contract without owner. It will not be possible to call `onlyOwner` functions. Can only be called by the current owner. NOTE: Renouncing ownership will leave the contract without an owner, thereby disabling any functionality that is only available to the owner."
      },
      "transferOwnership(address)": {
        "details": "Transfers ownership of the contract to a new account (`newOwner`). Can only be called by the current owner."
      }
    },
    "version": 1
  },
  "userdoc": {
    "kind": "user",
    "methods": {},
    "version": 1
  },
  "storageLayout": {
    "storage": [
      {
        "astId": 8,
        "contract": "contracts/LotteryRoundCreator.sol:LotteryRoundCreator",
        "label": "_owner",
        "offset": 0,
        "slot": "0",
        "type": "t_address"
      }
    ],
    "types": {
      "t_address": {
        "encoding": "inplace",
        "label": "address",
        "numberOfBytes": "20"
      }
    }
  }
}