{
  "address": "0x92D8A1472CE84ffD0ecc1Fff771a1f3699d9eFbF",
  "abi": [
    {
      "inputs": [],
      "stateMutability": "nonpayable",
      "type": "constructor"
    },
    {
      "inputs": [
        {
          "internalType": "address",
          "name": "target",
          "type": "address"
        }
      ],
      "name": "AddressEmptyCode",
      "type": "error"
    },
    {
      "inputs": [
        {
          "internalType": "address",
          "name": "account",
          "type": "address"
        }
      ],
      "name": "AddressInsufficientBalance",
      "type": "error"
    },
    {
      "inputs": [],
      "name": "FailedInnerCall",
      "type": "error"
    },
    {
      "inputs": [
        {
          "internalType": "address",
          "name": "owner",
          "type": "address"
        }
      ],
      "name": "OwnableInvalidOwner",
      "type": "error"
    },
    {
      "inputs": [
        {
          "internalType": "address",
          "name": "account",
          "type": "address"
        }
      ],
      "name": "OwnableUnauthorizedAccount",
      "type": "error"
    },
    {
      "inputs": [
        {
          "internalType": "address",
          "name": "token",
          "type": "address"
        }
      ],
      "name": "SafeERC20FailedOperation",
      "type": "error"
    },
    {
      "anonymous": false,
      "inputs": [
        {
          "indexed": true,
          "internalType": "address",
          "name": "previousOwner",
          "type": "address"
        },
        {
          "indexed": true,
          "internalType": "address",
          "name": "newOwner",
          "type": "address"
        }
      ],
      "name": "OwnershipTransferred",
      "type": "event"
    },
    {
      "inputs": [
        {
          "internalType": "uint256",
          "name": "roundId",
          "type": "uint256"
        }
      ],
      "name": "amountWonInRound",
      "outputs": [
        {
          "internalType": "uint256",
          "name": "",
          "type": "uint256"
        }
      ],
      "stateMutability": "view",
      "type": "function"
    },
    {
      "inputs": [
        {
          "internalType": "uint256",
          "name": "roundId",
          "type": "uint256"
        },
        {
          "internalType": "uint256",
          "name": "referralTicketId",
          "type": "uint256"
        }
      ],
      "name": "evaluateWonResultsForOneReferralTicket",
      "outputs": [
        {
          "components": [
            {
              "internalType": "uint256",
              "name": "referralTicketId",
              "type": "uint256"
            },
            {
              "internalType": "bool",
              "name": "won",
              "type": "bool"
            }
          ],
          "internalType": "struct ReferralTicketResults",
          "name": "",
          "type": "tuple"
        }
      ],
      "stateMutability": "view",
      "type": "function"
    },
    {
      "inputs": [
        {
          "internalType": "uint256",
          "name": "roundId",
          "type": "uint256"
        },
        {
          "internalType": "uint256",
          "name": "ticketId",
          "type": "uint256"
        }
      ],
      "name": "evaluateWonResultsForOneTicket",
      "outputs": [
        {
          "components": [
            {
              "internalType": "uint256",
              "name": "ticketId",
              "type": "uint256"
            },
            {
              "internalType": "enum RoundVictoryTier",
              "name": "victoryTier",
              "type": "uint8"
            }
          ],
          "internalType": "struct TicketResults",
          "name": "",
          "type": "tuple"
        }
      ],
      "stateMutability": "view",
      "type": "function"
    },
    {
      "inputs": [
        {
          "internalType": "uint256",
          "name": "roundId",
          "type": "uint256"
        }
      ],
      "name": "evaluateWonResultsForReferral",
      "outputs": [
        {
          "components": [
            {
              "internalType": "uint256",
              "name": "referralTicketId",
              "type": "uint256"
            },
            {
              "internalType": "bool",
              "name": "won",
              "type": "bool"
            }
          ],
          "internalType": "struct ReferralTicketResults[]",
          "name": "",
          "type": "tuple[]"
        }
      ],
      "stateMutability": "view",
      "type": "function"
    },
    {
      "inputs": [
        {
          "internalType": "uint256",
          "name": "roundId",
          "type": "uint256"
        }
      ],
      "name": "evaluateWonResultsForTickets",
      "outputs": [
        {
          "components": [
            {
              "internalType": "uint256",
              "name": "ticketId",
              "type": "uint256"
            },
            {
              "internalType": "enum RoundVictoryTier",
              "name": "victoryTier",
              "type": "uint8"
            }
          ],
          "internalType": "struct TicketResults[]",
          "name": "",
          "type": "tuple[]"
        }
      ],
      "stateMutability": "view",
      "type": "function"
    },
    {
      "inputs": [
        {
          "internalType": "uint16",
          "name": "num",
          "type": "uint16"
        },
        {
          "internalType": "uint16[]",
          "name": "arr",
          "type": "uint16[]"
        }
      ],
      "name": "existInArrayNumber",
      "outputs": [
        {
          "internalType": "bool",
          "name": "",
          "type": "bool"
        }
      ],
      "stateMutability": "pure",
      "type": "function"
    },
    {
      "inputs": [
        {
          "internalType": "uint256",
          "name": "randomNumber",
          "type": "uint256"
        },
        {
          "internalType": "uint16",
          "name": "maxValue",
          "type": "uint16"
        },
        {
          "internalType": "uint16[]",
          "name": "arr",
          "type": "uint16[]"
        }
      ],
      "name": "getRandomUniqueNumberInArrayForMaxValue",
      "outputs": [
        {
          "internalType": "uint16",
          "name": "",
          "type": "uint16"
        }
      ],
      "stateMutability": "pure",
      "type": "function"
    },
    {
      "inputs": [],
      "name": "lotteryMaster",
      "outputs": [
        {
          "internalType": "contract LotteryMaster",
          "name": "",
          "type": "address"
        }
      ],
      "stateMutability": "view",
      "type": "function"
    },
    {
      "inputs": [
        {
          "internalType": "uint16",
          "name": "num",
          "type": "uint16"
        },
        {
          "internalType": "uint16[]",
          "name": "arr",
          "type": "uint16[]"
        }
      ],
      "name": "notExistInArrayNumber",
      "outputs": [
        {
          "internalType": "bool",
          "name": "",
          "type": "bool"
        }
      ],
      "stateMutability": "pure",
      "type": "function"
    },
    {
      "inputs": [
        {
          "internalType": "uint256",
          "name": "roundId",
          "type": "uint256"
        }
      ],
      "name": "numberOfReferralWinnersForRoundId",
      "outputs": [
        {
          "internalType": "uint16",
          "name": "",
          "type": "uint16"
        }
      ],
      "stateMutability": "view",
      "type": "function"
    },
    {
      "inputs": [],
      "name": "owner",
      "outputs": [
        {
          "internalType": "address",
          "name": "",
          "type": "address"
        }
      ],
      "stateMutability": "view",
      "type": "function"
    },
    {
      "inputs": [
        {
          "internalType": "uint256",
          "name": "roundId",
          "type": "uint256"
        }
      ],
      "name": "poolForReferral",
      "outputs": [
        {
          "internalType": "uint256",
          "name": "",
          "type": "uint256"
        }
      ],
      "stateMutability": "view",
      "type": "function"
    },
    {
      "inputs": [
        {
          "internalType": "uint256",
          "name": "roundId",
          "type": "uint256"
        },
        {
          "internalType": "enum RoundVictoryTier",
          "name": "victoryTier",
          "type": "uint8"
        }
      ],
      "name": "poolForVictoryTier",
      "outputs": [
        {
          "internalType": "uint256",
          "name": "",
          "type": "uint256"
        }
      ],
      "stateMutability": "view",
      "type": "function"
    },
    {
      "inputs": [],
      "name": "renounceOwnership",
      "outputs": [],
      "stateMutability": "nonpayable",
      "type": "function"
    },
    {
      "inputs": [],
      "name": "sendCryptoToTeam",
      "outputs": [],
      "stateMutability": "nonpayable",
      "type": "function"
    },
    {
      "inputs": [
        {
          "internalType": "address",
          "name": "_token",
          "type": "address"
        }
      ],
      "name": "sendTokenToTeam",
      "outputs": [],
      "stateMutability": "nonpayable",
      "type": "function"
    },
    {
      "inputs": [
        {
          "internalType": "address",
          "name": "_lotteryMaster",
          "type": "address"
        }
      ],
      "name": "setLotteryMaster",
      "outputs": [],
      "stateMutability": "nonpayable",
      "type": "function"
    },
    {
      "inputs": [
        {
          "internalType": "uint16",
          "name": "rightNumbersForTicket",
          "type": "uint16"
        },
        {
          "internalType": "bool",
          "name": "powerNumberFound",
          "type": "bool"
        }
      ],
      "name": "tierFromResults",
      "outputs": [
        {
          "internalType": "enum RoundVictoryTier",
          "name": "",
          "type": "uint8"
        }
      ],
      "stateMutability": "pure",
      "type": "function"
    },
    {
      "inputs": [
        {
          "internalType": "uint256",
          "name": "roundId",
          "type": "uint256"
        }
      ],
      "name": "tokenHoldersPoolAmount",
      "outputs": [
        {
          "internalType": "uint256",
          "name": "",
          "type": "uint256"
        }
      ],
      "stateMutability": "view",
      "type": "function"
    },
    {
      "inputs": [
        {
          "internalType": "address",
          "name": "newOwner",
          "type": "address"
        }
      ],
      "name": "transferOwnership",
      "outputs": [],
      "stateMutability": "nonpayable",
      "type": "function"
    },
    {
      "inputs": [
        {
          "internalType": "uint256",
          "name": "roundId",
          "type": "uint256"
        }
      ],
      "name": "treasuryPoolAmount",
      "outputs": [
        {
          "internalType": "uint256",
          "name": "",
          "type": "uint256"
        }
      ],
      "stateMutability": "view",
      "type": "function"
    },
    {
      "inputs": [
        {
          "internalType": "address",
          "name": "_teamAddress",
          "type": "address"
        }
      ],
      "name": "updateTeamAddress",
      "outputs": [],
      "stateMutability": "nonpayable",
      "type": "function"
    }
  ],
  "transactionHash": "0xffa3a9e480f6137a59082b391503471250931f9a43e71a9dea0ff65e31fd3708",
  "args": [],
  "numDeployments": 2,
  "solcInputHash": "d193324d94de4395a8b1b893c8428bc1",
  "bytecode": "0x60806040523480156200001157600080fd5b503280600073ffffffffffffffffffffffffffffffffffffffff168173ffffffffffffffffffffffffffffffffffffffff1603620000895760006040517f1e4fbdf7000000000000000000000000000000000000000000000000000000008152600401620000809190620001ec565b60405180910390fd5b6200009a81620000e360201b60201c565b5080600160006101000a81548173ffffffffffffffffffffffffffffffffffffffff021916908373ffffffffffffffffffffffffffffffffffffffff1602179055505062000209565b60008060009054906101000a900473ffffffffffffffffffffffffffffffffffffffff169050816000806101000a81548173ffffffffffffffffffffffffffffffffffffffff021916908373ffffffffffffffffffffffffffffffffffffffff1602179055508173ffffffffffffffffffffffffffffffffffffffff168173ffffffffffffffffffffffffffffffffffffffff167f8be0079c531659141344cd1fd0a4f28419497f9722a3daafe3b4186f6b6457e060405160405180910390a35050565b600073ffffffffffffffffffffffffffffffffffffffff82169050919050565b6000620001d482620001a7565b9050919050565b620001e681620001c7565b82525050565b6000602082019050620002036000830184620001db565b92915050565b6137c880620002196000396000f3fe608060405234801561001057600080fd5b50600436106101425760003560e01c806368525a4e116100b8578063bbd1783a1161007c578063bbd1783a146103c1578063c099ae19146103cb578063d856f0d5146103fb578063e34208e61461042b578063f1664df61461045b578063f2fde38b1461048b57610142565b806368525a4e1461031d578063715018a61461034d5780638da5cb5b146103575780638e0e3fcd14610375578063998da3e9146103a557610142565b80633c73b4c41161010a5780633c73b4c41461020f57806349a0a1f61461023f5780634e00b9d31461026f57806359103c121461029f5780635dc9dbe8146102cf57806361ab0c89146102ed57610142565b8063078a6dbf146101475780630c746a8a1461017757806314eb76ac146101a757806322bd49a8146101c35780632aa60170146101df575b600080fd5b610161600480360381019061015c919061262e565b6104a7565b60405161016e91906126c7565b60405180910390f35b610191600480360381019061018c9190612875565b6106ad565b60405161019e91906128f3565b60405180910390f35b6101c160048036038101906101bc919061296c565b610759565b005b6101dd60048036038101906101d8919061296c565b6107a5565b005b6101f960048036038101906101f4919061262e565b6107f1565b6040516102069190612a3f565b60405180910390f35b61022960048036038101906102249190612a5a565b610b30565b6040516102369190612a96565b60405180910390f35b61025960048036038101906102549190612a5a565b610f7e565b6040516102669190612a96565b60405180910390f35b61028960048036038101906102849190612ab1565b6110a9565b6040516102969190612b1c565b60405180910390f35b6102b960048036038101906102b49190612ab1565b6110c3565b6040516102c69190612b1c565b60405180910390f35b6102d7611120565b6040516102e49190612b96565b60405180910390f35b61030760048036038101906103029190612a5a565b611146565b6040516103149190612a96565b60405180910390f35b61033760048036038101906103329190612a5a565b611271565b6040516103449190612a96565b60405180910390f35b61035561139c565b005b61035f6113b0565b60405161036c9190612bc0565b60405180910390f35b61038f600480360381019061038a9190612c00565b6113d9565b60405161039c9190612a96565b60405180910390f35b6103bf60048036038101906103ba919061296c565b611656565b005b6103c9611717565b005b6103e560048036038101906103e09190612a5a565b611794565b6040516103f29190612d1e565b60405180910390f35b61041560048036038101906104109190612a5a565b611b8f565b6040516104229190612e1e565b60405180910390f35b61044560048036038101906104409190612e6c565b611e4b565b6040516104529190612ebb565b60405180910390f35b61047560048036038101906104709190612a5a565b611ef4565b60405161048291906128f3565b60405180910390f35b6104a560048036038101906104a0919061296c565b6120f6565b005b6104af61259c565b6000600260009054906101000a900473ffffffffffffffffffffffffffffffffffffffff1673ffffffffffffffffffffffffffffffffffffffff16638c65c81f6001866104fc9190612f05565b6040518263ffffffff1660e01b81526004016105189190612a96565b602060405180830381865afa158015610535573d6000803e3d6000fd5b505050506040513d601f19601f820116820180604052508101906105599190612f4e565b905060008173ffffffffffffffffffffffffffffffffffffffff16639f8743f76040518163ffffffff1660e01b8152600401600060405180830381865afa1580156105a8573d6000803e3d6000fd5b505050506040513d6000823e3d601f19601f820116820180604052508101906105d1919061329a565b905060008273ffffffffffffffffffffffffffffffffffffffff1663dd85ae5f8361012001518781518110610609576106086132e3565b5b60200260200101516040518263ffffffff1660e01b815260040161062d9190612a96565b60a060405180830381865afa15801561064a573d6000803e3d6000fd5b505050506040513d601f19601f8201168201806040525081019061066e919061339e565b9050600061068482604001518460a001516110c3565b905060405180604001604052808360000151815260200182151581525094505050505092915050565b60008060018461ffff16866106c291906133fa565b6106cc919061342b565b90506000806106db83866110c3565b90505b801561074c5760018661ffff1684846040516020016106fe92919061345f565b6040516020818303038152906040528051906020012060001c61072191906133fa565b61072b919061342b565b925061073783866110c3565b9050818061074490613488565b9250506106de565b8293505050509392505050565b61076161217c565b80600160006101000a81548173ffffffffffffffffffffffffffffffffffffffff021916908373ffffffffffffffffffffffffffffffffffffffff16021790555050565b6107ad61217c565b80600260006101000a81548173ffffffffffffffffffffffffffffffffffffffff021916908373ffffffffffffffffffffffffffffffffffffffff16021790555050565b6107f96125b8565b6000600260009054906101000a900473ffffffffffffffffffffffffffffffffffffffff1673ffffffffffffffffffffffffffffffffffffffff16638c65c81f6001866108469190612f05565b6040518263ffffffff1660e01b81526004016108629190612a96565b602060405180830381865afa15801561087f573d6000803e3d6000fd5b505050506040513d601f19601f820116820180604052508101906108a39190612f4e565b905060008173ffffffffffffffffffffffffffffffffffffffff16639f8743f76040518163ffffffff1660e01b8152600401600060405180830381865afa1580156108f2573d6000803e3d6000fd5b505050506040513d6000823e3d601f19601f8201168201806040525081019061091b919061329a565b905060008273ffffffffffffffffffffffffffffffffffffffff16639b7be8fc8360e001518781518110610952576109516132e3565b5b60200260200101516040518263ffffffff1660e01b81526004016109769190612a96565b60c060405180830381865afa158015610993573d6000803e3d6000fd5b505050506040513d601f19601f820116820180604052508101906109b79190613567565b905060008373ffffffffffffffffffffffffffffffffffffffff1663598f3b9d83600001516040518263ffffffff1660e01b81526004016109f89190612a96565b600060405180830381865afa158015610a15573d6000803e3d6000fd5b505050506040513d6000823e3d601f19601f82011682018060405250810190610a3e9190613594565b905060008360800151600581518110610a5a57610a596132e3565b5b602002602001015161ffff1682600581518110610a7a57610a796132e3565b5b602002602001015161ffff161490506000805b60058161ffff161015610aed576000848261ffff1681518110610ab357610ab26132e3565b5b60200260200101519050610acb8188608001516110c3565b15610adf578280610adb90613488565b9350505b508080600101915050610a8d565b50604051806040016040528085600001518152602001610b0d8385611e4b565b600a811115610b1f57610b1e612999565b5b815250965050505050505092915050565b600080600260009054906101000a900473ffffffffffffffffffffffffffffffffffffffff1673ffffffffffffffffffffffffffffffffffffffff16638c65c81f600185610b7e9190612f05565b6040518263ffffffff1660e01b8152600401610b9a9190612a96565b602060405180830381865afa158015610bb7573d6000803e3d6000fd5b505050506040513d601f19601f82011682018060405250810190610bdb9190612f4e565b90508073ffffffffffffffffffffffffffffffffffffffff1663e2e3083060076040518263ffffffff1660e01b8152600401610c179190612ebb565b602060405180830381865afa158015610c34573d6000803e3d6000fd5b505050506040513d601f19601f82011682018060405250810190610c5891906135dd565b8173ffffffffffffffffffffffffffffffffffffffff1663e2e3083060066040518263ffffffff1660e01b8152600401610c929190612ebb565b602060405180830381865afa158015610caf573d6000803e3d6000fd5b505050506040513d601f19601f82011682018060405250810190610cd391906135dd565b8273ffffffffffffffffffffffffffffffffffffffff1663e2e3083060056040518263ffffffff1660e01b8152600401610d0d9190612ebb565b602060405180830381865afa158015610d2a573d6000803e3d6000fd5b505050506040513d601f19601f82011682018060405250810190610d4e91906135dd565b8373ffffffffffffffffffffffffffffffffffffffff1663e2e3083060046040518263ffffffff1660e01b8152600401610d889190612ebb565b602060405180830381865afa158015610da5573d6000803e3d6000fd5b505050506040513d601f19601f82011682018060405250810190610dc991906135dd565b8473ffffffffffffffffffffffffffffffffffffffff1663e2e3083060036040518263ffffffff1660e01b8152600401610e039190612ebb565b602060405180830381865afa158015610e20573d6000803e3d6000fd5b505050506040513d601f19601f82011682018060405250810190610e4491906135dd565b8573ffffffffffffffffffffffffffffffffffffffff1663e2e3083060026040518263ffffffff1660e01b8152600401610e7e9190612ebb565b602060405180830381865afa158015610e9b573d6000803e3d6000fd5b505050506040513d601f19601f82011682018060405250810190610ebf91906135dd565b8673ffffffffffffffffffffffffffffffffffffffff1663e2e3083060016040518263ffffffff1660e01b8152600401610ef99190612ebb565b602060405180830381865afa158015610f16573d6000803e3d6000fd5b505050506040513d601f19601f82011682018060405250810190610f3a91906135dd565b610f44919061342b565b610f4e919061342b565b610f58919061342b565b610f62919061342b565b610f6c919061342b565b610f76919061342b565b915050919050565b6000600260009054906101000a900473ffffffffffffffffffffffffffffffffffffffff1673ffffffffffffffffffffffffffffffffffffffff16638c65c81f600184610fcb9190612f05565b6040518263ffffffff1660e01b8152600401610fe79190612a96565b602060405180830381865afa158015611004573d6000803e3d6000fd5b505050506040513d601f19601f820116820180604052508101906110289190612f4e565b73ffffffffffffffffffffffffffffffffffffffff1663e2e3083060096040518263ffffffff1660e01b81526004016110619190612ebb565b602060405180830381865afa15801561107e573d6000803e3d6000fd5b505050506040513d601f19601f820116820180604052508101906110a291906135dd565b9050919050565b60008015156110b884846110c3565b151514905092915050565b600080600090505b8251811015611114578361ffff168382815181106110ec576110eb6132e3565b5b602002602001015161ffff160361110757600191505061111a565b80806001019150506110cb565b50600090505b92915050565b600260009054906101000a900473ffffffffffffffffffffffffffffffffffffffff1681565b6000600260009054906101000a900473ffffffffffffffffffffffffffffffffffffffff1673ffffffffffffffffffffffffffffffffffffffff16638c65c81f6001846111939190612f05565b6040518263ffffffff1660e01b81526004016111af9190612a96565b602060405180830381865afa1580156111cc573d6000803e3d6000fd5b505050506040513d601f19601f820116820180604052508101906111f09190612f4e565b73ffffffffffffffffffffffffffffffffffffffff1663e2e30830600a6040518263ffffffff1660e01b81526004016112299190612ebb565b602060405180830381865afa158015611246573d6000803e3d6000fd5b505050506040513d601f19601f8201168201806040525081019061126a91906135dd565b9050919050565b6000600260009054906101000a900473ffffffffffffffffffffffffffffffffffffffff1673ffffffffffffffffffffffffffffffffffffffff16638c65c81f6001846112be9190612f05565b6040518263ffffffff1660e01b81526004016112da9190612a96565b602060405180830381865afa1580156112f7573d6000803e3d6000fd5b505050506040513d601f19601f8201168201806040525081019061131b9190612f4e565b73ffffffffffffffffffffffffffffffffffffffff1663e2e3083060076040518263ffffffff1660e01b81526004016113549190612ebb565b602060405180830381865afa158015611371573d6000803e3d6000fd5b505050506040513d601f19601f8201168201806040525081019061139591906135dd565b9050919050565b6113a461217c565b6113ae6000612203565b565b60008060009054906101000a900473ffffffffffffffffffffffffffffffffffffffff16905090565b60006001600a8111156113ef576113ee612999565b5b82600a81111561140257611401612999565b5b148061143257506002600a81111561141d5761141c612999565b5b82600a8111156114305761142f612999565b5b145b8061146157506003600a81111561144c5761144b612999565b5b82600a81111561145f5761145e612999565b5b145b8061149057506004600a81111561147b5761147a612999565b5b82600a81111561148e5761148d612999565b5b145b806114bf57506005600a8111156114aa576114a9612999565b5b82600a8111156114bd576114bc612999565b5b145b806114ee57506006600a8111156114d9576114d8612999565b5b82600a8111156114ec576114eb612999565b5b145b61152d576040517f08c379a000000000000000000000000000000000000000000000000000000000815260040161152490613667565b60405180910390fd5b600260009054906101000a900473ffffffffffffffffffffffffffffffffffffffff1673ffffffffffffffffffffffffffffffffffffffff16638c65c81f6001856115789190612f05565b6040518263ffffffff1660e01b81526004016115949190612a96565b602060405180830381865afa1580156115b1573d6000803e3d6000fd5b505050506040513d601f19601f820116820180604052508101906115d59190612f4e565b73ffffffffffffffffffffffffffffffffffffffff1663e2e30830836040518263ffffffff1660e01b815260040161160d9190612ebb565b602060405180830381865afa15801561162a573d6000803e3d6000fd5b505050506040513d601f19601f8201168201806040525081019061164e91906135dd565b905092915050565b61165e61217c565b60008173ffffffffffffffffffffffffffffffffffffffff166370a08231306040518263ffffffff1660e01b81526004016116999190612bc0565b602060405180830381865afa1580156116b6573d6000803e3d6000fd5b505050506040513d601f19601f820116820180604052508101906116da91906135dd565b905060008111156117135761171282600160009054906101000a900473ffffffffffffffffffffffffffffffffffffffff16836122c7565b5b5050565b61171f61217c565b600047111561179257600160009054906101000a900473ffffffffffffffffffffffffffffffffffffffff1673ffffffffffffffffffffffffffffffffffffffff166108fc479081150290604051600060405180830381858888f19350505050158015611790573d6000803e3d6000fd5b505b565b60606000600260009054906101000a900473ffffffffffffffffffffffffffffffffffffffff1673ffffffffffffffffffffffffffffffffffffffff16638c65c81f6001856117e39190612f05565b6040518263ffffffff1660e01b81526004016117ff9190612a96565b602060405180830381865afa15801561181c573d6000803e3d6000fd5b505050506040513d601f19601f820116820180604052508101906118409190612f4e565b905060008173ffffffffffffffffffffffffffffffffffffffff16639f8743f76040518163ffffffff1660e01b8152600401600060405180830381865afa15801561188f573d6000803e3d6000fd5b505050506040513d6000823e3d601f19601f820116820180604052508101906118b8919061329a565b905060008161010001519050600082610100015161ffff1667ffffffffffffffff8111156118e9576118e8612732565b5b60405190808252806020026020018201604052801561192257816020015b61190f6125b8565b8152602001906001900390816119075790505b5090506000805b8361ffff168161ffff161015611b815760008673ffffffffffffffffffffffffffffffffffffffff16639b7be8fc8760e001518461ffff1681518110611972576119716132e3565b5b60200260200101516040518263ffffffff1660e01b81526004016119969190612a96565b60c060405180830381865afa1580156119b3573d6000803e3d6000fd5b505050506040513d601f19601f820116820180604052508101906119d79190613567565b905060008773ffffffffffffffffffffffffffffffffffffffff1663598f3b9d83600001516040518263ffffffff1660e01b8152600401611a189190612a96565b600060405180830381865afa158015611a35573d6000803e3d6000fd5b505050506040513d6000823e3d601f19601f82011682018060405250810190611a5e9190613594565b905060008760800151600581518110611a7a57611a796132e3565b5b602002602001015161ffff1682600581518110611a9a57611a996132e3565b5b602002602001015161ffff161490506000805b60058161ffff161015611b0d576000848261ffff1681518110611ad357611ad26132e3565b5b60200260200101519050611aeb818c608001516110c3565b15611aff578280611afb90613488565b9350505b508080600101915050611aad565b50604051806040016040528085600001518152602001611b2d8385611e4b565b600a811115611b3f57611b3e612999565b5b815250878780611b4e90613488565b985061ffff1681518110611b6557611b646132e3565b5b6020026020010181905250505050508080600101915050611929565b508195505050505050919050565b60606000600260009054906101000a900473ffffffffffffffffffffffffffffffffffffffff1673ffffffffffffffffffffffffffffffffffffffff16638c65c81f600185611bde9190612f05565b6040518263ffffffff1660e01b8152600401611bfa9190612a96565b602060405180830381865afa158015611c17573d6000803e3d6000fd5b505050506040513d601f19601f82011682018060405250810190611c3b9190612f4e565b905060008173ffffffffffffffffffffffffffffffffffffffff16639f8743f76040518163ffffffff1660e01b8152600401600060405180830381865afa158015611c8a573d6000803e3d6000fd5b505050506040513d6000823e3d601f19601f82011682018060405250810190611cb3919061329a565b9050600081610140015161ffff1667ffffffffffffffff811115611cda57611cd9612732565b5b604051908082528060200260200182016040528015611d1357816020015b611d0061259c565b815260200190600190039081611cf85790505b5090506000805b83610140015161ffff168161ffff161015611e3e5760008573ffffffffffffffffffffffffffffffffffffffff1663dd85ae5f8661012001518461ffff1681518110611d6957611d686132e3565b5b60200260200101516040518263ffffffff1660e01b8152600401611d8d9190612a96565b60a060405180830381865afa158015611daa573d6000803e3d6000fd5b505050506040513d601f19601f82011682018060405250810190611dce919061339e565b90506000611de482604001518760a001516110c3565b9050604051806040016040528083600001518152602001821515815250858580611e0d90613488565b965061ffff1681518110611e2457611e236132e3565b5b602002602001018190525050508080600101915050611d1a565b5081945050505050919050565b600060058361ffff16148015611e5e5750815b15611e6c5760019050611eee565b60058361ffff1603611e815760029050611eee565b60048361ffff16148015611e925750815b15611ea05760039050611eee565b60048361ffff1603611eb55760049050611eee565b60038361ffff16148015611ec65750815b15611ed45760059050611eee565b60038361ffff1603611ee95760069050611eee565b600090505b92915050565b600080600090506000600260009054906101000a900473ffffffffffffffffffffffffffffffffffffffff1673ffffffffffffffffffffffffffffffffffffffff16638c65c81f600186611f489190612f05565b6040518263ffffffff1660e01b8152600401611f649190612a96565b602060405180830381865afa158015611f81573d6000803e3d6000fd5b505050506040513d601f19601f82011682018060405250810190611fa59190612f4e565b73ffffffffffffffffffffffffffffffffffffffff16639f8743f76040518163ffffffff1660e01b8152600401600060405180830381865afa158015611fef573d6000803e3d6000fd5b505050506040513d6000823e3d601f19601f82011682018060405250810190612018919061329a565b61014001519050600260009054906101000a900473ffffffffffffffffffffffffffffffffffffffff1673ffffffffffffffffffffffffffffffffffffffff1663f4dec22b6040518163ffffffff1660e01b8152600401602060405180830381865afa15801561208c573d6000803e3d6000fd5b505050506040513d601f19601f820116820180604052508101906120b09190613687565b61ffff168161ffff16816120c7576120c66133cb565b5b04915060008261ffff161480156120e2575060008161ffff16115b156120ec57600191505b8192505050919050565b6120fe61217c565b600073ffffffffffffffffffffffffffffffffffffffff168173ffffffffffffffffffffffffffffffffffffffff16036121705760006040517f1e4fbdf70000000000000000000000000000000000000000000000000000000081526004016121679190612bc0565b60405180910390fd5b61217981612203565b50565b612184612346565b73ffffffffffffffffffffffffffffffffffffffff166121a26113b0565b73ffffffffffffffffffffffffffffffffffffffff1614612201576121c5612346565b6040517f118cdaa70000000000000000000000000000000000000000000000000000000081526004016121f89190612bc0565b60405180910390fd5b565b60008060009054906101000a900473ffffffffffffffffffffffffffffffffffffffff169050816000806101000a81548173ffffffffffffffffffffffffffffffffffffffff021916908373ffffffffffffffffffffffffffffffffffffffff1602179055508173ffffffffffffffffffffffffffffffffffffffff168173ffffffffffffffffffffffffffffffffffffffff167f8be0079c531659141344cd1fd0a4f28419497f9722a3daafe3b4186f6b6457e060405160405180910390a35050565b612341838473ffffffffffffffffffffffffffffffffffffffff1663a9059cbb85856040516024016122fa9291906136b4565b604051602081830303815290604052915060e01b6020820180517bffffffffffffffffffffffffffffffffffffffffffffffffffffffff838183161783525050505061234e565b505050565b600033905090565b6000612379828473ffffffffffffffffffffffffffffffffffffffff166123e590919063ffffffff16565b9050600081511415801561239e57508080602001905181019061239c91906136dd565b155b156123e057826040517f5274afe70000000000000000000000000000000000000000000000000000000081526004016123d79190612bc0565b60405180910390fd5b505050565b60606123f3838360006123fb565b905092915050565b60608147101561244257306040517fcd7860590000000000000000000000000000000000000000000000000000000081526004016124399190612bc0565b60405180910390fd5b6000808573ffffffffffffffffffffffffffffffffffffffff16848660405161246b919061377b565b60006040518083038185875af1925050503d80600081146124a8576040519150601f19603f3d011682016040523d82523d6000602084013e6124ad565b606091505b50915091506124bd8683836124c8565b925050509392505050565b6060826124dd576124d882612557565b61254f565b60008251148015612505575060008473ffffffffffffffffffffffffffffffffffffffff163b145b1561254757836040517f9996b31500000000000000000000000000000000000000000000000000000000815260040161253e9190612bc0565b60405180910390fd5b819050612550565b5b9392505050565b60008151111561256a5780518082602001fd5b6040517f1425ea4200000000000000000000000000000000000000000000000000000000815260040160405180910390fd5b6040518060400160405280600081526020016000151581525090565b6040518060400160405280600081526020016000600a8111156125de576125dd612999565b5b81525090565b6000604051905090565b600080fd5b600080fd5b6000819050919050565b61260b816125f8565b811461261657600080fd5b50565b60008135905061262881612602565b92915050565b60008060408385031215612645576126446125ee565b5b600061265385828601612619565b925050602061266485828601612619565b9150509250929050565b612677816125f8565b82525050565b60008115159050919050565b6126928161267d565b82525050565b6040820160008201516126ae600085018261266e565b5060208201516126c16020850182612689565b50505050565b60006040820190506126dc6000830184612698565b92915050565b600061ffff82169050919050565b6126f9816126e2565b811461270457600080fd5b50565b600081359050612716816126f0565b92915050565b600080fd5b6000601f19601f8301169050919050565b7f4e487b7100000000000000000000000000000000000000000000000000000000600052604160045260246000fd5b61276a82612721565b810181811067ffffffffffffffff8211171561278957612788612732565b5b80604052505050565b600061279c6125e4565b90506127a88282612761565b919050565b600067ffffffffffffffff8211156127c8576127c7612732565b5b602082029050602081019050919050565b600080fd5b60006127f16127ec846127ad565b612792565b90508083825260208201905060208402830185811115612814576128136127d9565b5b835b8181101561283d57806128298882612707565b845260208401935050602081019050612816565b5050509392505050565b600082601f83011261285c5761285b61271c565b5b813561286c8482602086016127de565b91505092915050565b60008060006060848603121561288e5761288d6125ee565b5b600061289c86828701612619565b93505060206128ad86828701612707565b925050604084013567ffffffffffffffff8111156128ce576128cd6125f3565b5b6128da86828701612847565b9150509250925092565b6128ed816126e2565b82525050565b600060208201905061290860008301846128e4565b92915050565b600073ffffffffffffffffffffffffffffffffffffffff82169050919050565b60006129398261290e565b9050919050565b6129498161292e565b811461295457600080fd5b50565b60008135905061296681612940565b92915050565b600060208284031215612982576129816125ee565b5b600061299084828501612957565b91505092915050565b7f4e487b7100000000000000000000000000000000000000000000000000000000600052602160045260246000fd5b600b81106129d9576129d8612999565b5b50565b60008190506129ea826129c8565b919050565b60006129fa826129dc565b9050919050565b612a0a816129ef565b82525050565b604082016000820151612a26600085018261266e565b506020820151612a396020850182612a01565b50505050565b6000604082019050612a546000830184612a10565b92915050565b600060208284031215612a7057612a6f6125ee565b5b6000612a7e84828501612619565b91505092915050565b612a90816125f8565b82525050565b6000602082019050612aab6000830184612a87565b92915050565b60008060408385031215612ac857612ac76125ee565b5b6000612ad685828601612707565b925050602083013567ffffffffffffffff811115612af757612af66125f3565b5b612b0385828601612847565b9150509250929050565b612b168161267d565b82525050565b6000602082019050612b316000830184612b0d565b92915050565b6000819050919050565b6000612b5c612b57612b528461290e565b612b37565b61290e565b9050919050565b6000612b6e82612b41565b9050919050565b6000612b8082612b63565b9050919050565b612b9081612b75565b82525050565b6000602082019050612bab6000830184612b87565b92915050565b612bba8161292e565b82525050565b6000602082019050612bd56000830184612bb1565b92915050565b600b8110612be857600080fd5b50565b600081359050612bfa81612bdb565b92915050565b60008060408385031215612c1757612c166125ee565b5b6000612c2585828601612619565b9250506020612c3685828601612beb565b9150509250929050565b600081519050919050565b600082825260208201905092915050565b6000819050602082019050919050565b604082016000820151612c82600085018261266e565b506020820151612c956020850182612a01565b50505050565b6000612ca78383612c6c565b60408301905092915050565b6000602082019050919050565b6000612ccb82612c40565b612cd58185612c4b565b9350612ce083612c5c565b8060005b83811015612d11578151612cf88882612c9b565b9750612d0383612cb3565b925050600181019050612ce4565b5085935050505092915050565b60006020820190508181036000830152612d388184612cc0565b905092915050565b600081519050919050565b600082825260208201905092915050565b6000819050602082019050919050565b604082016000820151612d82600085018261266e565b506020820151612d956020850182612689565b50505050565b6000612da78383612d6c565b60408301905092915050565b6000602082019050919050565b6000612dcb82612d40565b612dd58185612d4b565b9350612de083612d5c565b8060005b83811015612e11578151612df88882612d9b565b9750612e0383612db3565b925050600181019050612de4565b5085935050505092915050565b60006020820190508181036000830152612e388184612dc0565b905092915050565b612e498161267d565b8114612e5457600080fd5b50565b600081359050612e6681612e40565b92915050565b60008060408385031215612e8357612e826125ee565b5b6000612e9185828601612707565b9250506020612ea285828601612e57565b9150509250929050565b612eb5816129ef565b82525050565b6000602082019050612ed06000830184612eac565b92915050565b7f4e487b7100000000000000000000000000000000000000000000000000000000600052601160045260246000fd5b6000612f10826125f8565b9150612f1b836125f8565b9250828203905081811115612f3357612f32612ed6565b5b92915050565b600081519050612f4881612940565b92915050565b600060208284031215612f6457612f636125ee565b5b6000612f7284828501612f39565b91505092915050565b600080fd5b600080fd5b600081519050612f9481612602565b92915050565b600081519050612fa981612e40565b92915050565b600081519050612fbe816126f0565b92915050565b6000612fd7612fd2846127ad565b612792565b90508083825260208201905060208402830185811115612ffa57612ff96127d9565b5b835b81811015613023578061300f8882612faf565b845260208401935050602081019050612ffc565b5050509392505050565b600082601f8301126130425761304161271c565b5b8151613052848260208601612fc4565b91505092915050565b600067ffffffffffffffff82111561307657613075612732565b5b602082029050602081019050919050565b600061309a6130958461305b565b612792565b905080838252602082019050602084028301858111156130bd576130bc6127d9565b5b835b818110156130e657806130d28882612f85565b8452602084019350506020810190506130bf565b5050509392505050565b600082601f8301126131055761310461271c565b5b8151613115848260208601613087565b91505092915050565b6000610160828403121561313557613134612f7b565b5b613140610160612792565b9050600061315084828501612f85565b600083015250602061316484828501612f85565b602083015250604061317884828501612f85565b604083015250606061318c84828501612f9a565b606083015250608082015167ffffffffffffffff8111156131b0576131af612f80565b5b6131bc8482850161302d565b60808301525060a082015167ffffffffffffffff8111156131e0576131df612f80565b5b6131ec8482850161302d565b60a08301525060c061320084828501612faf565b60c08301525060e082015167ffffffffffffffff81111561322457613223612f80565b5b613230848285016130f0565b60e08301525061010061324584828501612faf565b6101008301525061012082015167ffffffffffffffff81111561326b5761326a612f80565b5b613277848285016130f0565b6101208301525061014061328d84828501612faf565b6101408301525092915050565b6000602082840312156132b0576132af6125ee565b5b600082015167ffffffffffffffff8111156132ce576132cd6125f3565b5b6132da8482850161311e565b91505092915050565b7f4e487b7100000000000000000000000000000000000000000000000000000000600052603260045260246000fd5b600060a0828403121561332857613327612f7b565b5b61333260a0612792565b9050600061334284828501612f85565b600083015250602061335684828501612f39565b602083015250604061336a84828501612faf565b604083015250606061337e84828501612f9a565b606083015250608061339284828501612f9a565b60808301525092915050565b600060a082840312156133b4576133b36125ee565b5b60006133c284828501613312565b91505092915050565b7f4e487b7100000000000000000000000000000000000000000000000000000000600052601260045260246000fd5b6000613405826125f8565b9150613410836125f8565b9250826134205761341f6133cb565b5b828206905092915050565b6000613436826125f8565b9150613441836125f8565b925082820190508082111561345957613458612ed6565b5b92915050565b600060408201905061347460008301856128e4565b61348160208301846128e4565b9392505050565b6000613493826126e2565b915061ffff82036134a7576134a6612ed6565b5b600182019050919050565b6000815190506134c181612bdb565b92915050565b600060c082840312156134dd576134dc612f7b565b5b6134e760c0612792565b905060006134f784828501612f85565b600083015250602061350b84828501612f39565b602083015250604061351f84828501612f39565b604083015250606061353384828501612f9a565b606083015250608061354784828501612f85565b60808301525060a061355b848285016134b2565b60a08301525092915050565b600060c0828403121561357d5761357c6125ee565b5b600061358b848285016134c7565b91505092915050565b6000602082840312156135aa576135a96125ee565b5b600082015167ffffffffffffffff8111156135c8576135c76125f3565b5b6135d48482850161302d565b91505092915050565b6000602082840312156135f3576135f26125ee565b5b600061360184828501612f85565b91505092915050565b600082825260208201905092915050565b7f496e76616c696420766963746f72792074696572000000000000000000000000600082015250565b600061365160148361360a565b915061365c8261361b565b602082019050919050565b6000602082019050818103600083015261368081613644565b9050919050565b60006020828403121561369d5761369c6125ee565b5b60006136ab84828501612faf565b91505092915050565b60006040820190506136c96000830185612bb1565b6136d66020830184612a87565b9392505050565b6000602082840312156136f3576136f26125ee565b5b600061370184828501612f9a565b91505092915050565b600081519050919050565b600081905092915050565b60005b8381101561373e578082015181840152602081019050613723565b60008484015250505050565b60006137558261370a565b61375f8185613715565b935061376f818560208601613720565b80840191505092915050565b6000613787828461374a565b91508190509291505056fea26469706673582212205ad6e327663b35bb0371c66cdc64d5dcae3314df79a6bb72888a420fd04be24964736f6c63430008180033",
  "devdoc": {
    "errors": {
      "AddressEmptyCode(address)": [
        {
          "details": "There's no code at `target` (it is not a contract)."
        }
      ],
      "AddressInsufficientBalance(address)": [
        {
          "details": "The ETH balance of the account is not enough to perform the operation."
        }
      ],
      "FailedInnerCall()": [
        {
          "details": "A call to an address target failed. The target may have reverted."
        }
      ],
      "OwnableInvalidOwner(address)": [
        {
          "details": "The owner is not a valid owner account. (eg. `address(0)`)"
        }
      ],
      "OwnableUnauthorizedAccount(address)": [
        {
          "details": "The caller account is not authorized to perform an operation."
        }
      ],
      "SafeERC20FailedOperation(address)": [
        {
          "details": "An operation with an ERC20 token failed."
        }
      ]
    },
    "kind": "dev",
    "methods": {
      "owner()": {
        "details": "Returns the address of the current owner."
      },
      "renounceOwnership()": {
        "details": "Leaves the contract without owner. It will not be possible to call `onlyOwner` functions. Can only be called by the current owner. NOTE: Renouncing ownership will leave the contract without an owner, thereby disabling any functionality that is only available to the owner."
      },
      "transferOwnership(address)": {
        "details": "Transfers ownership of the contract to a new account (`newOwner`). Can only be called by the current owner."
      }
    },
    "version": 1
  },
  "userdoc": {
    "kind": "user",
    "methods": {},
    "version": 1
  },
  "storageLayout": {
    "storage": [
      {
        "astId": 8,
        "contract": "contracts/LotteryReader.sol:LotteryReader",
        "label": "_owner",
        "offset": 0,
        "slot": "0",
        "type": "t_address"
      },
      {
        "astId": 4397,
        "contract": "contracts/LotteryReader.sol:LotteryReader",
        "label": "teamAddress",
        "offset": 0,
        "slot": "1",
        "type": "t_address"
      },
      {
        "astId": 2188,
        "contract": "contracts/LotteryReader.sol:LotteryReader",
        "label": "lotteryMaster",
        "offset": 0,
        "slot": "2",
        "type": "t_contract(LotteryMaster)2158"
      }
    ],
    "types": {
      "t_address": {
        "encoding": "inplace",
        "label": "address",
        "numberOfBytes": "20"
      },
      "t_contract(LotteryMaster)2158": {
        "encoding": "inplace",
        "label": "contract LotteryMaster",
        "numberOfBytes": "20"
      }
    }
  }
}