{
  "address": "0x4dd36acA5Dd97E4125bF952F52BE126D5d3A184d",
  "abi": [
    {
      "inputs": [
        {
          "internalType": "address",
          "name": "cyclixRandomizer",
          "type": "address"
        },
        {
          "internalType": "address",
          "name": "lotteryReader",
          "type": "address"
        },
        {
          "internalType": "address",
          "name": "_lotteryRoundCreator",
          "type": "address"
        },
        {
          "internalType": "address",
          "name": "_paymentToken",
          "type": "address"
        },
        {
          "internalType": "uint256",
          "name": "_ticketPrice",
          "type": "uint256"
        }
      ],
      "stateMutability": "nonpayable",
      "type": "constructor"
    },
    {
      "inputs": [
        {
          "internalType": "address",
          "name": "target",
          "type": "address"
        }
      ],
      "name": "AddressEmptyCode",
      "type": "error"
    },
    {
      "inputs": [
        {
          "internalType": "address",
          "name": "account",
          "type": "address"
        }
      ],
      "name": "AddressInsufficientBalance",
      "type": "error"
    },
    {
      "inputs": [],
      "name": "FailedInnerCall",
      "type": "error"
    },
    {
      "inputs": [
        {
          "internalType": "address",
          "name": "owner",
          "type": "address"
        }
      ],
      "name": "OwnableInvalidOwner",
      "type": "error"
    },
    {
      "inputs": [
        {
          "internalType": "address",
          "name": "account",
          "type": "address"
        }
      ],
      "name": "OwnableUnauthorizedAccount",
      "type": "error"
    },
    {
      "inputs": [
        {
          "internalType": "address",
          "name": "token",
          "type": "address"
        }
      ],
      "name": "SafeERC20FailedOperation",
      "type": "error"
    },
    {
      "anonymous": false,
      "inputs": [
        {
          "indexed": true,
          "internalType": "address",
          "name": "previousOwner",
          "type": "address"
        },
        {
          "indexed": true,
          "internalType": "address",
          "name": "newOwner",
          "type": "address"
        }
      ],
      "name": "OwnershipTransferred",
      "type": "event"
    },
    {
      "inputs": [
        {
          "internalType": "address",
          "name": "wallet",
          "type": "address"
        }
      ],
      "name": "addBankWallet",
      "outputs": [],
      "stateMutability": "nonpayable",
      "type": "function"
    },
    {
      "inputs": [
        {
          "internalType": "address[]",
          "name": "participant",
          "type": "address[]"
        }
      ],
      "name": "addFreeRound",
      "outputs": [],
      "stateMutability": "nonpayable",
      "type": "function"
    },
    {
      "inputs": [
        {
          "internalType": "uint256",
          "name": "",
          "type": "uint256"
        }
      ],
      "name": "bankWallets",
      "outputs": [
        {
          "internalType": "address",
          "name": "",
          "type": "address"
        }
      ],
      "stateMutability": "view",
      "type": "function"
    },
    {
      "inputs": [
        {
          "internalType": "uint256",
          "name": "chainId",
          "type": "uint256"
        },
        {
          "internalType": "uint16[]",
          "name": "chosenNumbers",
          "type": "uint16[]"
        },
        {
          "internalType": "uint16",
          "name": "powerNumber",
          "type": "uint16"
        },
        {
          "internalType": "address",
          "name": "referral",
          "type": "address"
        }
      ],
      "name": "buyTicket",
      "outputs": [],
      "stateMutability": "nonpayable",
      "type": "function"
    },
    {
      "inputs": [
        {
          "internalType": "uint256",
          "name": "referralTicketId",
          "type": "uint256"
        }
      ],
      "name": "claimReferralVictory",
      "outputs": [],
      "stateMutability": "nonpayable",
      "type": "function"
    },
    {
      "inputs": [
        {
          "internalType": "uint256",
          "name": "ticketId",
          "type": "uint256"
        }
      ],
      "name": "claimVictory",
      "outputs": [],
      "stateMutability": "nonpayable",
      "type": "function"
    },
    {
      "inputs": [],
      "name": "closeRound",
      "outputs": [],
      "stateMutability": "nonpayable",
      "type": "function"
    },
    {
      "inputs": [],
      "name": "counterForBankWallets",
      "outputs": [
        {
          "internalType": "uint16",
          "name": "",
          "type": "uint16"
        }
      ],
      "stateMutability": "view",
      "type": "function"
    },
    {
      "inputs": [
        {
          "internalType": "uint256",
          "name": "roundId",
          "type": "uint256"
        }
      ],
      "name": "fetchRoundNumbers",
      "outputs": [],
      "stateMutability": "nonpayable",
      "type": "function"
    },
    {
      "inputs": [
        {
          "internalType": "address",
          "name": "",
          "type": "address"
        }
      ],
      "name": "freeRounds",
      "outputs": [
        {
          "internalType": "uint16",
          "name": "",
          "type": "uint16"
        }
      ],
      "stateMutability": "view",
      "type": "function"
    },
    {
      "inputs": [],
      "name": "freeRoundsAreEnabled",
      "outputs": [
        {
          "internalType": "bool",
          "name": "",
          "type": "bool"
        }
      ],
      "stateMutability": "view",
      "type": "function"
    },
    {
      "inputs": [],
      "name": "getCurrentRound",
      "outputs": [
        {
          "internalType": "address",
          "name": "",
          "type": "address"
        }
      ],
      "stateMutability": "view",
      "type": "function"
    },
    {
      "inputs": [],
      "name": "lotteryRoundCreator",
      "outputs": [
        {
          "internalType": "contract LotteryRoundCreatorInterface",
          "name": "",
          "type": "address"
        }
      ],
      "stateMutability": "view",
      "type": "function"
    },
    {
      "inputs": [
        {
          "internalType": "uint256",
          "name": "roundId",
          "type": "uint256"
        }
      ],
      "name": "markWinners",
      "outputs": [],
      "stateMutability": "nonpayable",
      "type": "function"
    },
    {
      "inputs": [],
      "name": "owner",
      "outputs": [
        {
          "internalType": "address",
          "name": "",
          "type": "address"
        }
      ],
      "stateMutability": "view",
      "type": "function"
    },
    {
      "inputs": [],
      "name": "paymentToken",
      "outputs": [
        {
          "internalType": "contract IERC20Metadata",
          "name": "",
          "type": "address"
        }
      ],
      "stateMutability": "view",
      "type": "function"
    },
    {
      "inputs": [],
      "name": "percentageOfReferralWinners",
      "outputs": [
        {
          "internalType": "uint16",
          "name": "",
          "type": "uint16"
        }
      ],
      "stateMutability": "view",
      "type": "function"
    },
    {
      "inputs": [
        {
          "internalType": "uint256",
          "name": "",
          "type": "uint256"
        }
      ],
      "name": "publicRoundRandomNumbersRequestId",
      "outputs": [
        {
          "internalType": "uint256",
          "name": "",
          "type": "uint256"
        }
      ],
      "stateMutability": "view",
      "type": "function"
    },
    {
      "inputs": [],
      "name": "randomizer",
      "outputs": [
        {
          "internalType": "contract CyclixRandomizerInterface",
          "name": "",
          "type": "address"
        }
      ],
      "stateMutability": "view",
      "type": "function"
    },
    {
      "inputs": [],
      "name": "reader",
      "outputs": [
        {
          "internalType": "contract LotteryReaderInterface",
          "name": "",
          "type": "address"
        }
      ],
      "stateMutability": "view",
      "type": "function"
    },
    {
      "inputs": [
        {
          "internalType": "address",
          "name": "wallet",
          "type": "address"
        }
      ],
      "name": "removeBankWallet",
      "outputs": [],
      "stateMutability": "nonpayable",
      "type": "function"
    },
    {
      "inputs": [],
      "name": "renounceOwnership",
      "outputs": [],
      "stateMutability": "nonpayable",
      "type": "function"
    },
    {
      "inputs": [],
      "name": "roundCount",
      "outputs": [
        {
          "internalType": "uint256",
          "name": "",
          "type": "uint256"
        }
      ],
      "stateMutability": "view",
      "type": "function"
    },
    {
      "inputs": [
        {
          "internalType": "uint256",
          "name": "roundId",
          "type": "uint256"
        }
      ],
      "name": "roundForId",
      "outputs": [
        {
          "internalType": "address",
          "name": "",
          "type": "address"
        }
      ],
      "stateMutability": "view",
      "type": "function"
    },
    {
      "inputs": [
        {
          "internalType": "uint256",
          "name": "",
          "type": "uint256"
        }
      ],
      "name": "rounds",
      "outputs": [
        {
          "internalType": "address",
          "name": "",
          "type": "address"
        }
      ],
      "stateMutability": "view",
      "type": "function"
    },
    {
      "inputs": [],
      "name": "sendCryptoToTeam",
      "outputs": [],
      "stateMutability": "nonpayable",
      "type": "function"
    },
    {
      "inputs": [
        {
          "internalType": "address",
          "name": "_token",
          "type": "address"
        }
      ],
      "name": "sendTokenToTeam",
      "outputs": [],
      "stateMutability": "nonpayable",
      "type": "function"
    },
    {
      "inputs": [
        {
          "internalType": "bool",
          "name": "v",
          "type": "bool"
        }
      ],
      "name": "setFreeRoundsOnPurchase",
      "outputs": [],
      "stateMutability": "nonpayable",
      "type": "function"
    },
    {
      "inputs": [
        {
          "internalType": "address",
          "name": "_paymentToken",
          "type": "address"
        }
      ],
      "name": "setPaymentToken",
      "outputs": [],
      "stateMutability": "nonpayable",
      "type": "function"
    },
    {
      "inputs": [
        {
          "internalType": "uint16",
          "name": "percentage",
          "type": "uint16"
        }
      ],
      "name": "setPercentageOfReferralWinners",
      "outputs": [],
      "stateMutability": "nonpayable",
      "type": "function"
    },
    {
      "inputs": [
        {
          "internalType": "uint256",
          "name": "_ticketPrice",
          "type": "uint256"
        }
      ],
      "name": "setTicketPrice",
      "outputs": [],
      "stateMutability": "nonpayable",
      "type": "function"
    },
    {
      "inputs": [
        {
          "internalType": "address",
          "name": "wallet",
          "type": "address"
        }
      ],
      "name": "setTreasuryWallet",
      "outputs": [],
      "stateMutability": "nonpayable",
      "type": "function"
    },
    {
      "inputs": [
        {
          "internalType": "uint256",
          "name": "roundDurationInSeconds",
          "type": "uint256"
        }
      ],
      "name": "startNewRound",
      "outputs": [],
      "stateMutability": "nonpayable",
      "type": "function"
    },
    {
      "inputs": [],
      "name": "ticketPrice",
      "outputs": [
        {
          "internalType": "uint256",
          "name": "",
          "type": "uint256"
        }
      ],
      "stateMutability": "view",
      "type": "function"
    },
    {
      "inputs": [
        {
          "internalType": "address",
          "name": "newOwner",
          "type": "address"
        }
      ],
      "name": "transferOwnership",
      "outputs": [],
      "stateMutability": "nonpayable",
      "type": "function"
    },
    {
      "inputs": [],
      "name": "treasuryWallets",
      "outputs": [
        {
          "internalType": "address",
          "name": "",
          "type": "address"
        }
      ],
      "stateMutability": "view",
      "type": "function"
    },
    {
      "inputs": [
        {
          "internalType": "address",
          "name": "_teamAddress",
          "type": "address"
        }
      ],
      "name": "updateTeamAddress",
      "outputs": [],
      "stateMutability": "nonpayable",
      "type": "function"
    }
  ],
  "transactionHash": "0x2d9f16a63a094fd1e362877fda06aebaad8fbc93310a3964c54e3ed186f215e0",
  "args": [
    "0x603A50cF183cb4c103A95baDfaF011b749e04966",
    "0x82eadA6Edff4F26fB0e367D891Cd0ea5726Bc2B4",
    "0x1437748Abb740421c21561929550cAC8208B7676",
    "0xd6f605b40ba9D2ffB07f192d7eDf4eeB0B21c142",
    10
  ],
  "numDeployments": 4,
  "solcInputHash": "4ae252928ea26582715003878b731f84",
  "bytecode": "0x60806040526000600c60006101000a81548160ff021916908315150217905550600a600c60016101000a81548161ffff021916908361ffff1602179055503480156200004a57600080fd5b50604051620060af380380620060af8339818101604052810190620000709190620005a0565b3380600073ffffffffffffffffffffffffffffffffffffffff168173ffffffffffffffffffffffffffffffffffffffff1603620000e75760006040517f1e4fbdf7000000000000000000000000000000000000000000000000000000008152600401620000de919062000639565b60405180910390fd5b620000f8816200043760201b60201c565b5080600160006101000a81548173ffffffffffffffffffffffffffffffffffffffff021916908373ffffffffffffffffffffffffffffffffffffffff1602179055505084600960006101000a81548173ffffffffffffffffffffffffffffffffffffffff021916908373ffffffffffffffffffffffffffffffffffffffff160217905550600960009054906101000a900473ffffffffffffffffffffffffffffffffffffffff1673ffffffffffffffffffffffffffffffffffffffff1663cd0f2311306040518263ffffffff1660e01b8152600401620001d99190620006b7565b600060405180830381600087803b158015620001f457600080fd5b505af115801562000209573d6000803e3d6000fd5b5050505083600a60006101000a81548173ffffffffffffffffffffffffffffffffffffffff021916908373ffffffffffffffffffffffffffffffffffffffff16021790555082600c60036101000a81548173ffffffffffffffffffffffffffffffffffffffff021916908373ffffffffffffffffffffffffffffffffffffffff16021790555081600860006101000a81548173ffffffffffffffffffffffffffffffffffffffff021916908373ffffffffffffffffffffffffffffffffffffffff160217905550600860009054906101000a900473ffffffffffffffffffffffffffffffffffffffff1673ffffffffffffffffffffffffffffffffffffffff1663313ce5676040518163ffffffff1660e01b8152600401602060405180830381865afa1580156200033e573d6000803e3d6000fd5b505050506040513d601f19601f8201168201806040525081019062000364919062000727565b60ff16600a620003759190620008dc565b816200038291906200092d565b600b8190555033600760006101000a81548173ffffffffffffffffffffffffffffffffffffffff021916908373ffffffffffffffffffffffffffffffffffffffff1602179055506006339080600181540180825580915050600190039060005260206000200160009091909190916101000a81548173ffffffffffffffffffffffffffffffffffffffff021916908373ffffffffffffffffffffffffffffffffffffffff160217905550505050505062000978565b60008060009054906101000a900473ffffffffffffffffffffffffffffffffffffffff169050816000806101000a81548173ffffffffffffffffffffffffffffffffffffffff021916908373ffffffffffffffffffffffffffffffffffffffff1602179055508173ffffffffffffffffffffffffffffffffffffffff168173ffffffffffffffffffffffffffffffffffffffff167f8be0079c531659141344cd1fd0a4f28419497f9722a3daafe3b4186f6b6457e060405160405180910390a35050565b600080fd5b600073ffffffffffffffffffffffffffffffffffffffff82169050919050565b60006200052d8262000500565b9050919050565b6200053f8162000520565b81146200054b57600080fd5b50565b6000815190506200055f8162000534565b92915050565b6000819050919050565b6200057a8162000565565b81146200058657600080fd5b50565b6000815190506200059a816200056f565b92915050565b600080600080600060a08688031215620005bf57620005be620004fb565b5b6000620005cf888289016200054e565b9550506020620005e2888289016200054e565b9450506040620005f5888289016200054e565b935050606062000608888289016200054e565b92505060806200061b8882890162000589565b9150509295509295909350565b620006338162000520565b82525050565b600060208201905062000650600083018462000628565b92915050565b600082825260208201905092915050565b7f4c6f74746572794d617374657256302e31000000000000000000000000000000600082015250565b60006200069f60118362000656565b9150620006ac8262000667565b602082019050919050565b6000604082019050620006ce600083018462000628565b8181036020830152620006e18162000690565b905092915050565b600060ff82169050919050565b6200070181620006e9565b81146200070d57600080fd5b50565b6000815190506200072181620006f6565b92915050565b60006020828403121562000740576200073f620004fb565b5b6000620007508482850162000710565b91505092915050565b7f4e487b7100000000000000000000000000000000000000000000000000000000600052601160045260246000fd5b60008160011c9050919050565b6000808291508390505b6001851115620007e757808604811115620007bf57620007be62000759565b5b6001851615620007cf5780820291505b8081029050620007df8562000788565b94506200079f565b94509492505050565b600082620008025760019050620008d5565b81620008125760009050620008d5565b81600181146200082b576002811462000836576200086c565b6001915050620008d5565b60ff8411156200084b576200084a62000759565b5b8360020a91508482111562000865576200086462000759565b5b50620008d5565b5060208310610133831016604e8410600b8410161715620008a65782820a905083811115620008a0576200089f62000759565b5b620008d5565b620008b5848484600162000795565b92509050818404811115620008cf57620008ce62000759565b5b81810290505b9392505050565b6000620008e98262000565565b9150620008f68362000565565b9250620009257fffffffffffffffffffffffffffffffffffffffffffffffffffffffffffffffff8484620007f0565b905092915050565b60006200093a8262000565565b9150620009478362000565565b9250828202620009578162000565565b9150828204841483151762000971576200097062000759565b5b5092915050565b61572780620009886000396000f3fe608060405234801561001057600080fd5b50600436106102275760003560e01c80638da5cb5b11610130578063bbd1783a116100b8578063e278fe6f1161007c578063e278fe6f146105ec578063f10fb584146105f6578063f2fde38b14610614578063f4dec22b14610630578063fd12e8cc1461064e57610227565b8063bbd1783a1461055a578063cedd1bc314610564578063d4fc42c614610594578063dc418485146105b2578063e03d753a146105ce57610227565b8063a628f4fd116100ff578063a628f4fd146104ce578063a8602fea146104ea578063b086f3c014610506578063b33d8c5414610522578063ba9684941461053e57610227565b80638da5cb5b1461045857806392566fdd14610476578063998da3e914610494578063a32bf597146104b057610227565b8063266fbf90116101b35780634ff776b8116101825780634ff776b8146103c85780636a326ab1146103e4578063715018a61461040057806387da46f11461040a5780638c65c81f1461042857610227565b8063266fbf90146103565780633013ce291461037257806339c834e9146103905780634615102c146103ac57610227565b806314eb76ac116101fa57806314eb76ac146102a257806315981650146102be5780631e410ddb146102da5780631fcebf68146102f6578063258799f81461032657610227565b80630f5c49de1461022c578063104dc360146102485780631209b1f614610266578063127f0b3f14610284575b600080fd5b61024660048036038101906102419190613951565b61067e565b005b6102506106a3565b60405161025d91906139bf565b60405180910390f35b61026e6106c9565b60405161027b91906139f3565b60405180910390f35b61028c6106cf565b60405161029991906139f3565b60405180910390f35b6102bc60048036038101906102b79190613a3a565b6106d5565b005b6102d860048036038101906102d39190613a93565b610721565b005b6102f460048036038101906102ef9190613afa565b610733565b005b610310600480360381019061030b9190613a3a565b61075b565b60405161031d9190613b36565b60405180910390f35b610340600480360381019061033b9190613a93565b61077c565b60405161034d91906139bf565b60405180910390f35b610370600480360381019061036b9190613caa565b6107bb565b005b61037a610db9565b6040516103879190613d8c565b60405180910390f35b6103aa60048036038101906103a59190613a3a565b610ddf565b005b6103c660048036038101906103c19190613a93565b610f6d565b005b6103e260048036038101906103dd9190613a93565b611466565b005b6103fe60048036038101906103f99190613a3a565b611b98565b005b610408611be4565b005b610412611bf8565b60405161041f9190613dc8565b60405180910390f35b610442600480360381019061043d9190613a93565b611c1e565b60405161044f91906139bf565b60405180910390f35b610460611c5d565b60405161046d91906139bf565b60405180910390f35b61047e611c86565b60405161048b9190613b36565b60405180910390f35b6104ae60048036038101906104a99190613a3a565b611c9a565b005b6104b8611d5b565b6040516104c591906139bf565b60405180910390f35b6104e860048036038101906104e39190613a93565b611daf565b005b61050460048036038101906104ff9190613a3a565b611fb1565b005b610520600480360381019061051b9190613a93565b611ffd565b005b61053c60048036038101906105379190613e3e565b612785565b005b61055860048036038101906105539190613a3a565b61284c565b005b61056261298b565b005b61057e60048036038101906105799190613a93565b612a08565b60405161058b91906139f3565b60405180910390f35b61059c612a20565b6040516105a99190613eac565b60405180910390f35b6105cc60048036038101906105c79190613a93565b612a46565b005b6105d6612fd7565b6040516105e39190613ed6565b60405180910390f35b6105f4612fea565b005b6105fe61320c565b60405161060b9190613f12565b60405180910390f35b61062e60048036038101906106299190613a3a565b613232565b005b6106386132b8565b6040516106459190613b36565b60405180910390f35b61066860048036038101906106639190613a93565b6132cc565b60405161067591906139bf565b60405180910390f35b610686613320565b80600c60006101000a81548160ff02191690831515021790555050565b600760009054906101000a900473ffffffffffffffffffffffffffffffffffffffff1681565b600b5481565b60025481565b6106dd613320565b80600160006101000a81548173ffffffffffffffffffffffffffffffffffffffff021916908373ffffffffffffffffffffffffffffffffffffffff16021790555050565b610729613320565b80600b8190555050565b61073b613320565b80600c60016101000a81548161ffff021916908361ffff16021790555050565b60046020528060005260406000206000915054906101000a900461ffff1681565b6006818154811061078c57600080fd5b906000526020600020016000915054906101000a900473ffffffffffffffffffffffffffffffffffffffff1681565b6000600460003273ffffffffffffffffffffffffffffffffffffffff1673ffffffffffffffffffffffffffffffffffffffff16815260200190815260200160002060009054906101000a900461ffff1661ffff1611806108ba5750600b54600860009054906101000a900473ffffffffffffffffffffffffffffffffffffffff1673ffffffffffffffffffffffffffffffffffffffff1663dd62ed3e32306040518363ffffffff1660e01b8152600401610876929190613f2d565b602060405180830381865afa158015610893573d6000803e3d6000fd5b505050506040513d601f19601f820116820180604052508101906108b79190613f6b565b10155b6108f9576040517f08c379a00000000000000000000000000000000000000000000000000000000081526004016108f090613ff5565b60405180910390fd5b60006003600160025461090c9190614044565b8154811061091d5761091c614078565b5b9060005260206000200160009054906101000a900473ffffffffffffffffffffffffffffffffffffffff1690506000600460003373ffffffffffffffffffffffffffffffffffffffff1673ffffffffffffffffffffffffffffffffffffffff16815260200190815260200160002060009054906101000a900461ffff1661ffff161115610a2157600460003373ffffffffffffffffffffffffffffffffffffffff1673ffffffffffffffffffffffffffffffffffffffff168152602001908152602001600020600081819054906101000a900461ffff1680929190610a01906140a7565b91906101000a81548161ffff021916908361ffff16021790555050610d41565b600b54600860009054906101000a900473ffffffffffffffffffffffffffffffffffffffff1673ffffffffffffffffffffffffffffffffffffffff166370a08231326040518263ffffffff1660e01b8152600401610a7f91906139bf565b602060405180830381865afa158015610a9c573d6000803e3d6000fd5b505050506040513d601f19601f82011682018060405250810190610ac09190613f6b565b1015610b01576040517f08c379a0000000000000000000000000000000000000000000000000000000008152600401610af89061411c565b60405180910390fd5b6006805490506005600081819054906101000a900461ffff1680929190610b279061413c565b91906101000a81548161ffff021916908361ffff16021790555061ffff16610b4f9190614195565b600560006101000a81548161ffff021916908361ffff16021790555060008173ffffffffffffffffffffffffffffffffffffffff1663af33d08f600b546040518263ffffffff1660e01b8152600401610ba891906139f3565b602060405180830381865afa158015610bc5573d6000803e3d6000fd5b505050506040513d601f19601f82011682018060405250810190610be99190613f6b565b9050610c78600860009054906101000a900473ffffffffffffffffffffffffffffffffffffffff16336006600560009054906101000a900461ffff1661ffff1681548110610c3a57610c39614078565b5b9060005260206000200160009054906101000a900473ffffffffffffffffffffffffffffffffffffffff1684600b54610c739190614044565b6133a7565b610cc8600860009054906101000a900473ffffffffffffffffffffffffffffffffffffffff1633600760009054906101000a900473ffffffffffffffffffffffffffffffffffffffff16846133a7565b8173ffffffffffffffffffffffffffffffffffffffff1663b56c12b4600b546040518263ffffffff1660e01b8152600401610d0391906139f3565b600060405180830381600087803b158015610d1d57600080fd5b505af1158015610d31573d6000803e3d6000fd5b50505050610d3f3384613429565b505b8073ffffffffffffffffffffffffffffffffffffffff1663266fbf90868686866040518563ffffffff1660e01b8152600401610d809493929190614284565b600060405180830381600087803b158015610d9a57600080fd5b505af1158015610dae573d6000803e3d6000fd5b505050505050505050565b600860009054906101000a900473ffffffffffffffffffffffffffffffffffffffff1681565b610de7613320565b60005b600680549050811015610f69578173ffffffffffffffffffffffffffffffffffffffff1660068281548110610e2257610e21614078565b5b9060005260206000200160009054906101000a900473ffffffffffffffffffffffffffffffffffffffff1673ffffffffffffffffffffffffffffffffffffffff1603610f5c5760066001600680549050610e7c9190614044565b81548110610e8d57610e8c614078565b5b9060005260206000200160009054906101000a900473ffffffffffffffffffffffffffffffffffffffff1660068281548110610ecc57610ecb614078565b5b9060005260206000200160006101000a81548173ffffffffffffffffffffffffffffffffffffffff021916908373ffffffffffffffffffffffffffffffffffffffff1602179055506006805480610f2657610f256142d0565b5b6001900381819060005260206000200160006101000a81549073ffffffffffffffffffffffffffffffffffffffff021916905590555b8080600101915050610dea565b5050565b610f75613320565b60026000815480929190610f88906142ff565b91905055506001600254111561135f576003600c60039054906101000a900473ffffffffffffffffffffffffffffffffffffffff1673ffffffffffffffffffffffffffffffffffffffff166363ea940f83600360028054610fe99190614044565b81548110610ffa57610ff9614078565b5b9060005260206000200160009054906101000a900473ffffffffffffffffffffffffffffffffffffffff166040518363ffffffff1660e01b8152600401611042929190614347565b6020604051808303816000875af1158015611061573d6000803e3d6000fd5b505050506040513d601f19601f820116820180604052508101906110859190614385565b9080600181540180825580915050600190039060005260206000200160009091909190916101000a81548173ffffffffffffffffffffffffffffffffffffffff021916908373ffffffffffffffffffffffffffffffffffffffff1602179055506003600280546110f59190614044565b8154811061110657611105614078565b5b9060005260206000200160009054906101000a900473ffffffffffffffffffffffffffffffffffffffff1673ffffffffffffffffffffffffffffffffffffffff16639f8743f76040518163ffffffff1660e01b8152600401600060405180830381865afa15801561117b573d6000803e3d6000fd5b505050506040513d6000823e3d601f19601f820116820180604052508101906111a491906146d2565b606001516111e7576040517f08c379a00000000000000000000000000000000000000000000000000000000081526004016111de90614767565b60405180910390fd5b600360016002546111f89190614044565b8154811061120957611208614078565b5b9060005260206000200160009054906101000a900473ffffffffffffffffffffffffffffffffffffffff1673ffffffffffffffffffffffffffffffffffffffff1663b288e1a96040518163ffffffff1660e01b8152600401602060405180830381865afa15801561127e573d6000803e3d6000fd5b505050506040513d601f19601f820116820180604052508101906112a29190614385565b73ffffffffffffffffffffffffffffffffffffffff166003600280546112c89190614044565b815481106112d9576112d8614078565b5b9060005260206000200160009054906101000a900473ffffffffffffffffffffffffffffffffffffffff1673ffffffffffffffffffffffffffffffffffffffff161461135a576040517f08c379a0000000000000000000000000000000000000000000000000000000008152600401611351906147f9565b60405180910390fd5b611463565b6003600c60039054906101000a900473ffffffffffffffffffffffffffffffffffffffff1673ffffffffffffffffffffffffffffffffffffffff166363ea940f8360006040518363ffffffff1660e01b81526004016113bf929190614347565b6020604051808303816000875af11580156113de573d6000803e3d6000fd5b505050506040513d601f19601f820116820180604052508101906114029190614385565b9080600181540180825580915050600190039060005260206000200160009091909190916101000a81548173ffffffffffffffffffffffffffffffffffffffff021916908373ffffffffffffffffffffffffffffffffffffffff1602179055505b50565b6000611470611d5b565b905060008173ffffffffffffffffffffffffffffffffffffffff16639b7be8fc846040518263ffffffff1660e01b81526004016114ad91906139f3565b60e060405180830381865afa1580156114ca573d6000803e3d6000fd5b505050506040513d601f19601f820116820180604052508101906114ee91906148f2565b905082816000015114611536576040517f08c379a000000000000000000000000000000000000000000000000000000000815260040161152d9061496b565b60405180910390fd5b3373ffffffffffffffffffffffffffffffffffffffff16816020015173ffffffffffffffffffffffffffffffffffffffff16146115a8576040517f08c379a000000000000000000000000000000000000000000000000000000000815260040161159f906149d7565b60405180910390fd5b8060600151156115ed576040517f08c379a00000000000000000000000000000000000000000000000000000000081526004016115e490614a43565b60405180910390fd5b8173ffffffffffffffffffffffffffffffffffffffff16639f8743f76040518163ffffffff1660e01b8152600401600060405180830381865afa158015611638573d6000803e3d6000fd5b505050506040513d6000823e3d601f19601f8201168201806040525081019061166191906146d2565b606001516116a4576040517f08c379a000000000000000000000000000000000000000000000000000000000815260040161169b90614aaf565b60405180910390fd5b6000600a8111156116b8576116b7614acf565b5b8160a00151600a8111156116cf576116ce614acf565b5b0361170f576040517f08c379a000000000000000000000000000000000000000000000000000000000815260040161170690614b4a565b60405180910390fd5b600a60009054906101000a900473ffffffffffffffffffffffffffffffffffffffff1673ffffffffffffffffffffffffffffffffffffffff16632aa601708373ffffffffffffffffffffffffffffffffffffffff16639f8743f76040518163ffffffff1660e01b8152600401600060405180830381865afa158015611798573d6000803e3d6000fd5b505050506040513d6000823e3d601f19601f820116820180604052508101906117c191906146d2565b60000151856040518363ffffffff1660e01b81526004016117e3929190614b6a565b6040805180830381865afa1580156117ff573d6000803e3d6000fd5b505050506040513d601f19601f820116820180604052508101906118239190614be3565b60200151600a81111561183957611838614acf565b5b8160a00151600a8111156118505761184f614acf565b5b14611890576040517f08c379a000000000000000000000000000000000000000000000000000000000815260040161188790614c5c565b60405180910390fd5b60008273ffffffffffffffffffffffffffffffffffffffff1663efa3d5318360a001516040518263ffffffff1660e01b81526004016118cf9190614cc4565b602060405180830381865afa1580156118ec573d6000803e3d6000fd5b505050506040513d601f19601f820116820180604052508101906119109190613f6b565b8373ffffffffffffffffffffffffffffffffffffffff1663e2e308308460a001516040518263ffffffff1660e01b815260040161194d9190614cc4565b602060405180830381865afa15801561196a573d6000803e3d6000fd5b505050506040513d601f19601f8201168201806040525081019061198e9190613f6b565b8161199c5761199b614166565b5b04905080600860009054906101000a900473ffffffffffffffffffffffffffffffffffffffff1673ffffffffffffffffffffffffffffffffffffffff166370a08231306040518263ffffffff1660e01b81526004016119fb91906139bf565b602060405180830381865afa158015611a18573d6000803e3d6000fd5b505050506040513d601f19601f82011682018060405250810190611a3c9190613f6b565b1015611a7d576040517f08c379a0000000000000000000000000000000000000000000000000000000008152600401611a7490614d2b565b60405180910390fd5b611a85611d5b565b73ffffffffffffffffffffffffffffffffffffffff166382e5892385836040518363ffffffff1660e01b8152600401611abf929190614b6a565b600060405180830381600087803b158015611ad957600080fd5b505af1158015611aed573d6000803e3d6000fd5b50505050600860009054906101000a900473ffffffffffffffffffffffffffffffffffffffff1673ffffffffffffffffffffffffffffffffffffffff1663a9059cbb33836040518363ffffffff1660e01b8152600401611b4e929190614d4b565b6020604051808303816000875af1158015611b6d573d6000803e3d6000fd5b505050506040513d601f19601f82011682018060405250810190611b919190614d74565b5050505050565b611ba0613320565b80600860006101000a81548173ffffffffffffffffffffffffffffffffffffffff021916908373ffffffffffffffffffffffffffffffffffffffff16021790555050565b611bec613320565b611bf6600061356c565b565b600c60039054906101000a900473ffffffffffffffffffffffffffffffffffffffff1681565b60038181548110611c2e57600080fd5b906000526020600020016000915054906101000a900473ffffffffffffffffffffffffffffffffffffffff1681565b60008060009054906101000a900473ffffffffffffffffffffffffffffffffffffffff16905090565b600560009054906101000a900461ffff1681565b611ca2613320565b60008173ffffffffffffffffffffffffffffffffffffffff166370a08231306040518263ffffffff1660e01b8152600401611cdd91906139bf565b602060405180830381865afa158015611cfa573d6000803e3d6000fd5b505050506040513d601f19601f82011682018060405250810190611d1e9190613f6b565b90506000811115611d5757611d5682600160009054906101000a900473ffffffffffffffffffffffffffffffffffffffff1683613630565b5b5050565b600060036001600254611d6e9190614044565b81548110611d7f57611d7e614078565b5b9060005260206000200160009054906101000a900473ffffffffffffffffffffffffffffffffffffffff16905090565b611db7613320565b6003600182611dc69190614044565b81548110611dd757611dd6614078565b5b9060005260206000200160009054906101000a900473ffffffffffffffffffffffffffffffffffffffff1673ffffffffffffffffffffffffffffffffffffffff16633590bd3c600a60009054906101000a900473ffffffffffffffffffffffffffffffffffffffff1673ffffffffffffffffffffffffffffffffffffffff1663c099ae19846040518263ffffffff1660e01b8152600401611e7891906139f3565b600060405180830381865afa158015611e95573d6000803e3d6000fd5b505050506040513d6000823e3d601f19601f82011682018060405250810190611ebe9190614e64565b600a60009054906101000a900473ffffffffffffffffffffffffffffffffffffffff1673ffffffffffffffffffffffffffffffffffffffff1663d856f0d5856040518263ffffffff1660e01b8152600401611f1991906139f3565b600060405180830381865afa158015611f36573d6000803e3d6000fd5b505050506040513d6000823e3d601f19601f82011682018060405250810190611f5f9190614fc0565b6040518363ffffffff1660e01b8152600401611f7c9291906151f2565b600060405180830381600087803b158015611f9657600080fd5b505af1158015611faa573d6000803e3d6000fd5b5050505050565b611fb9613320565b80600760006101000a81548173ffffffffffffffffffffffffffffffffffffffff021916908373ffffffffffffffffffffffffffffffffffffffff16021790555050565b6000612007611d5b565b905060008173ffffffffffffffffffffffffffffffffffffffff1663dd85ae5f846040518263ffffffff1660e01b815260040161204491906139f3565b60a060405180830381865afa158015612061573d6000803e3d6000fd5b505050506040513d601f19601f8201168201806040525081019061208591906152b5565b9050828160000151146120cd576040517f08c379a00000000000000000000000000000000000000000000000000000000081526004016120c49061496b565b60405180910390fd5b3373ffffffffffffffffffffffffffffffffffffffff16816020015173ffffffffffffffffffffffffffffffffffffffff161461213f576040517f08c379a0000000000000000000000000000000000000000000000000000000008152600401612136906149d7565b60405180910390fd5b806080015115612184576040517f08c379a000000000000000000000000000000000000000000000000000000000815260040161217b90614a43565b60405180910390fd5b8173ffffffffffffffffffffffffffffffffffffffff16639f8743f76040518163ffffffff1660e01b8152600401600060405180830381865afa1580156121cf573d6000803e3d6000fd5b505050506040513d6000823e3d601f19601f820116820180604052508101906121f891906146d2565b6060015161223b576040517f08c379a000000000000000000000000000000000000000000000000000000000815260040161223290614aaf565b60405180910390fd5b600115158160600151151514612286576040517f08c379a000000000000000000000000000000000000000000000000000000000815260040161227d90614b4a565b60405180910390fd5b600a60009054906101000a900473ffffffffffffffffffffffffffffffffffffffff1673ffffffffffffffffffffffffffffffffffffffff1663078a6dbf8373ffffffffffffffffffffffffffffffffffffffff16639f8743f76040518163ffffffff1660e01b8152600401600060405180830381865afa15801561230f573d6000803e3d6000fd5b505050506040513d6000823e3d601f19601f8201168201806040525081019061233891906146d2565b60000151856040518363ffffffff1660e01b815260040161235a929190614b6a565b6040805180830381865afa158015612376573d6000803e3d6000fd5b505050506040513d601f19601f8201168201806040525081019061239a91906152e2565b60200151151581606001511515146123e7576040517f08c379a00000000000000000000000000000000000000000000000000000000081526004016123de90614c5c565b60405180910390fd5b6000600a60009054906101000a900473ffffffffffffffffffffffffffffffffffffffff1673ffffffffffffffffffffffffffffffffffffffff1663f1664df68473ffffffffffffffffffffffffffffffffffffffff16639f8743f76040518163ffffffff1660e01b8152600401600060405180830381865afa158015612472573d6000803e3d6000fd5b505050506040513d6000823e3d601f19601f8201168201806040525081019061249b91906146d2565b600001516040518263ffffffff1660e01b81526004016124bb91906139f3565b602060405180830381865afa1580156124d8573d6000803e3d6000fd5b505050506040513d601f19601f820116820180604052508101906124fc919061530f565b61ffff168373ffffffffffffffffffffffffffffffffffffffff1663e2e3083060076040518263ffffffff1660e01b815260040161253a9190614cc4565b602060405180830381865afa158015612557573d6000803e3d6000fd5b505050506040513d601f19601f8201168201806040525081019061257b9190613f6b565b8161258957612588614166565b5b04905080600860009054906101000a900473ffffffffffffffffffffffffffffffffffffffff1673ffffffffffffffffffffffffffffffffffffffff166370a08231306040518263ffffffff1660e01b81526004016125e891906139bf565b602060405180830381865afa158015612605573d6000803e3d6000fd5b505050506040513d601f19601f820116820180604052508101906126299190613f6b565b101561266a576040517f08c379a000000000000000000000000000000000000000000000000000000000815260040161266190614d2b565b60405180910390fd5b612672611d5b565b73ffffffffffffffffffffffffffffffffffffffff16630cee803c85836040518363ffffffff1660e01b81526004016126ac929190614b6a565b600060405180830381600087803b1580156126c657600080fd5b505af11580156126da573d6000803e3d6000fd5b50505050600860009054906101000a900473ffffffffffffffffffffffffffffffffffffffff1673ffffffffffffffffffffffffffffffffffffffff1663a9059cbb33836040518363ffffffff1660e01b815260040161273b929190614d4b565b6020604051808303816000875af115801561275a573d6000803e3d6000fd5b505050506040513d601f19601f8201168201806040525081019061277e9190614d74565b5050505050565b61278d613320565b60005b8282905081101561284757600460008484848181106127b2576127b1614078565b5b90506020020160208101906127c79190613a3a565b73ffffffffffffffffffffffffffffffffffffffff1673ffffffffffffffffffffffffffffffffffffffff168152602001908152602001600020600081819054906101000a900461ffff168092919061281f9061413c565b91906101000a81548161ffff021916908361ffff160217905550508080600101915050612790565b505050565b612854613320565b60005b600680549050811015612924578173ffffffffffffffffffffffffffffffffffffffff166006828154811061288f5761288e614078565b5b9060005260206000200160009054906101000a900473ffffffffffffffffffffffffffffffffffffffff1673ffffffffffffffffffffffffffffffffffffffff1603612917576000612916576040517f08c379a000000000000000000000000000000000000000000000000000000000815260040161290d90615388565b60405180910390fd5b5b8080600101915050612857565b506006819080600181540180825580915050600190039060005260206000200160009091909190916101000a81548173ffffffffffffffffffffffffffffffffffffffff021916908373ffffffffffffffffffffffffffffffffffffffff16021790555050565b612993613320565b6000471115612a0657600160009054906101000a900473ffffffffffffffffffffffffffffffffffffffff1673ffffffffffffffffffffffffffffffffffffffff166108fc479081150290604051600060405180830381858888f19350505050158015612a04573d6000803e3d6000fd5b505b565b600d6020528060005260406000206000915090505481565b600a60009054906101000a900473ffffffffffffffffffffffffffffffffffffffff1681565b612a4e613320565b60006003600183612a5f9190614044565b81548110612a7057612a6f614078565b5b9060005260206000200160009054906101000a900473ffffffffffffffffffffffffffffffffffffffff1690508073ffffffffffffffffffffffffffffffffffffffff1663343f25666040518163ffffffff1660e01b815260040160006040518083038186803b158015612ae357600080fd5b505afa158015612af7573d6000803e3d6000fd5b50505050600080600960009054906101000a900473ffffffffffffffffffffffffffffffffffffffff1673ffffffffffffffffffffffffffffffffffffffff1663d8a4676f600d6000878152602001908152602001600020546040518263ffffffff1660e01b8152600401612b6c91906139f3565b600060405180830381865afa158015612b89573d6000803e3d6000fd5b505050506040513d6000823e3d601f19601f82011682018060405250810190612bb291906153a8565b9150915081612bf6576040517f08c379a0000000000000000000000000000000000000000000000000000000008152600401612bed90615450565b60405180910390fd5b6000600567ffffffffffffffff811115612c1357612c12613b67565b5b604051908082528060200260200182016040528015612c415781602001602082028036833780820191505090505b50905060008060068451612c559190614044565b67ffffffffffffffff811115612c6e57612c6d613b67565b5b604051908082528060200260200182016040528015612c9c5781602001602082028036833780820191505090505b5090508415612f5f5760005b6005811015612da257600a60009054906101000a900473ffffffffffffffffffffffffffffffffffffffff1673ffffffffffffffffffffffffffffffffffffffff16630c746a8a868381518110612d0257612d01614078565b5b60200260200101516045876040518463ffffffff1660e01b8152600401612d2b939291906154ab565b602060405180830381865afa158015612d48573d6000803e3d6000fd5b505050506040513d601f19601f82011682018060405250810190612d6c919061530f565b848281518110612d7f57612d7e614078565b5b602002602001019061ffff16908161ffff16815250508080600101915050612ca8565b506001601a85600581518110612dbb57612dba614078565b5b6020026020010151612dcd9190614195565b612dd791906154e9565b91506000600690505b8451811015612f5d57600a60009054906101000a900473ffffffffffffffffffffffffffffffffffffffff1673ffffffffffffffffffffffffffffffffffffffff16630c746a8a868381518110612e3a57612e39614078565b5b60200260200101518973ffffffffffffffffffffffffffffffffffffffff16639f8743f76040518163ffffffff1660e01b8152600401600060405180830381865afa158015612e8d573d6000803e3d6000fd5b505050506040513d6000823e3d601f19601f82011682018060405250810190612eb691906146d2565b6101600151856040518463ffffffff1660e01b8152600401612eda9392919061551d565b602060405180830381865afa158015612ef7573d6000803e3d6000fd5b505050506040513d601f19601f82011682018060405250810190612f1b919061530f565b82600683612f299190614044565b81518110612f3a57612f39614078565b5b602002602001019061ffff16908161ffff16815250508080600101915050612de0565b505b8573ffffffffffffffffffffffffffffffffffffffff16636a65bcda8484846040518463ffffffff1660e01b8152600401612f9c9392919061555b565b600060405180830381600087803b158015612fb657600080fd5b505af1158015612fca573d6000803e3d6000fd5b5050505050505050505050565b600c60009054906101000a900460ff1681565b612ff2613320565b6000600360016002546130059190614044565b8154811061301657613015614078565b5b9060005260206000200160009054906101000a900473ffffffffffffffffffffffffffffffffffffffff1690508073ffffffffffffffffffffffffffffffffffffffff1663e278fe6f6040518163ffffffff1660e01b8152600401600060405180830381600087803b15801561308b57600080fd5b505af115801561309f573d6000803e3d6000fd5b505050506000600a60009054906101000a900473ffffffffffffffffffffffffffffffffffffffff1673ffffffffffffffffffffffffffffffffffffffff1663f1664df66002546040518263ffffffff1660e01b815260040161310291906139f3565b602060405180830381865afa15801561311f573d6000803e3d6000fd5b505050506040513d601f19601f82011682018060405250810190613143919061530f565b9050600960009054906101000a900473ffffffffffffffffffffffffffffffffffffffff1673ffffffffffffffffffffffffffffffffffffffff1663e726f2e182600661319091906155a0565b6040518263ffffffff1660e01b81526004016131ac9190615617565b6020604051808303816000875af11580156131cb573d6000803e3d6000fd5b505050506040513d601f19601f820116820180604052508101906131ef9190613f6b565b600d60006002548152602001908152602001600020819055505050565b600960009054906101000a900473ffffffffffffffffffffffffffffffffffffffff1681565b61323a613320565b600073ffffffffffffffffffffffffffffffffffffffff168173ffffffffffffffffffffffffffffffffffffffff16036132ac5760006040517f1e4fbdf70000000000000000000000000000000000000000000000000000000081526004016132a391906139bf565b60405180910390fd5b6132b58161356c565b50565b600c60019054906101000a900461ffff1681565b600060036001836132dd9190614044565b815481106132ee576132ed614078565b5b9060005260206000200160009054906101000a900473ffffffffffffffffffffffffffffffffffffffff169050919050565b6133286136af565b73ffffffffffffffffffffffffffffffffffffffff16613346611c5d565b73ffffffffffffffffffffffffffffffffffffffff16146133a5576133696136af565b6040517f118cdaa700000000000000000000000000000000000000000000000000000000815260040161339c91906139bf565b60405180910390fd5b565b613423848573ffffffffffffffffffffffffffffffffffffffff166323b872dd8686866040516024016133dc93929190615632565b604051602081830303815290604052915060e01b6020820180517bffffffffffffffffffffffffffffffffffffffffffffffffffffffff83818316178352505050506136b7565b50505050565b600073ffffffffffffffffffffffffffffffffffffffff168173ffffffffffffffffffffffffffffffffffffffff16141580156134725750600c60009054906101000a900460ff165b1561356857600460008373ffffffffffffffffffffffffffffffffffffffff1673ffffffffffffffffffffffffffffffffffffffff168152602001908152602001600020600081819054906101000a900461ffff16809291906134d49061413c565b91906101000a81548161ffff021916908361ffff16021790555050600460008273ffffffffffffffffffffffffffffffffffffffff1673ffffffffffffffffffffffffffffffffffffffff168152602001908152602001600020600081819054906101000a900461ffff168092919061354c9061413c565b91906101000a81548161ffff021916908361ffff160217905550505b5050565b60008060009054906101000a900473ffffffffffffffffffffffffffffffffffffffff169050816000806101000a81548173ffffffffffffffffffffffffffffffffffffffff021916908373ffffffffffffffffffffffffffffffffffffffff1602179055508173ffffffffffffffffffffffffffffffffffffffff168173ffffffffffffffffffffffffffffffffffffffff167f8be0079c531659141344cd1fd0a4f28419497f9722a3daafe3b4186f6b6457e060405160405180910390a35050565b6136aa838473ffffffffffffffffffffffffffffffffffffffff1663a9059cbb8585604051602401613663929190614d4b565b604051602081830303815290604052915060e01b6020820180517bffffffffffffffffffffffffffffffffffffffffffffffffffffffff83818316178352505050506136b7565b505050565b600033905090565b60006136e2828473ffffffffffffffffffffffffffffffffffffffff1661374e90919063ffffffff16565b905060008151141580156137075750808060200190518101906137059190614d74565b155b1561374957826040517f5274afe700000000000000000000000000000000000000000000000000000000815260040161374091906139bf565b60405180910390fd5b505050565b606061375c83836000613764565b905092915050565b6060814710156137ab57306040517fcd7860590000000000000000000000000000000000000000000000000000000081526004016137a291906139bf565b60405180910390fd5b6000808573ffffffffffffffffffffffffffffffffffffffff1684866040516137d491906156da565b60006040518083038185875af1925050503d8060008114613811576040519150601f19603f3d011682016040523d82523d6000602084013e613816565b606091505b5091509150613826868383613831565b925050509392505050565b60608261384657613841826138c0565b6138b8565b6000825114801561386e575060008473ffffffffffffffffffffffffffffffffffffffff163b145b156138b057836040517f9996b3150000000000000000000000000000000000000000000000000000000081526004016138a791906139bf565b60405180910390fd5b8190506138b9565b5b9392505050565b6000815111156138d35780518082602001fd5b6040517f1425ea4200000000000000000000000000000000000000000000000000000000815260040160405180910390fd5b6000604051905090565b600080fd5b600080fd5b60008115159050919050565b61392e81613919565b811461393957600080fd5b50565b60008135905061394b81613925565b92915050565b6000602082840312156139675761396661390f565b5b60006139758482850161393c565b91505092915050565b600073ffffffffffffffffffffffffffffffffffffffff82169050919050565b60006139a98261397e565b9050919050565b6139b98161399e565b82525050565b60006020820190506139d460008301846139b0565b92915050565b6000819050919050565b6139ed816139da565b82525050565b6000602082019050613a0860008301846139e4565b92915050565b613a178161399e565b8114613a2257600080fd5b50565b600081359050613a3481613a0e565b92915050565b600060208284031215613a5057613a4f61390f565b5b6000613a5e84828501613a25565b91505092915050565b613a70816139da565b8114613a7b57600080fd5b50565b600081359050613a8d81613a67565b92915050565b600060208284031215613aa957613aa861390f565b5b6000613ab784828501613a7e565b91505092915050565b600061ffff82169050919050565b613ad781613ac0565b8114613ae257600080fd5b50565b600081359050613af481613ace565b92915050565b600060208284031215613b1057613b0f61390f565b5b6000613b1e84828501613ae5565b91505092915050565b613b3081613ac0565b82525050565b6000602082019050613b4b6000830184613b27565b92915050565b600080fd5b6000601f19601f8301169050919050565b7f4e487b7100000000000000000000000000000000000000000000000000000000600052604160045260246000fd5b613b9f82613b56565b810181811067ffffffffffffffff82111715613bbe57613bbd613b67565b5b80604052505050565b6000613bd1613905565b9050613bdd8282613b96565b919050565b600067ffffffffffffffff821115613bfd57613bfc613b67565b5b602082029050602081019050919050565b600080fd5b6000613c26613c2184613be2565b613bc7565b90508083825260208201905060208402830185811115613c4957613c48613c0e565b5b835b81811015613c725780613c5e8882613ae5565b845260208401935050602081019050613c4b565b5050509392505050565b600082601f830112613c9157613c90613b51565b5b8135613ca1848260208601613c13565b91505092915050565b60008060008060808587031215613cc457613cc361390f565b5b6000613cd287828801613a7e565b945050602085013567ffffffffffffffff811115613cf357613cf2613914565b5b613cff87828801613c7c565b9350506040613d1087828801613ae5565b9250506060613d2187828801613a25565b91505092959194509250565b6000819050919050565b6000613d52613d4d613d488461397e565b613d2d565b61397e565b9050919050565b6000613d6482613d37565b9050919050565b6000613d7682613d59565b9050919050565b613d8681613d6b565b82525050565b6000602082019050613da16000830184613d7d565b92915050565b6000613db282613d59565b9050919050565b613dc281613da7565b82525050565b6000602082019050613ddd6000830184613db9565b92915050565b600080fd5b60008083601f840112613dfe57613dfd613b51565b5b8235905067ffffffffffffffff811115613e1b57613e1a613de3565b5b602083019150836020820283011115613e3757613e36613c0e565b5b9250929050565b60008060208385031215613e5557613e5461390f565b5b600083013567ffffffffffffffff811115613e7357613e72613914565b5b613e7f85828601613de8565b92509250509250929050565b6000613e9682613d59565b9050919050565b613ea681613e8b565b82525050565b6000602082019050613ec16000830184613e9d565b92915050565b613ed081613919565b82525050565b6000602082019050613eeb6000830184613ec7565b92915050565b6000613efc82613d59565b9050919050565b613f0c81613ef1565b82525050565b6000602082019050613f276000830184613f03565b92915050565b6000604082019050613f4260008301856139b0565b613f4f60208301846139b0565b9392505050565b600081519050613f6581613a67565b92915050565b600060208284031215613f8157613f8061390f565b5b6000613f8f84828501613f56565b91505092915050565b600082825260208201905092915050565b7f4d697373696e6720416c6c6f77616e6365000000000000000000000000000000600082015250565b6000613fdf601183613f98565b9150613fea82613fa9565b602082019050919050565b6000602082019050818103600083015261400e81613fd2565b9050919050565b7f4e487b7100000000000000000000000000000000000000000000000000000000600052601160045260246000fd5b600061404f826139da565b915061405a836139da565b925082820390508181111561407257614071614015565b5b92915050565b7f4e487b7100000000000000000000000000000000000000000000000000000000600052603260045260246000fd5b60006140b282613ac0565b9150600082036140c5576140c4614015565b5b600182039050919050565b7f496e73756666696369656e742066756e64730000000000000000000000000000600082015250565b6000614106601283613f98565b9150614111826140d0565b602082019050919050565b60006020820190508181036000830152614135816140f9565b9050919050565b600061414782613ac0565b915061ffff820361415b5761415a614015565b5b600182019050919050565b7f4e487b7100000000000000000000000000000000000000000000000000000000600052601260045260246000fd5b60006141a0826139da565b91506141ab836139da565b9250826141bb576141ba614166565b5b828206905092915050565b600081519050919050565b600082825260208201905092915050565b6000819050602082019050919050565b6141fb81613ac0565b82525050565b600061420d83836141f2565b60208301905092915050565b6000602082019050919050565b6000614231826141c6565b61423b81856141d1565b9350614246836141e2565b8060005b8381101561427757815161425e8882614201565b975061426983614219565b92505060018101905061424a565b5085935050505092915050565b600060808201905061429960008301876139e4565b81810360208301526142ab8186614226565b90506142ba6040830185613b27565b6142c760608301846139b0565b95945050505050565b7f4e487b7100000000000000000000000000000000000000000000000000000000600052603160045260246000fd5b600061430a826139da565b91507fffffffffffffffffffffffffffffffffffffffffffffffffffffffffffffffff820361433c5761433b614015565b5b600182019050919050565b600060408201905061435c60008301856139e4565b61436960208301846139b0565b9392505050565b60008151905061437f81613a0e565b92915050565b60006020828403121561439b5761439a61390f565b5b60006143a984828501614370565b91505092915050565b600080fd5b600080fd5b6000815190506143cb81613925565b92915050565b6000815190506143e081613ace565b92915050565b60006143f96143f484613be2565b613bc7565b9050808382526020820190506020840283018581111561441c5761441b613c0e565b5b835b81811015614445578061443188826143d1565b84526020840193505060208101905061441e565b5050509392505050565b600082601f83011261446457614463613b51565b5b81516144748482602086016143e6565b91505092915050565b600067ffffffffffffffff82111561449857614497613b67565b5b602082029050602081019050919050565b60006144bc6144b78461447d565b613bc7565b905080838252602082019050602084028301858111156144df576144de613c0e565b5b835b8181101561450857806144f48882613f56565b8452602084019350506020810190506144e1565b5050509392505050565b600082601f83011261452757614526613b51565b5b81516145378482602086016144a9565b91505092915050565b60006101808284031215614557576145566143b2565b5b614562610180613bc7565b9050600061457284828501613f56565b600083015250602061458684828501613f56565b602083015250604061459a84828501613f56565b60408301525060606145ae848285016143bc565b606083015250608082015167ffffffffffffffff8111156145d2576145d16143b7565b5b6145de8482850161444f565b60808301525060a06145f2848285016143d1565b60a08301525060c082015167ffffffffffffffff811115614616576146156143b7565b5b6146228482850161444f565b60c08301525060e0614636848285016143d1565b60e08301525061010082015167ffffffffffffffff81111561465b5761465a6143b7565b5b61466784828501614512565b6101008301525061012061467d848285016143d1565b6101208301525061014082015167ffffffffffffffff8111156146a3576146a26143b7565b5b6146af84828501614512565b610140830152506101606146c5848285016143d1565b6101608301525092915050565b6000602082840312156146e8576146e761390f565b5b600082015167ffffffffffffffff81111561470657614705613914565b5b61471284828501614540565b91505092915050565b7f50726576696f757320726f756e64206e6f7420656e6465640000000000000000600082015250565b6000614751601883613f98565b915061475c8261471b565b602082019050919050565b6000602082019050818103600083015261478081614744565b9050919050565b7f50726576696f757320726f756e64206e6f742070726f7061676174656420636f60008201527f72726563746c7900000000000000000000000000000000000000000000000000602082015250565b60006147e3602783613f98565b91506147ee82614787565b604082019050919050565b60006020820190508181036000830152614812816147d6565b9050919050565b600b811061482657600080fd5b50565b60008151905061483881614819565b92915050565b600060e08284031215614854576148536143b2565b5b61485e60e0613bc7565b9050600061486e84828501613f56565b600083015250602061488284828501614370565b602083015250604061489684828501614370565b60408301525060606148aa848285016143bc565b60608301525060806148be84828501613f56565b60808301525060a06148d284828501614829565b60a08301525060c06148e6848285016143d1565b60c08301525092915050565b600060e082840312156149085761490761390f565b5b60006149168482850161483e565b91505092915050565b7f496e76616c6964207469636b6574206964000000000000000000000000000000600082015250565b6000614955601183613f98565b91506149608261491f565b602082019050919050565b6000602082019050818103600083015261498481614948565b9050919050565b7f496e76616c6964207469636b6574206f776e6572000000000000000000000000600082015250565b60006149c1601483613f98565b91506149cc8261498b565b602082019050919050565b600060208201905081810360008301526149f0816149b4565b9050919050565b7f5469636b657420616c726561647920636c61696d656400000000000000000000600082015250565b6000614a2d601683613f98565b9150614a38826149f7565b602082019050919050565b60006020820190508181036000830152614a5c81614a20565b9050919050565b7f526f756e64206e6f7420656e6465640000000000000000000000000000000000600082015250565b6000614a99600f83613f98565b9150614aa482614a63565b602082019050919050565b60006020820190508181036000830152614ac881614a8c565b9050919050565b7f4e487b7100000000000000000000000000000000000000000000000000000000600052602160045260246000fd5b7f4e6f207072697a6520666f722074686973207469636b65740000000000000000600082015250565b6000614b34601883613f98565b9150614b3f82614afe565b602082019050919050565b60006020820190508181036000830152614b6381614b27565b9050919050565b6000604082019050614b7f60008301856139e4565b614b8c60208301846139e4565b9392505050565b600060408284031215614ba957614ba86143b2565b5b614bb36040613bc7565b90506000614bc384828501613f56565b6000830152506020614bd784828501614829565b60208301525092915050565b600060408284031215614bf957614bf861390f565b5b6000614c0784828501614b93565b91505092915050565b7f496e76616c6964207469636b6574207469657200000000000000000000000000600082015250565b6000614c46601383613f98565b9150614c5182614c10565b602082019050919050565b60006020820190508181036000830152614c7581614c39565b9050919050565b600b8110614c8d57614c8c614acf565b5b50565b6000819050614c9e82614c7c565b919050565b6000614cae82614c90565b9050919050565b614cbe81614ca3565b82525050565b6000602082019050614cd96000830184614cb5565b92915050565b7f4e6f7420656e6f7567682066756e6473206f6e20636f6e747261637400000000600082015250565b6000614d15601c83613f98565b9150614d2082614cdf565b602082019050919050565b60006020820190508181036000830152614d4481614d08565b9050919050565b6000604082019050614d6060008301856139b0565b614d6d60208301846139e4565b9392505050565b600060208284031215614d8a57614d8961390f565b5b6000614d98848285016143bc565b91505092915050565b600067ffffffffffffffff821115614dbc57614dbb613b67565b5b602082029050602081019050919050565b6000614de0614ddb84614da1565b613bc7565b90508083825260208201905060408402830185811115614e0357614e02613c0e565b5b835b81811015614e2c5780614e188882614b93565b845260208401935050604081019050614e05565b5050509392505050565b600082601f830112614e4b57614e4a613b51565b5b8151614e5b848260208601614dcd565b91505092915050565b600060208284031215614e7a57614e7961390f565b5b600082015167ffffffffffffffff811115614e9857614e97613914565b5b614ea484828501614e36565b91505092915050565b600067ffffffffffffffff821115614ec857614ec7613b67565b5b602082029050602081019050919050565b600060408284031215614eef57614eee6143b2565b5b614ef96040613bc7565b90506000614f0984828501613f56565b6000830152506020614f1d848285016143bc565b60208301525092915050565b6000614f3c614f3784614ead565b613bc7565b90508083825260208201905060408402830185811115614f5f57614f5e613c0e565b5b835b81811015614f885780614f748882614ed9565b845260208401935050604081019050614f61565b5050509392505050565b600082601f830112614fa757614fa6613b51565b5b8151614fb7848260208601614f29565b91505092915050565b600060208284031215614fd657614fd561390f565b5b600082015167ffffffffffffffff811115614ff457614ff3613914565b5b61500084828501614f92565b91505092915050565b600081519050919050565b600082825260208201905092915050565b6000819050602082019050919050565b61503e816139da565b82525050565b61504d81614ca3565b82525050565b6040820160008201516150696000850182615035565b50602082015161507c6020850182615044565b50505050565b600061508e8383615053565b60408301905092915050565b6000602082019050919050565b60006150b282615009565b6150bc8185615014565b93506150c783615025565b8060005b838110156150f85781516150df8882615082565b97506150ea8361509a565b9250506001810190506150cb565b5085935050505092915050565b600081519050919050565b600082825260208201905092915050565b6000819050602082019050919050565b61513a81613919565b82525050565b6040820160008201516151566000850182615035565b5060208201516151696020850182615131565b50505050565b600061517b8383615140565b60408301905092915050565b6000602082019050919050565b600061519f82615105565b6151a98185615110565b93506151b483615121565b8060005b838110156151e55781516151cc888261516f565b97506151d783615187565b9250506001810190506151b8565b5085935050505092915050565b6000604082019050818103600083015261520c81856150a7565b905081810360208301526152208184615194565b90509392505050565b600060a0828403121561523f5761523e6143b2565b5b61524960a0613bc7565b9050600061525984828501613f56565b600083015250602061526d84828501614370565b6020830152506040615281848285016143d1565b6040830152506060615295848285016143bc565b60608301525060806152a9848285016143bc565b60808301525092915050565b600060a082840312156152cb576152ca61390f565b5b60006152d984828501615229565b91505092915050565b6000604082840312156152f8576152f761390f565b5b600061530684828501614ed9565b91505092915050565b6000602082840312156153255761532461390f565b5b6000615333848285016143d1565b91505092915050565b7f57616c6c657420616c7265616479206164646564000000000000000000000000600082015250565b6000615372601483613f98565b915061537d8261533c565b602082019050919050565b600060208201905081810360008301526153a181615365565b9050919050565b600080604083850312156153bf576153be61390f565b5b60006153cd858286016143bc565b925050602083015167ffffffffffffffff8111156153ee576153ed613914565b5b6153fa85828601614512565b9150509250929050565b7f52616e646f6d206e756d62657273206e6f742072656164790000000000000000600082015250565b600061543a601883613f98565b915061544582615404565b602082019050919050565b600060208201905081810360008301526154698161542d565b9050919050565b6000819050919050565b600061549561549061548b84615470565b613d2d565b613ac0565b9050919050565b6154a58161547a565b82525050565b60006060820190506154c060008301866139e4565b6154cd602083018561549c565b81810360408301526154df8184614226565b9050949350505050565b60006154f4826139da565b91506154ff836139da565b925082820190508082111561551757615516614015565b5b92915050565b600060608201905061553260008301866139e4565b61553f6020830185613b27565b81810360408301526155518184614226565b9050949350505050565b600060608201905081810360008301526155758186614226565b90506155846020830185613b27565b81810360408301526155968184614226565b9050949350505050565b60006155ab82613ac0565b91506155b683613ac0565b9250828201905061ffff8111156155d0576155cf614015565b5b92915050565b600063ffffffff82169050919050565b60006156016155fc6155f784613ac0565b613d2d565b6155d6565b9050919050565b615611816155e6565b82525050565b600060208201905061562c6000830184615608565b92915050565b600060608201905061564760008301866139b0565b61565460208301856139b0565b61566160408301846139e4565b949350505050565b600081519050919050565b600081905092915050565b60005b8381101561569d578082015181840152602081019050615682565b60008484015250505050565b60006156b482615669565b6156be8185615674565b93506156ce81856020860161567f565b80840191505092915050565b60006156e682846156a9565b91508190509291505056fea264697066735822122085ac0fcbb47139427d1c0ac68feb1c9945357bb69a7436a994fe5b1de35fac6264736f6c63430008180033",
  "devdoc": {
    "errors": {
      "AddressEmptyCode(address)": [
        {
          "details": "There's no code at `target` (it is not a contract)."
        }
      ],
      "AddressInsufficientBalance(address)": [
        {
          "details": "The ETH balance of the account is not enough to perform the operation."
        }
      ],
      "FailedInnerCall()": [
        {
          "details": "A call to an address target failed. The target may have reverted."
        }
      ],
      "OwnableInvalidOwner(address)": [
        {
          "details": "The owner is not a valid owner account. (eg. `address(0)`)"
        }
      ],
      "OwnableUnauthorizedAccount(address)": [
        {
          "details": "The caller account is not authorized to perform an operation."
        }
      ],
      "SafeERC20FailedOperation(address)": [
        {
          "details": "An operation with an ERC20 token failed."
        }
      ]
    },
    "kind": "dev",
    "methods": {
      "owner()": {
        "details": "Returns the address of the current owner."
      },
      "renounceOwnership()": {
        "details": "Leaves the contract without owner. It will not be possible to call `onlyOwner` functions. Can only be called by the current owner. NOTE: Renouncing ownership will leave the contract without an owner, thereby disabling any functionality that is only available to the owner."
      },
      "transferOwnership(address)": {
        "details": "Transfers ownership of the contract to a new account (`newOwner`). Can only be called by the current owner."
      }
    },
    "version": 1
  },
  "userdoc": {
    "kind": "user",
    "methods": {},
    "version": 1
  },
  "storageLayout": {
    "storage": [
      {
        "astId": 8,
        "contract": "contracts/LotteryMaster.sol:LotteryMaster",
        "label": "_owner",
        "offset": 0,
        "slot": "0",
        "type": "t_address"
      },
      {
        "astId": 4129,
        "contract": "contracts/LotteryMaster.sol:LotteryMaster",
        "label": "teamAddress",
        "offset": 0,
        "slot": "1",
        "type": "t_address"
      },
      {
        "astId": 1000,
        "contract": "contracts/LotteryMaster.sol:LotteryMaster",
        "label": "roundCount",
        "offset": 0,
        "slot": "2",
        "type": "t_uint256"
      },
      {
        "astId": 1003,
        "contract": "contracts/LotteryMaster.sol:LotteryMaster",
        "label": "rounds",
        "offset": 0,
        "slot": "3",
        "type": "t_array(t_address)dyn_storage"
      },
      {
        "astId": 1033,
        "contract": "contracts/LotteryMaster.sol:LotteryMaster",
        "label": "freeRounds",
        "offset": 0,
        "slot": "4",
        "type": "t_mapping(t_address,t_uint16)"
      },
      {
        "astId": 1035,
        "contract": "contracts/LotteryMaster.sol:LotteryMaster",
        "label": "counterForBankWallets",
        "offset": 0,
        "slot": "5",
        "type": "t_uint16"
      },
      {
        "astId": 1038,
        "contract": "contracts/LotteryMaster.sol:LotteryMaster",
        "label": "bankWallets",
        "offset": 0,
        "slot": "6",
        "type": "t_array(t_address)dyn_storage"
      },
      {
        "astId": 1123,
        "contract": "contracts/LotteryMaster.sol:LotteryMaster",
        "label": "treasuryWallets",
        "offset": 0,
        "slot": "7",
        "type": "t_address"
      },
      {
        "astId": 1138,
        "contract": "contracts/LotteryMaster.sol:LotteryMaster",
        "label": "paymentToken",
        "offset": 0,
        "slot": "8",
        "type": "t_contract(IERC20Metadata)251"
      },
      {
        "astId": 1155,
        "contract": "contracts/LotteryMaster.sol:LotteryMaster",
        "label": "randomizer",
        "offset": 0,
        "slot": "9",
        "type": "t_contract(CyclixRandomizerInterface)892"
      },
      {
        "astId": 1158,
        "contract": "contracts/LotteryMaster.sol:LotteryMaster",
        "label": "reader",
        "offset": 0,
        "slot": "10",
        "type": "t_contract(LotteryReaderInterface)3037"
      },
      {
        "astId": 1160,
        "contract": "contracts/LotteryMaster.sol:LotteryMaster",
        "label": "ticketPrice",
        "offset": 0,
        "slot": "11",
        "type": "t_uint256"
      },
      {
        "astId": 1175,
        "contract": "contracts/LotteryMaster.sol:LotteryMaster",
        "label": "freeRoundsAreEnabled",
        "offset": 0,
        "slot": "12",
        "type": "t_bool"
      },
      {
        "astId": 1190,
        "contract": "contracts/LotteryMaster.sol:LotteryMaster",
        "label": "percentageOfReferralWinners",
        "offset": 1,
        "slot": "12",
        "type": "t_uint16"
      },
      {
        "astId": 1205,
        "contract": "contracts/LotteryMaster.sol:LotteryMaster",
        "label": "lotteryRoundCreator",
        "offset": 3,
        "slot": "12",
        "type": "t_contract(LotteryRoundCreatorInterface)4120"
      },
      {
        "astId": 1556,
        "contract": "contracts/LotteryMaster.sol:LotteryMaster",
        "label": "publicRoundRandomNumbersRequestId",
        "offset": 0,
        "slot": "13",
        "type": "t_mapping(t_uint256,t_uint256)"
      }
    ],
    "types": {
      "t_address": {
        "encoding": "inplace",
        "label": "address",
        "numberOfBytes": "20"
      },
      "t_array(t_address)dyn_storage": {
        "base": "t_address",
        "encoding": "dynamic_array",
        "label": "address[]",
        "numberOfBytes": "32"
      },
      "t_bool": {
        "encoding": "inplace",
        "label": "bool",
        "numberOfBytes": "1"
      },
      "t_contract(CyclixRandomizerInterface)892": {
        "encoding": "inplace",
        "label": "contract CyclixRandomizerInterface",
        "numberOfBytes": "20"
      },
      "t_contract(IERC20Metadata)251": {
        "encoding": "inplace",
        "label": "contract IERC20Metadata",
        "numberOfBytes": "20"
      },
      "t_contract(LotteryReaderInterface)3037": {
        "encoding": "inplace",
        "label": "contract LotteryReaderInterface",
        "numberOfBytes": "20"
      },
      "t_contract(LotteryRoundCreatorInterface)4120": {
        "encoding": "inplace",
        "label": "contract LotteryRoundCreatorInterface",
        "numberOfBytes": "20"
      },
      "t_mapping(t_address,t_uint16)": {
        "encoding": "mapping",
        "key": "t_address",
        "label": "mapping(address => uint16)",
        "numberOfBytes": "32",
        "value": "t_uint16"
      },
      "t_mapping(t_uint256,t_uint256)": {
        "encoding": "mapping",
        "key": "t_uint256",
        "label": "mapping(uint256 => uint256)",
        "numberOfBytes": "32",
        "value": "t_uint256"
      },
      "t_uint16": {
        "encoding": "inplace",
        "label": "uint16",
        "numberOfBytes": "2"
      },
      "t_uint256": {
        "encoding": "inplace",
        "label": "uint256",
        "numberOfBytes": "32"
      }
    }
  }
}