{
  "address": "0x5e51d2003D1A4f33b0B0c47dDfE673d9FB5aE0F6",
  "abi": [
    {
      "inputs": [],
      "stateMutability": "nonpayable",
      "type": "constructor"
    },
    {
      "inputs": [
        {
          "internalType": "address",
          "name": "target",
          "type": "address"
        }
      ],
      "name": "AddressEmptyCode",
      "type": "error"
    },
    {
      "inputs": [
        {
          "internalType": "address",
          "name": "account",
          "type": "address"
        }
      ],
      "name": "AddressInsufficientBalance",
      "type": "error"
    },
    {
      "inputs": [],
      "name": "FailedInnerCall",
      "type": "error"
    },
    {
      "inputs": [
        {
          "internalType": "address",
          "name": "owner",
          "type": "address"
        }
      ],
      "name": "OwnableInvalidOwner",
      "type": "error"
    },
    {
      "inputs": [
        {
          "internalType": "address",
          "name": "account",
          "type": "address"
        }
      ],
      "name": "OwnableUnauthorizedAccount",
      "type": "error"
    },
    {
      "inputs": [
        {
          "internalType": "address",
          "name": "token",
          "type": "address"
        }
      ],
      "name": "SafeERC20FailedOperation",
      "type": "error"
    },
    {
      "anonymous": false,
      "inputs": [
        {
          "indexed": true,
          "internalType": "address",
          "name": "previousOwner",
          "type": "address"
        },
        {
          "indexed": true,
          "internalType": "address",
          "name": "newOwner",
          "type": "address"
        }
      ],
      "name": "OwnershipTransferred",
      "type": "event"
    },
    {
      "inputs": [
        {
          "internalType": "uint256",
          "name": "roundId",
          "type": "uint256"
        }
      ],
      "name": "amountWonInRound",
      "outputs": [
        {
          "internalType": "uint256",
          "name": "",
          "type": "uint256"
        }
      ],
      "stateMutability": "view",
      "type": "function"
    },
    {
      "inputs": [
        {
          "internalType": "uint256",
          "name": "roundId",
          "type": "uint256"
        },
        {
          "internalType": "uint256",
          "name": "referralTicketId",
          "type": "uint256"
        }
      ],
      "name": "evaluateWonResultsForOneReferralTicket",
      "outputs": [
        {
          "components": [
            {
              "internalType": "uint256",
              "name": "referralTicketId",
              "type": "uint256"
            },
            {
              "internalType": "bool",
              "name": "won",
              "type": "bool"
            }
          ],
          "internalType": "struct ReferralTicketResults",
          "name": "",
          "type": "tuple"
        }
      ],
      "stateMutability": "view",
      "type": "function"
    },
    {
      "inputs": [
        {
          "internalType": "uint256",
          "name": "roundId",
          "type": "uint256"
        },
        {
          "internalType": "uint256",
          "name": "ticketId",
          "type": "uint256"
        }
      ],
      "name": "evaluateWonResultsForOneTicket",
      "outputs": [
        {
          "components": [
            {
              "internalType": "uint256",
              "name": "ticketId",
              "type": "uint256"
            },
            {
              "internalType": "enum RoundVictoryTier",
              "name": "victoryTier",
              "type": "uint8"
            }
          ],
          "internalType": "struct TicketResults",
          "name": "",
          "type": "tuple"
        }
      ],
      "stateMutability": "view",
      "type": "function"
    },
    {
      "inputs": [
        {
          "internalType": "uint256",
          "name": "roundId",
          "type": "uint256"
        }
      ],
      "name": "evaluateWonResultsForReferral",
      "outputs": [
        {
          "components": [
            {
              "internalType": "uint256",
              "name": "referralTicketId",
              "type": "uint256"
            },
            {
              "internalType": "bool",
              "name": "won",
              "type": "bool"
            }
          ],
          "internalType": "struct ReferralTicketResults[]",
          "name": "",
          "type": "tuple[]"
        }
      ],
      "stateMutability": "view",
      "type": "function"
    },
    {
      "inputs": [
        {
          "internalType": "uint256",
          "name": "roundId",
          "type": "uint256"
        }
      ],
      "name": "evaluateWonResultsForTickets",
      "outputs": [
        {
          "components": [
            {
              "internalType": "uint256",
              "name": "ticketId",
              "type": "uint256"
            },
            {
              "internalType": "enum RoundVictoryTier",
              "name": "victoryTier",
              "type": "uint8"
            }
          ],
          "internalType": "struct TicketResults[]",
          "name": "",
          "type": "tuple[]"
        }
      ],
      "stateMutability": "view",
      "type": "function"
    },
    {
      "inputs": [
        {
          "internalType": "uint16",
          "name": "num",
          "type": "uint16"
        },
        {
          "internalType": "uint16[]",
          "name": "arr",
          "type": "uint16[]"
        }
      ],
      "name": "existInArrayNumber",
      "outputs": [
        {
          "internalType": "bool",
          "name": "",
          "type": "bool"
        }
      ],
      "stateMutability": "pure",
      "type": "function"
    },
    {
      "inputs": [
        {
          "internalType": "uint256",
          "name": "randomNumber",
          "type": "uint256"
        },
        {
          "internalType": "uint16",
          "name": "maxValue",
          "type": "uint16"
        },
        {
          "internalType": "uint16[]",
          "name": "arr",
          "type": "uint16[]"
        }
      ],
      "name": "getRandomUniqueNumberInArrayForMaxValue",
      "outputs": [
        {
          "internalType": "uint16",
          "name": "",
          "type": "uint16"
        }
      ],
      "stateMutability": "pure",
      "type": "function"
    },
    {
      "inputs": [],
      "name": "lotteryMaster",
      "outputs": [
        {
          "internalType": "contract LotteryMaster",
          "name": "",
          "type": "address"
        }
      ],
      "stateMutability": "view",
      "type": "function"
    },
    {
      "inputs": [
        {
          "internalType": "uint16",
          "name": "num",
          "type": "uint16"
        },
        {
          "internalType": "uint16[]",
          "name": "arr",
          "type": "uint16[]"
        }
      ],
      "name": "notExistInArrayNumber",
      "outputs": [
        {
          "internalType": "bool",
          "name": "",
          "type": "bool"
        }
      ],
      "stateMutability": "pure",
      "type": "function"
    },
    {
      "inputs": [
        {
          "internalType": "uint256",
          "name": "roundId",
          "type": "uint256"
        }
      ],
      "name": "numberOfReferralWinnersForRoundId",
      "outputs": [
        {
          "internalType": "uint16",
          "name": "",
          "type": "uint16"
        }
      ],
      "stateMutability": "view",
      "type": "function"
    },
    {
      "inputs": [],
      "name": "owner",
      "outputs": [
        {
          "internalType": "address",
          "name": "",
          "type": "address"
        }
      ],
      "stateMutability": "view",
      "type": "function"
    },
    {
      "inputs": [
        {
          "internalType": "uint256",
          "name": "roundId",
          "type": "uint256"
        }
      ],
      "name": "poolForReferral",
      "outputs": [
        {
          "internalType": "uint256",
          "name": "",
          "type": "uint256"
        }
      ],
      "stateMutability": "view",
      "type": "function"
    },
    {
      "inputs": [
        {
          "internalType": "uint256",
          "name": "roundId",
          "type": "uint256"
        },
        {
          "internalType": "enum RoundVictoryTier",
          "name": "victoryTier",
          "type": "uint8"
        }
      ],
      "name": "poolForVictoryTier",
      "outputs": [
        {
          "internalType": "uint256",
          "name": "",
          "type": "uint256"
        }
      ],
      "stateMutability": "view",
      "type": "function"
    },
    {
      "inputs": [],
      "name": "renounceOwnership",
      "outputs": [],
      "stateMutability": "nonpayable",
      "type": "function"
    },
    {
      "inputs": [],
      "name": "sendCryptoToTeam",
      "outputs": [],
      "stateMutability": "nonpayable",
      "type": "function"
    },
    {
      "inputs": [
        {
          "internalType": "address",
          "name": "_token",
          "type": "address"
        }
      ],
      "name": "sendTokenToTeam",
      "outputs": [],
      "stateMutability": "nonpayable",
      "type": "function"
    },
    {
      "inputs": [
        {
          "internalType": "address",
          "name": "_lotteryMaster",
          "type": "address"
        }
      ],
      "name": "setLotteryMaster",
      "outputs": [],
      "stateMutability": "nonpayable",
      "type": "function"
    },
    {
      "inputs": [
        {
          "internalType": "uint16",
          "name": "rightNumbersForTicket",
          "type": "uint16"
        },
        {
          "internalType": "bool",
          "name": "powerNumberFound",
          "type": "bool"
        }
      ],
      "name": "tierFromResults",
      "outputs": [
        {
          "internalType": "enum RoundVictoryTier",
          "name": "",
          "type": "uint8"
        }
      ],
      "stateMutability": "pure",
      "type": "function"
    },
    {
      "inputs": [
        {
          "internalType": "uint256",
          "name": "roundId",
          "type": "uint256"
        }
      ],
      "name": "tokenHoldersPoolAmount",
      "outputs": [
        {
          "internalType": "uint256",
          "name": "",
          "type": "uint256"
        }
      ],
      "stateMutability": "view",
      "type": "function"
    },
    {
      "inputs": [
        {
          "internalType": "address",
          "name": "newOwner",
          "type": "address"
        }
      ],
      "name": "transferOwnership",
      "outputs": [],
      "stateMutability": "nonpayable",
      "type": "function"
    },
    {
      "inputs": [
        {
          "internalType": "uint256",
          "name": "roundId",
          "type": "uint256"
        }
      ],
      "name": "treasuryPoolAmount",
      "outputs": [
        {
          "internalType": "uint256",
          "name": "",
          "type": "uint256"
        }
      ],
      "stateMutability": "view",
      "type": "function"
    },
    {
      "inputs": [
        {
          "internalType": "address",
          "name": "_teamAddress",
          "type": "address"
        }
      ],
      "name": "updateTeamAddress",
      "outputs": [],
      "stateMutability": "nonpayable",
      "type": "function"
    }
  ],
  "transactionHash": "0xbd4ee10564a97f486ce282004bd593e91ade8fcf7306b339aa8435de44ff6daf",
  "args": [],
  "numDeployments": 1,
  "solcInputHash": "f8faed483cb7cae09382026b42b3b3d5",
  "bytecode": "0x60806040523480156200001157600080fd5b503280600073ffffffffffffffffffffffffffffffffffffffff168173ffffffffffffffffffffffffffffffffffffffff1603620000895760006040517f1e4fbdf7000000000000000000000000000000000000000000000000000000008152600401620000809190620001ec565b60405180910390fd5b6200009a81620000e360201b60201c565b5080600160006101000a81548173ffffffffffffffffffffffffffffffffffffffff021916908373ffffffffffffffffffffffffffffffffffffffff1602179055505062000209565b60008060009054906101000a900473ffffffffffffffffffffffffffffffffffffffff169050816000806101000a81548173ffffffffffffffffffffffffffffffffffffffff021916908373ffffffffffffffffffffffffffffffffffffffff1602179055508173ffffffffffffffffffffffffffffffffffffffff168173ffffffffffffffffffffffffffffffffffffffff167f8be0079c531659141344cd1fd0a4f28419497f9722a3daafe3b4186f6b6457e060405160405180910390a35050565b600073ffffffffffffffffffffffffffffffffffffffff82169050919050565b6000620001d482620001a7565b9050919050565b620001e681620001c7565b82525050565b6000602082019050620002036000830184620001db565b92915050565b6136a080620002196000396000f3fe608060405234801561001057600080fd5b50600436106101425760003560e01c806368525a4e116100b8578063bbd1783a1161007c578063bbd1783a146103c1578063c099ae19146103cb578063d856f0d5146103fb578063e34208e61461042b578063f1664df61461045b578063f2fde38b1461048b57610142565b806368525a4e1461031d578063715018a61461034d5780638da5cb5b146103575780638e0e3fcd14610375578063998da3e9146103a557610142565b80633c73b4c41161010a5780633c73b4c41461020f57806349a0a1f61461023f5780634e00b9d31461026f57806359103c121461029f5780635dc9dbe8146102cf57806361ab0c89146102ed57610142565b8063078a6dbf146101475780630c746a8a1461017757806314eb76ac146101a757806322bd49a8146101c35780632aa60170146101df575b600080fd5b610161600480360381019061015c9190612509565b6104a7565b60405161016e91906125a2565b60405180910390f35b610191600480360381019061018c9190612750565b6106a1565b60405161019e91906127ce565b60405180910390f35b6101c160048036038101906101bc9190612847565b61074d565b005b6101dd60048036038101906101d89190612847565b610799565b005b6101f960048036038101906101f49190612509565b6107e5565b604051610206919061291a565b60405180910390f35b61022960048036038101906102249190612935565b610ae7565b6040516102369190612971565b60405180910390f35b61025960048036038101906102549190612935565b610f35565b6040516102669190612971565b60405180910390f35b6102896004803603810190610284919061298c565b611060565b60405161029691906129f7565b60405180910390f35b6102b960048036038101906102b4919061298c565b61107a565b6040516102c691906129f7565b60405180910390f35b6102d76110d7565b6040516102e49190612a71565b60405180910390f35b61030760048036038101906103029190612935565b6110fd565b6040516103149190612971565b60405180910390f35b61033760048036038101906103329190612935565b611228565b6040516103449190612971565b60405180910390f35b610355611353565b005b61035f611367565b60405161036c9190612a9b565b60405180910390f35b61038f600480360381019061038a9190612adb565b611390565b60405161039c9190612971565b60405180910390f35b6103bf60048036038101906103ba9190612847565b61160d565b005b6103c96116ce565b005b6103e560048036038101906103e09190612935565b61174b565b6040516103f29190612bf9565b60405180910390f35b61041560048036038101906104109190612935565b611b09565b6040516104229190612cf9565b60405180910390f35b61044560048036038101906104409190612d47565b611db9565b6040516104529190612d96565b60405180910390f35b61047560048036038101906104709190612935565b611e62565b60405161048291906127ce565b60405180910390f35b6104a560048036038101906104a09190612847565b611fd1565b005b6104af612477565b6000600260009054906101000a900473ffffffffffffffffffffffffffffffffffffffff1673ffffffffffffffffffffffffffffffffffffffff1663fd12e8cc856040518263ffffffff1660e01b815260040161050c9190612971565b602060405180830381865afa158015610529573d6000803e3d6000fd5b505050506040513d601f19601f8201168201806040525081019061054d9190612dc6565b905060008173ffffffffffffffffffffffffffffffffffffffff16639f8743f76040518163ffffffff1660e01b8152600401600060405180830381865afa15801561059c573d6000803e3d6000fd5b505050506040513d6000823e3d601f19601f820116820180604052508101906105c59190613128565b905060008273ffffffffffffffffffffffffffffffffffffffff1663dd85ae5f83610140015187815181106105fd576105fc613171565b5b60200260200101516040518263ffffffff1660e01b81526004016106219190612971565b60a060405180830381865afa15801561063e573d6000803e3d6000fd5b505050506040513d601f19601f82011682018060405250810190610662919061322c565b9050600061067882604001518460c0015161107a565b905060405180604001604052808360000151815260200182151581525094505050505092915050565b60008060018461ffff16866106b69190613288565b6106c091906132e8565b90506000806106cf838661107a565b90505b80156107405760018661ffff1684846040516020016106f292919061331c565b6040516020818303038152906040528051906020012060001c6107159190613288565b61071f91906132e8565b925061072b838661107a565b9050818061073890613345565b9250506106d2565b8293505050509392505050565b610755612057565b80600160006101000a81548173ffffffffffffffffffffffffffffffffffffffff021916908373ffffffffffffffffffffffffffffffffffffffff16021790555050565b6107a1612057565b80600260006101000a81548173ffffffffffffffffffffffffffffffffffffffff021916908373ffffffffffffffffffffffffffffffffffffffff16021790555050565b6107ed612493565b6000600260009054906101000a900473ffffffffffffffffffffffffffffffffffffffff1673ffffffffffffffffffffffffffffffffffffffff1663fd12e8cc856040518263ffffffff1660e01b815260040161084a9190612971565b602060405180830381865afa158015610867573d6000803e3d6000fd5b505050506040513d601f19601f8201168201806040525081019061088b9190612dc6565b905060008173ffffffffffffffffffffffffffffffffffffffff16639f8743f76040518163ffffffff1660e01b8152600401600060405180830381865afa1580156108da573d6000803e3d6000fd5b505050506040513d6000823e3d601f19601f820116820180604052508101906109039190613128565b905060008273ffffffffffffffffffffffffffffffffffffffff16639b7be8fc836101000151878151811061093b5761093a613171565b5b60200260200101516040518263ffffffff1660e01b815260040161095f9190612971565b60e060405180830381865afa15801561097c573d6000803e3d6000fd5b505050506040513d601f19601f820116820180604052508101906109a09190613438565b905060008260a0015161ffff168260c0015161ffff161490506000808573ffffffffffffffffffffffffffffffffffffffff1663598f3b9d85600001516040518263ffffffff1660e01b81526004016109f99190612971565b600060405180830381865afa158015610a16573d6000803e3d6000fd5b505050506040513d6000823e3d601f19601f82011682018060405250810190610a3f9190613465565b905060005b60058161ffff161015610aa4576000828261ffff1681518110610a6a57610a69613171565b5b60200260200101519050610a8281886080015161107a565b15610a96578380610a9290613345565b9450505b508080600101915050610a44565b50604051806040016040528085600001518152602001610ac48486611db9565b600a811115610ad657610ad5612874565b5b815250965050505050505092915050565b600080600260009054906101000a900473ffffffffffffffffffffffffffffffffffffffff1673ffffffffffffffffffffffffffffffffffffffff16638c65c81f600185610b3591906134ae565b6040518263ffffffff1660e01b8152600401610b519190612971565b602060405180830381865afa158015610b6e573d6000803e3d6000fd5b505050506040513d601f19601f82011682018060405250810190610b929190612dc6565b90508073ffffffffffffffffffffffffffffffffffffffff1663e2e3083060076040518263ffffffff1660e01b8152600401610bce9190612d96565b602060405180830381865afa158015610beb573d6000803e3d6000fd5b505050506040513d601f19601f82011682018060405250810190610c0f91906134e2565b8173ffffffffffffffffffffffffffffffffffffffff1663e2e3083060066040518263ffffffff1660e01b8152600401610c499190612d96565b602060405180830381865afa158015610c66573d6000803e3d6000fd5b505050506040513d601f19601f82011682018060405250810190610c8a91906134e2565b8273ffffffffffffffffffffffffffffffffffffffff1663e2e3083060056040518263ffffffff1660e01b8152600401610cc49190612d96565b602060405180830381865afa158015610ce1573d6000803e3d6000fd5b505050506040513d601f19601f82011682018060405250810190610d0591906134e2565b8373ffffffffffffffffffffffffffffffffffffffff1663e2e3083060046040518263ffffffff1660e01b8152600401610d3f9190612d96565b602060405180830381865afa158015610d5c573d6000803e3d6000fd5b505050506040513d601f19601f82011682018060405250810190610d8091906134e2565b8473ffffffffffffffffffffffffffffffffffffffff1663e2e3083060036040518263ffffffff1660e01b8152600401610dba9190612d96565b602060405180830381865afa158015610dd7573d6000803e3d6000fd5b505050506040513d601f19601f82011682018060405250810190610dfb91906134e2565b8573ffffffffffffffffffffffffffffffffffffffff1663e2e3083060026040518263ffffffff1660e01b8152600401610e359190612d96565b602060405180830381865afa158015610e52573d6000803e3d6000fd5b505050506040513d601f19601f82011682018060405250810190610e7691906134e2565b8673ffffffffffffffffffffffffffffffffffffffff1663e2e3083060016040518263ffffffff1660e01b8152600401610eb09190612d96565b602060405180830381865afa158015610ecd573d6000803e3d6000fd5b505050506040513d601f19601f82011682018060405250810190610ef191906134e2565b610efb91906132e8565b610f0591906132e8565b610f0f91906132e8565b610f1991906132e8565b610f2391906132e8565b610f2d91906132e8565b915050919050565b6000600260009054906101000a900473ffffffffffffffffffffffffffffffffffffffff1673ffffffffffffffffffffffffffffffffffffffff16638c65c81f600184610f8291906134ae565b6040518263ffffffff1660e01b8152600401610f9e9190612971565b602060405180830381865afa158015610fbb573d6000803e3d6000fd5b505050506040513d601f19601f82011682018060405250810190610fdf9190612dc6565b73ffffffffffffffffffffffffffffffffffffffff1663e2e3083060096040518263ffffffff1660e01b81526004016110189190612d96565b602060405180830381865afa158015611035573d6000803e3d6000fd5b505050506040513d601f19601f8201168201806040525081019061105991906134e2565b9050919050565b600080151561106f848461107a565b151514905092915050565b600080600090505b82518110156110cb578361ffff168382815181106110a3576110a2613171565b5b602002602001015161ffff16036110be5760019150506110d1565b8080600101915050611082565b50600090505b92915050565b600260009054906101000a900473ffffffffffffffffffffffffffffffffffffffff1681565b6000600260009054906101000a900473ffffffffffffffffffffffffffffffffffffffff1673ffffffffffffffffffffffffffffffffffffffff16638c65c81f60018461114a91906134ae565b6040518263ffffffff1660e01b81526004016111669190612971565b602060405180830381865afa158015611183573d6000803e3d6000fd5b505050506040513d601f19601f820116820180604052508101906111a79190612dc6565b73ffffffffffffffffffffffffffffffffffffffff1663e2e30830600a6040518263ffffffff1660e01b81526004016111e09190612d96565b602060405180830381865afa1580156111fd573d6000803e3d6000fd5b505050506040513d601f19601f8201168201806040525081019061122191906134e2565b9050919050565b6000600260009054906101000a900473ffffffffffffffffffffffffffffffffffffffff1673ffffffffffffffffffffffffffffffffffffffff16638c65c81f60018461127591906134ae565b6040518263ffffffff1660e01b81526004016112919190612971565b602060405180830381865afa1580156112ae573d6000803e3d6000fd5b505050506040513d601f19601f820116820180604052508101906112d29190612dc6565b73ffffffffffffffffffffffffffffffffffffffff1663e2e3083060076040518263ffffffff1660e01b815260040161130b9190612d96565b602060405180830381865afa158015611328573d6000803e3d6000fd5b505050506040513d601f19601f8201168201806040525081019061134c91906134e2565b9050919050565b61135b612057565b61136560006120de565b565b60008060009054906101000a900473ffffffffffffffffffffffffffffffffffffffff16905090565b60006001600a8111156113a6576113a5612874565b5b82600a8111156113b9576113b8612874565b5b14806113e957506002600a8111156113d4576113d3612874565b5b82600a8111156113e7576113e6612874565b5b145b8061141857506003600a81111561140357611402612874565b5b82600a81111561141657611415612874565b5b145b8061144757506004600a81111561143257611431612874565b5b82600a81111561144557611444612874565b5b145b8061147657506005600a81111561146157611460612874565b5b82600a81111561147457611473612874565b5b145b806114a557506006600a8111156114905761148f612874565b5b82600a8111156114a3576114a2612874565b5b145b6114e4576040517f08c379a00000000000000000000000000000000000000000000000000000000081526004016114db9061356c565b60405180910390fd5b600260009054906101000a900473ffffffffffffffffffffffffffffffffffffffff1673ffffffffffffffffffffffffffffffffffffffff16638c65c81f60018561152f91906134ae565b6040518263ffffffff1660e01b815260040161154b9190612971565b602060405180830381865afa158015611568573d6000803e3d6000fd5b505050506040513d601f19601f8201168201806040525081019061158c9190612dc6565b73ffffffffffffffffffffffffffffffffffffffff1663e2e30830836040518263ffffffff1660e01b81526004016115c49190612d96565b602060405180830381865afa1580156115e1573d6000803e3d6000fd5b505050506040513d601f19601f8201168201806040525081019061160591906134e2565b905092915050565b611615612057565b60008173ffffffffffffffffffffffffffffffffffffffff166370a08231306040518263ffffffff1660e01b81526004016116509190612a9b565b602060405180830381865afa15801561166d573d6000803e3d6000fd5b505050506040513d601f19601f8201168201806040525081019061169191906134e2565b905060008111156116ca576116c982600160009054906101000a900473ffffffffffffffffffffffffffffffffffffffff16836121a2565b5b5050565b6116d6612057565b600047111561174957600160009054906101000a900473ffffffffffffffffffffffffffffffffffffffff1673ffffffffffffffffffffffffffffffffffffffff166108fc479081150290604051600060405180830381858888f19350505050158015611747573d6000803e3d6000fd5b505b565b60606000600260009054906101000a900473ffffffffffffffffffffffffffffffffffffffff1673ffffffffffffffffffffffffffffffffffffffff1663fd12e8cc846040518263ffffffff1660e01b81526004016117aa9190612971565b602060405180830381865afa1580156117c7573d6000803e3d6000fd5b505050506040513d601f19601f820116820180604052508101906117eb9190612dc6565b905060008173ffffffffffffffffffffffffffffffffffffffff16639f8743f76040518163ffffffff1660e01b8152600401600060405180830381865afa15801561183a573d6000803e3d6000fd5b505050506040513d6000823e3d601f19601f820116820180604052508101906118639190613128565b905060008161012001519050600082610120015161ffff1667ffffffffffffffff8111156118945761189361260d565b5b6040519080825280602002602001820160405280156118cd57816020015b6118ba612493565b8152602001906001900390816118b25790505b5090506000805b8361ffff168161ffff161015611afb5760008673ffffffffffffffffffffffffffffffffffffffff16639b7be8fc8761010001518461ffff168151811061191e5761191d613171565b5b60200260200101516040518263ffffffff1660e01b81526004016119429190612971565b60e060405180830381865afa15801561195f573d6000803e3d6000fd5b505050506040513d601f19601f820116820180604052508101906119839190613438565b905060008660a0015161ffff168260c0015161ffff161490506000808973ffffffffffffffffffffffffffffffffffffffff1663598f3b9d85600001516040518263ffffffff1660e01b81526004016119dc9190612971565b600060405180830381865afa1580156119f9573d6000803e3d6000fd5b505050506040513d6000823e3d601f19601f82011682018060405250810190611a229190613465565b905060005b60058161ffff161015611a87576000828261ffff1681518110611a4d57611a4c613171565b5b60200260200101519050611a65818c6080015161107a565b15611a79578380611a7590613345565b9450505b508080600101915050611a27565b50604051806040016040528085600001518152602001611aa78486611db9565b600a811115611ab957611ab8612874565b5b815250878780611ac890613345565b985061ffff1681518110611adf57611ade613171565b5b60200260200101819052505050505080806001019150506118d4565b508195505050505050919050565b60606000600260009054906101000a900473ffffffffffffffffffffffffffffffffffffffff1673ffffffffffffffffffffffffffffffffffffffff1663fd12e8cc846040518263ffffffff1660e01b8152600401611b689190612971565b602060405180830381865afa158015611b85573d6000803e3d6000fd5b505050506040513d601f19601f82011682018060405250810190611ba99190612dc6565b905060008173ffffffffffffffffffffffffffffffffffffffff16639f8743f76040518163ffffffff1660e01b8152600401600060405180830381865afa158015611bf8573d6000803e3d6000fd5b505050506040513d6000823e3d601f19601f82011682018060405250810190611c219190613128565b9050600081610160015161ffff1667ffffffffffffffff811115611c4857611c4761260d565b5b604051908082528060200260200182016040528015611c8157816020015b611c6e612477565b815260200190600190039081611c665790505b5090506000805b83610160015161ffff168161ffff161015611dac5760008573ffffffffffffffffffffffffffffffffffffffff1663dd85ae5f8661014001518461ffff1681518110611cd757611cd6613171565b5b60200260200101516040518263ffffffff1660e01b8152600401611cfb9190612971565b60a060405180830381865afa158015611d18573d6000803e3d6000fd5b505050506040513d601f19601f82011682018060405250810190611d3c919061322c565b90506000611d5282604001518760c0015161107a565b9050604051806040016040528083600001518152602001821515815250858580611d7b90613345565b965061ffff1681518110611d9257611d91613171565b5b602002602001018190525050508080600101915050611c88565b5081945050505050919050565b600060058361ffff16148015611dcc5750815b15611dda5760019050611e5c565b60058361ffff1603611def5760029050611e5c565b60048361ffff16148015611e005750815b15611e0e5760039050611e5c565b60048361ffff1603611e235760049050611e5c565b60038361ffff16148015611e345750815b15611e425760059050611e5c565b60038361ffff1603611e575760069050611e5c565b600090505b92915050565b600080600090506000600260009054906101000a900473ffffffffffffffffffffffffffffffffffffffff1673ffffffffffffffffffffffffffffffffffffffff16638c65c81f600186611eb691906134ae565b6040518263ffffffff1660e01b8152600401611ed29190612971565b602060405180830381865afa158015611eef573d6000803e3d6000fd5b505050506040513d601f19601f82011682018060405250810190611f139190612dc6565b73ffffffffffffffffffffffffffffffffffffffff16639f8743f76040518163ffffffff1660e01b8152600401600060405180830381865afa158015611f5d573d6000803e3d6000fd5b505050506040513d6000823e3d601f19601f82011682018060405250810190611f869190613128565b61016001519050600a8161ffff1681611fa257611fa1613259565b5b04915060008261ffff16148015611fbd575060008161ffff16115b15611fc757600191505b8192505050919050565b611fd9612057565b600073ffffffffffffffffffffffffffffffffffffffff168173ffffffffffffffffffffffffffffffffffffffff160361204b5760006040517f1e4fbdf70000000000000000000000000000000000000000000000000000000081526004016120429190612a9b565b60405180910390fd5b612054816120de565b50565b61205f612221565b73ffffffffffffffffffffffffffffffffffffffff1661207d611367565b73ffffffffffffffffffffffffffffffffffffffff16146120dc576120a0612221565b6040517f118cdaa70000000000000000000000000000000000000000000000000000000081526004016120d39190612a9b565b60405180910390fd5b565b60008060009054906101000a900473ffffffffffffffffffffffffffffffffffffffff169050816000806101000a81548173ffffffffffffffffffffffffffffffffffffffff021916908373ffffffffffffffffffffffffffffffffffffffff1602179055508173ffffffffffffffffffffffffffffffffffffffff168173ffffffffffffffffffffffffffffffffffffffff167f8be0079c531659141344cd1fd0a4f28419497f9722a3daafe3b4186f6b6457e060405160405180910390a35050565b61221c838473ffffffffffffffffffffffffffffffffffffffff1663a9059cbb85856040516024016121d592919061358c565b604051602081830303815290604052915060e01b6020820180517bffffffffffffffffffffffffffffffffffffffffffffffffffffffff8381831617835250505050612229565b505050565b600033905090565b6000612254828473ffffffffffffffffffffffffffffffffffffffff166122c090919063ffffffff16565b9050600081511415801561227957508080602001905181019061227791906135b5565b155b156122bb57826040517f5274afe70000000000000000000000000000000000000000000000000000000081526004016122b29190612a9b565b60405180910390fd5b505050565b60606122ce838360006122d6565b905092915050565b60608147101561231d57306040517fcd7860590000000000000000000000000000000000000000000000000000000081526004016123149190612a9b565b60405180910390fd5b6000808573ffffffffffffffffffffffffffffffffffffffff1684866040516123469190613653565b60006040518083038185875af1925050503d8060008114612383576040519150601f19603f3d011682016040523d82523d6000602084013e612388565b606091505b50915091506123988683836123a3565b925050509392505050565b6060826123b8576123b382612432565b61242a565b600082511480156123e0575060008473ffffffffffffffffffffffffffffffffffffffff163b145b1561242257836040517f9996b3150000000000000000000000000000000000000000000000000000000081526004016124199190612a9b565b60405180910390fd5b81905061242b565b5b9392505050565b6000815111156124455780518082602001fd5b6040517f1425ea4200000000000000000000000000000000000000000000000000000000815260040160405180910390fd5b6040518060400160405280600081526020016000151581525090565b6040518060400160405280600081526020016000600a8111156124b9576124b8612874565b5b81525090565b6000604051905090565b600080fd5b600080fd5b6000819050919050565b6124e6816124d3565b81146124f157600080fd5b50565b600081359050612503816124dd565b92915050565b600080604083850312156125205761251f6124c9565b5b600061252e858286016124f4565b925050602061253f858286016124f4565b9150509250929050565b612552816124d3565b82525050565b60008115159050919050565b61256d81612558565b82525050565b6040820160008201516125896000850182612549565b50602082015161259c6020850182612564565b50505050565b60006040820190506125b76000830184612573565b92915050565b600061ffff82169050919050565b6125d4816125bd565b81146125df57600080fd5b50565b6000813590506125f1816125cb565b92915050565b600080fd5b6000601f19601f8301169050919050565b7f4e487b7100000000000000000000000000000000000000000000000000000000600052604160045260246000fd5b612645826125fc565b810181811067ffffffffffffffff821117156126645761266361260d565b5b80604052505050565b60006126776124bf565b9050612683828261263c565b919050565b600067ffffffffffffffff8211156126a3576126a261260d565b5b602082029050602081019050919050565b600080fd5b60006126cc6126c784612688565b61266d565b905080838252602082019050602084028301858111156126ef576126ee6126b4565b5b835b81811015612718578061270488826125e2565b8452602084019350506020810190506126f1565b5050509392505050565b600082601f830112612737576127366125f7565b5b81356127478482602086016126b9565b91505092915050565b600080600060608486031215612769576127686124c9565b5b6000612777868287016124f4565b9350506020612788868287016125e2565b925050604084013567ffffffffffffffff8111156127a9576127a86124ce565b5b6127b586828701612722565b9150509250925092565b6127c8816125bd565b82525050565b60006020820190506127e360008301846127bf565b92915050565b600073ffffffffffffffffffffffffffffffffffffffff82169050919050565b6000612814826127e9565b9050919050565b61282481612809565b811461282f57600080fd5b50565b6000813590506128418161281b565b92915050565b60006020828403121561285d5761285c6124c9565b5b600061286b84828501612832565b91505092915050565b7f4e487b7100000000000000000000000000000000000000000000000000000000600052602160045260246000fd5b600b81106128b4576128b3612874565b5b50565b60008190506128c5826128a3565b919050565b60006128d5826128b7565b9050919050565b6128e5816128ca565b82525050565b6040820160008201516129016000850182612549565b50602082015161291460208501826128dc565b50505050565b600060408201905061292f60008301846128eb565b92915050565b60006020828403121561294b5761294a6124c9565b5b6000612959848285016124f4565b91505092915050565b61296b816124d3565b82525050565b60006020820190506129866000830184612962565b92915050565b600080604083850312156129a3576129a26124c9565b5b60006129b1858286016125e2565b925050602083013567ffffffffffffffff8111156129d2576129d16124ce565b5b6129de85828601612722565b9150509250929050565b6129f181612558565b82525050565b6000602082019050612a0c60008301846129e8565b92915050565b6000819050919050565b6000612a37612a32612a2d846127e9565b612a12565b6127e9565b9050919050565b6000612a4982612a1c565b9050919050565b6000612a5b82612a3e565b9050919050565b612a6b81612a50565b82525050565b6000602082019050612a866000830184612a62565b92915050565b612a9581612809565b82525050565b6000602082019050612ab06000830184612a8c565b92915050565b600b8110612ac357600080fd5b50565b600081359050612ad581612ab6565b92915050565b60008060408385031215612af257612af16124c9565b5b6000612b00858286016124f4565b9250506020612b1185828601612ac6565b9150509250929050565b600081519050919050565b600082825260208201905092915050565b6000819050602082019050919050565b604082016000820151612b5d6000850182612549565b506020820151612b7060208501826128dc565b50505050565b6000612b828383612b47565b60408301905092915050565b6000602082019050919050565b6000612ba682612b1b565b612bb08185612b26565b9350612bbb83612b37565b8060005b83811015612bec578151612bd38882612b76565b9750612bde83612b8e565b925050600181019050612bbf565b5085935050505092915050565b60006020820190508181036000830152612c138184612b9b565b905092915050565b600081519050919050565b600082825260208201905092915050565b6000819050602082019050919050565b604082016000820151612c5d6000850182612549565b506020820151612c706020850182612564565b50505050565b6000612c828383612c47565b60408301905092915050565b6000602082019050919050565b6000612ca682612c1b565b612cb08185612c26565b9350612cbb83612c37565b8060005b83811015612cec578151612cd38882612c76565b9750612cde83612c8e565b925050600181019050612cbf565b5085935050505092915050565b60006020820190508181036000830152612d138184612c9b565b905092915050565b612d2481612558565b8114612d2f57600080fd5b50565b600081359050612d4181612d1b565b92915050565b60008060408385031215612d5e57612d5d6124c9565b5b6000612d6c858286016125e2565b9250506020612d7d85828601612d32565b9150509250929050565b612d90816128ca565b82525050565b6000602082019050612dab6000830184612d87565b92915050565b600081519050612dc08161281b565b92915050565b600060208284031215612ddc57612ddb6124c9565b5b6000612dea84828501612db1565b91505092915050565b600080fd5b600080fd5b600081519050612e0c816124dd565b92915050565b600081519050612e2181612d1b565b92915050565b600081519050612e36816125cb565b92915050565b6000612e4f612e4a84612688565b61266d565b90508083825260208201905060208402830185811115612e7257612e716126b4565b5b835b81811015612e9b5780612e878882612e27565b845260208401935050602081019050612e74565b5050509392505050565b600082601f830112612eba57612eb96125f7565b5b8151612eca848260208601612e3c565b91505092915050565b600067ffffffffffffffff821115612eee57612eed61260d565b5b602082029050602081019050919050565b6000612f12612f0d84612ed3565b61266d565b90508083825260208201905060208402830185811115612f3557612f346126b4565b5b835b81811015612f5e5780612f4a8882612dfd565b845260208401935050602081019050612f37565b5050509392505050565b600082601f830112612f7d57612f7c6125f7565b5b8151612f8d848260208601612eff565b91505092915050565b60006101808284031215612fad57612fac612df3565b5b612fb861018061266d565b90506000612fc884828501612dfd565b6000830152506020612fdc84828501612dfd565b6020830152506040612ff084828501612dfd565b604083015250606061300484828501612e12565b606083015250608082015167ffffffffffffffff81111561302857613027612df8565b5b61303484828501612ea5565b60808301525060a061304884828501612e27565b60a08301525060c082015167ffffffffffffffff81111561306c5761306b612df8565b5b61307884828501612ea5565b60c08301525060e061308c84828501612e27565b60e08301525061010082015167ffffffffffffffff8111156130b1576130b0612df8565b5b6130bd84828501612f68565b610100830152506101206130d384828501612e27565b6101208301525061014082015167ffffffffffffffff8111156130f9576130f8612df8565b5b61310584828501612f68565b6101408301525061016061311b84828501612e27565b6101608301525092915050565b60006020828403121561313e5761313d6124c9565b5b600082015167ffffffffffffffff81111561315c5761315b6124ce565b5b61316884828501612f96565b91505092915050565b7f4e487b7100000000000000000000000000000000000000000000000000000000600052603260045260246000fd5b600060a082840312156131b6576131b5612df3565b5b6131c060a061266d565b905060006131d084828501612dfd565b60008301525060206131e484828501612db1565b60208301525060406131f884828501612e27565b604083015250606061320c84828501612e12565b606083015250608061322084828501612e12565b60808301525092915050565b600060a08284031215613242576132416124c9565b5b6000613250848285016131a0565b91505092915050565b7f4e487b7100000000000000000000000000000000000000000000000000000000600052601260045260246000fd5b6000613293826124d3565b915061329e836124d3565b9250826132ae576132ad613259565b5b828206905092915050565b7f4e487b7100000000000000000000000000000000000000000000000000000000600052601160045260246000fd5b60006132f3826124d3565b91506132fe836124d3565b9250828201905080821115613316576133156132b9565b5b92915050565b600060408201905061333160008301856127bf565b61333e60208301846127bf565b9392505050565b6000613350826125bd565b915061ffff8203613364576133636132b9565b5b600182019050919050565b60008151905061337e81612ab6565b92915050565b600060e0828403121561339a57613399612df3565b5b6133a460e061266d565b905060006133b484828501612dfd565b60008301525060206133c884828501612db1565b60208301525060406133dc84828501612db1565b60408301525060606133f084828501612e12565b606083015250608061340484828501612dfd565b60808301525060a06134188482850161336f565b60a08301525060c061342c84828501612e27565b60c08301525092915050565b600060e0828403121561344e5761344d6124c9565b5b600061345c84828501613384565b91505092915050565b60006020828403121561347b5761347a6124c9565b5b600082015167ffffffffffffffff811115613499576134986124ce565b5b6134a584828501612ea5565b91505092915050565b60006134b9826124d3565b91506134c4836124d3565b92508282039050818111156134dc576134db6132b9565b5b92915050565b6000602082840312156134f8576134f76124c9565b5b600061350684828501612dfd565b91505092915050565b600082825260208201905092915050565b7f496e76616c696420766963746f72792074696572000000000000000000000000600082015250565b600061355660148361350f565b915061356182613520565b602082019050919050565b6000602082019050818103600083015261358581613549565b9050919050565b60006040820190506135a16000830185612a8c565b6135ae6020830184612962565b9392505050565b6000602082840312156135cb576135ca6124c9565b5b60006135d984828501612e12565b91505092915050565b600081519050919050565b600081905092915050565b60005b838110156136165780820151818401526020810190506135fb565b60008484015250505050565b600061362d826135e2565b61363781856135ed565b93506136478185602086016135f8565b80840191505092915050565b600061365f8284613622565b91508190509291505056fea264697066735822122079a6789904113e0441d5f9eea268806e2c8bdae0e26effcf36f4d61c378d06ce64736f6c63430008180033",
  "devdoc": {
    "errors": {
      "AddressEmptyCode(address)": [
        {
          "details": "There's no code at `target` (it is not a contract)."
        }
      ],
      "AddressInsufficientBalance(address)": [
        {
          "details": "The ETH balance of the account is not enough to perform the operation."
        }
      ],
      "FailedInnerCall()": [
        {
          "details": "A call to an address target failed. The target may have reverted."
        }
      ],
      "OwnableInvalidOwner(address)": [
        {
          "details": "The owner is not a valid owner account. (eg. `address(0)`)"
        }
      ],
      "OwnableUnauthorizedAccount(address)": [
        {
          "details": "The caller account is not authorized to perform an operation."
        }
      ],
      "SafeERC20FailedOperation(address)": [
        {
          "details": "An operation with an ERC20 token failed."
        }
      ]
    },
    "kind": "dev",
    "methods": {
      "owner()": {
        "details": "Returns the address of the current owner."
      },
      "renounceOwnership()": {
        "details": "Leaves the contract without owner. It will not be possible to call `onlyOwner` functions. Can only be called by the current owner. NOTE: Renouncing ownership will leave the contract without an owner, thereby disabling any functionality that is only available to the owner."
      },
      "transferOwnership(address)": {
        "details": "Transfers ownership of the contract to a new account (`newOwner`). Can only be called by the current owner."
      }
    },
    "version": 1
  },
  "userdoc": {
    "kind": "user",
    "methods": {},
    "version": 1
  },
  "storageLayout": {
    "storage": [
      {
        "astId": 8,
        "contract": "contracts/LotteryReader.sol:LotteryReader",
        "label": "_owner",
        "offset": 0,
        "slot": "0",
        "type": "t_address"
      },
      {
        "astId": 3979,
        "contract": "contracts/LotteryReader.sol:LotteryReader",
        "label": "teamAddress",
        "offset": 0,
        "slot": "1",
        "type": "t_address"
      },
      {
        "astId": 1954,
        "contract": "contracts/LotteryReader.sol:LotteryReader",
        "label": "lotteryMaster",
        "offset": 0,
        "slot": "2",
        "type": "t_contract(LotteryMaster)1924"
      }
    ],
    "types": {
      "t_address": {
        "encoding": "inplace",
        "label": "address",
        "numberOfBytes": "20"
      },
      "t_contract(LotteryMaster)1924": {
        "encoding": "inplace",
        "label": "contract LotteryMaster",
        "numberOfBytes": "20"
      }
    }
  }
}