{
  "address": "0xdD52ED1A77825fF149445B454321694208a0E60f",
  "abi": [
    {
      "inputs": [],
      "stateMutability": "nonpayable",
      "type": "constructor"
    },
    {
      "inputs": [
        {
          "internalType": "address",
          "name": "owner",
          "type": "address"
        }
      ],
      "name": "OwnableInvalidOwner",
      "type": "error"
    },
    {
      "inputs": [
        {
          "internalType": "address",
          "name": "account",
          "type": "address"
        }
      ],
      "name": "OwnableUnauthorizedAccount",
      "type": "error"
    },
    {
      "anonymous": false,
      "inputs": [
        {
          "indexed": true,
          "internalType": "address",
          "name": "previousOwner",
          "type": "address"
        },
        {
          "indexed": true,
          "internalType": "address",
          "name": "newOwner",
          "type": "address"
        }
      ],
      "name": "OwnershipTransferred",
      "type": "event"
    },
    {
      "inputs": [],
      "name": "owner",
      "outputs": [
        {
          "internalType": "address",
          "name": "",
          "type": "address"
        }
      ],
      "stateMutability": "view",
      "type": "function"
    },
    {
      "inputs": [],
      "name": "renounceOwnership",
      "outputs": [],
      "stateMutability": "nonpayable",
      "type": "function"
    },
    {
      "inputs": [
        {
          "internalType": "uint256",
          "name": "roundDurationInSeconds",
          "type": "uint256"
        },
        {
          "internalType": "address",
          "name": "previousRoundAddress",
          "type": "address"
        }
      ],
      "name": "startNewRound",
      "outputs": [
        {
          "internalType": "address",
          "name": "",
          "type": "address"
        }
      ],
      "stateMutability": "nonpayable",
      "type": "function"
    },
    {
      "inputs": [
        {
          "internalType": "address",
          "name": "newOwner",
          "type": "address"
        }
      ],
      "name": "transferOwnership",
      "outputs": [],
      "stateMutability": "nonpayable",
      "type": "function"
    }
  ],
  "transactionHash": "0xaec1b46dafbd10a665919deb428272e28dbde65621d9a9679c4f72598637f562",
  "args": [],
  "numDeployments": 3,
  "solcInputHash": "393084522c786439c1d4ccd5b1737cc1",
  "bytecode": "0x608060405234801561001057600080fd5b5033600073ffffffffffffffffffffffffffffffffffffffff168173ffffffffffffffffffffffffffffffffffffffff16036100845760006040517f1e4fbdf700000000000000000000000000000000000000000000000000000000815260040161007b919061019e565b60405180910390fd5b6100938161009960201b60201c565b506101b9565b60008060009054906101000a900473ffffffffffffffffffffffffffffffffffffffff169050816000806101000a81548173ffffffffffffffffffffffffffffffffffffffff021916908373ffffffffffffffffffffffffffffffffffffffff1602179055508173ffffffffffffffffffffffffffffffffffffffff168173ffffffffffffffffffffffffffffffffffffffff167f8be0079c531659141344cd1fd0a4f28419497f9722a3daafe3b4186f6b6457e060405160405180910390a35050565b600073ffffffffffffffffffffffffffffffffffffffff82169050919050565b60006101888261015d565b9050919050565b6101988161017d565b82525050565b60006020820190506101b3600083018461018f565b92915050565b615db9806101c86000396000f3fe60806040523480156200001157600080fd5b5060043610620000525760003560e01c806363ea940f1462000057578063715018a6146200008d5780638da5cb5b1462000099578063f2fde38b14620000bb575b600080fd5b6200007560048036038101906200006f919062000485565b620000db565b604051620000849190620004dd565b60405180910390f35b62000097620001a8565b005b620000a3620001c0565b604051620000b29190620004dd565b60405180910390f35b620000d96004803603810190620000d39190620004fa565b620001e9565b005b6000620000e762000276565b60008284604051620000f990620003d2565b620001069291906200053d565b604051809103906000f08015801562000123573d6000803e3d6000fd5b5090508073ffffffffffffffffffffffffffffffffffffffff1663f2fde38b6200014c620001c0565b6040518263ffffffff1660e01b81526004016200016a9190620004dd565b600060405180830381600087803b1580156200018557600080fd5b505af11580156200019a573d6000803e3d6000fd5b505050508091505092915050565b620001b262000276565b620001be600062000306565b565b60008060009054906101000a900473ffffffffffffffffffffffffffffffffffffffff16905090565b620001f362000276565b600073ffffffffffffffffffffffffffffffffffffffff168173ffffffffffffffffffffffffffffffffffffffff1603620002685760006040517f1e4fbdf70000000000000000000000000000000000000000000000000000000081526004016200025f9190620004dd565b60405180910390fd5b620002738162000306565b50565b62000280620003ca565b73ffffffffffffffffffffffffffffffffffffffff16620002a0620001c0565b73ffffffffffffffffffffffffffffffffffffffff16146200030457620002c6620003ca565b6040517f118cdaa7000000000000000000000000000000000000000000000000000000008152600401620002fb9190620004dd565b60405180910390fd5b565b60008060009054906101000a900473ffffffffffffffffffffffffffffffffffffffff169050816000806101000a81548173ffffffffffffffffffffffffffffffffffffffff021916908373ffffffffffffffffffffffffffffffffffffffff1602179055508173ffffffffffffffffffffffffffffffffffffffff168173ffffffffffffffffffffffffffffffffffffffff167f8be0079c531659141344cd1fd0a4f28419497f9722a3daafe3b4186f6b6457e060405160405180910390a35050565b600033905090565b615819806200056b83390190565b600080fd5b6000819050919050565b620003fa81620003e5565b81146200040657600080fd5b50565b6000813590506200041a81620003ef565b92915050565b600073ffffffffffffffffffffffffffffffffffffffff82169050919050565b60006200044d8262000420565b9050919050565b6200045f8162000440565b81146200046b57600080fd5b50565b6000813590506200047f8162000454565b92915050565b600080604083850312156200049f576200049e620003e0565b5b6000620004af8582860162000409565b9250506020620004c2858286016200046e565b9150509250929050565b620004d78162000440565b82525050565b6000602082019050620004f46000830184620004cc565b92915050565b600060208284031215620005135762000512620003e0565b5b600062000523848285016200046e565b91505092915050565b6200053781620003e5565b82525050565b6000604082019050620005546000830185620004cc565b6200056360208301846200052c565b939250505056fe6080604052604051806101200160405280610bb861ffff1681526020016105dc61ffff1681526020016103e861ffff1681526020016102bc61ffff1681526020016101f461ffff16815260200161012c61ffff1681526020016105dc61ffff1681526020016103e861ffff1681526020016101f461ffff1681525060179060096200008c929190620013fa565b503480156200009a57600080fd5b5060405162005819380380620058198339818101604052810190620000c0919062001681565b33600073ffffffffffffffffffffffffffffffffffffffff168173ffffffffffffffffffffffffffffffffffffffff1603620001365760006040517f1e4fbdf70000000000000000000000000000000000000000000000000000000081526004016200012d9190620016d9565b60405180910390fd5b62000147816200053960201b60201c565b5060006001905082601660006101000a81548173ffffffffffffffffffffffffffffffffffffffff021916908373ffffffffffffffffffffffffffffffffffffffff160217905550600073ffffffffffffffffffffffffffffffffffffffff168373ffffffffffffffffffffffffffffffffffffffff16146200026657600083905060018173ffffffffffffffffffffffffffffffffffffffff16639f8743f76040518163ffffffff1660e01b8152600401600060405180830381865afa15801562000217573d6000803e3d6000fd5b505050506040513d6000823e3d601f19601f8201168201806040525081019062000242919062001b6a565b6000015162000252919062001bea565b915062000264620005fd60201b60201c565b505b60405180610160016040528082815260200142815260200183426200028c919062001bea565b8152602001600015158152602001600067ffffffffffffffff811115620002b857620002b76200170c565b5b604051908082528060200260200182016040528015620002e75781602001602082028036833780820191505090505b508152602001600067ffffffffffffffff8111156200030b576200030a6200170c565b5b6040519080825280602002602001820160405280156200033a5781602001602082028036833780820191505090505b508152602001600061ffff168152602001600067ffffffffffffffff8111156200036957620003686200170c565b5b604051908082528060200260200182016040528015620003985781602001602082028036833780820191505090505b508152602001600061ffff168152602001600067ffffffffffffffff811115620003c757620003c66200170c565b5b604051908082528060200260200182016040528015620003f65781602001602082028036833780820191505090505b508152602001600061ffff16815250600160008201518160000155602082015181600101556040820151816002015560608201518160030160006101000a81548160ff021916908315150217905550608082015181600401908051906020019062000463929190620014ab565b5060a082015181600501908051906020019062000482929190620014ab565b5060c08201518160060160006101000a81548161ffff021916908361ffff16021790555060e0820151816007019080519060200190620004c49291906200155c565b506101008201518160080160006101000a81548161ffff021916908361ffff160217905550610120820151816009019080519060200190620005089291906200155c565b5061014082015181600a0160006101000a81548161ffff021916908361ffff16021790555090505050505062001d2f565b60008060009054906101000a900473ffffffffffffffffffffffffffffffffffffffff169050816000806101000a81548173ffffffffffffffffffffffffffffffffffffffff021916908373ffffffffffffffffffffffffffffffffffffffff1602179055508173ffffffffffffffffffffffffffffffffffffffff168173ffffffffffffffffffffffffffffffffffffffff167f8be0079c531659141344cd1fd0a4f28419497f9722a3daafe3b4186f6b6457e060405160405180910390a35050565b6000601660009054906101000a900473ffffffffffffffffffffffffffffffffffffffff1690508073ffffffffffffffffffffffffffffffffffffffff16634e9eba1d60016040518263ffffffff1660e01b815260040162000660919062001ca5565b602060405180830381865afa1580156200067e573d6000803e3d6000fd5b505050506040513d601f19601f82011682018060405250810190620006a4919062001cc2565b8173ffffffffffffffffffffffffffffffffffffffff1663e2e3083060016040518263ffffffff1660e01b8152600401620006e0919062001ca5565b602060405180830381865afa158015620006fe573d6000803e3d6000fd5b505050506040513d601f19601f8201168201806040525081019062000724919062001cc2565b62000730919062001cf4565b601360006001600a8111156200074b576200074a62001c25565b5b600a81111562000760576200075f62001c25565b5b815260200190815260200160002060008282546200077f919062001bea565b925050819055508073ffffffffffffffffffffffffffffffffffffffff16634e9eba1d60026040518263ffffffff1660e01b8152600401620007c2919062001ca5565b602060405180830381865afa158015620007e0573d6000803e3d6000fd5b505050506040513d601f19601f8201168201806040525081019062000806919062001cc2565b8173ffffffffffffffffffffffffffffffffffffffff1663e2e3083060026040518263ffffffff1660e01b815260040162000842919062001ca5565b602060405180830381865afa15801562000860573d6000803e3d6000fd5b505050506040513d601f19601f8201168201806040525081019062000886919062001cc2565b62000892919062001cf4565b601360006002600a811115620008ad57620008ac62001c25565b5b600a811115620008c257620008c162001c25565b5b81526020019081526020016000206000828254620008e1919062001bea565b925050819055508073ffffffffffffffffffffffffffffffffffffffff16634e9eba1d60036040518263ffffffff1660e01b815260040162000924919062001ca5565b602060405180830381865afa15801562000942573d6000803e3d6000fd5b505050506040513d601f19601f8201168201806040525081019062000968919062001cc2565b8173ffffffffffffffffffffffffffffffffffffffff1663e2e3083060036040518263ffffffff1660e01b8152600401620009a4919062001ca5565b602060405180830381865afa158015620009c2573d6000803e3d6000fd5b505050506040513d601f19601f82011682018060405250810190620009e8919062001cc2565b620009f4919062001cf4565b601360006003600a81111562000a0f5762000a0e62001c25565b5b600a81111562000a245762000a2362001c25565b5b8152602001908152602001600020600082825462000a43919062001bea565b925050819055508073ffffffffffffffffffffffffffffffffffffffff16634e9eba1d60046040518263ffffffff1660e01b815260040162000a86919062001ca5565b602060405180830381865afa15801562000aa4573d6000803e3d6000fd5b505050506040513d601f19601f8201168201806040525081019062000aca919062001cc2565b8173ffffffffffffffffffffffffffffffffffffffff1663e2e3083060046040518263ffffffff1660e01b815260040162000b06919062001ca5565b602060405180830381865afa15801562000b24573d6000803e3d6000fd5b505050506040513d601f19601f8201168201806040525081019062000b4a919062001cc2565b62000b56919062001cf4565b601360006004600a81111562000b715762000b7062001c25565b5b600a81111562000b865762000b8562001c25565b5b8152602001908152602001600020600082825462000ba5919062001bea565b925050819055508073ffffffffffffffffffffffffffffffffffffffff16634e9eba1d60056040518263ffffffff1660e01b815260040162000be8919062001ca5565b602060405180830381865afa15801562000c06573d6000803e3d6000fd5b505050506040513d601f19601f8201168201806040525081019062000c2c919062001cc2565b8173ffffffffffffffffffffffffffffffffffffffff1663e2e3083060056040518263ffffffff1660e01b815260040162000c68919062001ca5565b602060405180830381865afa15801562000c86573d6000803e3d6000fd5b505050506040513d601f19601f8201168201806040525081019062000cac919062001cc2565b62000cb8919062001cf4565b601360006005600a81111562000cd35762000cd262001c25565b5b600a81111562000ce85762000ce762001c25565b5b8152602001908152602001600020600082825462000d07919062001bea565b925050819055508073ffffffffffffffffffffffffffffffffffffffff16634e9eba1d60066040518263ffffffff1660e01b815260040162000d4a919062001ca5565b602060405180830381865afa15801562000d68573d6000803e3d6000fd5b505050506040513d601f19601f8201168201806040525081019062000d8e919062001cc2565b8173ffffffffffffffffffffffffffffffffffffffff1663e2e3083060066040518263ffffffff1660e01b815260040162000dca919062001ca5565b602060405180830381865afa15801562000de8573d6000803e3d6000fd5b505050506040513d601f19601f8201168201806040525081019062000e0e919062001cc2565b62000e1a919062001cf4565b601360006006600a81111562000e355762000e3462001c25565b5b600a81111562000e4a5762000e4962001c25565b5b8152602001908152602001600020600082825462000e69919062001bea565b925050819055508073ffffffffffffffffffffffffffffffffffffffff16634e9eba1d60086040518263ffffffff1660e01b815260040162000eac919062001ca5565b602060405180830381865afa15801562000eca573d6000803e3d6000fd5b505050506040513d601f19601f8201168201806040525081019062000ef0919062001cc2565b8173ffffffffffffffffffffffffffffffffffffffff1663e2e3083060086040518263ffffffff1660e01b815260040162000f2c919062001ca5565b602060405180830381865afa15801562000f4a573d6000803e3d6000fd5b505050506040513d601f19601f8201168201806040525081019062000f70919062001cc2565b62000f7c919062001cf4565b601360006008600a81111562000f975762000f9662001c25565b5b600a81111562000fac5762000fab62001c25565b5b8152602001908152602001600020600082825462000fcb919062001bea565b925050819055508073ffffffffffffffffffffffffffffffffffffffff16634e9eba1d60076040518263ffffffff1660e01b81526004016200100e919062001ca5565b602060405180830381865afa1580156200102c573d6000803e3d6000fd5b505050506040513d601f19601f8201168201806040525081019062001052919062001cc2565b8173ffffffffffffffffffffffffffffffffffffffff1663e2e3083060076040518263ffffffff1660e01b81526004016200108e919062001ca5565b602060405180830381865afa158015620010ac573d6000803e3d6000fd5b505050506040513d601f19601f82011682018060405250810190620010d2919062001cc2565b620010de919062001cf4565b601360006007600a811115620010f957620010f862001c25565b5b600a8111156200110e576200110d62001c25565b5b815260200190815260200160002060008282546200112d919062001bea565b925050819055508073ffffffffffffffffffffffffffffffffffffffff16634e9eba1d60096040518263ffffffff1660e01b815260040162001170919062001ca5565b602060405180830381865afa1580156200118e573d6000803e3d6000fd5b505050506040513d601f19601f82011682018060405250810190620011b4919062001cc2565b8173ffffffffffffffffffffffffffffffffffffffff1663e2e3083060096040518263ffffffff1660e01b8152600401620011f0919062001ca5565b602060405180830381865afa1580156200120e573d6000803e3d6000fd5b505050506040513d601f19601f8201168201806040525081019062001234919062001cc2565b62001240919062001cf4565b601360006009600a8111156200125b576200125a62001c25565b5b600a81111562001270576200126f62001c25565b5b815260200190815260200160002060008282546200128f919062001bea565b925050819055508073ffffffffffffffffffffffffffffffffffffffff16634e9eba1d600a6040518263ffffffff1660e01b8152600401620012d2919062001ca5565b602060405180830381865afa158015620012f0573d6000803e3d6000fd5b505050506040513d601f19601f8201168201806040525081019062001316919062001cc2565b8173ffffffffffffffffffffffffffffffffffffffff1663e2e30830600a6040518263ffffffff1660e01b815260040162001352919062001ca5565b602060405180830381865afa15801562001370573d6000803e3d6000fd5b505050506040513d601f19601f8201168201806040525081019062001396919062001cc2565b620013a2919062001cf4565b60136000600a80811115620013bc57620013bb62001c25565b5b600a811115620013d157620013d062001c25565b5b81526020019081526020016000206000828254620013f0919062001bea565b9250508190555050565b82805482825590600052602060002090600f01601090048101928215620014985791602002820160005b838211156200146657835183826101000a81548161ffff021916908361ffff160217905550926020019260020160208160010104928301926001030262001424565b8015620014965782816101000a81549061ffff021916905560020160208160010104928301926001030262001466565b505b509050620014a79190620015ae565b5090565b82805482825590600052602060002090600f01601090048101928215620015495791602002820160005b838211156200151757835183826101000a81548161ffff021916908361ffff1602179055509260200192600201602081600101049283019260010302620014d5565b8015620015475782816101000a81549061ffff021916905560020160208160010104928301926001030262001517565b505b509050620015589190620015ae565b5090565b8280548282559060005260206000209081019282156200159b579160200282015b828111156200159a5782518255916020019190600101906200157d565b5b509050620015aa9190620015ae565b5090565b5b80821115620015c9576000816000905550600101620015af565b5090565b6000604051905090565b600080fd5b600080fd5b600073ffffffffffffffffffffffffffffffffffffffff82169050919050565b60006200160e82620015e1565b9050919050565b620016208162001601565b81146200162c57600080fd5b50565b600081519050620016408162001615565b92915050565b6000819050919050565b6200165b8162001646565b81146200166757600080fd5b50565b6000815190506200167b8162001650565b92915050565b600080604083850312156200169b576200169a620015d7565b5b6000620016ab858286016200162f565b9250506020620016be858286016200166a565b9150509250929050565b620016d38162001601565b82525050565b6000602082019050620016f06000830184620016c8565b92915050565b600080fd5b6000601f19601f8301169050919050565b7f4e487b7100000000000000000000000000000000000000000000000000000000600052604160045260246000fd5b6200174682620016fb565b810181811067ffffffffffffffff821117156200176857620017676200170c565b5b80604052505050565b60006200177d620015cd565b90506200178b82826200173b565b919050565b600080fd5b60008115159050919050565b620017ac8162001795565b8114620017b857600080fd5b50565b600081519050620017cc81620017a1565b92915050565b600080fd5b600067ffffffffffffffff821115620017f557620017f46200170c565b5b602082029050602081019050919050565b600080fd5b600061ffff82169050919050565b62001824816200180b565b81146200183057600080fd5b50565b600081519050620018448162001819565b92915050565b6000620018616200185b84620017d7565b62001771565b9050808382526020820190506020840283018581111562001887576200188662001806565b5b835b81811015620018b457806200189f888262001833565b84526020840193505060208101905062001889565b5050509392505050565b600082601f830112620018d657620018d5620017d2565b5b8151620018e88482602086016200184a565b91505092915050565b600067ffffffffffffffff8211156200190f576200190e6200170c565b5b602082029050602081019050919050565b6000620019376200193184620018f1565b62001771565b905080838252602082019050602084028301858111156200195d576200195c62001806565b5b835b818110156200198a57806200197588826200166a565b8452602084019350506020810190506200195f565b5050509392505050565b600082601f830112620019ac57620019ab620017d2565b5b8151620019be84826020860162001920565b91505092915050565b60006101608284031215620019e157620019e0620016f6565b5b620019ee61016062001771565b9050600062001a00848285016200166a565b600083015250602062001a16848285016200166a565b602083015250604062001a2c848285016200166a565b604083015250606062001a4284828501620017bb565b606083015250608082015167ffffffffffffffff81111562001a695762001a6862001790565b5b62001a7784828501620018be565b60808301525060a082015167ffffffffffffffff81111562001a9e5762001a9d62001790565b5b62001aac84828501620018be565b60a08301525060c062001ac28482850162001833565b60c08301525060e082015167ffffffffffffffff81111562001ae95762001ae862001790565b5b62001af78482850162001994565b60e08301525061010062001b0e8482850162001833565b6101008301525061012082015167ffffffffffffffff81111562001b375762001b3662001790565b5b62001b458482850162001994565b6101208301525061014062001b5d8482850162001833565b6101408301525092915050565b60006020828403121562001b835762001b82620015d7565b5b600082015167ffffffffffffffff81111562001ba45762001ba3620015dc565b5b62001bb284828501620019c7565b91505092915050565b7f4e487b7100000000000000000000000000000000000000000000000000000000600052601160045260246000fd5b600062001bf78262001646565b915062001c048362001646565b925082820190508082111562001c1f5762001c1e62001bbb565b5b92915050565b7f4e487b7100000000000000000000000000000000000000000000000000000000600052602160045260246000fd5b600b811062001c685762001c6762001c25565b5b50565b600081905062001c7b8262001c54565b919050565b600062001c8d8262001c6b565b9050919050565b62001c9f8162001c80565b82525050565b600060208201905062001cbc600083018462001c94565b92915050565b60006020828403121562001cdb5762001cda620015d7565b5b600062001ceb848285016200166a565b91505092915050565b600062001d018262001646565b915062001d0e8362001646565b925082820390508181111562001d295762001d2862001bbb565b5b92915050565b613ada8062001d3f6000396000f3fe608060405234801561001057600080fd5b50600436106102065760003560e01c806385a70d0f1161011a578063b56c12b4116100ad578063e2e308301161007c578063e2e3083014610644578063e65b76a914610674578063eb7165fa146106a4578063efa3d531146106c0578063f2fde38b146106f057610206565b8063b56c12b4146105be578063dd85ae5f146105da578063df28f24b1461060a578063e278fe6f1461063a57610206565b80639f8743f7116100e95780639f8743f714610522578063af33d08f14610540578063b217be0514610570578063b288e1a9146105a057610206565b806385a70d0f1461049c5780638da5cb5b146104b85780639469f293146104d65780639b7be8fc146104f257610206565b806336324a5d1161019d57806358371dc61161016c57806358371dc6146103e6578063598f3b9d14610416578063659a8d8614610446578063715018a61461047657806382e589231461048057610206565b806336324a5d1461031d5780633ed912261461034d5780634e9eba1d1461038157806350b44712146103b157610206565b80632724d104116101d95780632724d104146102ab5780632ed48515146102c7578063343f2566146102f75780633590bd3c1461030157610206565b806308469cc61461020b57806308bb71cd1461023b5780630cee803c1461026b578063146ca53114610287575b600080fd5b610225600480360381019061022091906126e0565b61070c565b6040516102329190612728565b60405180910390f35b610255600480360381019061025091906127a1565b610725565b60405161026291906127dd565b60405180910390f35b610285600480360381019061028091906127f8565b61073d565b005b61028f6107dc565b6040516102a29796959493929190612855565b60405180910390f35b6102c560048036038101906102c09190612a49565b610843565b005b6102e160048036038101906102dc91906127f8565b6108a4565b6040516102ee91906127dd565b60405180910390f35b6102ff6108c7565b005b61031b60048036038101906103169190612d3d565b61095c565b005b610337600480360381019061033291906126e0565b610b2c565b6040516103449190612728565b60405180910390f35b610367600480360381019061036291906126e0565b610b45565b604051610378959493929190612dc4565b60405180910390f35b61039b60048036038101906103969190612e17565b610bd3565b6040516103a891906127dd565b60405180910390f35b6103cb60048036038101906103c691906126e0565b610beb565b6040516103dd96959493929190612ebb565b60405180910390f35b61040060048036038101906103fb91906126e0565b610c91565b60405161040d9190612f1c565b60405180910390f35b610430600480360381019061042b91906126e0565b610cc9565b60405161043d9190612ff5565b60405180910390f35b610460600480360381019061045b9190613017565b610d5c565b60405161046d91906127dd565b60405180910390f35b61047e610d8d565b005b61049a600480360381019061049591906127f8565b610da1565b005b6104b660048036038101906104b19190613057565b610e50565b005b6104c06110b7565b6040516104cd91906130b3565b60405180910390f35b6104f060048036038101906104eb91906130ce565b6110e0565b005b61050c600480360381019061050791906126e0565b611102565b60405161051991906131ce565b60405180910390f35b61052a611254565b604051610537919061340b565b60405180910390f35b61055a600480360381019061055591906126e0565b6114b8565b60405161056791906127dd565b60405180910390f35b61058a600480360381019061058591906127f8565b611507565b6040516105979190612f1c565b60405180910390f35b6105a861154e565b6040516105b591906130b3565b60405180910390f35b6105d860048036038101906105d391906126e0565b611574565b005b6105f460048036038101906105ef91906126e0565b611aca565b6040516106019190613495565b60405180910390f35b610624600480360381019061061f91906127a1565b611bbc565b60405161063191906127dd565b60405180910390f35b610642611bd4565b005b61065e60048036038101906106599190612e17565b611c43565b60405161066b91906127dd565b60405180910390f35b61068e60048036038101906106899190613017565b611c5b565b60405161069b91906127dd565b60405180910390f35b6106be60048036038101906106b991906134b0565b611c8c565b005b6106da60048036038101906106d59190612e17565b6122b3565b6040516106e791906127dd565b60405180910390f35b61070a600480360381019061070591906127a1565b6122cb565b005b6000808211801561071e575060458211155b9050919050565b60126020528060005260406000206000915090505481565b610745612351565b60006010838154811061075b5761075a613533565b5b9060005260206000209060020201905060018160010160176101000a81548160ff02191690831515021790555081601460006007600a8111156107a1576107a0612e44565b5b600a8111156107b3576107b2612e44565b5b815260200190815260200160002060008282546107d09190613591565b92505081905550505050565b60018060000154908060010154908060020154908060030160009054906101000a900460ff16908060060160009054906101000a900461ffff16908060080160009054906101000a900461ffff169080600a0160009054906101000a900461ffff16905087565b61084b612351565b81600160040190805190602001906108649291906124a4565b50806001600501908051906020019061087e9291906124a4565b508051600160060160006101000a81548161ffff021916908361ffff1602179055505050565b600061271082846108b591906135c5565b6108bf9190613636565b905092915050565b60016002015442101561090f576040517f08c379a0000000000000000000000000000000000000000000000000000000008152600401610906906136c4565b60405180910390fd5b60006001600401805490501461095a576040517f08c379a000000000000000000000000000000000000000000000000000000000815260040161095190613730565b60405180910390fd5b565b610964612351565b60005b8251811015610a4957600083828151811061098557610984613533565b5b602002602001015190506000600c8260000151815481106109a9576109a8613533565b5b9060005260206000209060050201905081602001518160040160006101000a81548160ff0219169083600a8111156109e4576109e3612e44565b5b0217905550601560008360200151600a811115610a0457610a03612e44565b5b600a811115610a1657610a15612e44565b5b81526020019081526020016000206000815480929190610a3590613750565b919050555050508080600101915050610967565b5060005b8151811015610b27576000828281518110610a6b57610a6a613533565b5b6020026020010151905060006010826000015181548110610a8f57610a8e613533565b5b9060005260206000209060020201905081602001518160010160166101000a81548160ff021916908315150217905550816020015115610b1857601560006007600a811115610ae157610ae0612e44565b5b600a811115610af357610af2612e44565b5b81526020019081526020016000206000815480929190610b1290613750565b91905055505b50508080600101915050610a4d565b505050565b60008082118015610b3e5750601a8211155b9050919050565b60108181548110610b5557600080fd5b90600052602060002090600202016000915090508060000154908060010160009054906101000a900473ffffffffffffffffffffffffffffffffffffffff16908060010160149054906101000a900461ffff16908060010160169054906101000a900460ff16908060010160179054906101000a900460ff16905085565b60146020528060005260406000206000915090505481565b600c8181548110610bfb57600080fd5b90600052602060002090600502016000915090508060000154908060010160009054906101000a900473ffffffffffffffffffffffffffffffffffffffff16908060020160009054906101000a900473ffffffffffffffffffffffffffffffffffffffff16908060020160149054906101000a900460ff16908060030154908060040160009054906101000a900460ff16905086565b60178181548110610ca157600080fd5b9060005260206000209060109182820401919006600202915054906101000a900461ffff1681565b6060600d6000838152602001908152602001600020805480602002602001604051908101604052809291908181526020018280548015610d5057602002820191906000526020600020906000905b82829054906101000a900461ffff1661ffff1681526020019060020190602082600101049283019260010382029150808411610d175790505b50505050509050919050565b60116020528160005260406000208181548110610d7857600080fd5b90600052602060002001600091509150505481565b610d95612351565b610d9f60006123d8565b565b610da9612351565b6000600c8381548110610dbf57610dbe613533565b5b9060005260206000209060050201905060018160020160146101000a81548160ff02191690831515021790555081601460008360040160009054906101000a900460ff16600a811115610e1557610e14612e44565b5b600a811115610e2757610e26612e44565b5b81526020019081526020016000206000828254610e449190613591565b92505081905550505050565b610e58612351565b600073ffffffffffffffffffffffffffffffffffffffff163273ffffffffffffffffffffffffffffffffffffffff1603610ec7576040517f08c379a0000000000000000000000000000000000000000000000000000000008152600401610ebe906137e4565b60405180910390fd5b6001600201544210610f0e576040517f08c379a0000000000000000000000000000000000000000000000000000000008152600401610f0590613850565b60405180910390fd5b6006825114610f52576040517f08c379a0000000000000000000000000000000000000000000000000000000008152600401610f49906138bc565b60405180910390fd5b60005b60018351610f6391906138dc565b811015610fdd57610f91838281518110610f8057610f7f613533565b5b602002602001015161ffff1661070c565b610fd0576040517f08c379a0000000000000000000000000000000000000000000000000000000008152600401610fc79061395c565b60405180910390fd5b8080600101915050610f55565b5061100682600581518110610ff557610ff4613533565b5b602002602001015161ffff16610b2c565b611045576040517f08c379a000000000000000000000000000000000000000000000000000000000815260040161103c906139c8565b60405180910390fd5b3273ffffffffffffffffffffffffffffffffffffffff168173ffffffffffffffffffffffffffffffffffffffff16036110b3576040517f08c379a00000000000000000000000000000000000000000000000000000000081526004016110aa90613a5a565b60405180910390fd5b5050565b60008060009054906101000a900473ffffffffffffffffffffffffffffffffffffffff16905090565b6110e8612351565b80601790805190602001906110fe9291906124a4565b5050565b61110a61254e565b600c828154811061111e5761111d613533565b5b90600052602060002090600502016040518060c0016040529081600082015481526020016001820160009054906101000a900473ffffffffffffffffffffffffffffffffffffffff1673ffffffffffffffffffffffffffffffffffffffff1673ffffffffffffffffffffffffffffffffffffffff1681526020016002820160009054906101000a900473ffffffffffffffffffffffffffffffffffffffff1673ffffffffffffffffffffffffffffffffffffffff1673ffffffffffffffffffffffffffffffffffffffff1681526020016002820160149054906101000a900460ff16151515158152602001600382015481526020016004820160009054906101000a900460ff16600a81111561123757611236612e44565b5b600a81111561124957611248612e44565b5b815250509050919050565b61125c6125c4565b6001604051806101600160405290816000820154815260200160018201548152602001600282015481526020016003820160009054906101000a900460ff161515151581526020016004820180548060200260200160405190810160405280929190818152602001828054801561131a57602002820191906000526020600020906000905b82829054906101000a900461ffff1661ffff16815260200190600201906020826001010492830192600103820291508084116112e15790505b505050505081526020016005820180548060200260200160405190810160405280929190818152602001828054801561139a57602002820191906000526020600020906000905b82829054906101000a900461ffff1661ffff16815260200190600201906020826001010492830192600103820291508084116113615790505b505050505081526020016006820160009054906101000a900461ffff1661ffff1661ffff1681526020016007820180548060200260200160405190810160405280929190818152602001828054801561141257602002820191906000526020600020905b8154815260200190600101908083116113fe575b505050505081526020016008820160009054906101000a900461ffff1661ffff1661ffff1681526020016009820180548060200260200160405190810160405280929190818152602001828054801561148a57602002820191906000526020600020905b815481526020019060010190808311611476575b50505050508152602001600a820160009054906101000a900461ffff1661ffff1661ffff1681525050905090565b60006115008260176008815481106114d3576114d2613533565b5b90600052602060002090601091828204019190066002029054906101000a900461ffff1661ffff166108a4565b9050919050565b600d602052816000526040600020818154811061152357600080fd5b9060005260206000209060109182820401919006600202915091509054906101000a900461ffff1681565b601660009054906101000a900473ffffffffffffffffffffffffffffffffffffffff1681565b61157c612351565b60008190506115c781601760008154811061159a57611599613533565b5b90600052602060002090601091828204019190066002029054906101000a900461ffff1661ffff166108a4565b601360006001600a8111156115df576115de612e44565b5b600a8111156115f1576115f0612e44565b5b8152602001908152602001600020600082825461160e9190613591565b9250508190555061165b81601760018154811061162e5761162d613533565b5b90600052602060002090601091828204019190066002029054906101000a900461ffff1661ffff166108a4565b601360006002600a81111561167357611672612e44565b5b600a81111561168557611684612e44565b5b815260200190815260200160002060008282546116a29190613591565b925050819055506116ef8160176002815481106116c2576116c1613533565b5b90600052602060002090601091828204019190066002029054906101000a900461ffff1661ffff166108a4565b601360006003600a81111561170757611706612e44565b5b600a81111561171957611718612e44565b5b815260200190815260200160002060008282546117369190613591565b9250508190555061178381601760038154811061175657611755613533565b5b90600052602060002090601091828204019190066002029054906101000a900461ffff1661ffff166108a4565b601360006004600a81111561179b5761179a612e44565b5b600a8111156117ad576117ac612e44565b5b815260200190815260200160002060008282546117ca9190613591565b925050819055506118178160176004815481106117ea576117e9613533565b5b90600052602060002090601091828204019190066002029054906101000a900461ffff1661ffff166108a4565b601360006005600a81111561182f5761182e612e44565b5b600a81111561184157611840612e44565b5b8152602001908152602001600020600082825461185e9190613591565b925050819055506118ab81601760058154811061187e5761187d613533565b5b90600052602060002090601091828204019190066002029054906101000a900461ffff1661ffff166108a4565b601360006006600a8111156118c3576118c2612e44565b5b600a8111156118d5576118d4612e44565b5b815260200190815260200160002060008282546118f29190613591565b9250508190555080601360006008600a81111561191257611911612e44565b5b600a81111561192457611923612e44565b5b815260200190815260200160002060008282546119419190613591565b9250508190555061198e82601760068154811061196157611960613533565b5b90600052602060002090601091828204019190066002029054906101000a900461ffff1661ffff166108a4565b601360006007600a8111156119a6576119a5612e44565b5b600a8111156119b8576119b7612e44565b5b815260200190815260200160002060008282546119d59190613591565b92505081905550611a228260176007815481106119f5576119f4613533565b5b90600052602060002090601091828204019190066002029054906101000a900461ffff1661ffff166108a4565b601360006009600a811115611a3a57611a39612e44565b5b600a811115611a4c57611a4b612e44565b5b81526020019081526020016000206000828254611a699190613591565b92505081905550611a79826114b8565b60136000600a80811115611a9057611a8f612e44565b5b600a811115611aa257611aa1612e44565b5b81526020019081526020016000206000828254611abf9190613591565b925050819055505050565b611ad261262c565b60108281548110611ae657611ae5613533565b5b90600052602060002090600202016040518060a0016040529081600082015481526020016001820160009054906101000a900473ffffffffffffffffffffffffffffffffffffffff1673ffffffffffffffffffffffffffffffffffffffff1673ffffffffffffffffffffffffffffffffffffffff1681526020016001820160149054906101000a900461ffff1661ffff1661ffff1681526020016001820160169054906101000a900460ff161515151581526020016001820160179054906101000a900460ff1615151515815250509050919050565b600f6020528060005260406000206000915090505481565b611bdc612351565b600160020154421015611c24576040517f08c379a0000000000000000000000000000000000000000000000000000000008152600401611c1b906136c4565b60405180910390fd5b60018060030160006101000a81548160ff021916908315150217905550565b60136020528060005260406000206000915090505481565b600e6020528160005260406000208181548110611c7757600080fd5b90600052602060002001600091509150505481565b611c94612351565b611c9e8383610e50565b6000600c805490509050600c6040518060c001604052808381526020018473ffffffffffffffffffffffffffffffffffffffff1681526020018573ffffffffffffffffffffffffffffffffffffffff1681526020016000151581526020018781526020016000600a811115611d1657611d15612e44565b5b81525090806001815401808255809150506001900390600052602060002090600502016000909190919091506000820151816000015560208201518160010160006101000a81548173ffffffffffffffffffffffffffffffffffffffff021916908373ffffffffffffffffffffffffffffffffffffffff16021790555060408201518160020160006101000a81548173ffffffffffffffffffffffffffffffffffffffff021916908373ffffffffffffffffffffffffffffffffffffffff16021790555060608201518160020160146101000a81548160ff0219169083151502179055506080820151816003015560a08201518160040160006101000a81548160ff0219169083600a811115611e2f57611e2e612e44565b5b0217905550505060005b8451811015611ec457600d6000838152602001908152602001600020858281518110611e6857611e67613533565b5b602002602001015190806001815401808255809150506001900390600052602060002090601091828204019190066002029091909190916101000a81548161ffff021916908361ffff1602179055508080600101915050611e39565b5060016007018190806001815401808255809150506001900390600052602060002001600090919091909150556001600801600081819054906101000a900461ffff1680929190611f1490613a7a565b91906101000a81548161ffff021916908361ffff16021790555050600e60008373ffffffffffffffffffffffffffffffffffffffff1673ffffffffffffffffffffffffffffffffffffffff1681526020019081526020016000206001600c80549050611f8091906138dc565b9080600181540180825580915050600190039060005260206000200160009091909190915055600f60008373ffffffffffffffffffffffffffffffffffffffff1673ffffffffffffffffffffffffffffffffffffffff1681526020019081526020016000206000815480929190611ff690613750565b9190505550600073ffffffffffffffffffffffffffffffffffffffff168373ffffffffffffffffffffffffffffffffffffffff16146122ac576000601080549050905060016009018190806001815401808255809150506001900390600052602060002001600090919091909150556001600a01600081819054906101000a900461ffff168092919061208890613a7a565b91906101000a81548161ffff021916908361ffff1602179055505060106040518060a001604052808381526020018673ffffffffffffffffffffffffffffffffffffffff1681526020016001600a0160009054906101000a900461ffff1661ffff1681526020016000151581526020016000151581525090806001815401808255809150506001900390600052602060002090600202016000909190919091506000820151816000015560208201518160010160006101000a81548173ffffffffffffffffffffffffffffffffffffffff021916908373ffffffffffffffffffffffffffffffffffffffff16021790555060408201518160010160146101000a81548161ffff021916908361ffff16021790555060608201518160010160166101000a81548160ff02191690831515021790555060808201518160010160176101000a81548160ff0219169083151502179055505050601160008573ffffffffffffffffffffffffffffffffffffffff1673ffffffffffffffffffffffffffffffffffffffff168152602001908152602001600020600160108054905061222f91906138dc565b9080600181540180825580915050600190039060005260206000200160009091909190915055601260008573ffffffffffffffffffffffffffffffffffffffff1673ffffffffffffffffffffffffffffffffffffffff16815260200190815260200160002060008154809291906122a590613750565b9190505550505b5050505050565b60156020528060005260406000206000915090505481565b6122d3612351565b600073ffffffffffffffffffffffffffffffffffffffff168173ffffffffffffffffffffffffffffffffffffffff16036123455760006040517f1e4fbdf700000000000000000000000000000000000000000000000000000000815260040161233c91906130b3565b60405180910390fd5b61234e816123d8565b50565b61235961249c565b73ffffffffffffffffffffffffffffffffffffffff166123776110b7565b73ffffffffffffffffffffffffffffffffffffffff16146123d65761239a61249c565b6040517f118cdaa70000000000000000000000000000000000000000000000000000000081526004016123cd91906130b3565b60405180910390fd5b565b60008060009054906101000a900473ffffffffffffffffffffffffffffffffffffffff169050816000806101000a81548173ffffffffffffffffffffffffffffffffffffffff021916908373ffffffffffffffffffffffffffffffffffffffff1602179055508173ffffffffffffffffffffffffffffffffffffffff168173ffffffffffffffffffffffffffffffffffffffff167f8be0079c531659141344cd1fd0a4f28419497f9722a3daafe3b4186f6b6457e060405160405180910390a35050565b600033905090565b82805482825590600052602060002090600f0160109004810192821561253d5791602002820160005b8382111561250d57835183826101000a81548161ffff021916908361ffff16021790555092602001926002016020816001010492830192600103026124cd565b801561253b5782816101000a81549061ffff021916905560020160208160010104928301926001030261250d565b505b50905061254a9190612679565b5090565b6040518060c0016040528060008152602001600073ffffffffffffffffffffffffffffffffffffffff168152602001600073ffffffffffffffffffffffffffffffffffffffff168152602001600015158152602001600081526020016000600a8111156125be576125bd612e44565b5b81525090565b6040518061016001604052806000815260200160008152602001600081526020016000151581526020016060815260200160608152602001600061ffff16815260200160608152602001600061ffff16815260200160608152602001600061ffff1681525090565b6040518060a0016040528060008152602001600073ffffffffffffffffffffffffffffffffffffffff168152602001600061ffff1681526020016000151581526020016000151581525090565b5b8082111561269257600081600090555060010161267a565b5090565b6000604051905090565b600080fd5b600080fd5b6000819050919050565b6126bd816126aa565b81146126c857600080fd5b50565b6000813590506126da816126b4565b92915050565b6000602082840312156126f6576126f56126a0565b5b6000612704848285016126cb565b91505092915050565b60008115159050919050565b6127228161270d565b82525050565b600060208201905061273d6000830184612719565b92915050565b600073ffffffffffffffffffffffffffffffffffffffff82169050919050565b600061276e82612743565b9050919050565b61277e81612763565b811461278957600080fd5b50565b60008135905061279b81612775565b92915050565b6000602082840312156127b7576127b66126a0565b5b60006127c58482850161278c565b91505092915050565b6127d7816126aa565b82525050565b60006020820190506127f260008301846127ce565b92915050565b6000806040838503121561280f5761280e6126a0565b5b600061281d858286016126cb565b925050602061282e858286016126cb565b9150509250929050565b600061ffff82169050919050565b61284f81612838565b82525050565b600060e08201905061286a600083018a6127ce565b61287760208301896127ce565b61288460408301886127ce565b6128916060830187612719565b61289e6080830186612846565b6128ab60a0830185612846565b6128b860c0830184612846565b98975050505050505050565b600080fd5b6000601f19601f8301169050919050565b7f4e487b7100000000000000000000000000000000000000000000000000000000600052604160045260246000fd5b612912826128c9565b810181811067ffffffffffffffff82111715612931576129306128da565b5b80604052505050565b6000612944612696565b90506129508282612909565b919050565b600067ffffffffffffffff8211156129705761296f6128da565b5b602082029050602081019050919050565b600080fd5b61298f81612838565b811461299a57600080fd5b50565b6000813590506129ac81612986565b92915050565b60006129c56129c084612955565b61293a565b905080838252602082019050602084028301858111156129e8576129e7612981565b5b835b81811015612a1157806129fd888261299d565b8452602084019350506020810190506129ea565b5050509392505050565b600082601f830112612a3057612a2f6128c4565b5b8135612a408482602086016129b2565b91505092915050565b60008060408385031215612a6057612a5f6126a0565b5b600083013567ffffffffffffffff811115612a7e57612a7d6126a5565b5b612a8a85828601612a1b565b925050602083013567ffffffffffffffff811115612aab57612aaa6126a5565b5b612ab785828601612a1b565b9150509250929050565b600067ffffffffffffffff821115612adc57612adb6128da565b5b602082029050602081019050919050565b600080fd5b600b8110612aff57600080fd5b50565b600081359050612b1181612af2565b92915050565b600060408284031215612b2d57612b2c612aed565b5b612b37604061293a565b90506000612b47848285016126cb565b6000830152506020612b5b84828501612b02565b60208301525092915050565b6000612b7a612b7584612ac1565b61293a565b90508083825260208201905060408402830185811115612b9d57612b9c612981565b5b835b81811015612bc65780612bb28882612b17565b845260208401935050604081019050612b9f565b5050509392505050565b600082601f830112612be557612be46128c4565b5b8135612bf5848260208601612b67565b91505092915050565b600067ffffffffffffffff821115612c1957612c186128da565b5b602082029050602081019050919050565b612c338161270d565b8114612c3e57600080fd5b50565b600081359050612c5081612c2a565b92915050565b600060408284031215612c6c57612c6b612aed565b5b612c76604061293a565b90506000612c86848285016126cb565b6000830152506020612c9a84828501612c41565b60208301525092915050565b6000612cb9612cb484612bfe565b61293a565b90508083825260208201905060408402830185811115612cdc57612cdb612981565b5b835b81811015612d055780612cf18882612c56565b845260208401935050604081019050612cde565b5050509392505050565b600082601f830112612d2457612d236128c4565b5b8135612d34848260208601612ca6565b91505092915050565b60008060408385031215612d5457612d536126a0565b5b600083013567ffffffffffffffff811115612d7257612d716126a5565b5b612d7e85828601612bd0565b925050602083013567ffffffffffffffff811115612d9f57612d9e6126a5565b5b612dab85828601612d0f565b9150509250929050565b612dbe81612763565b82525050565b600060a082019050612dd960008301886127ce565b612de66020830187612db5565b612df36040830186612846565b612e006060830185612719565b612e0d6080830184612719565b9695505050505050565b600060208284031215612e2d57612e2c6126a0565b5b6000612e3b84828501612b02565b91505092915050565b7f4e487b7100000000000000000000000000000000000000000000000000000000600052602160045260246000fd5b600b8110612e8457612e83612e44565b5b50565b6000819050612e9582612e73565b919050565b6000612ea582612e87565b9050919050565b612eb581612e9a565b82525050565b600060c082019050612ed060008301896127ce565b612edd6020830188612db5565b612eea6040830187612db5565b612ef76060830186612719565b612f0460808301856127ce565b612f1160a0830184612eac565b979650505050505050565b6000602082019050612f316000830184612846565b92915050565b600081519050919050565b600082825260208201905092915050565b6000819050602082019050919050565b612f6c81612838565b82525050565b6000612f7e8383612f63565b60208301905092915050565b6000602082019050919050565b6000612fa282612f37565b612fac8185612f42565b9350612fb783612f53565b8060005b83811015612fe8578151612fcf8882612f72565b9750612fda83612f8a565b925050600181019050612fbb565b5085935050505092915050565b6000602082019050818103600083015261300f8184612f97565b905092915050565b6000806040838503121561302e5761302d6126a0565b5b600061303c8582860161278c565b925050602061304d858286016126cb565b9150509250929050565b6000806040838503121561306e5761306d6126a0565b5b600083013567ffffffffffffffff81111561308c5761308b6126a5565b5b61309885828601612a1b565b92505060206130a98582860161278c565b9150509250929050565b60006020820190506130c86000830184612db5565b92915050565b6000602082840312156130e4576130e36126a0565b5b600082013567ffffffffffffffff811115613102576131016126a5565b5b61310e84828501612a1b565b91505092915050565b613120816126aa565b82525050565b61312f81612763565b82525050565b61313e8161270d565b82525050565b61314d81612e9a565b82525050565b60c0820160008201516131696000850182613117565b50602082015161317c6020850182613126565b50604082015161318f6040850182613126565b5060608201516131a26060850182613135565b5060808201516131b56080850182613117565b5060a08201516131c860a0850182613144565b50505050565b600060c0820190506131e36000830184613153565b92915050565b600082825260208201905092915050565b600061320582612f37565b61320f81856131e9565b935061321a83612f53565b8060005b8381101561324b5781516132328882612f72565b975061323d83612f8a565b92505060018101905061321e565b5085935050505092915050565b600081519050919050565b600082825260208201905092915050565b6000819050602082019050919050565b60006132908383613117565b60208301905092915050565b6000602082019050919050565b60006132b482613258565b6132be8185613263565b93506132c983613274565b8060005b838110156132fa5781516132e18882613284565b97506132ec8361329c565b9250506001810190506132cd565b5085935050505092915050565b6000610160830160008301516133206000860182613117565b5060208301516133336020860182613117565b5060408301516133466040860182613117565b5060608301516133596060860182613135565b506080830151848203608086015261337182826131fa565b91505060a083015184820360a086015261338b82826131fa565b91505060c08301516133a060c0860182612f63565b5060e083015184820360e08601526133b882826132a9565b9150506101008301516133cf610100860182612f63565b506101208301518482036101208601526133e982826132a9565b915050610140830151613400610140860182612f63565b508091505092915050565b600060208201905081810360008301526134258184613307565b905092915050565b60a0820160008201516134436000850182613117565b5060208201516134566020850182613126565b5060408201516134696040850182612f63565b50606082015161347c6060850182613135565b50608082015161348f6080850182613135565b50505050565b600060a0820190506134aa600083018461342d565b92915050565b600080600080608085870312156134ca576134c96126a0565b5b60006134d8878288016126cb565b945050602085013567ffffffffffffffff8111156134f9576134f86126a5565b5b61350587828801612a1b565b93505060406135168782880161278c565b92505060606135278782880161278c565b91505092959194509250565b7f4e487b7100000000000000000000000000000000000000000000000000000000600052603260045260246000fd5b7f4e487b7100000000000000000000000000000000000000000000000000000000600052601160045260246000fd5b600061359c826126aa565b91506135a7836126aa565b92508282019050808211156135bf576135be613562565b5b92915050565b60006135d0826126aa565b91506135db836126aa565b92508282026135e9816126aa565b91508282048414831517613600576135ff613562565b5b5092915050565b7f4e487b7100000000000000000000000000000000000000000000000000000000600052601260045260246000fd5b6000613641826126aa565b915061364c836126aa565b92508261365c5761365b613607565b5b828204905092915050565b600082825260208201905092915050565b7f526f756e64206973206e6f74206f766572207965740000000000000000000000600082015250565b60006136ae601583613667565b91506136b982613678565b602082019050919050565b600060208201905081810360008301526136dd816136a1565b9050919050565b7f57696e6e696e67206e756d6265727320616c7265616479207365740000000000600082015250565b600061371a601b83613667565b9150613725826136e4565b602082019050919050565b600060208201905081810360008301526137498161370d565b9050919050565b600061375b826126aa565b91507fffffffffffffffffffffffffffffffffffffffffffffffffffffffffffffffff820361378d5761378c613562565b5b600182019050919050565b7f496e76616c69642073656e646572000000000000000000000000000000000000600082015250565b60006137ce600e83613667565b91506137d982613798565b602082019050919050565b600060208201905081810360008301526137fd816137c1565b9050919050565b7f526f756e64206973206f76657200000000000000000000000000000000000000600082015250565b600061383a600d83613667565b915061384582613804565b602082019050919050565b600060208201905081810360008301526138698161382d565b9050919050565b7f496e76616c6964206e756d6265727320636f756e740000000000000000000000600082015250565b60006138a6601583613667565b91506138b182613870565b602082019050919050565b600060208201905081810360008301526138d581613899565b9050919050565b60006138e7826126aa565b91506138f2836126aa565b925082820390508181111561390a57613909613562565b5b92915050565b7f496e76616c6964206e756d626572730000000000000000000000000000000000600082015250565b6000613946600f83613667565b915061395182613910565b602082019050919050565b6000602082019050818103600083015261397581613939565b9050919050565b7f496e76616c696420706f776572206e756d626572000000000000000000000000600082015250565b60006139b2601483613667565b91506139bd8261397c565b602082019050919050565b600060208201905081810360008301526139e1816139a5565b9050919050565b7f526566657272616c2063616e6e6f74206265207468652073616d65206173207460008201527f6865207061727469636970616e74000000000000000000000000000000000000602082015250565b6000613a44602e83613667565b9150613a4f826139e8565b604082019050919050565b60006020820190508181036000830152613a7381613a37565b9050919050565b6000613a8582612838565b915061ffff8203613a9957613a98613562565b5b60018201905091905056fea2646970667358221220e4f418c91da636cee07f72d0af0f97da2895ee1cf4b4859650df606b7cd37b1764736f6c63430008180033a2646970667358221220f96529fbe91870a5ff8aa670d1fe2e1d1f7b38398e7f139075b734b9ba8750f364736f6c63430008180033",
  "devdoc": {
    "errors": {
      "OwnableInvalidOwner(address)": [
        {
          "details": "The owner is not a valid owner account. (eg. `address(0)`)"
        }
      ],
      "OwnableUnauthorizedAccount(address)": [
        {
          "details": "The caller account is not authorized to perform an operation."
        }
      ]
    },
    "kind": "dev",
    "methods": {
      "owner()": {
        "details": "Returns the address of the current owner."
      },
      "renounceOwnership()": {
        "details": "Leaves the contract without owner. It will not be possible to call `onlyOwner` functions. Can only be called by the current owner. NOTE: Renouncing ownership will leave the contract without an owner, thereby disabling any functionality that is only available to the owner."
      },
      "transferOwnership(address)": {
        "details": "Transfers ownership of the contract to a new account (`newOwner`). Can only be called by the current owner."
      }
    },
    "version": 1
  },
  "userdoc": {
    "kind": "user",
    "methods": {},
    "version": 1
  },
  "storageLayout": {
    "storage": [
      {
        "astId": 8,
        "contract": "contracts/LotteryRoundCreator.sol:LotteryRoundCreator",
        "label": "_owner",
        "offset": 0,
        "slot": "0",
        "type": "t_address"
      }
    ],
    "types": {
      "t_address": {
        "encoding": "inplace",
        "label": "address",
        "numberOfBytes": "20"
      }
    }
  }
}