{
  "address": "0xEDCDAC25a0953292Ea1226Abf1b04C5bA83e688a",
  "abi": [
    {
      "inputs": [],
      "stateMutability": "nonpayable",
      "type": "constructor"
    },
    {
      "inputs": [
        {
          "internalType": "address",
          "name": "target",
          "type": "address"
        }
      ],
      "name": "AddressEmptyCode",
      "type": "error"
    },
    {
      "inputs": [
        {
          "internalType": "address",
          "name": "account",
          "type": "address"
        }
      ],
      "name": "AddressInsufficientBalance",
      "type": "error"
    },
    {
      "inputs": [],
      "name": "FailedInnerCall",
      "type": "error"
    },
    {
      "inputs": [
        {
          "internalType": "address",
          "name": "owner",
          "type": "address"
        }
      ],
      "name": "OwnableInvalidOwner",
      "type": "error"
    },
    {
      "inputs": [
        {
          "internalType": "address",
          "name": "account",
          "type": "address"
        }
      ],
      "name": "OwnableUnauthorizedAccount",
      "type": "error"
    },
    {
      "inputs": [
        {
          "internalType": "address",
          "name": "token",
          "type": "address"
        }
      ],
      "name": "SafeERC20FailedOperation",
      "type": "error"
    },
    {
      "anonymous": false,
      "inputs": [
        {
          "indexed": true,
          "internalType": "address",
          "name": "previousOwner",
          "type": "address"
        },
        {
          "indexed": true,
          "internalType": "address",
          "name": "newOwner",
          "type": "address"
        }
      ],
      "name": "OwnershipTransferred",
      "type": "event"
    },
    {
      "inputs": [
        {
          "internalType": "uint256",
          "name": "roundId",
          "type": "uint256"
        }
      ],
      "name": "amountWonInRound",
      "outputs": [
        {
          "internalType": "uint256",
          "name": "",
          "type": "uint256"
        }
      ],
      "stateMutability": "view",
      "type": "function"
    },
    {
      "inputs": [
        {
          "internalType": "uint256",
          "name": "roundId",
          "type": "uint256"
        },
        {
          "internalType": "address",
          "name": "wallet",
          "type": "address"
        },
        {
          "internalType": "bool",
          "name": "claimed",
          "type": "bool"
        }
      ],
      "name": "evaluateWonReferralAmountForWallet",
      "outputs": [
        {
          "internalType": "uint256",
          "name": "",
          "type": "uint256"
        }
      ],
      "stateMutability": "view",
      "type": "function"
    },
    {
      "inputs": [
        {
          "internalType": "uint256",
          "name": "roundId",
          "type": "uint256"
        },
        {
          "internalType": "address",
          "name": "wallet",
          "type": "address"
        }
      ],
      "name": "evaluateWonReferralFoWallet",
      "outputs": [
        {
          "components": [
            {
              "internalType": "uint256",
              "name": "referralTicketId",
              "type": "uint256"
            },
            {
              "internalType": "address",
              "name": "buyerAddress",
              "type": "address"
            },
            {
              "internalType": "address",
              "name": "referralAddress",
              "type": "address"
            },
            {
              "internalType": "uint256",
              "name": "referralTicketNumber",
              "type": "uint256"
            },
            {
              "internalType": "bool",
              "name": "won",
              "type": "bool"
            },
            {
              "internalType": "bool",
              "name": "claimed",
              "type": "bool"
            },
            {
              "internalType": "uint256",
              "name": "amountWon",
              "type": "uint256"
            }
          ],
          "internalType": "struct ReferralTicketResults[]",
          "name": "",
          "type": "tuple[]"
        }
      ],
      "stateMutability": "view",
      "type": "function"
    },
    {
      "inputs": [
        {
          "internalType": "uint256",
          "name": "roundId",
          "type": "uint256"
        }
      ],
      "name": "evaluateWonReferralForRound",
      "outputs": [
        {
          "components": [
            {
              "internalType": "uint256",
              "name": "referralTicketId",
              "type": "uint256"
            },
            {
              "internalType": "address",
              "name": "buyerAddress",
              "type": "address"
            },
            {
              "internalType": "address",
              "name": "referralAddress",
              "type": "address"
            },
            {
              "internalType": "uint256",
              "name": "referralTicketNumber",
              "type": "uint256"
            },
            {
              "internalType": "bool",
              "name": "won",
              "type": "bool"
            },
            {
              "internalType": "bool",
              "name": "claimed",
              "type": "bool"
            },
            {
              "internalType": "uint256",
              "name": "amountWon",
              "type": "uint256"
            }
          ],
          "internalType": "struct ReferralTicketResults[]",
          "name": "",
          "type": "tuple[]"
        }
      ],
      "stateMutability": "view",
      "type": "function"
    },
    {
      "inputs": [
        {
          "internalType": "uint256",
          "name": "roundId",
          "type": "uint256"
        },
        {
          "internalType": "address",
          "name": "wallet",
          "type": "address"
        },
        {
          "internalType": "bool",
          "name": "claimed",
          "type": "bool"
        }
      ],
      "name": "evaluateWonTicketsAmountForWallet",
      "outputs": [
        {
          "internalType": "uint256",
          "name": "",
          "type": "uint256"
        }
      ],
      "stateMutability": "view",
      "type": "function"
    },
    {
      "inputs": [
        {
          "internalType": "uint256",
          "name": "roundId",
          "type": "uint256"
        }
      ],
      "name": "evaluateWonTicketsForRound",
      "outputs": [
        {
          "components": [
            {
              "internalType": "uint256",
              "name": "ticketId",
              "type": "uint256"
            },
            {
              "internalType": "address",
              "name": "participantAddress",
              "type": "address"
            },
            {
              "internalType": "enum RoundVictoryTier",
              "name": "victoryTier",
              "type": "uint8"
            },
            {
              "internalType": "bool",
              "name": "won",
              "type": "bool"
            },
            {
              "internalType": "bool",
              "name": "claimed",
              "type": "bool"
            },
            {
              "internalType": "uint256",
              "name": "amountWon",
              "type": "uint256"
            }
          ],
          "internalType": "struct TicketResults[]",
          "name": "",
          "type": "tuple[]"
        }
      ],
      "stateMutability": "view",
      "type": "function"
    },
    {
      "inputs": [
        {
          "internalType": "uint256",
          "name": "roundId",
          "type": "uint256"
        },
        {
          "internalType": "address",
          "name": "wallet",
          "type": "address"
        }
      ],
      "name": "evaluateWonTicketsForWallet",
      "outputs": [
        {
          "components": [
            {
              "internalType": "uint256",
              "name": "ticketId",
              "type": "uint256"
            },
            {
              "internalType": "address",
              "name": "participantAddress",
              "type": "address"
            },
            {
              "internalType": "enum RoundVictoryTier",
              "name": "victoryTier",
              "type": "uint8"
            },
            {
              "internalType": "bool",
              "name": "won",
              "type": "bool"
            },
            {
              "internalType": "bool",
              "name": "claimed",
              "type": "bool"
            },
            {
              "internalType": "uint256",
              "name": "amountWon",
              "type": "uint256"
            }
          ],
          "internalType": "struct TicketResults[]",
          "name": "",
          "type": "tuple[]"
        }
      ],
      "stateMutability": "view",
      "type": "function"
    },
    {
      "inputs": [
        {
          "internalType": "uint256",
          "name": "num",
          "type": "uint256"
        },
        {
          "internalType": "uint256[]",
          "name": "arr",
          "type": "uint256[]"
        }
      ],
      "name": "existInArrayBigNumber",
      "outputs": [
        {
          "internalType": "bool",
          "name": "",
          "type": "bool"
        }
      ],
      "stateMutability": "pure",
      "type": "function"
    },
    {
      "inputs": [
        {
          "internalType": "uint16",
          "name": "num",
          "type": "uint16"
        },
        {
          "internalType": "uint16[]",
          "name": "arr",
          "type": "uint16[]"
        }
      ],
      "name": "existInArrayNumber",
      "outputs": [
        {
          "internalType": "bool",
          "name": "",
          "type": "bool"
        }
      ],
      "stateMutability": "pure",
      "type": "function"
    },
    {
      "inputs": [
        {
          "internalType": "uint256",
          "name": "roundId",
          "type": "uint256"
        }
      ],
      "name": "getAllTicketsNumbersForRound",
      "outputs": [
        {
          "internalType": "uint16[]",
          "name": "",
          "type": "uint16[]"
        }
      ],
      "stateMutability": "view",
      "type": "function"
    },
    {
      "inputs": [
        {
          "internalType": "uint256",
          "name": "randomNumber",
          "type": "uint256"
        },
        {
          "internalType": "uint16",
          "name": "maxValue",
          "type": "uint16"
        },
        {
          "internalType": "uint16[]",
          "name": "arr",
          "type": "uint16[]"
        }
      ],
      "name": "getRandomUniqueNumberInArrayForMaxValue",
      "outputs": [
        {
          "internalType": "uint16",
          "name": "",
          "type": "uint16"
        }
      ],
      "stateMutability": "pure",
      "type": "function"
    },
    {
      "inputs": [
        {
          "internalType": "uint256",
          "name": "roundId",
          "type": "uint256"
        }
      ],
      "name": "getReferralTicketsForRound",
      "outputs": [
        {
          "components": [
            {
              "internalType": "uint256",
              "name": "id",
              "type": "uint256"
            },
            {
              "internalType": "address",
              "name": "buyerAddress",
              "type": "address"
            },
            {
              "internalType": "address",
              "name": "referralAddress",
              "type": "address"
            },
            {
              "internalType": "uint256",
              "name": "referralTicketNumber",
              "type": "uint256"
            },
            {
              "internalType": "bool",
              "name": "winner",
              "type": "bool"
            },
            {
              "internalType": "bool",
              "name": "claimed",
              "type": "bool"
            }
          ],
          "internalType": "struct ReferralTicket[]",
          "name": "",
          "type": "tuple[]"
        }
      ],
      "stateMutability": "view",
      "type": "function"
    },
    {
      "inputs": [
        {
          "internalType": "uint256",
          "name": "roundId",
          "type": "uint256"
        }
      ],
      "name": "getTicketsForRound",
      "outputs": [
        {
          "components": [
            {
              "internalType": "uint256",
              "name": "id",
              "type": "uint256"
            },
            {
              "internalType": "address",
              "name": "participantAddress",
              "type": "address"
            },
            {
              "internalType": "address",
              "name": "referralAddress",
              "type": "address"
            },
            {
              "internalType": "bool",
              "name": "claimed",
              "type": "bool"
            },
            {
              "internalType": "uint256",
              "name": "chainId",
              "type": "uint256"
            },
            {
              "internalType": "enum RoundVictoryTier",
              "name": "victoryTier",
              "type": "uint8"
            }
          ],
          "internalType": "struct Ticket[]",
          "name": "",
          "type": "tuple[]"
        }
      ],
      "stateMutability": "view",
      "type": "function"
    },
    {
      "inputs": [],
      "name": "lotteryMaster",
      "outputs": [
        {
          "internalType": "contract LotteryMaster",
          "name": "",
          "type": "address"
        }
      ],
      "stateMutability": "view",
      "type": "function"
    },
    {
      "inputs": [
        {
          "internalType": "uint16",
          "name": "num",
          "type": "uint16"
        },
        {
          "internalType": "uint16[]",
          "name": "arr",
          "type": "uint16[]"
        }
      ],
      "name": "notExistInArrayNumber",
      "outputs": [
        {
          "internalType": "bool",
          "name": "",
          "type": "bool"
        }
      ],
      "stateMutability": "pure",
      "type": "function"
    },
    {
      "inputs": [
        {
          "internalType": "uint256",
          "name": "roundId",
          "type": "uint256"
        }
      ],
      "name": "numberOfReferralWinnersForRoundId",
      "outputs": [
        {
          "internalType": "uint16",
          "name": "",
          "type": "uint16"
        }
      ],
      "stateMutability": "view",
      "type": "function"
    },
    {
      "inputs": [],
      "name": "owner",
      "outputs": [
        {
          "internalType": "address",
          "name": "",
          "type": "address"
        }
      ],
      "stateMutability": "view",
      "type": "function"
    },
    {
      "inputs": [
        {
          "internalType": "uint256",
          "name": "roundId",
          "type": "uint256"
        }
      ],
      "name": "poolForReferral",
      "outputs": [
        {
          "internalType": "uint256",
          "name": "",
          "type": "uint256"
        }
      ],
      "stateMutability": "view",
      "type": "function"
    },
    {
      "inputs": [
        {
          "internalType": "uint256",
          "name": "roundId",
          "type": "uint256"
        },
        {
          "internalType": "enum RoundVictoryTier",
          "name": "victoryTier",
          "type": "uint8"
        }
      ],
      "name": "poolForVictoryTier",
      "outputs": [
        {
          "internalType": "uint256",
          "name": "",
          "type": "uint256"
        }
      ],
      "stateMutability": "view",
      "type": "function"
    },
    {
      "inputs": [
        {
          "internalType": "uint256",
          "name": "roundId",
          "type": "uint256"
        }
      ],
      "name": "referralWinnersNumber",
      "outputs": [
        {
          "internalType": "uint256[]",
          "name": "",
          "type": "uint256[]"
        }
      ],
      "stateMutability": "view",
      "type": "function"
    },
    {
      "inputs": [],
      "name": "renounceOwnership",
      "outputs": [],
      "stateMutability": "nonpayable",
      "type": "function"
    },
    {
      "inputs": [
        {
          "internalType": "uint256",
          "name": "roundId",
          "type": "uint256"
        }
      ],
      "name": "roundNumbers",
      "outputs": [
        {
          "internalType": "uint16[]",
          "name": "",
          "type": "uint16[]"
        }
      ],
      "stateMutability": "view",
      "type": "function"
    },
    {
      "inputs": [],
      "name": "sendCryptoToTeam",
      "outputs": [],
      "stateMutability": "nonpayable",
      "type": "function"
    },
    {
      "inputs": [
        {
          "internalType": "address",
          "name": "_token",
          "type": "address"
        }
      ],
      "name": "sendTokenToTeam",
      "outputs": [],
      "stateMutability": "nonpayable",
      "type": "function"
    },
    {
      "inputs": [
        {
          "internalType": "address",
          "name": "_lotteryMaster",
          "type": "address"
        }
      ],
      "name": "setLotteryMaster",
      "outputs": [],
      "stateMutability": "nonpayable",
      "type": "function"
    },
    {
      "inputs": [
        {
          "internalType": "uint16",
          "name": "rightNumbersForTicket",
          "type": "uint16"
        },
        {
          "internalType": "bool",
          "name": "powerNumberFound",
          "type": "bool"
        }
      ],
      "name": "tierFromResults",
      "outputs": [
        {
          "internalType": "enum RoundVictoryTier",
          "name": "",
          "type": "uint8"
        }
      ],
      "stateMutability": "pure",
      "type": "function"
    },
    {
      "inputs": [
        {
          "internalType": "uint256",
          "name": "roundId",
          "type": "uint256"
        }
      ],
      "name": "tokenHoldersPoolAmount",
      "outputs": [
        {
          "internalType": "uint256",
          "name": "",
          "type": "uint256"
        }
      ],
      "stateMutability": "view",
      "type": "function"
    },
    {
      "inputs": [
        {
          "internalType": "address",
          "name": "newOwner",
          "type": "address"
        }
      ],
      "name": "transferOwnership",
      "outputs": [],
      "stateMutability": "nonpayable",
      "type": "function"
    },
    {
      "inputs": [
        {
          "internalType": "uint256",
          "name": "roundId",
          "type": "uint256"
        }
      ],
      "name": "treasuryPoolAmount",
      "outputs": [
        {
          "internalType": "uint256",
          "name": "",
          "type": "uint256"
        }
      ],
      "stateMutability": "view",
      "type": "function"
    },
    {
      "inputs": [
        {
          "internalType": "address",
          "name": "_teamAddress",
          "type": "address"
        }
      ],
      "name": "updateTeamAddress",
      "outputs": [],
      "stateMutability": "nonpayable",
      "type": "function"
    }
  ],
  "transactionHash": "0x603dec2e2850de6c16509a1094713a2f43dacb4a35165f601ffa8e5ec8890835",
  "args": [],
  "numDeployments": 1,
  "solcInputHash": "bec4ae2c653521b62343ab38223a7692",
  "bytecode": "0x60806040523480156200001157600080fd5b503280600073ffffffffffffffffffffffffffffffffffffffff168173ffffffffffffffffffffffffffffffffffffffff1603620000895760006040517f1e4fbdf7000000000000000000000000000000000000000000000000000000008152600401620000809190620001ec565b60405180910390fd5b6200009a81620000e360201b60201c565b5080600160006101000a81548173ffffffffffffffffffffffffffffffffffffffff021916908373ffffffffffffffffffffffffffffffffffffffff1602179055505062000209565b60008060009054906101000a900473ffffffffffffffffffffffffffffffffffffffff169050816000806101000a81548173ffffffffffffffffffffffffffffffffffffffff021916908373ffffffffffffffffffffffffffffffffffffffff1602179055508173ffffffffffffffffffffffffffffffffffffffff168173ffffffffffffffffffffffffffffffffffffffff167f8be0079c531659141344cd1fd0a4f28419497f9722a3daafe3b4186f6b6457e060405160405180910390a35050565b600073ffffffffffffffffffffffffffffffffffffffff82169050919050565b6000620001d482620001a7565b9050919050565b620001e681620001c7565b82525050565b6000602082019050620002036000830184620001db565b92915050565b614d7680620002196000396000f3fe608060405234801561001057600080fd5b50600436106101da5760003560e01c80638285cc5a11610104578063b7991e33116100a2578063eed2589611610071578063eed2589614610613578063f1664df614610643578063f2fde38b14610673578063fdfe81851461068f576101da565b8063b7991e3314610579578063bbd1783a146105a9578063caac49a7146105b3578063e34208e6146105e3576101da565b8063998da3e9116100de578063998da3e9146104cd5780639f75e5c9146104e9578063a521dc9514610519578063a65d31b914610549576101da565b80638285cc5a1461044f5780638da5cb5b1461047f5780638e0e3fcd1461049d576101da565b806348b2e35c1161017c5780635dc9dbe81161014b5780635dc9dbe8146103c757806361ab0c89146103e557806368525a4e14610415578063715018a614610445576101da565b806348b2e35c1461030757806349a0a1f6146103375780634e00b9d31461036757806359103c1214610397576101da565b806322bd49a8116101b857806322bd49a81461025b578063283b7f28146102775780632f877497146102a75780633c73b4c4146102d7576101da565b80630c746a8a146101df57806314eb76ac1461020f57806317ba3b7d1461022b575b600080fd5b6101f960048036038101906101f491906136c9565b6106bf565b6040516102069190613747565b60405180910390f35b610229600480360381019061022491906137c0565b61076b565b005b610245600480360381019061024091906137ed565b6107b7565b60405161025291906139a3565b60405180910390f35b610275600480360381019061027091906137c0565b6109b2565b005b610291600480360381019061028c91906139c5565b6109fe565b60405161029e9190613aa1565b60405180910390f35b6102c160048036038101906102bc91906139c5565b610b2c565b6040516102ce9190613c64565b60405180910390f35b6102f160048036038101906102ec91906139c5565b610d97565b6040516102fe9190613c95565b60405180910390f35b610321600480360381019061031c91906139c5565b611150565b60405161032e91906139a3565b60405180910390f35b610351600480360381019061034c91906139c5565b611501565b60405161035e9190613c95565b60405180910390f35b610381600480360381019061037c9190613cb0565b61162c565b60405161038e9190613d1b565b60405180910390f35b6103b160048036038101906103ac9190613cb0565b611646565b6040516103be9190613d1b565b60405180910390f35b6103cf6116a3565b6040516103dc9190613d95565b60405180910390f35b6103ff60048036038101906103fa91906139c5565b6116c9565b60405161040c9190613c95565b60405180910390f35b61042f600480360381019061042a91906139c5565b6117f4565b60405161043c9190613c95565b60405180910390f35b61044d61191f565b005b61046960048036038101906104649190613e73565b611933565b6040516104769190613d1b565b60405180910390f35b610487611988565b6040516104949190613ede565b60405180910390f35b6104b760048036038101906104b29190613f1e565b6119b1565b6040516104c49190613c95565b60405180910390f35b6104e760048036038101906104e291906137c0565b611c2d565b005b61050360048036038101906104fe91906139c5565b611cee565b6040516105109190614088565b60405180910390f35b610533600480360381019061052e91906140d6565b61220f565b6040516105409190613c95565b60405180910390f35b610563600480360381019061055e91906139c5565b6122a0565b6040516105709190614253565b60405180910390f35b610593600480360381019061058e91906140d6565b61250b565b6040516105a09190613c95565b60405180910390f35b6105b161259c565b005b6105cd60048036038101906105c891906139c5565b612619565b6040516105da9190614333565b60405180910390f35b6105fd60048036038101906105f89190614355565b6128c7565b60405161060a91906143a4565b60405180910390f35b61062d600480360381019061062891906137ed565b612970565b60405161063a9190614088565b60405180910390f35b61065d600480360381019061065891906139c5565b612b6b565b60405161066a9190613747565b60405180910390f35b61068d600480360381019061068891906137c0565b612d6d565b005b6106a960048036038101906106a491906139c5565b612df3565b6040516106b69190614333565b60405180910390f35b60008060018461ffff16866106d491906143ee565b6106de919061444e565b90506000806106ed8386611646565b90505b801561075e5760018661ffff168484604051602001610710929190614482565b6040516020818303038152906040528051906020012060001c61073391906143ee565b61073d919061444e565b92506107498386611646565b90508180610756906144ab565b9250506106f0565b8293505050509392505050565b610773612f21565b80600160006101000a81548173ffffffffffffffffffffffffffffffffffffffff021916908373ffffffffffffffffffffffffffffffffffffffff16021790555050565b606060006107c484611150565b9050600080825167ffffffffffffffff8111156107e4576107e3613586565b5b60405190808252806020026020018201604052801561081d57816020015b61080a613341565b8152602001906001900390816108025790505b50905060005b83518110156108fa578573ffffffffffffffffffffffffffffffffffffffff16848281518110610856576108556144d5565b5b60200260200101516040015173ffffffffffffffffffffffffffffffffffffffff161480156108a05750838181518110610893576108926144d5565b5b6020026020010151608001515b156108ed578381815181106108b8576108b76144d5565b5b60200260200101518284815181106108d3576108d26144d5565b5b602002602001018190525082806108e990614504565b9350505b8080600101915050610823565b5060008267ffffffffffffffff81111561091757610916613586565b5b60405190808252806020026020018201604052801561095057816020015b61093d613341565b8152602001906001900390816109355790505b50905060005b838110156109a457828181518110610971576109706144d5565b5b602002602001015182828151811061098c5761098b6144d5565b5b60200260200101819052508080600101915050610956565b508094505050505092915050565b6109ba612f21565b80600260006101000a81548173ffffffffffffffffffffffffffffffffffffffff021916908373ffffffffffffffffffffffffffffffffffffffff16021790555050565b60606000600260009054906101000a900473ffffffffffffffffffffffffffffffffffffffff1673ffffffffffffffffffffffffffffffffffffffff16638c65c81f600185610a4d919061454c565b6040518263ffffffff1660e01b8152600401610a699190613c95565b602060405180830381865afa158015610a86573d6000803e3d6000fd5b505050506040513d601f19601f82011682018060405250810190610aaa9190614595565b73ffffffffffffffffffffffffffffffffffffffff16639f8743f76040518163ffffffff1660e01b8152600401600060405180830381865afa158015610af4573d6000803e3d6000fd5b505050506040513d6000823e3d601f19601f82011682018060405250810190610b1d91906148cb565b90508060c00151915050919050565b60606000600260009054906101000a900473ffffffffffffffffffffffffffffffffffffffff1673ffffffffffffffffffffffffffffffffffffffff16638c65c81f600185610b7b919061454c565b6040518263ffffffff1660e01b8152600401610b979190613c95565b602060405180830381865afa158015610bb4573d6000803e3d6000fd5b505050506040513d601f19601f82011682018060405250810190610bd89190614595565b905060008173ffffffffffffffffffffffffffffffffffffffff16639f8743f76040518163ffffffff1660e01b8152600401600060405180830381865afa158015610c27573d6000803e3d6000fd5b505050506040513d6000823e3d601f19601f82011682018060405250810190610c5091906148cb565b9050600081610120015161ffff1667ffffffffffffffff811115610c7757610c76613586565b5b604051908082528060200260200182016040528015610cb057816020015b610c9d6133ae565b815260200190600190039081610c955790505b50905060005b82610120015161ffff16811015610d8b578373ffffffffffffffffffffffffffffffffffffffff16639b7be8fc8461010001518381518110610cfb57610cfa6144d5565b5b60200260200101516040518263ffffffff1660e01b8152600401610d1f9190613c95565b60c060405180830381865afa158015610d3c573d6000803e3d6000fd5b505050506040513d601f19601f82011682018060405250810190610d6091906149c9565b828281518110610d7357610d726144d5565b5b60200260200101819052508080600101915050610cb6565b50809350505050919050565b600080600260009054906101000a900473ffffffffffffffffffffffffffffffffffffffff1673ffffffffffffffffffffffffffffffffffffffff16638c65c81f600185610de5919061454c565b6040518263ffffffff1660e01b8152600401610e019190613c95565b602060405180830381865afa158015610e1e573d6000803e3d6000fd5b505050506040513d601f19601f82011682018060405250810190610e429190614595565b9050600080610e5085611cee565b90506000610e5d86611150565b90506000600667ffffffffffffffff811115610e7c57610e7b613586565b5b604051908082528060200260200182016040528015610eaa5781602001602082028036833780820191505090505b50905060005b83518161ffff161015610fcc57600980811115610ed057610ecf613aef565b5b848261ffff1681518110610ee757610ee66144d5565b5b6020026020010151604001516009811115610f0557610f04613aef565b5b14610fb957600182858361ffff1681518110610f2457610f236144d5565b5b6020026020010151604001516009811115610f4257610f41613aef565b5b81518110610f5357610f526144d5565b5b6020026020010151610f65919061444e565b82858361ffff1681518110610f7d57610f7c6144d5565b5b6020026020010151604001516009811115610f9b57610f9a613aef565b5b81518110610fac57610fab6144d5565b5b6020026020010181815250505b8080610fc4906144ab565b915050610eb0565b5060005b60068161ffff1610156110af576000828261ffff1681518110610ff657610ff56144d5565b5b602002602001015111156110a2578573ffffffffffffffffffffffffffffffffffffffff1663e2e308308261ffff16600981111561103757611036613aef565b5b6040518263ffffffff1660e01b815260040161105391906143a4565b602060405180830381865afa158015611070573d6000803e3d6000fd5b505050506040513d601f19601f8201168201806040525081019061109491906149f6565b8561109f919061444e565b94505b8080600101915050610fd0565b50600082511115611143578473ffffffffffffffffffffffffffffffffffffffff1663e2e3083060066040518263ffffffff1660e01b81526004016110f491906143a4565b602060405180830381865afa158015611111573d6000803e3d6000fd5b505050506040513d601f19601f8201168201806040525081019061113591906149f6565b84611140919061444e565b93505b8395505050505050919050565b60606000600260009054906101000a900473ffffffffffffffffffffffffffffffffffffffff1673ffffffffffffffffffffffffffffffffffffffff16638c65c81f60018561119f919061454c565b6040518263ffffffff1660e01b81526004016111bb9190613c95565b602060405180830381865afa1580156111d8573d6000803e3d6000fd5b505050506040513d601f19601f820116820180604052508101906111fc9190614595565b905060008173ffffffffffffffffffffffffffffffffffffffff16639f8743f76040518163ffffffff1660e01b8152600401600060405180830381865afa15801561124b573d6000803e3d6000fd5b505050506040513d6000823e3d601f19601f8201168201806040525081019061127491906148cb565b9050600081610160015161ffff1667ffffffffffffffff81111561129b5761129a613586565b5b6040519080825280602002602001820160405280156112d457816020015b6112c1613341565b8152602001906001900390816112b95790505b5090506000808473ffffffffffffffffffffffffffffffffffffffff16636a9c3b3160066040518263ffffffff1660e01b815260040161131491906143a4565b602060405180830381865afa158015611331573d6000803e3d6000fd5b505050506040513d601f19601f8201168201806040525081019061135591906149f6565b905060005b84610160015161ffff168161ffff1610156114f35760008673ffffffffffffffffffffffffffffffffffffffff1663dd85ae5f8761014001518461ffff16815181106113a9576113a86144d5565b5b60200260200101516040518263ffffffff1660e01b81526004016113cd9190613c95565b60c060405180830381865afa1580156113ea573d6000803e3d6000fd5b505050506040513d601f19601f8201168201806040525081019061140e9190614ac3565b9050600061142482606001518860c00151611933565b905060008180156114355750600085115b1561143e578490505b6040518060e0016040528084600001518152602001846020015173ffffffffffffffffffffffffffffffffffffffff168152602001846040015173ffffffffffffffffffffffffffffffffffffffff1681526020018460600151815260200183151581526020018460a0015115158152602001828152508787806114c1906144ab565b985061ffff16815181106114d8576114d76144d5565b5b6020026020010181905250505050808060010191505061135a565b508295505050505050919050565b6000600260009054906101000a900473ffffffffffffffffffffffffffffffffffffffff1673ffffffffffffffffffffffffffffffffffffffff16638c65c81f60018461154e919061454c565b6040518263ffffffff1660e01b815260040161156a9190613c95565b602060405180830381865afa158015611587573d6000803e3d6000fd5b505050506040513d601f19601f820116820180604052508101906115ab9190614595565b73ffffffffffffffffffffffffffffffffffffffff1663e2e3083060076040518263ffffffff1660e01b81526004016115e491906143a4565b602060405180830381865afa158015611601573d6000803e3d6000fd5b505050506040513d601f19601f8201168201806040525081019061162591906149f6565b9050919050565b600080151561163b8484611646565b151514905092915050565b600080600090505b8251811015611697578361ffff1683828151811061166f5761166e6144d5565b5b602002602001015161ffff160361168a57600191505061169d565b808060010191505061164e565b50600090505b92915050565b600260009054906101000a900473ffffffffffffffffffffffffffffffffffffffff1681565b6000600260009054906101000a900473ffffffffffffffffffffffffffffffffffffffff1673ffffffffffffffffffffffffffffffffffffffff16638c65c81f600184611716919061454c565b6040518263ffffffff1660e01b81526004016117329190613c95565b602060405180830381865afa15801561174f573d6000803e3d6000fd5b505050506040513d601f19601f820116820180604052508101906117739190614595565b73ffffffffffffffffffffffffffffffffffffffff1663e2e3083060086040518263ffffffff1660e01b81526004016117ac91906143a4565b602060405180830381865afa1580156117c9573d6000803e3d6000fd5b505050506040513d601f19601f820116820180604052508101906117ed91906149f6565b9050919050565b6000600260009054906101000a900473ffffffffffffffffffffffffffffffffffffffff1673ffffffffffffffffffffffffffffffffffffffff16638c65c81f600184611841919061454c565b6040518263ffffffff1660e01b815260040161185d9190613c95565b602060405180830381865afa15801561187a573d6000803e3d6000fd5b505050506040513d601f19601f8201168201806040525081019061189e9190614595565b73ffffffffffffffffffffffffffffffffffffffff1663e2e3083060066040518263ffffffff1660e01b81526004016118d791906143a4565b602060405180830381865afa1580156118f4573d6000803e3d6000fd5b505050506040513d601f19601f8201168201806040525081019061191891906149f6565b9050919050565b611927612f21565b6119316000612fa8565b565b600080600090505b825181101561197c5783838281518110611958576119576144d5565b5b60200260200101510361196f576001915050611982565b808060010191505061193b565b50600090505b92915050565b60008060009054906101000a900473ffffffffffffffffffffffffffffffffffffffff16905090565b60008060098111156119c6576119c5613aef565b5b8260098111156119d9576119d8613aef565b5b1480611a095750600160098111156119f4576119f3613aef565b5b826009811115611a0757611a06613aef565b5b145b80611a38575060026009811115611a2357611a22613aef565b5b826009811115611a3657611a35613aef565b5b145b80611a67575060036009811115611a5257611a51613aef565b5b826009811115611a6557611a64613aef565b5b145b80611a96575060046009811115611a8157611a80613aef565b5b826009811115611a9457611a93613aef565b5b145b80611ac5575060056009811115611ab057611aaf613aef565b5b826009811115611ac357611ac2613aef565b5b145b611b04576040517f08c379a0000000000000000000000000000000000000000000000000000000008152600401611afb90614b4d565b60405180910390fd5b600260009054906101000a900473ffffffffffffffffffffffffffffffffffffffff1673ffffffffffffffffffffffffffffffffffffffff16638c65c81f600185611b4f919061454c565b6040518263ffffffff1660e01b8152600401611b6b9190613c95565b602060405180830381865afa158015611b88573d6000803e3d6000fd5b505050506040513d601f19601f82011682018060405250810190611bac9190614595565b73ffffffffffffffffffffffffffffffffffffffff1663e2e30830836040518263ffffffff1660e01b8152600401611be491906143a4565b602060405180830381865afa158015611c01573d6000803e3d6000fd5b505050506040513d601f19601f82011682018060405250810190611c2591906149f6565b905092915050565b611c35612f21565b60008173ffffffffffffffffffffffffffffffffffffffff166370a08231306040518263ffffffff1660e01b8152600401611c709190613ede565b602060405180830381865afa158015611c8d573d6000803e3d6000fd5b505050506040513d601f19601f82011682018060405250810190611cb191906149f6565b90506000811115611cea57611ce982600160009054906101000a900473ffffffffffffffffffffffffffffffffffffffff168361306c565b5b5050565b60606000600260009054906101000a900473ffffffffffffffffffffffffffffffffffffffff1673ffffffffffffffffffffffffffffffffffffffff16638c65c81f600185611d3d919061454c565b6040518263ffffffff1660e01b8152600401611d599190613c95565b602060405180830381865afa158015611d76573d6000803e3d6000fd5b505050506040513d601f19601f82011682018060405250810190611d9a9190614595565b905060008173ffffffffffffffffffffffffffffffffffffffff16639f8743f76040518163ffffffff1660e01b8152600401600060405180830381865afa158015611de9573d6000803e3d6000fd5b505050506040513d6000823e3d601f19601f82011682018060405250810190611e1291906148cb565b905060008161012001519050600082610120015161ffff1667ffffffffffffffff811115611e4357611e42613586565b5b604051908082528060200260200182016040528015611e7c57816020015b611e69613424565b815260200190600190039081611e615790505b5090506000805b8361ffff168161ffff1610156122015760008673ffffffffffffffffffffffffffffffffffffffff16639b7be8fc8761010001518461ffff1681518110611ecd57611ecc6144d5565b5b60200260200101516040518263ffffffff1660e01b8152600401611ef19190613c95565b60c060405180830381865afa158015611f0e573d6000803e3d6000fd5b505050506040513d601f19601f82011682018060405250810190611f3291906149c9565b905060008773ffffffffffffffffffffffffffffffffffffffff1663598f3b9d83600001516040518263ffffffff1660e01b8152600401611f739190613c95565b600060405180830381865afa158015611f90573d6000803e3d6000fd5b505050506040513d6000823e3d601f19601f82011682018060405250810190611fb99190614b6d565b905060008760a00151600581518110611fd557611fd46144d5565b5b602002602001015161ffff1682600581518110611ff557611ff46144d5565b5b602002602001015161ffff161490506000805b60058161ffff161015612068576000848261ffff168151811061202e5761202d6144d5565b5b60200260200101519050612046818c60a00151611646565b1561205a578280612056906144ab565b9350505b508080600101915050612008565b50600061207582846128c7565b90506000808c73ffffffffffffffffffffffffffffffffffffffff16636a9c3b31846040518263ffffffff1660e01b81526004016120b391906143a4565b602060405180830381865afa1580156120d0573d6000803e3d6000fd5b505050506040513d601f19601f820116820180604052508101906120f491906149f6565b905060098081111561210957612108613aef565b5b83600981111561211c5761211b613aef565b5b1415801561212a5750600081115b15612133578091505b6040518060c0016040528088600001518152602001886020015173ffffffffffffffffffffffffffffffffffffffff16815260200184600981111561217b5761217a613aef565b5b815260200160098081111561219357612192613aef565b5b8560098111156121a6576121a5613aef565b5b141515158152602001886060015115158152602001838152508a8a806121cb906144ab565b9b5061ffff16815181106121e2576121e16144d5565b5b6020026020010181905250505050505050508080600101915050611e83565b508195505050505050919050565b60008060009050600061222286866107b7565b905060005b815181101561229357841515828281518110612246576122456144d5565b5b602002602001015160a001511515036122865781818151811061226c5761226b6144d5565b5b602002602001015160c0015183612283919061444e565b92505b8080600101915050612227565b5081925050509392505050565b60606000600260009054906101000a900473ffffffffffffffffffffffffffffffffffffffff1673ffffffffffffffffffffffffffffffffffffffff16638c65c81f6001856122ef919061454c565b6040518263ffffffff1660e01b815260040161230b9190613c95565b602060405180830381865afa158015612328573d6000803e3d6000fd5b505050506040513d601f19601f8201168201806040525081019061234c9190614595565b905060008173ffffffffffffffffffffffffffffffffffffffff16639f8743f76040518163ffffffff1660e01b8152600401600060405180830381865afa15801561239b573d6000803e3d6000fd5b505050506040513d6000823e3d601f19601f820116820180604052508101906123c491906148cb565b9050600081610160015161ffff1667ffffffffffffffff8111156123eb576123ea613586565b5b60405190808252806020026020018201604052801561242457816020015b612411613486565b8152602001906001900390816124095790505b50905060005b82610160015161ffff168110156124ff578373ffffffffffffffffffffffffffffffffffffffff1663dd85ae5f846101000151838151811061246f5761246e6144d5565b5b60200260200101516040518263ffffffff1660e01b81526004016124939190613c95565b60c060405180830381865afa1580156124b0573d6000803e3d6000fd5b505050506040513d601f19601f820116820180604052508101906124d49190614ac3565b8282815181106124e7576124e66144d5565b5b6020026020010181905250808060010191505061242a565b50809350505050919050565b60008060009050600061251e8686612970565b905060005b815181101561258f57841515828281518110612542576125416144d5565b5b60200260200101516080015115150361258257818181518110612568576125676144d5565b5b602002602001015160a001518361257f919061444e565b92505b8080600101915050612523565b5081925050509392505050565b6125a4612f21565b600047111561261757600160009054906101000a900473ffffffffffffffffffffffffffffffffffffffff1673ffffffffffffffffffffffffffffffffffffffff166108fc479081150290604051600060405180830381858888f19350505050158015612615573d6000803e3d6000fd5b505b565b60606000600260009054906101000a900473ffffffffffffffffffffffffffffffffffffffff1673ffffffffffffffffffffffffffffffffffffffff16638c65c81f600185612668919061454c565b6040518263ffffffff1660e01b81526004016126849190613c95565b602060405180830381865afa1580156126a1573d6000803e3d6000fd5b505050506040513d601f19601f820116820180604052508101906126c59190614595565b905060008173ffffffffffffffffffffffffffffffffffffffff16639f8743f76040518163ffffffff1660e01b8152600401600060405180830381865afa158015612714573d6000803e3d6000fd5b505050506040513d6000823e3d601f19601f8201168201806040525081019061273d91906148cb565b9050600060068261012001516127539190614bb6565b61ffff1667ffffffffffffffff8111156127705761276f613586565b5b60405190808252806020026020018201604052801561279e5781602001602082028036833780820191505090505b50905060005b82610120015161ffff168110156128bb5760008473ffffffffffffffffffffffffffffffffffffffff1663598f3b9d836040518263ffffffff1660e01b81526004016127f09190613c95565b600060405180830381865afa15801561280d573d6000803e3d6000fd5b505050506040513d6000823e3d601f19601f820116820180604052508101906128369190614b6d565b905060005b81518110156128ac57818181518110612857576128566144d5565b5b6020026020010151848260068661286e9190614bf3565b612878919061444e565b81518110612889576128886144d5565b5b602002602001019061ffff16908161ffff1681525050808060010191505061283b565b505080806001019150506127a4565b50809350505050919050565b600060058361ffff161480156128da5750815b156128e8576000905061296a565b60058361ffff16036128fd576001905061296a565b60048361ffff1614801561290e5750815b1561291c576002905061296a565b60048361ffff1603612931576003905061296a565b60038361ffff161480156129425750815b15612950576004905061296a565b60038361ffff1603612965576005905061296a565b600990505b92915050565b6060600061297d84611cee565b9050600080825167ffffffffffffffff81111561299d5761299c613586565b5b6040519080825280602002602001820160405280156129d657816020015b6129c3613424565b8152602001906001900390816129bb5790505b50905060005b8351811015612ab3578573ffffffffffffffffffffffffffffffffffffffff16848281518110612a0f57612a0e6144d5565b5b60200260200101516020015173ffffffffffffffffffffffffffffffffffffffff16148015612a595750838181518110612a4c57612a4b6144d5565b5b6020026020010151606001515b15612aa657838181518110612a7157612a706144d5565b5b6020026020010151828481518110612a8c57612a8b6144d5565b5b60200260200101819052508280612aa290614504565b9350505b80806001019150506129dc565b5060008267ffffffffffffffff811115612ad057612acf613586565b5b604051908082528060200260200182016040528015612b0957816020015b612af6613424565b815260200190600190039081612aee5790505b50905060005b83811015612b5d57828181518110612b2a57612b296144d5565b5b6020026020010151828281518110612b4557612b446144d5565b5b60200260200101819052508080600101915050612b0f565b508094505050505092915050565b600080600090506000600260009054906101000a900473ffffffffffffffffffffffffffffffffffffffff1673ffffffffffffffffffffffffffffffffffffffff16638c65c81f600186612bbf919061454c565b6040518263ffffffff1660e01b8152600401612bdb9190613c95565b602060405180830381865afa158015612bf8573d6000803e3d6000fd5b505050506040513d601f19601f82011682018060405250810190612c1c9190614595565b73ffffffffffffffffffffffffffffffffffffffff16639f8743f76040518163ffffffff1660e01b8152600401600060405180830381865afa158015612c66573d6000803e3d6000fd5b505050506040513d6000823e3d601f19601f82011682018060405250810190612c8f91906148cb565b61016001519050600260009054906101000a900473ffffffffffffffffffffffffffffffffffffffff1673ffffffffffffffffffffffffffffffffffffffff1663f4dec22b6040518163ffffffff1660e01b8152600401602060405180830381865afa158015612d03573d6000803e3d6000fd5b505050506040513d601f19601f82011682018060405250810190612d279190614c35565b61ffff168161ffff1681612d3e57612d3d6143bf565b5b04915060008261ffff16148015612d59575060008161ffff16115b15612d6357600191505b8192505050919050565b612d75612f21565b600073ffffffffffffffffffffffffffffffffffffffff168173ffffffffffffffffffffffffffffffffffffffff1603612de75760006040517f1e4fbdf7000000000000000000000000000000000000000000000000000000008152600401612dde9190613ede565b60405180910390fd5b612df081612fa8565b50565b60606000600260009054906101000a900473ffffffffffffffffffffffffffffffffffffffff1673ffffffffffffffffffffffffffffffffffffffff16638c65c81f600185612e42919061454c565b6040518263ffffffff1660e01b8152600401612e5e9190613c95565b602060405180830381865afa158015612e7b573d6000803e3d6000fd5b505050506040513d601f19601f82011682018060405250810190612e9f9190614595565b73ffffffffffffffffffffffffffffffffffffffff16639f8743f76040518163ffffffff1660e01b8152600401600060405180830381865afa158015612ee9573d6000803e3d6000fd5b505050506040513d6000823e3d601f19601f82011682018060405250810190612f1291906148cb565b90508060a00151915050919050565b612f296130eb565b73ffffffffffffffffffffffffffffffffffffffff16612f47611988565b73ffffffffffffffffffffffffffffffffffffffff1614612fa657612f6a6130eb565b6040517f118cdaa7000000000000000000000000000000000000000000000000000000008152600401612f9d9190613ede565b60405180910390fd5b565b60008060009054906101000a900473ffffffffffffffffffffffffffffffffffffffff169050816000806101000a81548173ffffffffffffffffffffffffffffffffffffffff021916908373ffffffffffffffffffffffffffffffffffffffff1602179055508173ffffffffffffffffffffffffffffffffffffffff168173ffffffffffffffffffffffffffffffffffffffff167f8be0079c531659141344cd1fd0a4f28419497f9722a3daafe3b4186f6b6457e060405160405180910390a35050565b6130e6838473ffffffffffffffffffffffffffffffffffffffff1663a9059cbb858560405160240161309f929190614c62565b604051602081830303815290604052915060e01b6020820180517bffffffffffffffffffffffffffffffffffffffffffffffffffffffff83818316178352505050506130f3565b505050565b600033905090565b600061311e828473ffffffffffffffffffffffffffffffffffffffff1661318a90919063ffffffff16565b905060008151141580156131435750808060200190518101906131419190614c8b565b155b1561318557826040517f5274afe700000000000000000000000000000000000000000000000000000000815260040161317c9190613ede565b60405180910390fd5b505050565b6060613198838360006131a0565b905092915050565b6060814710156131e757306040517fcd7860590000000000000000000000000000000000000000000000000000000081526004016131de9190613ede565b60405180910390fd5b6000808573ffffffffffffffffffffffffffffffffffffffff1684866040516132109190614d29565b60006040518083038185875af1925050503d806000811461324d576040519150601f19603f3d011682016040523d82523d6000602084013e613252565b606091505b509150915061326286838361326d565b925050509392505050565b6060826132825761327d826132fc565b6132f4565b600082511480156132aa575060008473ffffffffffffffffffffffffffffffffffffffff163b145b156132ec57836040517f9996b3150000000000000000000000000000000000000000000000000000000081526004016132e39190613ede565b60405180910390fd5b8190506132f5565b5b9392505050565b60008151111561330f5780518082602001fd5b6040517f1425ea4200000000000000000000000000000000000000000000000000000000815260040160405180910390fd5b6040518060e0016040528060008152602001600073ffffffffffffffffffffffffffffffffffffffff168152602001600073ffffffffffffffffffffffffffffffffffffffff16815260200160008152602001600015158152602001600015158152602001600081525090565b6040518060c0016040528060008152602001600073ffffffffffffffffffffffffffffffffffffffff168152602001600073ffffffffffffffffffffffffffffffffffffffff168152602001600015158152602001600081526020016000600981111561341e5761341d613aef565b5b81525090565b6040518060c0016040528060008152602001600073ffffffffffffffffffffffffffffffffffffffff1681526020016000600981111561346757613466613aef565b5b8152602001600015158152602001600015158152602001600081525090565b6040518060c0016040528060008152602001600073ffffffffffffffffffffffffffffffffffffffff168152602001600073ffffffffffffffffffffffffffffffffffffffff168152602001600081526020016000151581526020016000151581525090565b6000604051905090565b600080fd5b600080fd5b6000819050919050565b61351381613500565b811461351e57600080fd5b50565b6000813590506135308161350a565b92915050565b600061ffff82169050919050565b61354d81613536565b811461355857600080fd5b50565b60008135905061356a81613544565b92915050565b600080fd5b6000601f19601f8301169050919050565b7f4e487b7100000000000000000000000000000000000000000000000000000000600052604160045260246000fd5b6135be82613575565b810181811067ffffffffffffffff821117156135dd576135dc613586565b5b80604052505050565b60006135f06134ec565b90506135fc82826135b5565b919050565b600067ffffffffffffffff82111561361c5761361b613586565b5b602082029050602081019050919050565b600080fd5b600061364561364084613601565b6135e6565b905080838252602082019050602084028301858111156136685761366761362d565b5b835b81811015613691578061367d888261355b565b84526020840193505060208101905061366a565b5050509392505050565b600082601f8301126136b0576136af613570565b5b81356136c0848260208601613632565b91505092915050565b6000806000606084860312156136e2576136e16134f6565b5b60006136f086828701613521565b93505060206137018682870161355b565b925050604084013567ffffffffffffffff811115613722576137216134fb565b5b61372e8682870161369b565b9150509250925092565b61374181613536565b82525050565b600060208201905061375c6000830184613738565b92915050565b600073ffffffffffffffffffffffffffffffffffffffff82169050919050565b600061378d82613762565b9050919050565b61379d81613782565b81146137a857600080fd5b50565b6000813590506137ba81613794565b92915050565b6000602082840312156137d6576137d56134f6565b5b60006137e4848285016137ab565b91505092915050565b60008060408385031215613804576138036134f6565b5b600061381285828601613521565b9250506020613823858286016137ab565b9150509250929050565b600081519050919050565b600082825260208201905092915050565b6000819050602082019050919050565b61386281613500565b82525050565b61387181613782565b82525050565b60008115159050919050565b61388c81613877565b82525050565b60e0820160008201516138a86000850182613859565b5060208201516138bb6020850182613868565b5060408201516138ce6040850182613868565b5060608201516138e16060850182613859565b5060808201516138f46080850182613883565b5060a082015161390760a0850182613883565b5060c082015161391a60c0850182613859565b50505050565b600061392c8383613892565b60e08301905092915050565b6000602082019050919050565b60006139508261382d565b61395a8185613838565b935061396583613849565b8060005b8381101561399657815161397d8882613920565b975061398883613938565b925050600181019050613969565b5085935050505092915050565b600060208201905081810360008301526139bd8184613945565b905092915050565b6000602082840312156139db576139da6134f6565b5b60006139e984828501613521565b91505092915050565b600081519050919050565b600082825260208201905092915050565b6000819050602082019050919050565b6000613a2a8383613859565b60208301905092915050565b6000602082019050919050565b6000613a4e826139f2565b613a5881856139fd565b9350613a6383613a0e565b8060005b83811015613a94578151613a7b8882613a1e565b9750613a8683613a36565b925050600181019050613a67565b5085935050505092915050565b60006020820190508181036000830152613abb8184613a43565b905092915050565b600081519050919050565b600082825260208201905092915050565b6000819050602082019050919050565b7f4e487b7100000000000000000000000000000000000000000000000000000000600052602160045260246000fd5b600a8110613b2f57613b2e613aef565b5b50565b6000819050613b4082613b1e565b919050565b6000613b5082613b32565b9050919050565b613b6081613b45565b82525050565b60c082016000820151613b7c6000850182613859565b506020820151613b8f6020850182613868565b506040820151613ba26040850182613868565b506060820151613bb56060850182613883565b506080820151613bc86080850182613859565b5060a0820151613bdb60a0850182613b57565b50505050565b6000613bed8383613b66565b60c08301905092915050565b6000602082019050919050565b6000613c1182613ac3565b613c1b8185613ace565b9350613c2683613adf565b8060005b83811015613c57578151613c3e8882613be1565b9750613c4983613bf9565b925050600181019050613c2a565b5085935050505092915050565b60006020820190508181036000830152613c7e8184613c06565b905092915050565b613c8f81613500565b82525050565b6000602082019050613caa6000830184613c86565b92915050565b60008060408385031215613cc757613cc66134f6565b5b6000613cd58582860161355b565b925050602083013567ffffffffffffffff811115613cf657613cf56134fb565b5b613d028582860161369b565b9150509250929050565b613d1581613877565b82525050565b6000602082019050613d306000830184613d0c565b92915050565b6000819050919050565b6000613d5b613d56613d5184613762565b613d36565b613762565b9050919050565b6000613d6d82613d40565b9050919050565b6000613d7f82613d62565b9050919050565b613d8f81613d74565b82525050565b6000602082019050613daa6000830184613d86565b92915050565b600067ffffffffffffffff821115613dcb57613dca613586565b5b602082029050602081019050919050565b6000613def613dea84613db0565b6135e6565b90508083825260208201905060208402830185811115613e1257613e1161362d565b5b835b81811015613e3b5780613e278882613521565b845260208401935050602081019050613e14565b5050509392505050565b600082601f830112613e5a57613e59613570565b5b8135613e6a848260208601613ddc565b91505092915050565b60008060408385031215613e8a57613e896134f6565b5b6000613e9885828601613521565b925050602083013567ffffffffffffffff811115613eb957613eb86134fb565b5b613ec585828601613e45565b9150509250929050565b613ed881613782565b82525050565b6000602082019050613ef36000830184613ecf565b92915050565b600a8110613f0657600080fd5b50565b600081359050613f1881613ef9565b92915050565b60008060408385031215613f3557613f346134f6565b5b6000613f4385828601613521565b9250506020613f5485828601613f09565b9150509250929050565b600081519050919050565b600082825260208201905092915050565b6000819050602082019050919050565b60c082016000820151613fa06000850182613859565b506020820151613fb36020850182613868565b506040820151613fc66040850182613b57565b506060820151613fd96060850182613883565b506080820151613fec6080850182613883565b5060a0820151613fff60a0850182613859565b50505050565b60006140118383613f8a565b60c08301905092915050565b6000602082019050919050565b600061403582613f5e565b61403f8185613f69565b935061404a83613f7a565b8060005b8381101561407b5781516140628882614005565b975061406d8361401d565b92505060018101905061404e565b5085935050505092915050565b600060208201905081810360008301526140a2818461402a565b905092915050565b6140b381613877565b81146140be57600080fd5b50565b6000813590506140d0816140aa565b92915050565b6000806000606084860312156140ef576140ee6134f6565b5b60006140fd86828701613521565b935050602061410e868287016137ab565b925050604061411f868287016140c1565b9150509250925092565b600081519050919050565b600082825260208201905092915050565b6000819050602082019050919050565b60c08201600082015161416b6000850182613859565b50602082015161417e6020850182613868565b5060408201516141916040850182613868565b5060608201516141a46060850182613859565b5060808201516141b76080850182613883565b5060a08201516141ca60a0850182613883565b50505050565b60006141dc8383614155565b60c08301905092915050565b6000602082019050919050565b600061420082614129565b61420a8185614134565b935061421583614145565b8060005b8381101561424657815161422d88826141d0565b9750614238836141e8565b925050600181019050614219565b5085935050505092915050565b6000602082019050818103600083015261426d81846141f5565b905092915050565b600081519050919050565b600082825260208201905092915050565b6000819050602082019050919050565b6142aa81613536565b82525050565b60006142bc83836142a1565b60208301905092915050565b6000602082019050919050565b60006142e082614275565b6142ea8185614280565b93506142f583614291565b8060005b8381101561432657815161430d88826142b0565b9750614318836142c8565b9250506001810190506142f9565b5085935050505092915050565b6000602082019050818103600083015261434d81846142d5565b905092915050565b6000806040838503121561436c5761436b6134f6565b5b600061437a8582860161355b565b925050602061438b858286016140c1565b9150509250929050565b61439e81613b45565b82525050565b60006020820190506143b96000830184614395565b92915050565b7f4e487b7100000000000000000000000000000000000000000000000000000000600052601260045260246000fd5b60006143f982613500565b915061440483613500565b925082614414576144136143bf565b5b828206905092915050565b7f4e487b7100000000000000000000000000000000000000000000000000000000600052601160045260246000fd5b600061445982613500565b915061446483613500565b925082820190508082111561447c5761447b61441f565b5b92915050565b60006040820190506144976000830185613738565b6144a46020830184613738565b9392505050565b60006144b682613536565b915061ffff82036144ca576144c961441f565b5b600182019050919050565b7f4e487b7100000000000000000000000000000000000000000000000000000000600052603260045260246000fd5b600061450f82613500565b91507fffffffffffffffffffffffffffffffffffffffffffffffffffffffffffffffff82036145415761454061441f565b5b600182019050919050565b600061455782613500565b915061456283613500565b925082820390508181111561457a5761457961441f565b5b92915050565b60008151905061458f81613794565b92915050565b6000602082840312156145ab576145aa6134f6565b5b60006145b984828501614580565b91505092915050565b600080fd5b600080fd5b6000815190506145db8161350a565b92915050565b6000815190506145f0816140aa565b92915050565b60008151905061460581613544565b92915050565b600061461e61461984613601565b6135e6565b905080838252602082019050602084028301858111156146415761464061362d565b5b835b8181101561466a578061465688826145f6565b845260208401935050602081019050614643565b5050509392505050565b600082601f83011261468957614688613570565b5b815161469984826020860161460b565b91505092915050565b60006146b56146b084613db0565b6135e6565b905080838252602082019050602084028301858111156146d8576146d761362d565b5b835b8181101561470157806146ed88826145cc565b8452602084019350506020810190506146da565b5050509392505050565b600082601f8301126147205761471f613570565b5b81516147308482602086016146a2565b91505092915050565b600061018082840312156147505761474f6145c2565b5b61475b6101806135e6565b9050600061476b848285016145cc565b600083015250602061477f848285016145cc565b6020830152506040614793848285016145cc565b60408301525060606147a7848285016145cc565b60608301525060806147bb848285016145e1565b60808301525060a082015167ffffffffffffffff8111156147df576147de6145c7565b5b6147eb84828501614674565b60a08301525060c082015167ffffffffffffffff81111561480f5761480e6145c7565b5b61481b8482850161470b565b60c08301525060e061482f848285016145f6565b60e08301525061010082015167ffffffffffffffff811115614854576148536145c7565b5b6148608482850161470b565b61010083015250610120614876848285016145f6565b6101208301525061014082015167ffffffffffffffff81111561489c5761489b6145c7565b5b6148a88482850161470b565b610140830152506101606148be848285016145f6565b6101608301525092915050565b6000602082840312156148e1576148e06134f6565b5b600082015167ffffffffffffffff8111156148ff576148fe6134fb565b5b61490b84828501614739565b91505092915050565b60008151905061492381613ef9565b92915050565b600060c0828403121561493f5761493e6145c2565b5b61494960c06135e6565b90506000614959848285016145cc565b600083015250602061496d84828501614580565b602083015250604061498184828501614580565b6040830152506060614995848285016145e1565b60608301525060806149a9848285016145cc565b60808301525060a06149bd84828501614914565b60a08301525092915050565b600060c082840312156149df576149de6134f6565b5b60006149ed84828501614929565b91505092915050565b600060208284031215614a0c57614a0b6134f6565b5b6000614a1a848285016145cc565b91505092915050565b600060c08284031215614a3957614a386145c2565b5b614a4360c06135e6565b90506000614a53848285016145cc565b6000830152506020614a6784828501614580565b6020830152506040614a7b84828501614580565b6040830152506060614a8f848285016145cc565b6060830152506080614aa3848285016145e1565b60808301525060a0614ab7848285016145e1565b60a08301525092915050565b600060c08284031215614ad957614ad86134f6565b5b6000614ae784828501614a23565b91505092915050565b600082825260208201905092915050565b7f496e76616c696420766963746f72792074696572000000000000000000000000600082015250565b6000614b37601483614af0565b9150614b4282614b01565b602082019050919050565b60006020820190508181036000830152614b6681614b2a565b9050919050565b600060208284031215614b8357614b826134f6565b5b600082015167ffffffffffffffff811115614ba157614ba06134fb565b5b614bad84828501614674565b91505092915050565b6000614bc182613536565b9150614bcc83613536565b9250828202614bda81613536565b9150808214614bec57614beb61441f565b5b5092915050565b6000614bfe82613500565b9150614c0983613500565b9250828202614c1781613500565b91508282048414831517614c2e57614c2d61441f565b5b5092915050565b600060208284031215614c4b57614c4a6134f6565b5b6000614c59848285016145f6565b91505092915050565b6000604082019050614c776000830185613ecf565b614c846020830184613c86565b9392505050565b600060208284031215614ca157614ca06134f6565b5b6000614caf848285016145e1565b91505092915050565b600081519050919050565b600081905092915050565b60005b83811015614cec578082015181840152602081019050614cd1565b60008484015250505050565b6000614d0382614cb8565b614d0d8185614cc3565b9350614d1d818560208601614cce565b80840191505092915050565b6000614d358284614cf8565b91508190509291505056fea2646970667358221220ae21597a06cb518a5e626b22bca55f745ea557a8e3dcf43bb5b6f2847aec6dba64736f6c63430008180033",
  "devdoc": {
    "errors": {
      "AddressEmptyCode(address)": [
        {
          "details": "There's no code at `target` (it is not a contract)."
        }
      ],
      "AddressInsufficientBalance(address)": [
        {
          "details": "The ETH balance of the account is not enough to perform the operation."
        }
      ],
      "FailedInnerCall()": [
        {
          "details": "A call to an address target failed. The target may have reverted."
        }
      ],
      "OwnableInvalidOwner(address)": [
        {
          "details": "The owner is not a valid owner account. (eg. `address(0)`)"
        }
      ],
      "OwnableUnauthorizedAccount(address)": [
        {
          "details": "The caller account is not authorized to perform an operation."
        }
      ],
      "SafeERC20FailedOperation(address)": [
        {
          "details": "An operation with an ERC20 token failed."
        }
      ]
    },
    "kind": "dev",
    "methods": {
      "owner()": {
        "details": "Returns the address of the current owner."
      },
      "renounceOwnership()": {
        "details": "Leaves the contract without owner. It will not be possible to call `onlyOwner` functions. Can only be called by the current owner. NOTE: Renouncing ownership will leave the contract without an owner, thereby disabling any functionality that is only available to the owner."
      },
      "transferOwnership(address)": {
        "details": "Transfers ownership of the contract to a new account (`newOwner`). Can only be called by the current owner."
      }
    },
    "version": 1
  },
  "userdoc": {
    "kind": "user",
    "methods": {},
    "version": 1
  },
  "storageLayout": {
    "storage": [
      {
        "astId": 8,
        "contract": "contracts/LotteryReader.sol:LotteryReader",
        "label": "_owner",
        "offset": 0,
        "slot": "0",
        "type": "t_address"
      },
      {
        "astId": 4950,
        "contract": "contracts/LotteryReader.sol:LotteryReader",
        "label": "teamAddress",
        "offset": 0,
        "slot": "1",
        "type": "t_address"
      },
      {
        "astId": 2179,
        "contract": "contracts/LotteryReader.sol:LotteryReader",
        "label": "lotteryMaster",
        "offset": 0,
        "slot": "2",
        "type": "t_contract(LotteryMaster)2119"
      }
    ],
    "types": {
      "t_address": {
        "encoding": "inplace",
        "label": "address",
        "numberOfBytes": "20"
      },
      "t_contract(LotteryMaster)2119": {
        "encoding": "inplace",
        "label": "contract LotteryMaster",
        "numberOfBytes": "20"
      }
    }
  }
}