{
  "address": "0xC631A6e6074bb70f3159940679b1261e76A3CAc2",
  "abi": [
    {
      "inputs": [
        {
          "internalType": "address",
          "name": "cyclixRandomizer",
          "type": "address"
        },
        {
          "internalType": "address",
          "name": "lotteryReader",
          "type": "address"
        },
        {
          "internalType": "address",
          "name": "_paymentToken",
          "type": "address"
        },
        {
          "internalType": "uint256",
          "name": "_ticketPrice",
          "type": "uint256"
        }
      ],
      "stateMutability": "nonpayable",
      "type": "constructor"
    },
    {
      "inputs": [
        {
          "internalType": "address",
          "name": "target",
          "type": "address"
        }
      ],
      "name": "AddressEmptyCode",
      "type": "error"
    },
    {
      "inputs": [
        {
          "internalType": "address",
          "name": "account",
          "type": "address"
        }
      ],
      "name": "AddressInsufficientBalance",
      "type": "error"
    },
    {
      "inputs": [],
      "name": "FailedInnerCall",
      "type": "error"
    },
    {
      "inputs": [
        {
          "internalType": "address",
          "name": "owner",
          "type": "address"
        }
      ],
      "name": "OwnableInvalidOwner",
      "type": "error"
    },
    {
      "inputs": [
        {
          "internalType": "address",
          "name": "account",
          "type": "address"
        }
      ],
      "name": "OwnableUnauthorizedAccount",
      "type": "error"
    },
    {
      "inputs": [
        {
          "internalType": "address",
          "name": "token",
          "type": "address"
        }
      ],
      "name": "SafeERC20FailedOperation",
      "type": "error"
    },
    {
      "anonymous": false,
      "inputs": [
        {
          "indexed": true,
          "internalType": "address",
          "name": "previousOwner",
          "type": "address"
        },
        {
          "indexed": true,
          "internalType": "address",
          "name": "newOwner",
          "type": "address"
        }
      ],
      "name": "OwnershipTransferred",
      "type": "event"
    },
    {
      "inputs": [
        {
          "internalType": "address",
          "name": "wallet",
          "type": "address"
        }
      ],
      "name": "addBankWallet",
      "outputs": [],
      "stateMutability": "nonpayable",
      "type": "function"
    },
    {
      "inputs": [
        {
          "internalType": "address[]",
          "name": "participant",
          "type": "address[]"
        }
      ],
      "name": "addFreeRound",
      "outputs": [],
      "stateMutability": "nonpayable",
      "type": "function"
    },
    {
      "inputs": [
        {
          "internalType": "uint256",
          "name": "",
          "type": "uint256"
        }
      ],
      "name": "bankWallets",
      "outputs": [
        {
          "internalType": "address",
          "name": "",
          "type": "address"
        }
      ],
      "stateMutability": "view",
      "type": "function"
    },
    {
      "inputs": [
        {
          "internalType": "uint256",
          "name": "chainId",
          "type": "uint256"
        },
        {
          "internalType": "uint16[]",
          "name": "chosenNumbers",
          "type": "uint16[]"
        },
        {
          "internalType": "uint16",
          "name": "powerNumber",
          "type": "uint16"
        },
        {
          "internalType": "address",
          "name": "referral",
          "type": "address"
        }
      ],
      "name": "buyTicket",
      "outputs": [],
      "stateMutability": "nonpayable",
      "type": "function"
    },
    {
      "inputs": [
        {
          "internalType": "uint256",
          "name": "referralTicketId",
          "type": "uint256"
        }
      ],
      "name": "claimReferralVictory",
      "outputs": [],
      "stateMutability": "nonpayable",
      "type": "function"
    },
    {
      "inputs": [
        {
          "internalType": "uint256",
          "name": "ticketId",
          "type": "uint256"
        }
      ],
      "name": "claimVictory",
      "outputs": [],
      "stateMutability": "nonpayable",
      "type": "function"
    },
    {
      "inputs": [],
      "name": "closeRound",
      "outputs": [],
      "stateMutability": "nonpayable",
      "type": "function"
    },
    {
      "inputs": [],
      "name": "counterForBankWallets",
      "outputs": [
        {
          "internalType": "uint16",
          "name": "",
          "type": "uint16"
        }
      ],
      "stateMutability": "view",
      "type": "function"
    },
    {
      "inputs": [
        {
          "internalType": "uint256",
          "name": "roundId",
          "type": "uint256"
        }
      ],
      "name": "fetchRoundNumbers",
      "outputs": [],
      "stateMutability": "nonpayable",
      "type": "function"
    },
    {
      "inputs": [
        {
          "internalType": "address",
          "name": "",
          "type": "address"
        }
      ],
      "name": "freeRounds",
      "outputs": [
        {
          "internalType": "uint16",
          "name": "",
          "type": "uint16"
        }
      ],
      "stateMutability": "view",
      "type": "function"
    },
    {
      "inputs": [],
      "name": "getCurrentRound",
      "outputs": [
        {
          "internalType": "address",
          "name": "",
          "type": "address"
        }
      ],
      "stateMutability": "view",
      "type": "function"
    },
    {
      "inputs": [
        {
          "internalType": "uint256",
          "name": "roundId",
          "type": "uint256"
        }
      ],
      "name": "markWinners",
      "outputs": [],
      "stateMutability": "nonpayable",
      "type": "function"
    },
    {
      "inputs": [],
      "name": "owner",
      "outputs": [
        {
          "internalType": "address",
          "name": "",
          "type": "address"
        }
      ],
      "stateMutability": "view",
      "type": "function"
    },
    {
      "inputs": [],
      "name": "paymentToken",
      "outputs": [
        {
          "internalType": "contract IERC20Metadata",
          "name": "",
          "type": "address"
        }
      ],
      "stateMutability": "view",
      "type": "function"
    },
    {
      "inputs": [
        {
          "internalType": "uint256",
          "name": "",
          "type": "uint256"
        }
      ],
      "name": "publicRoundRandomNumbersRequestId",
      "outputs": [
        {
          "internalType": "uint256",
          "name": "",
          "type": "uint256"
        }
      ],
      "stateMutability": "view",
      "type": "function"
    },
    {
      "inputs": [],
      "name": "randomizer",
      "outputs": [
        {
          "internalType": "contract CyclixRandomizerInterface",
          "name": "",
          "type": "address"
        }
      ],
      "stateMutability": "view",
      "type": "function"
    },
    {
      "inputs": [],
      "name": "reader",
      "outputs": [
        {
          "internalType": "contract LotteryReaderInterface",
          "name": "",
          "type": "address"
        }
      ],
      "stateMutability": "view",
      "type": "function"
    },
    {
      "inputs": [
        {
          "internalType": "address",
          "name": "wallet",
          "type": "address"
        }
      ],
      "name": "removeBankWallet",
      "outputs": [],
      "stateMutability": "nonpayable",
      "type": "function"
    },
    {
      "inputs": [],
      "name": "renounceOwnership",
      "outputs": [],
      "stateMutability": "nonpayable",
      "type": "function"
    },
    {
      "inputs": [],
      "name": "roundCount",
      "outputs": [
        {
          "internalType": "uint256",
          "name": "",
          "type": "uint256"
        }
      ],
      "stateMutability": "view",
      "type": "function"
    },
    {
      "inputs": [
        {
          "internalType": "uint256",
          "name": "roundId",
          "type": "uint256"
        }
      ],
      "name": "roundForId",
      "outputs": [
        {
          "internalType": "address",
          "name": "",
          "type": "address"
        }
      ],
      "stateMutability": "view",
      "type": "function"
    },
    {
      "inputs": [
        {
          "internalType": "uint256",
          "name": "",
          "type": "uint256"
        }
      ],
      "name": "rounds",
      "outputs": [
        {
          "internalType": "address",
          "name": "",
          "type": "address"
        }
      ],
      "stateMutability": "view",
      "type": "function"
    },
    {
      "inputs": [],
      "name": "sendCryptoToTeam",
      "outputs": [],
      "stateMutability": "nonpayable",
      "type": "function"
    },
    {
      "inputs": [
        {
          "internalType": "address",
          "name": "_token",
          "type": "address"
        }
      ],
      "name": "sendTokenToTeam",
      "outputs": [],
      "stateMutability": "nonpayable",
      "type": "function"
    },
    {
      "inputs": [
        {
          "internalType": "address",
          "name": "_paymentToken",
          "type": "address"
        }
      ],
      "name": "setPaymentToken",
      "outputs": [],
      "stateMutability": "nonpayable",
      "type": "function"
    },
    {
      "inputs": [
        {
          "internalType": "uint256",
          "name": "_ticketPrice",
          "type": "uint256"
        }
      ],
      "name": "setTicketPrice",
      "outputs": [],
      "stateMutability": "nonpayable",
      "type": "function"
    },
    {
      "inputs": [
        {
          "internalType": "address",
          "name": "wallet",
          "type": "address"
        }
      ],
      "name": "setTreasuryWallet",
      "outputs": [],
      "stateMutability": "nonpayable",
      "type": "function"
    },
    {
      "inputs": [
        {
          "internalType": "address",
          "name": "newLotteryRoundAddress",
          "type": "address"
        }
      ],
      "name": "startNewRound",
      "outputs": [],
      "stateMutability": "nonpayable",
      "type": "function"
    },
    {
      "inputs": [],
      "name": "ticketPrice",
      "outputs": [
        {
          "internalType": "uint256",
          "name": "",
          "type": "uint256"
        }
      ],
      "stateMutability": "view",
      "type": "function"
    },
    {
      "inputs": [
        {
          "internalType": "address",
          "name": "newOwner",
          "type": "address"
        }
      ],
      "name": "transferOwnership",
      "outputs": [],
      "stateMutability": "nonpayable",
      "type": "function"
    },
    {
      "inputs": [],
      "name": "treasuryWallets",
      "outputs": [
        {
          "internalType": "address",
          "name": "",
          "type": "address"
        }
      ],
      "stateMutability": "view",
      "type": "function"
    },
    {
      "inputs": [
        {
          "internalType": "address",
          "name": "_teamAddress",
          "type": "address"
        }
      ],
      "name": "updateTeamAddress",
      "outputs": [],
      "stateMutability": "nonpayable",
      "type": "function"
    }
  ],
  "transactionHash": "0x20623517193de229c16e0f41b7f152ffe9080a08d2df2cdfcf75a5922f4bebd6",
  "args": [
    "0x603A50cF183cb4c103A95baDfaF011b749e04966",
    "0xA02A3f7e59152162D5699eD32DCE66D34Ade3B84",
    "0xd6f605b40ba9D2ffB07f192d7eDf4eeB0B21c142",
    10
  ],
  "numDeployments": 2,
  "solcInputHash": "04867362111321919c19caff6a348279",
  "bytecode": "0x60806040523480156200001157600080fd5b5060405162005a3238038062005a32833981810160405281019062000037919062000525565b3380600073ffffffffffffffffffffffffffffffffffffffff168173ffffffffffffffffffffffffffffffffffffffff1603620000ae5760006040517f1e4fbdf7000000000000000000000000000000000000000000000000000000008152600401620000a59190620005a8565b60405180910390fd5b620000bf81620003bc60201b60201c565b5080600160006101000a81548173ffffffffffffffffffffffffffffffffffffffff021916908373ffffffffffffffffffffffffffffffffffffffff1602179055505083600960006101000a81548173ffffffffffffffffffffffffffffffffffffffff021916908373ffffffffffffffffffffffffffffffffffffffff160217905550600960009054906101000a900473ffffffffffffffffffffffffffffffffffffffff1673ffffffffffffffffffffffffffffffffffffffff1663cd0f2311306040518263ffffffff1660e01b8152600401620001a0919062000626565b600060405180830381600087803b158015620001bb57600080fd5b505af1158015620001d0573d6000803e3d6000fd5b5050505082600a60006101000a81548173ffffffffffffffffffffffffffffffffffffffff021916908373ffffffffffffffffffffffffffffffffffffffff16021790555081600860006101000a81548173ffffffffffffffffffffffffffffffffffffffff021916908373ffffffffffffffffffffffffffffffffffffffff160217905550600860009054906101000a900473ffffffffffffffffffffffffffffffffffffffff1673ffffffffffffffffffffffffffffffffffffffff1663313ce5676040518163ffffffff1660e01b8152600401602060405180830381865afa158015620002c4573d6000803e3d6000fd5b505050506040513d601f19601f82011682018060405250810190620002ea919062000696565b60ff16600a620002fb91906200084b565b816200030891906200089c565b600b8190555033600760006101000a81548173ffffffffffffffffffffffffffffffffffffffff021916908373ffffffffffffffffffffffffffffffffffffffff1602179055506006339080600181540180825580915050600190039060005260206000200160009091909190916101000a81548173ffffffffffffffffffffffffffffffffffffffff021916908373ffffffffffffffffffffffffffffffffffffffff16021790555050505050620008e7565b60008060009054906101000a900473ffffffffffffffffffffffffffffffffffffffff169050816000806101000a81548173ffffffffffffffffffffffffffffffffffffffff021916908373ffffffffffffffffffffffffffffffffffffffff1602179055508173ffffffffffffffffffffffffffffffffffffffff168173ffffffffffffffffffffffffffffffffffffffff167f8be0079c531659141344cd1fd0a4f28419497f9722a3daafe3b4186f6b6457e060405160405180910390a35050565b600080fd5b600073ffffffffffffffffffffffffffffffffffffffff82169050919050565b6000620004b28262000485565b9050919050565b620004c481620004a5565b8114620004d057600080fd5b50565b600081519050620004e481620004b9565b92915050565b6000819050919050565b620004ff81620004ea565b81146200050b57600080fd5b50565b6000815190506200051f81620004f4565b92915050565b6000806000806080858703121562000542576200054162000480565b5b60006200055287828801620004d3565b94505060206200056587828801620004d3565b93505060406200057887828801620004d3565b92505060606200058b878288016200050e565b91505092959194509250565b620005a281620004a5565b82525050565b6000602082019050620005bf600083018462000597565b92915050565b600082825260208201905092915050565b7f4c6f74746572794d617374657256302e31000000000000000000000000000000600082015250565b60006200060e601183620005c5565b91506200061b82620005d6565b602082019050919050565b60006040820190506200063d600083018462000597565b81810360208301526200065081620005ff565b905092915050565b600060ff82169050919050565b620006708162000658565b81146200067c57600080fd5b50565b600081519050620006908162000665565b92915050565b600060208284031215620006af57620006ae62000480565b5b6000620006bf848285016200067f565b91505092915050565b7f4e487b7100000000000000000000000000000000000000000000000000000000600052601160045260246000fd5b60008160011c9050919050565b6000808291508390505b600185111562000756578086048111156200072e576200072d620006c8565b5b60018516156200073e5780820291505b80810290506200074e85620006f7565b94506200070e565b94509492505050565b60008262000771576001905062000844565b8162000781576000905062000844565b81600181146200079a5760028114620007a557620007db565b600191505062000844565b60ff841115620007ba57620007b9620006c8565b5b8360020a915084821115620007d457620007d3620006c8565b5b5062000844565b5060208310610133831016604e8410600b8410161715620008155782820a9050838111156200080f576200080e620006c8565b5b62000844565b62000824848484600162000704565b925090508184048111156200083e576200083d620006c8565b5b81810290505b9392505050565b60006200085882620004ea565b91506200086583620004ea565b9250620008947fffffffffffffffffffffffffffffffffffffffffffffffffffffffffffffffff84846200075f565b905092915050565b6000620008a982620004ea565b9150620008b683620004ea565b9250828202620008c681620004ea565b91508282048414831517620008e057620008df620006c8565b5b5092915050565b61513b80620008f76000396000f3fe608060405234801561001057600080fd5b50600436106101f05760003560e01c806392566fdd1161010f578063bbd1783a116100a2578063e278fe6f11610071578063e278fe6f14610541578063f10fb5841461054b578063f2fde38b14610569578063fd12e8cc14610585576101f0565b8063bbd1783a146104cd578063cedd1bc3146104d7578063d4fc42c614610507578063dc41848514610525576101f0565b8063a8602fea116100de578063a8602fea1461045d578063b086f3c014610479578063b33d8c5414610495578063ba968494146104b1576101f0565b806392566fdd146103e9578063998da3e914610407578063a32bf59714610423578063a628f4fd14610441576101f0565b8063266fbf90116101875780636a326ab1116101565780636a326ab114610375578063715018a6146103915780638c65c81f1461039b5780638da5cb5b146103cb576101f0565b8063266fbf90146103035780633013ce291461031f57806339c834e91461033d5780634ff776b814610359576101f0565b806315981650116101c3578063159816501461026b5780631f9f168e146102875780631fcebf68146102a3578063258799f8146102d3576101f0565b8063104dc360146101f55780631209b1f614610213578063127f0b3f1461023157806314eb76ac1461024f575b600080fd5b6101fd6105b5565b60405161020a9190613458565b60405180910390f35b61021b6105db565b604051610228919061348c565b60405180910390f35b6102396105e1565b604051610246919061348c565b60405180910390f35b610269600480360381019061026491906134e7565b6105e7565b005b61028560048036038101906102809190613540565b610633565b005b6102a1600480360381019061029c91906134e7565b610645565b005b6102bd60048036038101906102b891906134e7565b610900565b6040516102ca919061358a565b60405180910390f35b6102ed60048036038101906102e89190613540565b610921565b6040516102fa9190613458565b60405180910390f35b61031d6004803603810190610318919061372a565b610960565b005b610327610f54565b604051610334919061380c565b60405180910390f35b610357600480360381019061035291906134e7565b610f7a565b005b610373600480360381019061036e9190613540565b611108565b005b61038f600480360381019061038a91906134e7565b61183a565b005b610399611886565b005b6103b560048036038101906103b09190613540565b61189a565b6040516103c29190613458565b60405180910390f35b6103d36118d9565b6040516103e09190613458565b60405180910390f35b6103f1611902565b6040516103fe919061358a565b60405180910390f35b610421600480360381019061041c91906134e7565b611916565b005b61042b6119d7565b6040516104389190613458565b60405180910390f35b61045b60048036038101906104569190613540565b611a2b565b005b610477600480360381019061047291906134e7565b611c2d565b005b610493600480360381019061048e9190613540565b611c79565b005b6104af60048036038101906104aa9190613882565b612401565b005b6104cb60048036038101906104c691906134e7565b6124c8565b005b6104d5612607565b005b6104f160048036038101906104ec9190613540565b612684565b6040516104fe919061348c565b60405180910390f35b61050f61269c565b60405161051c91906138f0565b60405180910390f35b61053f600480360381019061053a9190613540565b6126c2565b005b610549612c53565b005b610553612e75565b604051610560919061392c565b60405180910390f35b610583600480360381019061057e91906134e7565b612e9b565b005b61059f600480360381019061059a9190613540565b612f21565b6040516105ac9190613458565b60405180910390f35b600760009054906101000a900473ffffffffffffffffffffffffffffffffffffffff1681565b600b5481565b60025481565b6105ef612f75565b80600160006101000a81548173ffffffffffffffffffffffffffffffffffffffff021916908373ffffffffffffffffffffffffffffffffffffffff16021790555050565b61063b612f75565b80600b8190555050565b61064d612f75565b6002600081548092919061066090613976565b91905055506003819080600181540180825580915050600190039060005260206000200160009091909190916101000a81548173ffffffffffffffffffffffffffffffffffffffff021916908373ffffffffffffffffffffffffffffffffffffffff160217905550600160025411156108fd576003600280546106e391906139be565b815481106106f4576106f36139f2565b5b9060005260206000200160009054906101000a900473ffffffffffffffffffffffffffffffffffffffff1673ffffffffffffffffffffffffffffffffffffffff16639f8743f76040518163ffffffff1660e01b8152600401600060405180830381865afa158015610769573d6000803e3d6000fd5b505050506040513d6000823e3d601f19601f820116820180604052508101906107929190613d79565b606001516107d5576040517f08c379a00000000000000000000000000000000000000000000000000000000081526004016107cc90613e1f565b60405180910390fd5b8073ffffffffffffffffffffffffffffffffffffffff1663b288e1a96040518163ffffffff1660e01b8152600401602060405180830381865afa158015610820573d6000803e3d6000fd5b505050506040513d601f19601f820116820180604052508101906108449190613e54565b73ffffffffffffffffffffffffffffffffffffffff1660036002805461086a91906139be565b8154811061087b5761087a6139f2565b5b9060005260206000200160009054906101000a900473ffffffffffffffffffffffffffffffffffffffff1673ffffffffffffffffffffffffffffffffffffffff16146108fc576040517f08c379a00000000000000000000000000000000000000000000000000000000081526004016108f390613ef3565b60405180910390fd5b5b50565b60046020528060005260406000206000915054906101000a900461ffff1681565b6006818154811061093157600080fd5b906000526020600020016000915054906101000a900473ffffffffffffffffffffffffffffffffffffffff1681565b6000600460003273ffffffffffffffffffffffffffffffffffffffff1673ffffffffffffffffffffffffffffffffffffffff16815260200190815260200160002060009054906101000a900461ffff1661ffff161180610a5f5750600b54600860009054906101000a900473ffffffffffffffffffffffffffffffffffffffff1673ffffffffffffffffffffffffffffffffffffffff1663dd62ed3e32306040518363ffffffff1660e01b8152600401610a1b929190613f13565b602060405180830381865afa158015610a38573d6000803e3d6000fd5b505050506040513d601f19601f82011682018060405250810190610a5c9190613f3c565b10155b610a9e576040517f08c379a0000000000000000000000000000000000000000000000000000000008152600401610a9590613fb5565b60405180910390fd5b600060036001600254610ab191906139be565b81548110610ac257610ac16139f2565b5b9060005260206000200160009054906101000a900473ffffffffffffffffffffffffffffffffffffffff1690506000600460003373ffffffffffffffffffffffffffffffffffffffff1673ffffffffffffffffffffffffffffffffffffffff16815260200190815260200160002060009054906101000a900461ffff1661ffff161115610bc657600460003373ffffffffffffffffffffffffffffffffffffffff1673ffffffffffffffffffffffffffffffffffffffff168152602001908152602001600020600081819054906101000a900461ffff1680929190610ba690613fd5565b91906101000a81548161ffff021916908361ffff16021790555050610edc565b600b54600860009054906101000a900473ffffffffffffffffffffffffffffffffffffffff1673ffffffffffffffffffffffffffffffffffffffff166370a08231326040518263ffffffff1660e01b8152600401610c249190613458565b602060405180830381865afa158015610c41573d6000803e3d6000fd5b505050506040513d601f19601f82011682018060405250810190610c659190613f3c565b1015610ca6576040517f08c379a0000000000000000000000000000000000000000000000000000000008152600401610c9d9061404a565b60405180910390fd5b6006805490506005600081819054906101000a900461ffff1680929190610ccc9061406a565b91906101000a81548161ffff021916908361ffff16021790555061ffff16610cf491906140c3565b600560006101000a81548161ffff021916908361ffff16021790555060008173ffffffffffffffffffffffffffffffffffffffff1663af33d08f600b546040518263ffffffff1660e01b8152600401610d4d919061348c565b602060405180830381865afa158015610d6a573d6000803e3d6000fd5b505050506040513d601f19601f82011682018060405250810190610d8e9190613f3c565b9050610e1d600860009054906101000a900473ffffffffffffffffffffffffffffffffffffffff16336006600560009054906101000a900461ffff1661ffff1681548110610ddf57610dde6139f2565b5b9060005260206000200160009054906101000a900473ffffffffffffffffffffffffffffffffffffffff1684600b54610e1891906139be565b612ffc565b610e6d600860009054906101000a900473ffffffffffffffffffffffffffffffffffffffff1633600760009054906101000a900473ffffffffffffffffffffffffffffffffffffffff1684612ffc565b8173ffffffffffffffffffffffffffffffffffffffff1663b56c12b4600b546040518263ffffffff1660e01b8152600401610ea8919061348c565b600060405180830381600087803b158015610ec257600080fd5b505af1158015610ed6573d6000803e3d6000fd5b50505050505b8073ffffffffffffffffffffffffffffffffffffffff1663266fbf90868686866040518563ffffffff1660e01b8152600401610f1b94939291906141b2565b600060405180830381600087803b158015610f3557600080fd5b505af1158015610f49573d6000803e3d6000fd5b505050505050505050565b600860009054906101000a900473ffffffffffffffffffffffffffffffffffffffff1681565b610f82612f75565b60005b600680549050811015611104578173ffffffffffffffffffffffffffffffffffffffff1660068281548110610fbd57610fbc6139f2565b5b9060005260206000200160009054906101000a900473ffffffffffffffffffffffffffffffffffffffff1673ffffffffffffffffffffffffffffffffffffffff16036110f7576006600160068054905061101791906139be565b81548110611028576110276139f2565b5b9060005260206000200160009054906101000a900473ffffffffffffffffffffffffffffffffffffffff1660068281548110611067576110666139f2565b5b9060005260206000200160006101000a81548173ffffffffffffffffffffffffffffffffffffffff021916908373ffffffffffffffffffffffffffffffffffffffff16021790555060068054806110c1576110c06141fe565b5b6001900381819060005260206000200160006101000a81549073ffffffffffffffffffffffffffffffffffffffff021916905590555b8080600101915050610f85565b5050565b60006111126119d7565b905060008173ffffffffffffffffffffffffffffffffffffffff16639b7be8fc846040518263ffffffff1660e01b815260040161114f919061348c565b60e060405180830381865afa15801561116c573d6000803e3d6000fd5b505050506040513d601f19601f820116820180604052508101906111909190614306565b9050828160000151146111d8576040517f08c379a00000000000000000000000000000000000000000000000000000000081526004016111cf9061437f565b60405180910390fd5b3373ffffffffffffffffffffffffffffffffffffffff16816020015173ffffffffffffffffffffffffffffffffffffffff161461124a576040517f08c379a0000000000000000000000000000000000000000000000000000000008152600401611241906143eb565b60405180910390fd5b80606001511561128f576040517f08c379a000000000000000000000000000000000000000000000000000000000815260040161128690614457565b60405180910390fd5b8173ffffffffffffffffffffffffffffffffffffffff16639f8743f76040518163ffffffff1660e01b8152600401600060405180830381865afa1580156112da573d6000803e3d6000fd5b505050506040513d6000823e3d601f19601f820116820180604052508101906113039190613d79565b60600151611346576040517f08c379a000000000000000000000000000000000000000000000000000000000815260040161133d906144c3565b60405180910390fd5b6000600a81111561135a576113596144e3565b5b8160a00151600a811115611371576113706144e3565b5b036113b1576040517f08c379a00000000000000000000000000000000000000000000000000000000081526004016113a89061455e565b60405180910390fd5b600a60009054906101000a900473ffffffffffffffffffffffffffffffffffffffff1673ffffffffffffffffffffffffffffffffffffffff16632aa601708373ffffffffffffffffffffffffffffffffffffffff16639f8743f76040518163ffffffff1660e01b8152600401600060405180830381865afa15801561143a573d6000803e3d6000fd5b505050506040513d6000823e3d601f19601f820116820180604052508101906114639190613d79565b60000151856040518363ffffffff1660e01b815260040161148592919061457e565b6040805180830381865afa1580156114a1573d6000803e3d6000fd5b505050506040513d601f19601f820116820180604052508101906114c591906145f7565b60200151600a8111156114db576114da6144e3565b5b8160a00151600a8111156114f2576114f16144e3565b5b14611532576040517f08c379a000000000000000000000000000000000000000000000000000000000815260040161152990614670565b60405180910390fd5b60008273ffffffffffffffffffffffffffffffffffffffff1663efa3d5318360a001516040518263ffffffff1660e01b815260040161157191906146d8565b602060405180830381865afa15801561158e573d6000803e3d6000fd5b505050506040513d601f19601f820116820180604052508101906115b29190613f3c565b8373ffffffffffffffffffffffffffffffffffffffff1663e2e308308460a001516040518263ffffffff1660e01b81526004016115ef91906146d8565b602060405180830381865afa15801561160c573d6000803e3d6000fd5b505050506040513d601f19601f820116820180604052508101906116309190613f3c565b8161163e5761163d614094565b5b04905080600860009054906101000a900473ffffffffffffffffffffffffffffffffffffffff1673ffffffffffffffffffffffffffffffffffffffff166370a08231306040518263ffffffff1660e01b815260040161169d9190613458565b602060405180830381865afa1580156116ba573d6000803e3d6000fd5b505050506040513d601f19601f820116820180604052508101906116de9190613f3c565b101561171f576040517f08c379a00000000000000000000000000000000000000000000000000000000081526004016117169061473f565b60405180910390fd5b6117276119d7565b73ffffffffffffffffffffffffffffffffffffffff166382e5892385836040518363ffffffff1660e01b815260040161176192919061457e565b600060405180830381600087803b15801561177b57600080fd5b505af115801561178f573d6000803e3d6000fd5b50505050600860009054906101000a900473ffffffffffffffffffffffffffffffffffffffff1673ffffffffffffffffffffffffffffffffffffffff1663a9059cbb33836040518363ffffffff1660e01b81526004016117f092919061475f565b6020604051808303816000875af115801561180f573d6000803e3d6000fd5b505050506040513d601f19601f820116820180604052508101906118339190614788565b5050505050565b611842612f75565b80600860006101000a81548173ffffffffffffffffffffffffffffffffffffffff021916908373ffffffffffffffffffffffffffffffffffffffff16021790555050565b61188e612f75565b611898600061307e565b565b600381815481106118aa57600080fd5b906000526020600020016000915054906101000a900473ffffffffffffffffffffffffffffffffffffffff1681565b60008060009054906101000a900473ffffffffffffffffffffffffffffffffffffffff16905090565b600560009054906101000a900461ffff1681565b61191e612f75565b60008173ffffffffffffffffffffffffffffffffffffffff166370a08231306040518263ffffffff1660e01b81526004016119599190613458565b602060405180830381865afa158015611976573d6000803e3d6000fd5b505050506040513d601f19601f8201168201806040525081019061199a9190613f3c565b905060008111156119d3576119d282600160009054906101000a900473ffffffffffffffffffffffffffffffffffffffff1683613142565b5b5050565b6000600360016002546119ea91906139be565b815481106119fb576119fa6139f2565b5b9060005260206000200160009054906101000a900473ffffffffffffffffffffffffffffffffffffffff16905090565b611a33612f75565b6003600182611a4291906139be565b81548110611a5357611a526139f2565b5b9060005260206000200160009054906101000a900473ffffffffffffffffffffffffffffffffffffffff1673ffffffffffffffffffffffffffffffffffffffff16633590bd3c600a60009054906101000a900473ffffffffffffffffffffffffffffffffffffffff1673ffffffffffffffffffffffffffffffffffffffff1663c099ae19846040518263ffffffff1660e01b8152600401611af4919061348c565b600060405180830381865afa158015611b11573d6000803e3d6000fd5b505050506040513d6000823e3d601f19601f82011682018060405250810190611b3a9190614878565b600a60009054906101000a900473ffffffffffffffffffffffffffffffffffffffff1673ffffffffffffffffffffffffffffffffffffffff1663d856f0d5856040518263ffffffff1660e01b8152600401611b95919061348c565b600060405180830381865afa158015611bb2573d6000803e3d6000fd5b505050506040513d6000823e3d601f19601f82011682018060405250810190611bdb91906149d4565b6040518363ffffffff1660e01b8152600401611bf8929190614c06565b600060405180830381600087803b158015611c1257600080fd5b505af1158015611c26573d6000803e3d6000fd5b5050505050565b611c35612f75565b80600760006101000a81548173ffffffffffffffffffffffffffffffffffffffff021916908373ffffffffffffffffffffffffffffffffffffffff16021790555050565b6000611c836119d7565b905060008173ffffffffffffffffffffffffffffffffffffffff1663dd85ae5f846040518263ffffffff1660e01b8152600401611cc0919061348c565b60a060405180830381865afa158015611cdd573d6000803e3d6000fd5b505050506040513d601f19601f82011682018060405250810190611d019190614cc9565b905082816000015114611d49576040517f08c379a0000000000000000000000000000000000000000000000000000000008152600401611d409061437f565b60405180910390fd5b3373ffffffffffffffffffffffffffffffffffffffff16816020015173ffffffffffffffffffffffffffffffffffffffff1614611dbb576040517f08c379a0000000000000000000000000000000000000000000000000000000008152600401611db2906143eb565b60405180910390fd5b806080015115611e00576040517f08c379a0000000000000000000000000000000000000000000000000000000008152600401611df790614457565b60405180910390fd5b8173ffffffffffffffffffffffffffffffffffffffff16639f8743f76040518163ffffffff1660e01b8152600401600060405180830381865afa158015611e4b573d6000803e3d6000fd5b505050506040513d6000823e3d601f19601f82011682018060405250810190611e749190613d79565b60600151611eb7576040517f08c379a0000000000000000000000000000000000000000000000000000000008152600401611eae906144c3565b60405180910390fd5b600115158160600151151514611f02576040517f08c379a0000000000000000000000000000000000000000000000000000000008152600401611ef99061455e565b60405180910390fd5b600a60009054906101000a900473ffffffffffffffffffffffffffffffffffffffff1673ffffffffffffffffffffffffffffffffffffffff1663078a6dbf8373ffffffffffffffffffffffffffffffffffffffff16639f8743f76040518163ffffffff1660e01b8152600401600060405180830381865afa158015611f8b573d6000803e3d6000fd5b505050506040513d6000823e3d601f19601f82011682018060405250810190611fb49190613d79565b60000151856040518363ffffffff1660e01b8152600401611fd692919061457e565b6040805180830381865afa158015611ff2573d6000803e3d6000fd5b505050506040513d601f19601f820116820180604052508101906120169190614cf6565b6020015115158160600151151514612063576040517f08c379a000000000000000000000000000000000000000000000000000000000815260040161205a90614670565b60405180910390fd5b6000600a60009054906101000a900473ffffffffffffffffffffffffffffffffffffffff1673ffffffffffffffffffffffffffffffffffffffff1663f1664df68473ffffffffffffffffffffffffffffffffffffffff16639f8743f76040518163ffffffff1660e01b8152600401600060405180830381865afa1580156120ee573d6000803e3d6000fd5b505050506040513d6000823e3d601f19601f820116820180604052508101906121179190613d79565b600001516040518263ffffffff1660e01b8152600401612137919061348c565b602060405180830381865afa158015612154573d6000803e3d6000fd5b505050506040513d601f19601f820116820180604052508101906121789190614d23565b61ffff168373ffffffffffffffffffffffffffffffffffffffff1663e2e3083060076040518263ffffffff1660e01b81526004016121b691906146d8565b602060405180830381865afa1580156121d3573d6000803e3d6000fd5b505050506040513d601f19601f820116820180604052508101906121f79190613f3c565b8161220557612204614094565b5b04905080600860009054906101000a900473ffffffffffffffffffffffffffffffffffffffff1673ffffffffffffffffffffffffffffffffffffffff166370a08231306040518263ffffffff1660e01b81526004016122649190613458565b602060405180830381865afa158015612281573d6000803e3d6000fd5b505050506040513d601f19601f820116820180604052508101906122a59190613f3c565b10156122e6576040517f08c379a00000000000000000000000000000000000000000000000000000000081526004016122dd9061473f565b60405180910390fd5b6122ee6119d7565b73ffffffffffffffffffffffffffffffffffffffff16630cee803c85836040518363ffffffff1660e01b815260040161232892919061457e565b600060405180830381600087803b15801561234257600080fd5b505af1158015612356573d6000803e3d6000fd5b50505050600860009054906101000a900473ffffffffffffffffffffffffffffffffffffffff1673ffffffffffffffffffffffffffffffffffffffff1663a9059cbb33836040518363ffffffff1660e01b81526004016123b792919061475f565b6020604051808303816000875af11580156123d6573d6000803e3d6000fd5b505050506040513d601f19601f820116820180604052508101906123fa9190614788565b5050505050565b612409612f75565b60005b828290508110156124c3576004600084848481811061242e5761242d6139f2565b5b905060200201602081019061244391906134e7565b73ffffffffffffffffffffffffffffffffffffffff1673ffffffffffffffffffffffffffffffffffffffff168152602001908152602001600020600081819054906101000a900461ffff168092919061249b9061406a565b91906101000a81548161ffff021916908361ffff16021790555050808060010191505061240c565b505050565b6124d0612f75565b60005b6006805490508110156125a0578173ffffffffffffffffffffffffffffffffffffffff166006828154811061250b5761250a6139f2565b5b9060005260206000200160009054906101000a900473ffffffffffffffffffffffffffffffffffffffff1673ffffffffffffffffffffffffffffffffffffffff1603612593576000612592576040517f08c379a000000000000000000000000000000000000000000000000000000000815260040161258990614d9c565b60405180910390fd5b5b80806001019150506124d3565b506006819080600181540180825580915050600190039060005260206000200160009091909190916101000a81548173ffffffffffffffffffffffffffffffffffffffff021916908373ffffffffffffffffffffffffffffffffffffffff16021790555050565b61260f612f75565b600047111561268257600160009054906101000a900473ffffffffffffffffffffffffffffffffffffffff1673ffffffffffffffffffffffffffffffffffffffff166108fc479081150290604051600060405180830381858888f19350505050158015612680573d6000803e3d6000fd5b505b565b600c6020528060005260406000206000915090505481565b600a60009054906101000a900473ffffffffffffffffffffffffffffffffffffffff1681565b6126ca612f75565b600060036001836126db91906139be565b815481106126ec576126eb6139f2565b5b9060005260206000200160009054906101000a900473ffffffffffffffffffffffffffffffffffffffff1690508073ffffffffffffffffffffffffffffffffffffffff1663343f25666040518163ffffffff1660e01b815260040160006040518083038186803b15801561275f57600080fd5b505afa158015612773573d6000803e3d6000fd5b50505050600080600960009054906101000a900473ffffffffffffffffffffffffffffffffffffffff1673ffffffffffffffffffffffffffffffffffffffff1663d8a4676f600c6000878152602001908152602001600020546040518263ffffffff1660e01b81526004016127e8919061348c565b600060405180830381865afa158015612805573d6000803e3d6000fd5b505050506040513d6000823e3d601f19601f8201168201806040525081019061282e9190614dbc565b9150915081612872576040517f08c379a000000000000000000000000000000000000000000000000000000000815260040161286990614e64565b60405180910390fd5b6000600567ffffffffffffffff81111561288f5761288e6135bb565b5b6040519080825280602002602001820160405280156128bd5781602001602082028036833780820191505090505b509050600080600684516128d191906139be565b67ffffffffffffffff8111156128ea576128e96135bb565b5b6040519080825280602002602001820160405280156129185781602001602082028036833780820191505090505b5090508415612bdb5760005b6005811015612a1e57600a60009054906101000a900473ffffffffffffffffffffffffffffffffffffffff1673ffffffffffffffffffffffffffffffffffffffff16630c746a8a86838151811061297e5761297d6139f2565b5b60200260200101516045876040518463ffffffff1660e01b81526004016129a793929190614ebf565b602060405180830381865afa1580156129c4573d6000803e3d6000fd5b505050506040513d601f19601f820116820180604052508101906129e89190614d23565b8482815181106129fb576129fa6139f2565b5b602002602001019061ffff16908161ffff16815250508080600101915050612924565b506001601a85600581518110612a3757612a366139f2565b5b6020026020010151612a4991906140c3565b612a539190614efd565b91506000600690505b8451811015612bd957600a60009054906101000a900473ffffffffffffffffffffffffffffffffffffffff1673ffffffffffffffffffffffffffffffffffffffff16630c746a8a868381518110612ab657612ab56139f2565b5b60200260200101518973ffffffffffffffffffffffffffffffffffffffff16639f8743f76040518163ffffffff1660e01b8152600401600060405180830381865afa158015612b09573d6000803e3d6000fd5b505050506040513d6000823e3d601f19601f82011682018060405250810190612b329190613d79565b6101600151856040518463ffffffff1660e01b8152600401612b5693929190614f31565b602060405180830381865afa158015612b73573d6000803e3d6000fd5b505050506040513d601f19601f82011682018060405250810190612b979190614d23565b82600683612ba591906139be565b81518110612bb657612bb56139f2565b5b602002602001019061ffff16908161ffff16815250508080600101915050612a5c565b505b8573ffffffffffffffffffffffffffffffffffffffff16636a65bcda8484846040518463ffffffff1660e01b8152600401612c1893929190614f6f565b600060405180830381600087803b158015612c3257600080fd5b505af1158015612c46573d6000803e3d6000fd5b5050505050505050505050565b612c5b612f75565b600060036001600254612c6e91906139be565b81548110612c7f57612c7e6139f2565b5b9060005260206000200160009054906101000a900473ffffffffffffffffffffffffffffffffffffffff1690508073ffffffffffffffffffffffffffffffffffffffff1663e278fe6f6040518163ffffffff1660e01b8152600401600060405180830381600087803b158015612cf457600080fd5b505af1158015612d08573d6000803e3d6000fd5b505050506000600a60009054906101000a900473ffffffffffffffffffffffffffffffffffffffff1673ffffffffffffffffffffffffffffffffffffffff1663f1664df66002546040518263ffffffff1660e01b8152600401612d6b919061348c565b602060405180830381865afa158015612d88573d6000803e3d6000fd5b505050506040513d601f19601f82011682018060405250810190612dac9190614d23565b9050600960009054906101000a900473ffffffffffffffffffffffffffffffffffffffff1673ffffffffffffffffffffffffffffffffffffffff1663e726f2e1826006612df99190614fb4565b6040518263ffffffff1660e01b8152600401612e15919061502b565b6020604051808303816000875af1158015612e34573d6000803e3d6000fd5b505050506040513d601f19601f82011682018060405250810190612e589190613f3c565b600c60006002548152602001908152602001600020819055505050565b600960009054906101000a900473ffffffffffffffffffffffffffffffffffffffff1681565b612ea3612f75565b600073ffffffffffffffffffffffffffffffffffffffff168173ffffffffffffffffffffffffffffffffffffffff1603612f155760006040517f1e4fbdf7000000000000000000000000000000000000000000000000000000008152600401612f0c9190613458565b60405180910390fd5b612f1e8161307e565b50565b60006003600183612f3291906139be565b81548110612f4357612f426139f2565b5b9060005260206000200160009054906101000a900473ffffffffffffffffffffffffffffffffffffffff169050919050565b612f7d6131c1565b73ffffffffffffffffffffffffffffffffffffffff16612f9b6118d9565b73ffffffffffffffffffffffffffffffffffffffff1614612ffa57612fbe6131c1565b6040517f118cdaa7000000000000000000000000000000000000000000000000000000008152600401612ff19190613458565b60405180910390fd5b565b613078848573ffffffffffffffffffffffffffffffffffffffff166323b872dd86868660405160240161303193929190615046565b604051602081830303815290604052915060e01b6020820180517bffffffffffffffffffffffffffffffffffffffffffffffffffffffff83818316178352505050506131c9565b50505050565b60008060009054906101000a900473ffffffffffffffffffffffffffffffffffffffff169050816000806101000a81548173ffffffffffffffffffffffffffffffffffffffff021916908373ffffffffffffffffffffffffffffffffffffffff1602179055508173ffffffffffffffffffffffffffffffffffffffff168173ffffffffffffffffffffffffffffffffffffffff167f8be0079c531659141344cd1fd0a4f28419497f9722a3daafe3b4186f6b6457e060405160405180910390a35050565b6131bc838473ffffffffffffffffffffffffffffffffffffffff1663a9059cbb858560405160240161317592919061475f565b604051602081830303815290604052915060e01b6020820180517bffffffffffffffffffffffffffffffffffffffffffffffffffffffff83818316178352505050506131c9565b505050565b600033905090565b60006131f4828473ffffffffffffffffffffffffffffffffffffffff1661326090919063ffffffff16565b905060008151141580156132195750808060200190518101906132179190614788565b155b1561325b57826040517f5274afe70000000000000000000000000000000000000000000000000000000081526004016132529190613458565b60405180910390fd5b505050565b606061326e83836000613276565b905092915050565b6060814710156132bd57306040517fcd7860590000000000000000000000000000000000000000000000000000000081526004016132b49190613458565b60405180910390fd5b6000808573ffffffffffffffffffffffffffffffffffffffff1684866040516132e691906150ee565b60006040518083038185875af1925050503d8060008114613323576040519150601f19603f3d011682016040523d82523d6000602084013e613328565b606091505b5091509150613338868383613343565b925050509392505050565b60608261335857613353826133d2565b6133ca565b60008251148015613380575060008473ffffffffffffffffffffffffffffffffffffffff163b145b156133c257836040517f9996b3150000000000000000000000000000000000000000000000000000000081526004016133b99190613458565b60405180910390fd5b8190506133cb565b5b9392505050565b6000815111156133e55780518082602001fd5b6040517f1425ea4200000000000000000000000000000000000000000000000000000000815260040160405180910390fd5b600073ffffffffffffffffffffffffffffffffffffffff82169050919050565b600061344282613417565b9050919050565b61345281613437565b82525050565b600060208201905061346d6000830184613449565b92915050565b6000819050919050565b61348681613473565b82525050565b60006020820190506134a1600083018461347d565b92915050565b6000604051905090565b600080fd5b600080fd5b6134c481613437565b81146134cf57600080fd5b50565b6000813590506134e1816134bb565b92915050565b6000602082840312156134fd576134fc6134b1565b5b600061350b848285016134d2565b91505092915050565b61351d81613473565b811461352857600080fd5b50565b60008135905061353a81613514565b92915050565b600060208284031215613556576135556134b1565b5b60006135648482850161352b565b91505092915050565b600061ffff82169050919050565b6135848161356d565b82525050565b600060208201905061359f600083018461357b565b92915050565b600080fd5b6000601f19601f8301169050919050565b7f4e487b7100000000000000000000000000000000000000000000000000000000600052604160045260246000fd5b6135f3826135aa565b810181811067ffffffffffffffff82111715613612576136116135bb565b5b80604052505050565b60006136256134a7565b905061363182826135ea565b919050565b600067ffffffffffffffff821115613651576136506135bb565b5b602082029050602081019050919050565b600080fd5b6136708161356d565b811461367b57600080fd5b50565b60008135905061368d81613667565b92915050565b60006136a66136a184613636565b61361b565b905080838252602082019050602084028301858111156136c9576136c8613662565b5b835b818110156136f257806136de888261367e565b8452602084019350506020810190506136cb565b5050509392505050565b600082601f830112613711576137106135a5565b5b8135613721848260208601613693565b91505092915050565b60008060008060808587031215613744576137436134b1565b5b60006137528782880161352b565b945050602085013567ffffffffffffffff811115613773576137726134b6565b5b61377f878288016136fc565b93505060406137908782880161367e565b92505060606137a1878288016134d2565b91505092959194509250565b6000819050919050565b60006137d26137cd6137c884613417565b6137ad565b613417565b9050919050565b60006137e4826137b7565b9050919050565b60006137f6826137d9565b9050919050565b613806816137eb565b82525050565b600060208201905061382160008301846137fd565b92915050565b600080fd5b60008083601f840112613842576138416135a5565b5b8235905067ffffffffffffffff81111561385f5761385e613827565b5b60208301915083602082028301111561387b5761387a613662565b5b9250929050565b60008060208385031215613899576138986134b1565b5b600083013567ffffffffffffffff8111156138b7576138b66134b6565b5b6138c38582860161382c565b92509250509250929050565b60006138da826137d9565b9050919050565b6138ea816138cf565b82525050565b600060208201905061390560008301846138e1565b92915050565b6000613916826137d9565b9050919050565b6139268161390b565b82525050565b6000602082019050613941600083018461391d565b92915050565b7f4e487b7100000000000000000000000000000000000000000000000000000000600052601160045260246000fd5b600061398182613473565b91507fffffffffffffffffffffffffffffffffffffffffffffffffffffffffffffffff82036139b3576139b2613947565b5b600182019050919050565b60006139c982613473565b91506139d483613473565b92508282039050818111156139ec576139eb613947565b5b92915050565b7f4e487b7100000000000000000000000000000000000000000000000000000000600052603260045260246000fd5b600080fd5b600080fd5b600081519050613a3a81613514565b92915050565b60008115159050919050565b613a5581613a40565b8114613a6057600080fd5b50565b600081519050613a7281613a4c565b92915050565b600081519050613a8781613667565b92915050565b6000613aa0613a9b84613636565b61361b565b90508083825260208201905060208402830185811115613ac357613ac2613662565b5b835b81811015613aec5780613ad88882613a78565b845260208401935050602081019050613ac5565b5050509392505050565b600082601f830112613b0b57613b0a6135a5565b5b8151613b1b848260208601613a8d565b91505092915050565b600067ffffffffffffffff821115613b3f57613b3e6135bb565b5b602082029050602081019050919050565b6000613b63613b5e84613b24565b61361b565b90508083825260208201905060208402830185811115613b8657613b85613662565b5b835b81811015613baf5780613b9b8882613a2b565b845260208401935050602081019050613b88565b5050509392505050565b600082601f830112613bce57613bcd6135a5565b5b8151613bde848260208601613b50565b91505092915050565b60006101808284031215613bfe57613bfd613a21565b5b613c0961018061361b565b90506000613c1984828501613a2b565b6000830152506020613c2d84828501613a2b565b6020830152506040613c4184828501613a2b565b6040830152506060613c5584828501613a63565b606083015250608082015167ffffffffffffffff811115613c7957613c78613a26565b5b613c8584828501613af6565b60808301525060a0613c9984828501613a78565b60a08301525060c082015167ffffffffffffffff811115613cbd57613cbc613a26565b5b613cc984828501613af6565b60c08301525060e0613cdd84828501613a78565b60e08301525061010082015167ffffffffffffffff811115613d0257613d01613a26565b5b613d0e84828501613bb9565b61010083015250610120613d2484828501613a78565b6101208301525061014082015167ffffffffffffffff811115613d4a57613d49613a26565b5b613d5684828501613bb9565b61014083015250610160613d6c84828501613a78565b6101608301525092915050565b600060208284031215613d8f57613d8e6134b1565b5b600082015167ffffffffffffffff811115613dad57613dac6134b6565b5b613db984828501613be7565b91505092915050565b600082825260208201905092915050565b7f50726576696f757320726f756e64206e6f7420656e6465640000000000000000600082015250565b6000613e09601883613dc2565b9150613e1482613dd3565b602082019050919050565b60006020820190508181036000830152613e3881613dfc565b9050919050565b600081519050613e4e816134bb565b92915050565b600060208284031215613e6a57613e696134b1565b5b6000613e7884828501613e3f565b91505092915050565b7f50726576696f757320726f756e64206e6f742070726f7061676174656420636f60008201527f72726563746c7900000000000000000000000000000000000000000000000000602082015250565b6000613edd602783613dc2565b9150613ee882613e81565b604082019050919050565b60006020820190508181036000830152613f0c81613ed0565b9050919050565b6000604082019050613f286000830185613449565b613f356020830184613449565b9392505050565b600060208284031215613f5257613f516134b1565b5b6000613f6084828501613a2b565b91505092915050565b7f4d697373696e6720416c6c6f77616e6365000000000000000000000000000000600082015250565b6000613f9f601183613dc2565b9150613faa82613f69565b602082019050919050565b60006020820190508181036000830152613fce81613f92565b9050919050565b6000613fe08261356d565b915060008203613ff357613ff2613947565b5b600182039050919050565b7f496e73756666696369656e742066756e64730000000000000000000000000000600082015250565b6000614034601283613dc2565b915061403f82613ffe565b602082019050919050565b6000602082019050818103600083015261406381614027565b9050919050565b60006140758261356d565b915061ffff820361408957614088613947565b5b600182019050919050565b7f4e487b7100000000000000000000000000000000000000000000000000000000600052601260045260246000fd5b60006140ce82613473565b91506140d983613473565b9250826140e9576140e8614094565b5b828206905092915050565b600081519050919050565b600082825260208201905092915050565b6000819050602082019050919050565b6141298161356d565b82525050565b600061413b8383614120565b60208301905092915050565b6000602082019050919050565b600061415f826140f4565b61416981856140ff565b935061417483614110565b8060005b838110156141a557815161418c888261412f565b975061419783614147565b925050600181019050614178565b5085935050505092915050565b60006080820190506141c7600083018761347d565b81810360208301526141d98186614154565b90506141e8604083018561357b565b6141f56060830184613449565b95945050505050565b7f4e487b7100000000000000000000000000000000000000000000000000000000600052603160045260246000fd5b600b811061423a57600080fd5b50565b60008151905061424c8161422d565b92915050565b600060e0828403121561426857614267613a21565b5b61427260e061361b565b9050600061428284828501613a2b565b600083015250602061429684828501613e3f565b60208301525060406142aa84828501613e3f565b60408301525060606142be84828501613a63565b60608301525060806142d284828501613a2b565b60808301525060a06142e68482850161423d565b60a08301525060c06142fa84828501613a78565b60c08301525092915050565b600060e0828403121561431c5761431b6134b1565b5b600061432a84828501614252565b91505092915050565b7f496e76616c6964207469636b6574206964000000000000000000000000000000600082015250565b6000614369601183613dc2565b915061437482614333565b602082019050919050565b600060208201905081810360008301526143988161435c565b9050919050565b7f496e76616c6964207469636b6574206f776e6572000000000000000000000000600082015250565b60006143d5601483613dc2565b91506143e08261439f565b602082019050919050565b60006020820190508181036000830152614404816143c8565b9050919050565b7f5469636b657420616c726561647920636c61696d656400000000000000000000600082015250565b6000614441601683613dc2565b915061444c8261440b565b602082019050919050565b6000602082019050818103600083015261447081614434565b9050919050565b7f526f756e64206e6f7420656e6465640000000000000000000000000000000000600082015250565b60006144ad600f83613dc2565b91506144b882614477565b602082019050919050565b600060208201905081810360008301526144dc816144a0565b9050919050565b7f4e487b7100000000000000000000000000000000000000000000000000000000600052602160045260246000fd5b7f4e6f207072697a6520666f722074686973207469636b65740000000000000000600082015250565b6000614548601883613dc2565b915061455382614512565b602082019050919050565b600060208201905081810360008301526145778161453b565b9050919050565b6000604082019050614593600083018561347d565b6145a0602083018461347d565b9392505050565b6000604082840312156145bd576145bc613a21565b5b6145c7604061361b565b905060006145d784828501613a2b565b60008301525060206145eb8482850161423d565b60208301525092915050565b60006040828403121561460d5761460c6134b1565b5b600061461b848285016145a7565b91505092915050565b7f496e76616c6964207469636b6574207469657200000000000000000000000000600082015250565b600061465a601383613dc2565b915061466582614624565b602082019050919050565b600060208201905081810360008301526146898161464d565b9050919050565b600b81106146a1576146a06144e3565b5b50565b60008190506146b282614690565b919050565b60006146c2826146a4565b9050919050565b6146d2816146b7565b82525050565b60006020820190506146ed60008301846146c9565b92915050565b7f4e6f7420656e6f7567682066756e6473206f6e20636f6e747261637400000000600082015250565b6000614729601c83613dc2565b9150614734826146f3565b602082019050919050565b600060208201905081810360008301526147588161471c565b9050919050565b60006040820190506147746000830185613449565b614781602083018461347d565b9392505050565b60006020828403121561479e5761479d6134b1565b5b60006147ac84828501613a63565b91505092915050565b600067ffffffffffffffff8211156147d0576147cf6135bb565b5b602082029050602081019050919050565b60006147f46147ef846147b5565b61361b565b9050808382526020820190506040840283018581111561481757614816613662565b5b835b81811015614840578061482c88826145a7565b845260208401935050604081019050614819565b5050509392505050565b600082601f83011261485f5761485e6135a5565b5b815161486f8482602086016147e1565b91505092915050565b60006020828403121561488e5761488d6134b1565b5b600082015167ffffffffffffffff8111156148ac576148ab6134b6565b5b6148b88482850161484a565b91505092915050565b600067ffffffffffffffff8211156148dc576148db6135bb565b5b602082029050602081019050919050565b60006040828403121561490357614902613a21565b5b61490d604061361b565b9050600061491d84828501613a2b565b600083015250602061493184828501613a63565b60208301525092915050565b600061495061494b846148c1565b61361b565b9050808382526020820190506040840283018581111561497357614972613662565b5b835b8181101561499c578061498888826148ed565b845260208401935050604081019050614975565b5050509392505050565b600082601f8301126149bb576149ba6135a5565b5b81516149cb84826020860161493d565b91505092915050565b6000602082840312156149ea576149e96134b1565b5b600082015167ffffffffffffffff811115614a0857614a076134b6565b5b614a14848285016149a6565b91505092915050565b600081519050919050565b600082825260208201905092915050565b6000819050602082019050919050565b614a5281613473565b82525050565b614a61816146b7565b82525050565b604082016000820151614a7d6000850182614a49565b506020820151614a906020850182614a58565b50505050565b6000614aa28383614a67565b60408301905092915050565b6000602082019050919050565b6000614ac682614a1d565b614ad08185614a28565b9350614adb83614a39565b8060005b83811015614b0c578151614af38882614a96565b9750614afe83614aae565b925050600181019050614adf565b5085935050505092915050565b600081519050919050565b600082825260208201905092915050565b6000819050602082019050919050565b614b4e81613a40565b82525050565b604082016000820151614b6a6000850182614a49565b506020820151614b7d6020850182614b45565b50505050565b6000614b8f8383614b54565b60408301905092915050565b6000602082019050919050565b6000614bb382614b19565b614bbd8185614b24565b9350614bc883614b35565b8060005b83811015614bf9578151614be08882614b83565b9750614beb83614b9b565b925050600181019050614bcc565b5085935050505092915050565b60006040820190508181036000830152614c208185614abb565b90508181036020830152614c348184614ba8565b90509392505050565b600060a08284031215614c5357614c52613a21565b5b614c5d60a061361b565b90506000614c6d84828501613a2b565b6000830152506020614c8184828501613e3f565b6020830152506040614c9584828501613a78565b6040830152506060614ca984828501613a63565b6060830152506080614cbd84828501613a63565b60808301525092915050565b600060a08284031215614cdf57614cde6134b1565b5b6000614ced84828501614c3d565b91505092915050565b600060408284031215614d0c57614d0b6134b1565b5b6000614d1a848285016148ed565b91505092915050565b600060208284031215614d3957614d386134b1565b5b6000614d4784828501613a78565b91505092915050565b7f57616c6c657420616c7265616479206164646564000000000000000000000000600082015250565b6000614d86601483613dc2565b9150614d9182614d50565b602082019050919050565b60006020820190508181036000830152614db581614d79565b9050919050565b60008060408385031215614dd357614dd26134b1565b5b6000614de185828601613a63565b925050602083015167ffffffffffffffff811115614e0257614e016134b6565b5b614e0e85828601613bb9565b9150509250929050565b7f52616e646f6d206e756d62657273206e6f742072656164790000000000000000600082015250565b6000614e4e601883613dc2565b9150614e5982614e18565b602082019050919050565b60006020820190508181036000830152614e7d81614e41565b9050919050565b6000819050919050565b6000614ea9614ea4614e9f84614e84565b6137ad565b61356d565b9050919050565b614eb981614e8e565b82525050565b6000606082019050614ed4600083018661347d565b614ee16020830185614eb0565b8181036040830152614ef38184614154565b9050949350505050565b6000614f0882613473565b9150614f1383613473565b9250828201905080821115614f2b57614f2a613947565b5b92915050565b6000606082019050614f46600083018661347d565b614f53602083018561357b565b8181036040830152614f658184614154565b9050949350505050565b60006060820190508181036000830152614f898186614154565b9050614f98602083018561357b565b8181036040830152614faa8184614154565b9050949350505050565b6000614fbf8261356d565b9150614fca8361356d565b9250828201905061ffff811115614fe457614fe3613947565b5b92915050565b600063ffffffff82169050919050565b600061501561501061500b8461356d565b6137ad565b614fea565b9050919050565b61502581614ffa565b82525050565b6000602082019050615040600083018461501c565b92915050565b600060608201905061505b6000830186613449565b6150686020830185613449565b615075604083018461347d565b949350505050565b600081519050919050565b600081905092915050565b60005b838110156150b1578082015181840152602081019050615096565b60008484015250505050565b60006150c88261507d565b6150d28185615088565b93506150e2818560208601615093565b80840191505092915050565b60006150fa82846150bd565b91508190509291505056fea264697066735822122022a247e1445286513fdb80c599a678117fbf3810d50f6b0ce14150af71f5c31064736f6c63430008180033",
  "devdoc": {
    "errors": {
      "AddressEmptyCode(address)": [
        {
          "details": "There's no code at `target` (it is not a contract)."
        }
      ],
      "AddressInsufficientBalance(address)": [
        {
          "details": "The ETH balance of the account is not enough to perform the operation."
        }
      ],
      "FailedInnerCall()": [
        {
          "details": "A call to an address target failed. The target may have reverted."
        }
      ],
      "OwnableInvalidOwner(address)": [
        {
          "details": "The owner is not a valid owner account. (eg. `address(0)`)"
        }
      ],
      "OwnableUnauthorizedAccount(address)": [
        {
          "details": "The caller account is not authorized to perform an operation."
        }
      ],
      "SafeERC20FailedOperation(address)": [
        {
          "details": "An operation with an ERC20 token failed."
        }
      ]
    },
    "kind": "dev",
    "methods": {
      "owner()": {
        "details": "Returns the address of the current owner."
      },
      "renounceOwnership()": {
        "details": "Leaves the contract without owner. It will not be possible to call `onlyOwner` functions. Can only be called by the current owner. NOTE: Renouncing ownership will leave the contract without an owner, thereby disabling any functionality that is only available to the owner."
      },
      "transferOwnership(address)": {
        "details": "Transfers ownership of the contract to a new account (`newOwner`). Can only be called by the current owner."
      }
    },
    "version": 1
  },
  "userdoc": {
    "kind": "user",
    "methods": {},
    "version": 1
  },
  "storageLayout": {
    "storage": [
      {
        "astId": 8,
        "contract": "contracts/LotteryMaster.sol:LotteryMaster",
        "label": "_owner",
        "offset": 0,
        "slot": "0",
        "type": "t_address"
      },
      {
        "astId": 3979,
        "contract": "contracts/LotteryMaster.sol:LotteryMaster",
        "label": "teamAddress",
        "offset": 0,
        "slot": "1",
        "type": "t_address"
      },
      {
        "astId": 1001,
        "contract": "contracts/LotteryMaster.sol:LotteryMaster",
        "label": "roundCount",
        "offset": 0,
        "slot": "2",
        "type": "t_uint256"
      },
      {
        "astId": 1004,
        "contract": "contracts/LotteryMaster.sol:LotteryMaster",
        "label": "rounds",
        "offset": 0,
        "slot": "3",
        "type": "t_array(t_address)dyn_storage"
      },
      {
        "astId": 1034,
        "contract": "contracts/LotteryMaster.sol:LotteryMaster",
        "label": "freeRounds",
        "offset": 0,
        "slot": "4",
        "type": "t_mapping(t_address,t_uint16)"
      },
      {
        "astId": 1036,
        "contract": "contracts/LotteryMaster.sol:LotteryMaster",
        "label": "counterForBankWallets",
        "offset": 0,
        "slot": "5",
        "type": "t_uint16"
      },
      {
        "astId": 1039,
        "contract": "contracts/LotteryMaster.sol:LotteryMaster",
        "label": "bankWallets",
        "offset": 0,
        "slot": "6",
        "type": "t_array(t_address)dyn_storage"
      },
      {
        "astId": 1124,
        "contract": "contracts/LotteryMaster.sol:LotteryMaster",
        "label": "treasuryWallets",
        "offset": 0,
        "slot": "7",
        "type": "t_address"
      },
      {
        "astId": 1139,
        "contract": "contracts/LotteryMaster.sol:LotteryMaster",
        "label": "paymentToken",
        "offset": 0,
        "slot": "8",
        "type": "t_contract(IERC20Metadata)251"
      },
      {
        "astId": 1156,
        "contract": "contracts/LotteryMaster.sol:LotteryMaster",
        "label": "randomizer",
        "offset": 0,
        "slot": "9",
        "type": "t_contract(CyclixRandomizerInterface)892"
      },
      {
        "astId": 1159,
        "contract": "contracts/LotteryMaster.sol:LotteryMaster",
        "label": "reader",
        "offset": 0,
        "slot": "10",
        "type": "t_contract(LotteryReaderInterface)2938"
      },
      {
        "astId": 1161,
        "contract": "contracts/LotteryMaster.sol:LotteryMaster",
        "label": "ticketPrice",
        "offset": 0,
        "slot": "11",
        "type": "t_uint256"
      },
      {
        "astId": 1459,
        "contract": "contracts/LotteryMaster.sol:LotteryMaster",
        "label": "publicRoundRandomNumbersRequestId",
        "offset": 0,
        "slot": "12",
        "type": "t_mapping(t_uint256,t_uint256)"
      }
    ],
    "types": {
      "t_address": {
        "encoding": "inplace",
        "label": "address",
        "numberOfBytes": "20"
      },
      "t_array(t_address)dyn_storage": {
        "base": "t_address",
        "encoding": "dynamic_array",
        "label": "address[]",
        "numberOfBytes": "32"
      },
      "t_contract(CyclixRandomizerInterface)892": {
        "encoding": "inplace",
        "label": "contract CyclixRandomizerInterface",
        "numberOfBytes": "20"
      },
      "t_contract(IERC20Metadata)251": {
        "encoding": "inplace",
        "label": "contract IERC20Metadata",
        "numberOfBytes": "20"
      },
      "t_contract(LotteryReaderInterface)2938": {
        "encoding": "inplace",
        "label": "contract LotteryReaderInterface",
        "numberOfBytes": "20"
      },
      "t_mapping(t_address,t_uint16)": {
        "encoding": "mapping",
        "key": "t_address",
        "label": "mapping(address => uint16)",
        "numberOfBytes": "32",
        "value": "t_uint16"
      },
      "t_mapping(t_uint256,t_uint256)": {
        "encoding": "mapping",
        "key": "t_uint256",
        "label": "mapping(uint256 => uint256)",
        "numberOfBytes": "32",
        "value": "t_uint256"
      },
      "t_uint16": {
        "encoding": "inplace",
        "label": "uint16",
        "numberOfBytes": "2"
      },
      "t_uint256": {
        "encoding": "inplace",
        "label": "uint256",
        "numberOfBytes": "32"
      }
    }
  }
}