{
  "address": "0x3777D48B9d3448b951Dfd9D4088fb8218BC90Dd0",
  "abi": [
    {
      "inputs": [],
      "stateMutability": "nonpayable",
      "type": "constructor"
    },
    {
      "inputs": [
        {
          "internalType": "address",
          "name": "target",
          "type": "address"
        }
      ],
      "name": "AddressEmptyCode",
      "type": "error"
    },
    {
      "inputs": [
        {
          "internalType": "address",
          "name": "account",
          "type": "address"
        }
      ],
      "name": "AddressInsufficientBalance",
      "type": "error"
    },
    {
      "inputs": [],
      "name": "FailedInnerCall",
      "type": "error"
    },
    {
      "inputs": [
        {
          "internalType": "address",
          "name": "owner",
          "type": "address"
        }
      ],
      "name": "OwnableInvalidOwner",
      "type": "error"
    },
    {
      "inputs": [
        {
          "internalType": "address",
          "name": "account",
          "type": "address"
        }
      ],
      "name": "OwnableUnauthorizedAccount",
      "type": "error"
    },
    {
      "inputs": [
        {
          "internalType": "address",
          "name": "token",
          "type": "address"
        }
      ],
      "name": "SafeERC20FailedOperation",
      "type": "error"
    },
    {
      "anonymous": false,
      "inputs": [
        {
          "indexed": true,
          "internalType": "address",
          "name": "previousOwner",
          "type": "address"
        },
        {
          "indexed": true,
          "internalType": "address",
          "name": "newOwner",
          "type": "address"
        }
      ],
      "name": "OwnershipTransferred",
      "type": "event"
    },
    {
      "inputs": [
        {
          "internalType": "uint256",
          "name": "roundId",
          "type": "uint256"
        }
      ],
      "name": "amountWonInRound",
      "outputs": [
        {
          "internalType": "uint256",
          "name": "",
          "type": "uint256"
        }
      ],
      "stateMutability": "view",
      "type": "function"
    },
    {
      "inputs": [
        {
          "internalType": "uint256",
          "name": "roundId",
          "type": "uint256"
        },
        {
          "internalType": "uint256",
          "name": "referralTicketId",
          "type": "uint256"
        }
      ],
      "name": "evaluateWonResultsForOneReferralTicket",
      "outputs": [
        {
          "components": [
            {
              "internalType": "uint256",
              "name": "referralTicketId",
              "type": "uint256"
            },
            {
              "internalType": "bool",
              "name": "won",
              "type": "bool"
            }
          ],
          "internalType": "struct ReferralTicketResults",
          "name": "",
          "type": "tuple"
        }
      ],
      "stateMutability": "view",
      "type": "function"
    },
    {
      "inputs": [
        {
          "internalType": "uint256",
          "name": "roundId",
          "type": "uint256"
        },
        {
          "internalType": "uint256",
          "name": "ticketId",
          "type": "uint256"
        }
      ],
      "name": "evaluateWonResultsForOneTicket",
      "outputs": [
        {
          "components": [
            {
              "internalType": "uint256",
              "name": "ticketId",
              "type": "uint256"
            },
            {
              "internalType": "enum RoundVictoryTier",
              "name": "victoryTier",
              "type": "uint8"
            }
          ],
          "internalType": "struct TicketResults",
          "name": "",
          "type": "tuple"
        }
      ],
      "stateMutability": "view",
      "type": "function"
    },
    {
      "inputs": [
        {
          "internalType": "uint256",
          "name": "roundId",
          "type": "uint256"
        }
      ],
      "name": "evaluateWonResultsForReferral",
      "outputs": [
        {
          "components": [
            {
              "internalType": "uint256",
              "name": "referralTicketId",
              "type": "uint256"
            },
            {
              "internalType": "bool",
              "name": "won",
              "type": "bool"
            }
          ],
          "internalType": "struct ReferralTicketResults[]",
          "name": "",
          "type": "tuple[]"
        }
      ],
      "stateMutability": "view",
      "type": "function"
    },
    {
      "inputs": [
        {
          "internalType": "uint256",
          "name": "roundId",
          "type": "uint256"
        }
      ],
      "name": "evaluateWonResultsForTickets",
      "outputs": [
        {
          "components": [
            {
              "internalType": "uint256",
              "name": "ticketId",
              "type": "uint256"
            },
            {
              "internalType": "enum RoundVictoryTier",
              "name": "victoryTier",
              "type": "uint8"
            }
          ],
          "internalType": "struct TicketResults[]",
          "name": "",
          "type": "tuple[]"
        }
      ],
      "stateMutability": "view",
      "type": "function"
    },
    {
      "inputs": [
        {
          "internalType": "uint16",
          "name": "num",
          "type": "uint16"
        },
        {
          "internalType": "uint16[]",
          "name": "arr",
          "type": "uint16[]"
        }
      ],
      "name": "existInArrayNumber",
      "outputs": [
        {
          "internalType": "bool",
          "name": "",
          "type": "bool"
        }
      ],
      "stateMutability": "pure",
      "type": "function"
    },
    {
      "inputs": [
        {
          "internalType": "uint256",
          "name": "randomNumber",
          "type": "uint256"
        },
        {
          "internalType": "uint16",
          "name": "maxValue",
          "type": "uint16"
        },
        {
          "internalType": "uint16[]",
          "name": "arr",
          "type": "uint16[]"
        }
      ],
      "name": "getRandomUniqueNumberInArrayForMaxValue",
      "outputs": [
        {
          "internalType": "uint16",
          "name": "",
          "type": "uint16"
        }
      ],
      "stateMutability": "pure",
      "type": "function"
    },
    {
      "inputs": [],
      "name": "lotteryMaster",
      "outputs": [
        {
          "internalType": "contract LotteryMaster",
          "name": "",
          "type": "address"
        }
      ],
      "stateMutability": "view",
      "type": "function"
    },
    {
      "inputs": [
        {
          "internalType": "uint16",
          "name": "num",
          "type": "uint16"
        },
        {
          "internalType": "uint16[]",
          "name": "arr",
          "type": "uint16[]"
        }
      ],
      "name": "notExistInArrayNumber",
      "outputs": [
        {
          "internalType": "bool",
          "name": "",
          "type": "bool"
        }
      ],
      "stateMutability": "pure",
      "type": "function"
    },
    {
      "inputs": [
        {
          "internalType": "uint256",
          "name": "roundId",
          "type": "uint256"
        }
      ],
      "name": "numberOfReferralWinnersForRoundId",
      "outputs": [
        {
          "internalType": "uint16",
          "name": "",
          "type": "uint16"
        }
      ],
      "stateMutability": "view",
      "type": "function"
    },
    {
      "inputs": [],
      "name": "owner",
      "outputs": [
        {
          "internalType": "address",
          "name": "",
          "type": "address"
        }
      ],
      "stateMutability": "view",
      "type": "function"
    },
    {
      "inputs": [
        {
          "internalType": "uint256",
          "name": "roundId",
          "type": "uint256"
        }
      ],
      "name": "poolForReferral",
      "outputs": [
        {
          "internalType": "uint256",
          "name": "",
          "type": "uint256"
        }
      ],
      "stateMutability": "view",
      "type": "function"
    },
    {
      "inputs": [
        {
          "internalType": "uint256",
          "name": "roundId",
          "type": "uint256"
        },
        {
          "internalType": "enum RoundVictoryTier",
          "name": "victoryTier",
          "type": "uint8"
        }
      ],
      "name": "poolForVictoryTier",
      "outputs": [
        {
          "internalType": "uint256",
          "name": "",
          "type": "uint256"
        }
      ],
      "stateMutability": "view",
      "type": "function"
    },
    {
      "inputs": [
        {
          "internalType": "uint256",
          "name": "roundId",
          "type": "uint256"
        }
      ],
      "name": "referralWinnersNumber",
      "outputs": [
        {
          "internalType": "uint16[]",
          "name": "",
          "type": "uint16[]"
        }
      ],
      "stateMutability": "view",
      "type": "function"
    },
    {
      "inputs": [],
      "name": "renounceOwnership",
      "outputs": [],
      "stateMutability": "nonpayable",
      "type": "function"
    },
    {
      "inputs": [
        {
          "internalType": "uint256",
          "name": "roundId",
          "type": "uint256"
        }
      ],
      "name": "roundNumbers",
      "outputs": [
        {
          "internalType": "uint16[]",
          "name": "",
          "type": "uint16[]"
        }
      ],
      "stateMutability": "view",
      "type": "function"
    },
    {
      "inputs": [],
      "name": "sendCryptoToTeam",
      "outputs": [],
      "stateMutability": "nonpayable",
      "type": "function"
    },
    {
      "inputs": [
        {
          "internalType": "address",
          "name": "_token",
          "type": "address"
        }
      ],
      "name": "sendTokenToTeam",
      "outputs": [],
      "stateMutability": "nonpayable",
      "type": "function"
    },
    {
      "inputs": [
        {
          "internalType": "address",
          "name": "_lotteryMaster",
          "type": "address"
        }
      ],
      "name": "setLotteryMaster",
      "outputs": [],
      "stateMutability": "nonpayable",
      "type": "function"
    },
    {
      "inputs": [
        {
          "internalType": "uint16",
          "name": "rightNumbersForTicket",
          "type": "uint16"
        },
        {
          "internalType": "bool",
          "name": "powerNumberFound",
          "type": "bool"
        }
      ],
      "name": "tierFromResults",
      "outputs": [
        {
          "internalType": "enum RoundVictoryTier",
          "name": "",
          "type": "uint8"
        }
      ],
      "stateMutability": "pure",
      "type": "function"
    },
    {
      "inputs": [
        {
          "internalType": "uint256",
          "name": "roundId",
          "type": "uint256"
        }
      ],
      "name": "tokenHoldersPoolAmount",
      "outputs": [
        {
          "internalType": "uint256",
          "name": "",
          "type": "uint256"
        }
      ],
      "stateMutability": "view",
      "type": "function"
    },
    {
      "inputs": [
        {
          "internalType": "address",
          "name": "newOwner",
          "type": "address"
        }
      ],
      "name": "transferOwnership",
      "outputs": [],
      "stateMutability": "nonpayable",
      "type": "function"
    },
    {
      "inputs": [
        {
          "internalType": "uint256",
          "name": "roundId",
          "type": "uint256"
        }
      ],
      "name": "treasuryPoolAmount",
      "outputs": [
        {
          "internalType": "uint256",
          "name": "",
          "type": "uint256"
        }
      ],
      "stateMutability": "view",
      "type": "function"
    },
    {
      "inputs": [
        {
          "internalType": "address",
          "name": "_teamAddress",
          "type": "address"
        }
      ],
      "name": "updateTeamAddress",
      "outputs": [],
      "stateMutability": "nonpayable",
      "type": "function"
    }
  ],
  "transactionHash": "0xe425b7f40bcbf7c38cfa9386b02f65a5ce8c11482bd9b5d5b93c20fdf3b5aa12",
  "args": [],
  "numDeployments": 2,
  "solcInputHash": "7d03445158f7d90960adf792c0efa201",
  "bytecode": "0x60806040523480156200001157600080fd5b503280600073ffffffffffffffffffffffffffffffffffffffff168173ffffffffffffffffffffffffffffffffffffffff1603620000895760006040517f1e4fbdf7000000000000000000000000000000000000000000000000000000008152600401620000809190620001ec565b60405180910390fd5b6200009a81620000e360201b60201c565b5080600160006101000a81548173ffffffffffffffffffffffffffffffffffffffff021916908373ffffffffffffffffffffffffffffffffffffffff1602179055505062000209565b60008060009054906101000a900473ffffffffffffffffffffffffffffffffffffffff169050816000806101000a81548173ffffffffffffffffffffffffffffffffffffffff021916908373ffffffffffffffffffffffffffffffffffffffff1602179055508173ffffffffffffffffffffffffffffffffffffffff168173ffffffffffffffffffffffffffffffffffffffff167f8be0079c531659141344cd1fd0a4f28419497f9722a3daafe3b4186f6b6457e060405160405180910390a35050565b600073ffffffffffffffffffffffffffffffffffffffff82169050919050565b6000620001d482620001a7565b9050919050565b620001e681620001c7565b82525050565b6000602082019050620002036000830184620001db565b92915050565b613b7a80620002196000396000f3fe608060405234801561001057600080fd5b50600436106101585760003560e01c806368525a4e116100c3578063c099ae191161007c578063c099ae1914610411578063d856f0d514610441578063e34208e614610471578063f1664df6146104a1578063f2fde38b146104d1578063fdfe8185146104ed57610158565b806368525a4e14610363578063715018a6146103935780638da5cb5b1461039d5780638e0e3fcd146103bb578063998da3e9146103eb578063bbd1783a1461040757610158565b80633c73b4c4116101155780633c73b4c41461025557806349a0a1f6146102855780634e00b9d3146102b557806359103c12146102e55780635dc9dbe81461031557806361ab0c891461033357610158565b8063078a6dbf1461015d5780630c746a8a1461018d57806314eb76ac146101bd57806322bd49a8146101d9578063283b7f28146101f55780632aa6017014610225575b600080fd5b61017760048036038101906101729190612900565b61051d565b6040516101849190612999565b60405180910390f35b6101a760048036038101906101a29190612b47565b610723565b6040516101b49190612bc5565b60405180910390f35b6101d760048036038101906101d29190612c3e565b6107cf565b005b6101f360048036038101906101ee9190612c3e565b61081b565b005b61020f600480360381019061020a9190612c6b565b610867565b60405161021c9190612d56565b60405180910390f35b61023f600480360381019061023a9190612900565b610995565b60405161024c9190612e1e565b60405180910390f35b61026f600480360381019061026a9190612c6b565b610cd4565b60405161027c9190612e48565b60405180910390f35b61029f600480360381019061029a9190612c6b565b611122565b6040516102ac9190612e48565b60405180910390f35b6102cf60048036038101906102ca9190612e63565b61124d565b6040516102dc9190612ece565b60405180910390f35b6102ff60048036038101906102fa9190612e63565b611267565b60405161030c9190612ece565b60405180910390f35b61031d6112c4565b60405161032a9190612f48565b60405180910390f35b61034d60048036038101906103489190612c6b565b6112ea565b60405161035a9190612e48565b60405180910390f35b61037d60048036038101906103789190612c6b565b611415565b60405161038a9190612e48565b60405180910390f35b61039b611540565b005b6103a5611554565b6040516103b29190612f72565b60405180910390f35b6103d560048036038101906103d09190612fb2565b61157d565b6040516103e29190612e48565b60405180910390f35b61040560048036038101906104009190612c3e565b6117fa565b005b61040f6118bb565b005b61042b60048036038101906104269190612c6b565b611938565b60405161043891906130d0565b60405180910390f35b61045b60048036038101906104569190612c6b565b611d33565b60405161046891906131d0565b60405180910390f35b61048b6004803603810190610486919061321e565b611fef565b604051610498919061326d565b60405180910390f35b6104bb60048036038101906104b69190612c6b565b612098565b6040516104c89190612bc5565b60405180910390f35b6104eb60048036038101906104e69190612c3e565b61229a565b005b61050760048036038101906105029190612c6b565b612320565b6040516105149190612d56565b60405180910390f35b61052561286e565b6000600260009054906101000a900473ffffffffffffffffffffffffffffffffffffffff1673ffffffffffffffffffffffffffffffffffffffff16638c65c81f60018661057291906132b7565b6040518263ffffffff1660e01b815260040161058e9190612e48565b602060405180830381865afa1580156105ab573d6000803e3d6000fd5b505050506040513d601f19601f820116820180604052508101906105cf9190613300565b905060008173ffffffffffffffffffffffffffffffffffffffff16639f8743f76040518163ffffffff1660e01b8152600401600060405180830381865afa15801561061e573d6000803e3d6000fd5b505050506040513d6000823e3d601f19601f82011682018060405250810190610647919061364c565b905060008273ffffffffffffffffffffffffffffffffffffffff1663dd85ae5f836101200151878151811061067f5761067e613695565b5b60200260200101516040518263ffffffff1660e01b81526004016106a39190612e48565b60a060405180830381865afa1580156106c0573d6000803e3d6000fd5b505050506040513d601f19601f820116820180604052508101906106e49190613750565b905060006106fa82604001518460a00151611267565b905060405180604001604052808360000151815260200182151581525094505050505092915050565b60008060018461ffff168661073891906137ac565b61074291906137dd565b90506000806107518386611267565b90505b80156107c25760018661ffff168484604051602001610774929190613811565b6040516020818303038152906040528051906020012060001c61079791906137ac565b6107a191906137dd565b92506107ad8386611267565b905081806107ba9061383a565b925050610754565b8293505050509392505050565b6107d761244e565b80600160006101000a81548173ffffffffffffffffffffffffffffffffffffffff021916908373ffffffffffffffffffffffffffffffffffffffff16021790555050565b61082361244e565b80600260006101000a81548173ffffffffffffffffffffffffffffffffffffffff021916908373ffffffffffffffffffffffffffffffffffffffff16021790555050565b60606000600260009054906101000a900473ffffffffffffffffffffffffffffffffffffffff1673ffffffffffffffffffffffffffffffffffffffff16638c65c81f6001856108b691906132b7565b6040518263ffffffff1660e01b81526004016108d29190612e48565b602060405180830381865afa1580156108ef573d6000803e3d6000fd5b505050506040513d601f19601f820116820180604052508101906109139190613300565b73ffffffffffffffffffffffffffffffffffffffff16639f8743f76040518163ffffffff1660e01b8152600401600060405180830381865afa15801561095d573d6000803e3d6000fd5b505050506040513d6000823e3d601f19601f82011682018060405250810190610986919061364c565b90508060a00151915050919050565b61099d61288a565b6000600260009054906101000a900473ffffffffffffffffffffffffffffffffffffffff1673ffffffffffffffffffffffffffffffffffffffff16638c65c81f6001866109ea91906132b7565b6040518263ffffffff1660e01b8152600401610a069190612e48565b602060405180830381865afa158015610a23573d6000803e3d6000fd5b505050506040513d601f19601f82011682018060405250810190610a479190613300565b905060008173ffffffffffffffffffffffffffffffffffffffff16639f8743f76040518163ffffffff1660e01b8152600401600060405180830381865afa158015610a96573d6000803e3d6000fd5b505050506040513d6000823e3d601f19601f82011682018060405250810190610abf919061364c565b905060008273ffffffffffffffffffffffffffffffffffffffff16639b7be8fc8360e001518781518110610af657610af5613695565b5b60200260200101516040518263ffffffff1660e01b8152600401610b1a9190612e48565b60c060405180830381865afa158015610b37573d6000803e3d6000fd5b505050506040513d601f19601f82011682018060405250810190610b5b9190613919565b905060008373ffffffffffffffffffffffffffffffffffffffff1663598f3b9d83600001516040518263ffffffff1660e01b8152600401610b9c9190612e48565b600060405180830381865afa158015610bb9573d6000803e3d6000fd5b505050506040513d6000823e3d601f19601f82011682018060405250810190610be29190613946565b905060008360800151600581518110610bfe57610bfd613695565b5b602002602001015161ffff1682600581518110610c1e57610c1d613695565b5b602002602001015161ffff161490506000805b60058161ffff161015610c91576000848261ffff1681518110610c5757610c56613695565b5b60200260200101519050610c6f818860800151611267565b15610c83578280610c7f9061383a565b9350505b508080600101915050610c31565b50604051806040016040528085600001518152602001610cb18385611fef565b600a811115610cc357610cc2612d78565b5b815250965050505050505092915050565b600080600260009054906101000a900473ffffffffffffffffffffffffffffffffffffffff1673ffffffffffffffffffffffffffffffffffffffff16638c65c81f600185610d2291906132b7565b6040518263ffffffff1660e01b8152600401610d3e9190612e48565b602060405180830381865afa158015610d5b573d6000803e3d6000fd5b505050506040513d601f19601f82011682018060405250810190610d7f9190613300565b90508073ffffffffffffffffffffffffffffffffffffffff1663e2e3083060076040518263ffffffff1660e01b8152600401610dbb919061326d565b602060405180830381865afa158015610dd8573d6000803e3d6000fd5b505050506040513d601f19601f82011682018060405250810190610dfc919061398f565b8173ffffffffffffffffffffffffffffffffffffffff1663e2e3083060066040518263ffffffff1660e01b8152600401610e36919061326d565b602060405180830381865afa158015610e53573d6000803e3d6000fd5b505050506040513d601f19601f82011682018060405250810190610e77919061398f565b8273ffffffffffffffffffffffffffffffffffffffff1663e2e3083060056040518263ffffffff1660e01b8152600401610eb1919061326d565b602060405180830381865afa158015610ece573d6000803e3d6000fd5b505050506040513d601f19601f82011682018060405250810190610ef2919061398f565b8373ffffffffffffffffffffffffffffffffffffffff1663e2e3083060046040518263ffffffff1660e01b8152600401610f2c919061326d565b602060405180830381865afa158015610f49573d6000803e3d6000fd5b505050506040513d601f19601f82011682018060405250810190610f6d919061398f565b8473ffffffffffffffffffffffffffffffffffffffff1663e2e3083060036040518263ffffffff1660e01b8152600401610fa7919061326d565b602060405180830381865afa158015610fc4573d6000803e3d6000fd5b505050506040513d601f19601f82011682018060405250810190610fe8919061398f565b8573ffffffffffffffffffffffffffffffffffffffff1663e2e3083060026040518263ffffffff1660e01b8152600401611022919061326d565b602060405180830381865afa15801561103f573d6000803e3d6000fd5b505050506040513d601f19601f82011682018060405250810190611063919061398f565b8673ffffffffffffffffffffffffffffffffffffffff1663e2e3083060016040518263ffffffff1660e01b815260040161109d919061326d565b602060405180830381865afa1580156110ba573d6000803e3d6000fd5b505050506040513d601f19601f820116820180604052508101906110de919061398f565b6110e891906137dd565b6110f291906137dd565b6110fc91906137dd565b61110691906137dd565b61111091906137dd565b61111a91906137dd565b915050919050565b6000600260009054906101000a900473ffffffffffffffffffffffffffffffffffffffff1673ffffffffffffffffffffffffffffffffffffffff16638c65c81f60018461116f91906132b7565b6040518263ffffffff1660e01b815260040161118b9190612e48565b602060405180830381865afa1580156111a8573d6000803e3d6000fd5b505050506040513d601f19601f820116820180604052508101906111cc9190613300565b73ffffffffffffffffffffffffffffffffffffffff1663e2e3083060096040518263ffffffff1660e01b8152600401611205919061326d565b602060405180830381865afa158015611222573d6000803e3d6000fd5b505050506040513d601f19601f82011682018060405250810190611246919061398f565b9050919050565b600080151561125c8484611267565b151514905092915050565b600080600090505b82518110156112b8578361ffff168382815181106112905761128f613695565b5b602002602001015161ffff16036112ab5760019150506112be565b808060010191505061126f565b50600090505b92915050565b600260009054906101000a900473ffffffffffffffffffffffffffffffffffffffff1681565b6000600260009054906101000a900473ffffffffffffffffffffffffffffffffffffffff1673ffffffffffffffffffffffffffffffffffffffff16638c65c81f60018461133791906132b7565b6040518263ffffffff1660e01b81526004016113539190612e48565b602060405180830381865afa158015611370573d6000803e3d6000fd5b505050506040513d601f19601f820116820180604052508101906113949190613300565b73ffffffffffffffffffffffffffffffffffffffff1663e2e30830600a6040518263ffffffff1660e01b81526004016113cd919061326d565b602060405180830381865afa1580156113ea573d6000803e3d6000fd5b505050506040513d601f19601f8201168201806040525081019061140e919061398f565b9050919050565b6000600260009054906101000a900473ffffffffffffffffffffffffffffffffffffffff1673ffffffffffffffffffffffffffffffffffffffff16638c65c81f60018461146291906132b7565b6040518263ffffffff1660e01b815260040161147e9190612e48565b602060405180830381865afa15801561149b573d6000803e3d6000fd5b505050506040513d601f19601f820116820180604052508101906114bf9190613300565b73ffffffffffffffffffffffffffffffffffffffff1663e2e3083060076040518263ffffffff1660e01b81526004016114f8919061326d565b602060405180830381865afa158015611515573d6000803e3d6000fd5b505050506040513d601f19601f82011682018060405250810190611539919061398f565b9050919050565b61154861244e565b61155260006124d5565b565b60008060009054906101000a900473ffffffffffffffffffffffffffffffffffffffff16905090565b60006001600a81111561159357611592612d78565b5b82600a8111156115a6576115a5612d78565b5b14806115d657506002600a8111156115c1576115c0612d78565b5b82600a8111156115d4576115d3612d78565b5b145b8061160557506003600a8111156115f0576115ef612d78565b5b82600a81111561160357611602612d78565b5b145b8061163457506004600a81111561161f5761161e612d78565b5b82600a81111561163257611631612d78565b5b145b8061166357506005600a81111561164e5761164d612d78565b5b82600a81111561166157611660612d78565b5b145b8061169257506006600a81111561167d5761167c612d78565b5b82600a8111156116905761168f612d78565b5b145b6116d1576040517f08c379a00000000000000000000000000000000000000000000000000000000081526004016116c890613a19565b60405180910390fd5b600260009054906101000a900473ffffffffffffffffffffffffffffffffffffffff1673ffffffffffffffffffffffffffffffffffffffff16638c65c81f60018561171c91906132b7565b6040518263ffffffff1660e01b81526004016117389190612e48565b602060405180830381865afa158015611755573d6000803e3d6000fd5b505050506040513d601f19601f820116820180604052508101906117799190613300565b73ffffffffffffffffffffffffffffffffffffffff1663e2e30830836040518263ffffffff1660e01b81526004016117b1919061326d565b602060405180830381865afa1580156117ce573d6000803e3d6000fd5b505050506040513d601f19601f820116820180604052508101906117f2919061398f565b905092915050565b61180261244e565b60008173ffffffffffffffffffffffffffffffffffffffff166370a08231306040518263ffffffff1660e01b815260040161183d9190612f72565b602060405180830381865afa15801561185a573d6000803e3d6000fd5b505050506040513d601f19601f8201168201806040525081019061187e919061398f565b905060008111156118b7576118b682600160009054906101000a900473ffffffffffffffffffffffffffffffffffffffff1683612599565b5b5050565b6118c361244e565b600047111561193657600160009054906101000a900473ffffffffffffffffffffffffffffffffffffffff1673ffffffffffffffffffffffffffffffffffffffff166108fc479081150290604051600060405180830381858888f19350505050158015611934573d6000803e3d6000fd5b505b565b60606000600260009054906101000a900473ffffffffffffffffffffffffffffffffffffffff1673ffffffffffffffffffffffffffffffffffffffff16638c65c81f60018561198791906132b7565b6040518263ffffffff1660e01b81526004016119a39190612e48565b602060405180830381865afa1580156119c0573d6000803e3d6000fd5b505050506040513d601f19601f820116820180604052508101906119e49190613300565b905060008173ffffffffffffffffffffffffffffffffffffffff16639f8743f76040518163ffffffff1660e01b8152600401600060405180830381865afa158015611a33573d6000803e3d6000fd5b505050506040513d6000823e3d601f19601f82011682018060405250810190611a5c919061364c565b905060008161010001519050600082610100015161ffff1667ffffffffffffffff811115611a8d57611a8c612a04565b5b604051908082528060200260200182016040528015611ac657816020015b611ab361288a565b815260200190600190039081611aab5790505b5090506000805b8361ffff168161ffff161015611d255760008673ffffffffffffffffffffffffffffffffffffffff16639b7be8fc8760e001518461ffff1681518110611b1657611b15613695565b5b60200260200101516040518263ffffffff1660e01b8152600401611b3a9190612e48565b60c060405180830381865afa158015611b57573d6000803e3d6000fd5b505050506040513d601f19601f82011682018060405250810190611b7b9190613919565b905060008773ffffffffffffffffffffffffffffffffffffffff1663598f3b9d83600001516040518263ffffffff1660e01b8152600401611bbc9190612e48565b600060405180830381865afa158015611bd9573d6000803e3d6000fd5b505050506040513d6000823e3d601f19601f82011682018060405250810190611c029190613946565b905060008760800151600581518110611c1e57611c1d613695565b5b602002602001015161ffff1682600581518110611c3e57611c3d613695565b5b602002602001015161ffff161490506000805b60058161ffff161015611cb1576000848261ffff1681518110611c7757611c76613695565b5b60200260200101519050611c8f818c60800151611267565b15611ca3578280611c9f9061383a565b9350505b508080600101915050611c51565b50604051806040016040528085600001518152602001611cd18385611fef565b600a811115611ce357611ce2612d78565b5b815250878780611cf29061383a565b985061ffff1681518110611d0957611d08613695565b5b6020026020010181905250505050508080600101915050611acd565b508195505050505050919050565b60606000600260009054906101000a900473ffffffffffffffffffffffffffffffffffffffff1673ffffffffffffffffffffffffffffffffffffffff16638c65c81f600185611d8291906132b7565b6040518263ffffffff1660e01b8152600401611d9e9190612e48565b602060405180830381865afa158015611dbb573d6000803e3d6000fd5b505050506040513d601f19601f82011682018060405250810190611ddf9190613300565b905060008173ffffffffffffffffffffffffffffffffffffffff16639f8743f76040518163ffffffff1660e01b8152600401600060405180830381865afa158015611e2e573d6000803e3d6000fd5b505050506040513d6000823e3d601f19601f82011682018060405250810190611e57919061364c565b9050600081610140015161ffff1667ffffffffffffffff811115611e7e57611e7d612a04565b5b604051908082528060200260200182016040528015611eb757816020015b611ea461286e565b815260200190600190039081611e9c5790505b5090506000805b83610140015161ffff168161ffff161015611fe25760008573ffffffffffffffffffffffffffffffffffffffff1663dd85ae5f8661012001518461ffff1681518110611f0d57611f0c613695565b5b60200260200101516040518263ffffffff1660e01b8152600401611f319190612e48565b60a060405180830381865afa158015611f4e573d6000803e3d6000fd5b505050506040513d601f19601f82011682018060405250810190611f729190613750565b90506000611f8882604001518760a00151611267565b9050604051806040016040528083600001518152602001821515815250858580611fb19061383a565b965061ffff1681518110611fc857611fc7613695565b5b602002602001018190525050508080600101915050611ebe565b5081945050505050919050565b600060058361ffff161480156120025750815b156120105760019050612092565b60058361ffff16036120255760029050612092565b60048361ffff161480156120365750815b156120445760039050612092565b60048361ffff16036120595760049050612092565b60038361ffff1614801561206a5750815b156120785760059050612092565b60038361ffff160361208d5760069050612092565b600090505b92915050565b600080600090506000600260009054906101000a900473ffffffffffffffffffffffffffffffffffffffff1673ffffffffffffffffffffffffffffffffffffffff16638c65c81f6001866120ec91906132b7565b6040518263ffffffff1660e01b81526004016121089190612e48565b602060405180830381865afa158015612125573d6000803e3d6000fd5b505050506040513d601f19601f820116820180604052508101906121499190613300565b73ffffffffffffffffffffffffffffffffffffffff16639f8743f76040518163ffffffff1660e01b8152600401600060405180830381865afa158015612193573d6000803e3d6000fd5b505050506040513d6000823e3d601f19601f820116820180604052508101906121bc919061364c565b61014001519050600260009054906101000a900473ffffffffffffffffffffffffffffffffffffffff1673ffffffffffffffffffffffffffffffffffffffff1663f4dec22b6040518163ffffffff1660e01b8152600401602060405180830381865afa158015612230573d6000803e3d6000fd5b505050506040513d601f19601f820116820180604052508101906122549190613a39565b61ffff168161ffff168161226b5761226a61377d565b5b04915060008261ffff16148015612286575060008161ffff16115b1561229057600191505b8192505050919050565b6122a261244e565b600073ffffffffffffffffffffffffffffffffffffffff168173ffffffffffffffffffffffffffffffffffffffff16036123145760006040517f1e4fbdf700000000000000000000000000000000000000000000000000000000815260040161230b9190612f72565b60405180910390fd5b61231d816124d5565b50565b60606000600260009054906101000a900473ffffffffffffffffffffffffffffffffffffffff1673ffffffffffffffffffffffffffffffffffffffff16638c65c81f60018561236f91906132b7565b6040518263ffffffff1660e01b815260040161238b9190612e48565b602060405180830381865afa1580156123a8573d6000803e3d6000fd5b505050506040513d601f19601f820116820180604052508101906123cc9190613300565b73ffffffffffffffffffffffffffffffffffffffff16639f8743f76040518163ffffffff1660e01b8152600401600060405180830381865afa158015612416573d6000803e3d6000fd5b505050506040513d6000823e3d601f19601f8201168201806040525081019061243f919061364c565b90508060800151915050919050565b612456612618565b73ffffffffffffffffffffffffffffffffffffffff16612474611554565b73ffffffffffffffffffffffffffffffffffffffff16146124d357612497612618565b6040517f118cdaa70000000000000000000000000000000000000000000000000000000081526004016124ca9190612f72565b60405180910390fd5b565b60008060009054906101000a900473ffffffffffffffffffffffffffffffffffffffff169050816000806101000a81548173ffffffffffffffffffffffffffffffffffffffff021916908373ffffffffffffffffffffffffffffffffffffffff1602179055508173ffffffffffffffffffffffffffffffffffffffff168173ffffffffffffffffffffffffffffffffffffffff167f8be0079c531659141344cd1fd0a4f28419497f9722a3daafe3b4186f6b6457e060405160405180910390a35050565b612613838473ffffffffffffffffffffffffffffffffffffffff1663a9059cbb85856040516024016125cc929190613a66565b604051602081830303815290604052915060e01b6020820180517bffffffffffffffffffffffffffffffffffffffffffffffffffffffff8381831617835250505050612620565b505050565b600033905090565b600061264b828473ffffffffffffffffffffffffffffffffffffffff166126b790919063ffffffff16565b9050600081511415801561267057508080602001905181019061266e9190613a8f565b155b156126b257826040517f5274afe70000000000000000000000000000000000000000000000000000000081526004016126a99190612f72565b60405180910390fd5b505050565b60606126c5838360006126cd565b905092915050565b60608147101561271457306040517fcd78605900000000000000000000000000000000000000000000000000000000815260040161270b9190612f72565b60405180910390fd5b6000808573ffffffffffffffffffffffffffffffffffffffff16848660405161273d9190613b2d565b60006040518083038185875af1925050503d806000811461277a576040519150601f19603f3d011682016040523d82523d6000602084013e61277f565b606091505b509150915061278f86838361279a565b925050509392505050565b6060826127af576127aa82612829565b612821565b600082511480156127d7575060008473ffffffffffffffffffffffffffffffffffffffff163b145b1561281957836040517f9996b3150000000000000000000000000000000000000000000000000000000081526004016128109190612f72565b60405180910390fd5b819050612822565b5b9392505050565b60008151111561283c5780518082602001fd5b6040517f1425ea4200000000000000000000000000000000000000000000000000000000815260040160405180910390fd5b6040518060400160405280600081526020016000151581525090565b6040518060400160405280600081526020016000600a8111156128b0576128af612d78565b5b81525090565b6000604051905090565b600080fd5b600080fd5b6000819050919050565b6128dd816128ca565b81146128e857600080fd5b50565b6000813590506128fa816128d4565b92915050565b60008060408385031215612917576129166128c0565b5b6000612925858286016128eb565b9250506020612936858286016128eb565b9150509250929050565b612949816128ca565b82525050565b60008115159050919050565b6129648161294f565b82525050565b6040820160008201516129806000850182612940565b506020820151612993602085018261295b565b50505050565b60006040820190506129ae600083018461296a565b92915050565b600061ffff82169050919050565b6129cb816129b4565b81146129d657600080fd5b50565b6000813590506129e8816129c2565b92915050565b600080fd5b6000601f19601f8301169050919050565b7f4e487b7100000000000000000000000000000000000000000000000000000000600052604160045260246000fd5b612a3c826129f3565b810181811067ffffffffffffffff82111715612a5b57612a5a612a04565b5b80604052505050565b6000612a6e6128b6565b9050612a7a8282612a33565b919050565b600067ffffffffffffffff821115612a9a57612a99612a04565b5b602082029050602081019050919050565b600080fd5b6000612ac3612abe84612a7f565b612a64565b90508083825260208201905060208402830185811115612ae657612ae5612aab565b5b835b81811015612b0f5780612afb88826129d9565b845260208401935050602081019050612ae8565b5050509392505050565b600082601f830112612b2e57612b2d6129ee565b5b8135612b3e848260208601612ab0565b91505092915050565b600080600060608486031215612b6057612b5f6128c0565b5b6000612b6e868287016128eb565b9350506020612b7f868287016129d9565b925050604084013567ffffffffffffffff811115612ba057612b9f6128c5565b5b612bac86828701612b19565b9150509250925092565b612bbf816129b4565b82525050565b6000602082019050612bda6000830184612bb6565b92915050565b600073ffffffffffffffffffffffffffffffffffffffff82169050919050565b6000612c0b82612be0565b9050919050565b612c1b81612c00565b8114612c2657600080fd5b50565b600081359050612c3881612c12565b92915050565b600060208284031215612c5457612c536128c0565b5b6000612c6284828501612c29565b91505092915050565b600060208284031215612c8157612c806128c0565b5b6000612c8f848285016128eb565b91505092915050565b600081519050919050565b600082825260208201905092915050565b6000819050602082019050919050565b612ccd816129b4565b82525050565b6000612cdf8383612cc4565b60208301905092915050565b6000602082019050919050565b6000612d0382612c98565b612d0d8185612ca3565b9350612d1883612cb4565b8060005b83811015612d49578151612d308882612cd3565b9750612d3b83612ceb565b925050600181019050612d1c565b5085935050505092915050565b60006020820190508181036000830152612d708184612cf8565b905092915050565b7f4e487b7100000000000000000000000000000000000000000000000000000000600052602160045260246000fd5b600b8110612db857612db7612d78565b5b50565b6000819050612dc982612da7565b919050565b6000612dd982612dbb565b9050919050565b612de981612dce565b82525050565b604082016000820151612e056000850182612940565b506020820151612e186020850182612de0565b50505050565b6000604082019050612e336000830184612def565b92915050565b612e42816128ca565b82525050565b6000602082019050612e5d6000830184612e39565b92915050565b60008060408385031215612e7a57612e796128c0565b5b6000612e88858286016129d9565b925050602083013567ffffffffffffffff811115612ea957612ea86128c5565b5b612eb585828601612b19565b9150509250929050565b612ec88161294f565b82525050565b6000602082019050612ee36000830184612ebf565b92915050565b6000819050919050565b6000612f0e612f09612f0484612be0565b612ee9565b612be0565b9050919050565b6000612f2082612ef3565b9050919050565b6000612f3282612f15565b9050919050565b612f4281612f27565b82525050565b6000602082019050612f5d6000830184612f39565b92915050565b612f6c81612c00565b82525050565b6000602082019050612f876000830184612f63565b92915050565b600b8110612f9a57600080fd5b50565b600081359050612fac81612f8d565b92915050565b60008060408385031215612fc957612fc86128c0565b5b6000612fd7858286016128eb565b9250506020612fe885828601612f9d565b9150509250929050565b600081519050919050565b600082825260208201905092915050565b6000819050602082019050919050565b6040820160008201516130346000850182612940565b5060208201516130476020850182612de0565b50505050565b6000613059838361301e565b60408301905092915050565b6000602082019050919050565b600061307d82612ff2565b6130878185612ffd565b93506130928361300e565b8060005b838110156130c35781516130aa888261304d565b97506130b583613065565b925050600181019050613096565b5085935050505092915050565b600060208201905081810360008301526130ea8184613072565b905092915050565b600081519050919050565b600082825260208201905092915050565b6000819050602082019050919050565b6040820160008201516131346000850182612940565b506020820151613147602085018261295b565b50505050565b6000613159838361311e565b60408301905092915050565b6000602082019050919050565b600061317d826130f2565b61318781856130fd565b93506131928361310e565b8060005b838110156131c35781516131aa888261314d565b97506131b583613165565b925050600181019050613196565b5085935050505092915050565b600060208201905081810360008301526131ea8184613172565b905092915050565b6131fb8161294f565b811461320657600080fd5b50565b600081359050613218816131f2565b92915050565b60008060408385031215613235576132346128c0565b5b6000613243858286016129d9565b925050602061325485828601613209565b9150509250929050565b61326781612dce565b82525050565b6000602082019050613282600083018461325e565b92915050565b7f4e487b7100000000000000000000000000000000000000000000000000000000600052601160045260246000fd5b60006132c2826128ca565b91506132cd836128ca565b92508282039050818111156132e5576132e4613288565b5b92915050565b6000815190506132fa81612c12565b92915050565b600060208284031215613316576133156128c0565b5b6000613324848285016132eb565b91505092915050565b600080fd5b600080fd5b600081519050613346816128d4565b92915050565b60008151905061335b816131f2565b92915050565b600081519050613370816129c2565b92915050565b600061338961338484612a7f565b612a64565b905080838252602082019050602084028301858111156133ac576133ab612aab565b5b835b818110156133d557806133c18882613361565b8452602084019350506020810190506133ae565b5050509392505050565b600082601f8301126133f4576133f36129ee565b5b8151613404848260208601613376565b91505092915050565b600067ffffffffffffffff82111561342857613427612a04565b5b602082029050602081019050919050565b600061344c6134478461340d565b612a64565b9050808382526020820190506020840283018581111561346f5761346e612aab565b5b835b8181101561349857806134848882613337565b845260208401935050602081019050613471565b5050509392505050565b600082601f8301126134b7576134b66129ee565b5b81516134c7848260208601613439565b91505092915050565b600061016082840312156134e7576134e661332d565b5b6134f2610160612a64565b9050600061350284828501613337565b600083015250602061351684828501613337565b602083015250604061352a84828501613337565b604083015250606061353e8482850161334c565b606083015250608082015167ffffffffffffffff81111561356257613561613332565b5b61356e848285016133df565b60808301525060a082015167ffffffffffffffff81111561359257613591613332565b5b61359e848285016133df565b60a08301525060c06135b284828501613361565b60c08301525060e082015167ffffffffffffffff8111156135d6576135d5613332565b5b6135e2848285016134a2565b60e0830152506101006135f784828501613361565b6101008301525061012082015167ffffffffffffffff81111561361d5761361c613332565b5b613629848285016134a2565b6101208301525061014061363f84828501613361565b6101408301525092915050565b600060208284031215613662576136616128c0565b5b600082015167ffffffffffffffff8111156136805761367f6128c5565b5b61368c848285016134d0565b91505092915050565b7f4e487b7100000000000000000000000000000000000000000000000000000000600052603260045260246000fd5b600060a082840312156136da576136d961332d565b5b6136e460a0612a64565b905060006136f484828501613337565b6000830152506020613708848285016132eb565b602083015250604061371c84828501613361565b60408301525060606137308482850161334c565b60608301525060806137448482850161334c565b60808301525092915050565b600060a08284031215613766576137656128c0565b5b6000613774848285016136c4565b91505092915050565b7f4e487b7100000000000000000000000000000000000000000000000000000000600052601260045260246000fd5b60006137b7826128ca565b91506137c2836128ca565b9250826137d2576137d161377d565b5b828206905092915050565b60006137e8826128ca565b91506137f3836128ca565b925082820190508082111561380b5761380a613288565b5b92915050565b60006040820190506138266000830185612bb6565b6138336020830184612bb6565b9392505050565b6000613845826129b4565b915061ffff820361385957613858613288565b5b600182019050919050565b60008151905061387381612f8d565b92915050565b600060c0828403121561388f5761388e61332d565b5b61389960c0612a64565b905060006138a984828501613337565b60008301525060206138bd848285016132eb565b60208301525060406138d1848285016132eb565b60408301525060606138e58482850161334c565b60608301525060806138f984828501613337565b60808301525060a061390d84828501613864565b60a08301525092915050565b600060c0828403121561392f5761392e6128c0565b5b600061393d84828501613879565b91505092915050565b60006020828403121561395c5761395b6128c0565b5b600082015167ffffffffffffffff81111561397a576139796128c5565b5b613986848285016133df565b91505092915050565b6000602082840312156139a5576139a46128c0565b5b60006139b384828501613337565b91505092915050565b600082825260208201905092915050565b7f496e76616c696420766963746f72792074696572000000000000000000000000600082015250565b6000613a036014836139bc565b9150613a0e826139cd565b602082019050919050565b60006020820190508181036000830152613a32816139f6565b9050919050565b600060208284031215613a4f57613a4e6128c0565b5b6000613a5d84828501613361565b91505092915050565b6000604082019050613a7b6000830185612f63565b613a886020830184612e39565b9392505050565b600060208284031215613aa557613aa46128c0565b5b6000613ab38482850161334c565b91505092915050565b600081519050919050565b600081905092915050565b60005b83811015613af0578082015181840152602081019050613ad5565b60008484015250505050565b6000613b0782613abc565b613b118185613ac7565b9350613b21818560208601613ad2565b80840191505092915050565b6000613b398284613afc565b91508190509291505056fea2646970667358221220701ae94f10bc5c508a1c7f6d9042bb4997e6b79c25829cbb7cab3d158f174b8464736f6c63430008180033",
  "devdoc": {
    "errors": {
      "AddressEmptyCode(address)": [
        {
          "details": "There's no code at `target` (it is not a contract)."
        }
      ],
      "AddressInsufficientBalance(address)": [
        {
          "details": "The ETH balance of the account is not enough to perform the operation."
        }
      ],
      "FailedInnerCall()": [
        {
          "details": "A call to an address target failed. The target may have reverted."
        }
      ],
      "OwnableInvalidOwner(address)": [
        {
          "details": "The owner is not a valid owner account. (eg. `address(0)`)"
        }
      ],
      "OwnableUnauthorizedAccount(address)": [
        {
          "details": "The caller account is not authorized to perform an operation."
        }
      ],
      "SafeERC20FailedOperation(address)": [
        {
          "details": "An operation with an ERC20 token failed."
        }
      ]
    },
    "kind": "dev",
    "methods": {
      "owner()": {
        "details": "Returns the address of the current owner."
      },
      "renounceOwnership()": {
        "details": "Leaves the contract without owner. It will not be possible to call `onlyOwner` functions. Can only be called by the current owner. NOTE: Renouncing ownership will leave the contract without an owner, thereby disabling any functionality that is only available to the owner."
      },
      "transferOwnership(address)": {
        "details": "Transfers ownership of the contract to a new account (`newOwner`). Can only be called by the current owner."
      }
    },
    "version": 1
  },
  "userdoc": {
    "kind": "user",
    "methods": {},
    "version": 1
  },
  "storageLayout": {
    "storage": [
      {
        "astId": 8,
        "contract": "contracts/LotteryReader.sol:LotteryReader",
        "label": "_owner",
        "offset": 0,
        "slot": "0",
        "type": "t_address"
      },
      {
        "astId": 4474,
        "contract": "contracts/LotteryReader.sol:LotteryReader",
        "label": "teamAddress",
        "offset": 0,
        "slot": "1",
        "type": "t_address"
      },
      {
        "astId": 2197,
        "contract": "contracts/LotteryReader.sol:LotteryReader",
        "label": "lotteryMaster",
        "offset": 0,
        "slot": "2",
        "type": "t_contract(LotteryMaster)2167"
      }
    ],
    "types": {
      "t_address": {
        "encoding": "inplace",
        "label": "address",
        "numberOfBytes": "20"
      },
      "t_contract(LotteryMaster)2167": {
        "encoding": "inplace",
        "label": "contract LotteryMaster",
        "numberOfBytes": "20"
      }
    }
  }
}