{
  "address": "0x5Ee05B15a4ea36Ee60F89ED193F87AA7bAb9755F",
  "abi": [
    {
      "inputs": [
        {
          "internalType": "address",
          "name": "cyclixRandomizer",
          "type": "address"
        },
        {
          "internalType": "address",
          "name": "lotteryReader",
          "type": "address"
        },
        {
          "internalType": "address",
          "name": "_lotteryRoundCreator",
          "type": "address"
        },
        {
          "internalType": "address",
          "name": "_paymentToken",
          "type": "address"
        },
        {
          "internalType": "uint256",
          "name": "_ticketPrice",
          "type": "uint256"
        },
        {
          "internalType": "bool",
          "name": "_freeRoundsAreEnabled",
          "type": "bool"
        }
      ],
      "stateMutability": "nonpayable",
      "type": "constructor"
    },
    {
      "inputs": [
        {
          "internalType": "address",
          "name": "target",
          "type": "address"
        }
      ],
      "name": "AddressEmptyCode",
      "type": "error"
    },
    {
      "inputs": [
        {
          "internalType": "address",
          "name": "account",
          "type": "address"
        }
      ],
      "name": "AddressInsufficientBalance",
      "type": "error"
    },
    {
      "inputs": [],
      "name": "FailedInnerCall",
      "type": "error"
    },
    {
      "inputs": [
        {
          "internalType": "address",
          "name": "owner",
          "type": "address"
        }
      ],
      "name": "OwnableInvalidOwner",
      "type": "error"
    },
    {
      "inputs": [
        {
          "internalType": "address",
          "name": "account",
          "type": "address"
        }
      ],
      "name": "OwnableUnauthorizedAccount",
      "type": "error"
    },
    {
      "inputs": [
        {
          "internalType": "address",
          "name": "token",
          "type": "address"
        }
      ],
      "name": "SafeERC20FailedOperation",
      "type": "error"
    },
    {
      "anonymous": false,
      "inputs": [
        {
          "indexed": true,
          "internalType": "address",
          "name": "previousOwner",
          "type": "address"
        },
        {
          "indexed": true,
          "internalType": "address",
          "name": "newOwner",
          "type": "address"
        }
      ],
      "name": "OwnershipTransferred",
      "type": "event"
    },
    {
      "inputs": [
        {
          "internalType": "address[]",
          "name": "participant",
          "type": "address[]"
        }
      ],
      "name": "addFreeRound",
      "outputs": [],
      "stateMutability": "nonpayable",
      "type": "function"
    },
    {
      "inputs": [
        {
          "internalType": "uint256",
          "name": "",
          "type": "uint256"
        }
      ],
      "name": "bankWallets",
      "outputs": [
        {
          "internalType": "address",
          "name": "",
          "type": "address"
        }
      ],
      "stateMutability": "view",
      "type": "function"
    },
    {
      "inputs": [
        {
          "internalType": "uint256",
          "name": "chainId",
          "type": "uint256"
        },
        {
          "internalType": "uint16[]",
          "name": "moreTicketNumbers",
          "type": "uint16[]"
        },
        {
          "internalType": "address",
          "name": "referral",
          "type": "address"
        },
        {
          "internalType": "address",
          "name": "buyer",
          "type": "address"
        }
      ],
      "name": "buyTickets",
      "outputs": [],
      "stateMutability": "nonpayable",
      "type": "function"
    },
    {
      "inputs": [],
      "name": "claimVictory",
      "outputs": [],
      "stateMutability": "nonpayable",
      "type": "function"
    },
    {
      "inputs": [
        {
          "internalType": "uint256",
          "name": "_statusEndTime",
          "type": "uint256"
        }
      ],
      "name": "closeRound",
      "outputs": [],
      "stateMutability": "nonpayable",
      "type": "function"
    },
    {
      "inputs": [],
      "name": "counterForBankWallets",
      "outputs": [
        {
          "internalType": "uint16",
          "name": "",
          "type": "uint16"
        }
      ],
      "stateMutability": "view",
      "type": "function"
    },
    {
      "inputs": [
        {
          "internalType": "address",
          "name": "",
          "type": "address"
        }
      ],
      "name": "crossChainOperator",
      "outputs": [
        {
          "internalType": "bool",
          "name": "",
          "type": "bool"
        }
      ],
      "stateMutability": "view",
      "type": "function"
    },
    {
      "inputs": [
        {
          "internalType": "uint256",
          "name": "roundId",
          "type": "uint256"
        },
        {
          "internalType": "uint256",
          "name": "_statusEndTime",
          "type": "uint256"
        }
      ],
      "name": "fetchRoundNumbers",
      "outputs": [],
      "stateMutability": "nonpayable",
      "type": "function"
    },
    {
      "inputs": [
        {
          "internalType": "address",
          "name": "",
          "type": "address"
        }
      ],
      "name": "freeRounds",
      "outputs": [
        {
          "internalType": "uint256",
          "name": "",
          "type": "uint256"
        }
      ],
      "stateMutability": "view",
      "type": "function"
    },
    {
      "inputs": [],
      "name": "freeRoundsAreEnabled",
      "outputs": [
        {
          "internalType": "bool",
          "name": "",
          "type": "bool"
        }
      ],
      "stateMutability": "view",
      "type": "function"
    },
    {
      "inputs": [],
      "name": "lotteryRoundCreator",
      "outputs": [
        {
          "internalType": "contract LotteryRoundCreatorInterface",
          "name": "",
          "type": "address"
        }
      ],
      "stateMutability": "view",
      "type": "function"
    },
    {
      "inputs": [],
      "name": "lotteryStatus",
      "outputs": [
        {
          "internalType": "enum LotteryStatuses",
          "name": "",
          "type": "uint8"
        }
      ],
      "stateMutability": "view",
      "type": "function"
    },
    {
      "inputs": [
        {
          "internalType": "uint256",
          "name": "roundId",
          "type": "uint256"
        },
        {
          "internalType": "uint256",
          "name": "_statusEndTime",
          "type": "uint256"
        }
      ],
      "name": "markWinners",
      "outputs": [],
      "stateMutability": "nonpayable",
      "type": "function"
    },
    {
      "inputs": [],
      "name": "owner",
      "outputs": [
        {
          "internalType": "address",
          "name": "",
          "type": "address"
        }
      ],
      "stateMutability": "view",
      "type": "function"
    },
    {
      "inputs": [],
      "name": "paymentToken",
      "outputs": [
        {
          "internalType": "contract IERC20Metadata",
          "name": "",
          "type": "address"
        }
      ],
      "stateMutability": "view",
      "type": "function"
    },
    {
      "inputs": [],
      "name": "percentageOfReferralWinners",
      "outputs": [
        {
          "internalType": "uint16",
          "name": "",
          "type": "uint16"
        }
      ],
      "stateMutability": "view",
      "type": "function"
    },
    {
      "inputs": [
        {
          "internalType": "uint256",
          "name": "",
          "type": "uint256"
        }
      ],
      "name": "publicRoundRandomNumbersRequestId",
      "outputs": [
        {
          "internalType": "uint256",
          "name": "",
          "type": "uint256"
        }
      ],
      "stateMutability": "view",
      "type": "function"
    },
    {
      "inputs": [],
      "name": "randomizer",
      "outputs": [
        {
          "internalType": "contract CyclixRandomizerInterface",
          "name": "",
          "type": "address"
        }
      ],
      "stateMutability": "view",
      "type": "function"
    },
    {
      "inputs": [],
      "name": "reader",
      "outputs": [
        {
          "internalType": "contract LotteryReaderInterface",
          "name": "",
          "type": "address"
        }
      ],
      "stateMutability": "view",
      "type": "function"
    },
    {
      "inputs": [],
      "name": "renounceOwnership",
      "outputs": [],
      "stateMutability": "nonpayable",
      "type": "function"
    },
    {
      "inputs": [],
      "name": "roundCount",
      "outputs": [
        {
          "internalType": "uint256",
          "name": "",
          "type": "uint256"
        }
      ],
      "stateMutability": "view",
      "type": "function"
    },
    {
      "inputs": [
        {
          "internalType": "uint256",
          "name": "",
          "type": "uint256"
        }
      ],
      "name": "rounds",
      "outputs": [
        {
          "internalType": "address",
          "name": "",
          "type": "address"
        }
      ],
      "stateMutability": "view",
      "type": "function"
    },
    {
      "inputs": [],
      "name": "sendCryptoToTeam",
      "outputs": [],
      "stateMutability": "nonpayable",
      "type": "function"
    },
    {
      "inputs": [
        {
          "internalType": "address",
          "name": "_token",
          "type": "address"
        }
      ],
      "name": "sendTokenToTeam",
      "outputs": [],
      "stateMutability": "nonpayable",
      "type": "function"
    },
    {
      "inputs": [
        {
          "internalType": "address",
          "name": "wallet",
          "type": "address"
        },
        {
          "internalType": "bool",
          "name": "add",
          "type": "bool"
        }
      ],
      "name": "setBankWallet",
      "outputs": [],
      "stateMutability": "nonpayable",
      "type": "function"
    },
    {
      "inputs": [
        {
          "internalType": "address",
          "name": "operator",
          "type": "address"
        },
        {
          "internalType": "bool",
          "name": "value",
          "type": "bool"
        }
      ],
      "name": "setCrossChainOperator",
      "outputs": [],
      "stateMutability": "nonpayable",
      "type": "function"
    },
    {
      "inputs": [
        {
          "internalType": "uint256",
          "name": "_statusEndTime",
          "type": "uint256"
        }
      ],
      "name": "startNewRound",
      "outputs": [],
      "stateMutability": "nonpayable",
      "type": "function"
    },
    {
      "inputs": [],
      "name": "statusEndTime",
      "outputs": [
        {
          "internalType": "uint256",
          "name": "",
          "type": "uint256"
        }
      ],
      "stateMutability": "view",
      "type": "function"
    },
    {
      "inputs": [],
      "name": "statusStartTime",
      "outputs": [
        {
          "internalType": "uint256",
          "name": "",
          "type": "uint256"
        }
      ],
      "stateMutability": "view",
      "type": "function"
    },
    {
      "inputs": [],
      "name": "ticketPrice",
      "outputs": [
        {
          "internalType": "uint256",
          "name": "",
          "type": "uint256"
        }
      ],
      "stateMutability": "view",
      "type": "function"
    },
    {
      "inputs": [
        {
          "internalType": "address",
          "name": "newOwner",
          "type": "address"
        }
      ],
      "name": "transferOwnership",
      "outputs": [],
      "stateMutability": "nonpayable",
      "type": "function"
    },
    {
      "inputs": [
        {
          "internalType": "address",
          "name": "cyclixRandomizer",
          "type": "address"
        },
        {
          "internalType": "address",
          "name": "lotteryReader",
          "type": "address"
        },
        {
          "internalType": "address",
          "name": "_lotteryRoundCreator",
          "type": "address"
        },
        {
          "internalType": "address",
          "name": "_paymentToken",
          "type": "address"
        },
        {
          "internalType": "uint256",
          "name": "_ticketPrice",
          "type": "uint256"
        },
        {
          "internalType": "uint16",
          "name": "_percentageOfReferralWinners",
          "type": "uint16"
        },
        {
          "internalType": "uint16[]",
          "name": "_poolPercentagesBasePoints",
          "type": "uint16[]"
        },
        {
          "internalType": "bool",
          "name": "_freeRoundsAreEnabled",
          "type": "bool"
        }
      ],
      "name": "updateSetup",
      "outputs": [],
      "stateMutability": "nonpayable",
      "type": "function"
    },
    {
      "inputs": [
        {
          "internalType": "address",
          "name": "_teamAddress",
          "type": "address"
        }
      ],
      "name": "updateTeamAddress",
      "outputs": [],
      "stateMutability": "nonpayable",
      "type": "function"
    }
  ],
  "transactionHash": "0xe4cc88602bce1934c986ac610ddc4f13da5eb72252704c9a1c79c61e8334b1d8",
  "args": [
    "0xF12865c7230B38Bbae9586d04d2Fdfc2Bb550a2f",
    "0x76e3C6b8eBDBf88C4AEf09A073cA6203F271DF23",
    "0xDe6006792A81d465B76790d73c8a6AF993d9A417",
    "0xfdf4DA048363154668b666bFda60Db6aE86b2480",
    10,
    true
  ],
  "numDeployments": 1,
  "solcInputHash": "f868c97bd542c2ceb465b7d2b22bdbc2",
  "bytecode": "0x60806040526000600f60006101000a81548160ff021916908315150217905550600a600f60016101000a81548161ffff021916908361ffff1602179055503480156200004a57600080fd5b5060405162005a9f38038062005a9f8339818101604052810190620000709190620005b7565b3380600073ffffffffffffffffffffffffffffffffffffffff168173ffffffffffffffffffffffffffffffffffffffff1603620000e75760006040517f1e4fbdf7000000000000000000000000000000000000000000000000000000008152600401620000de919062000664565b60405180910390fd5b620000f8816200041160201b60201c565b5080600160006101000a81548173ffffffffffffffffffffffffffffffffffffffff021916908373ffffffffffffffffffffffffffffffffffffffff1602179055505085600c60006101000a81548173ffffffffffffffffffffffffffffffffffffffff021916908373ffffffffffffffffffffffffffffffffffffffff160217905550600c60009054906101000a900473ffffffffffffffffffffffffffffffffffffffff1673ffffffffffffffffffffffffffffffffffffffff1663cd0f2311306040518263ffffffff1660e01b8152600401620001d99190620006e2565b600060405180830381600087803b158015620001f457600080fd5b505af115801562000209573d6000803e3d6000fd5b5050505084600d60006101000a81548173ffffffffffffffffffffffffffffffffffffffff021916908373ffffffffffffffffffffffffffffffffffffffff16021790555083600f60036101000a81548173ffffffffffffffffffffffffffffffffffffffff021916908373ffffffffffffffffffffffffffffffffffffffff16021790555082600b60006101000a81548173ffffffffffffffffffffffffffffffffffffffff021916908373ffffffffffffffffffffffffffffffffffffffff160217905550600b60009054906101000a900473ffffffffffffffffffffffffffffffffffffffff1673ffffffffffffffffffffffffffffffffffffffff1663313ce5676040518163ffffffff1660e01b8152600401602060405180830381865afa1580156200033e573d6000803e3d6000fd5b505050506040513d601f19601f8201168201806040525081019062000364919062000752565b60ff16600a62000375919062000907565b8262000382919062000958565b600e8190555080600f60006101000a81548160ff021916908315150217905550600a339080600181540180825580915050600190039060005260206000200160009091909190916101000a81548173ffffffffffffffffffffffffffffffffffffffff021916908373ffffffffffffffffffffffffffffffffffffffff160217905550505050505050620009a3565b60008060009054906101000a900473ffffffffffffffffffffffffffffffffffffffff169050816000806101000a81548173ffffffffffffffffffffffffffffffffffffffff021916908373ffffffffffffffffffffffffffffffffffffffff1602179055508173ffffffffffffffffffffffffffffffffffffffff168173ffffffffffffffffffffffffffffffffffffffff167f8be0079c531659141344cd1fd0a4f28419497f9722a3daafe3b4186f6b6457e060405160405180910390a35050565b600080fd5b600073ffffffffffffffffffffffffffffffffffffffff82169050919050565b60006200050782620004da565b9050919050565b6200051981620004fa565b81146200052557600080fd5b50565b60008151905062000539816200050e565b92915050565b6000819050919050565b62000554816200053f565b81146200056057600080fd5b50565b600081519050620005748162000549565b92915050565b60008115159050919050565b62000591816200057a565b81146200059d57600080fd5b50565b600081519050620005b18162000586565b92915050565b60008060008060008060c08789031215620005d757620005d6620004d5565b5b6000620005e789828a0162000528565b9650506020620005fa89828a0162000528565b95505060406200060d89828a0162000528565b94505060606200062089828a0162000528565b93505060806200063389828a0162000563565b92505060a06200064689828a01620005a0565b9150509295509295509295565b6200065e81620004fa565b82525050565b60006020820190506200067b600083018462000653565b92915050565b600082825260208201905092915050565b7f4c6f74746572794d617374657256302e31000000000000000000000000000000600082015250565b6000620006ca60118362000681565b9150620006d78262000692565b602082019050919050565b6000604082019050620006f9600083018462000653565b81810360208301526200070c81620006bb565b905092915050565b600060ff82169050919050565b6200072c8162000714565b81146200073857600080fd5b50565b6000815190506200074c8162000721565b92915050565b6000602082840312156200076b576200076a620004d5565b5b60006200077b848285016200073b565b91505092915050565b7f4e487b7100000000000000000000000000000000000000000000000000000000600052601160045260246000fd5b60008160011c9050919050565b6000808291508390505b60018511156200081257808604811115620007ea57620007e962000784565b5b6001851615620007fa5780820291505b80810290506200080a85620007b3565b9450620007ca565b94509492505050565b6000826200082d576001905062000900565b816200083d576000905062000900565b8160018114620008565760028114620008615762000897565b600191505062000900565b60ff84111562000876576200087562000784565b5b8360020a91508482111562000890576200088f62000784565b5b5062000900565b5060208310610133831016604e8410600b8410161715620008d15782820a905083811115620008cb57620008ca62000784565b5b62000900565b620008e08484846001620007c0565b92509050818404811115620008fa57620008f962000784565b5b81810290505b9392505050565b600062000914826200053f565b915062000921836200053f565b9250620009507fffffffffffffffffffffffffffffffffffffffffffffffffffffffffffffffff84846200081b565b905092915050565b600062000965826200053f565b915062000972836200053f565b925082820262000982816200053f565b915082820484148315176200099c576200099b62000784565b5b5092915050565b6150ec80620009b36000396000f3fe608060405234801561001057600080fd5b50600436106101fb5760003560e01c806387da46f11161011a578063b62fe01b116100ad578063d4fc42c61161007c578063d4fc42c614610550578063e03d753a1461056e578063f10fb5841461058c578063f2fde38b146105aa578063f4dec22b146105c6576101fb565b8063b62fe01b146104de578063bbd1783a146104fa578063c96acb5a14610504578063cedd1bc314610520576101fb565b806392566fdd116100e957806392566fdd1461046c578063998da3e91461048a578063a8eed12d146104a6578063b33d8c54146104c2576101fb565b806387da46f1146103e457806388e01a98146104025780638c65c81f1461041e5780638da5cb5b1461044e576101fb565b8063258799f81161019257806362cd30d11161016157806362cd30d114610372578063715018a61461038e57806375e5460d146103985780637a5ed721146103c8576101fb565b8063258799f8146102ea5780633013ce291461031a5780633fda7d95146103385780634615102c14610356576101fb565b80631abddf33116101ce5780631abddf33146102765780631ed15aa4146102805780631fcebf681461029c57806322429429146102cc576101fb565b80630d683dd9146102005780631209b1f61461021e578063127f0b3f1461023c57806314eb76ac1461025a575b600080fd5b6102086105e4565b60405161021591906131c0565b60405180910390f35b6102266105f7565b60405161023391906131f4565b60405180910390f35b6102446105fd565b60405161025191906131f4565b60405180910390f35b610274600480360381019061026f9190613281565b610603565b005b61027e61064f565b005b61029a600480360381019061029591906132e6565b610c3e565b005b6102b660048036038101906102b19190613281565b610e84565b6040516102c391906131f4565b60405180910390f35b6102d4610e9c565b6040516102e191906131f4565b60405180910390f35b61030460048036038101906102ff9190613352565b610ea2565b604051610311919061338e565b60405180910390f35b610322610ee1565b60405161032f9190613408565b60405180910390f35b610340610f07565b60405161034d91906131f4565b60405180910390f35b610370600480360381019061036b9190613352565b610f0d565b005b61038c600480360381019061038791906135b6565b61121e565b005b6103966115b6565b005b6103b260048036038101906103ad9190613281565b6115ca565b6040516103bf9190613697565b60405180910390f35b6103e260048036038101906103dd91906136b2565b6115ea565b005b6103ec611860565b6040516103f99190613756565b60405180910390f35b61041c60048036038101906104179190613352565b611886565b005b61043860048036038101906104339190613352565b611ab4565b604051610445919061338e565b60405180910390f35b610456611af3565b604051610463919061338e565b60405180910390f35b610474611b1c565b6040516104819190613780565b60405180910390f35b6104a4600480360381019061049f9190613281565b611b30565b005b6104c060048036038101906104bb91906132e6565b611bf1565b005b6104dc60048036038101906104d791906137f6565b611c54565b005b6104f860048036038101906104f39190613843565b611cf8565b005b6105026122bb565b005b61051e60048036038101906105199190613843565b612338565b005b61053a60048036038101906105359190613352565b612546565b60405161054791906131f4565b60405180910390f35b61055861255e565b60405161056591906138a4565b60405180910390f35b610576612584565b6040516105839190613697565b60405180910390f35b610594612597565b6040516105a191906138e0565b60405180910390f35b6105c460048036038101906105bf9190613281565b6125bd565b005b6105ce612643565b6040516105db9190613780565b60405180910390f35b600460009054906101000a900460ff1681565b600e5481565b60025481565b61060b612657565b80600160006101000a81548173ffffffffffffffffffffffffffffffffffffffff021916908373ffffffffffffffffffffffffffffffffffffffff16021790555050565b60038081111561066257610661613149565b5b600460009054906101000a900460ff16600381111561068457610683613149565b5b146106c4576040517f08c379a00000000000000000000000000000000000000000000000000000000081526004016106bb90613958565b60405180910390fd5b4260065411610708576040517f08c379a00000000000000000000000000000000000000000000000000000000081526004016106ff906139c4565b60405180910390fd5b6000600d60009054906101000a900473ffffffffffffffffffffffffffffffffffffffff1673ffffffffffffffffffffffffffffffffffffffff1663b7991e336002543360006040518463ffffffff1660e01b815260040161076c939291906139e4565b602060405180830381865afa158015610789573d6000803e3d6000fd5b505050506040513d601f19601f820116820180604052508101906107ad9190613a30565b90506000600d60009054906101000a900473ffffffffffffffffffffffffffffffffffffffff1673ffffffffffffffffffffffffffffffffffffffff1663a521dc956002543360006040518463ffffffff1660e01b8152600401610813939291906139e4565b602060405180830381865afa158015610830573d6000803e3d6000fd5b505050506040513d601f19601f820116820180604052508101906108549190613a30565b905060008211806108655750600081115b6108a4576040517f08c379a000000000000000000000000000000000000000000000000000000000815260040161089b90613aa9565b60405180910390fd5b80826108b09190613af8565b600b60009054906101000a900473ffffffffffffffffffffffffffffffffffffffff1673ffffffffffffffffffffffffffffffffffffffff166370a08231306040518263ffffffff1660e01b815260040161090b919061338e565b602060405180830381865afa158015610928573d6000803e3d6000fd5b505050506040513d601f19601f8201168201806040525081019061094c9190613a30565b101561098d576040517f08c379a000000000000000000000000000000000000000000000000000000000815260040161098490613b78565b60405180910390fd5b6003600160025461099e9190613b98565b815481106109af576109ae613bcc565b5b9060005260206000200160009054906101000a900473ffffffffffffffffffffffffffffffffffffffff1673ffffffffffffffffffffffffffffffffffffffff1663b82e18ff600d60009054906101000a900473ffffffffffffffffffffffffffffffffffffffff1673ffffffffffffffffffffffffffffffffffffffff1663eed25896600254336040518363ffffffff1660e01b8152600401610a54929190613bfb565b600060405180830381865afa158015610a71573d6000803e3d6000fd5b505050506040513d6000823e3d601f19601f82011682018060405250810190610a9a9190613de0565b600d60009054906101000a900473ffffffffffffffffffffffffffffffffffffffff1673ffffffffffffffffffffffffffffffffffffffff166317ba3b7d600254336040518363ffffffff1660e01b8152600401610af9929190613bfb565b600060405180830381865afa158015610b16573d6000803e3d6000fd5b505050506040513d6000823e3d601f19601f82011682018060405250810190610b3f9190613fa0565b6040518363ffffffff1660e01b8152600401610b5c9291906142c5565b600060405180830381600087803b158015610b7657600080fd5b505af1158015610b8a573d6000803e3d6000fd5b50505050600b60009054906101000a900473ffffffffffffffffffffffffffffffffffffffff1673ffffffffffffffffffffffffffffffffffffffff1663a9059cbb338385610bd99190613af8565b6040518363ffffffff1660e01b8152600401610bf69291906142fc565b6020604051808303816000875af1158015610c15573d6000803e3d6000fd5b505050506040513d601f19601f82011682018060405250810190610c399190614325565b505050565b610c46612657565b60005b600a80549050811015610e15578273ffffffffffffffffffffffffffffffffffffffff16600a8281548110610c8157610c80613bcc565b5b9060005260206000200160009054906101000a900473ffffffffffffffffffffffffffffffffffffffff1673ffffffffffffffffffffffffffffffffffffffff1603610e08578115610d13576000610d0e576040517f08c379a0000000000000000000000000000000000000000000000000000000008152600401610d059061439e565b60405180910390fd5b610e07565b600a6001600a80549050610d279190613b98565b81548110610d3857610d37613bcc565b5b9060005260206000200160009054906101000a900473ffffffffffffffffffffffffffffffffffffffff16600a8281548110610d7757610d76613bcc565b5b9060005260206000200160006101000a81548173ffffffffffffffffffffffffffffffffffffffff021916908373ffffffffffffffffffffffffffffffffffffffff160217905550600a805480610dd157610dd06143be565b5b6001900381819060005260206000200160006101000a81549073ffffffffffffffffffffffffffffffffffffffff021916905590555b5b8080600101915050610c49565b508015610e8057600a829080600181540180825580915050600190039060005260206000200160009091909190916101000a81548173ffffffffffffffffffffffffffffffffffffffff021916908373ffffffffffffffffffffffffffffffffffffffff1602179055505b5050565b60076020528060005260406000206000915090505481565b60065481565b600a8181548110610eb257600080fd5b906000526020600020016000915054906101000a900473ffffffffffffffffffffffffffffffffffffffff1681565b600b60009054906101000a900473ffffffffffffffffffffffffffffffffffffffff1681565b60055481565b610f15612657565b60026000815480929190610f28906143ed565b91905055506001600254111561110c576003600f60039054906101000a900473ffffffffffffffffffffffffffffffffffffffff1673ffffffffffffffffffffffffffffffffffffffff166363ea940f83600360028054610f899190613b98565b81548110610f9a57610f99613bcc565b5b9060005260206000200160009054906101000a900473ffffffffffffffffffffffffffffffffffffffff166040518363ffffffff1660e01b8152600401610fe2929190613bfb565b6020604051808303816000875af1158015611001573d6000803e3d6000fd5b505050506040513d601f19601f820116820180604052508101906110259190614435565b9080600181540180825580915050600190039060005260206000200160009091909190916101000a81548173ffffffffffffffffffffffffffffffffffffffff021916908373ffffffffffffffffffffffffffffffffffffffff16021790555060038081111561109857611097613149565b5b600460009054906101000a900460ff1660038111156110ba576110b9613149565b5b1480156110c8575042600654105b611107576040517f08c379a00000000000000000000000000000000000000000000000000000000081526004016110fe906144ae565b60405180910390fd5b611210565b6003600f60039054906101000a900473ffffffffffffffffffffffffffffffffffffffff1673ffffffffffffffffffffffffffffffffffffffff166363ea940f8360006040518363ffffffff1660e01b815260040161116c929190613bfb565b6020604051808303816000875af115801561118b573d6000803e3d6000fd5b505050506040513d601f19601f820116820180604052508101906111af9190614435565b9080600181540180825580915050600190039060005260206000200160009091909190916101000a81548173ffffffffffffffffffffffffffffffffffffffff021916908373ffffffffffffffffffffffffffffffffffffffff1602179055505b61121b6000826126de565b50565b611226612657565b8773ffffffffffffffffffffffffffffffffffffffff16600c60009054906101000a900473ffffffffffffffffffffffffffffffffffffffff1673ffffffffffffffffffffffffffffffffffffffff161461134a5787600c60006101000a81548173ffffffffffffffffffffffffffffffffffffffff021916908373ffffffffffffffffffffffffffffffffffffffff160217905550600c60009054906101000a900473ffffffffffffffffffffffffffffffffffffffff1673ffffffffffffffffffffffffffffffffffffffff1663cd0f2311306040518263ffffffff1660e01b8152600401611317919061451a565b600060405180830381600087803b15801561133157600080fd5b505af1158015611345573d6000803e3d6000fd5b505050505b86600d60006101000a81548173ffffffffffffffffffffffffffffffffffffffff021916908373ffffffffffffffffffffffffffffffffffffffff16021790555085600f60036101000a81548173ffffffffffffffffffffffffffffffffffffffff021916908373ffffffffffffffffffffffffffffffffffffffff16021790555084600b60006101000a81548173ffffffffffffffffffffffffffffffffffffffff021916908373ffffffffffffffffffffffffffffffffffffffff160217905550600b60009054906101000a900473ffffffffffffffffffffffffffffffffffffffff1673ffffffffffffffffffffffffffffffffffffffff1663313ce5676040518163ffffffff1660e01b8152600401602060405180830381865afa15801561147a573d6000803e3d6000fd5b505050506040513d601f19601f8201168201806040525081019061149e9190614581565b60ff16600a6114ad91906146e1565b846114b8919061472c565b600e8190555082600f60016101000a81548161ffff021916908361ffff160217905550600360016002546114ec9190613b98565b815481106114fd576114fc613bcc565b5b9060005260206000200160009054906101000a900473ffffffffffffffffffffffffffffffffffffffff1673ffffffffffffffffffffffffffffffffffffffff16639469f293836040518263ffffffff1660e01b8152600401611560919061482c565b600060405180830381600087803b15801561157a57600080fd5b505af115801561158e573d6000803e3d6000fd5b5050505080600f60006101000a81548160ff0219169083151502179055505050505050505050565b6115be612657565b6115c8600061272d565b565b60086020528060005260406000206000915054906101000a900460ff1681565b6000805b84518110156116d1576000600667ffffffffffffffff81111561161457611613613473565b5b6040519080825280602002602001820160405280156116425781602001602082028036833780820191505090505b50905060005b60068110156116ad5786818461165e9190613af8565b8151811061166f5761166e613bcc565b5b602002602001015182828151811061168a57611689613bcc565b5b602002602001019061ffff16908161ffff16815250508080600101915050611648565b506116ba878287876127f1565b9250506006816116ca9190613af8565b90506115ee565b50600073ffffffffffffffffffffffffffffffffffffffff168373ffffffffffffffffffffffffffffffffffffffff161415801561171b5750600f60009054906101000a900460ff165b8015611725575080155b1561185957600684518161173c5761173b61484e565b5b04600760008473ffffffffffffffffffffffffffffffffffffffff1673ffffffffffffffffffffffffffffffffffffffff1681526020019081526020016000205401600760008473ffffffffffffffffffffffffffffffffffffffff1673ffffffffffffffffffffffffffffffffffffffff1681526020019081526020016000208190555060068451816117d3576117d261484e565b5b04600760008573ffffffffffffffffffffffffffffffffffffffff1673ffffffffffffffffffffffffffffffffffffffff1681526020019081526020016000205401600760008573ffffffffffffffffffffffffffffffffffffffff1673ffffffffffffffffffffffffffffffffffffffff168152602001908152602001600020819055505b5050505050565b600f60039054906101000a900473ffffffffffffffffffffffffffffffffffffffff1681565b61188e612657565b6000600360016002546118a19190613b98565b815481106118b2576118b1613bcc565b5b9060005260206000200160009054906101000a900473ffffffffffffffffffffffffffffffffffffffff1690508073ffffffffffffffffffffffffffffffffffffffff1663e278fe6f6040518163ffffffff1660e01b8152600401600060405180830381600087803b15801561192757600080fd5b505af115801561193b573d6000803e3d6000fd5b505050506000600d60009054906101000a900473ffffffffffffffffffffffffffffffffffffffff1673ffffffffffffffffffffffffffffffffffffffff1663f1664df66002546040518263ffffffff1660e01b815260040161199e91906131f4565b602060405180830381865afa1580156119bb573d6000803e3d6000fd5b505050506040513d601f19601f820116820180604052508101906119df9190614892565b9050600c60009054906101000a900473ffffffffffffffffffffffffffffffffffffffff1673ffffffffffffffffffffffffffffffffffffffff1663e726f2e1826006611a2c91906148bf565b6040518263ffffffff1660e01b8152600401611a489190614936565b6020604051808303816000875af1158015611a67573d6000803e3d6000fd5b505050506040513d601f19601f82011682018060405250810190611a8b9190613a30565b60106000600254815260200190815260200160002081905550611aaf6001846126de565b505050565b60038181548110611ac457600080fd5b906000526020600020016000915054906101000a900473ffffffffffffffffffffffffffffffffffffffff1681565b60008060009054906101000a900473ffffffffffffffffffffffffffffffffffffffff16905090565b600960009054906101000a900461ffff1681565b611b38612657565b60008173ffffffffffffffffffffffffffffffffffffffff166370a08231306040518263ffffffff1660e01b8152600401611b73919061338e565b602060405180830381865afa158015611b90573d6000803e3d6000fd5b505050506040513d601f19601f82011682018060405250810190611bb49190613a30565b90506000811115611bed57611bec82600160009054906101000a900473ffffffffffffffffffffffffffffffffffffffff1683612df2565b5b5050565b611bf9612657565b80600860008473ffffffffffffffffffffffffffffffffffffffff1673ffffffffffffffffffffffffffffffffffffffff16815260200190815260200160002060006101000a81548160ff0219169083151502179055505050565b611c5c612657565b60005b82829050811015611cf35760076000848484818110611c8157611c80613bcc565b5b9050602002016020810190611c969190613281565b73ffffffffffffffffffffffffffffffffffffffff1673ffffffffffffffffffffffffffffffffffffffff1681526020019081526020016000206000815480929190611ce1906143ed565b91905055508080600101915050611c5f565b505050565b611d00612657565b60006003600184611d119190613b98565b81548110611d2257611d21613bcc565b5b9060005260206000200160009054906101000a900473ffffffffffffffffffffffffffffffffffffffff1690508073ffffffffffffffffffffffffffffffffffffffff1663343f25666040518163ffffffff1660e01b815260040160006040518083038186803b158015611d9557600080fd5b505afa158015611da9573d6000803e3d6000fd5b50505050600080600c60009054906101000a900473ffffffffffffffffffffffffffffffffffffffff1673ffffffffffffffffffffffffffffffffffffffff1663d8a4676f60106000888152602001908152602001600020546040518263ffffffff1660e01b8152600401611e1e91906131f4565b600060405180830381865afa158015611e3b573d6000803e3d6000fd5b505050506040513d6000823e3d601f19601f82011682018060405250810190611e649190614a14565b9150915081611ea8576040517f08c379a0000000000000000000000000000000000000000000000000000000008152600401611e9f90614abc565b60405180910390fd5b6000600667ffffffffffffffff811115611ec557611ec4613473565b5b604051908082528060200260200182016040528015611ef35781602001602082028036833780820191505090505b509050600060068351611f069190613b98565b67ffffffffffffffff811115611f1f57611f1e613473565b5b604051908082528060200260200182016040528015611f4d5781602001602082028036833780820191505090505b509050831561223a5760005b600681101561205357600d60009054906101000a900473ffffffffffffffffffffffffffffffffffffffff1673ffffffffffffffffffffffffffffffffffffffff16630c746a8a858381518110611fb357611fb2613bcc565b5b60200260200101516045866040518463ffffffff1660e01b8152600401611fdc93929190614b17565b602060405180830381865afa158015611ff9573d6000803e3d6000fd5b505050506040513d601f19601f8201168201806040525081019061201d9190614892565b8382815181106120305761202f613bcc565b5b602002602001019061ffff16908161ffff16815250508080600101915050611f59565b506001601a8460058151811061206c5761206b613bcc565b5b602002602001015161207e9190614b55565b6120889190613af8565b8260058151811061209c5761209b613bcc565b5b602002602001019061ffff16908161ffff16815250506000600690505b835181101561223857600d60009054906101000a900473ffffffffffffffffffffffffffffffffffffffff1673ffffffffffffffffffffffffffffffffffffffff16630c746a8a85838151811061211357612112613bcc565b5b60200260200101518873ffffffffffffffffffffffffffffffffffffffff16639f8743f76040518163ffffffff1660e01b81526004016000604051808303816000875af1158015612168573d6000803e3d6000fd5b505050506040513d6000823e3d601f19601f820116820180604052508101906121919190614d99565b6101400151856040518463ffffffff1660e01b81526004016121b593929190614de2565b602060405180830381865afa1580156121d2573d6000803e3d6000fd5b505050506040513d601f19601f820116820180604052508101906121f69190614892565b826006836122049190613b98565b8151811061221557612214613bcc565b5b602002602001019061ffff16908161ffff168152505080806001019150506120b9565b505b8473ffffffffffffffffffffffffffffffffffffffff16632724d10483836040518363ffffffff1660e01b8152600401612275929190614e20565b600060405180830381600087803b15801561228f57600080fd5b505af11580156122a3573d6000803e3d6000fd5b505050506122b26002876126de565b50505050505050565b6122c3612657565b600047111561233657600160009054906101000a900473ffffffffffffffffffffffffffffffffffffffff1673ffffffffffffffffffffffffffffffffffffffff166108fc479081150290604051600060405180830381858888f19350505050158015612334573d6000803e3d6000fd5b505b565b612340612657565b600360018361234f9190613b98565b815481106123605761235f613bcc565b5b9060005260206000200160009054906101000a900473ffffffffffffffffffffffffffffffffffffffff1673ffffffffffffffffffffffffffffffffffffffff166327e4de61600d60009054906101000a900473ffffffffffffffffffffffffffffffffffffffff1673ffffffffffffffffffffffffffffffffffffffff16639f75e5c9856040518263ffffffff1660e01b815260040161240191906131f4565b600060405180830381865afa15801561241e573d6000803e3d6000fd5b505050506040513d6000823e3d601f19601f820116820180604052508101906124479190613de0565b600d60009054906101000a900473ffffffffffffffffffffffffffffffffffffffff1673ffffffffffffffffffffffffffffffffffffffff166348b2e35c866040518263ffffffff1660e01b81526004016124a291906131f4565b600060405180830381865afa1580156124bf573d6000803e3d6000fd5b505050506040513d6000823e3d601f19601f820116820180604052508101906124e89190613fa0565b6040518363ffffffff1660e01b81526004016125059291906142c5565b600060405180830381600087803b15801561251f57600080fd5b505af1158015612533573d6000803e3d6000fd5b505050506125426003826126de565b5050565b60106020528060005260406000206000915090505481565b600d60009054906101000a900473ffffffffffffffffffffffffffffffffffffffff1681565b600f60009054906101000a900460ff1681565b600c60009054906101000a900473ffffffffffffffffffffffffffffffffffffffff1681565b6125c5612657565b600073ffffffffffffffffffffffffffffffffffffffff168173ffffffffffffffffffffffffffffffffffffffff16036126375760006040517f1e4fbdf700000000000000000000000000000000000000000000000000000000815260040161262e919061338e565b60405180910390fd5b6126408161272d565b50565b600f60019054906101000a900461ffff1681565b61265f612e71565b73ffffffffffffffffffffffffffffffffffffffff1661267d611af3565b73ffffffffffffffffffffffffffffffffffffffff16146126dc576126a0612e71565b6040517f118cdaa70000000000000000000000000000000000000000000000000000000081526004016126d3919061338e565b60405180910390fd5b565b6126e6612657565b81600460006101000a81548160ff0219169083600381111561270b5761270a613149565b5b02179055504260058190555080426127239190613af8565b6006819055505050565b60008060009054906101000a900473ffffffffffffffffffffffffffffffffffffffff169050816000806101000a81548173ffffffffffffffffffffffffffffffffffffffff021916908373ffffffffffffffffffffffffffffffffffffffff1602179055508173ffffffffffffffffffffffffffffffffffffffff168173ffffffffffffffffffffffffffffffffffffffff167f8be0079c531659141344cd1fd0a4f28419497f9722a3daafe3b4186f6b6457e060405160405180910390a35050565b600080600760008473ffffffffffffffffffffffffffffffffffffffff1673ffffffffffffffffffffffffffffffffffffffff1681526020019081526020016000205411806128df5750600e54600b60009054906101000a900473ffffffffffffffffffffffffffffffffffffffff1673ffffffffffffffffffffffffffffffffffffffff1663dd62ed3e84306040518363ffffffff1660e01b815260040161289b929190614e57565b602060405180830381865afa1580156128b8573d6000803e3d6000fd5b505050506040513d601f19601f820116820180604052508101906128dc9190613a30565b10155b806129335750600860003373ffffffffffffffffffffffffffffffffffffffff1673ffffffffffffffffffffffffffffffffffffffff16815260200190815260200160002060009054906101000a900460ff165b612972576040517f08c379a000000000000000000000000000000000000000000000000000000000815260040161296990614ecc565b60405180910390fd5b6000600360016002546129859190613b98565b8154811061299657612995613bcc565b5b9060005260206000200160009054906101000a900473ffffffffffffffffffffffffffffffffffffffff169050600080600760008673ffffffffffffffffffffffffffffffffffffffff1673ffffffffffffffffffffffffffffffffffffffff168152602001908152602001600020541115612a6a57600760008573ffffffffffffffffffffffffffffffffffffffff1673ffffffffffffffffffffffffffffffffffffffff1681526020019081526020016000206000815480929190612a5c90614eec565b919050555060019050612cf6565b600860003373ffffffffffffffffffffffffffffffffffffffff1673ffffffffffffffffffffffffffffffffffffffff16815260200190815260200160002060009054906101000a900460ff16612c8857600e54600b60009054906101000a900473ffffffffffffffffffffffffffffffffffffffff1673ffffffffffffffffffffffffffffffffffffffff166370a08231326040518263ffffffff1660e01b8152600401612b19919061338e565b602060405180830381865afa158015612b36573d6000803e3d6000fd5b505050506040513d601f19601f82011682018060405250810190612b5a9190613a30565b1015612b9b576040517f08c379a0000000000000000000000000000000000000000000000000000000008152600401612b9290614f61565b60405180910390fd5b600a805490506009600081819054906101000a900461ffff1680929190612bc190614f81565b91906101000a81548161ffff021916908361ffff16021790555061ffff16612be99190614b55565b600960006101000a81548161ffff021916908361ffff160217905550612c87600b60009054906101000a900473ffffffffffffffffffffffffffffffffffffffff1685600a600960009054906101000a900461ffff1661ffff1681548110612c5457612c53613bcc565b5b9060005260206000200160009054906101000a900473ffffffffffffffffffffffffffffffffffffffff16600e54612e79565b5b8173ffffffffffffffffffffffffffffffffffffffff1663b56c12b4600e546040518263ffffffff1660e01b8152600401612cc391906131f4565b600060405180830381600087803b158015612cdd57600080fd5b505af1158015612cf1573d6000803e3d6000fd5b505050505b8015612d73578173ffffffffffffffffffffffffffffffffffffffff1663eb7165fa88886000886040518563ffffffff1660e01b8152600401612d3c9493929190614fab565b600060405180830381600087803b158015612d5657600080fd5b505af1158015612d6a573d6000803e3d6000fd5b50505050612de5565b8173ffffffffffffffffffffffffffffffffffffffff1663eb7165fa888888886040518563ffffffff1660e01b8152600401612db29493929190614fab565b600060405180830381600087803b158015612dcc57600080fd5b505af1158015612de0573d6000803e3d6000fd5b505050505b8092505050949350505050565b612e6c838473ffffffffffffffffffffffffffffffffffffffff1663a9059cbb8585604051602401612e259291906142fc565b604051602081830303815290604052915060e01b6020820180517bffffffffffffffffffffffffffffffffffffffffffffffffffffffff8381831617835250505050612efb565b505050565b600033905090565b612ef5848573ffffffffffffffffffffffffffffffffffffffff166323b872dd868686604051602401612eae93929190614ff7565b604051602081830303815290604052915060e01b6020820180517bffffffffffffffffffffffffffffffffffffffffffffffffffffffff8381831617835250505050612efb565b50505050565b6000612f26828473ffffffffffffffffffffffffffffffffffffffff16612f9290919063ffffffff16565b90506000815114158015612f4b575080806020019051810190612f499190614325565b155b15612f8d57826040517f5274afe7000000000000000000000000000000000000000000000000000000008152600401612f84919061338e565b60405180910390fd5b505050565b6060612fa083836000612fa8565b905092915050565b606081471015612fef57306040517fcd786059000000000000000000000000000000000000000000000000000000008152600401612fe6919061338e565b60405180910390fd5b6000808573ffffffffffffffffffffffffffffffffffffffff168486604051613018919061509f565b60006040518083038185875af1925050503d8060008114613055576040519150601f19603f3d011682016040523d82523d6000602084013e61305a565b606091505b509150915061306a868383613075565b925050509392505050565b60608261308a5761308582613104565b6130fc565b600082511480156130b2575060008473ffffffffffffffffffffffffffffffffffffffff163b145b156130f457836040517f9996b3150000000000000000000000000000000000000000000000000000000081526004016130eb919061338e565b60405180910390fd5b8190506130fd565b5b9392505050565b6000815111156131175780518082602001fd5b6040517f1425ea4200000000000000000000000000000000000000000000000000000000815260040160405180910390fd5b7f4e487b7100000000000000000000000000000000000000000000000000000000600052602160045260246000fd5b6004811061318957613188613149565b5b50565b600081905061319a82613178565b919050565b60006131aa8261318c565b9050919050565b6131ba8161319f565b82525050565b60006020820190506131d560008301846131b1565b92915050565b6000819050919050565b6131ee816131db565b82525050565b600060208201905061320960008301846131e5565b92915050565b6000604051905090565b600080fd5b600080fd5b600073ffffffffffffffffffffffffffffffffffffffff82169050919050565b600061324e82613223565b9050919050565b61325e81613243565b811461326957600080fd5b50565b60008135905061327b81613255565b92915050565b60006020828403121561329757613296613219565b5b60006132a58482850161326c565b91505092915050565b60008115159050919050565b6132c3816132ae565b81146132ce57600080fd5b50565b6000813590506132e0816132ba565b92915050565b600080604083850312156132fd576132fc613219565b5b600061330b8582860161326c565b925050602061331c858286016132d1565b9150509250929050565b61332f816131db565b811461333a57600080fd5b50565b60008135905061334c81613326565b92915050565b60006020828403121561336857613367613219565b5b60006133768482850161333d565b91505092915050565b61338881613243565b82525050565b60006020820190506133a3600083018461337f565b92915050565b6000819050919050565b60006133ce6133c96133c484613223565b6133a9565b613223565b9050919050565b60006133e0826133b3565b9050919050565b60006133f2826133d5565b9050919050565b613402816133e7565b82525050565b600060208201905061341d60008301846133f9565b92915050565b600061ffff82169050919050565b61343a81613423565b811461344557600080fd5b50565b60008135905061345781613431565b92915050565b600080fd5b6000601f19601f8301169050919050565b7f4e487b7100000000000000000000000000000000000000000000000000000000600052604160045260246000fd5b6134ab82613462565b810181811067ffffffffffffffff821117156134ca576134c9613473565b5b80604052505050565b60006134dd61320f565b90506134e982826134a2565b919050565b600067ffffffffffffffff82111561350957613508613473565b5b602082029050602081019050919050565b600080fd5b600061353261352d846134ee565b6134d3565b905080838252602082019050602084028301858111156135555761355461351a565b5b835b8181101561357e578061356a8882613448565b845260208401935050602081019050613557565b5050509392505050565b600082601f83011261359d5761359c61345d565b5b81356135ad84826020860161351f565b91505092915050565b600080600080600080600080610100898b0312156135d7576135d6613219565b5b60006135e58b828c0161326c565b98505060206135f68b828c0161326c565b97505060406136078b828c0161326c565b96505060606136188b828c0161326c565b95505060806136298b828c0161333d565b94505060a061363a8b828c01613448565b93505060c089013567ffffffffffffffff81111561365b5761365a61321e565b5b6136678b828c01613588565b92505060e06136788b828c016132d1565b9150509295985092959890939650565b613691816132ae565b82525050565b60006020820190506136ac6000830184613688565b92915050565b600080600080608085870312156136cc576136cb613219565b5b60006136da8782880161333d565b945050602085013567ffffffffffffffff8111156136fb576136fa61321e565b5b61370787828801613588565b93505060406137188782880161326c565b92505060606137298782880161326c565b91505092959194509250565b6000613740826133d5565b9050919050565b61375081613735565b82525050565b600060208201905061376b6000830184613747565b92915050565b61377a81613423565b82525050565b60006020820190506137956000830184613771565b92915050565b600080fd5b60008083601f8401126137b6576137b561345d565b5b8235905067ffffffffffffffff8111156137d3576137d261379b565b5b6020830191508360208202830111156137ef576137ee61351a565b5b9250929050565b6000806020838503121561380d5761380c613219565b5b600083013567ffffffffffffffff81111561382b5761382a61321e565b5b613837858286016137a0565b92509250509250929050565b6000806040838503121561385a57613859613219565b5b60006138688582860161333d565b92505060206138798582860161333d565b9150509250929050565b600061388e826133d5565b9050919050565b61389e81613883565b82525050565b60006020820190506138b96000830184613895565b92915050565b60006138ca826133d5565b9050919050565b6138da816138bf565b82525050565b60006020820190506138f560008301846138d1565b92915050565b600082825260208201905092915050565b7f4c6f7474657279206973206e6f7420696e20636c61696d20706572696f640000600082015250565b6000613942601e836138fb565b915061394d8261390c565b602082019050919050565b6000602082019050818103600083015261397181613935565b9050919050565b7f436c61696d20506572696f6420656e6465640000000000000000000000000000600082015250565b60006139ae6012836138fb565b91506139b982613978565b602082019050919050565b600060208201905081810360008301526139dd816139a1565b9050919050565b60006060820190506139f960008301866131e5565b613a06602083018561337f565b613a136040830184613688565b949350505050565b600081519050613a2a81613326565b92915050565b600060208284031215613a4657613a45613219565b5b6000613a5484828501613a1b565b91505092915050565b7f4e6f7468696e6720746f20636c61696d20666f7220746869732077616c6c6574600082015250565b6000613a936020836138fb565b9150613a9e82613a5d565b602082019050919050565b60006020820190508181036000830152613ac281613a86565b9050919050565b7f4e487b7100000000000000000000000000000000000000000000000000000000600052601160045260246000fd5b6000613b03826131db565b9150613b0e836131db565b9250828201905080821115613b2657613b25613ac9565b5b92915050565b7f4e6f7420656e6f7567682066756e6473206f6e20636f6e747261637400000000600082015250565b6000613b62601c836138fb565b9150613b6d82613b2c565b602082019050919050565b60006020820190508181036000830152613b9181613b55565b9050919050565b6000613ba3826131db565b9150613bae836131db565b9250828203905081811115613bc657613bc5613ac9565b5b92915050565b7f4e487b7100000000000000000000000000000000000000000000000000000000600052603260045260246000fd5b6000604082019050613c1060008301856131e5565b613c1d602083018461337f565b9392505050565b600067ffffffffffffffff821115613c3f57613c3e613473565b5b602082029050602081019050919050565b600080fd5b600080fd5b600081519050613c6981613255565b92915050565b600a8110613c7c57600080fd5b50565b600081519050613c8e81613c6f565b92915050565b600081519050613ca3816132ba565b92915050565b600060c08284031215613cbf57613cbe613c50565b5b613cc960c06134d3565b90506000613cd984828501613a1b565b6000830152506020613ced84828501613c5a565b6020830152506040613d0184828501613c7f565b6040830152506060613d1584828501613c94565b6060830152506080613d2984828501613c94565b60808301525060a0613d3d84828501613a1b565b60a08301525092915050565b6000613d5c613d5784613c24565b6134d3565b90508083825260208201905060c08402830185811115613d7f57613d7e61351a565b5b835b81811015613da85780613d948882613ca9565b84526020840193505060c081019050613d81565b5050509392505050565b600082601f830112613dc757613dc661345d565b5b8151613dd7848260208601613d49565b91505092915050565b600060208284031215613df657613df5613219565b5b600082015167ffffffffffffffff811115613e1457613e1361321e565b5b613e2084828501613db2565b91505092915050565b600067ffffffffffffffff821115613e4457613e43613473565b5b602082029050602081019050919050565b600060e08284031215613e6b57613e6a613c50565b5b613e7560e06134d3565b90506000613e8584828501613a1b565b6000830152506020613e9984828501613c5a565b6020830152506040613ead84828501613c5a565b6040830152506060613ec184828501613a1b565b6060830152506080613ed584828501613c94565b60808301525060a0613ee984828501613c94565b60a08301525060c0613efd84828501613a1b565b60c08301525092915050565b6000613f1c613f1784613e29565b6134d3565b90508083825260208201905060e08402830185811115613f3f57613f3e61351a565b5b835b81811015613f685780613f548882613e55565b84526020840193505060e081019050613f41565b5050509392505050565b600082601f830112613f8757613f8661345d565b5b8151613f97848260208601613f09565b91505092915050565b600060208284031215613fb657613fb5613219565b5b600082015167ffffffffffffffff811115613fd457613fd361321e565b5b613fe084828501613f72565b91505092915050565b600081519050919050565b600082825260208201905092915050565b6000819050602082019050919050565b61401e816131db565b82525050565b61402d81613243565b82525050565b600a811061404457614043613149565b5b50565b600081905061405582614033565b919050565b600061406582614047565b9050919050565b6140758161405a565b82525050565b614084816132ae565b82525050565b60c0820160008201516140a06000850182614015565b5060208201516140b36020850182614024565b5060408201516140c6604085018261406c565b5060608201516140d9606085018261407b565b5060808201516140ec608085018261407b565b5060a08201516140ff60a0850182614015565b50505050565b6000614111838361408a565b60c08301905092915050565b6000602082019050919050565b600061413582613fe9565b61413f8185613ff4565b935061414a83614005565b8060005b8381101561417b5781516141628882614105565b975061416d8361411d565b92505060018101905061414e565b5085935050505092915050565b600081519050919050565b600082825260208201905092915050565b6000819050602082019050919050565b60e0820160008201516141ca6000850182614015565b5060208201516141dd6020850182614024565b5060408201516141f06040850182614024565b5060608201516142036060850182614015565b506080820151614216608085018261407b565b5060a082015161422960a085018261407b565b5060c082015161423c60c0850182614015565b50505050565b600061424e83836141b4565b60e08301905092915050565b6000602082019050919050565b600061427282614188565b61427c8185614193565b9350614287836141a4565b8060005b838110156142b857815161429f8882614242565b97506142aa8361425a565b92505060018101905061428b565b5085935050505092915050565b600060408201905081810360008301526142df818561412a565b905081810360208301526142f38184614267565b90509392505050565b6000604082019050614311600083018561337f565b61431e60208301846131e5565b9392505050565b60006020828403121561433b5761433a613219565b5b600061434984828501613c94565b91505092915050565b7f57616c6c657420616c7265616479206164646564000000000000000000000000600082015250565b60006143886014836138fb565b915061439382614352565b602082019050919050565b600060208201905081810360008301526143b78161437b565b9050919050565b7f4e487b7100000000000000000000000000000000000000000000000000000000600052603160045260246000fd5b60006143f8826131db565b91507fffffffffffffffffffffffffffffffffffffffffffffffffffffffffffffffff820361442a57614429613ac9565b5b600182019050919050565b60006020828403121561444b5761444a613219565b5b600061445984828501613c5a565b91505092915050565b7f50726576696f757320726f756e64206e6f7420656e6465640000000000000000600082015250565b60006144986018836138fb565b91506144a382614462565b602082019050919050565b600060208201905081810360008301526144c78161448b565b9050919050565b7f4c6f74746572794d617374657256302e31000000000000000000000000000000600082015250565b60006145046011836138fb565b915061450f826144ce565b602082019050919050565b600060408201905061452f600083018461337f565b8181036020830152614540816144f7565b905092915050565b600060ff82169050919050565b61455e81614548565b811461456957600080fd5b50565b60008151905061457b81614555565b92915050565b60006020828403121561459757614596613219565b5b60006145a58482850161456c565b91505092915050565b60008160011c9050919050565b6000808291508390505b6001851115614605578086048111156145e1576145e0613ac9565b5b60018516156145f05780820291505b80810290506145fe856145ae565b94506145c5565b94509492505050565b60008261461e57600190506146da565b8161462c57600090506146da565b8160018114614642576002811461464c5761467b565b60019150506146da565b60ff84111561465e5761465d613ac9565b5b8360020a91508482111561467557614674613ac9565b5b506146da565b5060208310610133831016604e8410600b84101617156146b05782820a9050838111156146ab576146aa613ac9565b5b6146da565b6146bd84848460016145bb565b925090508184048111156146d4576146d3613ac9565b5b81810290505b9392505050565b60006146ec826131db565b91506146f7836131db565b92506147247fffffffffffffffffffffffffffffffffffffffffffffffffffffffffffffffff848461460e565b905092915050565b6000614737826131db565b9150614742836131db565b9250828202614750816131db565b9150828204841483151761476757614766613ac9565b5b5092915050565b600081519050919050565b600082825260208201905092915050565b6000819050602082019050919050565b6147a381613423565b82525050565b60006147b5838361479a565b60208301905092915050565b6000602082019050919050565b60006147d98261476e565b6147e38185614779565b93506147ee8361478a565b8060005b8381101561481f57815161480688826147a9565b9750614811836147c1565b9250506001810190506147f2565b5085935050505092915050565b6000602082019050818103600083015261484681846147ce565b905092915050565b7f4e487b7100000000000000000000000000000000000000000000000000000000600052601260045260246000fd5b60008151905061488c81613431565b92915050565b6000602082840312156148a8576148a7613219565b5b60006148b68482850161487d565b91505092915050565b60006148ca82613423565b91506148d583613423565b9250828201905061ffff8111156148ef576148ee613ac9565b5b92915050565b600063ffffffff82169050919050565b600061492061491b61491684613423565b6133a9565b6148f5565b9050919050565b61493081614905565b82525050565b600060208201905061494b6000830184614927565b92915050565b600067ffffffffffffffff82111561496c5761496b613473565b5b602082029050602081019050919050565b600061499061498b84614951565b6134d3565b905080838252602082019050602084028301858111156149b3576149b261351a565b5b835b818110156149dc57806149c88882613a1b565b8452602084019350506020810190506149b5565b5050509392505050565b600082601f8301126149fb576149fa61345d565b5b8151614a0b84826020860161497d565b91505092915050565b60008060408385031215614a2b57614a2a613219565b5b6000614a3985828601613c94565b925050602083015167ffffffffffffffff811115614a5a57614a5961321e565b5b614a66858286016149e6565b9150509250929050565b7f52616e646f6d206e756d62657273206e6f742072656164790000000000000000600082015250565b6000614aa66018836138fb565b9150614ab182614a70565b602082019050919050565b60006020820190508181036000830152614ad581614a99565b9050919050565b6000819050919050565b6000614b01614afc614af784614adc565b6133a9565b613423565b9050919050565b614b1181614ae6565b82525050565b6000606082019050614b2c60008301866131e5565b614b396020830185614b08565b8181036040830152614b4b81846147ce565b9050949350505050565b6000614b60826131db565b9150614b6b836131db565b925082614b7b57614b7a61484e565b5b828206905092915050565b6000614b99614b94846134ee565b6134d3565b90508083825260208201905060208402830185811115614bbc57614bbb61351a565b5b835b81811015614be55780614bd1888261487d565b845260208401935050602081019050614bbe565b5050509392505050565b600082601f830112614c0457614c0361345d565b5b8151614c14848260208601614b86565b91505092915050565b60006101608284031215614c3457614c33613c50565b5b614c3f6101606134d3565b90506000614c4f84828501613a1b565b6000830152506020614c6384828501613a1b565b6020830152506040614c7784828501613a1b565b6040830152506060614c8b84828501613c94565b606083015250608082015167ffffffffffffffff811115614caf57614cae613c55565b5b614cbb84828501614bef565b60808301525060a082015167ffffffffffffffff811115614cdf57614cde613c55565b5b614ceb848285016149e6565b60a08301525060c0614cff8482850161487d565b60c08301525060e082015167ffffffffffffffff811115614d2357614d22613c55565b5b614d2f848285016149e6565b60e083015250610100614d448482850161487d565b6101008301525061012082015167ffffffffffffffff811115614d6a57614d69613c55565b5b614d76848285016149e6565b61012083015250610140614d8c8482850161487d565b6101408301525092915050565b600060208284031215614daf57614dae613219565b5b600082015167ffffffffffffffff811115614dcd57614dcc61321e565b5b614dd984828501614c1d565b91505092915050565b6000606082019050614df760008301866131e5565b614e046020830185613771565b8181036040830152614e1681846147ce565b9050949350505050565b60006040820190508181036000830152614e3a81856147ce565b90508181036020830152614e4e81846147ce565b90509392505050565b6000604082019050614e6c600083018561337f565b614e79602083018461337f565b9392505050565b7f4d697373696e6720416c6c6f77616e6365000000000000000000000000000000600082015250565b6000614eb66011836138fb565b9150614ec182614e80565b602082019050919050565b60006020820190508181036000830152614ee581614ea9565b9050919050565b6000614ef7826131db565b915060008203614f0a57614f09613ac9565b5b600182039050919050565b7f496e73756666696369656e742066756e64730000000000000000000000000000600082015250565b6000614f4b6012836138fb565b9150614f5682614f15565b602082019050919050565b60006020820190508181036000830152614f7a81614f3e565b9050919050565b6000614f8c82613423565b915061ffff8203614fa057614f9f613ac9565b5b600182019050919050565b6000608082019050614fc060008301876131e5565b8181036020830152614fd281866147ce565b9050614fe1604083018561337f565b614fee606083018461337f565b95945050505050565b600060608201905061500c600083018661337f565b615019602083018561337f565b61502660408301846131e5565b949350505050565b600081519050919050565b600081905092915050565b60005b83811015615062578082015181840152602081019050615047565b60008484015250505050565b60006150798261502e565b6150838185615039565b9350615093818560208601615044565b80840191505092915050565b60006150ab828461506e565b91508190509291505056fea26469706673582212208c8ffcfdc936f99ae6b56a08a6d2c3e4c71b89b02c74b44e8963024c8e3b084f64736f6c63430008180033",
  "devdoc": {
    "errors": {
      "AddressEmptyCode(address)": [
        {
          "details": "There's no code at `target` (it is not a contract)."
        }
      ],
      "AddressInsufficientBalance(address)": [
        {
          "details": "The ETH balance of the account is not enough to perform the operation."
        }
      ],
      "FailedInnerCall()": [
        {
          "details": "A call to an address target failed. The target may have reverted."
        }
      ],
      "OwnableInvalidOwner(address)": [
        {
          "details": "The owner is not a valid owner account. (eg. `address(0)`)"
        }
      ],
      "OwnableUnauthorizedAccount(address)": [
        {
          "details": "The caller account is not authorized to perform an operation."
        }
      ],
      "SafeERC20FailedOperation(address)": [
        {
          "details": "An operation with an ERC20 token failed."
        }
      ]
    },
    "kind": "dev",
    "methods": {
      "owner()": {
        "details": "Returns the address of the current owner."
      },
      "renounceOwnership()": {
        "details": "Leaves the contract without owner. It will not be possible to call `onlyOwner` functions. Can only be called by the current owner. NOTE: Renouncing ownership will leave the contract without an owner, thereby disabling any functionality that is only available to the owner."
      },
      "transferOwnership(address)": {
        "details": "Transfers ownership of the contract to a new account (`newOwner`). Can only be called by the current owner."
      }
    },
    "version": 1
  },
  "userdoc": {
    "kind": "user",
    "methods": {},
    "version": 1
  },
  "storageLayout": {
    "storage": [
      {
        "astId": 8,
        "contract": "contracts/LotteryMaster.sol:LotteryMaster",
        "label": "_owner",
        "offset": 0,
        "slot": "0",
        "type": "t_address"
      },
      {
        "astId": 4854,
        "contract": "contracts/LotteryMaster.sol:LotteryMaster",
        "label": "teamAddress",
        "offset": 0,
        "slot": "1",
        "type": "t_address"
      },
      {
        "astId": 1029,
        "contract": "contracts/LotteryMaster.sol:LotteryMaster",
        "label": "roundCount",
        "offset": 0,
        "slot": "2",
        "type": "t_uint256"
      },
      {
        "astId": 1032,
        "contract": "contracts/LotteryMaster.sol:LotteryMaster",
        "label": "rounds",
        "offset": 0,
        "slot": "3",
        "type": "t_array(t_address)dyn_storage"
      },
      {
        "astId": 1035,
        "contract": "contracts/LotteryMaster.sol:LotteryMaster",
        "label": "lotteryStatus",
        "offset": 0,
        "slot": "4",
        "type": "t_enum(LotteryStatuses)1025"
      },
      {
        "astId": 1037,
        "contract": "contracts/LotteryMaster.sol:LotteryMaster",
        "label": "statusStartTime",
        "offset": 0,
        "slot": "5",
        "type": "t_uint256"
      },
      {
        "astId": 1039,
        "contract": "contracts/LotteryMaster.sol:LotteryMaster",
        "label": "statusEndTime",
        "offset": 0,
        "slot": "6",
        "type": "t_uint256"
      },
      {
        "astId": 1043,
        "contract": "contracts/LotteryMaster.sol:LotteryMaster",
        "label": "freeRounds",
        "offset": 0,
        "slot": "7",
        "type": "t_mapping(t_address,t_uint256)"
      },
      {
        "astId": 1047,
        "contract": "contracts/LotteryMaster.sol:LotteryMaster",
        "label": "crossChainOperator",
        "offset": 0,
        "slot": "8",
        "type": "t_mapping(t_address,t_bool)"
      },
      {
        "astId": 1065,
        "contract": "contracts/LotteryMaster.sol:LotteryMaster",
        "label": "counterForBankWallets",
        "offset": 0,
        "slot": "9",
        "type": "t_uint16"
      },
      {
        "astId": 1068,
        "contract": "contracts/LotteryMaster.sol:LotteryMaster",
        "label": "bankWallets",
        "offset": 0,
        "slot": "10",
        "type": "t_array(t_address)dyn_storage"
      },
      {
        "astId": 1135,
        "contract": "contracts/LotteryMaster.sol:LotteryMaster",
        "label": "paymentToken",
        "offset": 0,
        "slot": "11",
        "type": "t_contract(IERC20Metadata)251"
      },
      {
        "astId": 1138,
        "contract": "contracts/LotteryMaster.sol:LotteryMaster",
        "label": "randomizer",
        "offset": 0,
        "slot": "12",
        "type": "t_contract(CyclixRandomizerInterface)901"
      },
      {
        "astId": 1141,
        "contract": "contracts/LotteryMaster.sol:LotteryMaster",
        "label": "reader",
        "offset": 0,
        "slot": "13",
        "type": "t_contract(LotteryReaderInterface)3804"
      },
      {
        "astId": 1143,
        "contract": "contracts/LotteryMaster.sol:LotteryMaster",
        "label": "ticketPrice",
        "offset": 0,
        "slot": "14",
        "type": "t_uint256"
      },
      {
        "astId": 1146,
        "contract": "contracts/LotteryMaster.sol:LotteryMaster",
        "label": "freeRoundsAreEnabled",
        "offset": 0,
        "slot": "15",
        "type": "t_bool"
      },
      {
        "astId": 1149,
        "contract": "contracts/LotteryMaster.sol:LotteryMaster",
        "label": "percentageOfReferralWinners",
        "offset": 1,
        "slot": "15",
        "type": "t_uint16"
      },
      {
        "astId": 1152,
        "contract": "contracts/LotteryMaster.sol:LotteryMaster",
        "label": "lotteryRoundCreator",
        "offset": 3,
        "slot": "15",
        "type": "t_contract(LotteryRoundCreatorInterface)4731"
      },
      {
        "astId": 1710,
        "contract": "contracts/LotteryMaster.sol:LotteryMaster",
        "label": "publicRoundRandomNumbersRequestId",
        "offset": 0,
        "slot": "16",
        "type": "t_mapping(t_uint256,t_uint256)"
      }
    ],
    "types": {
      "t_address": {
        "encoding": "inplace",
        "label": "address",
        "numberOfBytes": "20"
      },
      "t_array(t_address)dyn_storage": {
        "base": "t_address",
        "encoding": "dynamic_array",
        "label": "address[]",
        "numberOfBytes": "32"
      },
      "t_bool": {
        "encoding": "inplace",
        "label": "bool",
        "numberOfBytes": "1"
      },
      "t_contract(CyclixRandomizerInterface)901": {
        "encoding": "inplace",
        "label": "contract CyclixRandomizerInterface",
        "numberOfBytes": "20"
      },
      "t_contract(IERC20Metadata)251": {
        "encoding": "inplace",
        "label": "contract IERC20Metadata",
        "numberOfBytes": "20"
      },
      "t_contract(LotteryReaderInterface)3804": {
        "encoding": "inplace",
        "label": "contract LotteryReaderInterface",
        "numberOfBytes": "20"
      },
      "t_contract(LotteryRoundCreatorInterface)4731": {
        "encoding": "inplace",
        "label": "contract LotteryRoundCreatorInterface",
        "numberOfBytes": "20"
      },
      "t_enum(LotteryStatuses)1025": {
        "encoding": "inplace",
        "label": "enum LotteryStatuses",
        "numberOfBytes": "1"
      },
      "t_mapping(t_address,t_bool)": {
        "encoding": "mapping",
        "key": "t_address",
        "label": "mapping(address => bool)",
        "numberOfBytes": "32",
        "value": "t_bool"
      },
      "t_mapping(t_address,t_uint256)": {
        "encoding": "mapping",
        "key": "t_address",
        "label": "mapping(address => uint256)",
        "numberOfBytes": "32",
        "value": "t_uint256"
      },
      "t_mapping(t_uint256,t_uint256)": {
        "encoding": "mapping",
        "key": "t_uint256",
        "label": "mapping(uint256 => uint256)",
        "numberOfBytes": "32",
        "value": "t_uint256"
      },
      "t_uint16": {
        "encoding": "inplace",
        "label": "uint16",
        "numberOfBytes": "2"
      },
      "t_uint256": {
        "encoding": "inplace",
        "label": "uint256",
        "numberOfBytes": "32"
      }
    }
  }
}