{
  "address": "0xF456EE73aa694e4bEc78C0E1847a2403A316e21b",
  "abi": [
    {
      "inputs": [
        {
          "internalType": "address",
          "name": "_usdt",
          "type": "address"
        }
      ],
      "stateMutability": "nonpayable",
      "type": "constructor"
    },
    {
      "inputs": [
        {
          "internalType": "address",
          "name": "target",
          "type": "address"
        }
      ],
      "name": "AddressEmptyCode",
      "type": "error"
    },
    {
      "inputs": [
        {
          "internalType": "address",
          "name": "account",
          "type": "address"
        }
      ],
      "name": "AddressInsufficientBalance",
      "type": "error"
    },
    {
      "inputs": [],
      "name": "FailedInnerCall",
      "type": "error"
    },
    {
      "inputs": [
        {
          "internalType": "address",
          "name": "token",
          "type": "address"
        }
      ],
      "name": "SafeERC20FailedOperation",
      "type": "error"
    },
    {
      "inputs": [],
      "name": "getOneHundredDollars",
      "outputs": [],
      "stateMutability": "nonpayable",
      "type": "function"
    },
    {
      "inputs": [],
      "name": "getOneThousandsDollars",
      "outputs": [],
      "stateMutability": "nonpayable",
      "type": "function"
    },
    {
      "inputs": [],
      "name": "usdtAddress",
      "outputs": [
        {
          "internalType": "address",
          "name": "",
          "type": "address"
        }
      ],
      "stateMutability": "view",
      "type": "function"
    }
  ],
  "transactionHash": "0xeaa54288d74937194927d43380d1e70cc330e3a11d48d84be72461d32ef6bf36",
  "args": [
    "0x2e13f2B116b8d4B765D730f20A4aF09d15D8B62e"
  ],
  "numDeployments": 2,
  "solcInputHash": "ce440d15ecba4ac2e6687ff20374a450",
  "bytecode": "0x608060405234801561001057600080fd5b506040516106c53803806106c5833981810160405281019061003291906100db565b806000806101000a81548173ffffffffffffffffffffffffffffffffffffffff021916908373ffffffffffffffffffffffffffffffffffffffff16021790555050610108565b600080fd5b600073ffffffffffffffffffffffffffffffffffffffff82169050919050565b60006100a88261007d565b9050919050565b6100b88161009d565b81146100c357600080fd5b50565b6000815190506100d5816100af565b92915050565b6000602082840312156100f1576100f0610078565b5b60006100ff848285016100c6565b91505092915050565b6105ae806101176000396000f3fe608060405234801561001057600080fd5b50600436106100415760003560e01c80631ad0852e146100465780633d2cb4b1146100505780639ab4a4451461005a575b600080fd5b61004e610078565b005b6100586100af565b005b6100626100e6565b60405161006f919061041b565b60405180910390f35b6100ad60008054906101000a900473ffffffffffffffffffffffffffffffffffffffff163033683635c9adc5dea0000061010a565b565b6100e460008054906101000a900473ffffffffffffffffffffffffffffffffffffffff16303368056bc75e2d6310000061010a565b565b60008054906101000a900473ffffffffffffffffffffffffffffffffffffffff1681565b610186848573ffffffffffffffffffffffffffffffffffffffff166323b872dd86868660405160240161013f9392919061044f565b604051602081830303815290604052915060e01b6020820180517bffffffffffffffffffffffffffffffffffffffffffffffffffffffff838183161783525050505061018c565b50505050565b60006101b7828473ffffffffffffffffffffffffffffffffffffffff1661022390919063ffffffff16565b905060008151141580156101dc5750808060200190518101906101da91906104c3565b155b1561021e57826040517f5274afe7000000000000000000000000000000000000000000000000000000008152600401610215919061041b565b60405180910390fd5b505050565b606061023183836000610239565b905092915050565b60608147101561028057306040517fcd786059000000000000000000000000000000000000000000000000000000008152600401610277919061041b565b60405180910390fd5b6000808573ffffffffffffffffffffffffffffffffffffffff1684866040516102a99190610561565b60006040518083038185875af1925050503d80600081146102e6576040519150601f19603f3d011682016040523d82523d6000602084013e6102eb565b606091505b50915091506102fb868383610306565b925050509392505050565b60608261031b5761031682610395565b61038d565b60008251148015610343575060008473ffffffffffffffffffffffffffffffffffffffff163b145b1561038557836040517f9996b31500000000000000000000000000000000000000000000000000000000815260040161037c919061041b565b60405180910390fd5b81905061038e565b5b9392505050565b6000815111156103a85780518082602001fd5b6040517f1425ea4200000000000000000000000000000000000000000000000000000000815260040160405180910390fd5b600073ffffffffffffffffffffffffffffffffffffffff82169050919050565b6000610405826103da565b9050919050565b610415816103fa565b82525050565b6000602082019050610430600083018461040c565b92915050565b6000819050919050565b61044981610436565b82525050565b6000606082019050610464600083018661040c565b610471602083018561040c565b61047e6040830184610440565b949350505050565b600080fd5b60008115159050919050565b6104a08161048b565b81146104ab57600080fd5b50565b6000815190506104bd81610497565b92915050565b6000602082840312156104d9576104d8610486565b5b60006104e7848285016104ae565b91505092915050565b600081519050919050565b600081905092915050565b60005b83811015610524578082015181840152602081019050610509565b60008484015250505050565b600061053b826104f0565b61054581856104fb565b9350610555818560208601610506565b80840191505092915050565b600061056d8284610530565b91508190509291505056fea2646970667358221220582b02b3ceb9826b602d6ec285afe050da2d93906be3810311bd19d63024934164736f6c63430008180033",
  "devdoc": {
    "errors": {
      "AddressEmptyCode(address)": [
        {
          "details": "There's no code at `target` (it is not a contract)."
        }
      ],
      "AddressInsufficientBalance(address)": [
        {
          "details": "The ETH balance of the account is not enough to perform the operation."
        }
      ],
      "FailedInnerCall()": [
        {
          "details": "A call to an address target failed. The target may have reverted."
        }
      ],
      "SafeERC20FailedOperation(address)": [
        {
          "details": "An operation with an ERC20 token failed."
        }
      ]
    },
    "kind": "dev",
    "methods": {},
    "version": 1
  },
  "userdoc": {
    "kind": "user",
    "methods": {},
    "version": 1
  },
  "storageLayout": {
    "storage": [
      {
        "astId": 1370,
        "contract": "contracts/utils/UsdtTestBank.sol:UsdtTestBank",
        "label": "usdtAddress",
        "offset": 0,
        "slot": "0",
        "type": "t_address"
      }
    ],
    "types": {
      "t_address": {
        "encoding": "inplace",
        "label": "address",
        "numberOfBytes": "20"
      }
    }
  }
}